{
	"staking.sol": {
		"mochiStaking": {
			"abi": [
				{
					"inputs": [
						{
							"internalType": "address",
							"name": "_token",
							"type": "address"
						}
					],
					"stateMutability": "nonpayable",
					"type": "constructor"
				},
				{
					"anonymous": false,
					"inputs": [
						{
							"indexed": true,
							"internalType": "address",
							"name": "previousOwner",
							"type": "address"
						},
						{
							"indexed": true,
							"internalType": "address",
							"name": "newOwner",
							"type": "address"
						}
					],
					"name": "OwnershipTransferred",
					"type": "event"
				},
				{
					"anonymous": false,
					"inputs": [
						{
							"indexed": false,
							"internalType": "address",
							"name": "account",
							"type": "address"
						}
					],
					"name": "Paused",
					"type": "event"
				},
				{
					"anonymous": false,
					"inputs": [
						{
							"indexed": false,
							"internalType": "address",
							"name": "account",
							"type": "address"
						}
					],
					"name": "Unpaused",
					"type": "event"
				},
				{
					"anonymous": false,
					"inputs": [
						{
							"indexed": false,
							"internalType": "address",
							"name": "user",
							"type": "address"
						},
						{
							"indexed": false,
							"internalType": "uint8",
							"name": "class",
							"type": "uint8"
						},
						{
							"indexed": false,
							"internalType": "uint256",
							"name": "amount",
							"type": "uint256"
						},
						{
							"indexed": false,
							"internalType": "uint256",
							"name": "timeStart",
							"type": "uint256"
						},
						{
							"indexed": false,
							"internalType": "uint256",
							"name": "timeEnd",
							"type": "uint256"
						}
					],
					"name": "deposit",
					"type": "event"
				},
				{
					"anonymous": false,
					"inputs": [
						{
							"indexed": false,
							"internalType": "address",
							"name": "user",
							"type": "address"
						},
						{
							"indexed": false,
							"internalType": "uint8",
							"name": "class",
							"type": "uint8"
						},
						{
							"indexed": false,
							"internalType": "bool",
							"name": "onTime",
							"type": "bool"
						},
						{
							"indexed": false,
							"internalType": "uint256",
							"name": "amount",
							"type": "uint256"
						},
						{
							"indexed": false,
							"internalType": "uint256",
							"name": "earnings",
							"type": "uint256"
						}
					],
					"name": "withdraw",
					"type": "event"
				},
				{
					"inputs": [],
					"name": "acceptedToken",
					"outputs": [
						{
							"internalType": "contract IERC20",
							"name": "",
							"type": "address"
						}
					],
					"stateMutability": "view",
					"type": "function"
				},
				{
					"inputs": [
						{
							"internalType": "uint256",
							"name": "_amount",
							"type": "uint256"
						}
					],
					"name": "enterLevel0",
					"outputs": [],
					"stateMutability": "nonpayable",
					"type": "function"
				},
				{
					"inputs": [
						{
							"internalType": "uint256",
							"name": "_amount",
							"type": "uint256"
						}
					],
					"name": "enterLevel1",
					"outputs": [],
					"stateMutability": "nonpayable",
					"type": "function"
				},
				{
					"inputs": [
						{
							"internalType": "uint256",
							"name": "_amount",
							"type": "uint256"
						}
					],
					"name": "enterVip",
					"outputs": [],
					"stateMutability": "nonpayable",
					"type": "function"
				},
				{
					"inputs": [
						{
							"internalType": "address",
							"name": "user",
							"type": "address"
						},
						{
							"internalType": "uint8",
							"name": "class",
							"type": "uint8"
						},
						{
							"internalType": "uint256",
							"name": "balance",
							"type": "uint256"
						}
					],
					"name": "getInterest",
					"outputs": [
						{
							"internalType": "uint256",
							"name": "",
							"type": "uint256"
						}
					],
					"stateMutability": "view",
					"type": "function"
				},
				{
					"inputs": [
						{
							"internalType": "address",
							"name": "",
							"type": "address"
						}
					],
					"name": "isLevel0",
					"outputs": [
						{
							"internalType": "bool",
							"name": "",
							"type": "bool"
						}
					],
					"stateMutability": "view",
					"type": "function"
				},
				{
					"inputs": [
						{
							"internalType": "address",
							"name": "",
							"type": "address"
						}
					],
					"name": "isLevel1",
					"outputs": [
						{
							"internalType": "bool",
							"name": "",
							"type": "bool"
						}
					],
					"stateMutability": "view",
					"type": "function"
				},
				{
					"inputs": [
						{
							"internalType": "address",
							"name": "user",
							"type": "address"
						},
						{
							"internalType": "uint8",
							"name": "class",
							"type": "uint8"
						}
					],
					"name": "isOnTime",
					"outputs": [
						{
							"internalType": "bool",
							"name": "",
							"type": "bool"
						}
					],
					"stateMutability": "view",
					"type": "function"
				},
				{
					"inputs": [
						{
							"internalType": "address",
							"name": "",
							"type": "address"
						}
					],
					"name": "isVip",
					"outputs": [
						{
							"internalType": "bool",
							"name": "",
							"type": "bool"
						}
					],
					"stateMutability": "view",
					"type": "function"
				},
				{
					"inputs": [],
					"name": "level0APY",
					"outputs": [
						{
							"internalType": "uint256",
							"name": "",
							"type": "uint256"
						}
					],
					"stateMutability": "view",
					"type": "function"
				},
				{
					"inputs": [
						{
							"internalType": "address",
							"name": "",
							"type": "address"
						}
					],
					"name": "level0Balance",
					"outputs": [
						{
							"internalType": "uint256",
							"name": "balance",
							"type": "uint256"
						},
						{
							"internalType": "uint256",
							"name": "timeStarted",
							"type": "uint256"
						},
						{
							"internalType": "uint256",
							"name": "timeFinish",
							"type": "uint256"
						}
					],
					"stateMutability": "view",
					"type": "function"
				},
				{
					"inputs": [],
					"name": "level0Max",
					"outputs": [
						{
							"internalType": "uint256",
							"name": "",
							"type": "uint256"
						}
					],
					"stateMutability": "view",
					"type": "function"
				},
				{
					"inputs": [],
					"name": "level0Min",
					"outputs": [
						{
							"internalType": "uint256",
							"name": "",
							"type": "uint256"
						}
					],
					"stateMutability": "view",
					"type": "function"
				},
				{
					"inputs": [],
					"name": "level1APY",
					"outputs": [
						{
							"internalType": "uint256",
							"name": "",
							"type": "uint256"
						}
					],
					"stateMutability": "view",
					"type": "function"
				},
				{
					"inputs": [
						{
							"internalType": "address",
							"name": "",
							"type": "address"
						}
					],
					"name": "level1Balance",
					"outputs": [
						{
							"internalType": "uint256",
							"name": "balance",
							"type": "uint256"
						},
						{
							"internalType": "uint256",
							"name": "timeStarted",
							"type": "uint256"
						},
						{
							"internalType": "uint256",
							"name": "timeFinish",
							"type": "uint256"
						}
					],
					"stateMutability": "view",
					"type": "function"
				},
				{
					"inputs": [],
					"name": "level1Max",
					"outputs": [
						{
							"internalType": "uint256",
							"name": "",
							"type": "uint256"
						}
					],
					"stateMutability": "view",
					"type": "function"
				},
				{
					"inputs": [],
					"name": "level1Min",
					"outputs": [
						{
							"internalType": "uint256",
							"name": "",
							"type": "uint256"
						}
					],
					"stateMutability": "view",
					"type": "function"
				},
				{
					"inputs": [],
					"name": "levelVipMax",
					"outputs": [
						{
							"internalType": "uint256",
							"name": "",
							"type": "uint256"
						}
					],
					"stateMutability": "view",
					"type": "function"
				},
				{
					"inputs": [],
					"name": "levelVipMin",
					"outputs": [
						{
							"internalType": "uint256",
							"name": "",
							"type": "uint256"
						}
					],
					"stateMutability": "view",
					"type": "function"
				},
				{
					"inputs": [],
					"name": "owner",
					"outputs": [
						{
							"internalType": "address",
							"name": "",
							"type": "address"
						}
					],
					"stateMutability": "view",
					"type": "function"
				},
				{
					"inputs": [],
					"name": "pause",
					"outputs": [],
					"stateMutability": "nonpayable",
					"type": "function"
				},
				{
					"inputs": [],
					"name": "paused",
					"outputs": [
						{
							"internalType": "bool",
							"name": "",
							"type": "bool"
						}
					],
					"stateMutability": "view",
					"type": "function"
				},
				{
					"inputs": [],
					"name": "renounceOwnership",
					"outputs": [],
					"stateMutability": "nonpayable",
					"type": "function"
				},
				{
					"inputs": [
						{
							"internalType": "uint256",
							"name": "_level0APY",
							"type": "uint256"
						},
						{
							"internalType": "uint256",
							"name": "_level1APY",
							"type": "uint256"
						},
						{
							"internalType": "uint256",
							"name": "_vipLevelAPY",
							"type": "uint256"
						}
					],
					"name": "setNewAPY",
					"outputs": [],
					"stateMutability": "nonpayable",
					"type": "function"
				},
				{
					"inputs": [
						{
							"internalType": "uint256",
							"name": "_level0Min",
							"type": "uint256"
						},
						{
							"internalType": "uint256",
							"name": "_level0Max",
							"type": "uint256"
						},
						{
							"internalType": "uint256",
							"name": "_level1Min",
							"type": "uint256"
						},
						{
							"internalType": "uint256",
							"name": "_level1Max",
							"type": "uint256"
						},
						{
							"internalType": "uint256",
							"name": "_levelVipMin",
							"type": "uint256"
						},
						{
							"internalType": "uint256",
							"name": "_levelVipMax",
							"type": "uint256"
						}
					],
					"name": "setNewMaxMin",
					"outputs": [],
					"stateMutability": "nonpayable",
					"type": "function"
				},
				{
					"inputs": [
						{
							"internalType": "address",
							"name": "newOwner",
							"type": "address"
						}
					],
					"name": "transferOwnership",
					"outputs": [],
					"stateMutability": "nonpayable",
					"type": "function"
				},
				{
					"inputs": [],
					"name": "uniswapV2Router",
					"outputs": [
						{
							"internalType": "contract IDexRouter",
							"name": "",
							"type": "address"
						}
					],
					"stateMutability": "view",
					"type": "function"
				},
				{
					"inputs": [],
					"name": "unpause",
					"outputs": [],
					"stateMutability": "nonpayable",
					"type": "function"
				},
				{
					"inputs": [
						{
							"internalType": "address",
							"name": "",
							"type": "address"
						}
					],
					"name": "vipBalance",
					"outputs": [
						{
							"internalType": "uint256",
							"name": "balance",
							"type": "uint256"
						},
						{
							"internalType": "uint256",
							"name": "timeStarted",
							"type": "uint256"
						},
						{
							"internalType": "uint256",
							"name": "timeFinish",
							"type": "uint256"
						}
					],
					"stateMutability": "view",
					"type": "function"
				},
				{
					"inputs": [],
					"name": "vipLevelAPY",
					"outputs": [
						{
							"internalType": "uint256",
							"name": "",
							"type": "uint256"
						}
					],
					"stateMutability": "view",
					"type": "function"
				},
				{
					"inputs": [
						{
							"internalType": "uint256",
							"name": "_amount",
							"type": "uint256"
						}
					],
					"name": "withdrawLevel0",
					"outputs": [],
					"stateMutability": "nonpayable",
					"type": "function"
				},
				{
					"inputs": [
						{
							"internalType": "uint256",
							"name": "_amount",
							"type": "uint256"
						}
					],
					"name": "withdrawLevel1",
					"outputs": [],
					"stateMutability": "nonpayable",
					"type": "function"
				},
				{
					"inputs": [
						{
							"internalType": "uint256",
							"name": "_amount",
							"type": "uint256"
						}
					],
					"name": "withdrawVip",
					"outputs": [],
					"stateMutability": "nonpayable",
					"type": "function"
				}
			],
			"devdoc": {
				"kind": "dev",
				"methods": {
					"enterLevel0(uint256)": {
						"details": "Join to a staking class. Requirements:   - User has not enter the staking class previously. "
					},
					"enterLevel1(uint256)": {
						"details": "Join to a staking class. Requirements:    - User has not enter the staking class previously.   "
					},
					"enterVip(uint256)": {
						"details": "Join to a staking class. Requirements: - _amount must be greather than enter fee. - User has not enter the staking class previously.    "
					},
					"getInterest(address,uint8,uint256)": {
						"details": "Get interest earned during the staking time. classes : 0 - level 0, 1 - level 1, 2 - Vip"
					},
					"isOnTime(address,uint8)": {
						"details": "Checks if the staking has reached the timeFinish limit. classes :0 - level 0, 1 - level 1, 2 - Vip"
					},
					"owner()": {
						"details": "Returns the address of the current owner."
					},
					"paused()": {
						"details": "Returns true if the contract is paused, and false otherwise."
					},
					"renounceOwnership()": {
						"details": "Leaves the contract without owner. It will not be possible to call `onlyOwner` functions anymore. Can only be called by the current owner. NOTE: Renouncing ownership will leave the contract without an owner, thereby removing any functionality that is only available to the owner."
					},
					"setNewAPY(uint256,uint256,uint256)": {
						"details": "Change APY for all categories.   "
					},
					"setNewMaxMin(uint256,uint256,uint256,uint256,uint256,uint256)": {
						"details": "Change max and min values for all categories.   "
					},
					"transferOwnership(address)": {
						"details": "Transfers ownership of the contract to a new account (`newOwner`). Can only be called by the current owner."
					},
					"withdrawLevel0(uint256)": {
						"details": "Withdraw from a staking class. Requirements: - Msg.sender should have an active deposit in the class."
					},
					"withdrawLevel1(uint256)": {
						"details": "Withdraw from a staking class. Requirements: - Msg.sender should have an active deposit in the class."
					},
					"withdrawVip(uint256)": {
						"details": "Withdraw from a staking class. Requirements: - Msg.sender should have an active deposit in the class."
					}
				},
				"version": 1
			},
			"evm": {
				"assembly": "    /* \"staking.sol\":930:12028  contract mochiStaking is Ownable, Pausable {... */\n  mstore(0x40, 0xa0)\n    /* \"staking.sol\":1261:1265  2700 */\n  0x0a8c\n    /* \"staking.sol\":1233:1265  uint256 public level0APY =  2700 */\n  0x02\n  sstore\n    /* \"staking.sol\":1298:1302  3700 */\n  0x0e74\n    /* \"staking.sol\":1271:1302  uint256 public level1APY = 3700 */\n  0x03\n  sstore\n    /* \"staking.sol\":1337:1341  4800 */\n  0x12c0\n    /* \"staking.sol\":1308:1341  uint256 public vipLevelAPY = 4800 */\n  0x04\n  sstore\n    /* \"staking.sol\":1409:1420  50 * 10**18 */\n  0x02b5e3af16b1880000\n    /* \"staking.sol\":1382:1420  uint256 public level0Min = 50 * 10**18 */\n  0x05\n  sstore\n    /* \"staking.sol\":1453:1471  500000000 * 10**18 */\n  0x019d971e4fe8401e74000000\n    /* \"staking.sol\":1426:1471  uint256 public level0Max = 500000000 * 10**18 */\n  0x06\n  sstore\n    /* \"staking.sol\":1504:1516  100 * 10**18 */\n  0x056bc75e2d63100000\n    /* \"staking.sol\":1477:1516  uint256 public level1Min = 100 * 10**18 */\n  0x07\n  sstore\n    /* \"staking.sol\":1549:1567  500000000 * 10**18 */\n  0x019d971e4fe8401e74000000\n    /* \"staking.sol\":1522:1567  uint256 public level1Max = 500000000 * 10**18 */\n  0x08\n  sstore\n    /* \"staking.sol\":1602:1614  200 * 10**18 */\n  0x0ad78ebc5ac6200000\n    /* \"staking.sol\":1573:1614  uint256 public levelVipMin = 200 * 10**18 */\n  0x09\n  sstore\n    /* \"staking.sol\":1649:1668  2500000000 * 10**18 */\n  0x0813f3978f89409844000000\n    /* \"staking.sol\":1620:1668  uint256 public levelVipMax = 2500000000 * 10**18 */\n  0x0a\n  sstore\n    /* \"staking.sol\":2357:2593  constructor(address _token ) {... */\n  callvalue\n  dup1\n  iszero\n  tag_1\n  jumpi\n  0x00\n  dup1\n  revert\ntag_1:\n  pop\n  mload(0x40)\n  sub(codesize, bytecodeSize)\n  dup1\n  bytecodeSize\n  dup4\n  codecopy\n  dup2\n  dup2\n  add\n  0x40\n  mstore\n  dup2\n  add\n  swap1\n  tag_2\n  swap2\n  swap1\n  tag_3\n  jump\t// in\ntag_2:\n    /* \"@openzeppelin/contracts/access/Ownable.sol\":921:953  _transferOwnership(_msgSender()) */\n  tag_8\n    /* \"@openzeppelin/contracts/access/Ownable.sol\":940:952  _msgSender() */\n  tag_9\n    /* \"@openzeppelin/contracts/access/Ownable.sol\":940:950  _msgSender */\n  shl(0x20, tag_10)\n    /* \"@openzeppelin/contracts/access/Ownable.sol\":940:952  _msgSender() */\n  0x20\n  shr\n  jump\t// in\ntag_9:\n    /* \"@openzeppelin/contracts/access/Ownable.sol\":921:939  _transferOwnership */\n  shl(0x20, tag_11)\n    /* \"@openzeppelin/contracts/access/Ownable.sol\":921:953  _transferOwnership(_msgSender()) */\n  0x20\n  shr\n  jump\t// in\ntag_8:\n    /* \"@openzeppelin/contracts/security/Pausable.sol\":991:996  false */\n  0x00\n    /* \"@openzeppelin/contracts/security/Pausable.sol\":981:988  _paused */\n  dup1\n  0x14\n    /* \"@openzeppelin/contracts/security/Pausable.sol\":981:996  _paused = false */\n  0x0100\n  exp\n  dup2\n  sload\n  dup2\n  0xff\n  mul\n  not\n  and\n  swap1\n  dup4\n  iszero\n  iszero\n  mul\n  or\n  swap1\n  sstore\n  pop\n    /* \"staking.sol\":2419:2425  _token */\n  dup1\n    /* \"staking.sol\":2396:2409  acceptedToken */\n  0x01\n  0x00\n    /* \"staking.sol\":2396:2426  acceptedToken = IERC20(_token) */\n  0x0100\n  exp\n  dup2\n  sload\n  dup2\n  0xffffffffffffffffffffffffffffffffffffffff\n  mul\n  not\n  and\n  swap1\n  dup4\n  0xffffffffffffffffffffffffffffffffffffffff\n  and\n  mul\n  or\n  swap1\n  sstore\n  pop\n    /* \"staking.sol\":2436:2463  IDexRouter _uniswapV2Router */\n  0x00\n    /* \"staking.sol\":2477:2519  0x7a250d5630B4cF539739dF2C5dAcb4c659F2488D */\n  0x7a250d5630b4cf539739df2c5dacb4c659f2488d\n    /* \"staking.sol\":2436:2520  IDexRouter _uniswapV2Router = IDexRouter(0x7a250d5630B4cF539739dF2C5dAcb4c659F2488D) */\n  swap1\n  pop\n    /* \"staking.sol\":2566:2582  _uniswapV2Router */\n  dup1\n    /* \"staking.sol\":2548:2582  uniswapV2Router = _uniswapV2Router */\n  0xffffffffffffffffffffffffffffffffffffffff\n  and\n  0x80\n  dup2\n  0xffffffffffffffffffffffffffffffffffffffff\n  and\n  0x60\n  shl\n  dup2\n  mstore\n  pop\n  pop\n    /* \"staking.sol\":2386:2593  {... */\n  pop\n    /* \"staking.sol\":2357:2593  constructor(address _token ) {... */\n  pop\n    /* \"staking.sol\":930:12028  contract mochiStaking is Ownable, Pausable {... */\n  jump(tag_14)\n    /* \"@openzeppelin/contracts/utils/Context.sol\":640:736  function _msgSender() internal view virtual returns (address) {... */\ntag_10:\n    /* \"@openzeppelin/contracts/utils/Context.sol\":693:700  address */\n  0x00\n    /* \"@openzeppelin/contracts/utils/Context.sol\":719:729  msg.sender */\n  caller\n    /* \"@openzeppelin/contracts/utils/Context.sol\":712:729  return msg.sender */\n  swap1\n  pop\n    /* \"@openzeppelin/contracts/utils/Context.sol\":640:736  function _msgSender() internal view virtual returns (address) {... */\n  swap1\n  jump\t// out\n    /* \"@openzeppelin/contracts/access/Ownable.sol\":2270:2457  function _transferOwnership(address newOwner) internal virtual {... */\ntag_11:\n    /* \"@openzeppelin/contracts/access/Ownable.sol\":2343:2359  address oldOwner */\n  0x00\n    /* \"@openzeppelin/contracts/access/Ownable.sol\":2362:2368  _owner */\n  dup1\n  0x00\n  swap1\n  sload\n  swap1\n  0x0100\n  exp\n  swap1\n  div\n  0xffffffffffffffffffffffffffffffffffffffff\n  and\n    /* \"@openzeppelin/contracts/access/Ownable.sol\":2343:2368  address oldOwner = _owner */\n  swap1\n  pop\n    /* \"@openzeppelin/contracts/access/Ownable.sol\":2387:2395  newOwner */\n  dup2\n    /* \"@openzeppelin/contracts/access/Ownable.sol\":2378:2384  _owner */\n  0x00\n  dup1\n    /* \"@openzeppelin/contracts/access/Ownable.sol\":2378:2395  _owner = newOwner */\n  0x0100\n  exp\n  dup2\n  sload\n  dup2\n  0xffffffffffffffffffffffffffffffffffffffff\n  mul\n  not\n  and\n  swap1\n  dup4\n  0xffffffffffffffffffffffffffffffffffffffff\n  and\n  mul\n  or\n  swap1\n  sstore\n  pop\n    /* \"@openzeppelin/contracts/access/Ownable.sol\":2441:2449  newOwner */\n  dup2\n    /* \"@openzeppelin/contracts/access/Ownable.sol\":2410:2450  OwnershipTransferred(oldOwner, newOwner) */\n  0xffffffffffffffffffffffffffffffffffffffff\n  and\n    /* \"@openzeppelin/contracts/access/Ownable.sol\":2431:2439  oldOwner */\n  dup2\n    /* \"@openzeppelin/contracts/access/Ownable.sol\":2410:2450  OwnershipTransferred(oldOwner, newOwner) */\n  0xffffffffffffffffffffffffffffffffffffffff\n  and\n  0x8be0079c531659141344cd1fd0a4f28419497f9722a3daafe3b4186f6b6457e0\n  mload(0x40)\n  mload(0x40)\n  dup1\n  swap2\n  sub\n  swap1\n  log3\n    /* \"@openzeppelin/contracts/access/Ownable.sol\":2333:2457  {... */\n  pop\n    /* \"@openzeppelin/contracts/access/Ownable.sol\":2270:2457  function _transferOwnership(address newOwner) internal virtual {... */\n  pop\n  jump\t// out\n    /* \"#utility.yul\":7:150   */\ntag_18:\n    /* \"#utility.yul\":64:69   */\n  0x00\n    /* \"#utility.yul\":95:101   */\n  dup2\n    /* \"#utility.yul\":89:102   */\n  mload\n    /* \"#utility.yul\":80:102   */\n  swap1\n  pop\n    /* \"#utility.yul\":111:144   */\n  tag_20\n    /* \"#utility.yul\":138:143   */\n  dup2\n    /* \"#utility.yul\":111:144   */\n  tag_21\n  jump\t// in\ntag_20:\n    /* \"#utility.yul\":7:150   */\n  swap3\n  swap2\n  pop\n  pop\n  jump\t// out\n    /* \"#utility.yul\":156:507   */\ntag_3:\n    /* \"#utility.yul\":226:232   */\n  0x00\n    /* \"#utility.yul\":275:277   */\n  0x20\n    /* \"#utility.yul\":263:272   */\n  dup3\n    /* \"#utility.yul\":254:261   */\n  dup5\n    /* \"#utility.yul\":250:273   */\n  sub\n    /* \"#utility.yul\":246:278   */\n  slt\n    /* \"#utility.yul\":243:362   */\n  iszero\n  tag_23\n  jumpi\n    /* \"#utility.yul\":281:360   */\n  tag_24\n  tag_25\n  jump\t// in\ntag_24:\n    /* \"#utility.yul\":243:362   */\ntag_23:\n    /* \"#utility.yul\":401:402   */\n  0x00\n    /* \"#utility.yul\":426:490   */\n  tag_26\n    /* \"#utility.yul\":482:489   */\n  dup5\n    /* \"#utility.yul\":473:479   */\n  dup3\n    /* \"#utility.yul\":462:471   */\n  dup6\n    /* \"#utility.yul\":458:480   */\n  add\n    /* \"#utility.yul\":426:490   */\n  tag_18\n  jump\t// in\ntag_26:\n    /* \"#utility.yul\":416:490   */\n  swap2\n  pop\n    /* \"#utility.yul\":372:500   */\n  pop\n    /* \"#utility.yul\":156:507   */\n  swap3\n  swap2\n  pop\n  pop\n  jump\t// out\n    /* \"#utility.yul\":594:690   */\ntag_29:\n    /* \"#utility.yul\":631:638   */\n  0x00\n    /* \"#utility.yul\":660:684   */\n  tag_31\n    /* \"#utility.yul\":678:683   */\n  dup3\n    /* \"#utility.yul\":660:684   */\n  tag_32\n  jump\t// in\ntag_31:\n    /* \"#utility.yul\":649:684   */\n  swap1\n  pop\n    /* \"#utility.yul\":594:690   */\n  swap2\n  swap1\n  pop\n  jump\t// out\n    /* \"#utility.yul\":696:822   */\ntag_32:\n    /* \"#utility.yul\":733:740   */\n  0x00\n    /* \"#utility.yul\":773:815   */\n  0xffffffffffffffffffffffffffffffffffffffff\n    /* \"#utility.yul\":766:771   */\n  dup3\n    /* \"#utility.yul\":762:816   */\n  and\n    /* \"#utility.yul\":751:816   */\n  swap1\n  pop\n    /* \"#utility.yul\":696:822   */\n  swap2\n  swap1\n  pop\n  jump\t// out\n    /* \"#utility.yul\":951:1068   */\ntag_25:\n    /* \"#utility.yul\":1060:1061   */\n  0x00\n    /* \"#utility.yul\":1057:1058   */\n  dup1\n    /* \"#utility.yul\":1050:1062   */\n  revert\n    /* \"#utility.yul\":1074:1196   */\ntag_21:\n    /* \"#utility.yul\":1147:1171   */\n  tag_38\n    /* \"#utility.yul\":1165:1170   */\n  dup2\n    /* \"#utility.yul\":1147:1171   */\n  tag_29\n  jump\t// in\ntag_38:\n    /* \"#utility.yul\":1140:1145   */\n  dup2\n    /* \"#utility.yul\":1137:1172   */\n  eq\n    /* \"#utility.yul\":1127:1190   */\n  tag_39\n  jumpi\n    /* \"#utility.yul\":1186:1187   */\n  0x00\n    /* \"#utility.yul\":1183:1184   */\n  dup1\n    /* \"#utility.yul\":1176:1188   */\n  revert\n    /* \"#utility.yul\":1127:1190   */\ntag_39:\n    /* \"#utility.yul\":1074:1196   */\n  pop\n  jump\t// out\n    /* \"staking.sol\":930:12028  contract mochiStaking is Ownable, Pausable {... */\ntag_14:\n  shr(0x60, mload(0x80))\n  codecopy(0x00, dataOffset(sub_0), dataSize(sub_0))\n  0x00\n  assignImmutable(\"0xccd68672d6f769e1076a41a883b1b79cd2ffe42afc01c80e02e0f47639ea513e\")\n  return(0x00, dataSize(sub_0))\nstop\n\nsub_0: assembly {\n        /* \"staking.sol\":930:12028  contract mochiStaking is Ownable, Pausable {... */\n      mstore(0x40, 0x80)\n      callvalue\n      dup1\n      iszero\n      tag_1\n      jumpi\n      0x00\n      dup1\n      revert\n    tag_1:\n      pop\n      jumpi(tag_2, lt(calldatasize, 0x04))\n      shr(0xe0, calldataload(0x00))\n      dup1\n      0x7fe509d7\n      gt\n      tag_36\n      jumpi\n      dup1\n      0x97e9c5fe\n      gt\n      tag_37\n      jumpi\n      dup1\n      0xe5d15701\n      gt\n      tag_38\n      jumpi\n      dup1\n      0xe5d15701\n      eq\n      tag_31\n      jumpi\n      dup1\n      0xf2fde38b\n      eq\n      tag_32\n      jumpi\n      dup1\n      0xf4217e1e\n      eq\n      tag_33\n      jumpi\n      dup1\n      0xf7edf9ab\n      eq\n      tag_34\n      jumpi\n      dup1\n      0xfe2981b5\n      eq\n      tag_35\n      jumpi\n      jump(tag_2)\n    tag_38:\n      dup1\n      0x97e9c5fe\n      eq\n      tag_27\n      jumpi\n      dup1\n      0xbb664864\n      eq\n      tag_28\n      jumpi\n      dup1\n      0xbf01651a\n      eq\n      tag_29\n      jumpi\n      dup1\n      0xd3900a52\n      eq\n      tag_30\n      jumpi\n      jump(tag_2)\n    tag_37:\n      dup1\n      0x8da5cb5b\n      gt\n      tag_39\n      jumpi\n      dup1\n      0x8da5cb5b\n      eq\n      tag_23\n      jumpi\n      dup1\n      0x8f0fb2b7\n      eq\n      tag_24\n      jumpi\n      dup1\n      0x91789cef\n      eq\n      tag_25\n      jumpi\n      dup1\n      0x927e5998\n      eq\n      tag_26\n      jumpi\n      jump(tag_2)\n    tag_39:\n      dup1\n      0x7fe509d7\n      eq\n      tag_19\n      jumpi\n      dup1\n      0x8275b181\n      eq\n      tag_20\n      jumpi\n      dup1\n      0x84203f4b\n      eq\n      tag_21\n      jumpi\n      dup1\n      0x8456cb59\n      eq\n      tag_22\n      jumpi\n      jump(tag_2)\n    tag_36:\n      dup1\n      0x6296e750\n      gt\n      tag_40\n      jumpi\n      dup1\n      0x67911ba4\n      gt\n      tag_41\n      jumpi\n      dup1\n      0x67911ba4\n      eq\n      tag_15\n      jumpi\n      dup1\n      0x69e06848\n      eq\n      tag_16\n      jumpi\n      dup1\n      0x715018a6\n      eq\n      tag_17\n      jumpi\n      dup1\n      0x71a1609b\n      eq\n      tag_18\n      jumpi\n      jump(tag_2)\n    tag_41:\n      dup1\n      0x6296e750\n      eq\n      tag_11\n      jumpi\n      dup1\n      0x635ef285\n      eq\n      tag_12\n      jumpi\n      dup1\n      0x6505cf31\n      eq\n      tag_13\n      jumpi\n      dup1\n      0x6636389e\n      eq\n      tag_14\n      jumpi\n      jump(tag_2)\n    tag_40:\n      dup1\n      0x32938e3a\n      gt\n      tag_42\n      jumpi\n      dup1\n      0x32938e3a\n      eq\n      tag_7\n      jumpi\n      dup1\n      0x3f4ba83a\n      eq\n      tag_8\n      jumpi\n      dup1\n      0x451c3d80\n      eq\n      tag_9\n      jumpi\n      dup1\n      0x5c975abb\n      eq\n      tag_10\n      jumpi\n      jump(tag_2)\n    tag_42:\n      dup1\n      0x01ef4739\n      eq\n      tag_3\n      jumpi\n      dup1\n      0x1694505e\n      eq\n      tag_4\n      jumpi\n      dup1\n      0x1ed81ff8\n      eq\n      tag_5\n      jumpi\n      dup1\n      0x1ff08fee\n      eq\n      tag_6\n      jumpi\n    tag_2:\n      0x00\n      dup1\n      revert\n        /* \"staking.sol\":1477:1516  uint256 public level1Min = 100 * 10**18 */\n    tag_3:\n      tag_43\n      tag_44\n      jump\t// in\n    tag_43:\n      mload(0x40)\n      tag_45\n      swap2\n      swap1\n      tag_46\n      jump\t// in\n    tag_45:\n      mload(0x40)\n      dup1\n      swap2\n      sub\n      swap1\n      return\n        /* \"staking.sol\":2050:2093  IDexRouter public immutable uniswapV2Router */\n    tag_4:\n      tag_47\n      tag_48\n      jump\t// in\n    tag_47:\n      mload(0x40)\n      tag_49\n      swap2\n      swap1\n      tag_50\n      jump\t// in\n    tag_49:\n      mload(0x40)\n      dup1\n      swap2\n      sub\n      swap1\n      return\n        /* \"staking.sol\":4563:5305  function enterLevel1 (uint256 _amount) public whenNotPaused {... */\n    tag_5:\n      tag_51\n      0x04\n      dup1\n      calldatasize\n      sub\n      dup2\n      add\n      swap1\n      tag_52\n      swap2\n      swap1\n      tag_53\n      jump\t// in\n    tag_52:\n      tag_54\n      jump\t// in\n    tag_51:\n      stop\n        /* \"staking.sol\":1271:1302  uint256 public level1APY = 3700 */\n    tag_6:\n      tag_55\n      tag_56\n      jump\t// in\n    tag_55:\n      mload(0x40)\n      tag_57\n      swap2\n      swap1\n      tag_46\n      jump\t// in\n    tag_57:\n      mload(0x40)\n      dup1\n      swap2\n      sub\n      swap1\n      return\n        /* \"staking.sol\":1308:1341  uint256 public vipLevelAPY = 4800 */\n    tag_7:\n      tag_58\n      tag_59\n      jump\t// in\n    tag_58:\n      mload(0x40)\n      tag_60\n      swap2\n      swap1\n      tag_46\n      jump\t// in\n    tag_60:\n      mload(0x40)\n      dup1\n      swap2\n      sub\n      swap1\n      return\n        /* \"staking.sol\":2714:2778  function unpause () public onlyOwner {... */\n    tag_8:\n      tag_61\n      tag_62\n      jump\t// in\n    tag_61:\n      stop\n        /* \"staking.sol\":1024:1051  IERC20 public acceptedToken */\n    tag_9:\n      tag_63\n      tag_64\n      jump\t// in\n    tag_63:\n      mload(0x40)\n      tag_65\n      swap2\n      swap1\n      tag_66\n      jump\t// in\n    tag_65:\n      mload(0x40)\n      dup1\n      swap2\n      sub\n      swap1\n      return\n        /* \"@openzeppelin/contracts/security/Pausable.sol\":1098:1182  function paused() public view virtual returns (bool) {... */\n    tag_10:\n      tag_67\n      tag_68\n      jump\t// in\n    tag_67:\n      mload(0x40)\n      tag_69\n      swap2\n      swap1\n      tag_70\n      jump\t// in\n    tag_69:\n      mload(0x40)\n      dup1\n      swap2\n      sub\n      swap1\n      return\n        /* \"staking.sol\":1731:1772  mapping (address => bool) public isLevel0 */\n    tag_11:\n      tag_71\n      0x04\n      dup1\n      calldatasize\n      sub\n      dup2\n      add\n      swap1\n      tag_72\n      swap2\n      swap1\n      tag_73\n      jump\t// in\n    tag_72:\n      tag_74\n      jump\t// in\n    tag_71:\n      mload(0x40)\n      tag_75\n      swap2\n      swap1\n      tag_70\n      jump\t// in\n    tag_75:\n      mload(0x40)\n      dup1\n      swap2\n      sub\n      swap1\n      return\n        /* \"staking.sol\":1831:1872  mapping (address => bool) public isLevel1 */\n    tag_12:\n      tag_76\n      0x04\n      dup1\n      calldatasize\n      sub\n      dup2\n      add\n      swap1\n      tag_77\n      swap2\n      swap1\n      tag_73\n      jump\t// in\n    tag_77:\n      tag_78\n      jump\t// in\n    tag_76:\n      mload(0x40)\n      tag_79\n      swap2\n      swap1\n      tag_70\n      jump\t// in\n    tag_79:\n      mload(0x40)\n      dup1\n      swap2\n      sub\n      swap1\n      return\n        /* \"staking.sol\":1382:1420  uint256 public level0Min = 50 * 10**18 */\n    tag_13:\n      tag_80\n      tag_81\n      jump\t// in\n    tag_80:\n      mload(0x40)\n      tag_82\n      swap2\n      swap1\n      tag_46\n      jump\t// in\n    tag_82:\n      mload(0x40)\n      dup1\n      swap2\n      sub\n      swap1\n      return\n        /* \"staking.sol\":10487:11423  function withdrawVip (uint256 _amount) public  {... */\n    tag_14:\n      tag_83\n      0x04\n      dup1\n      calldatasize\n      sub\n      dup2\n      add\n      swap1\n      tag_84\n      swap2\n      swap1\n      tag_53\n      jump\t// in\n    tag_84:\n      tag_85\n      jump\t// in\n    tag_83:\n      stop\n        /* \"staking.sol\":1778:1825  mapping (address => _user) public level0Balance */\n    tag_15:\n      tag_86\n      0x04\n      dup1\n      calldatasize\n      sub\n      dup2\n      add\n      swap1\n      tag_87\n      swap2\n      swap1\n      tag_73\n      jump\t// in\n    tag_87:\n      tag_88\n      jump\t// in\n    tag_86:\n      mload(0x40)\n      tag_89\n      swap4\n      swap3\n      swap2\n      swap1\n      tag_90\n      jump\t// in\n    tag_89:\n      mload(0x40)\n      dup1\n      swap2\n      sub\n      swap1\n      return\n        /* \"staking.sol\":7031:7717  function getInterest (address user, uint8 class, uint256 balance) public view returns (uint256){... */\n    tag_16:\n      tag_91\n      0x04\n      dup1\n      calldatasize\n      sub\n      dup2\n      add\n      swap1\n      tag_92\n      swap2\n      swap1\n      tag_93\n      jump\t// in\n    tag_92:\n      tag_94\n      jump\t// in\n    tag_91:\n      mload(0x40)\n      tag_95\n      swap2\n      swap1\n      tag_46\n      jump\t// in\n    tag_95:\n      mload(0x40)\n      dup1\n      swap2\n      sub\n      swap1\n      return\n        /* \"@openzeppelin/contracts/access/Ownable.sol\":1668:1769  function renounceOwnership() public virtual onlyOwner {... */\n    tag_17:\n      tag_96\n      tag_97\n      jump\t// in\n    tag_96:\n      stop\n        /* \"staking.sol\":1426:1471  uint256 public level0Max = 500000000 * 10**18 */\n    tag_18:\n      tag_98\n      tag_99\n      jump\t// in\n    tag_98:\n      mload(0x40)\n      tag_100\n      swap2\n      swap1\n      tag_46\n      jump\t// in\n    tag_100:\n      mload(0x40)\n      dup1\n      swap2\n      sub\n      swap1\n      return\n        /* \"staking.sol\":1878:1925  mapping (address => _user) public level1Balance */\n    tag_19:\n      tag_101\n      0x04\n      dup1\n      calldatasize\n      sub\n      dup2\n      add\n      swap1\n      tag_102\n      swap2\n      swap1\n      tag_73\n      jump\t// in\n    tag_102:\n      tag_103\n      jump\t// in\n    tag_101:\n      mload(0x40)\n      tag_104\n      swap4\n      swap3\n      swap2\n      swap1\n      tag_90\n      jump\t// in\n    tag_104:\n      mload(0x40)\n      dup1\n      swap2\n      sub\n      swap1\n      return\n        /* \"staking.sol\":1233:1265  uint256 public level0APY =  2700 */\n    tag_20:\n      tag_105\n      tag_106\n      jump\t// in\n    tag_105:\n      mload(0x40)\n      tag_107\n      swap2\n      swap1\n      tag_46\n      jump\t// in\n    tag_107:\n      mload(0x40)\n      dup1\n      swap2\n      sub\n      swap1\n      return\n        /* \"staking.sol\":1931:1969  mapping (address => bool) public isVip */\n    tag_21:\n      tag_108\n      0x04\n      dup1\n      calldatasize\n      sub\n      dup2\n      add\n      swap1\n      tag_109\n      swap2\n      swap1\n      tag_73\n      jump\t// in\n    tag_109:\n      tag_110\n      jump\t// in\n    tag_108:\n      mload(0x40)\n      tag_111\n      swap2\n      swap1\n      tag_70\n      jump\t// in\n    tag_111:\n      mload(0x40)\n      dup1\n      swap2\n      sub\n      swap1\n      return\n        /* \"staking.sol\":2644:2704  function pause () public onlyOwner {... */\n    tag_22:\n      tag_112\n      tag_113\n      jump\t// in\n    tag_112:\n      stop\n        /* \"@openzeppelin/contracts/access/Ownable.sol\":1036:1121  function owner() public view virtual returns (address) {... */\n    tag_23:\n      tag_114\n      tag_115\n      jump\t// in\n    tag_114:\n      mload(0x40)\n      tag_116\n      swap2\n      swap1\n      tag_117\n      jump\t// in\n    tag_116:\n      mload(0x40)\n      dup1\n      swap2\n      sub\n      swap1\n      return\n        /* \"staking.sol\":1620:1668  uint256 public levelVipMax = 2500000000 * 10**18 */\n    tag_24:\n      tag_118\n      tag_119\n      jump\t// in\n    tag_118:\n      mload(0x40)\n      tag_120\n      swap2\n      swap1\n      tag_46\n      jump\t// in\n    tag_120:\n      mload(0x40)\n      dup1\n      swap2\n      sub\n      swap1\n      return\n        /* \"staking.sol\":1573:1614  uint256 public levelVipMin = 200 * 10**18 */\n    tag_25:\n      tag_121\n      tag_122\n      jump\t// in\n    tag_121:\n      mload(0x40)\n      tag_123\n      swap2\n      swap1\n      tag_46\n      jump\t// in\n    tag_123:\n      mload(0x40)\n      dup1\n      swap2\n      sub\n      swap1\n      return\n        /* \"staking.sol\":8245:9215  function withdrawLevel0 (uint256 _amount) public  {... */\n    tag_26:\n      tag_124\n      0x04\n      dup1\n      calldatasize\n      sub\n      dup2\n      add\n      swap1\n      tag_125\n      swap2\n      swap1\n      tag_53\n      jump\t// in\n    tag_125:\n      tag_126\n      jump\t// in\n    tag_124:\n      stop\n        /* \"staking.sol\":1975:2019  mapping (address => _user) public vipBalance */\n    tag_27:\n      tag_127\n      0x04\n      dup1\n      calldatasize\n      sub\n      dup2\n      add\n      swap1\n      tag_128\n      swap2\n      swap1\n      tag_73\n      jump\t// in\n    tag_128:\n      tag_129\n      jump\t// in\n    tag_127:\n      mload(0x40)\n      tag_130\n      swap4\n      swap3\n      swap2\n      swap1\n      tag_90\n      jump\t// in\n    tag_130:\n      mload(0x40)\n      dup1\n      swap2\n      sub\n      swap1\n      return\n        /* \"staking.sol\":9373:10329  function withdrawLevel1 (uint256 _amount) public  {... */\n    tag_28:\n      tag_131\n      0x04\n      dup1\n      calldatasize\n      sub\n      dup2\n      add\n      swap1\n      tag_132\n      swap2\n      swap1\n      tag_53\n      jump\t// in\n    tag_132:\n      tag_133\n      jump\t// in\n    tag_131:\n      stop\n        /* \"staking.sol\":5504:6252  function enterVip (uint256 _amount) public whenNotPaused {... */\n    tag_29:\n      tag_134\n      0x04\n      dup1\n      calldatasize\n      sub\n      dup2\n      add\n      swap1\n      tag_135\n      swap2\n      swap1\n      tag_53\n      jump\t// in\n    tag_135:\n      tag_136\n      jump\t// in\n    tag_134:\n      stop\n        /* \"staking.sol\":1522:1567  uint256 public level1Max = 500000000 * 10**18 */\n    tag_30:\n      tag_137\n      tag_138\n      jump\t// in\n    tag_137:\n      mload(0x40)\n      tag_139\n      swap2\n      swap1\n      tag_46\n      jump\t// in\n    tag_139:\n      mload(0x40)\n      dup1\n      swap2\n      sub\n      swap1\n      return\n        /* \"staking.sol\":2846:3054  function setNewAPY ( uint256 _level0APY, uint256 _level1APY, uint256 _vipLevelAPY) external onlyOwner{... */\n    tag_31:\n      tag_140\n      0x04\n      dup1\n      calldatasize\n      sub\n      dup2\n      add\n      swap1\n      tag_141\n      swap2\n      swap1\n      tag_142\n      jump\t// in\n    tag_141:\n      tag_143\n      jump\t// in\n    tag_140:\n      stop\n        /* \"@openzeppelin/contracts/access/Ownable.sol\":1918:2116  function transferOwnership(address newOwner) public virtual onlyOwner {... */\n    tag_32:\n      tag_144\n      0x04\n      dup1\n      calldatasize\n      sub\n      dup2\n      add\n      swap1\n      tag_145\n      swap2\n      swap1\n      tag_73\n      jump\t// in\n    tag_145:\n      tag_146\n      jump\t// in\n    tag_144:\n      stop\n        /* \"staking.sol\":3136:3508  function setNewMaxMin (uint256 _level0Min, uint256 _level0Max, uint256 _level1Min, uint256 _level1Max, uint256 _levelVipMin, uint256 _levelVipMax) external onlyOwner{... */\n    tag_33:\n      tag_147\n      0x04\n      dup1\n      calldatasize\n      sub\n      dup2\n      add\n      swap1\n      tag_148\n      swap2\n      swap1\n      tag_149\n      jump\t// in\n    tag_148:\n      tag_150\n      jump\t// in\n    tag_147:\n      stop\n        /* \"staking.sol\":6397:6896  function isOnTime (address user, uint8 class) public view returns (bool) {... */\n    tag_34:\n      tag_151\n      0x04\n      dup1\n      calldatasize\n      sub\n      dup2\n      add\n      swap1\n      tag_152\n      swap2\n      swap1\n      tag_153\n      jump\t// in\n    tag_152:\n      tag_154\n      jump\t// in\n    tag_151:\n      mload(0x40)\n      tag_155\n      swap2\n      swap1\n      tag_70\n      jump\t// in\n    tag_155:\n      mload(0x40)\n      dup1\n      swap2\n      sub\n      swap1\n      return\n        /* \"staking.sol\":3657:4407  function enterLevel0 (uint256 _amount) public whenNotPaused {... */\n    tag_35:\n      tag_156\n      0x04\n      dup1\n      calldatasize\n      sub\n      dup2\n      add\n      swap1\n      tag_157\n      swap2\n      swap1\n      tag_53\n      jump\t// in\n    tag_157:\n      tag_158\n      jump\t// in\n    tag_156:\n      stop\n        /* \"staking.sol\":1477:1516  uint256 public level1Min = 100 * 10**18 */\n    tag_44:\n      sload(0x07)\n      dup2\n      jump\t// out\n        /* \"staking.sol\":2050:2093  IDexRouter public immutable uniswapV2Router */\n    tag_48:\n      immutable(\"0xccd68672d6f769e1076a41a883b1b79cd2ffe42afc01c80e02e0f47639ea513e\")\n      dup2\n      jump\t// out\n        /* \"staking.sol\":4563:5305  function enterLevel1 (uint256 _amount) public whenNotPaused {... */\n    tag_54:\n        /* \"@openzeppelin/contracts/security/Pausable.sol\":1412:1420  paused() */\n      tag_160\n        /* \"@openzeppelin/contracts/security/Pausable.sol\":1412:1418  paused */\n      tag_68\n        /* \"@openzeppelin/contracts/security/Pausable.sol\":1412:1420  paused() */\n      jump\t// in\n    tag_160:\n        /* \"@openzeppelin/contracts/security/Pausable.sol\":1411:1420  !paused() */\n      iszero\n        /* \"@openzeppelin/contracts/security/Pausable.sol\":1403:1441  require(!paused(), \"Pausable: paused\") */\n      tag_161\n      jumpi\n      mload(0x40)\n      0x08c379a000000000000000000000000000000000000000000000000000000000\n      dup2\n      mstore\n      0x04\n      add\n      tag_162\n      swap1\n      tag_163\n      jump\t// in\n    tag_162:\n      mload(0x40)\n      dup1\n      swap2\n      sub\n      swap1\n      revert\n    tag_161:\n        /* \"staking.sol\":4652:4661  level1Max */\n      sload(0x08)\n        /* \"staking.sol\":4641:4648  _amount */\n      dup2\n        /* \"staking.sol\":4641:4661  _amount <= level1Max */\n      gt\n      iszero\n        /* \"staking.sol\":4641:4685  _amount <= level1Max && _amount >= level1Min */\n      dup1\n      iszero\n      tag_165\n      jumpi\n      pop\n        /* \"staking.sol\":4676:4685  level1Min */\n      sload(0x07)\n        /* \"staking.sol\":4665:4672  _amount */\n      dup2\n        /* \"staking.sol\":4665:4685  _amount >= level1Min */\n      lt\n      iszero\n        /* \"staking.sol\":4641:4685  _amount <= level1Max && _amount >= level1Min */\n    tag_165:\n        /* \"staking.sol\":4633:4740  require(_amount <= level1Max && _amount >= level1Min, \"Amount needs to be more than min and less than max\") */\n      tag_166\n      jumpi\n      mload(0x40)\n      0x08c379a000000000000000000000000000000000000000000000000000000000\n      dup2\n      mstore\n      0x04\n      add\n      tag_167\n      swap1\n      tag_168\n      jump\t// in\n    tag_167:\n      mload(0x40)\n      dup1\n      swap2\n      sub\n      swap1\n      revert\n    tag_166:\n        /* \"staking.sol\":4750:4768  address _msgSender */\n      0x00\n        /* \"staking.sol\":4771:4781  msg.sender */\n      caller\n        /* \"staking.sol\":4750:4781  address _msgSender = msg.sender */\n      swap1\n      pop\n        /* \"staking.sol\":4802:4810  isLevel1 */\n      0x0d\n        /* \"staking.sol\":4802:4822  isLevel1[_msgSender] */\n      0x00\n        /* \"staking.sol\":4811:4821  _msgSender */\n      dup3\n        /* \"staking.sol\":4802:4822  isLevel1[_msgSender] */\n      0xffffffffffffffffffffffffffffffffffffffff\n      and\n      0xffffffffffffffffffffffffffffffffffffffff\n      and\n      dup2\n      mstore\n      0x20\n      add\n      swap1\n      dup2\n      mstore\n      0x20\n      add\n      0x00\n      keccak256\n      0x00\n      swap1\n      sload\n      swap1\n      0x0100\n      exp\n      swap1\n      div\n      0xff\n      and\n        /* \"staking.sol\":4801:4822  !isLevel1[_msgSender] */\n      iszero\n        /* \"staking.sol\":4793:4861  require(!isLevel1[_msgSender], \"You're already in this Stake level\") */\n      tag_169\n      jumpi\n      mload(0x40)\n      0x08c379a000000000000000000000000000000000000000000000000000000000\n      dup2\n      mstore\n      0x04\n      add\n      tag_170\n      swap1\n      tag_171\n      jump\t// in\n    tag_170:\n      mload(0x40)\n      dup1\n      swap2\n      sub\n      swap1\n      revert\n    tag_169:\n        /* \"staking.sol\":4878:4891  acceptedToken */\n      0x01\n      0x00\n      swap1\n      sload\n      swap1\n      0x0100\n      exp\n      swap1\n      div\n      0xffffffffffffffffffffffffffffffffffffffff\n      and\n        /* \"staking.sol\":4878:4904  acceptedToken.transferFrom */\n      0xffffffffffffffffffffffffffffffffffffffff\n      and\n      0x23b872dd\n        /* \"staking.sol\":4905:4915  _msgSender */\n      dup3\n        /* \"staking.sol\":4925:4929  this */\n      address\n        /* \"staking.sol\":4932:4939  _amount */\n      dup6\n        /* \"staking.sol\":4878:4940  acceptedToken.transferFrom(_msgSender, address(this), _amount) */\n      mload(0x40)\n      dup5\n      0xffffffff\n      and\n      0xe0\n      shl\n      dup2\n      mstore\n      0x04\n      add\n      tag_172\n      swap4\n      swap3\n      swap2\n      swap1\n      tag_173\n      jump\t// in\n    tag_172:\n      0x20\n      mload(0x40)\n      dup1\n      dup4\n      sub\n      dup2\n      0x00\n      dup8\n      dup1\n      extcodesize\n      iszero\n      dup1\n      iszero\n      tag_174\n      jumpi\n      0x00\n      dup1\n      revert\n    tag_174:\n      pop\n      gas\n      call\n      iszero\n      dup1\n      iszero\n      tag_176\n      jumpi\n      returndatasize\n      0x00\n      dup1\n      returndatacopy\n      revert(0x00, returndatasize)\n    tag_176:\n      pop\n      pop\n      pop\n      pop\n      mload(0x40)\n      returndatasize\n      not(0x1f)\n      0x1f\n      dup3\n      add\n      and\n      dup3\n      add\n      dup1\n      0x40\n      mstore\n      pop\n      dup2\n      add\n      swap1\n      tag_177\n      swap2\n      swap1\n      tag_178\n      jump\t// in\n    tag_177:\n      pop\n        /* \"staking.sol\":4974:4978  true */\n      0x01\n        /* \"staking.sol\":4951:4959  isLevel1 */\n      0x0d\n        /* \"staking.sol\":4951:4971  isLevel1[_msgSender] */\n      0x00\n        /* \"staking.sol\":4960:4970  _msgSender */\n      dup4\n        /* \"staking.sol\":4951:4971  isLevel1[_msgSender] */\n      0xffffffffffffffffffffffffffffffffffffffff\n      and\n      0xffffffffffffffffffffffffffffffffffffffff\n      and\n      dup2\n      mstore\n      0x20\n      add\n      swap1\n      dup2\n      mstore\n      0x20\n      add\n      0x00\n      keccak256\n      0x00\n        /* \"staking.sol\":4951:4978  isLevel1[_msgSender] = true */\n      0x0100\n      exp\n      dup2\n      sload\n      dup2\n      0xff\n      mul\n      not\n      and\n      swap1\n      dup4\n      iszero\n      iszero\n      mul\n      or\n      swap1\n      sstore\n      pop\n        /* \"staking.sol\":5016:5202  _user ({... */\n      mload(0x40)\n      dup1\n      0x60\n      add\n      0x40\n      mstore\n      dup1\n        /* \"staking.sol\":5045:5052  _amount */\n      dup4\n        /* \"staking.sol\":5016:5202  _user ({... */\n      dup2\n      mstore\n      0x20\n      add\n        /* \"staking.sol\":5078:5093  block.timestamp */\n      timestamp\n        /* \"staking.sol\":5016:5202  _user ({... */\n      dup2\n      mstore\n      0x20\n      add\n        /* \"staking.sol\":5188:5191  800 */\n      0x0320\n        /* \"staking.sol\":5170:5185  block.timestamp */\n      timestamp\n        /* \"staking.sol\":5170:5191  block.timestamp + 800 */\n      tag_179\n      swap2\n      swap1\n      tag_180\n      jump\t// in\n    tag_179:\n        /* \"staking.sol\":5016:5202  _user ({... */\n      dup2\n      mstore\n      pop\n        /* \"staking.sol\":4988:5001  level1Balance */\n      0x0e\n        /* \"staking.sol\":4988:5013  level1Balance[_msgSender] */\n      0x00\n        /* \"staking.sol\":5002:5012  _msgSender */\n      dup4\n        /* \"staking.sol\":4988:5013  level1Balance[_msgSender] */\n      0xffffffffffffffffffffffffffffffffffffffff\n      and\n      0xffffffffffffffffffffffffffffffffffffffff\n      and\n      dup2\n      mstore\n      0x20\n      add\n      swap1\n      dup2\n      mstore\n      0x20\n      add\n      0x00\n      keccak256\n        /* \"staking.sol\":4988:5202  level1Balance[_msgSender] = _user ({... */\n      0x00\n      dup3\n      add\n      mload\n      dup2\n      0x00\n      add\n      sstore\n      0x20\n      dup3\n      add\n      mload\n      dup2\n      0x01\n      add\n      sstore\n      0x40\n      dup3\n      add\n      mload\n      dup2\n      0x02\n      add\n      sstore\n      swap1\n      pop\n      pop\n        /* \"staking.sol\":5222:5298  deposit (_msgSender, 1, _amount, block.timestamp, block.timestamp + 30 days) */\n      0x17849bb8c713de96b48f218d3bacc9af082261c3ccc7c6dccebe70e667b22f23\n        /* \"staking.sol\":5231:5241  _msgSender */\n      dup2\n        /* \"staking.sol\":5243:5244  1 */\n      0x01\n        /* \"staking.sol\":5246:5253  _amount */\n      dup5\n        /* \"staking.sol\":5255:5270  block.timestamp */\n      timestamp\n        /* \"staking.sol\":5290:5297  30 days */\n      0x278d00\n        /* \"staking.sol\":5272:5287  block.timestamp */\n      timestamp\n        /* \"staking.sol\":5272:5297  block.timestamp + 30 days */\n      tag_181\n      swap2\n      swap1\n      tag_180\n      jump\t// in\n    tag_181:\n        /* \"staking.sol\":5222:5298  deposit (_msgSender, 1, _amount, block.timestamp, block.timestamp + 30 days) */\n      mload(0x40)\n      tag_182\n      swap6\n      swap5\n      swap4\n      swap3\n      swap2\n      swap1\n      tag_183\n      jump\t// in\n    tag_182:\n      mload(0x40)\n      dup1\n      swap2\n      sub\n      swap1\n      log1\n        /* \"staking.sol\":4623:5305  {... */\n      pop\n        /* \"staking.sol\":4563:5305  function enterLevel1 (uint256 _amount) public whenNotPaused {... */\n      pop\n      jump\t// out\n        /* \"staking.sol\":1271:1302  uint256 public level1APY = 3700 */\n    tag_56:\n      sload(0x03)\n      dup2\n      jump\t// out\n        /* \"staking.sol\":1308:1341  uint256 public vipLevelAPY = 4800 */\n    tag_59:\n      sload(0x04)\n      dup2\n      jump\t// out\n        /* \"staking.sol\":2714:2778  function unpause () public onlyOwner {... */\n    tag_62:\n        /* \"@openzeppelin/contracts/access/Ownable.sol\":1259:1271  _msgSender() */\n      tag_185\n        /* \"@openzeppelin/contracts/access/Ownable.sol\":1259:1269  _msgSender */\n      tag_186\n        /* \"@openzeppelin/contracts/access/Ownable.sol\":1259:1271  _msgSender() */\n      jump\t// in\n    tag_185:\n        /* \"@openzeppelin/contracts/access/Ownable.sol\":1248:1271  owner() == _msgSender() */\n      0xffffffffffffffffffffffffffffffffffffffff\n      and\n        /* \"@openzeppelin/contracts/access/Ownable.sol\":1248:1255  owner() */\n      tag_187\n        /* \"@openzeppelin/contracts/access/Ownable.sol\":1248:1253  owner */\n      tag_115\n        /* \"@openzeppelin/contracts/access/Ownable.sol\":1248:1255  owner() */\n      jump\t// in\n    tag_187:\n        /* \"@openzeppelin/contracts/access/Ownable.sol\":1248:1271  owner() == _msgSender() */\n      0xffffffffffffffffffffffffffffffffffffffff\n      and\n      eq\n        /* \"@openzeppelin/contracts/access/Ownable.sol\":1240:1308  require(owner() == _msgSender(), \"Ownable: caller is not the owner\") */\n      tag_188\n      jumpi\n      mload(0x40)\n      0x08c379a000000000000000000000000000000000000000000000000000000000\n      dup2\n      mstore\n      0x04\n      add\n      tag_189\n      swap1\n      tag_190\n      jump\t// in\n    tag_189:\n      mload(0x40)\n      dup1\n      swap2\n      sub\n      swap1\n      revert\n    tag_188:\n        /* \"staking.sol\":2761:2771  _unpause() */\n      tag_192\n        /* \"staking.sol\":2761:2769  _unpause */\n      tag_193\n        /* \"staking.sol\":2761:2771  _unpause() */\n      jump\t// in\n    tag_192:\n        /* \"staking.sol\":2714:2778  function unpause () public onlyOwner {... */\n      jump\t// out\n        /* \"staking.sol\":1024:1051  IERC20 public acceptedToken */\n    tag_64:\n      0x01\n      0x00\n      swap1\n      sload\n      swap1\n      0x0100\n      exp\n      swap1\n      div\n      0xffffffffffffffffffffffffffffffffffffffff\n      and\n      dup2\n      jump\t// out\n        /* \"@openzeppelin/contracts/security/Pausable.sol\":1098:1182  function paused() public view virtual returns (bool) {... */\n    tag_68:\n        /* \"@openzeppelin/contracts/security/Pausable.sol\":1145:1149  bool */\n      0x00\n        /* \"@openzeppelin/contracts/security/Pausable.sol\":1168:1175  _paused */\n      dup1\n      0x14\n      swap1\n      sload\n      swap1\n      0x0100\n      exp\n      swap1\n      div\n      0xff\n      and\n        /* \"@openzeppelin/contracts/security/Pausable.sol\":1161:1175  return _paused */\n      swap1\n      pop\n        /* \"@openzeppelin/contracts/security/Pausable.sol\":1098:1182  function paused() public view virtual returns (bool) {... */\n      swap1\n      jump\t// out\n        /* \"staking.sol\":1731:1772  mapping (address => bool) public isLevel0 */\n    tag_74:\n      mstore(0x20, 0x0b)\n      dup1\n      0x00\n      mstore\n      keccak256(0x00, 0x40)\n      0x00\n      swap2\n      pop\n      sload\n      swap1\n      0x0100\n      exp\n      swap1\n      div\n      0xff\n      and\n      dup2\n      jump\t// out\n        /* \"staking.sol\":1831:1872  mapping (address => bool) public isLevel1 */\n    tag_78:\n      mstore(0x20, 0x0d)\n      dup1\n      0x00\n      mstore\n      keccak256(0x00, 0x40)\n      0x00\n      swap2\n      pop\n      sload\n      swap1\n      0x0100\n      exp\n      swap1\n      div\n      0xff\n      and\n      dup2\n      jump\t// out\n        /* \"staking.sol\":1382:1420  uint256 public level0Min = 50 * 10**18 */\n    tag_81:\n      sload(0x05)\n      dup2\n      jump\t// out\n        /* \"staking.sol\":10487:11423  function withdrawVip (uint256 _amount) public  {... */\n    tag_85:\n        /* \"staking.sol\":10544:10562  address _msgSender */\n      0x00\n        /* \"staking.sol\":10565:10575  msg.sender */\n      caller\n        /* \"staking.sol\":10544:10575  address _msgSender = msg.sender */\n      swap1\n      pop\n        /* \"staking.sol\":10593:10598  isVip */\n      0x0f\n        /* \"staking.sol\":10593:10610  isVip[_msgSender] */\n      0x00\n        /* \"staking.sol\":10599:10609  _msgSender */\n      dup3\n        /* \"staking.sol\":10593:10610  isVip[_msgSender] */\n      0xffffffffffffffffffffffffffffffffffffffff\n      and\n      0xffffffffffffffffffffffffffffffffffffffff\n      and\n      dup2\n      mstore\n      0x20\n      add\n      swap1\n      dup2\n      mstore\n      0x20\n      add\n      0x00\n      keccak256\n      0x00\n      swap1\n      sload\n      swap1\n      0x0100\n      exp\n      swap1\n      div\n      0xff\n      and\n        /* \"staking.sol\":10585:10630  require(isVip[_msgSender], \"User is not Vip\") */\n      tag_196\n      jumpi\n      mload(0x40)\n      0x08c379a000000000000000000000000000000000000000000000000000000000\n      dup2\n      mstore\n      0x04\n      add\n      tag_197\n      swap1\n      tag_198\n      jump\t// in\n    tag_197:\n      mload(0x40)\n      dup1\n      swap2\n      sub\n      swap1\n      revert\n    tag_196:\n        /* \"staking.sol\":10645:10660  uint256 balance */\n      0x00\n        /* \"staking.sol\":10663:10673  vipBalance */\n      0x10\n        /* \"staking.sol\":10663:10685  vipBalance[_msgSender] */\n      0x00\n        /* \"staking.sol\":10674:10684  _msgSender */\n      dup4\n        /* \"staking.sol\":10663:10685  vipBalance[_msgSender] */\n      0xffffffffffffffffffffffffffffffffffffffff\n      and\n      0xffffffffffffffffffffffffffffffffffffffff\n      and\n      dup2\n      mstore\n      0x20\n      add\n      swap1\n      dup2\n      mstore\n      0x20\n      add\n      0x00\n      keccak256\n        /* \"staking.sol\":10663:10693  vipBalance[_msgSender].balance */\n      0x00\n      add\n      sload\n        /* \"staking.sol\":10645:10693  uint256 balance = vipBalance[_msgSender].balance */\n      swap1\n      pop\n        /* \"staking.sol\":10722:10729  _amount */\n      dup3\n        /* \"staking.sol\":10711:10718  balance */\n      dup2\n        /* \"staking.sol\":10711:10729  balance >= _amount */\n      lt\n      iszero\n        /* \"staking.sol\":10703:10764  require(balance >= _amount, \"Not enough balance to withdraw\") */\n      tag_199\n      jumpi\n      mload(0x40)\n      0x08c379a000000000000000000000000000000000000000000000000000000000\n      dup2\n      mstore\n      0x04\n      add\n      tag_200\n      swap1\n      tag_201\n      jump\t// in\n    tag_200:\n      mload(0x40)\n      dup1\n      swap2\n      sub\n      swap1\n      revert\n    tag_199:\n        /* \"staking.sol\":10775:10789  bool _isOnTime */\n      0x00\n        /* \"staking.sol\":10792:10815  isOnTime(_msgSender, 2) */\n      tag_202\n        /* \"staking.sol\":10801:10811  _msgSender */\n      dup4\n        /* \"staking.sol\":10813:10814  2 */\n      0x02\n        /* \"staking.sol\":10792:10800  isOnTime */\n      tag_154\n        /* \"staking.sol\":10792:10815  isOnTime(_msgSender, 2) */\n      jump\t// in\n    tag_202:\n        /* \"staking.sol\":10775:10815  bool _isOnTime = isOnTime(_msgSender, 2) */\n      swap1\n      pop\n        /* \"staking.sol\":10825:10841  uint256 earnings */\n      0x00\n        /* \"staking.sol\":10844:10879  getInterest(_msgSender, 2, _amount) */\n      tag_203\n        /* \"staking.sol\":10856:10866  _msgSender */\n      dup5\n        /* \"staking.sol\":10868:10869  2 */\n      0x02\n        /* \"staking.sol\":10871:10878  _amount */\n      dup8\n        /* \"staking.sol\":10844:10855  getInterest */\n      tag_94\n        /* \"staking.sol\":10844:10879  getInterest(_msgSender, 2, _amount) */\n      jump\t// in\n    tag_203:\n        /* \"staking.sol\":10825:10879  uint256 earnings = getInterest(_msgSender, 2, _amount) */\n      swap1\n      pop\n        /* \"staking.sol\":10904:10911  balance */\n      dup3\n        /* \"staking.sol\":10893:10900  _amount */\n      dup6\n        /* \"staking.sol\":10893:10911  _amount == balance */\n      eq\n        /* \"staking.sol\":10890:11082  if(_amount == balance){... */\n      iszero\n      tag_204\n      jumpi\n        /* \"staking.sol\":10933:10943  vipBalance */\n      0x10\n        /* \"staking.sol\":10933:10955  vipBalance[_msgSender] */\n      0x00\n        /* \"staking.sol\":10944:10954  _msgSender */\n      dup6\n        /* \"staking.sol\":10933:10955  vipBalance[_msgSender] */\n      0xffffffffffffffffffffffffffffffffffffffff\n      and\n      0xffffffffffffffffffffffffffffffffffffffff\n      and\n      dup2\n      mstore\n      0x20\n      add\n      swap1\n      dup2\n      mstore\n      0x20\n      add\n      0x00\n      keccak256\n      0x00\n        /* \"staking.sol\":10926:10955  delete vipBalance[_msgSender] */\n      dup1\n      dup3\n      add\n      0x00\n      swap1\n      sstore\n      0x01\n      dup3\n      add\n      0x00\n      swap1\n      sstore\n      0x02\n      dup3\n      add\n      0x00\n      swap1\n      sstore\n      pop\n      pop\n        /* \"staking.sol\":10994:10999  false */\n      0x00\n        /* \"staking.sol\":10974:10979  isVip */\n      0x0f\n        /* \"staking.sol\":10974:10991  isVip[_msgSender] */\n      0x00\n        /* \"staking.sol\":10980:10990  _msgSender */\n      dup7\n        /* \"staking.sol\":10974:10991  isVip[_msgSender] */\n      0xffffffffffffffffffffffffffffffffffffffff\n      and\n      0xffffffffffffffffffffffffffffffffffffffff\n      and\n      dup2\n      mstore\n      0x20\n      add\n      swap1\n      dup2\n      mstore\n      0x20\n      add\n      0x00\n      keccak256\n      0x00\n        /* \"staking.sol\":10974:10999  isVip[_msgSender] = false */\n      0x0100\n      exp\n      dup2\n      sload\n      dup2\n      0xff\n      mul\n      not\n      and\n      swap1\n      dup4\n      iszero\n      iszero\n      mul\n      or\n      swap1\n      sstore\n      pop\n        /* \"staking.sol\":10890:11082  if(_amount == balance){... */\n      jump(tag_205)\n    tag_204:\n        /* \"staking.sol\":11064:11071  _amount */\n      dup5\n        /* \"staking.sol\":11030:11040  vipBalance */\n      0x10\n        /* \"staking.sol\":11030:11052  vipBalance[_msgSender] */\n      0x00\n        /* \"staking.sol\":11041:11051  _msgSender */\n      dup7\n        /* \"staking.sol\":11030:11052  vipBalance[_msgSender] */\n      0xffffffffffffffffffffffffffffffffffffffff\n      and\n      0xffffffffffffffffffffffffffffffffffffffff\n      and\n      dup2\n      mstore\n      0x20\n      add\n      swap1\n      dup2\n      mstore\n      0x20\n      add\n      0x00\n      keccak256\n        /* \"staking.sol\":11030:11060  vipBalance[_msgSender].balance */\n      0x00\n      add\n      0x00\n        /* \"staking.sol\":11030:11071  vipBalance[_msgSender].balance -= _amount */\n      dup3\n      dup3\n      sload\n      tag_206\n      swap2\n      swap1\n      tag_207\n      jump\t// in\n    tag_206:\n      swap3\n      pop\n      pop\n      dup2\n      swap1\n      sstore\n      pop\n        /* \"staking.sol\":10890:11082  if(_amount == balance){... */\n    tag_205:\n        /* \"staking.sol\":11095:11104  _isOnTime */\n      dup2\n        /* \"staking.sol\":11092:11348  if(_isOnTime){... */\n      iszero\n      tag_208\n      jumpi\n        /* \"staking.sol\":11119:11132  acceptedToken */\n      0x01\n      0x00\n      swap1\n      sload\n      swap1\n      0x0100\n      exp\n      swap1\n      div\n      0xffffffffffffffffffffffffffffffffffffffff\n      and\n        /* \"staking.sol\":11119:11141  acceptedToken.transfer */\n      0xffffffffffffffffffffffffffffffffffffffff\n      and\n      0xa9059cbb\n        /* \"staking.sol\":11142:11152  _msgSender */\n      dup6\n        /* \"staking.sol\":11154:11161  _amount */\n      dup8\n        /* \"staking.sol\":11119:11162  acceptedToken.transfer(_msgSender, _amount) */\n      mload(0x40)\n      dup4\n      0xffffffff\n      and\n      0xe0\n      shl\n      dup2\n      mstore\n      0x04\n      add\n      tag_209\n      swap3\n      swap2\n      swap1\n      tag_210\n      jump\t// in\n    tag_209:\n      0x20\n      mload(0x40)\n      dup1\n      dup4\n      sub\n      dup2\n      0x00\n      dup8\n      dup1\n      extcodesize\n      iszero\n      dup1\n      iszero\n      tag_211\n      jumpi\n      0x00\n      dup1\n      revert\n    tag_211:\n      pop\n      gas\n      call\n      iszero\n      dup1\n      iszero\n      tag_213\n      jumpi\n      returndatasize\n      0x00\n      dup1\n      returndatacopy\n      revert(0x00, returndatasize)\n    tag_213:\n      pop\n      pop\n      pop\n      pop\n      mload(0x40)\n      returndatasize\n      not(0x1f)\n      0x1f\n      dup3\n      add\n      and\n      dup3\n      add\n      dup1\n      0x40\n      mstore\n      pop\n      dup2\n      add\n      swap1\n      tag_214\n      swap2\n      swap1\n      tag_178\n      jump\t// in\n    tag_214:\n      pop\n        /* \"staking.sol\":11177:11215  swapTokensForEth(earnings, _msgSender) */\n      tag_215\n        /* \"staking.sol\":11194:11202  earnings */\n      dup2\n        /* \"staking.sol\":11204:11214  _msgSender */\n      dup6\n        /* \"staking.sol\":11177:11193  swapTokensForEth */\n      tag_216\n        /* \"staking.sol\":11177:11215  swapTokensForEth(earnings, _msgSender) */\n      jump\t// in\n    tag_215:\n        /* \"staking.sol\":11092:11348  if(_isOnTime){... */\n      jump(tag_217)\n    tag_208:\n        /* \"staking.sol\":11257:11258  0 */\n      0x00\n        /* \"staking.sol\":11246:11258  earnings = 0 */\n      swap1\n      pop\n        /* \"staking.sol\":11283:11296  acceptedToken */\n      0x01\n      0x00\n      swap1\n      sload\n      swap1\n      0x0100\n      exp\n      swap1\n      div\n      0xffffffffffffffffffffffffffffffffffffffff\n      and\n        /* \"staking.sol\":11283:11305  acceptedToken.transfer */\n      0xffffffffffffffffffffffffffffffffffffffff\n      and\n      0xa9059cbb\n        /* \"staking.sol\":11306:11316  _msgSender */\n      dup6\n        /* \"staking.sol\":11318:11325  _amount */\n      dup8\n        /* \"staking.sol\":11283:11326  acceptedToken.transfer(_msgSender, _amount) */\n      mload(0x40)\n      dup4\n      0xffffffff\n      and\n      0xe0\n      shl\n      dup2\n      mstore\n      0x04\n      add\n      tag_218\n      swap3\n      swap2\n      swap1\n      tag_210\n      jump\t// in\n    tag_218:\n      0x20\n      mload(0x40)\n      dup1\n      dup4\n      sub\n      dup2\n      0x00\n      dup8\n      dup1\n      extcodesize\n      iszero\n      dup1\n      iszero\n      tag_219\n      jumpi\n      0x00\n      dup1\n      revert\n    tag_219:\n      pop\n      gas\n      call\n      iszero\n      dup1\n      iszero\n      tag_221\n      jumpi\n      returndatasize\n      0x00\n      dup1\n      returndatacopy\n      revert(0x00, returndatasize)\n    tag_221:\n      pop\n      pop\n      pop\n      pop\n      mload(0x40)\n      returndatasize\n      not(0x1f)\n      0x1f\n      dup3\n      add\n      and\n      dup3\n      add\n      dup1\n      0x40\n      mstore\n      pop\n      dup2\n      add\n      swap1\n      tag_222\n      swap2\n      swap1\n      tag_178\n      jump\t// in\n    tag_222:\n      pop\n        /* \"staking.sol\":11092:11348  if(_isOnTime){... */\n    tag_217:\n        /* \"staking.sol\":11363:11416  withdraw(_msgSender, 2, _isOnTime, _amount, earnings) */\n      0xa3dff5863d601223d9b31a0253b97a6c2085daca56089b92836b4b6a1991e04b\n        /* \"staking.sol\":11372:11382  _msgSender */\n      dup5\n        /* \"staking.sol\":11384:11385  2 */\n      0x02\n        /* \"staking.sol\":11387:11396  _isOnTime */\n      dup5\n        /* \"staking.sol\":11398:11405  _amount */\n      dup9\n        /* \"staking.sol\":11407:11415  earnings */\n      dup6\n        /* \"staking.sol\":11363:11416  withdraw(_msgSender, 2, _isOnTime, _amount, earnings) */\n      mload(0x40)\n      tag_223\n      swap6\n      swap5\n      swap4\n      swap3\n      swap2\n      swap1\n      tag_224\n      jump\t// in\n    tag_223:\n      mload(0x40)\n      dup1\n      swap2\n      sub\n      swap1\n      log1\n        /* \"staking.sol\":10534:11423  {... */\n      pop\n      pop\n      pop\n      pop\n        /* \"staking.sol\":10487:11423  function withdrawVip (uint256 _amount) public  {... */\n      pop\n      jump\t// out\n        /* \"staking.sol\":1778:1825  mapping (address => _user) public level0Balance */\n    tag_88:\n      mstore(0x20, 0x0c)\n      dup1\n      0x00\n      mstore\n      keccak256(0x00, 0x40)\n      0x00\n      swap2\n      pop\n      swap1\n      pop\n      dup1\n      0x00\n      add\n      sload\n      swap1\n      dup1\n      0x01\n      add\n      sload\n      swap1\n      dup1\n      0x02\n      add\n      sload\n      swap1\n      pop\n      dup4\n      jump\t// out\n        /* \"staking.sol\":7031:7717  function getInterest (address user, uint8 class, uint256 balance) public view returns (uint256){... */\n    tag_94:\n        /* \"staking.sol\":7118:7125  uint256 */\n      0x00\n        /* \"staking.sol\":7148:7149  0 */\n      dup1\n        /* \"staking.sol\":7139:7144  class */\n      dup4\n        /* \"staking.sol\":7139:7149  class == 0 */\n      0xff\n      and\n      eq\n        /* \"staking.sol\":7136:7711  if(class == 0){           ... */\n      iszero\n      tag_226\n      jumpi\n        /* \"staking.sol\":7175:7195  uint256 _timeStarted */\n      0x00\n        /* \"staking.sol\":7198:7211  level0Balance */\n      0x0c\n        /* \"staking.sol\":7198:7217  level0Balance[user] */\n      0x00\n        /* \"staking.sol\":7212:7216  user */\n      dup7\n        /* \"staking.sol\":7198:7217  level0Balance[user] */\n      0xffffffffffffffffffffffffffffffffffffffff\n      and\n      0xffffffffffffffffffffffffffffffffffffffff\n      and\n      dup2\n      mstore\n      0x20\n      add\n      swap1\n      dup2\n      mstore\n      0x20\n      add\n      0x00\n      keccak256\n        /* \"staking.sol\":7198:7229  level0Balance[user].timeStarted */\n      0x01\n      add\n      sload\n        /* \"staking.sol\":7175:7229  uint256 _timeStarted = level0Balance[user].timeStarted */\n      swap1\n      pop\n        /* \"staking.sol\":7251:7301  calculateInterest(balance,_timeStarted, level0APY) */\n      tag_227\n        /* \"staking.sol\":7269:7276  balance */\n      dup4\n        /* \"staking.sol\":7277:7289  _timeStarted */\n      dup3\n        /* \"staking.sol\":7291:7300  level0APY */\n      sload(0x02)\n        /* \"staking.sol\":7251:7268  calculateInterest */\n      tag_228\n        /* \"staking.sol\":7251:7301  calculateInterest(balance,_timeStarted, level0APY) */\n      jump\t// in\n    tag_227:\n        /* \"staking.sol\":7244:7301  return calculateInterest(balance,_timeStarted, level0APY) */\n      swap2\n      pop\n      pop\n      jump(tag_225)\n        /* \"staking.sol\":7136:7711  if(class == 0){           ... */\n    tag_226:\n        /* \"staking.sol\":7331:7332  1 */\n      0x01\n        /* \"staking.sol\":7322:7327  class */\n      dup4\n        /* \"staking.sol\":7322:7332  class == 1 */\n      0xff\n      and\n      eq\n        /* \"staking.sol\":7318:7711  if (class == 1){      ... */\n      iszero\n      tag_230\n      jumpi\n        /* \"staking.sol\":7353:7373  uint256 _timeStarted */\n      0x00\n        /* \"staking.sol\":7376:7389  level1Balance */\n      0x0e\n        /* \"staking.sol\":7376:7395  level1Balance[user] */\n      0x00\n        /* \"staking.sol\":7390:7394  user */\n      dup7\n        /* \"staking.sol\":7376:7395  level1Balance[user] */\n      0xffffffffffffffffffffffffffffffffffffffff\n      and\n      0xffffffffffffffffffffffffffffffffffffffff\n      and\n      dup2\n      mstore\n      0x20\n      add\n      swap1\n      dup2\n      mstore\n      0x20\n      add\n      0x00\n      keccak256\n        /* \"staking.sol\":7376:7407  level1Balance[user].timeStarted */\n      0x01\n      add\n      sload\n        /* \"staking.sol\":7353:7407  uint256 _timeStarted = level1Balance[user].timeStarted */\n      swap1\n      pop\n        /* \"staking.sol\":7429:7479  calculateInterest(balance,_timeStarted, level1APY) */\n      tag_231\n        /* \"staking.sol\":7447:7454  balance */\n      dup4\n        /* \"staking.sol\":7455:7467  _timeStarted */\n      dup3\n        /* \"staking.sol\":7469:7478  level1APY */\n      sload(0x03)\n        /* \"staking.sol\":7429:7446  calculateInterest */\n      tag_228\n        /* \"staking.sol\":7429:7479  calculateInterest(balance,_timeStarted, level1APY) */\n      jump\t// in\n    tag_231:\n        /* \"staking.sol\":7422:7479  return calculateInterest(balance,_timeStarted, level1APY) */\n      swap2\n      pop\n      pop\n      jump(tag_225)\n        /* \"staking.sol\":7318:7711  if (class == 1){      ... */\n    tag_230:\n        /* \"staking.sol\":7509:7510  2 */\n      0x02\n        /* \"staking.sol\":7500:7505  class */\n      dup4\n        /* \"staking.sol\":7500:7510  class == 2 */\n      0xff\n      and\n      eq\n        /* \"staking.sol\":7496:7711  if (class == 2){           ... */\n      iszero\n      tag_233\n      jumpi\n        /* \"staking.sol\":7536:7556  uint256 _timeStarted */\n      0x00\n        /* \"staking.sol\":7559:7569  vipBalance */\n      0x10\n        /* \"staking.sol\":7559:7575  vipBalance[user] */\n      0x00\n        /* \"staking.sol\":7570:7574  user */\n      dup7\n        /* \"staking.sol\":7559:7575  vipBalance[user] */\n      0xffffffffffffffffffffffffffffffffffffffff\n      and\n      0xffffffffffffffffffffffffffffffffffffffff\n      and\n      dup2\n      mstore\n      0x20\n      add\n      swap1\n      dup2\n      mstore\n      0x20\n      add\n      0x00\n      keccak256\n        /* \"staking.sol\":7559:7587  vipBalance[user].timeStarted */\n      0x01\n      add\n      sload\n        /* \"staking.sol\":7536:7587  uint256 _timeStarted = vipBalance[user].timeStarted */\n      swap1\n      pop\n        /* \"staking.sol\":7609:7661  calculateInterest(balance,_timeStarted, vipLevelAPY) */\n      tag_234\n        /* \"staking.sol\":7627:7634  balance */\n      dup4\n        /* \"staking.sol\":7635:7647  _timeStarted */\n      dup3\n        /* \"staking.sol\":7649:7660  vipLevelAPY */\n      sload(0x04)\n        /* \"staking.sol\":7609:7626  calculateInterest */\n      tag_228\n        /* \"staking.sol\":7609:7661  calculateInterest(balance,_timeStarted, vipLevelAPY) */\n      jump\t// in\n    tag_234:\n        /* \"staking.sol\":7602:7661  return calculateInterest(balance,_timeStarted, vipLevelAPY) */\n      swap2\n      pop\n      pop\n      jump(tag_225)\n        /* \"staking.sol\":7496:7711  if (class == 2){           ... */\n    tag_233:\n        /* \"staking.sol\":7699:7700  0 */\n      0x00\n        /* \"staking.sol\":7692:7700  return 0 */\n      swap1\n      pop\n        /* \"staking.sol\":7031:7717  function getInterest (address user, uint8 class, uint256 balance) public view returns (uint256){... */\n    tag_225:\n      swap4\n      swap3\n      pop\n      pop\n      pop\n      jump\t// out\n        /* \"@openzeppelin/contracts/access/Ownable.sol\":1668:1769  function renounceOwnership() public virtual onlyOwner {... */\n    tag_97:\n        /* \"@openzeppelin/contracts/access/Ownable.sol\":1259:1271  _msgSender() */\n      tag_237\n        /* \"@openzeppelin/contracts/access/Ownable.sol\":1259:1269  _msgSender */\n      tag_186\n        /* \"@openzeppelin/contracts/access/Ownable.sol\":1259:1271  _msgSender() */\n      jump\t// in\n    tag_237:\n        /* \"@openzeppelin/contracts/access/Ownable.sol\":1248:1271  owner() == _msgSender() */\n      0xffffffffffffffffffffffffffffffffffffffff\n      and\n        /* \"@openzeppelin/contracts/access/Ownable.sol\":1248:1255  owner() */\n      tag_238\n        /* \"@openzeppelin/contracts/access/Ownable.sol\":1248:1253  owner */\n      tag_115\n        /* \"@openzeppelin/contracts/access/Ownable.sol\":1248:1255  owner() */\n      jump\t// in\n    tag_238:\n        /* \"@openzeppelin/contracts/access/Ownable.sol\":1248:1271  owner() == _msgSender() */\n      0xffffffffffffffffffffffffffffffffffffffff\n      and\n      eq\n        /* \"@openzeppelin/contracts/access/Ownable.sol\":1240:1308  require(owner() == _msgSender(), \"Ownable: caller is not the owner\") */\n      tag_239\n      jumpi\n      mload(0x40)\n      0x08c379a000000000000000000000000000000000000000000000000000000000\n      dup2\n      mstore\n      0x04\n      add\n      tag_240\n      swap1\n      tag_190\n      jump\t// in\n    tag_240:\n      mload(0x40)\n      dup1\n      swap2\n      sub\n      swap1\n      revert\n    tag_239:\n        /* \"@openzeppelin/contracts/access/Ownable.sol\":1732:1762  _transferOwnership(address(0)) */\n      tag_242\n        /* \"@openzeppelin/contracts/access/Ownable.sol\":1759:1760  0 */\n      0x00\n        /* \"@openzeppelin/contracts/access/Ownable.sol\":1732:1750  _transferOwnership */\n      tag_243\n        /* \"@openzeppelin/contracts/access/Ownable.sol\":1732:1762  _transferOwnership(address(0)) */\n      jump\t// in\n    tag_242:\n        /* \"@openzeppelin/contracts/access/Ownable.sol\":1668:1769  function renounceOwnership() public virtual onlyOwner {... */\n      jump\t// out\n        /* \"staking.sol\":1426:1471  uint256 public level0Max = 500000000 * 10**18 */\n    tag_99:\n      sload(0x06)\n      dup2\n      jump\t// out\n        /* \"staking.sol\":1878:1925  mapping (address => _user) public level1Balance */\n    tag_103:\n      mstore(0x20, 0x0e)\n      dup1\n      0x00\n      mstore\n      keccak256(0x00, 0x40)\n      0x00\n      swap2\n      pop\n      swap1\n      pop\n      dup1\n      0x00\n      add\n      sload\n      swap1\n      dup1\n      0x01\n      add\n      sload\n      swap1\n      dup1\n      0x02\n      add\n      sload\n      swap1\n      pop\n      dup4\n      jump\t// out\n        /* \"staking.sol\":1233:1265  uint256 public level0APY =  2700 */\n    tag_106:\n      sload(0x02)\n      dup2\n      jump\t// out\n        /* \"staking.sol\":1931:1969  mapping (address => bool) public isVip */\n    tag_110:\n      mstore(0x20, 0x0f)\n      dup1\n      0x00\n      mstore\n      keccak256(0x00, 0x40)\n      0x00\n      swap2\n      pop\n      sload\n      swap1\n      0x0100\n      exp\n      swap1\n      div\n      0xff\n      and\n      dup2\n      jump\t// out\n        /* \"staking.sol\":2644:2704  function pause () public onlyOwner {... */\n    tag_113:\n        /* \"@openzeppelin/contracts/access/Ownable.sol\":1259:1271  _msgSender() */\n      tag_245\n        /* \"@openzeppelin/contracts/access/Ownable.sol\":1259:1269  _msgSender */\n      tag_186\n        /* \"@openzeppelin/contracts/access/Ownable.sol\":1259:1271  _msgSender() */\n      jump\t// in\n    tag_245:\n        /* \"@openzeppelin/contracts/access/Ownable.sol\":1248:1271  owner() == _msgSender() */\n      0xffffffffffffffffffffffffffffffffffffffff\n      and\n        /* \"@openzeppelin/contracts/access/Ownable.sol\":1248:1255  owner() */\n      tag_246\n        /* \"@openzeppelin/contracts/access/Ownable.sol\":1248:1253  owner */\n      tag_115\n        /* \"@openzeppelin/contracts/access/Ownable.sol\":1248:1255  owner() */\n      jump\t// in\n    tag_246:\n        /* \"@openzeppelin/contracts/access/Ownable.sol\":1248:1271  owner() == _msgSender() */\n      0xffffffffffffffffffffffffffffffffffffffff\n      and\n      eq\n        /* \"@openzeppelin/contracts/access/Ownable.sol\":1240:1308  require(owner() == _msgSender(), \"Ownable: caller is not the owner\") */\n      tag_247\n      jumpi\n      mload(0x40)\n      0x08c379a000000000000000000000000000000000000000000000000000000000\n      dup2\n      mstore\n      0x04\n      add\n      tag_248\n      swap1\n      tag_190\n      jump\t// in\n    tag_248:\n      mload(0x40)\n      dup1\n      swap2\n      sub\n      swap1\n      revert\n    tag_247:\n        /* \"staking.sol\":2689:2697  _pause() */\n      tag_250\n        /* \"staking.sol\":2689:2695  _pause */\n      tag_251\n        /* \"staking.sol\":2689:2697  _pause() */\n      jump\t// in\n    tag_250:\n        /* \"staking.sol\":2644:2704  function pause () public onlyOwner {... */\n      jump\t// out\n        /* \"@openzeppelin/contracts/access/Ownable.sol\":1036:1121  function owner() public view virtual returns (address) {... */\n    tag_115:\n        /* \"@openzeppelin/contracts/access/Ownable.sol\":1082:1089  address */\n      0x00\n        /* \"@openzeppelin/contracts/access/Ownable.sol\":1108:1114  _owner */\n      dup1\n      0x00\n      swap1\n      sload\n      swap1\n      0x0100\n      exp\n      swap1\n      div\n      0xffffffffffffffffffffffffffffffffffffffff\n      and\n        /* \"@openzeppelin/contracts/access/Ownable.sol\":1101:1114  return _owner */\n      swap1\n      pop\n        /* \"@openzeppelin/contracts/access/Ownable.sol\":1036:1121  function owner() public view virtual returns (address) {... */\n      swap1\n      jump\t// out\n        /* \"staking.sol\":1620:1668  uint256 public levelVipMax = 2500000000 * 10**18 */\n    tag_119:\n      sload(0x0a)\n      dup2\n      jump\t// out\n        /* \"staking.sol\":1573:1614  uint256 public levelVipMin = 200 * 10**18 */\n    tag_122:\n      sload(0x09)\n      dup2\n      jump\t// out\n        /* \"staking.sol\":8245:9215  function withdrawLevel0 (uint256 _amount) public  {... */\n    tag_126:\n        /* \"staking.sol\":8305:8323  address _msgSender */\n      0x00\n        /* \"staking.sol\":8326:8336  msg.sender */\n      caller\n        /* \"staking.sol\":8305:8336  address _msgSender = msg.sender */\n      swap1\n      pop\n        /* \"staking.sol\":8354:8362  isLevel0 */\n      0x0b\n        /* \"staking.sol\":8354:8374  isLevel0[_msgSender] */\n      0x00\n        /* \"staking.sol\":8363:8373  _msgSender */\n      dup3\n        /* \"staking.sol\":8354:8374  isLevel0[_msgSender] */\n      0xffffffffffffffffffffffffffffffffffffffff\n      and\n      0xffffffffffffffffffffffffffffffffffffffff\n      and\n      dup2\n      mstore\n      0x20\n      add\n      swap1\n      dup2\n      mstore\n      0x20\n      add\n      0x00\n      keccak256\n      0x00\n      swap1\n      sload\n      swap1\n      0x0100\n      exp\n      swap1\n      div\n      0xff\n      and\n        /* \"staking.sol\":8346:8401  require(isLevel0[_msgSender], \"User is not on Level 0\") */\n      tag_254\n      jumpi\n      mload(0x40)\n      0x08c379a000000000000000000000000000000000000000000000000000000000\n      dup2\n      mstore\n      0x04\n      add\n      tag_255\n      swap1\n      tag_256\n      jump\t// in\n    tag_255:\n      mload(0x40)\n      dup1\n      swap2\n      sub\n      swap1\n      revert\n    tag_254:\n        /* \"staking.sol\":8412:8427  uint256 balance */\n      0x00\n        /* \"staking.sol\":8430:8443  level0Balance */\n      0x0c\n        /* \"staking.sol\":8430:8455  level0Balance[_msgSender] */\n      0x00\n        /* \"staking.sol\":8444:8454  _msgSender */\n      dup4\n        /* \"staking.sol\":8430:8455  level0Balance[_msgSender] */\n      0xffffffffffffffffffffffffffffffffffffffff\n      and\n      0xffffffffffffffffffffffffffffffffffffffff\n      and\n      dup2\n      mstore\n      0x20\n      add\n      swap1\n      dup2\n      mstore\n      0x20\n      add\n      0x00\n      keccak256\n        /* \"staking.sol\":8430:8463  level0Balance[_msgSender].balance */\n      0x00\n      add\n      sload\n        /* \"staking.sol\":8412:8463  uint256 balance = level0Balance[_msgSender].balance */\n      swap1\n      pop\n        /* \"staking.sol\":8492:8499  _amount */\n      dup3\n        /* \"staking.sol\":8481:8488  balance */\n      dup2\n        /* \"staking.sol\":8481:8499  balance >= _amount */\n      lt\n      iszero\n        /* \"staking.sol\":8473:8534  require(balance >= _amount, \"Not enough balance to withdraw\") */\n      tag_257\n      jumpi\n      mload(0x40)\n      0x08c379a000000000000000000000000000000000000000000000000000000000\n      dup2\n      mstore\n      0x04\n      add\n      tag_258\n      swap1\n      tag_201\n      jump\t// in\n    tag_258:\n      mload(0x40)\n      dup1\n      swap2\n      sub\n      swap1\n      revert\n    tag_257:\n        /* \"staking.sol\":8545:8559  bool _isOnTime */\n      0x00\n        /* \"staking.sol\":8562:8585  isOnTime(_msgSender, 0) */\n      tag_259\n        /* \"staking.sol\":8571:8581  _msgSender */\n      dup4\n        /* \"staking.sol\":8583:8584  0 */\n      0x00\n        /* \"staking.sol\":8562:8570  isOnTime */\n      tag_154\n        /* \"staking.sol\":8562:8585  isOnTime(_msgSender, 0) */\n      jump\t// in\n    tag_259:\n        /* \"staking.sol\":8545:8585  bool _isOnTime = isOnTime(_msgSender, 0) */\n      swap1\n      pop\n        /* \"staking.sol\":8595:8611  uint256 earnings */\n      0x00\n        /* \"staking.sol\":8614:8649  getInterest(_msgSender, 0, _amount) */\n      tag_260\n        /* \"staking.sol\":8626:8636  _msgSender */\n      dup5\n        /* \"staking.sol\":8638:8639  0 */\n      0x00\n        /* \"staking.sol\":8641:8648  _amount */\n      dup8\n        /* \"staking.sol\":8614:8625  getInterest */\n      tag_94\n        /* \"staking.sol\":8614:8649  getInterest(_msgSender, 0, _amount) */\n      jump\t// in\n    tag_260:\n        /* \"staking.sol\":8595:8649  uint256 earnings = getInterest(_msgSender, 0, _amount) */\n      swap1\n      pop\n        /* \"staking.sol\":8674:8681  balance */\n      dup3\n        /* \"staking.sol\":8663:8670  _amount */\n      dup6\n        /* \"staking.sol\":8663:8681  _amount == balance */\n      eq\n        /* \"staking.sol\":8660:8862  if(_amount == balance){... */\n      iszero\n      tag_261\n      jumpi\n        /* \"staking.sol\":8703:8716  level0Balance */\n      0x0c\n        /* \"staking.sol\":8703:8728  level0Balance[_msgSender] */\n      0x00\n        /* \"staking.sol\":8717:8727  _msgSender */\n      dup6\n        /* \"staking.sol\":8703:8728  level0Balance[_msgSender] */\n      0xffffffffffffffffffffffffffffffffffffffff\n      and\n      0xffffffffffffffffffffffffffffffffffffffff\n      and\n      dup2\n      mstore\n      0x20\n      add\n      swap1\n      dup2\n      mstore\n      0x20\n      add\n      0x00\n      keccak256\n      0x00\n        /* \"staking.sol\":8696:8728  delete level0Balance[_msgSender] */\n      dup1\n      dup3\n      add\n      0x00\n      swap1\n      sstore\n      0x01\n      dup3\n      add\n      0x00\n      swap1\n      sstore\n      0x02\n      dup3\n      add\n      0x00\n      swap1\n      sstore\n      pop\n      pop\n        /* \"staking.sol\":8771:8776  false */\n      0x00\n        /* \"staking.sol\":8748:8756  isLevel0 */\n      0x0b\n        /* \"staking.sol\":8748:8768  isLevel0[_msgSender] */\n      0x00\n        /* \"staking.sol\":8757:8767  _msgSender */\n      dup7\n        /* \"staking.sol\":8748:8768  isLevel0[_msgSender] */\n      0xffffffffffffffffffffffffffffffffffffffff\n      and\n      0xffffffffffffffffffffffffffffffffffffffff\n      and\n      dup2\n      mstore\n      0x20\n      add\n      swap1\n      dup2\n      mstore\n      0x20\n      add\n      0x00\n      keccak256\n      0x00\n        /* \"staking.sol\":8748:8776  isLevel0[_msgSender] = false */\n      0x0100\n      exp\n      dup2\n      sload\n      dup2\n      0xff\n      mul\n      not\n      and\n      swap1\n      dup4\n      iszero\n      iszero\n      mul\n      or\n      swap1\n      sstore\n      pop\n        /* \"staking.sol\":8660:8862  if(_amount == balance){... */\n      jump(tag_262)\n    tag_261:\n        /* \"staking.sol\":8844:8851  _amount */\n      dup5\n        /* \"staking.sol\":8807:8820  level0Balance */\n      0x0c\n        /* \"staking.sol\":8807:8832  level0Balance[_msgSender] */\n      0x00\n        /* \"staking.sol\":8821:8831  _msgSender */\n      dup7\n        /* \"staking.sol\":8807:8832  level0Balance[_msgSender] */\n      0xffffffffffffffffffffffffffffffffffffffff\n      and\n      0xffffffffffffffffffffffffffffffffffffffff\n      and\n      dup2\n      mstore\n      0x20\n      add\n      swap1\n      dup2\n      mstore\n      0x20\n      add\n      0x00\n      keccak256\n        /* \"staking.sol\":8807:8840  level0Balance[_msgSender].balance */\n      0x00\n      add\n      0x00\n        /* \"staking.sol\":8807:8851  level0Balance[_msgSender].balance -= _amount */\n      dup3\n      dup3\n      sload\n      tag_263\n      swap2\n      swap1\n      tag_207\n      jump\t// in\n    tag_263:\n      swap3\n      pop\n      pop\n      dup2\n      swap1\n      sstore\n      pop\n        /* \"staking.sol\":8660:8862  if(_amount == balance){... */\n    tag_262:\n        /* \"staking.sol\":8875:8884  _isOnTime */\n      dup2\n        /* \"staking.sol\":8872:9136  if(_isOnTime){... */\n      iszero\n      tag_264\n      jumpi\n        /* \"staking.sol\":8899:8912  acceptedToken */\n      0x01\n      0x00\n      swap1\n      sload\n      swap1\n      0x0100\n      exp\n      swap1\n      div\n      0xffffffffffffffffffffffffffffffffffffffff\n      and\n        /* \"staking.sol\":8899:8921  acceptedToken.transfer */\n      0xffffffffffffffffffffffffffffffffffffffff\n      and\n      0xa9059cbb\n        /* \"staking.sol\":8922:8932  _msgSender */\n      dup6\n        /* \"staking.sol\":8934:8941  _amount */\n      dup8\n        /* \"staking.sol\":8899:8942  acceptedToken.transfer(_msgSender, _amount) */\n      mload(0x40)\n      dup4\n      0xffffffff\n      and\n      0xe0\n      shl\n      dup2\n      mstore\n      0x04\n      add\n      tag_265\n      swap3\n      swap2\n      swap1\n      tag_210\n      jump\t// in\n    tag_265:\n      0x20\n      mload(0x40)\n      dup1\n      dup4\n      sub\n      dup2\n      0x00\n      dup8\n      dup1\n      extcodesize\n      iszero\n      dup1\n      iszero\n      tag_266\n      jumpi\n      0x00\n      dup1\n      revert\n    tag_266:\n      pop\n      gas\n      call\n      iszero\n      dup1\n      iszero\n      tag_268\n      jumpi\n      returndatasize\n      0x00\n      dup1\n      returndatacopy\n      revert(0x00, returndatasize)\n    tag_268:\n      pop\n      pop\n      pop\n      pop\n      mload(0x40)\n      returndatasize\n      not(0x1f)\n      0x1f\n      dup3\n      add\n      and\n      dup3\n      add\n      dup1\n      0x40\n      mstore\n      pop\n      dup2\n      add\n      swap1\n      tag_269\n      swap2\n      swap1\n      tag_178\n      jump\t// in\n    tag_269:\n      pop\n        /* \"staking.sol\":8969:9007  swapTokensForEth(earnings, _msgSender) */\n      tag_270\n        /* \"staking.sol\":8986:8994  earnings */\n      dup2\n        /* \"staking.sol\":8996:9006  _msgSender */\n      dup6\n        /* \"staking.sol\":8969:8985  swapTokensForEth */\n      tag_216\n        /* \"staking.sol\":8969:9007  swapTokensForEth(earnings, _msgSender) */\n      jump\t// in\n    tag_270:\n        /* \"staking.sol\":8872:9136  if(_isOnTime){... */\n      jump(tag_271)\n    tag_264:\n        /* \"staking.sol\":9049:9050  0 */\n      0x00\n        /* \"staking.sol\":9038:9050  earnings = 0 */\n      swap1\n      pop\n        /* \"staking.sol\":9071:9084  acceptedToken */\n      0x01\n      0x00\n      swap1\n      sload\n      swap1\n      0x0100\n      exp\n      swap1\n      div\n      0xffffffffffffffffffffffffffffffffffffffff\n      and\n        /* \"staking.sol\":9071:9093  acceptedToken.transfer */\n      0xffffffffffffffffffffffffffffffffffffffff\n      and\n      0xa9059cbb\n        /* \"staking.sol\":9094:9104  _msgSender */\n      dup6\n        /* \"staking.sol\":9106:9113  _amount */\n      dup8\n        /* \"staking.sol\":9071:9114  acceptedToken.transfer(_msgSender, _amount) */\n      mload(0x40)\n      dup4\n      0xffffffff\n      and\n      0xe0\n      shl\n      dup2\n      mstore\n      0x04\n      add\n      tag_272\n      swap3\n      swap2\n      swap1\n      tag_210\n      jump\t// in\n    tag_272:\n      0x20\n      mload(0x40)\n      dup1\n      dup4\n      sub\n      dup2\n      0x00\n      dup8\n      dup1\n      extcodesize\n      iszero\n      dup1\n      iszero\n      tag_273\n      jumpi\n      0x00\n      dup1\n      revert\n    tag_273:\n      pop\n      gas\n      call\n      iszero\n      dup1\n      iszero\n      tag_275\n      jumpi\n      returndatasize\n      0x00\n      dup1\n      returndatacopy\n      revert(0x00, returndatasize)\n    tag_275:\n      pop\n      pop\n      pop\n      pop\n      mload(0x40)\n      returndatasize\n      not(0x1f)\n      0x1f\n      dup3\n      add\n      and\n      dup3\n      add\n      dup1\n      0x40\n      mstore\n      pop\n      dup2\n      add\n      swap1\n      tag_276\n      swap2\n      swap1\n      tag_178\n      jump\t// in\n    tag_276:\n      pop\n        /* \"staking.sol\":8872:9136  if(_isOnTime){... */\n    tag_271:\n        /* \"staking.sol\":9155:9208  withdraw(_msgSender, 0, _isOnTime, _amount, earnings) */\n      0xa3dff5863d601223d9b31a0253b97a6c2085daca56089b92836b4b6a1991e04b\n        /* \"staking.sol\":9164:9174  _msgSender */\n      dup5\n        /* \"staking.sol\":9176:9177  0 */\n      0x00\n        /* \"staking.sol\":9179:9188  _isOnTime */\n      dup5\n        /* \"staking.sol\":9190:9197  _amount */\n      dup9\n        /* \"staking.sol\":9199:9207  earnings */\n      dup6\n        /* \"staking.sol\":9155:9208  withdraw(_msgSender, 0, _isOnTime, _amount, earnings) */\n      mload(0x40)\n      tag_277\n      swap6\n      swap5\n      swap4\n      swap3\n      swap2\n      swap1\n      tag_278\n      jump\t// in\n    tag_277:\n      mload(0x40)\n      dup1\n      swap2\n      sub\n      swap1\n      log1\n        /* \"staking.sol\":8295:9215  {... */\n      pop\n      pop\n      pop\n      pop\n        /* \"staking.sol\":8245:9215  function withdrawLevel0 (uint256 _amount) public  {... */\n      pop\n      jump\t// out\n        /* \"staking.sol\":1975:2019  mapping (address => _user) public vipBalance */\n    tag_129:\n      mstore(0x20, 0x10)\n      dup1\n      0x00\n      mstore\n      keccak256(0x00, 0x40)\n      0x00\n      swap2\n      pop\n      swap1\n      pop\n      dup1\n      0x00\n      add\n      sload\n      swap1\n      dup1\n      0x01\n      add\n      sload\n      swap1\n      dup1\n      0x02\n      add\n      sload\n      swap1\n      pop\n      dup4\n      jump\t// out\n        /* \"staking.sol\":9373:10329  function withdrawLevel1 (uint256 _amount) public  {... */\n    tag_133:\n        /* \"staking.sol\":9433:9451  address _msgSender */\n      0x00\n        /* \"staking.sol\":9454:9464  msg.sender */\n      caller\n        /* \"staking.sol\":9433:9464  address _msgSender = msg.sender */\n      swap1\n      pop\n        /* \"staking.sol\":9482:9490  isLevel1 */\n      0x0d\n        /* \"staking.sol\":9482:9502  isLevel1[_msgSender] */\n      0x00\n        /* \"staking.sol\":9491:9501  _msgSender */\n      dup3\n        /* \"staking.sol\":9482:9502  isLevel1[_msgSender] */\n      0xffffffffffffffffffffffffffffffffffffffff\n      and\n      0xffffffffffffffffffffffffffffffffffffffff\n      and\n      dup2\n      mstore\n      0x20\n      add\n      swap1\n      dup2\n      mstore\n      0x20\n      add\n      0x00\n      keccak256\n      0x00\n      swap1\n      sload\n      swap1\n      0x0100\n      exp\n      swap1\n      div\n      0xff\n      and\n        /* \"staking.sol\":9474:9529  require(isLevel1[_msgSender], \"User is not on Level 1\") */\n      tag_280\n      jumpi\n      mload(0x40)\n      0x08c379a000000000000000000000000000000000000000000000000000000000\n      dup2\n      mstore\n      0x04\n      add\n      tag_281\n      swap1\n      tag_282\n      jump\t// in\n    tag_281:\n      mload(0x40)\n      dup1\n      swap2\n      sub\n      swap1\n      revert\n    tag_280:\n        /* \"staking.sol\":9540:9555  uint256 balance */\n      0x00\n        /* \"staking.sol\":9558:9571  level1Balance */\n      0x0e\n        /* \"staking.sol\":9558:9583  level1Balance[_msgSender] */\n      0x00\n        /* \"staking.sol\":9572:9582  _msgSender */\n      dup4\n        /* \"staking.sol\":9558:9583  level1Balance[_msgSender] */\n      0xffffffffffffffffffffffffffffffffffffffff\n      and\n      0xffffffffffffffffffffffffffffffffffffffff\n      and\n      dup2\n      mstore\n      0x20\n      add\n      swap1\n      dup2\n      mstore\n      0x20\n      add\n      0x00\n      keccak256\n        /* \"staking.sol\":9558:9591  level1Balance[_msgSender].balance */\n      0x00\n      add\n      sload\n        /* \"staking.sol\":9540:9591  uint256 balance = level1Balance[_msgSender].balance */\n      swap1\n      pop\n        /* \"staking.sol\":9620:9627  _amount */\n      dup3\n        /* \"staking.sol\":9609:9616  balance */\n      dup2\n        /* \"staking.sol\":9609:9627  balance >= _amount */\n      lt\n      iszero\n        /* \"staking.sol\":9601:9662  require(balance >= _amount, \"Not enough balance to withdraw\") */\n      tag_283\n      jumpi\n      mload(0x40)\n      0x08c379a000000000000000000000000000000000000000000000000000000000\n      dup2\n      mstore\n      0x04\n      add\n      tag_284\n      swap1\n      tag_201\n      jump\t// in\n    tag_284:\n      mload(0x40)\n      dup1\n      swap2\n      sub\n      swap1\n      revert\n    tag_283:\n        /* \"staking.sol\":9673:9687  bool _isOnTime */\n      0x00\n        /* \"staking.sol\":9690:9713  isOnTime(_msgSender, 1) */\n      tag_285\n        /* \"staking.sol\":9699:9709  _msgSender */\n      dup4\n        /* \"staking.sol\":9711:9712  1 */\n      0x01\n        /* \"staking.sol\":9690:9698  isOnTime */\n      tag_154\n        /* \"staking.sol\":9690:9713  isOnTime(_msgSender, 1) */\n      jump\t// in\n    tag_285:\n        /* \"staking.sol\":9673:9713  bool _isOnTime = isOnTime(_msgSender, 1) */\n      swap1\n      pop\n        /* \"staking.sol\":9723:9739  uint256 earnings */\n      0x00\n        /* \"staking.sol\":9742:9777  getInterest(_msgSender, 1, _amount) */\n      tag_286\n        /* \"staking.sol\":9754:9764  _msgSender */\n      dup5\n        /* \"staking.sol\":9766:9767  1 */\n      0x01\n        /* \"staking.sol\":9769:9776  _amount */\n      dup8\n        /* \"staking.sol\":9742:9753  getInterest */\n      tag_94\n        /* \"staking.sol\":9742:9777  getInterest(_msgSender, 1, _amount) */\n      jump\t// in\n    tag_286:\n        /* \"staking.sol\":9723:9777  uint256 earnings = getInterest(_msgSender, 1, _amount) */\n      swap1\n      pop\n        /* \"staking.sol\":9802:9809  balance */\n      dup3\n        /* \"staking.sol\":9791:9798  _amount */\n      dup6\n        /* \"staking.sol\":9791:9809  _amount == balance */\n      eq\n        /* \"staking.sol\":9788:9990  if(_amount == balance){... */\n      iszero\n      tag_287\n      jumpi\n        /* \"staking.sol\":9831:9844  level1Balance */\n      0x0e\n        /* \"staking.sol\":9831:9856  level1Balance[_msgSender] */\n      0x00\n        /* \"staking.sol\":9845:9855  _msgSender */\n      dup6\n        /* \"staking.sol\":9831:9856  level1Balance[_msgSender] */\n      0xffffffffffffffffffffffffffffffffffffffff\n      and\n      0xffffffffffffffffffffffffffffffffffffffff\n      and\n      dup2\n      mstore\n      0x20\n      add\n      swap1\n      dup2\n      mstore\n      0x20\n      add\n      0x00\n      keccak256\n      0x00\n        /* \"staking.sol\":9824:9856  delete level1Balance[_msgSender] */\n      dup1\n      dup3\n      add\n      0x00\n      swap1\n      sstore\n      0x01\n      dup3\n      add\n      0x00\n      swap1\n      sstore\n      0x02\n      dup3\n      add\n      0x00\n      swap1\n      sstore\n      pop\n      pop\n        /* \"staking.sol\":9899:9904  false */\n      0x00\n        /* \"staking.sol\":9876:9884  isLevel1 */\n      0x0d\n        /* \"staking.sol\":9876:9896  isLevel1[_msgSender] */\n      0x00\n        /* \"staking.sol\":9885:9895  _msgSender */\n      dup7\n        /* \"staking.sol\":9876:9896  isLevel1[_msgSender] */\n      0xffffffffffffffffffffffffffffffffffffffff\n      and\n      0xffffffffffffffffffffffffffffffffffffffff\n      and\n      dup2\n      mstore\n      0x20\n      add\n      swap1\n      dup2\n      mstore\n      0x20\n      add\n      0x00\n      keccak256\n      0x00\n        /* \"staking.sol\":9876:9904  isLevel1[_msgSender] = false */\n      0x0100\n      exp\n      dup2\n      sload\n      dup2\n      0xff\n      mul\n      not\n      and\n      swap1\n      dup4\n      iszero\n      iszero\n      mul\n      or\n      swap1\n      sstore\n      pop\n        /* \"staking.sol\":9788:9990  if(_amount == balance){... */\n      jump(tag_288)\n    tag_287:\n        /* \"staking.sol\":9972:9979  _amount */\n      dup5\n        /* \"staking.sol\":9935:9948  level1Balance */\n      0x0e\n        /* \"staking.sol\":9935:9960  level1Balance[_msgSender] */\n      0x00\n        /* \"staking.sol\":9949:9959  _msgSender */\n      dup7\n        /* \"staking.sol\":9935:9960  level1Balance[_msgSender] */\n      0xffffffffffffffffffffffffffffffffffffffff\n      and\n      0xffffffffffffffffffffffffffffffffffffffff\n      and\n      dup2\n      mstore\n      0x20\n      add\n      swap1\n      dup2\n      mstore\n      0x20\n      add\n      0x00\n      keccak256\n        /* \"staking.sol\":9935:9968  level1Balance[_msgSender].balance */\n      0x00\n      add\n      0x00\n        /* \"staking.sol\":9935:9979  level1Balance[_msgSender].balance -= _amount */\n      dup3\n      dup3\n      sload\n      tag_289\n      swap2\n      swap1\n      tag_207\n      jump\t// in\n    tag_289:\n      swap3\n      pop\n      pop\n      dup2\n      swap1\n      sstore\n      pop\n        /* \"staking.sol\":9788:9990  if(_amount == balance){... */\n    tag_288:\n        /* \"staking.sol\":10003:10012  _isOnTime */\n      dup2\n        /* \"staking.sol\":10000:10254  if(_isOnTime){... */\n      iszero\n      tag_290\n      jumpi\n        /* \"staking.sol\":10027:10040  acceptedToken */\n      0x01\n      0x00\n      swap1\n      sload\n      swap1\n      0x0100\n      exp\n      swap1\n      div\n      0xffffffffffffffffffffffffffffffffffffffff\n      and\n        /* \"staking.sol\":10027:10049  acceptedToken.transfer */\n      0xffffffffffffffffffffffffffffffffffffffff\n      and\n      0xa9059cbb\n        /* \"staking.sol\":10050:10060  _msgSender */\n      dup6\n        /* \"staking.sol\":10062:10069  _amount */\n      dup8\n        /* \"staking.sol\":10027:10070  acceptedToken.transfer(_msgSender, _amount) */\n      mload(0x40)\n      dup4\n      0xffffffff\n      and\n      0xe0\n      shl\n      dup2\n      mstore\n      0x04\n      add\n      tag_291\n      swap3\n      swap2\n      swap1\n      tag_210\n      jump\t// in\n    tag_291:\n      0x20\n      mload(0x40)\n      dup1\n      dup4\n      sub\n      dup2\n      0x00\n      dup8\n      dup1\n      extcodesize\n      iszero\n      dup1\n      iszero\n      tag_292\n      jumpi\n      0x00\n      dup1\n      revert\n    tag_292:\n      pop\n      gas\n      call\n      iszero\n      dup1\n      iszero\n      tag_294\n      jumpi\n      returndatasize\n      0x00\n      dup1\n      returndatacopy\n      revert(0x00, returndatasize)\n    tag_294:\n      pop\n      pop\n      pop\n      pop\n      mload(0x40)\n      returndatasize\n      not(0x1f)\n      0x1f\n      dup3\n      add\n      and\n      dup3\n      add\n      dup1\n      0x40\n      mstore\n      pop\n      dup2\n      add\n      swap1\n      tag_295\n      swap2\n      swap1\n      tag_178\n      jump\t// in\n    tag_295:\n      pop\n        /* \"staking.sol\":10085:10123  swapTokensForEth(earnings, _msgSender) */\n      tag_296\n        /* \"staking.sol\":10102:10110  earnings */\n      dup2\n        /* \"staking.sol\":10112:10122  _msgSender */\n      dup6\n        /* \"staking.sol\":10085:10101  swapTokensForEth */\n      tag_216\n        /* \"staking.sol\":10085:10123  swapTokensForEth(earnings, _msgSender) */\n      jump\t// in\n    tag_296:\n        /* \"staking.sol\":10000:10254  if(_isOnTime){... */\n      jump(tag_297)\n    tag_290:\n        /* \"staking.sol\":10165:10166  0 */\n      0x00\n        /* \"staking.sol\":10154:10166  earnings = 0 */\n      swap1\n      pop\n        /* \"staking.sol\":10189:10202  acceptedToken */\n      0x01\n      0x00\n      swap1\n      sload\n      swap1\n      0x0100\n      exp\n      swap1\n      div\n      0xffffffffffffffffffffffffffffffffffffffff\n      and\n        /* \"staking.sol\":10189:10211  acceptedToken.transfer */\n      0xffffffffffffffffffffffffffffffffffffffff\n      and\n      0xa9059cbb\n        /* \"staking.sol\":10212:10222  _msgSender */\n      dup6\n        /* \"staking.sol\":10224:10231  _amount */\n      dup8\n        /* \"staking.sol\":10189:10232  acceptedToken.transfer(_msgSender, _amount) */\n      mload(0x40)\n      dup4\n      0xffffffff\n      and\n      0xe0\n      shl\n      dup2\n      mstore\n      0x04\n      add\n      tag_298\n      swap3\n      swap2\n      swap1\n      tag_210\n      jump\t// in\n    tag_298:\n      0x20\n      mload(0x40)\n      dup1\n      dup4\n      sub\n      dup2\n      0x00\n      dup8\n      dup1\n      extcodesize\n      iszero\n      dup1\n      iszero\n      tag_299\n      jumpi\n      0x00\n      dup1\n      revert\n    tag_299:\n      pop\n      gas\n      call\n      iszero\n      dup1\n      iszero\n      tag_301\n      jumpi\n      returndatasize\n      0x00\n      dup1\n      returndatacopy\n      revert(0x00, returndatasize)\n    tag_301:\n      pop\n      pop\n      pop\n      pop\n      mload(0x40)\n      returndatasize\n      not(0x1f)\n      0x1f\n      dup3\n      add\n      and\n      dup3\n      add\n      dup1\n      0x40\n      mstore\n      pop\n      dup2\n      add\n      swap1\n      tag_302\n      swap2\n      swap1\n      tag_178\n      jump\t// in\n    tag_302:\n      pop\n        /* \"staking.sol\":10000:10254  if(_isOnTime){... */\n    tag_297:\n        /* \"staking.sol\":10269:10322  withdraw(_msgSender, 1, _isOnTime, _amount, earnings) */\n      0xa3dff5863d601223d9b31a0253b97a6c2085daca56089b92836b4b6a1991e04b\n        /* \"staking.sol\":10278:10288  _msgSender */\n      dup5\n        /* \"staking.sol\":10290:10291  1 */\n      0x01\n        /* \"staking.sol\":10293:10302  _isOnTime */\n      dup5\n        /* \"staking.sol\":10304:10311  _amount */\n      dup9\n        /* \"staking.sol\":10313:10321  earnings */\n      dup6\n        /* \"staking.sol\":10269:10322  withdraw(_msgSender, 1, _isOnTime, _amount, earnings) */\n      mload(0x40)\n      tag_303\n      swap6\n      swap5\n      swap4\n      swap3\n      swap2\n      swap1\n      tag_304\n      jump\t// in\n    tag_303:\n      mload(0x40)\n      dup1\n      swap2\n      sub\n      swap1\n      log1\n        /* \"staking.sol\":9423:10329  {... */\n      pop\n      pop\n      pop\n      pop\n        /* \"staking.sol\":9373:10329  function withdrawLevel1 (uint256 _amount) public  {... */\n      pop\n      jump\t// out\n        /* \"staking.sol\":5504:6252  function enterVip (uint256 _amount) public whenNotPaused {... */\n    tag_136:\n        /* \"@openzeppelin/contracts/security/Pausable.sol\":1412:1420  paused() */\n      tag_306\n        /* \"@openzeppelin/contracts/security/Pausable.sol\":1412:1418  paused */\n      tag_68\n        /* \"@openzeppelin/contracts/security/Pausable.sol\":1412:1420  paused() */\n      jump\t// in\n    tag_306:\n        /* \"@openzeppelin/contracts/security/Pausable.sol\":1411:1420  !paused() */\n      iszero\n        /* \"@openzeppelin/contracts/security/Pausable.sol\":1403:1441  require(!paused(), \"Pausable: paused\") */\n      tag_307\n      jumpi\n      mload(0x40)\n      0x08c379a000000000000000000000000000000000000000000000000000000000\n      dup2\n      mstore\n      0x04\n      add\n      tag_308\n      swap1\n      tag_163\n      jump\t// in\n    tag_308:\n      mload(0x40)\n      dup1\n      swap2\n      sub\n      swap1\n      revert\n    tag_307:\n        /* \"staking.sol\":5590:5601  levelVipMax */\n      sload(0x0a)\n        /* \"staking.sol\":5579:5586  _amount */\n      dup2\n        /* \"staking.sol\":5579:5601  _amount <= levelVipMax */\n      gt\n      iszero\n        /* \"staking.sol\":5579:5627  _amount <= levelVipMax && _amount >= levelVipMin */\n      dup1\n      iszero\n      tag_310\n      jumpi\n      pop\n        /* \"staking.sol\":5616:5627  levelVipMin */\n      sload(0x09)\n        /* \"staking.sol\":5605:5612  _amount */\n      dup2\n        /* \"staking.sol\":5605:5627  _amount >= levelVipMin */\n      lt\n      iszero\n        /* \"staking.sol\":5579:5627  _amount <= levelVipMax && _amount >= levelVipMin */\n    tag_310:\n        /* \"staking.sol\":5571:5682  require(_amount <= levelVipMax && _amount >= levelVipMin, \"Amount needs to be more than min and less than max\") */\n      tag_311\n      jumpi\n      mload(0x40)\n      0x08c379a000000000000000000000000000000000000000000000000000000000\n      dup2\n      mstore\n      0x04\n      add\n      tag_312\n      swap1\n      tag_168\n      jump\t// in\n    tag_312:\n      mload(0x40)\n      dup1\n      swap2\n      sub\n      swap1\n      revert\n    tag_311:\n        /* \"staking.sol\":5692:5710  address _msgSender */\n      0x00\n        /* \"staking.sol\":5713:5723  msg.sender */\n      caller\n        /* \"staking.sol\":5692:5723  address _msgSender = msg.sender */\n      swap1\n      pop\n        /* \"staking.sol\":5755:5760  isVip */\n      0x0f\n        /* \"staking.sol\":5755:5772  isVip[_msgSender] */\n      0x00\n        /* \"staking.sol\":5761:5771  _msgSender */\n      dup3\n        /* \"staking.sol\":5755:5772  isVip[_msgSender] */\n      0xffffffffffffffffffffffffffffffffffffffff\n      and\n      0xffffffffffffffffffffffffffffffffffffffff\n      and\n      dup2\n      mstore\n      0x20\n      add\n      swap1\n      dup2\n      mstore\n      0x20\n      add\n      0x00\n      keccak256\n      0x00\n      swap1\n      sload\n      swap1\n      0x0100\n      exp\n      swap1\n      div\n      0xff\n      and\n        /* \"staking.sol\":5754:5772  !isVip[_msgSender] */\n      iszero\n        /* \"staking.sol\":5746:5808  require(!isVip[_msgSender], \"You're already in the Vip Stake\") */\n      tag_313\n      jumpi\n      mload(0x40)\n      0x08c379a000000000000000000000000000000000000000000000000000000000\n      dup2\n      mstore\n      0x04\n      add\n      tag_314\n      swap1\n      tag_315\n      jump\t// in\n    tag_314:\n      mload(0x40)\n      dup1\n      swap2\n      sub\n      swap1\n      revert\n    tag_313:\n        /* \"staking.sol\":5827:5840  acceptedToken */\n      0x01\n      0x00\n      swap1\n      sload\n      swap1\n      0x0100\n      exp\n      swap1\n      div\n      0xffffffffffffffffffffffffffffffffffffffff\n      and\n        /* \"staking.sol\":5827:5853  acceptedToken.transferFrom */\n      0xffffffffffffffffffffffffffffffffffffffff\n      and\n      0x23b872dd\n        /* \"staking.sol\":5854:5864  _msgSender */\n      dup3\n        /* \"staking.sol\":5874:5878  this */\n      address\n        /* \"staking.sol\":5881:5888  _amount */\n      dup6\n        /* \"staking.sol\":5827:5889  acceptedToken.transferFrom(_msgSender, address(this), _amount) */\n      mload(0x40)\n      dup5\n      0xffffffff\n      and\n      0xe0\n      shl\n      dup2\n      mstore\n      0x04\n      add\n      tag_316\n      swap4\n      swap3\n      swap2\n      swap1\n      tag_173\n      jump\t// in\n    tag_316:\n      0x20\n      mload(0x40)\n      dup1\n      dup4\n      sub\n      dup2\n      0x00\n      dup8\n      dup1\n      extcodesize\n      iszero\n      dup1\n      iszero\n      tag_317\n      jumpi\n      0x00\n      dup1\n      revert\n    tag_317:\n      pop\n      gas\n      call\n      iszero\n      dup1\n      iszero\n      tag_319\n      jumpi\n      returndatasize\n      0x00\n      dup1\n      returndatacopy\n      revert(0x00, returndatasize)\n    tag_319:\n      pop\n      pop\n      pop\n      pop\n      mload(0x40)\n      returndatasize\n      not(0x1f)\n      0x1f\n      dup3\n      add\n      and\n      dup3\n      add\n      dup1\n      0x40\n      mstore\n      pop\n      dup2\n      add\n      swap1\n      tag_320\n      swap2\n      swap1\n      tag_178\n      jump\t// in\n    tag_320:\n      pop\n        /* \"staking.sol\":5920:5924  true */\n      0x01\n        /* \"staking.sol\":5900:5905  isVip */\n      0x0f\n        /* \"staking.sol\":5900:5917  isVip[_msgSender] */\n      0x00\n        /* \"staking.sol\":5906:5916  _msgSender */\n      dup4\n        /* \"staking.sol\":5900:5917  isVip[_msgSender] */\n      0xffffffffffffffffffffffffffffffffffffffff\n      and\n      0xffffffffffffffffffffffffffffffffffffffff\n      and\n      dup2\n      mstore\n      0x20\n      add\n      swap1\n      dup2\n      mstore\n      0x20\n      add\n      0x00\n      keccak256\n      0x00\n        /* \"staking.sol\":5900:5924  isVip[_msgSender] = true */\n      0x0100\n      exp\n      dup2\n      sload\n      dup2\n      0xff\n      mul\n      not\n      and\n      swap1\n      dup4\n      iszero\n      iszero\n      mul\n      or\n      swap1\n      sstore\n      pop\n        /* \"staking.sol\":5959:6146  _user ({... */\n      mload(0x40)\n      dup1\n      0x60\n      add\n      0x40\n      mstore\n      dup1\n        /* \"staking.sol\":5988:5995  _amount */\n      dup4\n        /* \"staking.sol\":5959:6146  _user ({... */\n      dup2\n      mstore\n      0x20\n      add\n        /* \"staking.sol\":6021:6036  block.timestamp */\n      timestamp\n        /* \"staking.sol\":5959:6146  _user ({... */\n      dup2\n      mstore\n      0x20\n      add\n        /* \"staking.sol\":6131:6135  1200 */\n      0x04b0\n        /* \"staking.sol\":6113:6128  block.timestamp */\n      timestamp\n        /* \"staking.sol\":6113:6135  block.timestamp + 1200 */\n      tag_321\n      swap2\n      swap1\n      tag_180\n      jump\t// in\n    tag_321:\n        /* \"staking.sol\":5959:6146  _user ({... */\n      dup2\n      mstore\n      pop\n        /* \"staking.sol\":5934:5944  vipBalance */\n      0x10\n        /* \"staking.sol\":5934:5956  vipBalance[_msgSender] */\n      0x00\n        /* \"staking.sol\":5945:5955  _msgSender */\n      dup4\n        /* \"staking.sol\":5934:5956  vipBalance[_msgSender] */\n      0xffffffffffffffffffffffffffffffffffffffff\n      and\n      0xffffffffffffffffffffffffffffffffffffffff\n      and\n      dup2\n      mstore\n      0x20\n      add\n      swap1\n      dup2\n      mstore\n      0x20\n      add\n      0x00\n      keccak256\n        /* \"staking.sol\":5934:6146  vipBalance[_msgSender] = _user ({... */\n      0x00\n      dup3\n      add\n      mload\n      dup2\n      0x00\n      add\n      sstore\n      0x20\n      dup3\n      add\n      mload\n      dup2\n      0x01\n      add\n      sstore\n      0x40\n      dup3\n      add\n      mload\n      dup2\n      0x02\n      add\n      sstore\n      swap1\n      pop\n      pop\n        /* \"staking.sol\":6169:6245  deposit (_msgSender, 2, _amount, block.timestamp, block.timestamp + 90 days) */\n      0x17849bb8c713de96b48f218d3bacc9af082261c3ccc7c6dccebe70e667b22f23\n        /* \"staking.sol\":6178:6188  _msgSender */\n      dup2\n        /* \"staking.sol\":6190:6191  2 */\n      0x02\n        /* \"staking.sol\":6193:6200  _amount */\n      dup5\n        /* \"staking.sol\":6202:6217  block.timestamp */\n      timestamp\n        /* \"staking.sol\":6237:6244  90 days */\n      0x76a700\n        /* \"staking.sol\":6219:6234  block.timestamp */\n      timestamp\n        /* \"staking.sol\":6219:6244  block.timestamp + 90 days */\n      tag_322\n      swap2\n      swap1\n      tag_180\n      jump\t// in\n    tag_322:\n        /* \"staking.sol\":6169:6245  deposit (_msgSender, 2, _amount, block.timestamp, block.timestamp + 90 days) */\n      mload(0x40)\n      tag_323\n      swap6\n      swap5\n      swap4\n      swap3\n      swap2\n      swap1\n      tag_324\n      jump\t// in\n    tag_323:\n      mload(0x40)\n      dup1\n      swap2\n      sub\n      swap1\n      log1\n        /* \"staking.sol\":5561:6252  {... */\n      pop\n        /* \"staking.sol\":5504:6252  function enterVip (uint256 _amount) public whenNotPaused {... */\n      pop\n      jump\t// out\n        /* \"staking.sol\":1522:1567  uint256 public level1Max = 500000000 * 10**18 */\n    tag_138:\n      sload(0x08)\n      dup2\n      jump\t// out\n        /* \"staking.sol\":2846:3054  function setNewAPY ( uint256 _level0APY, uint256 _level1APY, uint256 _vipLevelAPY) external onlyOwner{... */\n    tag_143:\n        /* \"@openzeppelin/contracts/access/Ownable.sol\":1259:1271  _msgSender() */\n      tag_326\n        /* \"@openzeppelin/contracts/access/Ownable.sol\":1259:1269  _msgSender */\n      tag_186\n        /* \"@openzeppelin/contracts/access/Ownable.sol\":1259:1271  _msgSender() */\n      jump\t// in\n    tag_326:\n        /* \"@openzeppelin/contracts/access/Ownable.sol\":1248:1271  owner() == _msgSender() */\n      0xffffffffffffffffffffffffffffffffffffffff\n      and\n        /* \"@openzeppelin/contracts/access/Ownable.sol\":1248:1255  owner() */\n      tag_327\n        /* \"@openzeppelin/contracts/access/Ownable.sol\":1248:1253  owner */\n      tag_115\n        /* \"@openzeppelin/contracts/access/Ownable.sol\":1248:1255  owner() */\n      jump\t// in\n    tag_327:\n        /* \"@openzeppelin/contracts/access/Ownable.sol\":1248:1271  owner() == _msgSender() */\n      0xffffffffffffffffffffffffffffffffffffffff\n      and\n      eq\n        /* \"@openzeppelin/contracts/access/Ownable.sol\":1240:1308  require(owner() == _msgSender(), \"Ownable: caller is not the owner\") */\n      tag_328\n      jumpi\n      mload(0x40)\n      0x08c379a000000000000000000000000000000000000000000000000000000000\n      dup2\n      mstore\n      0x04\n      add\n      tag_329\n      swap1\n      tag_190\n      jump\t// in\n    tag_329:\n      mload(0x40)\n      dup1\n      swap2\n      sub\n      swap1\n      revert\n    tag_328:\n        /* \"staking.sol\":2969:2979  _level0APY */\n      dup3\n        /* \"staking.sol\":2957:2966  level0APY */\n      0x02\n        /* \"staking.sol\":2957:2979  level0APY = _level0APY */\n      dup2\n      swap1\n      sstore\n      pop\n        /* \"staking.sol\":3001:3011  _level1APY */\n      dup2\n        /* \"staking.sol\":2989:2998  level1APY */\n      0x03\n        /* \"staking.sol\":2989:3011  level1APY = _level1APY */\n      dup2\n      swap1\n      sstore\n      pop\n        /* \"staking.sol\":3035:3047  _vipLevelAPY */\n      dup1\n        /* \"staking.sol\":3021:3032  vipLevelAPY */\n      0x04\n        /* \"staking.sol\":3021:3047  vipLevelAPY = _vipLevelAPY */\n      dup2\n      swap1\n      sstore\n      pop\n        /* \"staking.sol\":2846:3054  function setNewAPY ( uint256 _level0APY, uint256 _level1APY, uint256 _vipLevelAPY) external onlyOwner{... */\n      pop\n      pop\n      pop\n      jump\t// out\n        /* \"@openzeppelin/contracts/access/Ownable.sol\":1918:2116  function transferOwnership(address newOwner) public virtual onlyOwner {... */\n    tag_146:\n        /* \"@openzeppelin/contracts/access/Ownable.sol\":1259:1271  _msgSender() */\n      tag_332\n        /* \"@openzeppelin/contracts/access/Ownable.sol\":1259:1269  _msgSender */\n      tag_186\n        /* \"@openzeppelin/contracts/access/Ownable.sol\":1259:1271  _msgSender() */\n      jump\t// in\n    tag_332:\n        /* \"@openzeppelin/contracts/access/Ownable.sol\":1248:1271  owner() == _msgSender() */\n      0xffffffffffffffffffffffffffffffffffffffff\n      and\n        /* \"@openzeppelin/contracts/access/Ownable.sol\":1248:1255  owner() */\n      tag_333\n        /* \"@openzeppelin/contracts/access/Ownable.sol\":1248:1253  owner */\n      tag_115\n        /* \"@openzeppelin/contracts/access/Ownable.sol\":1248:1255  owner() */\n      jump\t// in\n    tag_333:\n        /* \"@openzeppelin/contracts/access/Ownable.sol\":1248:1271  owner() == _msgSender() */\n      0xffffffffffffffffffffffffffffffffffffffff\n      and\n      eq\n        /* \"@openzeppelin/contracts/access/Ownable.sol\":1240:1308  require(owner() == _msgSender(), \"Ownable: caller is not the owner\") */\n      tag_334\n      jumpi\n      mload(0x40)\n      0x08c379a000000000000000000000000000000000000000000000000000000000\n      dup2\n      mstore\n      0x04\n      add\n      tag_335\n      swap1\n      tag_190\n      jump\t// in\n    tag_335:\n      mload(0x40)\n      dup1\n      swap2\n      sub\n      swap1\n      revert\n    tag_334:\n        /* \"@openzeppelin/contracts/access/Ownable.sol\":2026:2027  0 */\n      0x00\n        /* \"@openzeppelin/contracts/access/Ownable.sol\":2006:2028  newOwner != address(0) */\n      0xffffffffffffffffffffffffffffffffffffffff\n      and\n        /* \"@openzeppelin/contracts/access/Ownable.sol\":2006:2014  newOwner */\n      dup2\n        /* \"@openzeppelin/contracts/access/Ownable.sol\":2006:2028  newOwner != address(0) */\n      0xffffffffffffffffffffffffffffffffffffffff\n      and\n      eq\n      iszero\n        /* \"@openzeppelin/contracts/access/Ownable.sol\":1998:2071  require(newOwner != address(0), \"Ownable: new owner is the zero address\") */\n      tag_337\n      jumpi\n      mload(0x40)\n      0x08c379a000000000000000000000000000000000000000000000000000000000\n      dup2\n      mstore\n      0x04\n      add\n      tag_338\n      swap1\n      tag_339\n      jump\t// in\n    tag_338:\n      mload(0x40)\n      dup1\n      swap2\n      sub\n      swap1\n      revert\n    tag_337:\n        /* \"@openzeppelin/contracts/access/Ownable.sol\":2081:2109  _transferOwnership(newOwner) */\n      tag_340\n        /* \"@openzeppelin/contracts/access/Ownable.sol\":2100:2108  newOwner */\n      dup2\n        /* \"@openzeppelin/contracts/access/Ownable.sol\":2081:2099  _transferOwnership */\n      tag_243\n        /* \"@openzeppelin/contracts/access/Ownable.sol\":2081:2109  _transferOwnership(newOwner) */\n      jump\t// in\n    tag_340:\n        /* \"@openzeppelin/contracts/access/Ownable.sol\":1918:2116  function transferOwnership(address newOwner) public virtual onlyOwner {... */\n      pop\n      jump\t// out\n        /* \"staking.sol\":3136:3508  function setNewMaxMin (uint256 _level0Min, uint256 _level0Max, uint256 _level1Min, uint256 _level1Max, uint256 _levelVipMin, uint256 _levelVipMax) external onlyOwner{... */\n    tag_150:\n        /* \"@openzeppelin/contracts/access/Ownable.sol\":1259:1271  _msgSender() */\n      tag_342\n        /* \"@openzeppelin/contracts/access/Ownable.sol\":1259:1269  _msgSender */\n      tag_186\n        /* \"@openzeppelin/contracts/access/Ownable.sol\":1259:1271  _msgSender() */\n      jump\t// in\n    tag_342:\n        /* \"@openzeppelin/contracts/access/Ownable.sol\":1248:1271  owner() == _msgSender() */\n      0xffffffffffffffffffffffffffffffffffffffff\n      and\n        /* \"@openzeppelin/contracts/access/Ownable.sol\":1248:1255  owner() */\n      tag_343\n        /* \"@openzeppelin/contracts/access/Ownable.sol\":1248:1253  owner */\n      tag_115\n        /* \"@openzeppelin/contracts/access/Ownable.sol\":1248:1255  owner() */\n      jump\t// in\n    tag_343:\n        /* \"@openzeppelin/contracts/access/Ownable.sol\":1248:1271  owner() == _msgSender() */\n      0xffffffffffffffffffffffffffffffffffffffff\n      and\n      eq\n        /* \"@openzeppelin/contracts/access/Ownable.sol\":1240:1308  require(owner() == _msgSender(), \"Ownable: caller is not the owner\") */\n      tag_344\n      jumpi\n      mload(0x40)\n      0x08c379a000000000000000000000000000000000000000000000000000000000\n      dup2\n      mstore\n      0x04\n      add\n      tag_345\n      swap1\n      tag_190\n      jump\t// in\n    tag_345:\n      mload(0x40)\n      dup1\n      swap2\n      sub\n      swap1\n      revert\n    tag_344:\n        /* \"staking.sol\":3323:3333  _level0Min */\n      dup6\n        /* \"staking.sol\":3311:3320  level0Min */\n      0x05\n        /* \"staking.sol\":3311:3333  level0Min = _level0Min */\n      dup2\n      swap1\n      sstore\n      pop\n        /* \"staking.sol\":3355:3365  _level0Max */\n      dup5\n        /* \"staking.sol\":3343:3352  level0Max */\n      0x06\n        /* \"staking.sol\":3343:3365  level0Max = _level0Max */\n      dup2\n      swap1\n      sstore\n      pop\n        /* \"staking.sol\":3387:3397  _level1Min */\n      dup4\n        /* \"staking.sol\":3375:3384  level1Min */\n      0x07\n        /* \"staking.sol\":3375:3397  level1Min = _level1Min */\n      dup2\n      swap1\n      sstore\n      pop\n        /* \"staking.sol\":3419:3429  _level1Max */\n      dup3\n        /* \"staking.sol\":3407:3416  level1Max */\n      0x08\n        /* \"staking.sol\":3407:3429  level1Max = _level1Max */\n      dup2\n      swap1\n      sstore\n      pop\n        /* \"staking.sol\":3453:3465  _levelVipMin */\n      dup2\n        /* \"staking.sol\":3439:3450  levelVipMin */\n      0x09\n        /* \"staking.sol\":3439:3465  levelVipMin = _levelVipMin */\n      dup2\n      swap1\n      sstore\n      pop\n        /* \"staking.sol\":3489:3501  _levelVipMax */\n      dup1\n        /* \"staking.sol\":3475:3486  levelVipMax */\n      0x0a\n        /* \"staking.sol\":3475:3501  levelVipMax = _levelVipMax */\n      dup2\n      swap1\n      sstore\n      pop\n        /* \"staking.sol\":3136:3508  function setNewMaxMin (uint256 _level0Min, uint256 _level0Max, uint256 _level1Min, uint256 _level1Max, uint256 _levelVipMin, uint256 _levelVipMax) external onlyOwner{... */\n      pop\n      pop\n      pop\n      pop\n      pop\n      pop\n      jump\t// out\n        /* \"staking.sol\":6397:6896  function isOnTime (address user, uint8 class) public view returns (bool) {... */\n    tag_154:\n        /* \"staking.sol\":6464:6468  bool */\n      0x00\n        /* \"staking.sol\":6480:6499  uint256 releaseTime */\n      dup1\n        /* \"staking.sol\":6521:6522  0 */\n      0x00\n        /* \"staking.sol\":6512:6517  class */\n      dup4\n        /* \"staking.sol\":6512:6522  class == 0 */\n      0xff\n      and\n      eq\n        /* \"staking.sol\":6509:6843  if(class == 0){... */\n      iszero\n      tag_348\n      jumpi\n        /* \"staking.sol\":6551:6564  level0Balance */\n      0x0c\n        /* \"staking.sol\":6551:6570  level0Balance[user] */\n      0x00\n        /* \"staking.sol\":6565:6569  user */\n      dup6\n        /* \"staking.sol\":6551:6570  level0Balance[user] */\n      0xffffffffffffffffffffffffffffffffffffffff\n      and\n      0xffffffffffffffffffffffffffffffffffffffff\n      and\n      dup2\n      mstore\n      0x20\n      add\n      swap1\n      dup2\n      mstore\n      0x20\n      add\n      0x00\n      keccak256\n        /* \"staking.sol\":6551:6581  level0Balance[user].timeFinish */\n      0x02\n      add\n      sload\n        /* \"staking.sol\":6537:6581  releaseTime = level0Balance[user].timeFinish */\n      swap1\n      pop\n        /* \"staking.sol\":6509:6843  if(class == 0){... */\n      jump(tag_349)\n    tag_348:\n        /* \"staking.sol\":6622:6623  1 */\n      0x01\n        /* \"staking.sol\":6613:6618  class */\n      dup4\n        /* \"staking.sol\":6613:6623  class == 1 */\n      0xff\n      and\n      eq\n        /* \"staking.sol\":6609:6843  if (class == 1){... */\n      iszero\n      tag_350\n      jumpi\n        /* \"staking.sol\":6652:6665  level1Balance */\n      0x0e\n        /* \"staking.sol\":6652:6671  level1Balance[user] */\n      0x00\n        /* \"staking.sol\":6666:6670  user */\n      dup6\n        /* \"staking.sol\":6652:6671  level1Balance[user] */\n      0xffffffffffffffffffffffffffffffffffffffff\n      and\n      0xffffffffffffffffffffffffffffffffffffffff\n      and\n      dup2\n      mstore\n      0x20\n      add\n      swap1\n      dup2\n      mstore\n      0x20\n      add\n      0x00\n      keccak256\n        /* \"staking.sol\":6652:6682  level1Balance[user].timeFinish */\n      0x02\n      add\n      sload\n        /* \"staking.sol\":6638:6682  releaseTime = level1Balance[user].timeFinish */\n      swap1\n      pop\n        /* \"staking.sol\":6609:6843  if (class == 1){... */\n      jump(tag_351)\n    tag_350:\n        /* \"staking.sol\":6721:6722  2 */\n      0x02\n        /* \"staking.sol\":6712:6717  class */\n      dup4\n        /* \"staking.sol\":6712:6722  class == 2 */\n      0xff\n      and\n      eq\n        /* \"staking.sol\":6708:6843  if (class == 2){... */\n      iszero\n      tag_352\n      jumpi\n        /* \"staking.sol\":6751:6761  vipBalance */\n      0x10\n        /* \"staking.sol\":6751:6767  vipBalance[user] */\n      0x00\n        /* \"staking.sol\":6762:6766  user */\n      dup6\n        /* \"staking.sol\":6751:6767  vipBalance[user] */\n      0xffffffffffffffffffffffffffffffffffffffff\n      and\n      0xffffffffffffffffffffffffffffffffffffffff\n      and\n      dup2\n      mstore\n      0x20\n      add\n      swap1\n      dup2\n      mstore\n      0x20\n      add\n      0x00\n      keccak256\n        /* \"staking.sol\":6751:6778  vipBalance[user].timeFinish */\n      0x02\n      add\n      sload\n        /* \"staking.sol\":6737:6778  releaseTime = vipBalance[user].timeFinish */\n      swap1\n      pop\n        /* \"staking.sol\":6708:6843  if (class == 2){... */\n      jump(tag_353)\n    tag_352:\n        /* \"staking.sol\":6827:6832  false */\n      0x00\n        /* \"staking.sol\":6820:6832  return false */\n      swap2\n      pop\n      pop\n      jump(tag_347)\n        /* \"staking.sol\":6708:6843  if (class == 2){... */\n    tag_353:\n        /* \"staking.sol\":6609:6843  if (class == 1){... */\n    tag_351:\n        /* \"staking.sol\":6509:6843  if(class == 0){... */\n    tag_349:\n        /* \"staking.sol\":6878:6889  releaseTime */\n      dup1\n        /* \"staking.sol\":6859:6874  block.timestamp */\n      timestamp\n        /* \"staking.sol\":6859:6889  block.timestamp >= releaseTime */\n      lt\n      iszero\n        /* \"staking.sol\":6852:6889  return block.timestamp >= releaseTime */\n      swap2\n      pop\n      pop\n        /* \"staking.sol\":6397:6896  function isOnTime (address user, uint8 class) public view returns (bool) {... */\n    tag_347:\n      swap3\n      swap2\n      pop\n      pop\n      jump\t// out\n        /* \"staking.sol\":3657:4407  function enterLevel0 (uint256 _amount) public whenNotPaused {... */\n    tag_158:\n        /* \"@openzeppelin/contracts/security/Pausable.sol\":1412:1420  paused() */\n      tag_355\n        /* \"@openzeppelin/contracts/security/Pausable.sol\":1412:1418  paused */\n      tag_68\n        /* \"@openzeppelin/contracts/security/Pausable.sol\":1412:1420  paused() */\n      jump\t// in\n    tag_355:\n        /* \"@openzeppelin/contracts/security/Pausable.sol\":1411:1420  !paused() */\n      iszero\n        /* \"@openzeppelin/contracts/security/Pausable.sol\":1403:1441  require(!paused(), \"Pausable: paused\") */\n      tag_356\n      jumpi\n      mload(0x40)\n      0x08c379a000000000000000000000000000000000000000000000000000000000\n      dup2\n      mstore\n      0x04\n      add\n      tag_357\n      swap1\n      tag_163\n      jump\t// in\n    tag_357:\n      mload(0x40)\n      dup1\n      swap2\n      sub\n      swap1\n      revert\n    tag_356:\n        /* \"staking.sol\":3746:3755  level0Max */\n      sload(0x06)\n        /* \"staking.sol\":3735:3742  _amount */\n      dup2\n        /* \"staking.sol\":3735:3755  _amount <= level0Max */\n      gt\n      iszero\n        /* \"staking.sol\":3735:3779  _amount <= level0Max && _amount >= level0Min */\n      dup1\n      iszero\n      tag_359\n      jumpi\n      pop\n        /* \"staking.sol\":3770:3779  level0Min */\n      sload(0x05)\n        /* \"staking.sol\":3759:3766  _amount */\n      dup2\n        /* \"staking.sol\":3759:3779  _amount >= level0Min */\n      lt\n      iszero\n        /* \"staking.sol\":3735:3779  _amount <= level0Max && _amount >= level0Min */\n    tag_359:\n        /* \"staking.sol\":3727:3834  require(_amount <= level0Max && _amount >= level0Min, \"Amount needs to be more than min and less than max\") */\n      tag_360\n      jumpi\n      mload(0x40)\n      0x08c379a000000000000000000000000000000000000000000000000000000000\n      dup2\n      mstore\n      0x04\n      add\n      tag_361\n      swap1\n      tag_168\n      jump\t// in\n    tag_361:\n      mload(0x40)\n      dup1\n      swap2\n      sub\n      swap1\n      revert\n    tag_360:\n        /* \"staking.sol\":3844:3862  address _msgSender */\n      0x00\n        /* \"staking.sol\":3865:3875  msg.sender */\n      caller\n        /* \"staking.sol\":3844:3875  address _msgSender = msg.sender */\n      swap1\n      pop\n        /* \"staking.sol\":3899:3907  isLevel0 */\n      0x0b\n        /* \"staking.sol\":3899:3919  isLevel0[_msgSender] */\n      0x00\n        /* \"staking.sol\":3908:3918  _msgSender */\n      dup3\n        /* \"staking.sol\":3899:3919  isLevel0[_msgSender] */\n      0xffffffffffffffffffffffffffffffffffffffff\n      and\n      0xffffffffffffffffffffffffffffffffffffffff\n      and\n      dup2\n      mstore\n      0x20\n      add\n      swap1\n      dup2\n      mstore\n      0x20\n      add\n      0x00\n      keccak256\n      0x00\n      swap1\n      sload\n      swap1\n      0x0100\n      exp\n      swap1\n      div\n      0xff\n      and\n        /* \"staking.sol\":3898:3919  !isLevel0[_msgSender] */\n      iszero\n        /* \"staking.sol\":3890:3958  require(!isLevel0[_msgSender], \"You're already in this Stake level\") */\n      tag_362\n      jumpi\n      mload(0x40)\n      0x08c379a000000000000000000000000000000000000000000000000000000000\n      dup2\n      mstore\n      0x04\n      add\n      tag_363\n      swap1\n      tag_171\n      jump\t// in\n    tag_363:\n      mload(0x40)\n      dup1\n      swap2\n      sub\n      swap1\n      revert\n    tag_362:\n        /* \"staking.sol\":3973:3986  acceptedToken */\n      0x01\n      0x00\n      swap1\n      sload\n      swap1\n      0x0100\n      exp\n      swap1\n      div\n      0xffffffffffffffffffffffffffffffffffffffff\n      and\n        /* \"staking.sol\":3973:3999  acceptedToken.transferFrom */\n      0xffffffffffffffffffffffffffffffffffffffff\n      and\n      0x23b872dd\n        /* \"staking.sol\":4000:4010  _msgSender */\n      dup3\n        /* \"staking.sol\":4020:4024  this */\n      address\n        /* \"staking.sol\":4027:4034  _amount */\n      dup6\n        /* \"staking.sol\":3973:4035  acceptedToken.transferFrom(_msgSender, address(this), _amount) */\n      mload(0x40)\n      dup5\n      0xffffffff\n      and\n      0xe0\n      shl\n      dup2\n      mstore\n      0x04\n      add\n      tag_364\n      swap4\n      swap3\n      swap2\n      swap1\n      tag_173\n      jump\t// in\n    tag_364:\n      0x20\n      mload(0x40)\n      dup1\n      dup4\n      sub\n      dup2\n      0x00\n      dup8\n      dup1\n      extcodesize\n      iszero\n      dup1\n      iszero\n      tag_365\n      jumpi\n      0x00\n      dup1\n      revert\n    tag_365:\n      pop\n      gas\n      call\n      iszero\n      dup1\n      iszero\n      tag_367\n      jumpi\n      returndatasize\n      0x00\n      dup1\n      returndatacopy\n      revert(0x00, returndatasize)\n    tag_367:\n      pop\n      pop\n      pop\n      pop\n      mload(0x40)\n      returndatasize\n      not(0x1f)\n      0x1f\n      dup3\n      add\n      and\n      dup3\n      add\n      dup1\n      0x40\n      mstore\n      pop\n      dup2\n      add\n      swap1\n      tag_368\n      swap2\n      swap1\n      tag_178\n      jump\t// in\n    tag_368:\n      pop\n        /* \"staking.sol\":4069:4073  true */\n      0x01\n        /* \"staking.sol\":4046:4054  isLevel0 */\n      0x0b\n        /* \"staking.sol\":4046:4066  isLevel0[_msgSender] */\n      0x00\n        /* \"staking.sol\":4055:4065  _msgSender */\n      dup4\n        /* \"staking.sol\":4046:4066  isLevel0[_msgSender] */\n      0xffffffffffffffffffffffffffffffffffffffff\n      and\n      0xffffffffffffffffffffffffffffffffffffffff\n      and\n      dup2\n      mstore\n      0x20\n      add\n      swap1\n      dup2\n      mstore\n      0x20\n      add\n      0x00\n      keccak256\n      0x00\n        /* \"staking.sol\":4046:4073  isLevel0[_msgSender] = true */\n      0x0100\n      exp\n      dup2\n      sload\n      dup2\n      0xff\n      mul\n      not\n      and\n      swap1\n      dup4\n      iszero\n      iszero\n      mul\n      or\n      swap1\n      sstore\n      pop\n        /* \"staking.sol\":4111:4300  _user ({... */\n      mload(0x40)\n      dup1\n      0x60\n      add\n      0x40\n      mstore\n      dup1\n        /* \"staking.sol\":4141:4148  _amount */\n      dup4\n        /* \"staking.sol\":4111:4300  _user ({... */\n      dup2\n      mstore\n      0x20\n      add\n        /* \"staking.sol\":4175:4190  block.timestamp */\n      timestamp\n        /* \"staking.sol\":4111:4300  _user ({... */\n      dup2\n      mstore\n      0x20\n      add\n        /* \"staking.sol\":4286:4289  600 */\n      0x0258\n        /* \"staking.sol\":4268:4283  block.timestamp */\n      timestamp\n        /* \"staking.sol\":4268:4289  block.timestamp + 600 */\n      tag_369\n      swap2\n      swap1\n      tag_180\n      jump\t// in\n    tag_369:\n        /* \"staking.sol\":4111:4300  _user ({... */\n      dup2\n      mstore\n      pop\n        /* \"staking.sol\":4083:4096  level0Balance */\n      0x0c\n        /* \"staking.sol\":4083:4108  level0Balance[_msgSender] */\n      0x00\n        /* \"staking.sol\":4097:4107  _msgSender */\n      dup4\n        /* \"staking.sol\":4083:4108  level0Balance[_msgSender] */\n      0xffffffffffffffffffffffffffffffffffffffff\n      and\n      0xffffffffffffffffffffffffffffffffffffffff\n      and\n      dup2\n      mstore\n      0x20\n      add\n      swap1\n      dup2\n      mstore\n      0x20\n      add\n      0x00\n      keccak256\n        /* \"staking.sol\":4083:4300  level0Balance[_msgSender] = _user ({... */\n      0x00\n      dup3\n      add\n      mload\n      dup2\n      0x00\n      add\n      sstore\n      0x20\n      dup3\n      add\n      mload\n      dup2\n      0x01\n      add\n      sstore\n      0x40\n      dup3\n      add\n      mload\n      dup2\n      0x02\n      add\n      sstore\n      swap1\n      pop\n      pop\n        /* \"staking.sol\":4325:4400  deposit (_msgSender, 0, _amount, block.timestamp, block.timestamp + 7 days) */\n      0x17849bb8c713de96b48f218d3bacc9af082261c3ccc7c6dccebe70e667b22f23\n        /* \"staking.sol\":4334:4344  _msgSender */\n      dup2\n        /* \"staking.sol\":4346:4347  0 */\n      0x00\n        /* \"staking.sol\":4349:4356  _amount */\n      dup5\n        /* \"staking.sol\":4358:4373  block.timestamp */\n      timestamp\n        /* \"staking.sol\":4393:4399  7 days */\n      0x093a80\n        /* \"staking.sol\":4375:4390  block.timestamp */\n      timestamp\n        /* \"staking.sol\":4375:4399  block.timestamp + 7 days */\n      tag_370\n      swap2\n      swap1\n      tag_180\n      jump\t// in\n    tag_370:\n        /* \"staking.sol\":4325:4400  deposit (_msgSender, 0, _amount, block.timestamp, block.timestamp + 7 days) */\n      mload(0x40)\n      tag_371\n      swap6\n      swap5\n      swap4\n      swap3\n      swap2\n      swap1\n      tag_372\n      jump\t// in\n    tag_371:\n      mload(0x40)\n      dup1\n      swap2\n      sub\n      swap1\n      log1\n        /* \"staking.sol\":3717:4407  {... */\n      pop\n        /* \"staking.sol\":3657:4407  function enterLevel0 (uint256 _amount) public whenNotPaused {... */\n      pop\n      jump\t// out\n        /* \"@openzeppelin/contracts/utils/Context.sol\":640:736  function _msgSender() internal view virtual returns (address) {... */\n    tag_186:\n        /* \"@openzeppelin/contracts/utils/Context.sol\":693:700  address */\n      0x00\n        /* \"@openzeppelin/contracts/utils/Context.sol\":719:729  msg.sender */\n      caller\n        /* \"@openzeppelin/contracts/utils/Context.sol\":712:729  return msg.sender */\n      swap1\n      pop\n        /* \"@openzeppelin/contracts/utils/Context.sol\":640:736  function _msgSender() internal view virtual returns (address) {... */\n      swap1\n      jump\t// out\n        /* \"@openzeppelin/contracts/security/Pausable.sol\":2110:2227  function _unpause() internal virtual whenPaused {... */\n    tag_193:\n        /* \"@openzeppelin/contracts/security/Pausable.sol\":1677:1685  paused() */\n      tag_375\n        /* \"@openzeppelin/contracts/security/Pausable.sol\":1677:1683  paused */\n      tag_68\n        /* \"@openzeppelin/contracts/security/Pausable.sol\":1677:1685  paused() */\n      jump\t// in\n    tag_375:\n        /* \"@openzeppelin/contracts/security/Pausable.sol\":1669:1710  require(paused(), \"Pausable: not paused\") */\n      tag_376\n      jumpi\n      mload(0x40)\n      0x08c379a000000000000000000000000000000000000000000000000000000000\n      dup2\n      mstore\n      0x04\n      add\n      tag_377\n      swap1\n      tag_378\n      jump\t// in\n    tag_377:\n      mload(0x40)\n      dup1\n      swap2\n      sub\n      swap1\n      revert\n    tag_376:\n        /* \"@openzeppelin/contracts/security/Pausable.sol\":2178:2183  false */\n      0x00\n        /* \"@openzeppelin/contracts/security/Pausable.sol\":2168:2175  _paused */\n      dup1\n      0x14\n        /* \"@openzeppelin/contracts/security/Pausable.sol\":2168:2183  _paused = false */\n      0x0100\n      exp\n      dup2\n      sload\n      dup2\n      0xff\n      mul\n      not\n      and\n      swap1\n      dup4\n      iszero\n      iszero\n      mul\n      or\n      swap1\n      sstore\n      pop\n        /* \"@openzeppelin/contracts/security/Pausable.sol\":2198:2220  Unpaused(_msgSender()) */\n      0x5db9ee0a495bf2e6ff9c91a7834c1ba4fdd244a5e8aa4e537bd38aeae4b073aa\n        /* \"@openzeppelin/contracts/security/Pausable.sol\":2207:2219  _msgSender() */\n      tag_380\n        /* \"@openzeppelin/contracts/security/Pausable.sol\":2207:2217  _msgSender */\n      tag_186\n        /* \"@openzeppelin/contracts/security/Pausable.sol\":2207:2219  _msgSender() */\n      jump\t// in\n    tag_380:\n        /* \"@openzeppelin/contracts/security/Pausable.sol\":2198:2220  Unpaused(_msgSender()) */\n      mload(0x40)\n      tag_381\n      swap2\n      swap1\n      tag_117\n      jump\t// in\n    tag_381:\n      mload(0x40)\n      dup1\n      swap2\n      sub\n      swap1\n      log1\n        /* \"@openzeppelin/contracts/security/Pausable.sol\":2110:2227  function _unpause() internal virtual whenPaused {... */\n      jump\t// out\n        /* \"staking.sol\":11431:12026  function swapTokensForEth(uint256 tokenAmount, address recipient) private {... */\n    tag_216:\n        /* \"staking.sol\":11574:11595  address[] memory path */\n      0x00\n        /* \"staking.sol\":11612:11613  2 */\n      0x02\n        /* \"staking.sol\":11598:11614  new address[](2) */\n      0xffffffffffffffff\n      dup2\n      gt\n      iszero\n      tag_383\n      jumpi\n      tag_384\n      tag_385\n      jump\t// in\n    tag_384:\n    tag_383:\n      mload(0x40)\n      swap1\n      dup1\n      dup3\n      mstore\n      dup1\n      0x20\n      mul\n      0x20\n      add\n      dup3\n      add\n      0x40\n      mstore\n      dup1\n      iszero\n      tag_386\n      jumpi\n      dup2\n      0x20\n      add\n      0x20\n      dup3\n      mul\n      dup1\n      calldatasize\n      dup4\n      calldatacopy\n      dup1\n      dup3\n      add\n      swap2\n      pop\n      pop\n      swap1\n      pop\n    tag_386:\n      pop\n        /* \"staking.sol\":11574:11614  address[] memory path = new address[](2) */\n      swap1\n      pop\n        /* \"staking.sol\":11642:11655  acceptedToken */\n      0x01\n      0x00\n      swap1\n      sload\n      swap1\n      0x0100\n      exp\n      swap1\n      div\n      0xffffffffffffffffffffffffffffffffffffffff\n      and\n        /* \"staking.sol\":11624:11628  path */\n      dup2\n        /* \"staking.sol\":11629:11630  0 */\n      0x00\n        /* \"staking.sol\":11624:11631  path[0] */\n      dup2\n      mload\n      dup2\n      lt\n      tag_387\n      jumpi\n      tag_388\n      tag_389\n      jump\t// in\n    tag_388:\n    tag_387:\n      0x20\n      mul\n      0x20\n      add\n      add\n        /* \"staking.sol\":11624:11656  path[0] = address(acceptedToken) */\n      swap1\n      0xffffffffffffffffffffffffffffffffffffffff\n      and\n      swap1\n      dup2\n      0xffffffffffffffffffffffffffffffffffffffff\n      and\n      dup2\n      mstore\n      pop\n      pop\n        /* \"staking.sol\":11676:11691  uniswapV2Router */\n      immutable(\"0xccd68672d6f769e1076a41a883b1b79cd2ffe42afc01c80e02e0f47639ea513e\")\n        /* \"staking.sol\":11676:11696  uniswapV2Router.WETH */\n      0xffffffffffffffffffffffffffffffffffffffff\n      and\n      0xad5c4648\n        /* \"staking.sol\":11676:11698  uniswapV2Router.WETH() */\n      mload(0x40)\n      dup2\n      0xffffffff\n      and\n      0xe0\n      shl\n      dup2\n      mstore\n      0x04\n      add\n      0x20\n      mload(0x40)\n      dup1\n      dup4\n      sub\n      dup2\n      dup7\n      dup1\n      extcodesize\n      iszero\n      dup1\n      iszero\n      tag_390\n      jumpi\n      0x00\n      dup1\n      revert\n    tag_390:\n      pop\n      gas\n      staticcall\n      iszero\n      dup1\n      iszero\n      tag_392\n      jumpi\n      returndatasize\n      0x00\n      dup1\n      returndatacopy\n      revert(0x00, returndatasize)\n    tag_392:\n      pop\n      pop\n      pop\n      pop\n      mload(0x40)\n      returndatasize\n      not(0x1f)\n      0x1f\n      dup3\n      add\n      and\n      dup3\n      add\n      dup1\n      0x40\n      mstore\n      pop\n      dup2\n      add\n      swap1\n      tag_393\n      swap2\n      swap1\n      tag_394\n      jump\t// in\n    tag_393:\n        /* \"staking.sol\":11666:11670  path */\n      dup2\n        /* \"staking.sol\":11671:11672  1 */\n      0x01\n        /* \"staking.sol\":11666:11673  path[1] */\n      dup2\n      mload\n      dup2\n      lt\n      tag_395\n      jumpi\n      tag_396\n      tag_389\n      jump\t// in\n    tag_396:\n    tag_395:\n      0x20\n      mul\n      0x20\n      add\n      add\n        /* \"staking.sol\":11666:11698  path[1] = uniswapV2Router.WETH() */\n      swap1\n      0xffffffffffffffffffffffffffffffffffffffff\n      and\n      swap1\n      dup2\n      0xffffffffffffffffffffffffffffffffffffffff\n      and\n      dup2\n      mstore\n      pop\n      pop\n        /* \"staking.sol\":11709:11722  acceptedToken */\n      0x01\n      0x00\n      swap1\n      sload\n      swap1\n      0x0100\n      exp\n      swap1\n      div\n      0xffffffffffffffffffffffffffffffffffffffff\n      and\n        /* \"staking.sol\":11709:11730  acceptedToken.approve */\n      0xffffffffffffffffffffffffffffffffffffffff\n      and\n      0x095ea7b3\n        /* \"staking.sol\":11739:11754  uniswapV2Router */\n      immutable(\"0xccd68672d6f769e1076a41a883b1b79cd2ffe42afc01c80e02e0f47639ea513e\")\n        /* \"staking.sol\":11757:11768  tokenAmount */\n      dup6\n        /* \"staking.sol\":11709:11769  acceptedToken.approve(address(uniswapV2Router), tokenAmount) */\n      mload(0x40)\n      dup4\n      0xffffffff\n      and\n      0xe0\n      shl\n      dup2\n      mstore\n      0x04\n      add\n      tag_397\n      swap3\n      swap2\n      swap1\n      tag_210\n      jump\t// in\n    tag_397:\n      0x20\n      mload(0x40)\n      dup1\n      dup4\n      sub\n      dup2\n      0x00\n      dup8\n      dup1\n      extcodesize\n      iszero\n      dup1\n      iszero\n      tag_398\n      jumpi\n      0x00\n      dup1\n      revert\n    tag_398:\n      pop\n      gas\n      call\n      iszero\n      dup1\n      iszero\n      tag_400\n      jumpi\n      returndatasize\n      0x00\n      dup1\n      returndatacopy\n      revert(0x00, returndatasize)\n    tag_400:\n      pop\n      pop\n      pop\n      pop\n      mload(0x40)\n      returndatasize\n      not(0x1f)\n      0x1f\n      dup3\n      add\n      and\n      dup3\n      add\n      dup1\n      0x40\n      mstore\n      pop\n      dup2\n      add\n      swap1\n      tag_401\n      swap2\n      swap1\n      tag_178\n      jump\t// in\n    tag_401:\n      pop\n        /* \"staking.sol\":11805:11820  uniswapV2Router */\n      immutable(\"0xccd68672d6f769e1076a41a883b1b79cd2ffe42afc01c80e02e0f47639ea513e\")\n        /* \"staking.sol\":11805:11871  uniswapV2Router.swapExactTokensForETHSupportingFeeOnTransferTokens */\n      0xffffffffffffffffffffffffffffffffffffffff\n      and\n      0x791ac947\n        /* \"staking.sol\":11885:11896  tokenAmount */\n      dup5\n        /* \"staking.sol\":11910:11911  0 */\n      0x00\n        /* \"staking.sol\":11953:11957  path */\n      dup5\n        /* \"staking.sol\":11971:11980  recipient */\n      dup7\n        /* \"staking.sol\":11994:12009  block.timestamp */\n      timestamp\n        /* \"staking.sol\":11805:12019  uniswapV2Router.swapExactTokensForETHSupportingFeeOnTransferTokens(... */\n      mload(0x40)\n      dup7\n      0xffffffff\n      and\n      0xe0\n      shl\n      dup2\n      mstore\n      0x04\n      add\n      tag_402\n      swap6\n      swap5\n      swap4\n      swap3\n      swap2\n      swap1\n      tag_403\n      jump\t// in\n    tag_402:\n      0x00\n      mload(0x40)\n      dup1\n      dup4\n      sub\n      dup2\n      0x00\n      dup8\n      dup1\n      extcodesize\n      iszero\n      dup1\n      iszero\n      tag_404\n      jumpi\n      0x00\n      dup1\n      revert\n    tag_404:\n      pop\n      gas\n      call\n      iszero\n      dup1\n      iszero\n      tag_406\n      jumpi\n      returndatasize\n      0x00\n      dup1\n      returndatacopy\n      revert(0x00, returndatasize)\n    tag_406:\n      pop\n      pop\n      pop\n      pop\n        /* \"staking.sol\":11505:12026  {... */\n      pop\n        /* \"staking.sol\":11431:12026  function swapTokensForEth(uint256 tokenAmount, address recipient) private {... */\n      pop\n      pop\n      jump\t// out\n        /* \"staking.sol\":7723:8087  function calculateInterest (uint256 _balance, uint256 _timeStarted, uint256 _APY) internal view returns (uint256){... */\n    tag_228:\n        /* \"staking.sol\":7828:7835  uint256 */\n      0x00\n        /* \"staking.sol\":7846:7864  uint256 timeStaked */\n      dup1\n        /* \"staking.sol\":7885:7897  _timeStarted */\n      dup4\n        /* \"staking.sol\":7867:7882  block.timestamp */\n      timestamp\n        /* \"staking.sol\":7867:7897  block.timestamp - _timeStarted */\n      tag_408\n      swap2\n      swap1\n      tag_207\n      jump\t// in\n    tag_408:\n        /* \"staking.sol\":7846:7897  uint256 timeStaked = block.timestamp - _timeStarted */\n      swap1\n      pop\n        /* \"staking.sol\":7915:7940  uint256 interestPerSecond */\n      0x00\n        /* \"staking.sol\":7973:7981  365 days */\n      0x01e13380\n        /* \"staking.sol\":7964:7969  10000 */\n      0x2710\n        /* \"staking.sol\":7956:7960  _APY */\n      dup6\n        /* \"staking.sol\":7945:7953  _balance */\n      dup9\n        /* \"staking.sol\":7945:7960  _balance * _APY */\n      tag_409\n      swap2\n      swap1\n      tag_410\n      jump\t// in\n    tag_409:\n        /* \"staking.sol\":7944:7969  (_balance * _APY) / 10000 */\n      tag_411\n      swap2\n      swap1\n      tag_412\n      jump\t// in\n    tag_411:\n        /* \"staking.sol\":7943:7981  ((_balance * _APY) / 10000) / 365 days */\n      tag_413\n      swap2\n      swap1\n      tag_412\n      jump\t// in\n    tag_413:\n        /* \"staking.sol\":7915:7981  uint256 interestPerSecond = ((_balance * _APY) / 10000) / 365 days */\n      swap1\n      pop\n        /* \"staking.sol\":7991:8014  uint256 interestsEarned */\n      0x00\n        /* \"staking.sol\":8030:8047  interestPerSecond */\n      dup2\n        /* \"staking.sol\":8017:8027  timeStaked */\n      dup4\n        /* \"staking.sol\":8017:8047  timeStaked * interestPerSecond */\n      tag_414\n      swap2\n      swap1\n      tag_410\n      jump\t// in\n    tag_414:\n        /* \"staking.sol\":7991:8047  uint256 interestsEarned = timeStaked * interestPerSecond */\n      swap1\n      pop\n        /* \"staking.sol\":8065:8080  interestsEarned */\n      dup1\n        /* \"staking.sol\":8058:8080  return interestsEarned */\n      swap4\n      pop\n      pop\n      pop\n      pop\n        /* \"staking.sol\":7723:8087  function calculateInterest (uint256 _balance, uint256 _timeStarted, uint256 _APY) internal view returns (uint256){... */\n      swap4\n      swap3\n      pop\n      pop\n      pop\n      jump\t// out\n        /* \"@openzeppelin/contracts/access/Ownable.sol\":2270:2457  function _transferOwnership(address newOwner) internal virtual {... */\n    tag_243:\n        /* \"@openzeppelin/contracts/access/Ownable.sol\":2343:2359  address oldOwner */\n      0x00\n        /* \"@openzeppelin/contracts/access/Ownable.sol\":2362:2368  _owner */\n      dup1\n      0x00\n      swap1\n      sload\n      swap1\n      0x0100\n      exp\n      swap1\n      div\n      0xffffffffffffffffffffffffffffffffffffffff\n      and\n        /* \"@openzeppelin/contracts/access/Ownable.sol\":2343:2368  address oldOwner = _owner */\n      swap1\n      pop\n        /* \"@openzeppelin/contracts/access/Ownable.sol\":2387:2395  newOwner */\n      dup2\n        /* \"@openzeppelin/contracts/access/Ownable.sol\":2378:2384  _owner */\n      0x00\n      dup1\n        /* \"@openzeppelin/contracts/access/Ownable.sol\":2378:2395  _owner = newOwner */\n      0x0100\n      exp\n      dup2\n      sload\n      dup2\n      0xffffffffffffffffffffffffffffffffffffffff\n      mul\n      not\n      and\n      swap1\n      dup4\n      0xffffffffffffffffffffffffffffffffffffffff\n      and\n      mul\n      or\n      swap1\n      sstore\n      pop\n        /* \"@openzeppelin/contracts/access/Ownable.sol\":2441:2449  newOwner */\n      dup2\n        /* \"@openzeppelin/contracts/access/Ownable.sol\":2410:2450  OwnershipTransferred(oldOwner, newOwner) */\n      0xffffffffffffffffffffffffffffffffffffffff\n      and\n        /* \"@openzeppelin/contracts/access/Ownable.sol\":2431:2439  oldOwner */\n      dup2\n        /* \"@openzeppelin/contracts/access/Ownable.sol\":2410:2450  OwnershipTransferred(oldOwner, newOwner) */\n      0xffffffffffffffffffffffffffffffffffffffff\n      and\n      0x8be0079c531659141344cd1fd0a4f28419497f9722a3daafe3b4186f6b6457e0\n      mload(0x40)\n      mload(0x40)\n      dup1\n      swap2\n      sub\n      swap1\n      log3\n        /* \"@openzeppelin/contracts/access/Ownable.sol\":2333:2457  {... */\n      pop\n        /* \"@openzeppelin/contracts/access/Ownable.sol\":2270:2457  function _transferOwnership(address newOwner) internal virtual {... */\n      pop\n      jump\t// out\n        /* \"@openzeppelin/contracts/security/Pausable.sol\":1863:1978  function _pause() internal virtual whenNotPaused {... */\n    tag_251:\n        /* \"@openzeppelin/contracts/security/Pausable.sol\":1412:1420  paused() */\n      tag_417\n        /* \"@openzeppelin/contracts/security/Pausable.sol\":1412:1418  paused */\n      tag_68\n        /* \"@openzeppelin/contracts/security/Pausable.sol\":1412:1420  paused() */\n      jump\t// in\n    tag_417:\n        /* \"@openzeppelin/contracts/security/Pausable.sol\":1411:1420  !paused() */\n      iszero\n        /* \"@openzeppelin/contracts/security/Pausable.sol\":1403:1441  require(!paused(), \"Pausable: paused\") */\n      tag_418\n      jumpi\n      mload(0x40)\n      0x08c379a000000000000000000000000000000000000000000000000000000000\n      dup2\n      mstore\n      0x04\n      add\n      tag_419\n      swap1\n      tag_163\n      jump\t// in\n    tag_419:\n      mload(0x40)\n      dup1\n      swap2\n      sub\n      swap1\n      revert\n    tag_418:\n        /* \"@openzeppelin/contracts/security/Pausable.sol\":1932:1936  true */\n      0x01\n        /* \"@openzeppelin/contracts/security/Pausable.sol\":1922:1929  _paused */\n      0x00\n      0x14\n        /* \"@openzeppelin/contracts/security/Pausable.sol\":1922:1936  _paused = true */\n      0x0100\n      exp\n      dup2\n      sload\n      dup2\n      0xff\n      mul\n      not\n      and\n      swap1\n      dup4\n      iszero\n      iszero\n      mul\n      or\n      swap1\n      sstore\n      pop\n        /* \"@openzeppelin/contracts/security/Pausable.sol\":1951:1971  Paused(_msgSender()) */\n      0x62e78cea01bee320cd4e420270b5ea74000d11b0c9f74754ebdbfc544b05a258\n        /* \"@openzeppelin/contracts/security/Pausable.sol\":1958:1970  _msgSender() */\n      tag_421\n        /* \"@openzeppelin/contracts/security/Pausable.sol\":1958:1968  _msgSender */\n      tag_186\n        /* \"@openzeppelin/contracts/security/Pausable.sol\":1958:1970  _msgSender() */\n      jump\t// in\n    tag_421:\n        /* \"@openzeppelin/contracts/security/Pausable.sol\":1951:1971  Paused(_msgSender()) */\n      mload(0x40)\n      tag_422\n      swap2\n      swap1\n      tag_117\n      jump\t// in\n    tag_422:\n      mload(0x40)\n      dup1\n      swap2\n      sub\n      swap1\n      log1\n        /* \"@openzeppelin/contracts/security/Pausable.sol\":1863:1978  function _pause() internal virtual whenNotPaused {... */\n      jump\t// out\n        /* \"#utility.yul\":7:146   */\n    tag_424:\n        /* \"#utility.yul\":53:58   */\n      0x00\n        /* \"#utility.yul\":91:97   */\n      dup2\n        /* \"#utility.yul\":78:98   */\n      calldataload\n        /* \"#utility.yul\":69:98   */\n      swap1\n      pop\n        /* \"#utility.yul\":107:140   */\n      tag_426\n        /* \"#utility.yul\":134:139   */\n      dup2\n        /* \"#utility.yul\":107:140   */\n      tag_427\n      jump\t// in\n    tag_426:\n        /* \"#utility.yul\":7:146   */\n      swap3\n      swap2\n      pop\n      pop\n      jump\t// out\n        /* \"#utility.yul\":152:295   */\n    tag_428:\n        /* \"#utility.yul\":209:214   */\n      0x00\n        /* \"#utility.yul\":240:246   */\n      dup2\n        /* \"#utility.yul\":234:247   */\n      mload\n        /* \"#utility.yul\":225:247   */\n      swap1\n      pop\n        /* \"#utility.yul\":256:289   */\n      tag_430\n        /* \"#utility.yul\":283:288   */\n      dup2\n        /* \"#utility.yul\":256:289   */\n      tag_427\n      jump\t// in\n    tag_430:\n        /* \"#utility.yul\":152:295   */\n      swap3\n      swap2\n      pop\n      pop\n      jump\t// out\n        /* \"#utility.yul\":301:438   */\n    tag_431:\n        /* \"#utility.yul\":355:360   */\n      0x00\n        /* \"#utility.yul\":386:392   */\n      dup2\n        /* \"#utility.yul\":380:393   */\n      mload\n        /* \"#utility.yul\":371:393   */\n      swap1\n      pop\n        /* \"#utility.yul\":402:432   */\n      tag_433\n        /* \"#utility.yul\":426:431   */\n      dup2\n        /* \"#utility.yul\":402:432   */\n      tag_434\n      jump\t// in\n    tag_433:\n        /* \"#utility.yul\":301:438   */\n      swap3\n      swap2\n      pop\n      pop\n      jump\t// out\n        /* \"#utility.yul\":444:583   */\n    tag_435:\n        /* \"#utility.yul\":490:495   */\n      0x00\n        /* \"#utility.yul\":528:534   */\n      dup2\n        /* \"#utility.yul\":515:535   */\n      calldataload\n        /* \"#utility.yul\":506:535   */\n      swap1\n      pop\n        /* \"#utility.yul\":544:577   */\n      tag_437\n        /* \"#utility.yul\":571:576   */\n      dup2\n        /* \"#utility.yul\":544:577   */\n      tag_438\n      jump\t// in\n    tag_437:\n        /* \"#utility.yul\":444:583   */\n      swap3\n      swap2\n      pop\n      pop\n      jump\t// out\n        /* \"#utility.yul\":589:724   */\n    tag_439:\n        /* \"#utility.yul\":633:638   */\n      0x00\n        /* \"#utility.yul\":671:677   */\n      dup2\n        /* \"#utility.yul\":658:678   */\n      calldataload\n        /* \"#utility.yul\":649:678   */\n      swap1\n      pop\n        /* \"#utility.yul\":687:718   */\n      tag_441\n        /* \"#utility.yul\":712:717   */\n      dup2\n        /* \"#utility.yul\":687:718   */\n      tag_442\n      jump\t// in\n    tag_441:\n        /* \"#utility.yul\":589:724   */\n      swap3\n      swap2\n      pop\n      pop\n      jump\t// out\n        /* \"#utility.yul\":730:1059   */\n    tag_73:\n        /* \"#utility.yul\":789:795   */\n      0x00\n        /* \"#utility.yul\":838:840   */\n      0x20\n        /* \"#utility.yul\":826:835   */\n      dup3\n        /* \"#utility.yul\":817:824   */\n      dup5\n        /* \"#utility.yul\":813:836   */\n      sub\n        /* \"#utility.yul\":809:841   */\n      slt\n        /* \"#utility.yul\":806:925   */\n      iszero\n      tag_444\n      jumpi\n        /* \"#utility.yul\":844:923   */\n      tag_445\n      tag_446\n      jump\t// in\n    tag_445:\n        /* \"#utility.yul\":806:925   */\n    tag_444:\n        /* \"#utility.yul\":964:965   */\n      0x00\n        /* \"#utility.yul\":989:1042   */\n      tag_447\n        /* \"#utility.yul\":1034:1041   */\n      dup5\n        /* \"#utility.yul\":1025:1031   */\n      dup3\n        /* \"#utility.yul\":1014:1023   */\n      dup6\n        /* \"#utility.yul\":1010:1032   */\n      add\n        /* \"#utility.yul\":989:1042   */\n      tag_424\n      jump\t// in\n    tag_447:\n        /* \"#utility.yul\":979:1042   */\n      swap2\n      pop\n        /* \"#utility.yul\":935:1052   */\n      pop\n        /* \"#utility.yul\":730:1059   */\n      swap3\n      swap2\n      pop\n      pop\n      jump\t// out\n        /* \"#utility.yul\":1065:1416   */\n    tag_394:\n        /* \"#utility.yul\":1135:1141   */\n      0x00\n        /* \"#utility.yul\":1184:1186   */\n      0x20\n        /* \"#utility.yul\":1172:1181   */\n      dup3\n        /* \"#utility.yul\":1163:1170   */\n      dup5\n        /* \"#utility.yul\":1159:1182   */\n      sub\n        /* \"#utility.yul\":1155:1187   */\n      slt\n        /* \"#utility.yul\":1152:1271   */\n      iszero\n      tag_449\n      jumpi\n        /* \"#utility.yul\":1190:1269   */\n      tag_450\n      tag_446\n      jump\t// in\n    tag_450:\n        /* \"#utility.yul\":1152:1271   */\n    tag_449:\n        /* \"#utility.yul\":1310:1311   */\n      0x00\n        /* \"#utility.yul\":1335:1399   */\n      tag_451\n        /* \"#utility.yul\":1391:1398   */\n      dup5\n        /* \"#utility.yul\":1382:1388   */\n      dup3\n        /* \"#utility.yul\":1371:1380   */\n      dup6\n        /* \"#utility.yul\":1367:1389   */\n      add\n        /* \"#utility.yul\":1335:1399   */\n      tag_428\n      jump\t// in\n    tag_451:\n        /* \"#utility.yul\":1325:1399   */\n      swap2\n      pop\n        /* \"#utility.yul\":1281:1409   */\n      pop\n        /* \"#utility.yul\":1065:1416   */\n      swap3\n      swap2\n      pop\n      pop\n      jump\t// out\n        /* \"#utility.yul\":1422:1892   */\n    tag_153:\n        /* \"#utility.yul\":1488:1494   */\n      0x00\n        /* \"#utility.yul\":1496:1502   */\n      dup1\n        /* \"#utility.yul\":1545:1547   */\n      0x40\n        /* \"#utility.yul\":1533:1542   */\n      dup4\n        /* \"#utility.yul\":1524:1531   */\n      dup6\n        /* \"#utility.yul\":1520:1543   */\n      sub\n        /* \"#utility.yul\":1516:1548   */\n      slt\n        /* \"#utility.yul\":1513:1632   */\n      iszero\n      tag_453\n      jumpi\n        /* \"#utility.yul\":1551:1630   */\n      tag_454\n      tag_446\n      jump\t// in\n    tag_454:\n        /* \"#utility.yul\":1513:1632   */\n    tag_453:\n        /* \"#utility.yul\":1671:1672   */\n      0x00\n        /* \"#utility.yul\":1696:1749   */\n      tag_455\n        /* \"#utility.yul\":1741:1748   */\n      dup6\n        /* \"#utility.yul\":1732:1738   */\n      dup3\n        /* \"#utility.yul\":1721:1730   */\n      dup7\n        /* \"#utility.yul\":1717:1739   */\n      add\n        /* \"#utility.yul\":1696:1749   */\n      tag_424\n      jump\t// in\n    tag_455:\n        /* \"#utility.yul\":1686:1749   */\n      swap3\n      pop\n        /* \"#utility.yul\":1642:1759   */\n      pop\n        /* \"#utility.yul\":1798:1800   */\n      0x20\n        /* \"#utility.yul\":1824:1875   */\n      tag_456\n        /* \"#utility.yul\":1867:1874   */\n      dup6\n        /* \"#utility.yul\":1858:1864   */\n      dup3\n        /* \"#utility.yul\":1847:1856   */\n      dup7\n        /* \"#utility.yul\":1843:1865   */\n      add\n        /* \"#utility.yul\":1824:1875   */\n      tag_439\n      jump\t// in\n    tag_456:\n        /* \"#utility.yul\":1814:1875   */\n      swap2\n      pop\n        /* \"#utility.yul\":1769:1885   */\n      pop\n        /* \"#utility.yul\":1422:1892   */\n      swap3\n      pop\n      swap3\n      swap1\n      pop\n      jump\t// out\n        /* \"#utility.yul\":1898:2513   */\n    tag_93:\n        /* \"#utility.yul\":1973:1979   */\n      0x00\n        /* \"#utility.yul\":1981:1987   */\n      dup1\n        /* \"#utility.yul\":1989:1995   */\n      0x00\n        /* \"#utility.yul\":2038:2040   */\n      0x60\n        /* \"#utility.yul\":2026:2035   */\n      dup5\n        /* \"#utility.yul\":2017:2024   */\n      dup7\n        /* \"#utility.yul\":2013:2036   */\n      sub\n        /* \"#utility.yul\":2009:2041   */\n      slt\n        /* \"#utility.yul\":2006:2125   */\n      iszero\n      tag_458\n      jumpi\n        /* \"#utility.yul\":2044:2123   */\n      tag_459\n      tag_446\n      jump\t// in\n    tag_459:\n        /* \"#utility.yul\":2006:2125   */\n    tag_458:\n        /* \"#utility.yul\":2164:2165   */\n      0x00\n        /* \"#utility.yul\":2189:2242   */\n      tag_460\n        /* \"#utility.yul\":2234:2241   */\n      dup7\n        /* \"#utility.yul\":2225:2231   */\n      dup3\n        /* \"#utility.yul\":2214:2223   */\n      dup8\n        /* \"#utility.yul\":2210:2232   */\n      add\n        /* \"#utility.yul\":2189:2242   */\n      tag_424\n      jump\t// in\n    tag_460:\n        /* \"#utility.yul\":2179:2242   */\n      swap4\n      pop\n        /* \"#utility.yul\":2135:2252   */\n      pop\n        /* \"#utility.yul\":2291:2293   */\n      0x20\n        /* \"#utility.yul\":2317:2368   */\n      tag_461\n        /* \"#utility.yul\":2360:2367   */\n      dup7\n        /* \"#utility.yul\":2351:2357   */\n      dup3\n        /* \"#utility.yul\":2340:2349   */\n      dup8\n        /* \"#utility.yul\":2336:2358   */\n      add\n        /* \"#utility.yul\":2317:2368   */\n      tag_439\n      jump\t// in\n    tag_461:\n        /* \"#utility.yul\":2307:2368   */\n      swap3\n      pop\n        /* \"#utility.yul\":2262:2378   */\n      pop\n        /* \"#utility.yul\":2417:2419   */\n      0x40\n        /* \"#utility.yul\":2443:2496   */\n      tag_462\n        /* \"#utility.yul\":2488:2495   */\n      dup7\n        /* \"#utility.yul\":2479:2485   */\n      dup3\n        /* \"#utility.yul\":2468:2477   */\n      dup8\n        /* \"#utility.yul\":2464:2486   */\n      add\n        /* \"#utility.yul\":2443:2496   */\n      tag_435\n      jump\t// in\n    tag_462:\n        /* \"#utility.yul\":2433:2496   */\n      swap2\n      pop\n        /* \"#utility.yul\":2388:2506   */\n      pop\n        /* \"#utility.yul\":1898:2513   */\n      swap3\n      pop\n      swap3\n      pop\n      swap3\n      jump\t// out\n        /* \"#utility.yul\":2519:2864   */\n    tag_178:\n        /* \"#utility.yul\":2586:2592   */\n      0x00\n        /* \"#utility.yul\":2635:2637   */\n      0x20\n        /* \"#utility.yul\":2623:2632   */\n      dup3\n        /* \"#utility.yul\":2614:2621   */\n      dup5\n        /* \"#utility.yul\":2610:2633   */\n      sub\n        /* \"#utility.yul\":2606:2638   */\n      slt\n        /* \"#utility.yul\":2603:2722   */\n      iszero\n      tag_464\n      jumpi\n        /* \"#utility.yul\":2641:2720   */\n      tag_465\n      tag_446\n      jump\t// in\n    tag_465:\n        /* \"#utility.yul\":2603:2722   */\n    tag_464:\n        /* \"#utility.yul\":2761:2762   */\n      0x00\n        /* \"#utility.yul\":2786:2847   */\n      tag_466\n        /* \"#utility.yul\":2839:2846   */\n      dup5\n        /* \"#utility.yul\":2830:2836   */\n      dup3\n        /* \"#utility.yul\":2819:2828   */\n      dup6\n        /* \"#utility.yul\":2815:2837   */\n      add\n        /* \"#utility.yul\":2786:2847   */\n      tag_431\n      jump\t// in\n    tag_466:\n        /* \"#utility.yul\":2776:2847   */\n      swap2\n      pop\n        /* \"#utility.yul\":2732:2857   */\n      pop\n        /* \"#utility.yul\":2519:2864   */\n      swap3\n      swap2\n      pop\n      pop\n      jump\t// out\n        /* \"#utility.yul\":2870:3199   */\n    tag_53:\n        /* \"#utility.yul\":2929:2935   */\n      0x00\n        /* \"#utility.yul\":2978:2980   */\n      0x20\n        /* \"#utility.yul\":2966:2975   */\n      dup3\n        /* \"#utility.yul\":2957:2964   */\n      dup5\n        /* \"#utility.yul\":2953:2976   */\n      sub\n        /* \"#utility.yul\":2949:2981   */\n      slt\n        /* \"#utility.yul\":2946:3065   */\n      iszero\n      tag_468\n      jumpi\n        /* \"#utility.yul\":2984:3063   */\n      tag_469\n      tag_446\n      jump\t// in\n    tag_469:\n        /* \"#utility.yul\":2946:3065   */\n    tag_468:\n        /* \"#utility.yul\":3104:3105   */\n      0x00\n        /* \"#utility.yul\":3129:3182   */\n      tag_470\n        /* \"#utility.yul\":3174:3181   */\n      dup5\n        /* \"#utility.yul\":3165:3171   */\n      dup3\n        /* \"#utility.yul\":3154:3163   */\n      dup6\n        /* \"#utility.yul\":3150:3172   */\n      add\n        /* \"#utility.yul\":3129:3182   */\n      tag_435\n      jump\t// in\n    tag_470:\n        /* \"#utility.yul\":3119:3182   */\n      swap2\n      pop\n        /* \"#utility.yul\":3075:3192   */\n      pop\n        /* \"#utility.yul\":2870:3199   */\n      swap3\n      swap2\n      pop\n      pop\n      jump\t// out\n        /* \"#utility.yul\":3205:3824   */\n    tag_142:\n        /* \"#utility.yul\":3282:3288   */\n      0x00\n        /* \"#utility.yul\":3290:3296   */\n      dup1\n        /* \"#utility.yul\":3298:3304   */\n      0x00\n        /* \"#utility.yul\":3347:3349   */\n      0x60\n        /* \"#utility.yul\":3335:3344   */\n      dup5\n        /* \"#utility.yul\":3326:3333   */\n      dup7\n        /* \"#utility.yul\":3322:3345   */\n      sub\n        /* \"#utility.yul\":3318:3350   */\n      slt\n        /* \"#utility.yul\":3315:3434   */\n      iszero\n      tag_472\n      jumpi\n        /* \"#utility.yul\":3353:3432   */\n      tag_473\n      tag_446\n      jump\t// in\n    tag_473:\n        /* \"#utility.yul\":3315:3434   */\n    tag_472:\n        /* \"#utility.yul\":3473:3474   */\n      0x00\n        /* \"#utility.yul\":3498:3551   */\n      tag_474\n        /* \"#utility.yul\":3543:3550   */\n      dup7\n        /* \"#utility.yul\":3534:3540   */\n      dup3\n        /* \"#utility.yul\":3523:3532   */\n      dup8\n        /* \"#utility.yul\":3519:3541   */\n      add\n        /* \"#utility.yul\":3498:3551   */\n      tag_435\n      jump\t// in\n    tag_474:\n        /* \"#utility.yul\":3488:3551   */\n      swap4\n      pop\n        /* \"#utility.yul\":3444:3561   */\n      pop\n        /* \"#utility.yul\":3600:3602   */\n      0x20\n        /* \"#utility.yul\":3626:3679   */\n      tag_475\n        /* \"#utility.yul\":3671:3678   */\n      dup7\n        /* \"#utility.yul\":3662:3668   */\n      dup3\n        /* \"#utility.yul\":3651:3660   */\n      dup8\n        /* \"#utility.yul\":3647:3669   */\n      add\n        /* \"#utility.yul\":3626:3679   */\n      tag_435\n      jump\t// in\n    tag_475:\n        /* \"#utility.yul\":3616:3679   */\n      swap3\n      pop\n        /* \"#utility.yul\":3571:3689   */\n      pop\n        /* \"#utility.yul\":3728:3730   */\n      0x40\n        /* \"#utility.yul\":3754:3807   */\n      tag_476\n        /* \"#utility.yul\":3799:3806   */\n      dup7\n        /* \"#utility.yul\":3790:3796   */\n      dup3\n        /* \"#utility.yul\":3779:3788   */\n      dup8\n        /* \"#utility.yul\":3775:3797   */\n      add\n        /* \"#utility.yul\":3754:3807   */\n      tag_435\n      jump\t// in\n    tag_476:\n        /* \"#utility.yul\":3744:3807   */\n      swap2\n      pop\n        /* \"#utility.yul\":3699:3817   */\n      pop\n        /* \"#utility.yul\":3205:3824   */\n      swap3\n      pop\n      swap3\n      pop\n      swap3\n      jump\t// out\n        /* \"#utility.yul\":3830:4887   */\n    tag_149:\n        /* \"#utility.yul\":3934:3940   */\n      0x00\n        /* \"#utility.yul\":3942:3948   */\n      dup1\n        /* \"#utility.yul\":3950:3956   */\n      0x00\n        /* \"#utility.yul\":3958:3964   */\n      dup1\n        /* \"#utility.yul\":3966:3972   */\n      0x00\n        /* \"#utility.yul\":3974:3980   */\n      dup1\n        /* \"#utility.yul\":4023:4026   */\n      0xc0\n        /* \"#utility.yul\":4011:4020   */\n      dup8\n        /* \"#utility.yul\":4002:4009   */\n      dup10\n        /* \"#utility.yul\":3998:4021   */\n      sub\n        /* \"#utility.yul\":3994:4027   */\n      slt\n        /* \"#utility.yul\":3991:4111   */\n      iszero\n      tag_478\n      jumpi\n        /* \"#utility.yul\":4030:4109   */\n      tag_479\n      tag_446\n      jump\t// in\n    tag_479:\n        /* \"#utility.yul\":3991:4111   */\n    tag_478:\n        /* \"#utility.yul\":4150:4151   */\n      0x00\n        /* \"#utility.yul\":4175:4228   */\n      tag_480\n        /* \"#utility.yul\":4220:4227   */\n      dup10\n        /* \"#utility.yul\":4211:4217   */\n      dup3\n        /* \"#utility.yul\":4200:4209   */\n      dup11\n        /* \"#utility.yul\":4196:4218   */\n      add\n        /* \"#utility.yul\":4175:4228   */\n      tag_435\n      jump\t// in\n    tag_480:\n        /* \"#utility.yul\":4165:4228   */\n      swap7\n      pop\n        /* \"#utility.yul\":4121:4238   */\n      pop\n        /* \"#utility.yul\":4277:4279   */\n      0x20\n        /* \"#utility.yul\":4303:4356   */\n      tag_481\n        /* \"#utility.yul\":4348:4355   */\n      dup10\n        /* \"#utility.yul\":4339:4345   */\n      dup3\n        /* \"#utility.yul\":4328:4337   */\n      dup11\n        /* \"#utility.yul\":4324:4346   */\n      add\n        /* \"#utility.yul\":4303:4356   */\n      tag_435\n      jump\t// in\n    tag_481:\n        /* \"#utility.yul\":4293:4356   */\n      swap6\n      pop\n        /* \"#utility.yul\":4248:4366   */\n      pop\n        /* \"#utility.yul\":4405:4407   */\n      0x40\n        /* \"#utility.yul\":4431:4484   */\n      tag_482\n        /* \"#utility.yul\":4476:4483   */\n      dup10\n        /* \"#utility.yul\":4467:4473   */\n      dup3\n        /* \"#utility.yul\":4456:4465   */\n      dup11\n        /* \"#utility.yul\":4452:4474   */\n      add\n        /* \"#utility.yul\":4431:4484   */\n      tag_435\n      jump\t// in\n    tag_482:\n        /* \"#utility.yul\":4421:4484   */\n      swap5\n      pop\n        /* \"#utility.yul\":4376:4494   */\n      pop\n        /* \"#utility.yul\":4533:4535   */\n      0x60\n        /* \"#utility.yul\":4559:4612   */\n      tag_483\n        /* \"#utility.yul\":4604:4611   */\n      dup10\n        /* \"#utility.yul\":4595:4601   */\n      dup3\n        /* \"#utility.yul\":4584:4593   */\n      dup11\n        /* \"#utility.yul\":4580:4602   */\n      add\n        /* \"#utility.yul\":4559:4612   */\n      tag_435\n      jump\t// in\n    tag_483:\n        /* \"#utility.yul\":4549:4612   */\n      swap4\n      pop\n        /* \"#utility.yul\":4504:4622   */\n      pop\n        /* \"#utility.yul\":4661:4664   */\n      0x80\n        /* \"#utility.yul\":4688:4741   */\n      tag_484\n        /* \"#utility.yul\":4733:4740   */\n      dup10\n        /* \"#utility.yul\":4724:4730   */\n      dup3\n        /* \"#utility.yul\":4713:4722   */\n      dup11\n        /* \"#utility.yul\":4709:4731   */\n      add\n        /* \"#utility.yul\":4688:4741   */\n      tag_435\n      jump\t// in\n    tag_484:\n        /* \"#utility.yul\":4678:4741   */\n      swap3\n      pop\n        /* \"#utility.yul\":4632:4751   */\n      pop\n        /* \"#utility.yul\":4790:4793   */\n      0xa0\n        /* \"#utility.yul\":4817:4870   */\n      tag_485\n        /* \"#utility.yul\":4862:4869   */\n      dup10\n        /* \"#utility.yul\":4853:4859   */\n      dup3\n        /* \"#utility.yul\":4842:4851   */\n      dup11\n        /* \"#utility.yul\":4838:4860   */\n      add\n        /* \"#utility.yul\":4817:4870   */\n      tag_435\n      jump\t// in\n    tag_485:\n        /* \"#utility.yul\":4807:4870   */\n      swap2\n      pop\n        /* \"#utility.yul\":4761:4880   */\n      pop\n        /* \"#utility.yul\":3830:4887   */\n      swap3\n      swap6\n      pop\n      swap3\n      swap6\n      pop\n      swap3\n      swap6\n      jump\t// out\n        /* \"#utility.yul\":4893:5072   */\n    tag_486:\n        /* \"#utility.yul\":4962:4972   */\n      0x00\n        /* \"#utility.yul\":4983:5029   */\n      tag_488\n        /* \"#utility.yul\":5025:5028   */\n      dup4\n        /* \"#utility.yul\":5017:5023   */\n      dup4\n        /* \"#utility.yul\":4983:5029   */\n      tag_489\n      jump\t// in\n    tag_488:\n        /* \"#utility.yul\":5061:5065   */\n      0x20\n        /* \"#utility.yul\":5056:5059   */\n      dup4\n        /* \"#utility.yul\":5052:5066   */\n      add\n        /* \"#utility.yul\":5038:5066   */\n      swap1\n      pop\n        /* \"#utility.yul\":4893:5072   */\n      swap3\n      swap2\n      pop\n      pop\n      jump\t// out\n        /* \"#utility.yul\":5078:5186   */\n    tag_489:\n        /* \"#utility.yul\":5155:5179   */\n      tag_491\n        /* \"#utility.yul\":5173:5178   */\n      dup2\n        /* \"#utility.yul\":5155:5179   */\n      tag_492\n      jump\t// in\n    tag_491:\n        /* \"#utility.yul\":5150:5153   */\n      dup3\n        /* \"#utility.yul\":5143:5180   */\n      mstore\n        /* \"#utility.yul\":5078:5186   */\n      pop\n      pop\n      jump\t// out\n        /* \"#utility.yul\":5192:5310   */\n    tag_493:\n        /* \"#utility.yul\":5279:5303   */\n      tag_495\n        /* \"#utility.yul\":5297:5302   */\n      dup2\n        /* \"#utility.yul\":5279:5303   */\n      tag_492\n      jump\t// in\n    tag_495:\n        /* \"#utility.yul\":5274:5277   */\n      dup3\n        /* \"#utility.yul\":5267:5304   */\n      mstore\n        /* \"#utility.yul\":5192:5310   */\n      pop\n      pop\n      jump\t// out\n        /* \"#utility.yul\":5346:6078   */\n    tag_496:\n        /* \"#utility.yul\":5465:5468   */\n      0x00\n        /* \"#utility.yul\":5494:5548   */\n      tag_498\n        /* \"#utility.yul\":5542:5547   */\n      dup3\n        /* \"#utility.yul\":5494:5548   */\n      tag_499\n      jump\t// in\n    tag_498:\n        /* \"#utility.yul\":5564:5650   */\n      tag_500\n        /* \"#utility.yul\":5643:5649   */\n      dup2\n        /* \"#utility.yul\":5638:5641   */\n      dup6\n        /* \"#utility.yul\":5564:5650   */\n      tag_501\n      jump\t// in\n    tag_500:\n        /* \"#utility.yul\":5557:5650   */\n      swap4\n      pop\n        /* \"#utility.yul\":5674:5730   */\n      tag_502\n        /* \"#utility.yul\":5724:5729   */\n      dup4\n        /* \"#utility.yul\":5674:5730   */\n      tag_503\n      jump\t// in\n    tag_502:\n        /* \"#utility.yul\":5753:5760   */\n      dup1\n        /* \"#utility.yul\":5784:5785   */\n      0x00\n        /* \"#utility.yul\":5769:6053   */\n    tag_504:\n        /* \"#utility.yul\":5794:5800   */\n      dup4\n        /* \"#utility.yul\":5791:5792   */\n      dup2\n        /* \"#utility.yul\":5788:5801   */\n      lt\n        /* \"#utility.yul\":5769:6053   */\n      iszero\n      tag_506\n      jumpi\n        /* \"#utility.yul\":5870:5876   */\n      dup2\n        /* \"#utility.yul\":5864:5877   */\n      mload\n        /* \"#utility.yul\":5897:5960   */\n      tag_507\n        /* \"#utility.yul\":5956:5959   */\n      dup9\n        /* \"#utility.yul\":5941:5954   */\n      dup3\n        /* \"#utility.yul\":5897:5960   */\n      tag_486\n      jump\t// in\n    tag_507:\n        /* \"#utility.yul\":5890:5960   */\n      swap8\n      pop\n        /* \"#utility.yul\":5983:6043   */\n      tag_508\n        /* \"#utility.yul\":6036:6042   */\n      dup4\n        /* \"#utility.yul\":5983:6043   */\n      tag_509\n      jump\t// in\n    tag_508:\n        /* \"#utility.yul\":5973:6043   */\n      swap3\n      pop\n        /* \"#utility.yul\":5829:6053   */\n      pop\n        /* \"#utility.yul\":5816:5817   */\n      0x01\n        /* \"#utility.yul\":5813:5814   */\n      dup2\n        /* \"#utility.yul\":5809:5818   */\n      add\n        /* \"#utility.yul\":5804:5818   */\n      swap1\n      pop\n        /* \"#utility.yul\":5769:6053   */\n      jump(tag_504)\n    tag_506:\n        /* \"#utility.yul\":5773:5787   */\n      pop\n        /* \"#utility.yul\":6069:6072   */\n      dup6\n        /* \"#utility.yul\":6062:6072   */\n      swap4\n      pop\n        /* \"#utility.yul\":5470:6078   */\n      pop\n      pop\n      pop\n        /* \"#utility.yul\":5346:6078   */\n      swap3\n      swap2\n      pop\n      pop\n      jump\t// out\n        /* \"#utility.yul\":6084:6193   */\n    tag_510:\n        /* \"#utility.yul\":6165:6186   */\n      tag_512\n        /* \"#utility.yul\":6180:6185   */\n      dup2\n        /* \"#utility.yul\":6165:6186   */\n      tag_513\n      jump\t// in\n    tag_512:\n        /* \"#utility.yul\":6160:6163   */\n      dup3\n        /* \"#utility.yul\":6153:6187   */\n      mstore\n        /* \"#utility.yul\":6084:6193   */\n      pop\n      pop\n      jump\t// out\n        /* \"#utility.yul\":6199:6366   */\n    tag_514:\n        /* \"#utility.yul\":6304:6359   */\n      tag_516\n        /* \"#utility.yul\":6353:6358   */\n      dup2\n        /* \"#utility.yul\":6304:6359   */\n      tag_517\n      jump\t// in\n    tag_516:\n        /* \"#utility.yul\":6299:6302   */\n      dup3\n        /* \"#utility.yul\":6292:6360   */\n      mstore\n        /* \"#utility.yul\":6199:6366   */\n      pop\n      pop\n      jump\t// out\n        /* \"#utility.yul\":6372:6531   */\n    tag_518:\n        /* \"#utility.yul\":6473:6524   */\n      tag_520\n        /* \"#utility.yul\":6518:6523   */\n      dup2\n        /* \"#utility.yul\":6473:6524   */\n      tag_521\n      jump\t// in\n    tag_520:\n        /* \"#utility.yul\":6468:6471   */\n      dup3\n        /* \"#utility.yul\":6461:6525   */\n      mstore\n        /* \"#utility.yul\":6372:6531   */\n      pop\n      pop\n      jump\t// out\n        /* \"#utility.yul\":6537:6684   */\n    tag_522:\n        /* \"#utility.yul\":6632:6677   */\n      tag_524\n        /* \"#utility.yul\":6671:6676   */\n      dup2\n        /* \"#utility.yul\":6632:6677   */\n      tag_525\n      jump\t// in\n    tag_524:\n        /* \"#utility.yul\":6627:6630   */\n      dup3\n        /* \"#utility.yul\":6620:6678   */\n      mstore\n        /* \"#utility.yul\":6537:6684   */\n      pop\n      pop\n      jump\t// out\n        /* \"#utility.yul\":6690:6833   */\n    tag_526:\n        /* \"#utility.yul\":6783:6826   */\n      tag_528\n        /* \"#utility.yul\":6820:6825   */\n      dup2\n        /* \"#utility.yul\":6783:6826   */\n      tag_529\n      jump\t// in\n    tag_528:\n        /* \"#utility.yul\":6778:6781   */\n      dup3\n        /* \"#utility.yul\":6771:6827   */\n      mstore\n        /* \"#utility.yul\":6690:6833   */\n      pop\n      pop\n      jump\t// out\n        /* \"#utility.yul\":6839:6982   */\n    tag_530:\n        /* \"#utility.yul\":6932:6975   */\n      tag_532\n        /* \"#utility.yul\":6969:6974   */\n      dup2\n        /* \"#utility.yul\":6932:6975   */\n      tag_533\n      jump\t// in\n    tag_532:\n        /* \"#utility.yul\":6927:6930   */\n      dup3\n        /* \"#utility.yul\":6920:6976   */\n      mstore\n        /* \"#utility.yul\":6839:6982   */\n      pop\n      pop\n      jump\t// out\n        /* \"#utility.yul\":6988:7131   */\n    tag_534:\n        /* \"#utility.yul\":7081:7124   */\n      tag_536\n        /* \"#utility.yul\":7118:7123   */\n      dup2\n        /* \"#utility.yul\":7081:7124   */\n      tag_537\n      jump\t// in\n    tag_536:\n        /* \"#utility.yul\":7076:7079   */\n      dup3\n        /* \"#utility.yul\":7069:7125   */\n      mstore\n        /* \"#utility.yul\":6988:7131   */\n      pop\n      pop\n      jump\t// out\n        /* \"#utility.yul\":7137:7503   */\n    tag_538:\n        /* \"#utility.yul\":7279:7282   */\n      0x00\n        /* \"#utility.yul\":7300:7367   */\n      tag_540\n        /* \"#utility.yul\":7364:7366   */\n      0x14\n        /* \"#utility.yul\":7359:7362   */\n      dup4\n        /* \"#utility.yul\":7300:7367   */\n      tag_541\n      jump\t// in\n    tag_540:\n        /* \"#utility.yul\":7293:7367   */\n      swap2\n      pop\n        /* \"#utility.yul\":7376:7469   */\n      tag_542\n        /* \"#utility.yul\":7465:7468   */\n      dup3\n        /* \"#utility.yul\":7376:7469   */\n      tag_543\n      jump\t// in\n    tag_542:\n        /* \"#utility.yul\":7494:7496   */\n      0x20\n        /* \"#utility.yul\":7489:7492   */\n      dup3\n        /* \"#utility.yul\":7485:7497   */\n      add\n        /* \"#utility.yul\":7478:7497   */\n      swap1\n      pop\n        /* \"#utility.yul\":7137:7503   */\n      swap2\n      swap1\n      pop\n      jump\t// out\n        /* \"#utility.yul\":7509:7875   */\n    tag_544:\n        /* \"#utility.yul\":7651:7654   */\n      0x00\n        /* \"#utility.yul\":7672:7739   */\n      tag_546\n        /* \"#utility.yul\":7736:7738   */\n      0x26\n        /* \"#utility.yul\":7731:7734   */\n      dup4\n        /* \"#utility.yul\":7672:7739   */\n      tag_541\n      jump\t// in\n    tag_546:\n        /* \"#utility.yul\":7665:7739   */\n      swap2\n      pop\n        /* \"#utility.yul\":7748:7841   */\n      tag_547\n        /* \"#utility.yul\":7837:7840   */\n      dup3\n        /* \"#utility.yul\":7748:7841   */\n      tag_548\n      jump\t// in\n    tag_547:\n        /* \"#utility.yul\":7866:7868   */\n      0x40\n        /* \"#utility.yul\":7861:7864   */\n      dup3\n        /* \"#utility.yul\":7857:7869   */\n      add\n        /* \"#utility.yul\":7850:7869   */\n      swap1\n      pop\n        /* \"#utility.yul\":7509:7875   */\n      swap2\n      swap1\n      pop\n      jump\t// out\n        /* \"#utility.yul\":7881:8247   */\n    tag_549:\n        /* \"#utility.yul\":8023:8026   */\n      0x00\n        /* \"#utility.yul\":8044:8111   */\n      tag_551\n        /* \"#utility.yul\":8108:8110   */\n      0x1e\n        /* \"#utility.yul\":8103:8106   */\n      dup4\n        /* \"#utility.yul\":8044:8111   */\n      tag_541\n      jump\t// in\n    tag_551:\n        /* \"#utility.yul\":8037:8111   */\n      swap2\n      pop\n        /* \"#utility.yul\":8120:8213   */\n      tag_552\n        /* \"#utility.yul\":8209:8212   */\n      dup3\n        /* \"#utility.yul\":8120:8213   */\n      tag_553\n      jump\t// in\n    tag_552:\n        /* \"#utility.yul\":8238:8240   */\n      0x20\n        /* \"#utility.yul\":8233:8236   */\n      dup3\n        /* \"#utility.yul\":8229:8241   */\n      add\n        /* \"#utility.yul\":8222:8241   */\n      swap1\n      pop\n        /* \"#utility.yul\":7881:8247   */\n      swap2\n      swap1\n      pop\n      jump\t// out\n        /* \"#utility.yul\":8253:8619   */\n    tag_554:\n        /* \"#utility.yul\":8395:8398   */\n      0x00\n        /* \"#utility.yul\":8416:8483   */\n      tag_556\n        /* \"#utility.yul\":8480:8482   */\n      0x22\n        /* \"#utility.yul\":8475:8478   */\n      dup4\n        /* \"#utility.yul\":8416:8483   */\n      tag_541\n      jump\t// in\n    tag_556:\n        /* \"#utility.yul\":8409:8483   */\n      swap2\n      pop\n        /* \"#utility.yul\":8492:8585   */\n      tag_557\n        /* \"#utility.yul\":8581:8584   */\n      dup3\n        /* \"#utility.yul\":8492:8585   */\n      tag_558\n      jump\t// in\n    tag_557:\n        /* \"#utility.yul\":8610:8612   */\n      0x40\n        /* \"#utility.yul\":8605:8608   */\n      dup3\n        /* \"#utility.yul\":8601:8613   */\n      add\n        /* \"#utility.yul\":8594:8613   */\n      swap1\n      pop\n        /* \"#utility.yul\":8253:8619   */\n      swap2\n      swap1\n      pop\n      jump\t// out\n        /* \"#utility.yul\":8625:8991   */\n    tag_559:\n        /* \"#utility.yul\":8767:8770   */\n      0x00\n        /* \"#utility.yul\":8788:8855   */\n      tag_561\n        /* \"#utility.yul\":8852:8854   */\n      0x16\n        /* \"#utility.yul\":8847:8850   */\n      dup4\n        /* \"#utility.yul\":8788:8855   */\n      tag_541\n      jump\t// in\n    tag_561:\n        /* \"#utility.yul\":8781:8855   */\n      swap2\n      pop\n        /* \"#utility.yul\":8864:8957   */\n      tag_562\n        /* \"#utility.yul\":8953:8956   */\n      dup3\n        /* \"#utility.yul\":8864:8957   */\n      tag_563\n      jump\t// in\n    tag_562:\n        /* \"#utility.yul\":8982:8984   */\n      0x20\n        /* \"#utility.yul\":8977:8980   */\n      dup3\n        /* \"#utility.yul\":8973:8985   */\n      add\n        /* \"#utility.yul\":8966:8985   */\n      swap1\n      pop\n        /* \"#utility.yul\":8625:8991   */\n      swap2\n      swap1\n      pop\n      jump\t// out\n        /* \"#utility.yul\":8997:9363   */\n    tag_564:\n        /* \"#utility.yul\":9139:9142   */\n      0x00\n        /* \"#utility.yul\":9160:9227   */\n      tag_566\n        /* \"#utility.yul\":9224:9226   */\n      0x10\n        /* \"#utility.yul\":9219:9222   */\n      dup4\n        /* \"#utility.yul\":9160:9227   */\n      tag_541\n      jump\t// in\n    tag_566:\n        /* \"#utility.yul\":9153:9227   */\n      swap2\n      pop\n        /* \"#utility.yul\":9236:9329   */\n      tag_567\n        /* \"#utility.yul\":9325:9328   */\n      dup3\n        /* \"#utility.yul\":9236:9329   */\n      tag_568\n      jump\t// in\n    tag_567:\n        /* \"#utility.yul\":9354:9356   */\n      0x20\n        /* \"#utility.yul\":9349:9352   */\n      dup3\n        /* \"#utility.yul\":9345:9357   */\n      add\n        /* \"#utility.yul\":9338:9357   */\n      swap1\n      pop\n        /* \"#utility.yul\":8997:9363   */\n      swap2\n      swap1\n      pop\n      jump\t// out\n        /* \"#utility.yul\":9369:9735   */\n    tag_569:\n        /* \"#utility.yul\":9511:9514   */\n      0x00\n        /* \"#utility.yul\":9532:9599   */\n      tag_571\n        /* \"#utility.yul\":9596:9598   */\n      0x16\n        /* \"#utility.yul\":9591:9594   */\n      dup4\n        /* \"#utility.yul\":9532:9599   */\n      tag_541\n      jump\t// in\n    tag_571:\n        /* \"#utility.yul\":9525:9599   */\n      swap2\n      pop\n        /* \"#utility.yul\":9608:9701   */\n      tag_572\n        /* \"#utility.yul\":9697:9700   */\n      dup3\n        /* \"#utility.yul\":9608:9701   */\n      tag_573\n      jump\t// in\n    tag_572:\n        /* \"#utility.yul\":9726:9728   */\n      0x20\n        /* \"#utility.yul\":9721:9724   */\n      dup3\n        /* \"#utility.yul\":9717:9729   */\n      add\n        /* \"#utility.yul\":9710:9729   */\n      swap1\n      pop\n        /* \"#utility.yul\":9369:9735   */\n      swap2\n      swap1\n      pop\n      jump\t// out\n        /* \"#utility.yul\":9741:10107   */\n    tag_574:\n        /* \"#utility.yul\":9883:9886   */\n      0x00\n        /* \"#utility.yul\":9904:9971   */\n      tag_576\n        /* \"#utility.yul\":9968:9970   */\n      0x32\n        /* \"#utility.yul\":9963:9966   */\n      dup4\n        /* \"#utility.yul\":9904:9971   */\n      tag_541\n      jump\t// in\n    tag_576:\n        /* \"#utility.yul\":9897:9971   */\n      swap2\n      pop\n        /* \"#utility.yul\":9980:10073   */\n      tag_577\n        /* \"#utility.yul\":10069:10072   */\n      dup3\n        /* \"#utility.yul\":9980:10073   */\n      tag_578\n      jump\t// in\n    tag_577:\n        /* \"#utility.yul\":10098:10100   */\n      0x40\n        /* \"#utility.yul\":10093:10096   */\n      dup3\n        /* \"#utility.yul\":10089:10101   */\n      add\n        /* \"#utility.yul\":10082:10101   */\n      swap1\n      pop\n        /* \"#utility.yul\":9741:10107   */\n      swap2\n      swap1\n      pop\n      jump\t// out\n        /* \"#utility.yul\":10113:10479   */\n    tag_579:\n        /* \"#utility.yul\":10255:10258   */\n      0x00\n        /* \"#utility.yul\":10276:10343   */\n      tag_581\n        /* \"#utility.yul\":10340:10342   */\n      0x20\n        /* \"#utility.yul\":10335:10338   */\n      dup4\n        /* \"#utility.yul\":10276:10343   */\n      tag_541\n      jump\t// in\n    tag_581:\n        /* \"#utility.yul\":10269:10343   */\n      swap2\n      pop\n        /* \"#utility.yul\":10352:10445   */\n      tag_582\n        /* \"#utility.yul\":10441:10444   */\n      dup3\n        /* \"#utility.yul\":10352:10445   */\n      tag_583\n      jump\t// in\n    tag_582:\n        /* \"#utility.yul\":10470:10472   */\n      0x20\n        /* \"#utility.yul\":10465:10468   */\n      dup3\n        /* \"#utility.yul\":10461:10473   */\n      add\n        /* \"#utility.yul\":10454:10473   */\n      swap1\n      pop\n        /* \"#utility.yul\":10113:10479   */\n      swap2\n      swap1\n      pop\n      jump\t// out\n        /* \"#utility.yul\":10485:10851   */\n    tag_584:\n        /* \"#utility.yul\":10627:10630   */\n      0x00\n        /* \"#utility.yul\":10648:10715   */\n      tag_586\n        /* \"#utility.yul\":10712:10714   */\n      0x0f\n        /* \"#utility.yul\":10707:10710   */\n      dup4\n        /* \"#utility.yul\":10648:10715   */\n      tag_541\n      jump\t// in\n    tag_586:\n        /* \"#utility.yul\":10641:10715   */\n      swap2\n      pop\n        /* \"#utility.yul\":10724:10817   */\n      tag_587\n        /* \"#utility.yul\":10813:10816   */\n      dup3\n        /* \"#utility.yul\":10724:10817   */\n      tag_588\n      jump\t// in\n    tag_587:\n        /* \"#utility.yul\":10842:10844   */\n      0x20\n        /* \"#utility.yul\":10837:10840   */\n      dup3\n        /* \"#utility.yul\":10833:10845   */\n      add\n        /* \"#utility.yul\":10826:10845   */\n      swap1\n      pop\n        /* \"#utility.yul\":10485:10851   */\n      swap2\n      swap1\n      pop\n      jump\t// out\n        /* \"#utility.yul\":10857:11223   */\n    tag_589:\n        /* \"#utility.yul\":10999:11002   */\n      0x00\n        /* \"#utility.yul\":11020:11087   */\n      tag_591\n        /* \"#utility.yul\":11084:11086   */\n      0x1f\n        /* \"#utility.yul\":11079:11082   */\n      dup4\n        /* \"#utility.yul\":11020:11087   */\n      tag_541\n      jump\t// in\n    tag_591:\n        /* \"#utility.yul\":11013:11087   */\n      swap2\n      pop\n        /* \"#utility.yul\":11096:11189   */\n      tag_592\n        /* \"#utility.yul\":11185:11188   */\n      dup3\n        /* \"#utility.yul\":11096:11189   */\n      tag_593\n      jump\t// in\n    tag_592:\n        /* \"#utility.yul\":11214:11216   */\n      0x20\n        /* \"#utility.yul\":11209:11212   */\n      dup3\n        /* \"#utility.yul\":11205:11217   */\n      add\n        /* \"#utility.yul\":11198:11217   */\n      swap1\n      pop\n        /* \"#utility.yul\":10857:11223   */\n      swap2\n      swap1\n      pop\n      jump\t// out\n        /* \"#utility.yul\":11229:11347   */\n    tag_594:\n        /* \"#utility.yul\":11316:11340   */\n      tag_596\n        /* \"#utility.yul\":11334:11339   */\n      dup2\n        /* \"#utility.yul\":11316:11340   */\n      tag_597\n      jump\t// in\n    tag_596:\n        /* \"#utility.yul\":11311:11314   */\n      dup3\n        /* \"#utility.yul\":11304:11341   */\n      mstore\n        /* \"#utility.yul\":11229:11347   */\n      pop\n      pop\n      jump\t// out\n        /* \"#utility.yul\":11353:11575   */\n    tag_117:\n        /* \"#utility.yul\":11446:11450   */\n      0x00\n        /* \"#utility.yul\":11484:11486   */\n      0x20\n        /* \"#utility.yul\":11473:11482   */\n      dup3\n        /* \"#utility.yul\":11469:11487   */\n      add\n        /* \"#utility.yul\":11461:11487   */\n      swap1\n      pop\n        /* \"#utility.yul\":11497:11568   */\n      tag_599\n        /* \"#utility.yul\":11565:11566   */\n      0x00\n        /* \"#utility.yul\":11554:11563   */\n      dup4\n        /* \"#utility.yul\":11550:11567   */\n      add\n        /* \"#utility.yul\":11541:11547   */\n      dup5\n        /* \"#utility.yul\":11497:11568   */\n      tag_493\n      jump\t// in\n    tag_599:\n        /* \"#utility.yul\":11353:11575   */\n      swap3\n      swap2\n      pop\n      pop\n      jump\t// out\n        /* \"#utility.yul\":11581:12023   */\n    tag_173:\n        /* \"#utility.yul\":11730:11734   */\n      0x00\n        /* \"#utility.yul\":11768:11770   */\n      0x60\n        /* \"#utility.yul\":11757:11766   */\n      dup3\n        /* \"#utility.yul\":11753:11771   */\n      add\n        /* \"#utility.yul\":11745:11771   */\n      swap1\n      pop\n        /* \"#utility.yul\":11781:11852   */\n      tag_601\n        /* \"#utility.yul\":11849:11850   */\n      0x00\n        /* \"#utility.yul\":11838:11847   */\n      dup4\n        /* \"#utility.yul\":11834:11851   */\n      add\n        /* \"#utility.yul\":11825:11831   */\n      dup7\n        /* \"#utility.yul\":11781:11852   */\n      tag_493\n      jump\t// in\n    tag_601:\n        /* \"#utility.yul\":11862:11934   */\n      tag_602\n        /* \"#utility.yul\":11930:11932   */\n      0x20\n        /* \"#utility.yul\":11919:11928   */\n      dup4\n        /* \"#utility.yul\":11915:11933   */\n      add\n        /* \"#utility.yul\":11906:11912   */\n      dup6\n        /* \"#utility.yul\":11862:11934   */\n      tag_493\n      jump\t// in\n    tag_602:\n        /* \"#utility.yul\":11944:12016   */\n      tag_603\n        /* \"#utility.yul\":12012:12014   */\n      0x40\n        /* \"#utility.yul\":12001:12010   */\n      dup4\n        /* \"#utility.yul\":11997:12015   */\n      add\n        /* \"#utility.yul\":11988:11994   */\n      dup5\n        /* \"#utility.yul\":11944:12016   */\n      tag_594\n      jump\t// in\n    tag_603:\n        /* \"#utility.yul\":11581:12023   */\n      swap5\n      swap4\n      pop\n      pop\n      pop\n      pop\n      jump\t// out\n        /* \"#utility.yul\":12029:12693   */\n    tag_278:\n        /* \"#utility.yul\":12234:12238   */\n      0x00\n        /* \"#utility.yul\":12272:12275   */\n      0xa0\n        /* \"#utility.yul\":12261:12270   */\n      dup3\n        /* \"#utility.yul\":12257:12276   */\n      add\n        /* \"#utility.yul\":12249:12276   */\n      swap1\n      pop\n        /* \"#utility.yul\":12286:12357   */\n      tag_605\n        /* \"#utility.yul\":12354:12355   */\n      0x00\n        /* \"#utility.yul\":12343:12352   */\n      dup4\n        /* \"#utility.yul\":12339:12356   */\n      add\n        /* \"#utility.yul\":12330:12336   */\n      dup9\n        /* \"#utility.yul\":12286:12357   */\n      tag_493\n      jump\t// in\n    tag_605:\n        /* \"#utility.yul\":12367:12445   */\n      tag_606\n        /* \"#utility.yul\":12441:12443   */\n      0x20\n        /* \"#utility.yul\":12430:12439   */\n      dup4\n        /* \"#utility.yul\":12426:12444   */\n      add\n        /* \"#utility.yul\":12417:12423   */\n      dup8\n        /* \"#utility.yul\":12367:12445   */\n      tag_526\n      jump\t// in\n    tag_606:\n        /* \"#utility.yul\":12455:12521   */\n      tag_607\n        /* \"#utility.yul\":12517:12519   */\n      0x40\n        /* \"#utility.yul\":12506:12515   */\n      dup4\n        /* \"#utility.yul\":12502:12520   */\n      add\n        /* \"#utility.yul\":12493:12499   */\n      dup7\n        /* \"#utility.yul\":12455:12521   */\n      tag_510\n      jump\t// in\n    tag_607:\n        /* \"#utility.yul\":12531:12603   */\n      tag_608\n        /* \"#utility.yul\":12599:12601   */\n      0x60\n        /* \"#utility.yul\":12588:12597   */\n      dup4\n        /* \"#utility.yul\":12584:12602   */\n      add\n        /* \"#utility.yul\":12575:12581   */\n      dup6\n        /* \"#utility.yul\":12531:12603   */\n      tag_594\n      jump\t// in\n    tag_608:\n        /* \"#utility.yul\":12613:12686   */\n      tag_609\n        /* \"#utility.yul\":12681:12684   */\n      0x80\n        /* \"#utility.yul\":12670:12679   */\n      dup4\n        /* \"#utility.yul\":12666:12685   */\n      add\n        /* \"#utility.yul\":12657:12663   */\n      dup5\n        /* \"#utility.yul\":12613:12686   */\n      tag_594\n      jump\t// in\n    tag_609:\n        /* \"#utility.yul\":12029:12693   */\n      swap7\n      swap6\n      pop\n      pop\n      pop\n      pop\n      pop\n      pop\n      jump\t// out\n        /* \"#utility.yul\":12699:13375   */\n    tag_372:\n        /* \"#utility.yul\":12910:12914   */\n      0x00\n        /* \"#utility.yul\":12948:12951   */\n      0xa0\n        /* \"#utility.yul\":12937:12946   */\n      dup3\n        /* \"#utility.yul\":12933:12952   */\n      add\n        /* \"#utility.yul\":12925:12952   */\n      swap1\n      pop\n        /* \"#utility.yul\":12962:13033   */\n      tag_611\n        /* \"#utility.yul\":13030:13031   */\n      0x00\n        /* \"#utility.yul\":13019:13028   */\n      dup4\n        /* \"#utility.yul\":13015:13032   */\n      add\n        /* \"#utility.yul\":13006:13012   */\n      dup9\n        /* \"#utility.yul\":12962:13033   */\n      tag_493\n      jump\t// in\n    tag_611:\n        /* \"#utility.yul\":13043:13121   */\n      tag_612\n        /* \"#utility.yul\":13117:13119   */\n      0x20\n        /* \"#utility.yul\":13106:13115   */\n      dup4\n        /* \"#utility.yul\":13102:13120   */\n      add\n        /* \"#utility.yul\":13093:13099   */\n      dup8\n        /* \"#utility.yul\":13043:13121   */\n      tag_526\n      jump\t// in\n    tag_612:\n        /* \"#utility.yul\":13131:13203   */\n      tag_613\n        /* \"#utility.yul\":13199:13201   */\n      0x40\n        /* \"#utility.yul\":13188:13197   */\n      dup4\n        /* \"#utility.yul\":13184:13202   */\n      add\n        /* \"#utility.yul\":13175:13181   */\n      dup7\n        /* \"#utility.yul\":13131:13203   */\n      tag_594\n      jump\t// in\n    tag_613:\n        /* \"#utility.yul\":13213:13285   */\n      tag_614\n        /* \"#utility.yul\":13281:13283   */\n      0x60\n        /* \"#utility.yul\":13270:13279   */\n      dup4\n        /* \"#utility.yul\":13266:13284   */\n      add\n        /* \"#utility.yul\":13257:13263   */\n      dup6\n        /* \"#utility.yul\":13213:13285   */\n      tag_594\n      jump\t// in\n    tag_614:\n        /* \"#utility.yul\":13295:13368   */\n      tag_615\n        /* \"#utility.yul\":13363:13366   */\n      0x80\n        /* \"#utility.yul\":13352:13361   */\n      dup4\n        /* \"#utility.yul\":13348:13367   */\n      add\n        /* \"#utility.yul\":13339:13345   */\n      dup5\n        /* \"#utility.yul\":13295:13368   */\n      tag_594\n      jump\t// in\n    tag_615:\n        /* \"#utility.yul\":12699:13375   */\n      swap7\n      swap6\n      pop\n      pop\n      pop\n      pop\n      pop\n      pop\n      jump\t// out\n        /* \"#utility.yul\":13381:14045   */\n    tag_304:\n        /* \"#utility.yul\":13586:13590   */\n      0x00\n        /* \"#utility.yul\":13624:13627   */\n      0xa0\n        /* \"#utility.yul\":13613:13622   */\n      dup3\n        /* \"#utility.yul\":13609:13628   */\n      add\n        /* \"#utility.yul\":13601:13628   */\n      swap1\n      pop\n        /* \"#utility.yul\":13638:13709   */\n      tag_617\n        /* \"#utility.yul\":13706:13707   */\n      0x00\n        /* \"#utility.yul\":13695:13704   */\n      dup4\n        /* \"#utility.yul\":13691:13708   */\n      add\n        /* \"#utility.yul\":13682:13688   */\n      dup9\n        /* \"#utility.yul\":13638:13709   */\n      tag_493\n      jump\t// in\n    tag_617:\n        /* \"#utility.yul\":13719:13797   */\n      tag_618\n        /* \"#utility.yul\":13793:13795   */\n      0x20\n        /* \"#utility.yul\":13782:13791   */\n      dup4\n        /* \"#utility.yul\":13778:13796   */\n      add\n        /* \"#utility.yul\":13769:13775   */\n      dup8\n        /* \"#utility.yul\":13719:13797   */\n      tag_530\n      jump\t// in\n    tag_618:\n        /* \"#utility.yul\":13807:13873   */\n      tag_619\n        /* \"#utility.yul\":13869:13871   */\n      0x40\n        /* \"#utility.yul\":13858:13867   */\n      dup4\n        /* \"#utility.yul\":13854:13872   */\n      add\n        /* \"#utility.yul\":13845:13851   */\n      dup7\n        /* \"#utility.yul\":13807:13873   */\n      tag_510\n      jump\t// in\n    tag_619:\n        /* \"#utility.yul\":13883:13955   */\n      tag_620\n        /* \"#utility.yul\":13951:13953   */\n      0x60\n        /* \"#utility.yul\":13940:13949   */\n      dup4\n        /* \"#utility.yul\":13936:13954   */\n      add\n        /* \"#utility.yul\":13927:13933   */\n      dup6\n        /* \"#utility.yul\":13883:13955   */\n      tag_594\n      jump\t// in\n    tag_620:\n        /* \"#utility.yul\":13965:14038   */\n      tag_621\n        /* \"#utility.yul\":14033:14036   */\n      0x80\n        /* \"#utility.yul\":14022:14031   */\n      dup4\n        /* \"#utility.yul\":14018:14037   */\n      add\n        /* \"#utility.yul\":14009:14015   */\n      dup5\n        /* \"#utility.yul\":13965:14038   */\n      tag_594\n      jump\t// in\n    tag_621:\n        /* \"#utility.yul\":13381:14045   */\n      swap7\n      swap6\n      pop\n      pop\n      pop\n      pop\n      pop\n      pop\n      jump\t// out\n        /* \"#utility.yul\":14051:14727   */\n    tag_183:\n        /* \"#utility.yul\":14262:14266   */\n      0x00\n        /* \"#utility.yul\":14300:14303   */\n      0xa0\n        /* \"#utility.yul\":14289:14298   */\n      dup3\n        /* \"#utility.yul\":14285:14304   */\n      add\n        /* \"#utility.yul\":14277:14304   */\n      swap1\n      pop\n        /* \"#utility.yul\":14314:14385   */\n      tag_623\n        /* \"#utility.yul\":14382:14383   */\n      0x00\n        /* \"#utility.yul\":14371:14380   */\n      dup4\n        /* \"#utility.yul\":14367:14384   */\n      add\n        /* \"#utility.yul\":14358:14364   */\n      dup9\n        /* \"#utility.yul\":14314:14385   */\n      tag_493\n      jump\t// in\n    tag_623:\n        /* \"#utility.yul\":14395:14473   */\n      tag_624\n        /* \"#utility.yul\":14469:14471   */\n      0x20\n        /* \"#utility.yul\":14458:14467   */\n      dup4\n        /* \"#utility.yul\":14454:14472   */\n      add\n        /* \"#utility.yul\":14445:14451   */\n      dup8\n        /* \"#utility.yul\":14395:14473   */\n      tag_530\n      jump\t// in\n    tag_624:\n        /* \"#utility.yul\":14483:14555   */\n      tag_625\n        /* \"#utility.yul\":14551:14553   */\n      0x40\n        /* \"#utility.yul\":14540:14549   */\n      dup4\n        /* \"#utility.yul\":14536:14554   */\n      add\n        /* \"#utility.yul\":14527:14533   */\n      dup7\n        /* \"#utility.yul\":14483:14555   */\n      tag_594\n      jump\t// in\n    tag_625:\n        /* \"#utility.yul\":14565:14637   */\n      tag_626\n        /* \"#utility.yul\":14633:14635   */\n      0x60\n        /* \"#utility.yul\":14622:14631   */\n      dup4\n        /* \"#utility.yul\":14618:14636   */\n      add\n        /* \"#utility.yul\":14609:14615   */\n      dup6\n        /* \"#utility.yul\":14565:14637   */\n      tag_594\n      jump\t// in\n    tag_626:\n        /* \"#utility.yul\":14647:14720   */\n      tag_627\n        /* \"#utility.yul\":14715:14718   */\n      0x80\n        /* \"#utility.yul\":14704:14713   */\n      dup4\n        /* \"#utility.yul\":14700:14719   */\n      add\n        /* \"#utility.yul\":14691:14697   */\n      dup5\n        /* \"#utility.yul\":14647:14720   */\n      tag_594\n      jump\t// in\n    tag_627:\n        /* \"#utility.yul\":14051:14727   */\n      swap7\n      swap6\n      pop\n      pop\n      pop\n      pop\n      pop\n      pop\n      jump\t// out\n        /* \"#utility.yul\":14733:15397   */\n    tag_224:\n        /* \"#utility.yul\":14938:14942   */\n      0x00\n        /* \"#utility.yul\":14976:14979   */\n      0xa0\n        /* \"#utility.yul\":14965:14974   */\n      dup3\n        /* \"#utility.yul\":14961:14980   */\n      add\n        /* \"#utility.yul\":14953:14980   */\n      swap1\n      pop\n        /* \"#utility.yul\":14990:15061   */\n      tag_629\n        /* \"#utility.yul\":15058:15059   */\n      0x00\n        /* \"#utility.yul\":15047:15056   */\n      dup4\n        /* \"#utility.yul\":15043:15060   */\n      add\n        /* \"#utility.yul\":15034:15040   */\n      dup9\n        /* \"#utility.yul\":14990:15061   */\n      tag_493\n      jump\t// in\n    tag_629:\n        /* \"#utility.yul\":15071:15149   */\n      tag_630\n        /* \"#utility.yul\":15145:15147   */\n      0x20\n        /* \"#utility.yul\":15134:15143   */\n      dup4\n        /* \"#utility.yul\":15130:15148   */\n      add\n        /* \"#utility.yul\":15121:15127   */\n      dup8\n        /* \"#utility.yul\":15071:15149   */\n      tag_534\n      jump\t// in\n    tag_630:\n        /* \"#utility.yul\":15159:15225   */\n      tag_631\n        /* \"#utility.yul\":15221:15223   */\n      0x40\n        /* \"#utility.yul\":15210:15219   */\n      dup4\n        /* \"#utility.yul\":15206:15224   */\n      add\n        /* \"#utility.yul\":15197:15203   */\n      dup7\n        /* \"#utility.yul\":15159:15225   */\n      tag_510\n      jump\t// in\n    tag_631:\n        /* \"#utility.yul\":15235:15307   */\n      tag_632\n        /* \"#utility.yul\":15303:15305   */\n      0x60\n        /* \"#utility.yul\":15292:15301   */\n      dup4\n        /* \"#utility.yul\":15288:15306   */\n      add\n        /* \"#utility.yul\":15279:15285   */\n      dup6\n        /* \"#utility.yul\":15235:15307   */\n      tag_594\n      jump\t// in\n    tag_632:\n        /* \"#utility.yul\":15317:15390   */\n      tag_633\n        /* \"#utility.yul\":15385:15388   */\n      0x80\n        /* \"#utility.yul\":15374:15383   */\n      dup4\n        /* \"#utility.yul\":15370:15389   */\n      add\n        /* \"#utility.yul\":15361:15367   */\n      dup5\n        /* \"#utility.yul\":15317:15390   */\n      tag_594\n      jump\t// in\n    tag_633:\n        /* \"#utility.yul\":14733:15397   */\n      swap7\n      swap6\n      pop\n      pop\n      pop\n      pop\n      pop\n      pop\n      jump\t// out\n        /* \"#utility.yul\":15403:16079   */\n    tag_324:\n        /* \"#utility.yul\":15614:15618   */\n      0x00\n        /* \"#utility.yul\":15652:15655   */\n      0xa0\n        /* \"#utility.yul\":15641:15650   */\n      dup3\n        /* \"#utility.yul\":15637:15656   */\n      add\n        /* \"#utility.yul\":15629:15656   */\n      swap1\n      pop\n        /* \"#utility.yul\":15666:15737   */\n      tag_635\n        /* \"#utility.yul\":15734:15735   */\n      0x00\n        /* \"#utility.yul\":15723:15732   */\n      dup4\n        /* \"#utility.yul\":15719:15736   */\n      add\n        /* \"#utility.yul\":15710:15716   */\n      dup9\n        /* \"#utility.yul\":15666:15737   */\n      tag_493\n      jump\t// in\n    tag_635:\n        /* \"#utility.yul\":15747:15825   */\n      tag_636\n        /* \"#utility.yul\":15821:15823   */\n      0x20\n        /* \"#utility.yul\":15810:15819   */\n      dup4\n        /* \"#utility.yul\":15806:15824   */\n      add\n        /* \"#utility.yul\":15797:15803   */\n      dup8\n        /* \"#utility.yul\":15747:15825   */\n      tag_534\n      jump\t// in\n    tag_636:\n        /* \"#utility.yul\":15835:15907   */\n      tag_637\n        /* \"#utility.yul\":15903:15905   */\n      0x40\n        /* \"#utility.yul\":15892:15901   */\n      dup4\n        /* \"#utility.yul\":15888:15906   */\n      add\n        /* \"#utility.yul\":15879:15885   */\n      dup7\n        /* \"#utility.yul\":15835:15907   */\n      tag_594\n      jump\t// in\n    tag_637:\n        /* \"#utility.yul\":15917:15989   */\n      tag_638\n        /* \"#utility.yul\":15985:15987   */\n      0x60\n        /* \"#utility.yul\":15974:15983   */\n      dup4\n        /* \"#utility.yul\":15970:15988   */\n      add\n        /* \"#utility.yul\":15961:15967   */\n      dup6\n        /* \"#utility.yul\":15917:15989   */\n      tag_594\n      jump\t// in\n    tag_638:\n        /* \"#utility.yul\":15999:16072   */\n      tag_639\n        /* \"#utility.yul\":16067:16070   */\n      0x80\n        /* \"#utility.yul\":16056:16065   */\n      dup4\n        /* \"#utility.yul\":16052:16071   */\n      add\n        /* \"#utility.yul\":16043:16049   */\n      dup5\n        /* \"#utility.yul\":15999:16072   */\n      tag_594\n      jump\t// in\n    tag_639:\n        /* \"#utility.yul\":15403:16079   */\n      swap7\n      swap6\n      pop\n      pop\n      pop\n      pop\n      pop\n      pop\n      jump\t// out\n        /* \"#utility.yul\":16085:16417   */\n    tag_210:\n        /* \"#utility.yul\":16206:16210   */\n      0x00\n        /* \"#utility.yul\":16244:16246   */\n      0x40\n        /* \"#utility.yul\":16233:16242   */\n      dup3\n        /* \"#utility.yul\":16229:16247   */\n      add\n        /* \"#utility.yul\":16221:16247   */\n      swap1\n      pop\n        /* \"#utility.yul\":16257:16328   */\n      tag_641\n        /* \"#utility.yul\":16325:16326   */\n      0x00\n        /* \"#utility.yul\":16314:16323   */\n      dup4\n        /* \"#utility.yul\":16310:16327   */\n      add\n        /* \"#utility.yul\":16301:16307   */\n      dup6\n        /* \"#utility.yul\":16257:16328   */\n      tag_493\n      jump\t// in\n    tag_641:\n        /* \"#utility.yul\":16338:16410   */\n      tag_642\n        /* \"#utility.yul\":16406:16408   */\n      0x20\n        /* \"#utility.yul\":16395:16404   */\n      dup4\n        /* \"#utility.yul\":16391:16409   */\n      add\n        /* \"#utility.yul\":16382:16388   */\n      dup5\n        /* \"#utility.yul\":16338:16410   */\n      tag_594\n      jump\t// in\n    tag_642:\n        /* \"#utility.yul\":16085:16417   */\n      swap4\n      swap3\n      pop\n      pop\n      pop\n      jump\t// out\n        /* \"#utility.yul\":16423:16633   */\n    tag_70:\n        /* \"#utility.yul\":16510:16514   */\n      0x00\n        /* \"#utility.yul\":16548:16550   */\n      0x20\n        /* \"#utility.yul\":16537:16546   */\n      dup3\n        /* \"#utility.yul\":16533:16551   */\n      add\n        /* \"#utility.yul\":16525:16551   */\n      swap1\n      pop\n        /* \"#utility.yul\":16561:16626   */\n      tag_644\n        /* \"#utility.yul\":16623:16624   */\n      0x00\n        /* \"#utility.yul\":16612:16621   */\n      dup4\n        /* \"#utility.yul\":16608:16625   */\n      add\n        /* \"#utility.yul\":16599:16605   */\n      dup5\n        /* \"#utility.yul\":16561:16626   */\n      tag_510\n      jump\t// in\n    tag_644:\n        /* \"#utility.yul\":16423:16633   */\n      swap3\n      swap2\n      pop\n      pop\n      jump\t// out\n        /* \"#utility.yul\":16639:16897   */\n    tag_50:\n        /* \"#utility.yul\":16750:16754   */\n      0x00\n        /* \"#utility.yul\":16788:16790   */\n      0x20\n        /* \"#utility.yul\":16777:16786   */\n      dup3\n        /* \"#utility.yul\":16773:16791   */\n      add\n        /* \"#utility.yul\":16765:16791   */\n      swap1\n      pop\n        /* \"#utility.yul\":16801:16890   */\n      tag_646\n        /* \"#utility.yul\":16887:16888   */\n      0x00\n        /* \"#utility.yul\":16876:16885   */\n      dup4\n        /* \"#utility.yul\":16872:16889   */\n      add\n        /* \"#utility.yul\":16863:16869   */\n      dup5\n        /* \"#utility.yul\":16801:16890   */\n      tag_514\n      jump\t// in\n    tag_646:\n        /* \"#utility.yul\":16639:16897   */\n      swap3\n      swap2\n      pop\n      pop\n      jump\t// out\n        /* \"#utility.yul\":16903:17153   */\n    tag_66:\n        /* \"#utility.yul\":17010:17014   */\n      0x00\n        /* \"#utility.yul\":17048:17050   */\n      0x20\n        /* \"#utility.yul\":17037:17046   */\n      dup3\n        /* \"#utility.yul\":17033:17051   */\n      add\n        /* \"#utility.yul\":17025:17051   */\n      swap1\n      pop\n        /* \"#utility.yul\":17061:17146   */\n      tag_648\n        /* \"#utility.yul\":17143:17144   */\n      0x00\n        /* \"#utility.yul\":17132:17141   */\n      dup4\n        /* \"#utility.yul\":17128:17145   */\n      add\n        /* \"#utility.yul\":17119:17125   */\n      dup5\n        /* \"#utility.yul\":17061:17146   */\n      tag_518\n      jump\t// in\n    tag_648:\n        /* \"#utility.yul\":16903:17153   */\n      swap3\n      swap2\n      pop\n      pop\n      jump\t// out\n        /* \"#utility.yul\":17159:17578   */\n    tag_378:\n        /* \"#utility.yul\":17325:17329   */\n      0x00\n        /* \"#utility.yul\":17363:17365   */\n      0x20\n        /* \"#utility.yul\":17352:17361   */\n      dup3\n        /* \"#utility.yul\":17348:17366   */\n      add\n        /* \"#utility.yul\":17340:17366   */\n      swap1\n      pop\n        /* \"#utility.yul\":17412:17421   */\n      dup2\n        /* \"#utility.yul\":17406:17410   */\n      dup2\n        /* \"#utility.yul\":17402:17422   */\n      sub\n        /* \"#utility.yul\":17398:17399   */\n      0x00\n        /* \"#utility.yul\":17387:17396   */\n      dup4\n        /* \"#utility.yul\":17383:17400   */\n      add\n        /* \"#utility.yul\":17376:17423   */\n      mstore\n        /* \"#utility.yul\":17440:17571   */\n      tag_650\n        /* \"#utility.yul\":17566:17570   */\n      dup2\n        /* \"#utility.yul\":17440:17571   */\n      tag_538\n      jump\t// in\n    tag_650:\n        /* \"#utility.yul\":17432:17571   */\n      swap1\n      pop\n        /* \"#utility.yul\":17159:17578   */\n      swap2\n      swap1\n      pop\n      jump\t// out\n        /* \"#utility.yul\":17584:18003   */\n    tag_339:\n        /* \"#utility.yul\":17750:17754   */\n      0x00\n        /* \"#utility.yul\":17788:17790   */\n      0x20\n        /* \"#utility.yul\":17777:17786   */\n      dup3\n        /* \"#utility.yul\":17773:17791   */\n      add\n        /* \"#utility.yul\":17765:17791   */\n      swap1\n      pop\n        /* \"#utility.yul\":17837:17846   */\n      dup2\n        /* \"#utility.yul\":17831:17835   */\n      dup2\n        /* \"#utility.yul\":17827:17847   */\n      sub\n        /* \"#utility.yul\":17823:17824   */\n      0x00\n        /* \"#utility.yul\":17812:17821   */\n      dup4\n        /* \"#utility.yul\":17808:17825   */\n      add\n        /* \"#utility.yul\":17801:17848   */\n      mstore\n        /* \"#utility.yul\":17865:17996   */\n      tag_652\n        /* \"#utility.yul\":17991:17995   */\n      dup2\n        /* \"#utility.yul\":17865:17996   */\n      tag_544\n      jump\t// in\n    tag_652:\n        /* \"#utility.yul\":17857:17996   */\n      swap1\n      pop\n        /* \"#utility.yul\":17584:18003   */\n      swap2\n      swap1\n      pop\n      jump\t// out\n        /* \"#utility.yul\":18009:18428   */\n    tag_201:\n        /* \"#utility.yul\":18175:18179   */\n      0x00\n        /* \"#utility.yul\":18213:18215   */\n      0x20\n        /* \"#utility.yul\":18202:18211   */\n      dup3\n        /* \"#utility.yul\":18198:18216   */\n      add\n        /* \"#utility.yul\":18190:18216   */\n      swap1\n      pop\n        /* \"#utility.yul\":18262:18271   */\n      dup2\n        /* \"#utility.yul\":18256:18260   */\n      dup2\n        /* \"#utility.yul\":18252:18272   */\n      sub\n        /* \"#utility.yul\":18248:18249   */\n      0x00\n        /* \"#utility.yul\":18237:18246   */\n      dup4\n        /* \"#utility.yul\":18233:18250   */\n      add\n        /* \"#utility.yul\":18226:18273   */\n      mstore\n        /* \"#utility.yul\":18290:18421   */\n      tag_654\n        /* \"#utility.yul\":18416:18420   */\n      dup2\n        /* \"#utility.yul\":18290:18421   */\n      tag_549\n      jump\t// in\n    tag_654:\n        /* \"#utility.yul\":18282:18421   */\n      swap1\n      pop\n        /* \"#utility.yul\":18009:18428   */\n      swap2\n      swap1\n      pop\n      jump\t// out\n        /* \"#utility.yul\":18434:18853   */\n    tag_171:\n        /* \"#utility.yul\":18600:18604   */\n      0x00\n        /* \"#utility.yul\":18638:18640   */\n      0x20\n        /* \"#utility.yul\":18627:18636   */\n      dup3\n        /* \"#utility.yul\":18623:18641   */\n      add\n        /* \"#utility.yul\":18615:18641   */\n      swap1\n      pop\n        /* \"#utility.yul\":18687:18696   */\n      dup2\n        /* \"#utility.yul\":18681:18685   */\n      dup2\n        /* \"#utility.yul\":18677:18697   */\n      sub\n        /* \"#utility.yul\":18673:18674   */\n      0x00\n        /* \"#utility.yul\":18662:18671   */\n      dup4\n        /* \"#utility.yul\":18658:18675   */\n      add\n        /* \"#utility.yul\":18651:18698   */\n      mstore\n        /* \"#utility.yul\":18715:18846   */\n      tag_656\n        /* \"#utility.yul\":18841:18845   */\n      dup2\n        /* \"#utility.yul\":18715:18846   */\n      tag_554\n      jump\t// in\n    tag_656:\n        /* \"#utility.yul\":18707:18846   */\n      swap1\n      pop\n        /* \"#utility.yul\":18434:18853   */\n      swap2\n      swap1\n      pop\n      jump\t// out\n        /* \"#utility.yul\":18859:19278   */\n    tag_282:\n        /* \"#utility.yul\":19025:19029   */\n      0x00\n        /* \"#utility.yul\":19063:19065   */\n      0x20\n        /* \"#utility.yul\":19052:19061   */\n      dup3\n        /* \"#utility.yul\":19048:19066   */\n      add\n        /* \"#utility.yul\":19040:19066   */\n      swap1\n      pop\n        /* \"#utility.yul\":19112:19121   */\n      dup2\n        /* \"#utility.yul\":19106:19110   */\n      dup2\n        /* \"#utility.yul\":19102:19122   */\n      sub\n        /* \"#utility.yul\":19098:19099   */\n      0x00\n        /* \"#utility.yul\":19087:19096   */\n      dup4\n        /* \"#utility.yul\":19083:19100   */\n      add\n        /* \"#utility.yul\":19076:19123   */\n      mstore\n        /* \"#utility.yul\":19140:19271   */\n      tag_658\n        /* \"#utility.yul\":19266:19270   */\n      dup2\n        /* \"#utility.yul\":19140:19271   */\n      tag_559\n      jump\t// in\n    tag_658:\n        /* \"#utility.yul\":19132:19271   */\n      swap1\n      pop\n        /* \"#utility.yul\":18859:19278   */\n      swap2\n      swap1\n      pop\n      jump\t// out\n        /* \"#utility.yul\":19284:19703   */\n    tag_163:\n        /* \"#utility.yul\":19450:19454   */\n      0x00\n        /* \"#utility.yul\":19488:19490   */\n      0x20\n        /* \"#utility.yul\":19477:19486   */\n      dup3\n        /* \"#utility.yul\":19473:19491   */\n      add\n        /* \"#utility.yul\":19465:19491   */\n      swap1\n      pop\n        /* \"#utility.yul\":19537:19546   */\n      dup2\n        /* \"#utility.yul\":19531:19535   */\n      dup2\n        /* \"#utility.yul\":19527:19547   */\n      sub\n        /* \"#utility.yul\":19523:19524   */\n      0x00\n        /* \"#utility.yul\":19512:19521   */\n      dup4\n        /* \"#utility.yul\":19508:19525   */\n      add\n        /* \"#utility.yul\":19501:19548   */\n      mstore\n        /* \"#utility.yul\":19565:19696   */\n      tag_660\n        /* \"#utility.yul\":19691:19695   */\n      dup2\n        /* \"#utility.yul\":19565:19696   */\n      tag_564\n      jump\t// in\n    tag_660:\n        /* \"#utility.yul\":19557:19696   */\n      swap1\n      pop\n        /* \"#utility.yul\":19284:19703   */\n      swap2\n      swap1\n      pop\n      jump\t// out\n        /* \"#utility.yul\":19709:20128   */\n    tag_256:\n        /* \"#utility.yul\":19875:19879   */\n      0x00\n        /* \"#utility.yul\":19913:19915   */\n      0x20\n        /* \"#utility.yul\":19902:19911   */\n      dup3\n        /* \"#utility.yul\":19898:19916   */\n      add\n        /* \"#utility.yul\":19890:19916   */\n      swap1\n      pop\n        /* \"#utility.yul\":19962:19971   */\n      dup2\n        /* \"#utility.yul\":19956:19960   */\n      dup2\n        /* \"#utility.yul\":19952:19972   */\n      sub\n        /* \"#utility.yul\":19948:19949   */\n      0x00\n        /* \"#utility.yul\":19937:19946   */\n      dup4\n        /* \"#utility.yul\":19933:19950   */\n      add\n        /* \"#utility.yul\":19926:19973   */\n      mstore\n        /* \"#utility.yul\":19990:20121   */\n      tag_662\n        /* \"#utility.yul\":20116:20120   */\n      dup2\n        /* \"#utility.yul\":19990:20121   */\n      tag_569\n      jump\t// in\n    tag_662:\n        /* \"#utility.yul\":19982:20121   */\n      swap1\n      pop\n        /* \"#utility.yul\":19709:20128   */\n      swap2\n      swap1\n      pop\n      jump\t// out\n        /* \"#utility.yul\":20134:20553   */\n    tag_168:\n        /* \"#utility.yul\":20300:20304   */\n      0x00\n        /* \"#utility.yul\":20338:20340   */\n      0x20\n        /* \"#utility.yul\":20327:20336   */\n      dup3\n        /* \"#utility.yul\":20323:20341   */\n      add\n        /* \"#utility.yul\":20315:20341   */\n      swap1\n      pop\n        /* \"#utility.yul\":20387:20396   */\n      dup2\n        /* \"#utility.yul\":20381:20385   */\n      dup2\n        /* \"#utility.yul\":20377:20397   */\n      sub\n        /* \"#utility.yul\":20373:20374   */\n      0x00\n        /* \"#utility.yul\":20362:20371   */\n      dup4\n        /* \"#utility.yul\":20358:20375   */\n      add\n        /* \"#utility.yul\":20351:20398   */\n      mstore\n        /* \"#utility.yul\":20415:20546   */\n      tag_664\n        /* \"#utility.yul\":20541:20545   */\n      dup2\n        /* \"#utility.yul\":20415:20546   */\n      tag_574\n      jump\t// in\n    tag_664:\n        /* \"#utility.yul\":20407:20546   */\n      swap1\n      pop\n        /* \"#utility.yul\":20134:20553   */\n      swap2\n      swap1\n      pop\n      jump\t// out\n        /* \"#utility.yul\":20559:20978   */\n    tag_190:\n        /* \"#utility.yul\":20725:20729   */\n      0x00\n        /* \"#utility.yul\":20763:20765   */\n      0x20\n        /* \"#utility.yul\":20752:20761   */\n      dup3\n        /* \"#utility.yul\":20748:20766   */\n      add\n        /* \"#utility.yul\":20740:20766   */\n      swap1\n      pop\n        /* \"#utility.yul\":20812:20821   */\n      dup2\n        /* \"#utility.yul\":20806:20810   */\n      dup2\n        /* \"#utility.yul\":20802:20822   */\n      sub\n        /* \"#utility.yul\":20798:20799   */\n      0x00\n        /* \"#utility.yul\":20787:20796   */\n      dup4\n        /* \"#utility.yul\":20783:20800   */\n      add\n        /* \"#utility.yul\":20776:20823   */\n      mstore\n        /* \"#utility.yul\":20840:20971   */\n      tag_666\n        /* \"#utility.yul\":20966:20970   */\n      dup2\n        /* \"#utility.yul\":20840:20971   */\n      tag_579\n      jump\t// in\n    tag_666:\n        /* \"#utility.yul\":20832:20971   */\n      swap1\n      pop\n        /* \"#utility.yul\":20559:20978   */\n      swap2\n      swap1\n      pop\n      jump\t// out\n        /* \"#utility.yul\":20984:21403   */\n    tag_198:\n        /* \"#utility.yul\":21150:21154   */\n      0x00\n        /* \"#utility.yul\":21188:21190   */\n      0x20\n        /* \"#utility.yul\":21177:21186   */\n      dup3\n        /* \"#utility.yul\":21173:21191   */\n      add\n        /* \"#utility.yul\":21165:21191   */\n      swap1\n      pop\n        /* \"#utility.yul\":21237:21246   */\n      dup2\n        /* \"#utility.yul\":21231:21235   */\n      dup2\n        /* \"#utility.yul\":21227:21247   */\n      sub\n        /* \"#utility.yul\":21223:21224   */\n      0x00\n        /* \"#utility.yul\":21212:21221   */\n      dup4\n        /* \"#utility.yul\":21208:21225   */\n      add\n        /* \"#utility.yul\":21201:21248   */\n      mstore\n        /* \"#utility.yul\":21265:21396   */\n      tag_668\n        /* \"#utility.yul\":21391:21395   */\n      dup2\n        /* \"#utility.yul\":21265:21396   */\n      tag_584\n      jump\t// in\n    tag_668:\n        /* \"#utility.yul\":21257:21396   */\n      swap1\n      pop\n        /* \"#utility.yul\":20984:21403   */\n      swap2\n      swap1\n      pop\n      jump\t// out\n        /* \"#utility.yul\":21409:21828   */\n    tag_315:\n        /* \"#utility.yul\":21575:21579   */\n      0x00\n        /* \"#utility.yul\":21613:21615   */\n      0x20\n        /* \"#utility.yul\":21602:21611   */\n      dup3\n        /* \"#utility.yul\":21598:21616   */\n      add\n        /* \"#utility.yul\":21590:21616   */\n      swap1\n      pop\n        /* \"#utility.yul\":21662:21671   */\n      dup2\n        /* \"#utility.yul\":21656:21660   */\n      dup2\n        /* \"#utility.yul\":21652:21672   */\n      sub\n        /* \"#utility.yul\":21648:21649   */\n      0x00\n        /* \"#utility.yul\":21637:21646   */\n      dup4\n        /* \"#utility.yul\":21633:21650   */\n      add\n        /* \"#utility.yul\":21626:21673   */\n      mstore\n        /* \"#utility.yul\":21690:21821   */\n      tag_670\n        /* \"#utility.yul\":21816:21820   */\n      dup2\n        /* \"#utility.yul\":21690:21821   */\n      tag_589\n      jump\t// in\n    tag_670:\n        /* \"#utility.yul\":21682:21821   */\n      swap1\n      pop\n        /* \"#utility.yul\":21409:21828   */\n      swap2\n      swap1\n      pop\n      jump\t// out\n        /* \"#utility.yul\":21834:22056   */\n    tag_46:\n        /* \"#utility.yul\":21927:21931   */\n      0x00\n        /* \"#utility.yul\":21965:21967   */\n      0x20\n        /* \"#utility.yul\":21954:21963   */\n      dup3\n        /* \"#utility.yul\":21950:21968   */\n      add\n        /* \"#utility.yul\":21942:21968   */\n      swap1\n      pop\n        /* \"#utility.yul\":21978:22049   */\n      tag_672\n        /* \"#utility.yul\":22046:22047   */\n      0x00\n        /* \"#utility.yul\":22035:22044   */\n      dup4\n        /* \"#utility.yul\":22031:22048   */\n      add\n        /* \"#utility.yul\":22022:22028   */\n      dup5\n        /* \"#utility.yul\":21978:22049   */\n      tag_594\n      jump\t// in\n    tag_672:\n        /* \"#utility.yul\":21834:22056   */\n      swap3\n      swap2\n      pop\n      pop\n      jump\t// out\n        /* \"#utility.yul\":22062:22893   */\n    tag_403:\n        /* \"#utility.yul\":22325:22329   */\n      0x00\n        /* \"#utility.yul\":22363:22366   */\n      0xa0\n        /* \"#utility.yul\":22352:22361   */\n      dup3\n        /* \"#utility.yul\":22348:22367   */\n      add\n        /* \"#utility.yul\":22340:22367   */\n      swap1\n      pop\n        /* \"#utility.yul\":22377:22448   */\n      tag_674\n        /* \"#utility.yul\":22445:22446   */\n      0x00\n        /* \"#utility.yul\":22434:22443   */\n      dup4\n        /* \"#utility.yul\":22430:22447   */\n      add\n        /* \"#utility.yul\":22421:22427   */\n      dup9\n        /* \"#utility.yul\":22377:22448   */\n      tag_594\n      jump\t// in\n    tag_674:\n        /* \"#utility.yul\":22458:22538   */\n      tag_675\n        /* \"#utility.yul\":22534:22536   */\n      0x20\n        /* \"#utility.yul\":22523:22532   */\n      dup4\n        /* \"#utility.yul\":22519:22537   */\n      add\n        /* \"#utility.yul\":22510:22516   */\n      dup8\n        /* \"#utility.yul\":22458:22538   */\n      tag_522\n      jump\t// in\n    tag_675:\n        /* \"#utility.yul\":22585:22594   */\n      dup2\n        /* \"#utility.yul\":22579:22583   */\n      dup2\n        /* \"#utility.yul\":22575:22595   */\n      sub\n        /* \"#utility.yul\":22570:22572   */\n      0x40\n        /* \"#utility.yul\":22559:22568   */\n      dup4\n        /* \"#utility.yul\":22555:22573   */\n      add\n        /* \"#utility.yul\":22548:22596   */\n      mstore\n        /* \"#utility.yul\":22613:22721   */\n      tag_676\n        /* \"#utility.yul\":22716:22720   */\n      dup2\n        /* \"#utility.yul\":22707:22713   */\n      dup7\n        /* \"#utility.yul\":22613:22721   */\n      tag_496\n      jump\t// in\n    tag_676:\n        /* \"#utility.yul\":22605:22721   */\n      swap1\n      pop\n        /* \"#utility.yul\":22731:22803   */\n      tag_677\n        /* \"#utility.yul\":22799:22801   */\n      0x60\n        /* \"#utility.yul\":22788:22797   */\n      dup4\n        /* \"#utility.yul\":22784:22802   */\n      add\n        /* \"#utility.yul\":22775:22781   */\n      dup6\n        /* \"#utility.yul\":22731:22803   */\n      tag_493\n      jump\t// in\n    tag_677:\n        /* \"#utility.yul\":22813:22886   */\n      tag_678\n        /* \"#utility.yul\":22881:22884   */\n      0x80\n        /* \"#utility.yul\":22870:22879   */\n      dup4\n        /* \"#utility.yul\":22866:22885   */\n      add\n        /* \"#utility.yul\":22857:22863   */\n      dup5\n        /* \"#utility.yul\":22813:22886   */\n      tag_594\n      jump\t// in\n    tag_678:\n        /* \"#utility.yul\":22062:22893   */\n      swap7\n      swap6\n      pop\n      pop\n      pop\n      pop\n      pop\n      pop\n      jump\t// out\n        /* \"#utility.yul\":22899:23341   */\n    tag_90:\n        /* \"#utility.yul\":23048:23052   */\n      0x00\n        /* \"#utility.yul\":23086:23088   */\n      0x60\n        /* \"#utility.yul\":23075:23084   */\n      dup3\n        /* \"#utility.yul\":23071:23089   */\n      add\n        /* \"#utility.yul\":23063:23089   */\n      swap1\n      pop\n        /* \"#utility.yul\":23099:23170   */\n      tag_680\n        /* \"#utility.yul\":23167:23168   */\n      0x00\n        /* \"#utility.yul\":23156:23165   */\n      dup4\n        /* \"#utility.yul\":23152:23169   */\n      add\n        /* \"#utility.yul\":23143:23149   */\n      dup7\n        /* \"#utility.yul\":23099:23170   */\n      tag_594\n      jump\t// in\n    tag_680:\n        /* \"#utility.yul\":23180:23252   */\n      tag_681\n        /* \"#utility.yul\":23248:23250   */\n      0x20\n        /* \"#utility.yul\":23237:23246   */\n      dup4\n        /* \"#utility.yul\":23233:23251   */\n      add\n        /* \"#utility.yul\":23224:23230   */\n      dup6\n        /* \"#utility.yul\":23180:23252   */\n      tag_594\n      jump\t// in\n    tag_681:\n        /* \"#utility.yul\":23262:23334   */\n      tag_682\n        /* \"#utility.yul\":23330:23332   */\n      0x40\n        /* \"#utility.yul\":23319:23328   */\n      dup4\n        /* \"#utility.yul\":23315:23333   */\n      add\n        /* \"#utility.yul\":23306:23312   */\n      dup5\n        /* \"#utility.yul\":23262:23334   */\n      tag_594\n      jump\t// in\n    tag_682:\n        /* \"#utility.yul\":22899:23341   */\n      swap5\n      swap4\n      pop\n      pop\n      pop\n      pop\n      jump\t// out\n        /* \"#utility.yul\":23428:23560   */\n    tag_503:\n        /* \"#utility.yul\":23495:23499   */\n      0x00\n        /* \"#utility.yul\":23518:23521   */\n      dup2\n        /* \"#utility.yul\":23510:23521   */\n      swap1\n      pop\n        /* \"#utility.yul\":23548:23552   */\n      0x20\n        /* \"#utility.yul\":23543:23546   */\n      dup3\n        /* \"#utility.yul\":23539:23553   */\n      add\n        /* \"#utility.yul\":23531:23553   */\n      swap1\n      pop\n        /* \"#utility.yul\":23428:23560   */\n      swap2\n      swap1\n      pop\n      jump\t// out\n        /* \"#utility.yul\":23566:23680   */\n    tag_499:\n        /* \"#utility.yul\":23633:23639   */\n      0x00\n        /* \"#utility.yul\":23667:23672   */\n      dup2\n        /* \"#utility.yul\":23661:23673   */\n      mload\n        /* \"#utility.yul\":23651:23673   */\n      swap1\n      pop\n        /* \"#utility.yul\":23566:23680   */\n      swap2\n      swap1\n      pop\n      jump\t// out\n        /* \"#utility.yul\":23686:23799   */\n    tag_509:\n        /* \"#utility.yul\":23756:23760   */\n      0x00\n        /* \"#utility.yul\":23788:23792   */\n      0x20\n        /* \"#utility.yul\":23783:23786   */\n      dup3\n        /* \"#utility.yul\":23779:23793   */\n      add\n        /* \"#utility.yul\":23771:23793   */\n      swap1\n      pop\n        /* \"#utility.yul\":23686:23799   */\n      swap2\n      swap1\n      pop\n      jump\t// out\n        /* \"#utility.yul\":23805:23989   */\n    tag_501:\n        /* \"#utility.yul\":23904:23915   */\n      0x00\n        /* \"#utility.yul\":23938:23944   */\n      dup3\n        /* \"#utility.yul\":23933:23936   */\n      dup3\n        /* \"#utility.yul\":23926:23945   */\n      mstore\n        /* \"#utility.yul\":23978:23982   */\n      0x20\n        /* \"#utility.yul\":23973:23976   */\n      dup3\n        /* \"#utility.yul\":23969:23983   */\n      add\n        /* \"#utility.yul\":23954:23983   */\n      swap1\n      pop\n        /* \"#utility.yul\":23805:23989   */\n      swap3\n      swap2\n      pop\n      pop\n      jump\t// out\n        /* \"#utility.yul\":23995:24164   */\n    tag_541:\n        /* \"#utility.yul\":24079:24090   */\n      0x00\n        /* \"#utility.yul\":24113:24119   */\n      dup3\n        /* \"#utility.yul\":24108:24111   */\n      dup3\n        /* \"#utility.yul\":24101:24120   */\n      mstore\n        /* \"#utility.yul\":24153:24157   */\n      0x20\n        /* \"#utility.yul\":24148:24151   */\n      dup3\n        /* \"#utility.yul\":24144:24158   */\n      add\n        /* \"#utility.yul\":24129:24158   */\n      swap1\n      pop\n        /* \"#utility.yul\":23995:24164   */\n      swap3\n      swap2\n      pop\n      pop\n      jump\t// out\n        /* \"#utility.yul\":24170:24475   */\n    tag_180:\n        /* \"#utility.yul\":24210:24213   */\n      0x00\n        /* \"#utility.yul\":24229:24249   */\n      tag_691\n        /* \"#utility.yul\":24247:24248   */\n      dup3\n        /* \"#utility.yul\":24229:24249   */\n      tag_597\n      jump\t// in\n    tag_691:\n        /* \"#utility.yul\":24224:24249   */\n      swap2\n      pop\n        /* \"#utility.yul\":24263:24283   */\n      tag_692\n        /* \"#utility.yul\":24281:24282   */\n      dup4\n        /* \"#utility.yul\":24263:24283   */\n      tag_597\n      jump\t// in\n    tag_692:\n        /* \"#utility.yul\":24258:24283   */\n      swap3\n      pop\n        /* \"#utility.yul\":24417:24418   */\n      dup3\n        /* \"#utility.yul\":24349:24415   */\n      0xffffffffffffffffffffffffffffffffffffffffffffffffffffffffffffffff\n        /* \"#utility.yul\":24345:24419   */\n      sub\n        /* \"#utility.yul\":24342:24343   */\n      dup3\n        /* \"#utility.yul\":24339:24420   */\n      gt\n        /* \"#utility.yul\":24336:24443   */\n      iszero\n      tag_693\n      jumpi\n        /* \"#utility.yul\":24423:24441   */\n      tag_694\n      tag_695\n      jump\t// in\n    tag_694:\n        /* \"#utility.yul\":24336:24443   */\n    tag_693:\n        /* \"#utility.yul\":24467:24468   */\n      dup3\n        /* \"#utility.yul\":24464:24465   */\n      dup3\n        /* \"#utility.yul\":24460:24469   */\n      add\n        /* \"#utility.yul\":24453:24469   */\n      swap1\n      pop\n        /* \"#utility.yul\":24170:24475   */\n      swap3\n      swap2\n      pop\n      pop\n      jump\t// out\n        /* \"#utility.yul\":24481:24666   */\n    tag_412:\n        /* \"#utility.yul\":24521:24522   */\n      0x00\n        /* \"#utility.yul\":24538:24558   */\n      tag_697\n        /* \"#utility.yul\":24556:24557   */\n      dup3\n        /* \"#utility.yul\":24538:24558   */\n      tag_597\n      jump\t// in\n    tag_697:\n        /* \"#utility.yul\":24533:24558   */\n      swap2\n      pop\n        /* \"#utility.yul\":24572:24592   */\n      tag_698\n        /* \"#utility.yul\":24590:24591   */\n      dup4\n        /* \"#utility.yul\":24572:24592   */\n      tag_597\n      jump\t// in\n    tag_698:\n        /* \"#utility.yul\":24567:24592   */\n      swap3\n      pop\n        /* \"#utility.yul\":24611:24612   */\n      dup3\n        /* \"#utility.yul\":24601:24636   */\n      tag_699\n      jumpi\n        /* \"#utility.yul\":24616:24634   */\n      tag_700\n      tag_701\n      jump\t// in\n    tag_700:\n        /* \"#utility.yul\":24601:24636   */\n    tag_699:\n        /* \"#utility.yul\":24658:24659   */\n      dup3\n        /* \"#utility.yul\":24655:24656   */\n      dup3\n        /* \"#utility.yul\":24651:24660   */\n      div\n        /* \"#utility.yul\":24646:24660   */\n      swap1\n      pop\n        /* \"#utility.yul\":24481:24666   */\n      swap3\n      swap2\n      pop\n      pop\n      jump\t// out\n        /* \"#utility.yul\":24672:25020   */\n    tag_410:\n        /* \"#utility.yul\":24712:24719   */\n      0x00\n        /* \"#utility.yul\":24735:24755   */\n      tag_703\n        /* \"#utility.yul\":24753:24754   */\n      dup3\n        /* \"#utility.yul\":24735:24755   */\n      tag_597\n      jump\t// in\n    tag_703:\n        /* \"#utility.yul\":24730:24755   */\n      swap2\n      pop\n        /* \"#utility.yul\":24769:24789   */\n      tag_704\n        /* \"#utility.yul\":24787:24788   */\n      dup4\n        /* \"#utility.yul\":24769:24789   */\n      tag_597\n      jump\t// in\n    tag_704:\n        /* \"#utility.yul\":24764:24789   */\n      swap3\n      pop\n        /* \"#utility.yul\":24957:24958   */\n      dup2\n        /* \"#utility.yul\":24889:24955   */\n      0xffffffffffffffffffffffffffffffffffffffffffffffffffffffffffffffff\n        /* \"#utility.yul\":24885:24959   */\n      div\n        /* \"#utility.yul\":24882:24883   */\n      dup4\n        /* \"#utility.yul\":24879:24960   */\n      gt\n        /* \"#utility.yul\":24874:24875   */\n      dup3\n        /* \"#utility.yul\":24867:24876   */\n      iszero\n        /* \"#utility.yul\":24860:24877   */\n      iszero\n        /* \"#utility.yul\":24856:24961   */\n      and\n        /* \"#utility.yul\":24853:24984   */\n      iszero\n      tag_705\n      jumpi\n        /* \"#utility.yul\":24964:24982   */\n      tag_706\n      tag_695\n      jump\t// in\n    tag_706:\n        /* \"#utility.yul\":24853:24984   */\n    tag_705:\n        /* \"#utility.yul\":25012:25013   */\n      dup3\n        /* \"#utility.yul\":25009:25010   */\n      dup3\n        /* \"#utility.yul\":25005:25014   */\n      mul\n        /* \"#utility.yul\":24994:25014   */\n      swap1\n      pop\n        /* \"#utility.yul\":24672:25020   */\n      swap3\n      swap2\n      pop\n      pop\n      jump\t// out\n        /* \"#utility.yul\":25026:25217   */\n    tag_207:\n        /* \"#utility.yul\":25066:25070   */\n      0x00\n        /* \"#utility.yul\":25086:25106   */\n      tag_708\n        /* \"#utility.yul\":25104:25105   */\n      dup3\n        /* \"#utility.yul\":25086:25106   */\n      tag_597\n      jump\t// in\n    tag_708:\n        /* \"#utility.yul\":25081:25106   */\n      swap2\n      pop\n        /* \"#utility.yul\":25120:25140   */\n      tag_709\n        /* \"#utility.yul\":25138:25139   */\n      dup4\n        /* \"#utility.yul\":25120:25140   */\n      tag_597\n      jump\t// in\n    tag_709:\n        /* \"#utility.yul\":25115:25140   */\n      swap3\n      pop\n        /* \"#utility.yul\":25159:25160   */\n      dup3\n        /* \"#utility.yul\":25156:25157   */\n      dup3\n        /* \"#utility.yul\":25153:25161   */\n      lt\n        /* \"#utility.yul\":25150:25184   */\n      iszero\n      tag_710\n      jumpi\n        /* \"#utility.yul\":25164:25182   */\n      tag_711\n      tag_695\n      jump\t// in\n    tag_711:\n        /* \"#utility.yul\":25150:25184   */\n    tag_710:\n        /* \"#utility.yul\":25209:25210   */\n      dup3\n        /* \"#utility.yul\":25206:25207   */\n      dup3\n        /* \"#utility.yul\":25202:25211   */\n      sub\n        /* \"#utility.yul\":25194:25211   */\n      swap1\n      pop\n        /* \"#utility.yul\":25026:25217   */\n      swap3\n      swap2\n      pop\n      pop\n      jump\t// out\n        /* \"#utility.yul\":25223:25319   */\n    tag_492:\n        /* \"#utility.yul\":25260:25267   */\n      0x00\n        /* \"#utility.yul\":25289:25313   */\n      tag_713\n        /* \"#utility.yul\":25307:25312   */\n      dup3\n        /* \"#utility.yul\":25289:25313   */\n      tag_714\n      jump\t// in\n    tag_713:\n        /* \"#utility.yul\":25278:25313   */\n      swap1\n      pop\n        /* \"#utility.yul\":25223:25319   */\n      swap2\n      swap1\n      pop\n      jump\t// out\n        /* \"#utility.yul\":25325:25415   */\n    tag_513:\n        /* \"#utility.yul\":25359:25366   */\n      0x00\n        /* \"#utility.yul\":25402:25407   */\n      dup2\n        /* \"#utility.yul\":25395:25408   */\n      iszero\n        /* \"#utility.yul\":25388:25409   */\n      iszero\n        /* \"#utility.yul\":25377:25409   */\n      swap1\n      pop\n        /* \"#utility.yul\":25325:25415   */\n      swap2\n      swap1\n      pop\n      jump\t// out\n        /* \"#utility.yul\":25421:25547   */\n    tag_714:\n        /* \"#utility.yul\":25458:25465   */\n      0x00\n        /* \"#utility.yul\":25498:25540   */\n      0xffffffffffffffffffffffffffffffffffffffff\n        /* \"#utility.yul\":25491:25496   */\n      dup3\n        /* \"#utility.yul\":25487:25541   */\n      and\n        /* \"#utility.yul\":25476:25541   */\n      swap1\n      pop\n        /* \"#utility.yul\":25421:25547   */\n      swap2\n      swap1\n      pop\n      jump\t// out\n        /* \"#utility.yul\":25553:25630   */\n    tag_597:\n        /* \"#utility.yul\":25590:25597   */\n      0x00\n        /* \"#utility.yul\":25619:25624   */\n      dup2\n        /* \"#utility.yul\":25608:25624   */\n      swap1\n      pop\n        /* \"#utility.yul\":25553:25630   */\n      swap2\n      swap1\n      pop\n      jump\t// out\n        /* \"#utility.yul\":25636:25722   */\n    tag_718:\n        /* \"#utility.yul\":25671:25678   */\n      0x00\n        /* \"#utility.yul\":25711:25715   */\n      0xff\n        /* \"#utility.yul\":25704:25709   */\n      dup3\n        /* \"#utility.yul\":25700:25716   */\n      and\n        /* \"#utility.yul\":25689:25716   */\n      swap1\n      pop\n        /* \"#utility.yul\":25636:25722   */\n      swap2\n      swap1\n      pop\n      jump\t// out\n        /* \"#utility.yul\":25728:25872   */\n    tag_517:\n        /* \"#utility.yul\":25796:25805   */\n      0x00\n        /* \"#utility.yul\":25829:25866   */\n      tag_721\n        /* \"#utility.yul\":25860:25865   */\n      dup3\n        /* \"#utility.yul\":25829:25866   */\n      tag_722\n      jump\t// in\n    tag_721:\n        /* \"#utility.yul\":25816:25866   */\n      swap1\n      pop\n        /* \"#utility.yul\":25728:25872   */\n      swap2\n      swap1\n      pop\n      jump\t// out\n        /* \"#utility.yul\":25878:26018   */\n    tag_521:\n        /* \"#utility.yul\":25942:25951   */\n      0x00\n        /* \"#utility.yul\":25975:26012   */\n      tag_724\n        /* \"#utility.yul\":26006:26011   */\n      dup3\n        /* \"#utility.yul\":25975:26012   */\n      tag_722\n      jump\t// in\n    tag_724:\n        /* \"#utility.yul\":25962:26012   */\n      swap1\n      pop\n        /* \"#utility.yul\":25878:26018   */\n      swap2\n      swap1\n      pop\n      jump\t// out\n        /* \"#utility.yul\":26024:26145   */\n    tag_525:\n        /* \"#utility.yul\":26082:26091   */\n      0x00\n        /* \"#utility.yul\":26115:26139   */\n      tag_726\n        /* \"#utility.yul\":26133:26138   */\n      dup3\n        /* \"#utility.yul\":26115:26139   */\n      tag_597\n      jump\t// in\n    tag_726:\n        /* \"#utility.yul\":26102:26139   */\n      swap1\n      pop\n        /* \"#utility.yul\":26024:26145   */\n      swap2\n      swap1\n      pop\n      jump\t// out\n        /* \"#utility.yul\":26151:26268   */\n    tag_529:\n        /* \"#utility.yul\":26207:26216   */\n      0x00\n        /* \"#utility.yul\":26240:26262   */\n      tag_728\n        /* \"#utility.yul\":26256:26261   */\n      dup3\n        /* \"#utility.yul\":26240:26262   */\n      tag_718\n      jump\t// in\n    tag_728:\n        /* \"#utility.yul\":26227:26262   */\n      swap1\n      pop\n        /* \"#utility.yul\":26151:26268   */\n      swap2\n      swap1\n      pop\n      jump\t// out\n        /* \"#utility.yul\":26274:26391   */\n    tag_533:\n        /* \"#utility.yul\":26330:26339   */\n      0x00\n        /* \"#utility.yul\":26363:26385   */\n      tag_730\n        /* \"#utility.yul\":26379:26384   */\n      dup3\n        /* \"#utility.yul\":26363:26385   */\n      tag_718\n      jump\t// in\n    tag_730:\n        /* \"#utility.yul\":26350:26385   */\n      swap1\n      pop\n        /* \"#utility.yul\":26274:26391   */\n      swap2\n      swap1\n      pop\n      jump\t// out\n        /* \"#utility.yul\":26397:26514   */\n    tag_537:\n        /* \"#utility.yul\":26453:26462   */\n      0x00\n        /* \"#utility.yul\":26486:26508   */\n      tag_732\n        /* \"#utility.yul\":26502:26507   */\n      dup3\n        /* \"#utility.yul\":26486:26508   */\n      tag_718\n      jump\t// in\n    tag_732:\n        /* \"#utility.yul\":26473:26508   */\n      swap1\n      pop\n        /* \"#utility.yul\":26397:26514   */\n      swap2\n      swap1\n      pop\n      jump\t// out\n        /* \"#utility.yul\":26520:26646   */\n    tag_722:\n        /* \"#utility.yul\":26570:26579   */\n      0x00\n        /* \"#utility.yul\":26603:26640   */\n      tag_734\n        /* \"#utility.yul\":26634:26639   */\n      dup3\n        /* \"#utility.yul\":26603:26640   */\n      tag_735\n      jump\t// in\n    tag_734:\n        /* \"#utility.yul\":26590:26640   */\n      swap1\n      pop\n        /* \"#utility.yul\":26520:26646   */\n      swap2\n      swap1\n      pop\n      jump\t// out\n        /* \"#utility.yul\":26652:26765   */\n    tag_735:\n        /* \"#utility.yul\":26702:26711   */\n      0x00\n        /* \"#utility.yul\":26735:26759   */\n      tag_737\n        /* \"#utility.yul\":26753:26758   */\n      dup3\n        /* \"#utility.yul\":26735:26759   */\n      tag_714\n      jump\t// in\n    tag_737:\n        /* \"#utility.yul\":26722:26759   */\n      swap1\n      pop\n        /* \"#utility.yul\":26652:26765   */\n      swap2\n      swap1\n      pop\n      jump\t// out\n        /* \"#utility.yul\":26771:26951   */\n    tag_695:\n        /* \"#utility.yul\":26819:26896   */\n      0x4e487b7100000000000000000000000000000000000000000000000000000000\n        /* \"#utility.yul\":26816:26817   */\n      0x00\n        /* \"#utility.yul\":26809:26897   */\n      mstore\n        /* \"#utility.yul\":26916:26920   */\n      0x11\n        /* \"#utility.yul\":26913:26914   */\n      0x04\n        /* \"#utility.yul\":26906:26921   */\n      mstore\n        /* \"#utility.yul\":26940:26944   */\n      0x24\n        /* \"#utility.yul\":26937:26938   */\n      0x00\n        /* \"#utility.yul\":26930:26945   */\n      revert\n        /* \"#utility.yul\":26957:27137   */\n    tag_701:\n        /* \"#utility.yul\":27005:27082   */\n      0x4e487b7100000000000000000000000000000000000000000000000000000000\n        /* \"#utility.yul\":27002:27003   */\n      0x00\n        /* \"#utility.yul\":26995:27083   */\n      mstore\n        /* \"#utility.yul\":27102:27106   */\n      0x12\n        /* \"#utility.yul\":27099:27100   */\n      0x04\n        /* \"#utility.yul\":27092:27107   */\n      mstore\n        /* \"#utility.yul\":27126:27130   */\n      0x24\n        /* \"#utility.yul\":27123:27124   */\n      0x00\n        /* \"#utility.yul\":27116:27131   */\n      revert\n        /* \"#utility.yul\":27143:27323   */\n    tag_389:\n        /* \"#utility.yul\":27191:27268   */\n      0x4e487b7100000000000000000000000000000000000000000000000000000000\n        /* \"#utility.yul\":27188:27189   */\n      0x00\n        /* \"#utility.yul\":27181:27269   */\n      mstore\n        /* \"#utility.yul\":27288:27292   */\n      0x32\n        /* \"#utility.yul\":27285:27286   */\n      0x04\n        /* \"#utility.yul\":27278:27293   */\n      mstore\n        /* \"#utility.yul\":27312:27316   */\n      0x24\n        /* \"#utility.yul\":27309:27310   */\n      0x00\n        /* \"#utility.yul\":27302:27317   */\n      revert\n        /* \"#utility.yul\":27329:27509   */\n    tag_385:\n        /* \"#utility.yul\":27377:27454   */\n      0x4e487b7100000000000000000000000000000000000000000000000000000000\n        /* \"#utility.yul\":27374:27375   */\n      0x00\n        /* \"#utility.yul\":27367:27455   */\n      mstore\n        /* \"#utility.yul\":27474:27478   */\n      0x41\n        /* \"#utility.yul\":27471:27472   */\n      0x04\n        /* \"#utility.yul\":27464:27479   */\n      mstore\n        /* \"#utility.yul\":27498:27502   */\n      0x24\n        /* \"#utility.yul\":27495:27496   */\n      0x00\n        /* \"#utility.yul\":27488:27503   */\n      revert\n        /* \"#utility.yul\":27638:27755   */\n    tag_446:\n        /* \"#utility.yul\":27747:27748   */\n      0x00\n        /* \"#utility.yul\":27744:27745   */\n      dup1\n        /* \"#utility.yul\":27737:27749   */\n      revert\n        /* \"#utility.yul\":27761:27931   */\n    tag_543:\n        /* \"#utility.yul\":27901:27923   */\n      0x5061757361626c653a206e6f7420706175736564000000000000000000000000\n        /* \"#utility.yul\":27897:27898   */\n      0x00\n        /* \"#utility.yul\":27889:27895   */\n      dup3\n        /* \"#utility.yul\":27885:27899   */\n      add\n        /* \"#utility.yul\":27878:27924   */\n      mstore\n        /* \"#utility.yul\":27761:27931   */\n      pop\n      jump\t// out\n        /* \"#utility.yul\":27937:28162   */\n    tag_548:\n        /* \"#utility.yul\":28077:28111   */\n      0x4f776e61626c653a206e6577206f776e657220697320746865207a65726f2061\n        /* \"#utility.yul\":28073:28074   */\n      0x00\n        /* \"#utility.yul\":28065:28071   */\n      dup3\n        /* \"#utility.yul\":28061:28075   */\n      add\n        /* \"#utility.yul\":28054:28112   */\n      mstore\n        /* \"#utility.yul\":28146:28154   */\n      0x6464726573730000000000000000000000000000000000000000000000000000\n        /* \"#utility.yul\":28141:28143   */\n      0x20\n        /* \"#utility.yul\":28133:28139   */\n      dup3\n        /* \"#utility.yul\":28129:28144   */\n      add\n        /* \"#utility.yul\":28122:28155   */\n      mstore\n        /* \"#utility.yul\":27937:28162   */\n      pop\n      jump\t// out\n        /* \"#utility.yul\":28168:28348   */\n    tag_553:\n        /* \"#utility.yul\":28308:28340   */\n      0x4e6f7420656e6f7567682062616c616e636520746f2077697468647261770000\n        /* \"#utility.yul\":28304:28305   */\n      0x00\n        /* \"#utility.yul\":28296:28302   */\n      dup3\n        /* \"#utility.yul\":28292:28306   */\n      add\n        /* \"#utility.yul\":28285:28341   */\n      mstore\n        /* \"#utility.yul\":28168:28348   */\n      pop\n      jump\t// out\n        /* \"#utility.yul\":28354:28575   */\n    tag_558:\n        /* \"#utility.yul\":28494:28528   */\n      0x596f7527726520616c726561647920696e2074686973205374616b65206c6576\n        /* \"#utility.yul\":28490:28491   */\n      0x00\n        /* \"#utility.yul\":28482:28488   */\n      dup3\n        /* \"#utility.yul\":28478:28492   */\n      add\n        /* \"#utility.yul\":28471:28529   */\n      mstore\n        /* \"#utility.yul\":28563:28567   */\n      0x656c000000000000000000000000000000000000000000000000000000000000\n        /* \"#utility.yul\":28558:28560   */\n      0x20\n        /* \"#utility.yul\":28550:28556   */\n      dup3\n        /* \"#utility.yul\":28546:28561   */\n      add\n        /* \"#utility.yul\":28539:28568   */\n      mstore\n        /* \"#utility.yul\":28354:28575   */\n      pop\n      jump\t// out\n        /* \"#utility.yul\":28581:28753   */\n    tag_563:\n        /* \"#utility.yul\":28721:28745   */\n      0x55736572206973206e6f74206f6e204c6576656c203100000000000000000000\n        /* \"#utility.yul\":28717:28718   */\n      0x00\n        /* \"#utility.yul\":28709:28715   */\n      dup3\n        /* \"#utility.yul\":28705:28719   */\n      add\n        /* \"#utility.yul\":28698:28746   */\n      mstore\n        /* \"#utility.yul\":28581:28753   */\n      pop\n      jump\t// out\n        /* \"#utility.yul\":28759:28925   */\n    tag_568:\n        /* \"#utility.yul\":28899:28917   */\n      0x5061757361626c653a2070617573656400000000000000000000000000000000\n        /* \"#utility.yul\":28895:28896   */\n      0x00\n        /* \"#utility.yul\":28887:28893   */\n      dup3\n        /* \"#utility.yul\":28883:28897   */\n      add\n        /* \"#utility.yul\":28876:28918   */\n      mstore\n        /* \"#utility.yul\":28759:28925   */\n      pop\n      jump\t// out\n        /* \"#utility.yul\":28931:29103   */\n    tag_573:\n        /* \"#utility.yul\":29071:29095   */\n      0x55736572206973206e6f74206f6e204c6576656c203000000000000000000000\n        /* \"#utility.yul\":29067:29068   */\n      0x00\n        /* \"#utility.yul\":29059:29065   */\n      dup3\n        /* \"#utility.yul\":29055:29069   */\n      add\n        /* \"#utility.yul\":29048:29096   */\n      mstore\n        /* \"#utility.yul\":28931:29103   */\n      pop\n      jump\t// out\n        /* \"#utility.yul\":29109:29346   */\n    tag_578:\n        /* \"#utility.yul\":29249:29283   */\n      0x416d6f756e74206e6565647320746f206265206d6f7265207468616e206d696e\n        /* \"#utility.yul\":29245:29246   */\n      0x00\n        /* \"#utility.yul\":29237:29243   */\n      dup3\n        /* \"#utility.yul\":29233:29247   */\n      add\n        /* \"#utility.yul\":29226:29284   */\n      mstore\n        /* \"#utility.yul\":29318:29338   */\n      0x20616e64206c657373207468616e206d61780000000000000000000000000000\n        /* \"#utility.yul\":29313:29315   */\n      0x20\n        /* \"#utility.yul\":29305:29311   */\n      dup3\n        /* \"#utility.yul\":29301:29316   */\n      add\n        /* \"#utility.yul\":29294:29339   */\n      mstore\n        /* \"#utility.yul\":29109:29346   */\n      pop\n      jump\t// out\n        /* \"#utility.yul\":29352:29534   */\n    tag_583:\n        /* \"#utility.yul\":29492:29526   */\n      0x4f776e61626c653a2063616c6c6572206973206e6f7420746865206f776e6572\n        /* \"#utility.yul\":29488:29489   */\n      0x00\n        /* \"#utility.yul\":29480:29486   */\n      dup3\n        /* \"#utility.yul\":29476:29490   */\n      add\n        /* \"#utility.yul\":29469:29527   */\n      mstore\n        /* \"#utility.yul\":29352:29534   */\n      pop\n      jump\t// out\n        /* \"#utility.yul\":29540:29705   */\n    tag_588:\n        /* \"#utility.yul\":29680:29697   */\n      0x55736572206973206e6f74205669700000000000000000000000000000000000\n        /* \"#utility.yul\":29676:29677   */\n      0x00\n        /* \"#utility.yul\":29668:29674   */\n      dup3\n        /* \"#utility.yul\":29664:29678   */\n      add\n        /* \"#utility.yul\":29657:29698   */\n      mstore\n        /* \"#utility.yul\":29540:29705   */\n      pop\n      jump\t// out\n        /* \"#utility.yul\":29711:29892   */\n    tag_593:\n        /* \"#utility.yul\":29851:29884   */\n      0x596f7527726520616c726561647920696e2074686520566970205374616b6500\n        /* \"#utility.yul\":29847:29848   */\n      0x00\n        /* \"#utility.yul\":29839:29845   */\n      dup3\n        /* \"#utility.yul\":29835:29849   */\n      add\n        /* \"#utility.yul\":29828:29885   */\n      mstore\n        /* \"#utility.yul\":29711:29892   */\n      pop\n      jump\t// out\n        /* \"#utility.yul\":29898:30020   */\n    tag_427:\n        /* \"#utility.yul\":29971:29995   */\n      tag_757\n        /* \"#utility.yul\":29989:29994   */\n      dup2\n        /* \"#utility.yul\":29971:29995   */\n      tag_492\n      jump\t// in\n    tag_757:\n        /* \"#utility.yul\":29964:29969   */\n      dup2\n        /* \"#utility.yul\":29961:29996   */\n      eq\n        /* \"#utility.yul\":29951:30014   */\n      tag_758\n      jumpi\n        /* \"#utility.yul\":30010:30011   */\n      0x00\n        /* \"#utility.yul\":30007:30008   */\n      dup1\n        /* \"#utility.yul\":30000:30012   */\n      revert\n        /* \"#utility.yul\":29951:30014   */\n    tag_758:\n        /* \"#utility.yul\":29898:30020   */\n      pop\n      jump\t// out\n        /* \"#utility.yul\":30026:30142   */\n    tag_434:\n        /* \"#utility.yul\":30096:30117   */\n      tag_760\n        /* \"#utility.yul\":30111:30116   */\n      dup2\n        /* \"#utility.yul\":30096:30117   */\n      tag_513\n      jump\t// in\n    tag_760:\n        /* \"#utility.yul\":30089:30094   */\n      dup2\n        /* \"#utility.yul\":30086:30118   */\n      eq\n        /* \"#utility.yul\":30076:30136   */\n      tag_761\n      jumpi\n        /* \"#utility.yul\":30132:30133   */\n      0x00\n        /* \"#utility.yul\":30129:30130   */\n      dup1\n        /* \"#utility.yul\":30122:30134   */\n      revert\n        /* \"#utility.yul\":30076:30136   */\n    tag_761:\n        /* \"#utility.yul\":30026:30142   */\n      pop\n      jump\t// out\n        /* \"#utility.yul\":30148:30270   */\n    tag_438:\n        /* \"#utility.yul\":30221:30245   */\n      tag_763\n        /* \"#utility.yul\":30239:30244   */\n      dup2\n        /* \"#utility.yul\":30221:30245   */\n      tag_597\n      jump\t// in\n    tag_763:\n        /* \"#utility.yul\":30214:30219   */\n      dup2\n        /* \"#utility.yul\":30211:30246   */\n      eq\n        /* \"#utility.yul\":30201:30264   */\n      tag_764\n      jumpi\n        /* \"#utility.yul\":30260:30261   */\n      0x00\n        /* \"#utility.yul\":30257:30258   */\n      dup1\n        /* \"#utility.yul\":30250:30262   */\n      revert\n        /* \"#utility.yul\":30201:30264   */\n    tag_764:\n        /* \"#utility.yul\":30148:30270   */\n      pop\n      jump\t// out\n        /* \"#utility.yul\":30276:30394   */\n    tag_442:\n        /* \"#utility.yul\":30347:30369   */\n      tag_766\n        /* \"#utility.yul\":30363:30368   */\n      dup2\n        /* \"#utility.yul\":30347:30369   */\n      tag_718\n      jump\t// in\n    tag_766:\n        /* \"#utility.yul\":30340:30345   */\n      dup2\n        /* \"#utility.yul\":30337:30370   */\n      eq\n        /* \"#utility.yul\":30327:30388   */\n      tag_767\n      jumpi\n        /* \"#utility.yul\":30384:30385   */\n      0x00\n        /* \"#utility.yul\":30381:30382   */\n      dup1\n        /* \"#utility.yul\":30374:30386   */\n      revert\n        /* \"#utility.yul\":30327:30388   */\n    tag_767:\n        /* \"#utility.yul\":30276:30394   */\n      pop\n      jump\t// out\n\n    auxdata: 0xa264697066735822122018aee7be91aaa64835d94352fbd81732f09fe12062ab203717e6d9b00ecfd15f64736f6c63430008070033\n}\n",
				"bytecode": {
					"linkReferences": {},
					"object": "60a0604052610a8c600255610e746003556112c06004556802b5e3af16b18800006005556b019d971e4fe8401e7400000060065568056bc75e2d631000006007556b019d971e4fe8401e74000000600855680ad78ebc5ac62000006009556b0813f3978f89409844000000600a553480156200007a57600080fd5b5060405162003ba638038062003ba68339818101604052810190620000a0919062000256565b620000c0620000b46200017360201b60201c565b6200017b60201b60201c565b60008060146101000a81548160ff02191690831515021790555080600160006101000a81548173ffffffffffffffffffffffffffffffffffffffff021916908373ffffffffffffffffffffffffffffffffffffffff1602179055506000737a250d5630b4cf539739df2c5dacb4c659f2488d90508073ffffffffffffffffffffffffffffffffffffffff1660808173ffffffffffffffffffffffffffffffffffffffff1660601b815250505050620002db565b600033905090565b60008060009054906101000a900473ffffffffffffffffffffffffffffffffffffffff169050816000806101000a81548173ffffffffffffffffffffffffffffffffffffffff021916908373ffffffffffffffffffffffffffffffffffffffff1602179055508173ffffffffffffffffffffffffffffffffffffffff168173ffffffffffffffffffffffffffffffffffffffff167f8be0079c531659141344cd1fd0a4f28419497f9722a3daafe3b4186f6b6457e060405160405180910390a35050565b6000815190506200025081620002c1565b92915050565b6000602082840312156200026f576200026e620002bc565b5b60006200027f848285016200023f565b91505092915050565b600062000295826200029c565b9050919050565b600073ffffffffffffffffffffffffffffffffffffffff82169050919050565b600080fd5b620002cc8162000288565b8114620002d857600080fd5b50565b60805160601c6138976200030f6000396000818161062e015281816124d0015281816125fa015261268c01526138976000f3fe608060405234801561001057600080fd5b50600436106101fb5760003560e01c80637fe509d71161011a57806397e9c5fe116100ad578063e5d157011161007c578063e5d1570114610586578063f2fde38b146105a2578063f4217e1e146105be578063f7edf9ab146105da578063fe2981b51461060a576101fb565b806397e9c5fe146104fe578063bb66486414610530578063bf01651a1461054c578063d3900a5214610568576101fb565b80638da5cb5b116100e95780638da5cb5b146104885780638f0fb2b7146104a657806391789cef146104c4578063927e5998146104e2576101fb565b80637fe509d7146103fe5780638275b1811461043057806384203f4b1461044e5780638456cb591461047e576101fb565b80636296e7501161019257806367911ba41161016157806367911ba41461037457806369e06848146103a6578063715018a6146103d657806371a1609b146103e0576101fb565b80636296e750146102da578063635ef2851461030a5780636505cf311461033a5780636636389e14610358576101fb565b806332938e3a116101ce57806332938e3a146102765780633f4ba83a14610294578063451c3d801461029e5780635c975abb146102bc576101fb565b806301ef4739146102005780631694505e1461021e5780631ed81ff81461023c5780631ff08fee14610258575b600080fd5b610208610626565b604051610215919061321f565b60405180910390f35b61022661062c565b6040516102339190613089565b60405180910390f35b61025660048036038101906102519190612a67565b610650565b005b610260610961565b60405161026d919061321f565b60405180910390f35b61027e610967565b60405161028b919061321f565b60405180910390f35b61029c61096d565b005b6102a66109f3565b6040516102b391906130a4565b60405180910390f35b6102c4610a19565b6040516102d1919061306e565b60405180910390f35b6102f460048036038101906102ef919061294d565b610a2f565b604051610301919061306e565b60405180910390f35b610324600480360381019061031f919061294d565b610a4f565b604051610331919061306e565b60405180910390f35b610342610a6f565b60405161034f919061321f565b60405180910390f35b610372600480360381019061036d9190612a67565b610a75565b005b61038e6004803603810190610389919061294d565b610e89565b60405161039d93929190613294565b60405180910390f35b6103c060048036038101906103bb91906129e7565b610eb3565b6040516103cd919061321f565b60405180910390f35b6103de610ff8565b005b6103e8611080565b6040516103f5919061321f565b60405180910390f35b6104186004803603810190610413919061294d565b611086565b60405161042793929190613294565b60405180910390f35b6104386110b0565b604051610445919061321f565b60405180910390f35b6104686004803603810190610463919061294d565b6110b6565b604051610475919061306e565b60405180910390f35b6104866110d6565b005b61049061115c565b60405161049d9190612e01565b60405180910390f35b6104ae611185565b6040516104bb919061321f565b60405180910390f35b6104cc61118b565b6040516104d9919061321f565b60405180910390f35b6104fc60048036038101906104f79190612a67565b611191565b005b6105186004803603810190610513919061294d565b6115a5565b60405161052793929190613294565b60405180910390f35b61054a60048036038101906105459190612a67565b6115cf565b005b61056660048036038101906105619190612a67565b6119e3565b005b610570611cf4565b60405161057d919061321f565b60405180910390f35b6105a0600480360381019061059b9190612a94565b611cfa565b005b6105bc60048036038101906105b7919061294d565b611d90565b005b6105d860048036038101906105d39190612ae7565b611e88565b005b6105f460048036038101906105ef91906129a7565b611f36565b604051610601919061306e565b60405180910390f35b610624600480360381019061061f9190612a67565b612055565b005b60075481565b7f000000000000000000000000000000000000000000000000000000000000000081565b610658610a19565b15610698576040517f08c379a000000000000000000000000000000000000000000000000000000000815260040161068f9061315f565b60405180910390fd5b60085481111580156106ac57506007548110155b6106eb576040517f08c379a00000000000000000000000000000000000000000000000000000000081526004016106e29061319f565b60405180910390fd5b6000339050600d60008273ffffffffffffffffffffffffffffffffffffffff1673ffffffffffffffffffffffffffffffffffffffff16815260200190815260200160002060009054906101000a900460ff161561077d576040517f08c379a00000000000000000000000000000000000000000000000000000000081526004016107749061311f565b60405180910390fd5b600160009054906101000a900473ffffffffffffffffffffffffffffffffffffffff1673ffffffffffffffffffffffffffffffffffffffff166323b872dd8230856040518463ffffffff1660e01b81526004016107dc93929190612e1c565b602060405180830381600087803b1580156107f657600080fd5b505af115801561080a573d6000803e3d6000fd5b505050506040513d601f19601f8201168201806040525081019061082e9190612a3a565b506001600d60008373ffffffffffffffffffffffffffffffffffffffff1673ffffffffffffffffffffffffffffffffffffffff16815260200190815260200160002060006101000a81548160ff0219169083151502179055506040518060600160405280838152602001428152602001610320426108ac9190613315565b815250600e60008373ffffffffffffffffffffffffffffffffffffffff1673ffffffffffffffffffffffffffffffffffffffff1681526020019081526020016000206000820151816000015560208201518160010155604082015181600201559050507f17849bb8c713de96b48f218d3bacc9af082261c3ccc7c6dccebe70e667b22f23816001844262278d00426109449190613315565b604051610955959493929190612f4c565b60405180910390a15050565b60035481565b60045481565b610975612366565b73ffffffffffffffffffffffffffffffffffffffff1661099361115c565b73ffffffffffffffffffffffffffffffffffffffff16146109e9576040517f08c379a00000000000000000000000000000000000000000000000000000000081526004016109e0906131bf565b60405180910390fd5b6109f161236e565b565b600160009054906101000a900473ffffffffffffffffffffffffffffffffffffffff1681565b60008060149054906101000a900460ff16905090565b600b6020528060005260406000206000915054906101000a900460ff1681565b600d6020528060005260406000206000915054906101000a900460ff1681565b60055481565b6000339050600f60008273ffffffffffffffffffffffffffffffffffffffff1673ffffffffffffffffffffffffffffffffffffffff16815260200190815260200160002060009054906101000a900460ff16610b06576040517f08c379a0000000000000000000000000000000000000000000000000000000008152600401610afd906131df565b60405180910390fd5b6000601060008373ffffffffffffffffffffffffffffffffffffffff1673ffffffffffffffffffffffffffffffffffffffff16815260200190815260200160002060000154905082811015610b90576040517f08c379a0000000000000000000000000000000000000000000000000000000008152600401610b87906130ff565b60405180910390fd5b6000610b9d836002611f36565b90506000610bad84600287610eb3565b905082851415610c6e57601060008573ffffffffffffffffffffffffffffffffffffffff1673ffffffffffffffffffffffffffffffffffffffff1681526020019081526020016000206000808201600090556001820160009055600282016000905550506000600f60008673ffffffffffffffffffffffffffffffffffffffff1673ffffffffffffffffffffffffffffffffffffffff16815260200190815260200160002060006101000a81548160ff021916908315150217905550610cc8565b84601060008673ffffffffffffffffffffffffffffffffffffffff1673ffffffffffffffffffffffffffffffffffffffff1681526020019081526020016000206000016000828254610cc091906133f6565b925050819055505b8115610d8d57600160009054906101000a900473ffffffffffffffffffffffffffffffffffffffff1673ffffffffffffffffffffffffffffffffffffffff1663a9059cbb85876040518363ffffffff1660e01b8152600401610d2b929190613045565b602060405180830381600087803b158015610d4557600080fd5b505af1158015610d59573d6000803e3d6000fd5b505050506040513d601f19601f82011682018060405250810190610d7d9190612a3a565b50610d88818561240f565b610e42565b60009050600160009054906101000a900473ffffffffffffffffffffffffffffffffffffffff1673ffffffffffffffffffffffffffffffffffffffff1663a9059cbb85876040518363ffffffff1660e01b8152600401610dee929190613045565b602060405180830381600087803b158015610e0857600080fd5b505af1158015610e1c573d6000803e3d6000fd5b505050506040513d601f19601f82011682018060405250810190610e409190612a3a565b505b7fa3dff5863d601223d9b31a0253b97a6c2085daca56089b92836b4b6a1991e04b846002848885604051610e7a959493929190612f9f565b60405180910390a15050505050565b600c6020528060005260406000206000915090508060000154908060010154908060020154905083565b6000808360ff161415610f1c576000600c60008673ffffffffffffffffffffffffffffffffffffffff1673ffffffffffffffffffffffffffffffffffffffff168152602001908152602001600020600101549050610f148382600254612723565b915050610ff1565b60018360ff161415610f84576000600e60008673ffffffffffffffffffffffffffffffffffffffff1673ffffffffffffffffffffffffffffffffffffffff168152602001908152602001600020600101549050610f7c8382600354612723565b915050610ff1565b60028360ff161415610fec576000601060008673ffffffffffffffffffffffffffffffffffffffff1673ffffffffffffffffffffffffffffffffffffffff168152602001908152602001600020600101549050610fe48382600454612723565b915050610ff1565b600090505b9392505050565b611000612366565b73ffffffffffffffffffffffffffffffffffffffff1661101e61115c565b73ffffffffffffffffffffffffffffffffffffffff1614611074576040517f08c379a000000000000000000000000000000000000000000000000000000000815260040161106b906131bf565b60405180910390fd5b61107e600061277d565b565b60065481565b600e6020528060005260406000206000915090508060000154908060010154908060020154905083565b60025481565b600f6020528060005260406000206000915054906101000a900460ff1681565b6110de612366565b73ffffffffffffffffffffffffffffffffffffffff166110fc61115c565b73ffffffffffffffffffffffffffffffffffffffff1614611152576040517f08c379a0000000000000000000000000000000000000000000000000000000008152600401611149906131bf565b60405180910390fd5b61115a612841565b565b60008060009054906101000a900473ffffffffffffffffffffffffffffffffffffffff16905090565b600a5481565b60095481565b6000339050600b60008273ffffffffffffffffffffffffffffffffffffffff1673ffffffffffffffffffffffffffffffffffffffff16815260200190815260200160002060009054906101000a900460ff16611222576040517f08c379a00000000000000000000000000000000000000000000000000000000081526004016112199061317f565b60405180910390fd5b6000600c60008373ffffffffffffffffffffffffffffffffffffffff1673ffffffffffffffffffffffffffffffffffffffff168152602001908152602001600020600001549050828110156112ac576040517f08c379a00000000000000000000000000000000000000000000000000000000081526004016112a3906130ff565b60405180910390fd5b60006112b9836000611f36565b905060006112c984600087610eb3565b90508285141561138a57600c60008573ffffffffffffffffffffffffffffffffffffffff1673ffffffffffffffffffffffffffffffffffffffff1681526020019081526020016000206000808201600090556001820160009055600282016000905550506000600b60008673ffffffffffffffffffffffffffffffffffffffff1673ffffffffffffffffffffffffffffffffffffffff16815260200190815260200160002060006101000a81548160ff0219169083151502179055506113e4565b84600c60008673ffffffffffffffffffffffffffffffffffffffff1673ffffffffffffffffffffffffffffffffffffffff16815260200190815260200160002060000160008282546113dc91906133f6565b925050819055505b81156114a957600160009054906101000a900473ffffffffffffffffffffffffffffffffffffffff1673ffffffffffffffffffffffffffffffffffffffff1663a9059cbb85876040518363ffffffff1660e01b8152600401611447929190613045565b602060405180830381600087803b15801561146157600080fd5b505af1158015611475573d6000803e3d6000fd5b505050506040513d601f19601f820116820180604052508101906114999190612a3a565b506114a4818561240f565b61155e565b60009050600160009054906101000a900473ffffffffffffffffffffffffffffffffffffffff1673ffffffffffffffffffffffffffffffffffffffff1663a9059cbb85876040518363ffffffff1660e01b815260040161150a929190613045565b602060405180830381600087803b15801561152457600080fd5b505af1158015611538573d6000803e3d6000fd5b505050506040513d601f19601f8201168201806040525081019061155c9190612a3a565b505b7fa3dff5863d601223d9b31a0253b97a6c2085daca56089b92836b4b6a1991e04b846000848885604051611596959493929190612e53565b60405180910390a15050505050565b60106020528060005260406000206000915090508060000154908060010154908060020154905083565b6000339050600d60008273ffffffffffffffffffffffffffffffffffffffff1673ffffffffffffffffffffffffffffffffffffffff16815260200190815260200160002060009054906101000a900460ff16611660576040517f08c379a00000000000000000000000000000000000000000000000000000000081526004016116579061313f565b60405180910390fd5b6000600e60008373ffffffffffffffffffffffffffffffffffffffff1673ffffffffffffffffffffffffffffffffffffffff168152602001908152602001600020600001549050828110156116ea576040517f08c379a00000000000000000000000000000000000000000000000000000000081526004016116e1906130ff565b60405180910390fd5b60006116f7836001611f36565b9050600061170784600187610eb3565b9050828514156117c857600e60008573ffffffffffffffffffffffffffffffffffffffff1673ffffffffffffffffffffffffffffffffffffffff1681526020019081526020016000206000808201600090556001820160009055600282016000905550506000600d60008673ffffffffffffffffffffffffffffffffffffffff1673ffffffffffffffffffffffffffffffffffffffff16815260200190815260200160002060006101000a81548160ff021916908315150217905550611822565b84600e60008673ffffffffffffffffffffffffffffffffffffffff1673ffffffffffffffffffffffffffffffffffffffff168152602001908152602001600020600001600082825461181a91906133f6565b925050819055505b81156118e757600160009054906101000a900473ffffffffffffffffffffffffffffffffffffffff1673ffffffffffffffffffffffffffffffffffffffff1663a9059cbb85876040518363ffffffff1660e01b8152600401611885929190613045565b602060405180830381600087803b15801561189f57600080fd5b505af11580156118b3573d6000803e3d6000fd5b505050506040513d601f19601f820116820180604052508101906118d79190612a3a565b506118e2818561240f565b61199c565b60009050600160009054906101000a900473ffffffffffffffffffffffffffffffffffffffff1673ffffffffffffffffffffffffffffffffffffffff1663a9059cbb85876040518363ffffffff1660e01b8152600401611948929190613045565b602060405180830381600087803b15801561196257600080fd5b505af1158015611976573d6000803e3d6000fd5b505050506040513d601f19601f8201168201806040525081019061199a9190612a3a565b505b7fa3dff5863d601223d9b31a0253b97a6c2085daca56089b92836b4b6a1991e04b8460018488856040516119d4959493929190612ef9565b60405180910390a15050505050565b6119eb610a19565b15611a2b576040517f08c379a0000000000000000000000000000000000000000000000000000000008152600401611a229061315f565b60405180910390fd5b600a548111158015611a3f57506009548110155b611a7e576040517f08c379a0000000000000000000000000000000000000000000000000000000008152600401611a759061319f565b60405180910390fd5b6000339050600f60008273ffffffffffffffffffffffffffffffffffffffff1673ffffffffffffffffffffffffffffffffffffffff16815260200190815260200160002060009054906101000a900460ff1615611b10576040517f08c379a0000000000000000000000000000000000000000000000000000000008152600401611b07906131ff565b60405180910390fd5b600160009054906101000a900473ffffffffffffffffffffffffffffffffffffffff1673ffffffffffffffffffffffffffffffffffffffff166323b872dd8230856040518463ffffffff1660e01b8152600401611b6f93929190612e1c565b602060405180830381600087803b158015611b8957600080fd5b505af1158015611b9d573d6000803e3d6000fd5b505050506040513d601f19601f82011682018060405250810190611bc19190612a3a565b506001600f60008373ffffffffffffffffffffffffffffffffffffffff1673ffffffffffffffffffffffffffffffffffffffff16815260200190815260200160002060006101000a81548160ff02191690831515021790555060405180606001604052808381526020014281526020016104b042611c3f9190613315565b815250601060008373ffffffffffffffffffffffffffffffffffffffff1673ffffffffffffffffffffffffffffffffffffffff1681526020019081526020016000206000820151816000015560208201518160010155604082015181600201559050507f17849bb8c713de96b48f218d3bacc9af082261c3ccc7c6dccebe70e667b22f2381600284426276a70042611cd79190613315565b604051611ce8959493929190612ff2565b60405180910390a15050565b60085481565b611d02612366565b73ffffffffffffffffffffffffffffffffffffffff16611d2061115c565b73ffffffffffffffffffffffffffffffffffffffff1614611d76576040517f08c379a0000000000000000000000000000000000000000000000000000000008152600401611d6d906131bf565b60405180910390fd5b826002819055508160038190555080600481905550505050565b611d98612366565b73ffffffffffffffffffffffffffffffffffffffff16611db661115c565b73ffffffffffffffffffffffffffffffffffffffff1614611e0c576040517f08c379a0000000000000000000000000000000000000000000000000000000008152600401611e03906131bf565b60405180910390fd5b600073ffffffffffffffffffffffffffffffffffffffff168173ffffffffffffffffffffffffffffffffffffffff161415611e7c576040517f08c379a0000000000000000000000000000000000000000000000000000000008152600401611e73906130df565b60405180910390fd5b611e858161277d565b50565b611e90612366565b73ffffffffffffffffffffffffffffffffffffffff16611eae61115c565b73ffffffffffffffffffffffffffffffffffffffff1614611f04576040517f08c379a0000000000000000000000000000000000000000000000000000000008152600401611efb906131bf565b60405180910390fd5b856005819055508460068190555083600781905550826008819055508160098190555080600a81905550505050505050565b60008060008360ff161415611f8f57600c60008573ffffffffffffffffffffffffffffffffffffffff1673ffffffffffffffffffffffffffffffffffffffff168152602001908152602001600020600201549050612047565b60018360ff161415611fe557600e60008573ffffffffffffffffffffffffffffffffffffffff1673ffffffffffffffffffffffffffffffffffffffff168152602001908152602001600020600201549050612046565b60028360ff16141561203b57601060008573ffffffffffffffffffffffffffffffffffffffff1673ffffffffffffffffffffffffffffffffffffffff168152602001908152602001600020600201549050612045565b600091505061204f565b5b5b804210159150505b92915050565b61205d610a19565b1561209d576040517f08c379a00000000000000000000000000000000000000000000000000000000081526004016120949061315f565b60405180910390fd5b60065481111580156120b157506005548110155b6120f0576040517f08c379a00000000000000000000000000000000000000000000000000000000081526004016120e79061319f565b60405180910390fd5b6000339050600b60008273ffffffffffffffffffffffffffffffffffffffff1673ffffffffffffffffffffffffffffffffffffffff16815260200190815260200160002060009054906101000a900460ff1615612182576040517f08c379a00000000000000000000000000000000000000000000000000000000081526004016121799061311f565b60405180910390fd5b600160009054906101000a900473ffffffffffffffffffffffffffffffffffffffff1673ffffffffffffffffffffffffffffffffffffffff166323b872dd8230856040518463ffffffff1660e01b81526004016121e193929190612e1c565b602060405180830381600087803b1580156121fb57600080fd5b505af115801561220f573d6000803e3d6000fd5b505050506040513d601f19601f820116820180604052508101906122339190612a3a565b506001600b60008373ffffffffffffffffffffffffffffffffffffffff1673ffffffffffffffffffffffffffffffffffffffff16815260200190815260200160002060006101000a81548160ff0219169083151502179055506040518060600160405280838152602001428152602001610258426122b19190613315565b815250600c60008373ffffffffffffffffffffffffffffffffffffffff1673ffffffffffffffffffffffffffffffffffffffff1681526020019081526020016000206000820151816000015560208201518160010155604082015181600201559050507f17849bb8c713de96b48f218d3bacc9af082261c3ccc7c6dccebe70e667b22f23816000844262093a80426123499190613315565b60405161235a959493929190612ea6565b60405180910390a15050565b600033905090565b612376610a19565b6123b5576040517f08c379a00000000000000000000000000000000000000000000000000000000081526004016123ac906130bf565b60405180910390fd5b60008060146101000a81548160ff0219169083151502179055507f5db9ee0a495bf2e6ff9c91a7834c1ba4fdd244a5e8aa4e537bd38aeae4b073aa6123f8612366565b6040516124059190612e01565b60405180910390a1565b6000600267ffffffffffffffff81111561242c5761242b61359c565b5b60405190808252806020026020018201604052801561245a5781602001602082028036833780820191505090505b509050600160009054906101000a900473ffffffffffffffffffffffffffffffffffffffff16816000815181106124945761249361356d565b5b602002602001019073ffffffffffffffffffffffffffffffffffffffff16908173ffffffffffffffffffffffffffffffffffffffff16815250507f000000000000000000000000000000000000000000000000000000000000000073ffffffffffffffffffffffffffffffffffffffff1663ad5c46486040518163ffffffff1660e01b815260040160206040518083038186803b15801561253457600080fd5b505afa158015612548573d6000803e3d6000fd5b505050506040513d601f19601f8201168201806040525081019061256c919061297a565b816001815181106125805761257f61356d565b5b602002602001019073ffffffffffffffffffffffffffffffffffffffff16908173ffffffffffffffffffffffffffffffffffffffff1681525050600160009054906101000a900473ffffffffffffffffffffffffffffffffffffffff1673ffffffffffffffffffffffffffffffffffffffff1663095ea7b37f0000000000000000000000000000000000000000000000000000000000000000856040518363ffffffff1660e01b8152600401612637929190613045565b602060405180830381600087803b15801561265157600080fd5b505af1158015612665573d6000803e3d6000fd5b505050506040513d601f19601f820116820180604052508101906126899190612a3a565b507f000000000000000000000000000000000000000000000000000000000000000073ffffffffffffffffffffffffffffffffffffffff1663791ac9478460008486426040518663ffffffff1660e01b81526004016126ec95949392919061323a565b600060405180830381600087803b15801561270657600080fd5b505af115801561271a573d6000803e3d6000fd5b50505050505050565b600080834261273291906133f6565b905060006301e13380612710858861274a919061339c565b612754919061336b565b61275e919061336b565b90506000818361276e919061339c565b90508093505050509392505050565b60008060009054906101000a900473ffffffffffffffffffffffffffffffffffffffff169050816000806101000a81548173ffffffffffffffffffffffffffffffffffffffff021916908373ffffffffffffffffffffffffffffffffffffffff1602179055508173ffffffffffffffffffffffffffffffffffffffff168173ffffffffffffffffffffffffffffffffffffffff167f8be0079c531659141344cd1fd0a4f28419497f9722a3daafe3b4186f6b6457e060405160405180910390a35050565b612849610a19565b15612889576040517f08c379a00000000000000000000000000000000000000000000000000000000081526004016128809061315f565b60405180910390fd5b6001600060146101000a81548160ff0219169083151502179055507f62e78cea01bee320cd4e420270b5ea74000d11b0c9f74754ebdbfc544b05a2586128cd612366565b6040516128da9190612e01565b60405180910390a1565b6000813590506128f381613805565b92915050565b60008151905061290881613805565b92915050565b60008151905061291d8161381c565b92915050565b60008135905061293281613833565b92915050565b6000813590506129478161384a565b92915050565b600060208284031215612963576129626135cb565b5b6000612971848285016128e4565b91505092915050565b6000602082840312156129905761298f6135cb565b5b600061299e848285016128f9565b91505092915050565b600080604083850312156129be576129bd6135cb565b5b60006129cc858286016128e4565b92505060206129dd85828601612938565b9150509250929050565b600080600060608486031215612a00576129ff6135cb565b5b6000612a0e868287016128e4565b9350506020612a1f86828701612938565b9250506040612a3086828701612923565b9150509250925092565b600060208284031215612a5057612a4f6135cb565b5b6000612a5e8482850161290e565b91505092915050565b600060208284031215612a7d57612a7c6135cb565b5b6000612a8b84828501612923565b91505092915050565b600080600060608486031215612aad57612aac6135cb565b5b6000612abb86828701612923565b9350506020612acc86828701612923565b9250506040612add86828701612923565b9150509250925092565b60008060008060008060c08789031215612b0457612b036135cb565b5b6000612b1289828a01612923565b9650506020612b2389828a01612923565b9550506040612b3489828a01612923565b9450506060612b4589828a01612923565b9350506080612b5689828a01612923565b92505060a0612b6789828a01612923565b9150509295509295509295565b6000612b808383612b8c565b60208301905092915050565b612b958161342a565b82525050565b612ba48161342a565b82525050565b6000612bb5826132db565b612bbf81856132f3565b9350612bca836132cb565b8060005b83811015612bfb578151612be28882612b74565b9750612bed836132e6565b925050600181019050612bce565b5085935050505092915050565b612c118161343c565b82525050565b612c208161347f565b82525050565b612c2f81613491565b82525050565b612c3e816134a3565b82525050565b612c4d816134b5565b82525050565b612c5c816134c7565b82525050565b612c6b816134d9565b82525050565b6000612c7e601483613304565b9150612c89826135d0565b602082019050919050565b6000612ca1602683613304565b9150612cac826135f9565b604082019050919050565b6000612cc4601e83613304565b9150612ccf82613648565b602082019050919050565b6000612ce7602283613304565b9150612cf282613671565b604082019050919050565b6000612d0a601683613304565b9150612d15826136c0565b602082019050919050565b6000612d2d601083613304565b9150612d38826136e9565b602082019050919050565b6000612d50601683613304565b9150612d5b82613712565b602082019050919050565b6000612d73603283613304565b9150612d7e8261373b565b604082019050919050565b6000612d96602083613304565b9150612da18261378a565b602082019050919050565b6000612db9600f83613304565b9150612dc4826137b3565b602082019050919050565b6000612ddc601f83613304565b9150612de7826137dc565b602082019050919050565b612dfb81613468565b82525050565b6000602082019050612e166000830184612b9b565b92915050565b6000606082019050612e316000830186612b9b565b612e3e6020830185612b9b565b612e4b6040830184612df2565b949350505050565b600060a082019050612e686000830188612b9b565b612e756020830187612c44565b612e826040830186612c08565b612e8f6060830185612df2565b612e9c6080830184612df2565b9695505050505050565b600060a082019050612ebb6000830188612b9b565b612ec86020830187612c44565b612ed56040830186612df2565b612ee26060830185612df2565b612eef6080830184612df2565b9695505050505050565b600060a082019050612f0e6000830188612b9b565b612f1b6020830187612c53565b612f286040830186612c08565b612f356060830185612df2565b612f426080830184612df2565b9695505050505050565b600060a082019050612f616000830188612b9b565b612f6e6020830187612c53565b612f7b6040830186612df2565b612f886060830185612df2565b612f956080830184612df2565b9695505050505050565b600060a082019050612fb46000830188612b9b565b612fc16020830187612c62565b612fce6040830186612c08565b612fdb6060830185612df2565b612fe86080830184612df2565b9695505050505050565b600060a0820190506130076000830188612b9b565b6130146020830187612c62565b6130216040830186612df2565b61302e6060830185612df2565b61303b6080830184612df2565b9695505050505050565b600060408201905061305a6000830185612b9b565b6130676020830184612df2565b9392505050565b60006020820190506130836000830184612c08565b92915050565b600060208201905061309e6000830184612c17565b92915050565b60006020820190506130b96000830184612c26565b92915050565b600060208201905081810360008301526130d881612c71565b9050919050565b600060208201905081810360008301526130f881612c94565b9050919050565b6000602082019050818103600083015261311881612cb7565b9050919050565b6000602082019050818103600083015261313881612cda565b9050919050565b6000602082019050818103600083015261315881612cfd565b9050919050565b6000602082019050818103600083015261317881612d20565b9050919050565b6000602082019050818103600083015261319881612d43565b9050919050565b600060208201905081810360008301526131b881612d66565b9050919050565b600060208201905081810360008301526131d881612d89565b9050919050565b600060208201905081810360008301526131f881612dac565b9050919050565b6000602082019050818103600083015261321881612dcf565b9050919050565b60006020820190506132346000830184612df2565b92915050565b600060a08201905061324f6000830188612df2565b61325c6020830187612c35565b818103604083015261326e8186612baa565b905061327d6060830185612b9b565b61328a6080830184612df2565b9695505050505050565b60006060820190506132a96000830186612df2565b6132b66020830185612df2565b6132c36040830184612df2565b949350505050565b6000819050602082019050919050565b600081519050919050565b6000602082019050919050565b600082825260208201905092915050565b600082825260208201905092915050565b600061332082613468565b915061332b83613468565b9250827fffffffffffffffffffffffffffffffffffffffffffffffffffffffffffffffff038211156133605761335f61350f565b5b828201905092915050565b600061337682613468565b915061338183613468565b9250826133915761339061353e565b5b828204905092915050565b60006133a782613468565b91506133b283613468565b9250817fffffffffffffffffffffffffffffffffffffffffffffffffffffffffffffffff04831182151516156133eb576133ea61350f565b5b828202905092915050565b600061340182613468565b915061340c83613468565b92508282101561341f5761341e61350f565b5b828203905092915050565b600061343582613448565b9050919050565b60008115159050919050565b600073ffffffffffffffffffffffffffffffffffffffff82169050919050565b6000819050919050565b600060ff82169050919050565b600061348a826134eb565b9050919050565b600061349c826134eb565b9050919050565b60006134ae82613468565b9050919050565b60006134c082613472565b9050919050565b60006134d282613472565b9050919050565b60006134e482613472565b9050919050565b60006134f6826134fd565b9050919050565b600061350882613448565b9050919050565b7f4e487b7100000000000000000000000000000000000000000000000000000000600052601160045260246000fd5b7f4e487b7100000000000000000000000000000000000000000000000000000000600052601260045260246000fd5b7f4e487b7100000000000000000000000000000000000000000000000000000000600052603260045260246000fd5b7f4e487b7100000000000000000000000000000000000000000000000000000000600052604160045260246000fd5b600080fd5b7f5061757361626c653a206e6f7420706175736564000000000000000000000000600082015250565b7f4f776e61626c653a206e6577206f776e657220697320746865207a65726f206160008201527f6464726573730000000000000000000000000000000000000000000000000000602082015250565b7f4e6f7420656e6f7567682062616c616e636520746f2077697468647261770000600082015250565b7f596f7527726520616c726561647920696e2074686973205374616b65206c657660008201527f656c000000000000000000000000000000000000000000000000000000000000602082015250565b7f55736572206973206e6f74206f6e204c6576656c203100000000000000000000600082015250565b7f5061757361626c653a2070617573656400000000000000000000000000000000600082015250565b7f55736572206973206e6f74206f6e204c6576656c203000000000000000000000600082015250565b7f416d6f756e74206e6565647320746f206265206d6f7265207468616e206d696e60008201527f20616e64206c657373207468616e206d61780000000000000000000000000000602082015250565b7f4f776e61626c653a2063616c6c6572206973206e6f7420746865206f776e6572600082015250565b7f55736572206973206e6f74205669700000000000000000000000000000000000600082015250565b7f596f7527726520616c726561647920696e2074686520566970205374616b6500600082015250565b61380e8161342a565b811461381957600080fd5b50565b6138258161343c565b811461383057600080fd5b50565b61383c81613468565b811461384757600080fd5b50565b61385381613472565b811461385e57600080fd5b5056fea264697066735822122018aee7be91aaa64835d94352fbd81732f09fe12062ab203717e6d9b00ecfd15f64736f6c63430008070033",
					"opcodes": "PUSH1 0xA0 PUSH1 0x40 MSTORE PUSH2 0xA8C PUSH1 0x2 SSTORE PUSH2 0xE74 PUSH1 0x3 SSTORE PUSH2 0x12C0 PUSH1 0x4 SSTORE PUSH9 0x2B5E3AF16B1880000 PUSH1 0x5 SSTORE PUSH12 0x19D971E4FE8401E74000000 PUSH1 0x6 SSTORE PUSH9 0x56BC75E2D63100000 PUSH1 0x7 SSTORE PUSH12 0x19D971E4FE8401E74000000 PUSH1 0x8 SSTORE PUSH9 0xAD78EBC5AC6200000 PUSH1 0x9 SSTORE PUSH12 0x813F3978F89409844000000 PUSH1 0xA SSTORE CALLVALUE DUP1 ISZERO PUSH3 0x7A JUMPI PUSH1 0x0 DUP1 REVERT JUMPDEST POP PUSH1 0x40 MLOAD PUSH3 0x3BA6 CODESIZE SUB DUP1 PUSH3 0x3BA6 DUP4 CODECOPY DUP2 DUP2 ADD PUSH1 0x40 MSTORE DUP2 ADD SWAP1 PUSH3 0xA0 SWAP2 SWAP1 PUSH3 0x256 JUMP JUMPDEST PUSH3 0xC0 PUSH3 0xB4 PUSH3 0x173 PUSH1 0x20 SHL PUSH1 0x20 SHR JUMP JUMPDEST PUSH3 0x17B PUSH1 0x20 SHL PUSH1 0x20 SHR JUMP JUMPDEST PUSH1 0x0 DUP1 PUSH1 0x14 PUSH2 0x100 EXP DUP2 SLOAD DUP2 PUSH1 0xFF MUL NOT AND SWAP1 DUP4 ISZERO ISZERO MUL OR SWAP1 SSTORE POP DUP1 PUSH1 0x1 PUSH1 0x0 PUSH2 0x100 EXP DUP2 SLOAD DUP2 PUSH20 0xFFFFFFFFFFFFFFFFFFFFFFFFFFFFFFFFFFFFFFFF MUL NOT AND SWAP1 DUP4 PUSH20 0xFFFFFFFFFFFFFFFFFFFFFFFFFFFFFFFFFFFFFFFF AND MUL OR SWAP1 SSTORE POP PUSH1 0x0 PUSH20 0x7A250D5630B4CF539739DF2C5DACB4C659F2488D SWAP1 POP DUP1 PUSH20 0xFFFFFFFFFFFFFFFFFFFFFFFFFFFFFFFFFFFFFFFF AND PUSH1 0x80 DUP2 PUSH20 0xFFFFFFFFFFFFFFFFFFFFFFFFFFFFFFFFFFFFFFFF AND PUSH1 0x60 SHL DUP2 MSTORE POP POP POP POP PUSH3 0x2DB JUMP JUMPDEST PUSH1 0x0 CALLER SWAP1 POP SWAP1 JUMP JUMPDEST PUSH1 0x0 DUP1 PUSH1 0x0 SWAP1 SLOAD SWAP1 PUSH2 0x100 EXP SWAP1 DIV PUSH20 0xFFFFFFFFFFFFFFFFFFFFFFFFFFFFFFFFFFFFFFFF AND SWAP1 POP DUP2 PUSH1 0x0 DUP1 PUSH2 0x100 EXP DUP2 SLOAD DUP2 PUSH20 0xFFFFFFFFFFFFFFFFFFFFFFFFFFFFFFFFFFFFFFFF MUL NOT AND SWAP1 DUP4 PUSH20 0xFFFFFFFFFFFFFFFFFFFFFFFFFFFFFFFFFFFFFFFF AND MUL OR SWAP1 SSTORE POP DUP2 PUSH20 0xFFFFFFFFFFFFFFFFFFFFFFFFFFFFFFFFFFFFFFFF AND DUP2 PUSH20 0xFFFFFFFFFFFFFFFFFFFFFFFFFFFFFFFFFFFFFFFF AND PUSH32 0x8BE0079C531659141344CD1FD0A4F28419497F9722A3DAAFE3B4186F6B6457E0 PUSH1 0x40 MLOAD PUSH1 0x40 MLOAD DUP1 SWAP2 SUB SWAP1 LOG3 POP POP JUMP JUMPDEST PUSH1 0x0 DUP2 MLOAD SWAP1 POP PUSH3 0x250 DUP2 PUSH3 0x2C1 JUMP JUMPDEST SWAP3 SWAP2 POP POP JUMP JUMPDEST PUSH1 0x0 PUSH1 0x20 DUP3 DUP5 SUB SLT ISZERO PUSH3 0x26F JUMPI PUSH3 0x26E PUSH3 0x2BC JUMP JUMPDEST JUMPDEST PUSH1 0x0 PUSH3 0x27F DUP5 DUP3 DUP6 ADD PUSH3 0x23F JUMP JUMPDEST SWAP2 POP POP SWAP3 SWAP2 POP POP JUMP JUMPDEST PUSH1 0x0 PUSH3 0x295 DUP3 PUSH3 0x29C JUMP JUMPDEST SWAP1 POP SWAP2 SWAP1 POP JUMP JUMPDEST PUSH1 0x0 PUSH20 0xFFFFFFFFFFFFFFFFFFFFFFFFFFFFFFFFFFFFFFFF DUP3 AND SWAP1 POP SWAP2 SWAP1 POP JUMP JUMPDEST PUSH1 0x0 DUP1 REVERT JUMPDEST PUSH3 0x2CC DUP2 PUSH3 0x288 JUMP JUMPDEST DUP2 EQ PUSH3 0x2D8 JUMPI PUSH1 0x0 DUP1 REVERT JUMPDEST POP JUMP JUMPDEST PUSH1 0x80 MLOAD PUSH1 0x60 SHR PUSH2 0x3897 PUSH3 0x30F PUSH1 0x0 CODECOPY PUSH1 0x0 DUP2 DUP2 PUSH2 0x62E ADD MSTORE DUP2 DUP2 PUSH2 0x24D0 ADD MSTORE DUP2 DUP2 PUSH2 0x25FA ADD MSTORE PUSH2 0x268C ADD MSTORE PUSH2 0x3897 PUSH1 0x0 RETURN INVALID PUSH1 0x80 PUSH1 0x40 MSTORE CALLVALUE DUP1 ISZERO PUSH2 0x10 JUMPI PUSH1 0x0 DUP1 REVERT JUMPDEST POP PUSH1 0x4 CALLDATASIZE LT PUSH2 0x1FB JUMPI PUSH1 0x0 CALLDATALOAD PUSH1 0xE0 SHR DUP1 PUSH4 0x7FE509D7 GT PUSH2 0x11A JUMPI DUP1 PUSH4 0x97E9C5FE GT PUSH2 0xAD JUMPI DUP1 PUSH4 0xE5D15701 GT PUSH2 0x7C JUMPI DUP1 PUSH4 0xE5D15701 EQ PUSH2 0x586 JUMPI DUP1 PUSH4 0xF2FDE38B EQ PUSH2 0x5A2 JUMPI DUP1 PUSH4 0xF4217E1E EQ PUSH2 0x5BE JUMPI DUP1 PUSH4 0xF7EDF9AB EQ PUSH2 0x5DA JUMPI DUP1 PUSH4 0xFE2981B5 EQ PUSH2 0x60A JUMPI PUSH2 0x1FB JUMP JUMPDEST DUP1 PUSH4 0x97E9C5FE EQ PUSH2 0x4FE JUMPI DUP1 PUSH4 0xBB664864 EQ PUSH2 0x530 JUMPI DUP1 PUSH4 0xBF01651A EQ PUSH2 0x54C JUMPI DUP1 PUSH4 0xD3900A52 EQ PUSH2 0x568 JUMPI PUSH2 0x1FB JUMP JUMPDEST DUP1 PUSH4 0x8DA5CB5B GT PUSH2 0xE9 JUMPI DUP1 PUSH4 0x8DA5CB5B EQ PUSH2 0x488 JUMPI DUP1 PUSH4 0x8F0FB2B7 EQ PUSH2 0x4A6 JUMPI DUP1 PUSH4 0x91789CEF EQ PUSH2 0x4C4 JUMPI DUP1 PUSH4 0x927E5998 EQ PUSH2 0x4E2 JUMPI PUSH2 0x1FB JUMP JUMPDEST DUP1 PUSH4 0x7FE509D7 EQ PUSH2 0x3FE JUMPI DUP1 PUSH4 0x8275B181 EQ PUSH2 0x430 JUMPI DUP1 PUSH4 0x84203F4B EQ PUSH2 0x44E JUMPI DUP1 PUSH4 0x8456CB59 EQ PUSH2 0x47E JUMPI PUSH2 0x1FB JUMP JUMPDEST DUP1 PUSH4 0x6296E750 GT PUSH2 0x192 JUMPI DUP1 PUSH4 0x67911BA4 GT PUSH2 0x161 JUMPI DUP1 PUSH4 0x67911BA4 EQ PUSH2 0x374 JUMPI DUP1 PUSH4 0x69E06848 EQ PUSH2 0x3A6 JUMPI DUP1 PUSH4 0x715018A6 EQ PUSH2 0x3D6 JUMPI DUP1 PUSH4 0x71A1609B EQ PUSH2 0x3E0 JUMPI PUSH2 0x1FB JUMP JUMPDEST DUP1 PUSH4 0x6296E750 EQ PUSH2 0x2DA JUMPI DUP1 PUSH4 0x635EF285 EQ PUSH2 0x30A JUMPI DUP1 PUSH4 0x6505CF31 EQ PUSH2 0x33A JUMPI DUP1 PUSH4 0x6636389E EQ PUSH2 0x358 JUMPI PUSH2 0x1FB JUMP JUMPDEST DUP1 PUSH4 0x32938E3A GT PUSH2 0x1CE JUMPI DUP1 PUSH4 0x32938E3A EQ PUSH2 0x276 JUMPI DUP1 PUSH4 0x3F4BA83A EQ PUSH2 0x294 JUMPI DUP1 PUSH4 0x451C3D80 EQ PUSH2 0x29E JUMPI DUP1 PUSH4 0x5C975ABB EQ PUSH2 0x2BC JUMPI PUSH2 0x1FB JUMP JUMPDEST DUP1 PUSH4 0x1EF4739 EQ PUSH2 0x200 JUMPI DUP1 PUSH4 0x1694505E EQ PUSH2 0x21E JUMPI DUP1 PUSH4 0x1ED81FF8 EQ PUSH2 0x23C JUMPI DUP1 PUSH4 0x1FF08FEE EQ PUSH2 0x258 JUMPI JUMPDEST PUSH1 0x0 DUP1 REVERT JUMPDEST PUSH2 0x208 PUSH2 0x626 JUMP JUMPDEST PUSH1 0x40 MLOAD PUSH2 0x215 SWAP2 SWAP1 PUSH2 0x321F JUMP JUMPDEST PUSH1 0x40 MLOAD DUP1 SWAP2 SUB SWAP1 RETURN JUMPDEST PUSH2 0x226 PUSH2 0x62C JUMP JUMPDEST PUSH1 0x40 MLOAD PUSH2 0x233 SWAP2 SWAP1 PUSH2 0x3089 JUMP JUMPDEST PUSH1 0x40 MLOAD DUP1 SWAP2 SUB SWAP1 RETURN JUMPDEST PUSH2 0x256 PUSH1 0x4 DUP1 CALLDATASIZE SUB DUP2 ADD SWAP1 PUSH2 0x251 SWAP2 SWAP1 PUSH2 0x2A67 JUMP JUMPDEST PUSH2 0x650 JUMP JUMPDEST STOP JUMPDEST PUSH2 0x260 PUSH2 0x961 JUMP JUMPDEST PUSH1 0x40 MLOAD PUSH2 0x26D SWAP2 SWAP1 PUSH2 0x321F JUMP JUMPDEST PUSH1 0x40 MLOAD DUP1 SWAP2 SUB SWAP1 RETURN JUMPDEST PUSH2 0x27E PUSH2 0x967 JUMP JUMPDEST PUSH1 0x40 MLOAD PUSH2 0x28B SWAP2 SWAP1 PUSH2 0x321F JUMP JUMPDEST PUSH1 0x40 MLOAD DUP1 SWAP2 SUB SWAP1 RETURN JUMPDEST PUSH2 0x29C PUSH2 0x96D JUMP JUMPDEST STOP JUMPDEST PUSH2 0x2A6 PUSH2 0x9F3 JUMP JUMPDEST PUSH1 0x40 MLOAD PUSH2 0x2B3 SWAP2 SWAP1 PUSH2 0x30A4 JUMP JUMPDEST PUSH1 0x40 MLOAD DUP1 SWAP2 SUB SWAP1 RETURN JUMPDEST PUSH2 0x2C4 PUSH2 0xA19 JUMP JUMPDEST PUSH1 0x40 MLOAD PUSH2 0x2D1 SWAP2 SWAP1 PUSH2 0x306E JUMP JUMPDEST PUSH1 0x40 MLOAD DUP1 SWAP2 SUB SWAP1 RETURN JUMPDEST PUSH2 0x2F4 PUSH1 0x4 DUP1 CALLDATASIZE SUB DUP2 ADD SWAP1 PUSH2 0x2EF SWAP2 SWAP1 PUSH2 0x294D JUMP JUMPDEST PUSH2 0xA2F JUMP JUMPDEST PUSH1 0x40 MLOAD PUSH2 0x301 SWAP2 SWAP1 PUSH2 0x306E JUMP JUMPDEST PUSH1 0x40 MLOAD DUP1 SWAP2 SUB SWAP1 RETURN JUMPDEST PUSH2 0x324 PUSH1 0x4 DUP1 CALLDATASIZE SUB DUP2 ADD SWAP1 PUSH2 0x31F SWAP2 SWAP1 PUSH2 0x294D JUMP JUMPDEST PUSH2 0xA4F JUMP JUMPDEST PUSH1 0x40 MLOAD PUSH2 0x331 SWAP2 SWAP1 PUSH2 0x306E JUMP JUMPDEST PUSH1 0x40 MLOAD DUP1 SWAP2 SUB SWAP1 RETURN JUMPDEST PUSH2 0x342 PUSH2 0xA6F JUMP JUMPDEST PUSH1 0x40 MLOAD PUSH2 0x34F SWAP2 SWAP1 PUSH2 0x321F JUMP JUMPDEST PUSH1 0x40 MLOAD DUP1 SWAP2 SUB SWAP1 RETURN JUMPDEST PUSH2 0x372 PUSH1 0x4 DUP1 CALLDATASIZE SUB DUP2 ADD SWAP1 PUSH2 0x36D SWAP2 SWAP1 PUSH2 0x2A67 JUMP JUMPDEST PUSH2 0xA75 JUMP JUMPDEST STOP JUMPDEST PUSH2 0x38E PUSH1 0x4 DUP1 CALLDATASIZE SUB DUP2 ADD SWAP1 PUSH2 0x389 SWAP2 SWAP1 PUSH2 0x294D JUMP JUMPDEST PUSH2 0xE89 JUMP JUMPDEST PUSH1 0x40 MLOAD PUSH2 0x39D SWAP4 SWAP3 SWAP2 SWAP1 PUSH2 0x3294 JUMP JUMPDEST PUSH1 0x40 MLOAD DUP1 SWAP2 SUB SWAP1 RETURN JUMPDEST PUSH2 0x3C0 PUSH1 0x4 DUP1 CALLDATASIZE SUB DUP2 ADD SWAP1 PUSH2 0x3BB SWAP2 SWAP1 PUSH2 0x29E7 JUMP JUMPDEST PUSH2 0xEB3 JUMP JUMPDEST PUSH1 0x40 MLOAD PUSH2 0x3CD SWAP2 SWAP1 PUSH2 0x321F JUMP JUMPDEST PUSH1 0x40 MLOAD DUP1 SWAP2 SUB SWAP1 RETURN JUMPDEST PUSH2 0x3DE PUSH2 0xFF8 JUMP JUMPDEST STOP JUMPDEST PUSH2 0x3E8 PUSH2 0x1080 JUMP JUMPDEST PUSH1 0x40 MLOAD PUSH2 0x3F5 SWAP2 SWAP1 PUSH2 0x321F JUMP JUMPDEST PUSH1 0x40 MLOAD DUP1 SWAP2 SUB SWAP1 RETURN JUMPDEST PUSH2 0x418 PUSH1 0x4 DUP1 CALLDATASIZE SUB DUP2 ADD SWAP1 PUSH2 0x413 SWAP2 SWAP1 PUSH2 0x294D JUMP JUMPDEST PUSH2 0x1086 JUMP JUMPDEST PUSH1 0x40 MLOAD PUSH2 0x427 SWAP4 SWAP3 SWAP2 SWAP1 PUSH2 0x3294 JUMP JUMPDEST PUSH1 0x40 MLOAD DUP1 SWAP2 SUB SWAP1 RETURN JUMPDEST PUSH2 0x438 PUSH2 0x10B0 JUMP JUMPDEST PUSH1 0x40 MLOAD PUSH2 0x445 SWAP2 SWAP1 PUSH2 0x321F JUMP JUMPDEST PUSH1 0x40 MLOAD DUP1 SWAP2 SUB SWAP1 RETURN JUMPDEST PUSH2 0x468 PUSH1 0x4 DUP1 CALLDATASIZE SUB DUP2 ADD SWAP1 PUSH2 0x463 SWAP2 SWAP1 PUSH2 0x294D JUMP JUMPDEST PUSH2 0x10B6 JUMP JUMPDEST PUSH1 0x40 MLOAD PUSH2 0x475 SWAP2 SWAP1 PUSH2 0x306E JUMP JUMPDEST PUSH1 0x40 MLOAD DUP1 SWAP2 SUB SWAP1 RETURN JUMPDEST PUSH2 0x486 PUSH2 0x10D6 JUMP JUMPDEST STOP JUMPDEST PUSH2 0x490 PUSH2 0x115C JUMP JUMPDEST PUSH1 0x40 MLOAD PUSH2 0x49D SWAP2 SWAP1 PUSH2 0x2E01 JUMP JUMPDEST PUSH1 0x40 MLOAD DUP1 SWAP2 SUB SWAP1 RETURN JUMPDEST PUSH2 0x4AE PUSH2 0x1185 JUMP JUMPDEST PUSH1 0x40 MLOAD PUSH2 0x4BB SWAP2 SWAP1 PUSH2 0x321F JUMP JUMPDEST PUSH1 0x40 MLOAD DUP1 SWAP2 SUB SWAP1 RETURN JUMPDEST PUSH2 0x4CC PUSH2 0x118B JUMP JUMPDEST PUSH1 0x40 MLOAD PUSH2 0x4D9 SWAP2 SWAP1 PUSH2 0x321F JUMP JUMPDEST PUSH1 0x40 MLOAD DUP1 SWAP2 SUB SWAP1 RETURN JUMPDEST PUSH2 0x4FC PUSH1 0x4 DUP1 CALLDATASIZE SUB DUP2 ADD SWAP1 PUSH2 0x4F7 SWAP2 SWAP1 PUSH2 0x2A67 JUMP JUMPDEST PUSH2 0x1191 JUMP JUMPDEST STOP JUMPDEST PUSH2 0x518 PUSH1 0x4 DUP1 CALLDATASIZE SUB DUP2 ADD SWAP1 PUSH2 0x513 SWAP2 SWAP1 PUSH2 0x294D JUMP JUMPDEST PUSH2 0x15A5 JUMP JUMPDEST PUSH1 0x40 MLOAD PUSH2 0x527 SWAP4 SWAP3 SWAP2 SWAP1 PUSH2 0x3294 JUMP JUMPDEST PUSH1 0x40 MLOAD DUP1 SWAP2 SUB SWAP1 RETURN JUMPDEST PUSH2 0x54A PUSH1 0x4 DUP1 CALLDATASIZE SUB DUP2 ADD SWAP1 PUSH2 0x545 SWAP2 SWAP1 PUSH2 0x2A67 JUMP JUMPDEST PUSH2 0x15CF JUMP JUMPDEST STOP JUMPDEST PUSH2 0x566 PUSH1 0x4 DUP1 CALLDATASIZE SUB DUP2 ADD SWAP1 PUSH2 0x561 SWAP2 SWAP1 PUSH2 0x2A67 JUMP JUMPDEST PUSH2 0x19E3 JUMP JUMPDEST STOP JUMPDEST PUSH2 0x570 PUSH2 0x1CF4 JUMP JUMPDEST PUSH1 0x40 MLOAD PUSH2 0x57D SWAP2 SWAP1 PUSH2 0x321F JUMP JUMPDEST PUSH1 0x40 MLOAD DUP1 SWAP2 SUB SWAP1 RETURN JUMPDEST PUSH2 0x5A0 PUSH1 0x4 DUP1 CALLDATASIZE SUB DUP2 ADD SWAP1 PUSH2 0x59B SWAP2 SWAP1 PUSH2 0x2A94 JUMP JUMPDEST PUSH2 0x1CFA JUMP JUMPDEST STOP JUMPDEST PUSH2 0x5BC PUSH1 0x4 DUP1 CALLDATASIZE SUB DUP2 ADD SWAP1 PUSH2 0x5B7 SWAP2 SWAP1 PUSH2 0x294D JUMP JUMPDEST PUSH2 0x1D90 JUMP JUMPDEST STOP JUMPDEST PUSH2 0x5D8 PUSH1 0x4 DUP1 CALLDATASIZE SUB DUP2 ADD SWAP1 PUSH2 0x5D3 SWAP2 SWAP1 PUSH2 0x2AE7 JUMP JUMPDEST PUSH2 0x1E88 JUMP JUMPDEST STOP JUMPDEST PUSH2 0x5F4 PUSH1 0x4 DUP1 CALLDATASIZE SUB DUP2 ADD SWAP1 PUSH2 0x5EF SWAP2 SWAP1 PUSH2 0x29A7 JUMP JUMPDEST PUSH2 0x1F36 JUMP JUMPDEST PUSH1 0x40 MLOAD PUSH2 0x601 SWAP2 SWAP1 PUSH2 0x306E JUMP JUMPDEST PUSH1 0x40 MLOAD DUP1 SWAP2 SUB SWAP1 RETURN JUMPDEST PUSH2 0x624 PUSH1 0x4 DUP1 CALLDATASIZE SUB DUP2 ADD SWAP1 PUSH2 0x61F SWAP2 SWAP1 PUSH2 0x2A67 JUMP JUMPDEST PUSH2 0x2055 JUMP JUMPDEST STOP JUMPDEST PUSH1 0x7 SLOAD DUP2 JUMP JUMPDEST PUSH32 0x0 DUP2 JUMP JUMPDEST PUSH2 0x658 PUSH2 0xA19 JUMP JUMPDEST ISZERO PUSH2 0x698 JUMPI PUSH1 0x40 MLOAD PUSH32 0x8C379A000000000000000000000000000000000000000000000000000000000 DUP2 MSTORE PUSH1 0x4 ADD PUSH2 0x68F SWAP1 PUSH2 0x315F JUMP JUMPDEST PUSH1 0x40 MLOAD DUP1 SWAP2 SUB SWAP1 REVERT JUMPDEST PUSH1 0x8 SLOAD DUP2 GT ISZERO DUP1 ISZERO PUSH2 0x6AC JUMPI POP PUSH1 0x7 SLOAD DUP2 LT ISZERO JUMPDEST PUSH2 0x6EB JUMPI PUSH1 0x40 MLOAD PUSH32 0x8C379A000000000000000000000000000000000000000000000000000000000 DUP2 MSTORE PUSH1 0x4 ADD PUSH2 0x6E2 SWAP1 PUSH2 0x319F JUMP JUMPDEST PUSH1 0x40 MLOAD DUP1 SWAP2 SUB SWAP1 REVERT JUMPDEST PUSH1 0x0 CALLER SWAP1 POP PUSH1 0xD PUSH1 0x0 DUP3 PUSH20 0xFFFFFFFFFFFFFFFFFFFFFFFFFFFFFFFFFFFFFFFF AND PUSH20 0xFFFFFFFFFFFFFFFFFFFFFFFFFFFFFFFFFFFFFFFF AND DUP2 MSTORE PUSH1 0x20 ADD SWAP1 DUP2 MSTORE PUSH1 0x20 ADD PUSH1 0x0 KECCAK256 PUSH1 0x0 SWAP1 SLOAD SWAP1 PUSH2 0x100 EXP SWAP1 DIV PUSH1 0xFF AND ISZERO PUSH2 0x77D JUMPI PUSH1 0x40 MLOAD PUSH32 0x8C379A000000000000000000000000000000000000000000000000000000000 DUP2 MSTORE PUSH1 0x4 ADD PUSH2 0x774 SWAP1 PUSH2 0x311F JUMP JUMPDEST PUSH1 0x40 MLOAD DUP1 SWAP2 SUB SWAP1 REVERT JUMPDEST PUSH1 0x1 PUSH1 0x0 SWAP1 SLOAD SWAP1 PUSH2 0x100 EXP SWAP1 DIV PUSH20 0xFFFFFFFFFFFFFFFFFFFFFFFFFFFFFFFFFFFFFFFF AND PUSH20 0xFFFFFFFFFFFFFFFFFFFFFFFFFFFFFFFFFFFFFFFF AND PUSH4 0x23B872DD DUP3 ADDRESS DUP6 PUSH1 0x40 MLOAD DUP5 PUSH4 0xFFFFFFFF AND PUSH1 0xE0 SHL DUP2 MSTORE PUSH1 0x4 ADD PUSH2 0x7DC SWAP4 SWAP3 SWAP2 SWAP1 PUSH2 0x2E1C JUMP JUMPDEST PUSH1 0x20 PUSH1 0x40 MLOAD DUP1 DUP4 SUB DUP2 PUSH1 0x0 DUP8 DUP1 EXTCODESIZE ISZERO DUP1 ISZERO PUSH2 0x7F6 JUMPI PUSH1 0x0 DUP1 REVERT JUMPDEST POP GAS CALL ISZERO DUP1 ISZERO PUSH2 0x80A JUMPI RETURNDATASIZE PUSH1 0x0 DUP1 RETURNDATACOPY RETURNDATASIZE PUSH1 0x0 REVERT JUMPDEST POP POP POP POP PUSH1 0x40 MLOAD RETURNDATASIZE PUSH1 0x1F NOT PUSH1 0x1F DUP3 ADD AND DUP3 ADD DUP1 PUSH1 0x40 MSTORE POP DUP2 ADD SWAP1 PUSH2 0x82E SWAP2 SWAP1 PUSH2 0x2A3A JUMP JUMPDEST POP PUSH1 0x1 PUSH1 0xD PUSH1 0x0 DUP4 PUSH20 0xFFFFFFFFFFFFFFFFFFFFFFFFFFFFFFFFFFFFFFFF AND PUSH20 0xFFFFFFFFFFFFFFFFFFFFFFFFFFFFFFFFFFFFFFFF AND DUP2 MSTORE PUSH1 0x20 ADD SWAP1 DUP2 MSTORE PUSH1 0x20 ADD PUSH1 0x0 KECCAK256 PUSH1 0x0 PUSH2 0x100 EXP DUP2 SLOAD DUP2 PUSH1 0xFF MUL NOT AND SWAP1 DUP4 ISZERO ISZERO MUL OR SWAP1 SSTORE POP PUSH1 0x40 MLOAD DUP1 PUSH1 0x60 ADD PUSH1 0x40 MSTORE DUP1 DUP4 DUP2 MSTORE PUSH1 0x20 ADD TIMESTAMP DUP2 MSTORE PUSH1 0x20 ADD PUSH2 0x320 TIMESTAMP PUSH2 0x8AC SWAP2 SWAP1 PUSH2 0x3315 JUMP JUMPDEST DUP2 MSTORE POP PUSH1 0xE PUSH1 0x0 DUP4 PUSH20 0xFFFFFFFFFFFFFFFFFFFFFFFFFFFFFFFFFFFFFFFF AND PUSH20 0xFFFFFFFFFFFFFFFFFFFFFFFFFFFFFFFFFFFFFFFF AND DUP2 MSTORE PUSH1 0x20 ADD SWAP1 DUP2 MSTORE PUSH1 0x20 ADD PUSH1 0x0 KECCAK256 PUSH1 0x0 DUP3 ADD MLOAD DUP2 PUSH1 0x0 ADD SSTORE PUSH1 0x20 DUP3 ADD MLOAD DUP2 PUSH1 0x1 ADD SSTORE PUSH1 0x40 DUP3 ADD MLOAD DUP2 PUSH1 0x2 ADD SSTORE SWAP1 POP POP PUSH32 0x17849BB8C713DE96B48F218D3BACC9AF082261C3CCC7C6DCCEBE70E667B22F23 DUP2 PUSH1 0x1 DUP5 TIMESTAMP PUSH3 0x278D00 TIMESTAMP PUSH2 0x944 SWAP2 SWAP1 PUSH2 0x3315 JUMP JUMPDEST PUSH1 0x40 MLOAD PUSH2 0x955 SWAP6 SWAP5 SWAP4 SWAP3 SWAP2 SWAP1 PUSH2 0x2F4C JUMP JUMPDEST PUSH1 0x40 MLOAD DUP1 SWAP2 SUB SWAP1 LOG1 POP POP JUMP JUMPDEST PUSH1 0x3 SLOAD DUP2 JUMP JUMPDEST PUSH1 0x4 SLOAD DUP2 JUMP JUMPDEST PUSH2 0x975 PUSH2 0x2366 JUMP JUMPDEST PUSH20 0xFFFFFFFFFFFFFFFFFFFFFFFFFFFFFFFFFFFFFFFF AND PUSH2 0x993 PUSH2 0x115C JUMP JUMPDEST PUSH20 0xFFFFFFFFFFFFFFFFFFFFFFFFFFFFFFFFFFFFFFFF AND EQ PUSH2 0x9E9 JUMPI PUSH1 0x40 MLOAD PUSH32 0x8C379A000000000000000000000000000000000000000000000000000000000 DUP2 MSTORE PUSH1 0x4 ADD PUSH2 0x9E0 SWAP1 PUSH2 0x31BF JUMP JUMPDEST PUSH1 0x40 MLOAD DUP1 SWAP2 SUB SWAP1 REVERT JUMPDEST PUSH2 0x9F1 PUSH2 0x236E JUMP JUMPDEST JUMP JUMPDEST PUSH1 0x1 PUSH1 0x0 SWAP1 SLOAD SWAP1 PUSH2 0x100 EXP SWAP1 DIV PUSH20 0xFFFFFFFFFFFFFFFFFFFFFFFFFFFFFFFFFFFFFFFF AND DUP2 JUMP JUMPDEST PUSH1 0x0 DUP1 PUSH1 0x14 SWAP1 SLOAD SWAP1 PUSH2 0x100 EXP SWAP1 DIV PUSH1 0xFF AND SWAP1 POP SWAP1 JUMP JUMPDEST PUSH1 0xB PUSH1 0x20 MSTORE DUP1 PUSH1 0x0 MSTORE PUSH1 0x40 PUSH1 0x0 KECCAK256 PUSH1 0x0 SWAP2 POP SLOAD SWAP1 PUSH2 0x100 EXP SWAP1 DIV PUSH1 0xFF AND DUP2 JUMP JUMPDEST PUSH1 0xD PUSH1 0x20 MSTORE DUP1 PUSH1 0x0 MSTORE PUSH1 0x40 PUSH1 0x0 KECCAK256 PUSH1 0x0 SWAP2 POP SLOAD SWAP1 PUSH2 0x100 EXP SWAP1 DIV PUSH1 0xFF AND DUP2 JUMP JUMPDEST PUSH1 0x5 SLOAD DUP2 JUMP JUMPDEST PUSH1 0x0 CALLER SWAP1 POP PUSH1 0xF PUSH1 0x0 DUP3 PUSH20 0xFFFFFFFFFFFFFFFFFFFFFFFFFFFFFFFFFFFFFFFF AND PUSH20 0xFFFFFFFFFFFFFFFFFFFFFFFFFFFFFFFFFFFFFFFF AND DUP2 MSTORE PUSH1 0x20 ADD SWAP1 DUP2 MSTORE PUSH1 0x20 ADD PUSH1 0x0 KECCAK256 PUSH1 0x0 SWAP1 SLOAD SWAP1 PUSH2 0x100 EXP SWAP1 DIV PUSH1 0xFF AND PUSH2 0xB06 JUMPI PUSH1 0x40 MLOAD PUSH32 0x8C379A000000000000000000000000000000000000000000000000000000000 DUP2 MSTORE PUSH1 0x4 ADD PUSH2 0xAFD SWAP1 PUSH2 0x31DF JUMP JUMPDEST PUSH1 0x40 MLOAD DUP1 SWAP2 SUB SWAP1 REVERT JUMPDEST PUSH1 0x0 PUSH1 0x10 PUSH1 0x0 DUP4 PUSH20 0xFFFFFFFFFFFFFFFFFFFFFFFFFFFFFFFFFFFFFFFF AND PUSH20 0xFFFFFFFFFFFFFFFFFFFFFFFFFFFFFFFFFFFFFFFF AND DUP2 MSTORE PUSH1 0x20 ADD SWAP1 DUP2 MSTORE PUSH1 0x20 ADD PUSH1 0x0 KECCAK256 PUSH1 0x0 ADD SLOAD SWAP1 POP DUP3 DUP2 LT ISZERO PUSH2 0xB90 JUMPI PUSH1 0x40 MLOAD PUSH32 0x8C379A000000000000000000000000000000000000000000000000000000000 DUP2 MSTORE PUSH1 0x4 ADD PUSH2 0xB87 SWAP1 PUSH2 0x30FF JUMP JUMPDEST PUSH1 0x40 MLOAD DUP1 SWAP2 SUB SWAP1 REVERT JUMPDEST PUSH1 0x0 PUSH2 0xB9D DUP4 PUSH1 0x2 PUSH2 0x1F36 JUMP JUMPDEST SWAP1 POP PUSH1 0x0 PUSH2 0xBAD DUP5 PUSH1 0x2 DUP8 PUSH2 0xEB3 JUMP JUMPDEST SWAP1 POP DUP3 DUP6 EQ ISZERO PUSH2 0xC6E JUMPI PUSH1 0x10 PUSH1 0x0 DUP6 PUSH20 0xFFFFFFFFFFFFFFFFFFFFFFFFFFFFFFFFFFFFFFFF AND PUSH20 0xFFFFFFFFFFFFFFFFFFFFFFFFFFFFFFFFFFFFFFFF AND DUP2 MSTORE PUSH1 0x20 ADD SWAP1 DUP2 MSTORE PUSH1 0x20 ADD PUSH1 0x0 KECCAK256 PUSH1 0x0 DUP1 DUP3 ADD PUSH1 0x0 SWAP1 SSTORE PUSH1 0x1 DUP3 ADD PUSH1 0x0 SWAP1 SSTORE PUSH1 0x2 DUP3 ADD PUSH1 0x0 SWAP1 SSTORE POP POP PUSH1 0x0 PUSH1 0xF PUSH1 0x0 DUP7 PUSH20 0xFFFFFFFFFFFFFFFFFFFFFFFFFFFFFFFFFFFFFFFF AND PUSH20 0xFFFFFFFFFFFFFFFFFFFFFFFFFFFFFFFFFFFFFFFF AND DUP2 MSTORE PUSH1 0x20 ADD SWAP1 DUP2 MSTORE PUSH1 0x20 ADD PUSH1 0x0 KECCAK256 PUSH1 0x0 PUSH2 0x100 EXP DUP2 SLOAD DUP2 PUSH1 0xFF MUL NOT AND SWAP1 DUP4 ISZERO ISZERO MUL OR SWAP1 SSTORE POP PUSH2 0xCC8 JUMP JUMPDEST DUP5 PUSH1 0x10 PUSH1 0x0 DUP7 PUSH20 0xFFFFFFFFFFFFFFFFFFFFFFFFFFFFFFFFFFFFFFFF AND PUSH20 0xFFFFFFFFFFFFFFFFFFFFFFFFFFFFFFFFFFFFFFFF AND DUP2 MSTORE PUSH1 0x20 ADD SWAP1 DUP2 MSTORE PUSH1 0x20 ADD PUSH1 0x0 KECCAK256 PUSH1 0x0 ADD PUSH1 0x0 DUP3 DUP3 SLOAD PUSH2 0xCC0 SWAP2 SWAP1 PUSH2 0x33F6 JUMP JUMPDEST SWAP3 POP POP DUP2 SWAP1 SSTORE POP JUMPDEST DUP2 ISZERO PUSH2 0xD8D JUMPI PUSH1 0x1 PUSH1 0x0 SWAP1 SLOAD SWAP1 PUSH2 0x100 EXP SWAP1 DIV PUSH20 0xFFFFFFFFFFFFFFFFFFFFFFFFFFFFFFFFFFFFFFFF AND PUSH20 0xFFFFFFFFFFFFFFFFFFFFFFFFFFFFFFFFFFFFFFFF AND PUSH4 0xA9059CBB DUP6 DUP8 PUSH1 0x40 MLOAD DUP4 PUSH4 0xFFFFFFFF AND PUSH1 0xE0 SHL DUP2 MSTORE PUSH1 0x4 ADD PUSH2 0xD2B SWAP3 SWAP2 SWAP1 PUSH2 0x3045 JUMP JUMPDEST PUSH1 0x20 PUSH1 0x40 MLOAD DUP1 DUP4 SUB DUP2 PUSH1 0x0 DUP8 DUP1 EXTCODESIZE ISZERO DUP1 ISZERO PUSH2 0xD45 JUMPI PUSH1 0x0 DUP1 REVERT JUMPDEST POP GAS CALL ISZERO DUP1 ISZERO PUSH2 0xD59 JUMPI RETURNDATASIZE PUSH1 0x0 DUP1 RETURNDATACOPY RETURNDATASIZE PUSH1 0x0 REVERT JUMPDEST POP POP POP POP PUSH1 0x40 MLOAD RETURNDATASIZE PUSH1 0x1F NOT PUSH1 0x1F DUP3 ADD AND DUP3 ADD DUP1 PUSH1 0x40 MSTORE POP DUP2 ADD SWAP1 PUSH2 0xD7D SWAP2 SWAP1 PUSH2 0x2A3A JUMP JUMPDEST POP PUSH2 0xD88 DUP2 DUP6 PUSH2 0x240F JUMP JUMPDEST PUSH2 0xE42 JUMP JUMPDEST PUSH1 0x0 SWAP1 POP PUSH1 0x1 PUSH1 0x0 SWAP1 SLOAD SWAP1 PUSH2 0x100 EXP SWAP1 DIV PUSH20 0xFFFFFFFFFFFFFFFFFFFFFFFFFFFFFFFFFFFFFFFF AND PUSH20 0xFFFFFFFFFFFFFFFFFFFFFFFFFFFFFFFFFFFFFFFF AND PUSH4 0xA9059CBB DUP6 DUP8 PUSH1 0x40 MLOAD DUP4 PUSH4 0xFFFFFFFF AND PUSH1 0xE0 SHL DUP2 MSTORE PUSH1 0x4 ADD PUSH2 0xDEE SWAP3 SWAP2 SWAP1 PUSH2 0x3045 JUMP JUMPDEST PUSH1 0x20 PUSH1 0x40 MLOAD DUP1 DUP4 SUB DUP2 PUSH1 0x0 DUP8 DUP1 EXTCODESIZE ISZERO DUP1 ISZERO PUSH2 0xE08 JUMPI PUSH1 0x0 DUP1 REVERT JUMPDEST POP GAS CALL ISZERO DUP1 ISZERO PUSH2 0xE1C JUMPI RETURNDATASIZE PUSH1 0x0 DUP1 RETURNDATACOPY RETURNDATASIZE PUSH1 0x0 REVERT JUMPDEST POP POP POP POP PUSH1 0x40 MLOAD RETURNDATASIZE PUSH1 0x1F NOT PUSH1 0x1F DUP3 ADD AND DUP3 ADD DUP1 PUSH1 0x40 MSTORE POP DUP2 ADD SWAP1 PUSH2 0xE40 SWAP2 SWAP1 PUSH2 0x2A3A JUMP JUMPDEST POP JUMPDEST PUSH32 0xA3DFF5863D601223D9B31A0253B97A6C2085DACA56089B92836B4B6A1991E04B DUP5 PUSH1 0x2 DUP5 DUP9 DUP6 PUSH1 0x40 MLOAD PUSH2 0xE7A SWAP6 SWAP5 SWAP4 SWAP3 SWAP2 SWAP1 PUSH2 0x2F9F JUMP JUMPDEST PUSH1 0x40 MLOAD DUP1 SWAP2 SUB SWAP1 LOG1 POP POP POP POP POP JUMP JUMPDEST PUSH1 0xC PUSH1 0x20 MSTORE DUP1 PUSH1 0x0 MSTORE PUSH1 0x40 PUSH1 0x0 KECCAK256 PUSH1 0x0 SWAP2 POP SWAP1 POP DUP1 PUSH1 0x0 ADD SLOAD SWAP1 DUP1 PUSH1 0x1 ADD SLOAD SWAP1 DUP1 PUSH1 0x2 ADD SLOAD SWAP1 POP DUP4 JUMP JUMPDEST PUSH1 0x0 DUP1 DUP4 PUSH1 0xFF AND EQ ISZERO PUSH2 0xF1C JUMPI PUSH1 0x0 PUSH1 0xC PUSH1 0x0 DUP7 PUSH20 0xFFFFFFFFFFFFFFFFFFFFFFFFFFFFFFFFFFFFFFFF AND PUSH20 0xFFFFFFFFFFFFFFFFFFFFFFFFFFFFFFFFFFFFFFFF AND DUP2 MSTORE PUSH1 0x20 ADD SWAP1 DUP2 MSTORE PUSH1 0x20 ADD PUSH1 0x0 KECCAK256 PUSH1 0x1 ADD SLOAD SWAP1 POP PUSH2 0xF14 DUP4 DUP3 PUSH1 0x2 SLOAD PUSH2 0x2723 JUMP JUMPDEST SWAP2 POP POP PUSH2 0xFF1 JUMP JUMPDEST PUSH1 0x1 DUP4 PUSH1 0xFF AND EQ ISZERO PUSH2 0xF84 JUMPI PUSH1 0x0 PUSH1 0xE PUSH1 0x0 DUP7 PUSH20 0xFFFFFFFFFFFFFFFFFFFFFFFFFFFFFFFFFFFFFFFF AND PUSH20 0xFFFFFFFFFFFFFFFFFFFFFFFFFFFFFFFFFFFFFFFF AND DUP2 MSTORE PUSH1 0x20 ADD SWAP1 DUP2 MSTORE PUSH1 0x20 ADD PUSH1 0x0 KECCAK256 PUSH1 0x1 ADD SLOAD SWAP1 POP PUSH2 0xF7C DUP4 DUP3 PUSH1 0x3 SLOAD PUSH2 0x2723 JUMP JUMPDEST SWAP2 POP POP PUSH2 0xFF1 JUMP JUMPDEST PUSH1 0x2 DUP4 PUSH1 0xFF AND EQ ISZERO PUSH2 0xFEC JUMPI PUSH1 0x0 PUSH1 0x10 PUSH1 0x0 DUP7 PUSH20 0xFFFFFFFFFFFFFFFFFFFFFFFFFFFFFFFFFFFFFFFF AND PUSH20 0xFFFFFFFFFFFFFFFFFFFFFFFFFFFFFFFFFFFFFFFF AND DUP2 MSTORE PUSH1 0x20 ADD SWAP1 DUP2 MSTORE PUSH1 0x20 ADD PUSH1 0x0 KECCAK256 PUSH1 0x1 ADD SLOAD SWAP1 POP PUSH2 0xFE4 DUP4 DUP3 PUSH1 0x4 SLOAD PUSH2 0x2723 JUMP JUMPDEST SWAP2 POP POP PUSH2 0xFF1 JUMP JUMPDEST PUSH1 0x0 SWAP1 POP JUMPDEST SWAP4 SWAP3 POP POP POP JUMP JUMPDEST PUSH2 0x1000 PUSH2 0x2366 JUMP JUMPDEST PUSH20 0xFFFFFFFFFFFFFFFFFFFFFFFFFFFFFFFFFFFFFFFF AND PUSH2 0x101E PUSH2 0x115C JUMP JUMPDEST PUSH20 0xFFFFFFFFFFFFFFFFFFFFFFFFFFFFFFFFFFFFFFFF AND EQ PUSH2 0x1074 JUMPI PUSH1 0x40 MLOAD PUSH32 0x8C379A000000000000000000000000000000000000000000000000000000000 DUP2 MSTORE PUSH1 0x4 ADD PUSH2 0x106B SWAP1 PUSH2 0x31BF JUMP JUMPDEST PUSH1 0x40 MLOAD DUP1 SWAP2 SUB SWAP1 REVERT JUMPDEST PUSH2 0x107E PUSH1 0x0 PUSH2 0x277D JUMP JUMPDEST JUMP JUMPDEST PUSH1 0x6 SLOAD DUP2 JUMP JUMPDEST PUSH1 0xE PUSH1 0x20 MSTORE DUP1 PUSH1 0x0 MSTORE PUSH1 0x40 PUSH1 0x0 KECCAK256 PUSH1 0x0 SWAP2 POP SWAP1 POP DUP1 PUSH1 0x0 ADD SLOAD SWAP1 DUP1 PUSH1 0x1 ADD SLOAD SWAP1 DUP1 PUSH1 0x2 ADD SLOAD SWAP1 POP DUP4 JUMP JUMPDEST PUSH1 0x2 SLOAD DUP2 JUMP JUMPDEST PUSH1 0xF PUSH1 0x20 MSTORE DUP1 PUSH1 0x0 MSTORE PUSH1 0x40 PUSH1 0x0 KECCAK256 PUSH1 0x0 SWAP2 POP SLOAD SWAP1 PUSH2 0x100 EXP SWAP1 DIV PUSH1 0xFF AND DUP2 JUMP JUMPDEST PUSH2 0x10DE PUSH2 0x2366 JUMP JUMPDEST PUSH20 0xFFFFFFFFFFFFFFFFFFFFFFFFFFFFFFFFFFFFFFFF AND PUSH2 0x10FC PUSH2 0x115C JUMP JUMPDEST PUSH20 0xFFFFFFFFFFFFFFFFFFFFFFFFFFFFFFFFFFFFFFFF AND EQ PUSH2 0x1152 JUMPI PUSH1 0x40 MLOAD PUSH32 0x8C379A000000000000000000000000000000000000000000000000000000000 DUP2 MSTORE PUSH1 0x4 ADD PUSH2 0x1149 SWAP1 PUSH2 0x31BF JUMP JUMPDEST PUSH1 0x40 MLOAD DUP1 SWAP2 SUB SWAP1 REVERT JUMPDEST PUSH2 0x115A PUSH2 0x2841 JUMP JUMPDEST JUMP JUMPDEST PUSH1 0x0 DUP1 PUSH1 0x0 SWAP1 SLOAD SWAP1 PUSH2 0x100 EXP SWAP1 DIV PUSH20 0xFFFFFFFFFFFFFFFFFFFFFFFFFFFFFFFFFFFFFFFF AND SWAP1 POP SWAP1 JUMP JUMPDEST PUSH1 0xA SLOAD DUP2 JUMP JUMPDEST PUSH1 0x9 SLOAD DUP2 JUMP JUMPDEST PUSH1 0x0 CALLER SWAP1 POP PUSH1 0xB PUSH1 0x0 DUP3 PUSH20 0xFFFFFFFFFFFFFFFFFFFFFFFFFFFFFFFFFFFFFFFF AND PUSH20 0xFFFFFFFFFFFFFFFFFFFFFFFFFFFFFFFFFFFFFFFF AND DUP2 MSTORE PUSH1 0x20 ADD SWAP1 DUP2 MSTORE PUSH1 0x20 ADD PUSH1 0x0 KECCAK256 PUSH1 0x0 SWAP1 SLOAD SWAP1 PUSH2 0x100 EXP SWAP1 DIV PUSH1 0xFF AND PUSH2 0x1222 JUMPI PUSH1 0x40 MLOAD PUSH32 0x8C379A000000000000000000000000000000000000000000000000000000000 DUP2 MSTORE PUSH1 0x4 ADD PUSH2 0x1219 SWAP1 PUSH2 0x317F JUMP JUMPDEST PUSH1 0x40 MLOAD DUP1 SWAP2 SUB SWAP1 REVERT JUMPDEST PUSH1 0x0 PUSH1 0xC PUSH1 0x0 DUP4 PUSH20 0xFFFFFFFFFFFFFFFFFFFFFFFFFFFFFFFFFFFFFFFF AND PUSH20 0xFFFFFFFFFFFFFFFFFFFFFFFFFFFFFFFFFFFFFFFF AND DUP2 MSTORE PUSH1 0x20 ADD SWAP1 DUP2 MSTORE PUSH1 0x20 ADD PUSH1 0x0 KECCAK256 PUSH1 0x0 ADD SLOAD SWAP1 POP DUP3 DUP2 LT ISZERO PUSH2 0x12AC JUMPI PUSH1 0x40 MLOAD PUSH32 0x8C379A000000000000000000000000000000000000000000000000000000000 DUP2 MSTORE PUSH1 0x4 ADD PUSH2 0x12A3 SWAP1 PUSH2 0x30FF JUMP JUMPDEST PUSH1 0x40 MLOAD DUP1 SWAP2 SUB SWAP1 REVERT JUMPDEST PUSH1 0x0 PUSH2 0x12B9 DUP4 PUSH1 0x0 PUSH2 0x1F36 JUMP JUMPDEST SWAP1 POP PUSH1 0x0 PUSH2 0x12C9 DUP5 PUSH1 0x0 DUP8 PUSH2 0xEB3 JUMP JUMPDEST SWAP1 POP DUP3 DUP6 EQ ISZERO PUSH2 0x138A JUMPI PUSH1 0xC PUSH1 0x0 DUP6 PUSH20 0xFFFFFFFFFFFFFFFFFFFFFFFFFFFFFFFFFFFFFFFF AND PUSH20 0xFFFFFFFFFFFFFFFFFFFFFFFFFFFFFFFFFFFFFFFF AND DUP2 MSTORE PUSH1 0x20 ADD SWAP1 DUP2 MSTORE PUSH1 0x20 ADD PUSH1 0x0 KECCAK256 PUSH1 0x0 DUP1 DUP3 ADD PUSH1 0x0 SWAP1 SSTORE PUSH1 0x1 DUP3 ADD PUSH1 0x0 SWAP1 SSTORE PUSH1 0x2 DUP3 ADD PUSH1 0x0 SWAP1 SSTORE POP POP PUSH1 0x0 PUSH1 0xB PUSH1 0x0 DUP7 PUSH20 0xFFFFFFFFFFFFFFFFFFFFFFFFFFFFFFFFFFFFFFFF AND PUSH20 0xFFFFFFFFFFFFFFFFFFFFFFFFFFFFFFFFFFFFFFFF AND DUP2 MSTORE PUSH1 0x20 ADD SWAP1 DUP2 MSTORE PUSH1 0x20 ADD PUSH1 0x0 KECCAK256 PUSH1 0x0 PUSH2 0x100 EXP DUP2 SLOAD DUP2 PUSH1 0xFF MUL NOT AND SWAP1 DUP4 ISZERO ISZERO MUL OR SWAP1 SSTORE POP PUSH2 0x13E4 JUMP JUMPDEST DUP5 PUSH1 0xC PUSH1 0x0 DUP7 PUSH20 0xFFFFFFFFFFFFFFFFFFFFFFFFFFFFFFFFFFFFFFFF AND PUSH20 0xFFFFFFFFFFFFFFFFFFFFFFFFFFFFFFFFFFFFFFFF AND DUP2 MSTORE PUSH1 0x20 ADD SWAP1 DUP2 MSTORE PUSH1 0x20 ADD PUSH1 0x0 KECCAK256 PUSH1 0x0 ADD PUSH1 0x0 DUP3 DUP3 SLOAD PUSH2 0x13DC SWAP2 SWAP1 PUSH2 0x33F6 JUMP JUMPDEST SWAP3 POP POP DUP2 SWAP1 SSTORE POP JUMPDEST DUP2 ISZERO PUSH2 0x14A9 JUMPI PUSH1 0x1 PUSH1 0x0 SWAP1 SLOAD SWAP1 PUSH2 0x100 EXP SWAP1 DIV PUSH20 0xFFFFFFFFFFFFFFFFFFFFFFFFFFFFFFFFFFFFFFFF AND PUSH20 0xFFFFFFFFFFFFFFFFFFFFFFFFFFFFFFFFFFFFFFFF AND PUSH4 0xA9059CBB DUP6 DUP8 PUSH1 0x40 MLOAD DUP4 PUSH4 0xFFFFFFFF AND PUSH1 0xE0 SHL DUP2 MSTORE PUSH1 0x4 ADD PUSH2 0x1447 SWAP3 SWAP2 SWAP1 PUSH2 0x3045 JUMP JUMPDEST PUSH1 0x20 PUSH1 0x40 MLOAD DUP1 DUP4 SUB DUP2 PUSH1 0x0 DUP8 DUP1 EXTCODESIZE ISZERO DUP1 ISZERO PUSH2 0x1461 JUMPI PUSH1 0x0 DUP1 REVERT JUMPDEST POP GAS CALL ISZERO DUP1 ISZERO PUSH2 0x1475 JUMPI RETURNDATASIZE PUSH1 0x0 DUP1 RETURNDATACOPY RETURNDATASIZE PUSH1 0x0 REVERT JUMPDEST POP POP POP POP PUSH1 0x40 MLOAD RETURNDATASIZE PUSH1 0x1F NOT PUSH1 0x1F DUP3 ADD AND DUP3 ADD DUP1 PUSH1 0x40 MSTORE POP DUP2 ADD SWAP1 PUSH2 0x1499 SWAP2 SWAP1 PUSH2 0x2A3A JUMP JUMPDEST POP PUSH2 0x14A4 DUP2 DUP6 PUSH2 0x240F JUMP JUMPDEST PUSH2 0x155E JUMP JUMPDEST PUSH1 0x0 SWAP1 POP PUSH1 0x1 PUSH1 0x0 SWAP1 SLOAD SWAP1 PUSH2 0x100 EXP SWAP1 DIV PUSH20 0xFFFFFFFFFFFFFFFFFFFFFFFFFFFFFFFFFFFFFFFF AND PUSH20 0xFFFFFFFFFFFFFFFFFFFFFFFFFFFFFFFFFFFFFFFF AND PUSH4 0xA9059CBB DUP6 DUP8 PUSH1 0x40 MLOAD DUP4 PUSH4 0xFFFFFFFF AND PUSH1 0xE0 SHL DUP2 MSTORE PUSH1 0x4 ADD PUSH2 0x150A SWAP3 SWAP2 SWAP1 PUSH2 0x3045 JUMP JUMPDEST PUSH1 0x20 PUSH1 0x40 MLOAD DUP1 DUP4 SUB DUP2 PUSH1 0x0 DUP8 DUP1 EXTCODESIZE ISZERO DUP1 ISZERO PUSH2 0x1524 JUMPI PUSH1 0x0 DUP1 REVERT JUMPDEST POP GAS CALL ISZERO DUP1 ISZERO PUSH2 0x1538 JUMPI RETURNDATASIZE PUSH1 0x0 DUP1 RETURNDATACOPY RETURNDATASIZE PUSH1 0x0 REVERT JUMPDEST POP POP POP POP PUSH1 0x40 MLOAD RETURNDATASIZE PUSH1 0x1F NOT PUSH1 0x1F DUP3 ADD AND DUP3 ADD DUP1 PUSH1 0x40 MSTORE POP DUP2 ADD SWAP1 PUSH2 0x155C SWAP2 SWAP1 PUSH2 0x2A3A JUMP JUMPDEST POP JUMPDEST PUSH32 0xA3DFF5863D601223D9B31A0253B97A6C2085DACA56089B92836B4B6A1991E04B DUP5 PUSH1 0x0 DUP5 DUP9 DUP6 PUSH1 0x40 MLOAD PUSH2 0x1596 SWAP6 SWAP5 SWAP4 SWAP3 SWAP2 SWAP1 PUSH2 0x2E53 JUMP JUMPDEST PUSH1 0x40 MLOAD DUP1 SWAP2 SUB SWAP1 LOG1 POP POP POP POP POP JUMP JUMPDEST PUSH1 0x10 PUSH1 0x20 MSTORE DUP1 PUSH1 0x0 MSTORE PUSH1 0x40 PUSH1 0x0 KECCAK256 PUSH1 0x0 SWAP2 POP SWAP1 POP DUP1 PUSH1 0x0 ADD SLOAD SWAP1 DUP1 PUSH1 0x1 ADD SLOAD SWAP1 DUP1 PUSH1 0x2 ADD SLOAD SWAP1 POP DUP4 JUMP JUMPDEST PUSH1 0x0 CALLER SWAP1 POP PUSH1 0xD PUSH1 0x0 DUP3 PUSH20 0xFFFFFFFFFFFFFFFFFFFFFFFFFFFFFFFFFFFFFFFF AND PUSH20 0xFFFFFFFFFFFFFFFFFFFFFFFFFFFFFFFFFFFFFFFF AND DUP2 MSTORE PUSH1 0x20 ADD SWAP1 DUP2 MSTORE PUSH1 0x20 ADD PUSH1 0x0 KECCAK256 PUSH1 0x0 SWAP1 SLOAD SWAP1 PUSH2 0x100 EXP SWAP1 DIV PUSH1 0xFF AND PUSH2 0x1660 JUMPI PUSH1 0x40 MLOAD PUSH32 0x8C379A000000000000000000000000000000000000000000000000000000000 DUP2 MSTORE PUSH1 0x4 ADD PUSH2 0x1657 SWAP1 PUSH2 0x313F JUMP JUMPDEST PUSH1 0x40 MLOAD DUP1 SWAP2 SUB SWAP1 REVERT JUMPDEST PUSH1 0x0 PUSH1 0xE PUSH1 0x0 DUP4 PUSH20 0xFFFFFFFFFFFFFFFFFFFFFFFFFFFFFFFFFFFFFFFF AND PUSH20 0xFFFFFFFFFFFFFFFFFFFFFFFFFFFFFFFFFFFFFFFF AND DUP2 MSTORE PUSH1 0x20 ADD SWAP1 DUP2 MSTORE PUSH1 0x20 ADD PUSH1 0x0 KECCAK256 PUSH1 0x0 ADD SLOAD SWAP1 POP DUP3 DUP2 LT ISZERO PUSH2 0x16EA JUMPI PUSH1 0x40 MLOAD PUSH32 0x8C379A000000000000000000000000000000000000000000000000000000000 DUP2 MSTORE PUSH1 0x4 ADD PUSH2 0x16E1 SWAP1 PUSH2 0x30FF JUMP JUMPDEST PUSH1 0x40 MLOAD DUP1 SWAP2 SUB SWAP1 REVERT JUMPDEST PUSH1 0x0 PUSH2 0x16F7 DUP4 PUSH1 0x1 PUSH2 0x1F36 JUMP JUMPDEST SWAP1 POP PUSH1 0x0 PUSH2 0x1707 DUP5 PUSH1 0x1 DUP8 PUSH2 0xEB3 JUMP JUMPDEST SWAP1 POP DUP3 DUP6 EQ ISZERO PUSH2 0x17C8 JUMPI PUSH1 0xE PUSH1 0x0 DUP6 PUSH20 0xFFFFFFFFFFFFFFFFFFFFFFFFFFFFFFFFFFFFFFFF AND PUSH20 0xFFFFFFFFFFFFFFFFFFFFFFFFFFFFFFFFFFFFFFFF AND DUP2 MSTORE PUSH1 0x20 ADD SWAP1 DUP2 MSTORE PUSH1 0x20 ADD PUSH1 0x0 KECCAK256 PUSH1 0x0 DUP1 DUP3 ADD PUSH1 0x0 SWAP1 SSTORE PUSH1 0x1 DUP3 ADD PUSH1 0x0 SWAP1 SSTORE PUSH1 0x2 DUP3 ADD PUSH1 0x0 SWAP1 SSTORE POP POP PUSH1 0x0 PUSH1 0xD PUSH1 0x0 DUP7 PUSH20 0xFFFFFFFFFFFFFFFFFFFFFFFFFFFFFFFFFFFFFFFF AND PUSH20 0xFFFFFFFFFFFFFFFFFFFFFFFFFFFFFFFFFFFFFFFF AND DUP2 MSTORE PUSH1 0x20 ADD SWAP1 DUP2 MSTORE PUSH1 0x20 ADD PUSH1 0x0 KECCAK256 PUSH1 0x0 PUSH2 0x100 EXP DUP2 SLOAD DUP2 PUSH1 0xFF MUL NOT AND SWAP1 DUP4 ISZERO ISZERO MUL OR SWAP1 SSTORE POP PUSH2 0x1822 JUMP JUMPDEST DUP5 PUSH1 0xE PUSH1 0x0 DUP7 PUSH20 0xFFFFFFFFFFFFFFFFFFFFFFFFFFFFFFFFFFFFFFFF AND PUSH20 0xFFFFFFFFFFFFFFFFFFFFFFFFFFFFFFFFFFFFFFFF AND DUP2 MSTORE PUSH1 0x20 ADD SWAP1 DUP2 MSTORE PUSH1 0x20 ADD PUSH1 0x0 KECCAK256 PUSH1 0x0 ADD PUSH1 0x0 DUP3 DUP3 SLOAD PUSH2 0x181A SWAP2 SWAP1 PUSH2 0x33F6 JUMP JUMPDEST SWAP3 POP POP DUP2 SWAP1 SSTORE POP JUMPDEST DUP2 ISZERO PUSH2 0x18E7 JUMPI PUSH1 0x1 PUSH1 0x0 SWAP1 SLOAD SWAP1 PUSH2 0x100 EXP SWAP1 DIV PUSH20 0xFFFFFFFFFFFFFFFFFFFFFFFFFFFFFFFFFFFFFFFF AND PUSH20 0xFFFFFFFFFFFFFFFFFFFFFFFFFFFFFFFFFFFFFFFF AND PUSH4 0xA9059CBB DUP6 DUP8 PUSH1 0x40 MLOAD DUP4 PUSH4 0xFFFFFFFF AND PUSH1 0xE0 SHL DUP2 MSTORE PUSH1 0x4 ADD PUSH2 0x1885 SWAP3 SWAP2 SWAP1 PUSH2 0x3045 JUMP JUMPDEST PUSH1 0x20 PUSH1 0x40 MLOAD DUP1 DUP4 SUB DUP2 PUSH1 0x0 DUP8 DUP1 EXTCODESIZE ISZERO DUP1 ISZERO PUSH2 0x189F JUMPI PUSH1 0x0 DUP1 REVERT JUMPDEST POP GAS CALL ISZERO DUP1 ISZERO PUSH2 0x18B3 JUMPI RETURNDATASIZE PUSH1 0x0 DUP1 RETURNDATACOPY RETURNDATASIZE PUSH1 0x0 REVERT JUMPDEST POP POP POP POP PUSH1 0x40 MLOAD RETURNDATASIZE PUSH1 0x1F NOT PUSH1 0x1F DUP3 ADD AND DUP3 ADD DUP1 PUSH1 0x40 MSTORE POP DUP2 ADD SWAP1 PUSH2 0x18D7 SWAP2 SWAP1 PUSH2 0x2A3A JUMP JUMPDEST POP PUSH2 0x18E2 DUP2 DUP6 PUSH2 0x240F JUMP JUMPDEST PUSH2 0x199C JUMP JUMPDEST PUSH1 0x0 SWAP1 POP PUSH1 0x1 PUSH1 0x0 SWAP1 SLOAD SWAP1 PUSH2 0x100 EXP SWAP1 DIV PUSH20 0xFFFFFFFFFFFFFFFFFFFFFFFFFFFFFFFFFFFFFFFF AND PUSH20 0xFFFFFFFFFFFFFFFFFFFFFFFFFFFFFFFFFFFFFFFF AND PUSH4 0xA9059CBB DUP6 DUP8 PUSH1 0x40 MLOAD DUP4 PUSH4 0xFFFFFFFF AND PUSH1 0xE0 SHL DUP2 MSTORE PUSH1 0x4 ADD PUSH2 0x1948 SWAP3 SWAP2 SWAP1 PUSH2 0x3045 JUMP JUMPDEST PUSH1 0x20 PUSH1 0x40 MLOAD DUP1 DUP4 SUB DUP2 PUSH1 0x0 DUP8 DUP1 EXTCODESIZE ISZERO DUP1 ISZERO PUSH2 0x1962 JUMPI PUSH1 0x0 DUP1 REVERT JUMPDEST POP GAS CALL ISZERO DUP1 ISZERO PUSH2 0x1976 JUMPI RETURNDATASIZE PUSH1 0x0 DUP1 RETURNDATACOPY RETURNDATASIZE PUSH1 0x0 REVERT JUMPDEST POP POP POP POP PUSH1 0x40 MLOAD RETURNDATASIZE PUSH1 0x1F NOT PUSH1 0x1F DUP3 ADD AND DUP3 ADD DUP1 PUSH1 0x40 MSTORE POP DUP2 ADD SWAP1 PUSH2 0x199A SWAP2 SWAP1 PUSH2 0x2A3A JUMP JUMPDEST POP JUMPDEST PUSH32 0xA3DFF5863D601223D9B31A0253B97A6C2085DACA56089B92836B4B6A1991E04B DUP5 PUSH1 0x1 DUP5 DUP9 DUP6 PUSH1 0x40 MLOAD PUSH2 0x19D4 SWAP6 SWAP5 SWAP4 SWAP3 SWAP2 SWAP1 PUSH2 0x2EF9 JUMP JUMPDEST PUSH1 0x40 MLOAD DUP1 SWAP2 SUB SWAP1 LOG1 POP POP POP POP POP JUMP JUMPDEST PUSH2 0x19EB PUSH2 0xA19 JUMP JUMPDEST ISZERO PUSH2 0x1A2B JUMPI PUSH1 0x40 MLOAD PUSH32 0x8C379A000000000000000000000000000000000000000000000000000000000 DUP2 MSTORE PUSH1 0x4 ADD PUSH2 0x1A22 SWAP1 PUSH2 0x315F JUMP JUMPDEST PUSH1 0x40 MLOAD DUP1 SWAP2 SUB SWAP1 REVERT JUMPDEST PUSH1 0xA SLOAD DUP2 GT ISZERO DUP1 ISZERO PUSH2 0x1A3F JUMPI POP PUSH1 0x9 SLOAD DUP2 LT ISZERO JUMPDEST PUSH2 0x1A7E JUMPI PUSH1 0x40 MLOAD PUSH32 0x8C379A000000000000000000000000000000000000000000000000000000000 DUP2 MSTORE PUSH1 0x4 ADD PUSH2 0x1A75 SWAP1 PUSH2 0x319F JUMP JUMPDEST PUSH1 0x40 MLOAD DUP1 SWAP2 SUB SWAP1 REVERT JUMPDEST PUSH1 0x0 CALLER SWAP1 POP PUSH1 0xF PUSH1 0x0 DUP3 PUSH20 0xFFFFFFFFFFFFFFFFFFFFFFFFFFFFFFFFFFFFFFFF AND PUSH20 0xFFFFFFFFFFFFFFFFFFFFFFFFFFFFFFFFFFFFFFFF AND DUP2 MSTORE PUSH1 0x20 ADD SWAP1 DUP2 MSTORE PUSH1 0x20 ADD PUSH1 0x0 KECCAK256 PUSH1 0x0 SWAP1 SLOAD SWAP1 PUSH2 0x100 EXP SWAP1 DIV PUSH1 0xFF AND ISZERO PUSH2 0x1B10 JUMPI PUSH1 0x40 MLOAD PUSH32 0x8C379A000000000000000000000000000000000000000000000000000000000 DUP2 MSTORE PUSH1 0x4 ADD PUSH2 0x1B07 SWAP1 PUSH2 0x31FF JUMP JUMPDEST PUSH1 0x40 MLOAD DUP1 SWAP2 SUB SWAP1 REVERT JUMPDEST PUSH1 0x1 PUSH1 0x0 SWAP1 SLOAD SWAP1 PUSH2 0x100 EXP SWAP1 DIV PUSH20 0xFFFFFFFFFFFFFFFFFFFFFFFFFFFFFFFFFFFFFFFF AND PUSH20 0xFFFFFFFFFFFFFFFFFFFFFFFFFFFFFFFFFFFFFFFF AND PUSH4 0x23B872DD DUP3 ADDRESS DUP6 PUSH1 0x40 MLOAD DUP5 PUSH4 0xFFFFFFFF AND PUSH1 0xE0 SHL DUP2 MSTORE PUSH1 0x4 ADD PUSH2 0x1B6F SWAP4 SWAP3 SWAP2 SWAP1 PUSH2 0x2E1C JUMP JUMPDEST PUSH1 0x20 PUSH1 0x40 MLOAD DUP1 DUP4 SUB DUP2 PUSH1 0x0 DUP8 DUP1 EXTCODESIZE ISZERO DUP1 ISZERO PUSH2 0x1B89 JUMPI PUSH1 0x0 DUP1 REVERT JUMPDEST POP GAS CALL ISZERO DUP1 ISZERO PUSH2 0x1B9D JUMPI RETURNDATASIZE PUSH1 0x0 DUP1 RETURNDATACOPY RETURNDATASIZE PUSH1 0x0 REVERT JUMPDEST POP POP POP POP PUSH1 0x40 MLOAD RETURNDATASIZE PUSH1 0x1F NOT PUSH1 0x1F DUP3 ADD AND DUP3 ADD DUP1 PUSH1 0x40 MSTORE POP DUP2 ADD SWAP1 PUSH2 0x1BC1 SWAP2 SWAP1 PUSH2 0x2A3A JUMP JUMPDEST POP PUSH1 0x1 PUSH1 0xF PUSH1 0x0 DUP4 PUSH20 0xFFFFFFFFFFFFFFFFFFFFFFFFFFFFFFFFFFFFFFFF AND PUSH20 0xFFFFFFFFFFFFFFFFFFFFFFFFFFFFFFFFFFFFFFFF AND DUP2 MSTORE PUSH1 0x20 ADD SWAP1 DUP2 MSTORE PUSH1 0x20 ADD PUSH1 0x0 KECCAK256 PUSH1 0x0 PUSH2 0x100 EXP DUP2 SLOAD DUP2 PUSH1 0xFF MUL NOT AND SWAP1 DUP4 ISZERO ISZERO MUL OR SWAP1 SSTORE POP PUSH1 0x40 MLOAD DUP1 PUSH1 0x60 ADD PUSH1 0x40 MSTORE DUP1 DUP4 DUP2 MSTORE PUSH1 0x20 ADD TIMESTAMP DUP2 MSTORE PUSH1 0x20 ADD PUSH2 0x4B0 TIMESTAMP PUSH2 0x1C3F SWAP2 SWAP1 PUSH2 0x3315 JUMP JUMPDEST DUP2 MSTORE POP PUSH1 0x10 PUSH1 0x0 DUP4 PUSH20 0xFFFFFFFFFFFFFFFFFFFFFFFFFFFFFFFFFFFFFFFF AND PUSH20 0xFFFFFFFFFFFFFFFFFFFFFFFFFFFFFFFFFFFFFFFF AND DUP2 MSTORE PUSH1 0x20 ADD SWAP1 DUP2 MSTORE PUSH1 0x20 ADD PUSH1 0x0 KECCAK256 PUSH1 0x0 DUP3 ADD MLOAD DUP2 PUSH1 0x0 ADD SSTORE PUSH1 0x20 DUP3 ADD MLOAD DUP2 PUSH1 0x1 ADD SSTORE PUSH1 0x40 DUP3 ADD MLOAD DUP2 PUSH1 0x2 ADD SSTORE SWAP1 POP POP PUSH32 0x17849BB8C713DE96B48F218D3BACC9AF082261C3CCC7C6DCCEBE70E667B22F23 DUP2 PUSH1 0x2 DUP5 TIMESTAMP PUSH3 0x76A700 TIMESTAMP PUSH2 0x1CD7 SWAP2 SWAP1 PUSH2 0x3315 JUMP JUMPDEST PUSH1 0x40 MLOAD PUSH2 0x1CE8 SWAP6 SWAP5 SWAP4 SWAP3 SWAP2 SWAP1 PUSH2 0x2FF2 JUMP JUMPDEST PUSH1 0x40 MLOAD DUP1 SWAP2 SUB SWAP1 LOG1 POP POP JUMP JUMPDEST PUSH1 0x8 SLOAD DUP2 JUMP JUMPDEST PUSH2 0x1D02 PUSH2 0x2366 JUMP JUMPDEST PUSH20 0xFFFFFFFFFFFFFFFFFFFFFFFFFFFFFFFFFFFFFFFF AND PUSH2 0x1D20 PUSH2 0x115C JUMP JUMPDEST PUSH20 0xFFFFFFFFFFFFFFFFFFFFFFFFFFFFFFFFFFFFFFFF AND EQ PUSH2 0x1D76 JUMPI PUSH1 0x40 MLOAD PUSH32 0x8C379A000000000000000000000000000000000000000000000000000000000 DUP2 MSTORE PUSH1 0x4 ADD PUSH2 0x1D6D SWAP1 PUSH2 0x31BF JUMP JUMPDEST PUSH1 0x40 MLOAD DUP1 SWAP2 SUB SWAP1 REVERT JUMPDEST DUP3 PUSH1 0x2 DUP2 SWAP1 SSTORE POP DUP2 PUSH1 0x3 DUP2 SWAP1 SSTORE POP DUP1 PUSH1 0x4 DUP2 SWAP1 SSTORE POP POP POP POP JUMP JUMPDEST PUSH2 0x1D98 PUSH2 0x2366 JUMP JUMPDEST PUSH20 0xFFFFFFFFFFFFFFFFFFFFFFFFFFFFFFFFFFFFFFFF AND PUSH2 0x1DB6 PUSH2 0x115C JUMP JUMPDEST PUSH20 0xFFFFFFFFFFFFFFFFFFFFFFFFFFFFFFFFFFFFFFFF AND EQ PUSH2 0x1E0C JUMPI PUSH1 0x40 MLOAD PUSH32 0x8C379A000000000000000000000000000000000000000000000000000000000 DUP2 MSTORE PUSH1 0x4 ADD PUSH2 0x1E03 SWAP1 PUSH2 0x31BF JUMP JUMPDEST PUSH1 0x40 MLOAD DUP1 SWAP2 SUB SWAP1 REVERT JUMPDEST PUSH1 0x0 PUSH20 0xFFFFFFFFFFFFFFFFFFFFFFFFFFFFFFFFFFFFFFFF AND DUP2 PUSH20 0xFFFFFFFFFFFFFFFFFFFFFFFFFFFFFFFFFFFFFFFF AND EQ ISZERO PUSH2 0x1E7C JUMPI PUSH1 0x40 MLOAD PUSH32 0x8C379A000000000000000000000000000000000000000000000000000000000 DUP2 MSTORE PUSH1 0x4 ADD PUSH2 0x1E73 SWAP1 PUSH2 0x30DF JUMP JUMPDEST PUSH1 0x40 MLOAD DUP1 SWAP2 SUB SWAP1 REVERT JUMPDEST PUSH2 0x1E85 DUP2 PUSH2 0x277D JUMP JUMPDEST POP JUMP JUMPDEST PUSH2 0x1E90 PUSH2 0x2366 JUMP JUMPDEST PUSH20 0xFFFFFFFFFFFFFFFFFFFFFFFFFFFFFFFFFFFFFFFF AND PUSH2 0x1EAE PUSH2 0x115C JUMP JUMPDEST PUSH20 0xFFFFFFFFFFFFFFFFFFFFFFFFFFFFFFFFFFFFFFFF AND EQ PUSH2 0x1F04 JUMPI PUSH1 0x40 MLOAD PUSH32 0x8C379A000000000000000000000000000000000000000000000000000000000 DUP2 MSTORE PUSH1 0x4 ADD PUSH2 0x1EFB SWAP1 PUSH2 0x31BF JUMP JUMPDEST PUSH1 0x40 MLOAD DUP1 SWAP2 SUB SWAP1 REVERT JUMPDEST DUP6 PUSH1 0x5 DUP2 SWAP1 SSTORE POP DUP5 PUSH1 0x6 DUP2 SWAP1 SSTORE POP DUP4 PUSH1 0x7 DUP2 SWAP1 SSTORE POP DUP3 PUSH1 0x8 DUP2 SWAP1 SSTORE POP DUP2 PUSH1 0x9 DUP2 SWAP1 SSTORE POP DUP1 PUSH1 0xA DUP2 SWAP1 SSTORE POP POP POP POP POP POP POP JUMP JUMPDEST PUSH1 0x0 DUP1 PUSH1 0x0 DUP4 PUSH1 0xFF AND EQ ISZERO PUSH2 0x1F8F JUMPI PUSH1 0xC PUSH1 0x0 DUP6 PUSH20 0xFFFFFFFFFFFFFFFFFFFFFFFFFFFFFFFFFFFFFFFF AND PUSH20 0xFFFFFFFFFFFFFFFFFFFFFFFFFFFFFFFFFFFFFFFF AND DUP2 MSTORE PUSH1 0x20 ADD SWAP1 DUP2 MSTORE PUSH1 0x20 ADD PUSH1 0x0 KECCAK256 PUSH1 0x2 ADD SLOAD SWAP1 POP PUSH2 0x2047 JUMP JUMPDEST PUSH1 0x1 DUP4 PUSH1 0xFF AND EQ ISZERO PUSH2 0x1FE5 JUMPI PUSH1 0xE PUSH1 0x0 DUP6 PUSH20 0xFFFFFFFFFFFFFFFFFFFFFFFFFFFFFFFFFFFFFFFF AND PUSH20 0xFFFFFFFFFFFFFFFFFFFFFFFFFFFFFFFFFFFFFFFF AND DUP2 MSTORE PUSH1 0x20 ADD SWAP1 DUP2 MSTORE PUSH1 0x20 ADD PUSH1 0x0 KECCAK256 PUSH1 0x2 ADD SLOAD SWAP1 POP PUSH2 0x2046 JUMP JUMPDEST PUSH1 0x2 DUP4 PUSH1 0xFF AND EQ ISZERO PUSH2 0x203B JUMPI PUSH1 0x10 PUSH1 0x0 DUP6 PUSH20 0xFFFFFFFFFFFFFFFFFFFFFFFFFFFFFFFFFFFFFFFF AND PUSH20 0xFFFFFFFFFFFFFFFFFFFFFFFFFFFFFFFFFFFFFFFF AND DUP2 MSTORE PUSH1 0x20 ADD SWAP1 DUP2 MSTORE PUSH1 0x20 ADD PUSH1 0x0 KECCAK256 PUSH1 0x2 ADD SLOAD SWAP1 POP PUSH2 0x2045 JUMP JUMPDEST PUSH1 0x0 SWAP2 POP POP PUSH2 0x204F JUMP JUMPDEST JUMPDEST JUMPDEST DUP1 TIMESTAMP LT ISZERO SWAP2 POP POP JUMPDEST SWAP3 SWAP2 POP POP JUMP JUMPDEST PUSH2 0x205D PUSH2 0xA19 JUMP JUMPDEST ISZERO PUSH2 0x209D JUMPI PUSH1 0x40 MLOAD PUSH32 0x8C379A000000000000000000000000000000000000000000000000000000000 DUP2 MSTORE PUSH1 0x4 ADD PUSH2 0x2094 SWAP1 PUSH2 0x315F JUMP JUMPDEST PUSH1 0x40 MLOAD DUP1 SWAP2 SUB SWAP1 REVERT JUMPDEST PUSH1 0x6 SLOAD DUP2 GT ISZERO DUP1 ISZERO PUSH2 0x20B1 JUMPI POP PUSH1 0x5 SLOAD DUP2 LT ISZERO JUMPDEST PUSH2 0x20F0 JUMPI PUSH1 0x40 MLOAD PUSH32 0x8C379A000000000000000000000000000000000000000000000000000000000 DUP2 MSTORE PUSH1 0x4 ADD PUSH2 0x20E7 SWAP1 PUSH2 0x319F JUMP JUMPDEST PUSH1 0x40 MLOAD DUP1 SWAP2 SUB SWAP1 REVERT JUMPDEST PUSH1 0x0 CALLER SWAP1 POP PUSH1 0xB PUSH1 0x0 DUP3 PUSH20 0xFFFFFFFFFFFFFFFFFFFFFFFFFFFFFFFFFFFFFFFF AND PUSH20 0xFFFFFFFFFFFFFFFFFFFFFFFFFFFFFFFFFFFFFFFF AND DUP2 MSTORE PUSH1 0x20 ADD SWAP1 DUP2 MSTORE PUSH1 0x20 ADD PUSH1 0x0 KECCAK256 PUSH1 0x0 SWAP1 SLOAD SWAP1 PUSH2 0x100 EXP SWAP1 DIV PUSH1 0xFF AND ISZERO PUSH2 0x2182 JUMPI PUSH1 0x40 MLOAD PUSH32 0x8C379A000000000000000000000000000000000000000000000000000000000 DUP2 MSTORE PUSH1 0x4 ADD PUSH2 0x2179 SWAP1 PUSH2 0x311F JUMP JUMPDEST PUSH1 0x40 MLOAD DUP1 SWAP2 SUB SWAP1 REVERT JUMPDEST PUSH1 0x1 PUSH1 0x0 SWAP1 SLOAD SWAP1 PUSH2 0x100 EXP SWAP1 DIV PUSH20 0xFFFFFFFFFFFFFFFFFFFFFFFFFFFFFFFFFFFFFFFF AND PUSH20 0xFFFFFFFFFFFFFFFFFFFFFFFFFFFFFFFFFFFFFFFF AND PUSH4 0x23B872DD DUP3 ADDRESS DUP6 PUSH1 0x40 MLOAD DUP5 PUSH4 0xFFFFFFFF AND PUSH1 0xE0 SHL DUP2 MSTORE PUSH1 0x4 ADD PUSH2 0x21E1 SWAP4 SWAP3 SWAP2 SWAP1 PUSH2 0x2E1C JUMP JUMPDEST PUSH1 0x20 PUSH1 0x40 MLOAD DUP1 DUP4 SUB DUP2 PUSH1 0x0 DUP8 DUP1 EXTCODESIZE ISZERO DUP1 ISZERO PUSH2 0x21FB JUMPI PUSH1 0x0 DUP1 REVERT JUMPDEST POP GAS CALL ISZERO DUP1 ISZERO PUSH2 0x220F JUMPI RETURNDATASIZE PUSH1 0x0 DUP1 RETURNDATACOPY RETURNDATASIZE PUSH1 0x0 REVERT JUMPDEST POP POP POP POP PUSH1 0x40 MLOAD RETURNDATASIZE PUSH1 0x1F NOT PUSH1 0x1F DUP3 ADD AND DUP3 ADD DUP1 PUSH1 0x40 MSTORE POP DUP2 ADD SWAP1 PUSH2 0x2233 SWAP2 SWAP1 PUSH2 0x2A3A JUMP JUMPDEST POP PUSH1 0x1 PUSH1 0xB PUSH1 0x0 DUP4 PUSH20 0xFFFFFFFFFFFFFFFFFFFFFFFFFFFFFFFFFFFFFFFF AND PUSH20 0xFFFFFFFFFFFFFFFFFFFFFFFFFFFFFFFFFFFFFFFF AND DUP2 MSTORE PUSH1 0x20 ADD SWAP1 DUP2 MSTORE PUSH1 0x20 ADD PUSH1 0x0 KECCAK256 PUSH1 0x0 PUSH2 0x100 EXP DUP2 SLOAD DUP2 PUSH1 0xFF MUL NOT AND SWAP1 DUP4 ISZERO ISZERO MUL OR SWAP1 SSTORE POP PUSH1 0x40 MLOAD DUP1 PUSH1 0x60 ADD PUSH1 0x40 MSTORE DUP1 DUP4 DUP2 MSTORE PUSH1 0x20 ADD TIMESTAMP DUP2 MSTORE PUSH1 0x20 ADD PUSH2 0x258 TIMESTAMP PUSH2 0x22B1 SWAP2 SWAP1 PUSH2 0x3315 JUMP JUMPDEST DUP2 MSTORE POP PUSH1 0xC PUSH1 0x0 DUP4 PUSH20 0xFFFFFFFFFFFFFFFFFFFFFFFFFFFFFFFFFFFFFFFF AND PUSH20 0xFFFFFFFFFFFFFFFFFFFFFFFFFFFFFFFFFFFFFFFF AND DUP2 MSTORE PUSH1 0x20 ADD SWAP1 DUP2 MSTORE PUSH1 0x20 ADD PUSH1 0x0 KECCAK256 PUSH1 0x0 DUP3 ADD MLOAD DUP2 PUSH1 0x0 ADD SSTORE PUSH1 0x20 DUP3 ADD MLOAD DUP2 PUSH1 0x1 ADD SSTORE PUSH1 0x40 DUP3 ADD MLOAD DUP2 PUSH1 0x2 ADD SSTORE SWAP1 POP POP PUSH32 0x17849BB8C713DE96B48F218D3BACC9AF082261C3CCC7C6DCCEBE70E667B22F23 DUP2 PUSH1 0x0 DUP5 TIMESTAMP PUSH3 0x93A80 TIMESTAMP PUSH2 0x2349 SWAP2 SWAP1 PUSH2 0x3315 JUMP JUMPDEST PUSH1 0x40 MLOAD PUSH2 0x235A SWAP6 SWAP5 SWAP4 SWAP3 SWAP2 SWAP1 PUSH2 0x2EA6 JUMP JUMPDEST PUSH1 0x40 MLOAD DUP1 SWAP2 SUB SWAP1 LOG1 POP POP JUMP JUMPDEST PUSH1 0x0 CALLER SWAP1 POP SWAP1 JUMP JUMPDEST PUSH2 0x2376 PUSH2 0xA19 JUMP JUMPDEST PUSH2 0x23B5 JUMPI PUSH1 0x40 MLOAD PUSH32 0x8C379A000000000000000000000000000000000000000000000000000000000 DUP2 MSTORE PUSH1 0x4 ADD PUSH2 0x23AC SWAP1 PUSH2 0x30BF JUMP JUMPDEST PUSH1 0x40 MLOAD DUP1 SWAP2 SUB SWAP1 REVERT JUMPDEST PUSH1 0x0 DUP1 PUSH1 0x14 PUSH2 0x100 EXP DUP2 SLOAD DUP2 PUSH1 0xFF MUL NOT AND SWAP1 DUP4 ISZERO ISZERO MUL OR SWAP1 SSTORE POP PUSH32 0x5DB9EE0A495BF2E6FF9C91A7834C1BA4FDD244A5E8AA4E537BD38AEAE4B073AA PUSH2 0x23F8 PUSH2 0x2366 JUMP JUMPDEST PUSH1 0x40 MLOAD PUSH2 0x2405 SWAP2 SWAP1 PUSH2 0x2E01 JUMP JUMPDEST PUSH1 0x40 MLOAD DUP1 SWAP2 SUB SWAP1 LOG1 JUMP JUMPDEST PUSH1 0x0 PUSH1 0x2 PUSH8 0xFFFFFFFFFFFFFFFF DUP2 GT ISZERO PUSH2 0x242C JUMPI PUSH2 0x242B PUSH2 0x359C JUMP JUMPDEST JUMPDEST PUSH1 0x40 MLOAD SWAP1 DUP1 DUP3 MSTORE DUP1 PUSH1 0x20 MUL PUSH1 0x20 ADD DUP3 ADD PUSH1 0x40 MSTORE DUP1 ISZERO PUSH2 0x245A JUMPI DUP2 PUSH1 0x20 ADD PUSH1 0x20 DUP3 MUL DUP1 CALLDATASIZE DUP4 CALLDATACOPY DUP1 DUP3 ADD SWAP2 POP POP SWAP1 POP JUMPDEST POP SWAP1 POP PUSH1 0x1 PUSH1 0x0 SWAP1 SLOAD SWAP1 PUSH2 0x100 EXP SWAP1 DIV PUSH20 0xFFFFFFFFFFFFFFFFFFFFFFFFFFFFFFFFFFFFFFFF AND DUP2 PUSH1 0x0 DUP2 MLOAD DUP2 LT PUSH2 0x2494 JUMPI PUSH2 0x2493 PUSH2 0x356D JUMP JUMPDEST JUMPDEST PUSH1 0x20 MUL PUSH1 0x20 ADD ADD SWAP1 PUSH20 0xFFFFFFFFFFFFFFFFFFFFFFFFFFFFFFFFFFFFFFFF AND SWAP1 DUP2 PUSH20 0xFFFFFFFFFFFFFFFFFFFFFFFFFFFFFFFFFFFFFFFF AND DUP2 MSTORE POP POP PUSH32 0x0 PUSH20 0xFFFFFFFFFFFFFFFFFFFFFFFFFFFFFFFFFFFFFFFF AND PUSH4 0xAD5C4648 PUSH1 0x40 MLOAD DUP2 PUSH4 0xFFFFFFFF AND PUSH1 0xE0 SHL DUP2 MSTORE PUSH1 0x4 ADD PUSH1 0x20 PUSH1 0x40 MLOAD DUP1 DUP4 SUB DUP2 DUP7 DUP1 EXTCODESIZE ISZERO DUP1 ISZERO PUSH2 0x2534 JUMPI PUSH1 0x0 DUP1 REVERT JUMPDEST POP GAS STATICCALL ISZERO DUP1 ISZERO PUSH2 0x2548 JUMPI RETURNDATASIZE PUSH1 0x0 DUP1 RETURNDATACOPY RETURNDATASIZE PUSH1 0x0 REVERT JUMPDEST POP POP POP POP PUSH1 0x40 MLOAD RETURNDATASIZE PUSH1 0x1F NOT PUSH1 0x1F DUP3 ADD AND DUP3 ADD DUP1 PUSH1 0x40 MSTORE POP DUP2 ADD SWAP1 PUSH2 0x256C SWAP2 SWAP1 PUSH2 0x297A JUMP JUMPDEST DUP2 PUSH1 0x1 DUP2 MLOAD DUP2 LT PUSH2 0x2580 JUMPI PUSH2 0x257F PUSH2 0x356D JUMP JUMPDEST JUMPDEST PUSH1 0x20 MUL PUSH1 0x20 ADD ADD SWAP1 PUSH20 0xFFFFFFFFFFFFFFFFFFFFFFFFFFFFFFFFFFFFFFFF AND SWAP1 DUP2 PUSH20 0xFFFFFFFFFFFFFFFFFFFFFFFFFFFFFFFFFFFFFFFF AND DUP2 MSTORE POP POP PUSH1 0x1 PUSH1 0x0 SWAP1 SLOAD SWAP1 PUSH2 0x100 EXP SWAP1 DIV PUSH20 0xFFFFFFFFFFFFFFFFFFFFFFFFFFFFFFFFFFFFFFFF AND PUSH20 0xFFFFFFFFFFFFFFFFFFFFFFFFFFFFFFFFFFFFFFFF AND PUSH4 0x95EA7B3 PUSH32 0x0 DUP6 PUSH1 0x40 MLOAD DUP4 PUSH4 0xFFFFFFFF AND PUSH1 0xE0 SHL DUP2 MSTORE PUSH1 0x4 ADD PUSH2 0x2637 SWAP3 SWAP2 SWAP1 PUSH2 0x3045 JUMP JUMPDEST PUSH1 0x20 PUSH1 0x40 MLOAD DUP1 DUP4 SUB DUP2 PUSH1 0x0 DUP8 DUP1 EXTCODESIZE ISZERO DUP1 ISZERO PUSH2 0x2651 JUMPI PUSH1 0x0 DUP1 REVERT JUMPDEST POP GAS CALL ISZERO DUP1 ISZERO PUSH2 0x2665 JUMPI RETURNDATASIZE PUSH1 0x0 DUP1 RETURNDATACOPY RETURNDATASIZE PUSH1 0x0 REVERT JUMPDEST POP POP POP POP PUSH1 0x40 MLOAD RETURNDATASIZE PUSH1 0x1F NOT PUSH1 0x1F DUP3 ADD AND DUP3 ADD DUP1 PUSH1 0x40 MSTORE POP DUP2 ADD SWAP1 PUSH2 0x2689 SWAP2 SWAP1 PUSH2 0x2A3A JUMP JUMPDEST POP PUSH32 0x0 PUSH20 0xFFFFFFFFFFFFFFFFFFFFFFFFFFFFFFFFFFFFFFFF AND PUSH4 0x791AC947 DUP5 PUSH1 0x0 DUP5 DUP7 TIMESTAMP PUSH1 0x40 MLOAD DUP7 PUSH4 0xFFFFFFFF AND PUSH1 0xE0 SHL DUP2 MSTORE PUSH1 0x4 ADD PUSH2 0x26EC SWAP6 SWAP5 SWAP4 SWAP3 SWAP2 SWAP1 PUSH2 0x323A JUMP JUMPDEST PUSH1 0x0 PUSH1 0x40 MLOAD DUP1 DUP4 SUB DUP2 PUSH1 0x0 DUP8 DUP1 EXTCODESIZE ISZERO DUP1 ISZERO PUSH2 0x2706 JUMPI PUSH1 0x0 DUP1 REVERT JUMPDEST POP GAS CALL ISZERO DUP1 ISZERO PUSH2 0x271A JUMPI RETURNDATASIZE PUSH1 0x0 DUP1 RETURNDATACOPY RETURNDATASIZE PUSH1 0x0 REVERT JUMPDEST POP POP POP POP POP POP POP JUMP JUMPDEST PUSH1 0x0 DUP1 DUP4 TIMESTAMP PUSH2 0x2732 SWAP2 SWAP1 PUSH2 0x33F6 JUMP JUMPDEST SWAP1 POP PUSH1 0x0 PUSH4 0x1E13380 PUSH2 0x2710 DUP6 DUP9 PUSH2 0x274A SWAP2 SWAP1 PUSH2 0x339C JUMP JUMPDEST PUSH2 0x2754 SWAP2 SWAP1 PUSH2 0x336B JUMP JUMPDEST PUSH2 0x275E SWAP2 SWAP1 PUSH2 0x336B JUMP JUMPDEST SWAP1 POP PUSH1 0x0 DUP2 DUP4 PUSH2 0x276E SWAP2 SWAP1 PUSH2 0x339C JUMP JUMPDEST SWAP1 POP DUP1 SWAP4 POP POP POP POP SWAP4 SWAP3 POP POP POP JUMP JUMPDEST PUSH1 0x0 DUP1 PUSH1 0x0 SWAP1 SLOAD SWAP1 PUSH2 0x100 EXP SWAP1 DIV PUSH20 0xFFFFFFFFFFFFFFFFFFFFFFFFFFFFFFFFFFFFFFFF AND SWAP1 POP DUP2 PUSH1 0x0 DUP1 PUSH2 0x100 EXP DUP2 SLOAD DUP2 PUSH20 0xFFFFFFFFFFFFFFFFFFFFFFFFFFFFFFFFFFFFFFFF MUL NOT AND SWAP1 DUP4 PUSH20 0xFFFFFFFFFFFFFFFFFFFFFFFFFFFFFFFFFFFFFFFF AND MUL OR SWAP1 SSTORE POP DUP2 PUSH20 0xFFFFFFFFFFFFFFFFFFFFFFFFFFFFFFFFFFFFFFFF AND DUP2 PUSH20 0xFFFFFFFFFFFFFFFFFFFFFFFFFFFFFFFFFFFFFFFF AND PUSH32 0x8BE0079C531659141344CD1FD0A4F28419497F9722A3DAAFE3B4186F6B6457E0 PUSH1 0x40 MLOAD PUSH1 0x40 MLOAD DUP1 SWAP2 SUB SWAP1 LOG3 POP POP JUMP JUMPDEST PUSH2 0x2849 PUSH2 0xA19 JUMP JUMPDEST ISZERO PUSH2 0x2889 JUMPI PUSH1 0x40 MLOAD PUSH32 0x8C379A000000000000000000000000000000000000000000000000000000000 DUP2 MSTORE PUSH1 0x4 ADD PUSH2 0x2880 SWAP1 PUSH2 0x315F JUMP JUMPDEST PUSH1 0x40 MLOAD DUP1 SWAP2 SUB SWAP1 REVERT JUMPDEST PUSH1 0x1 PUSH1 0x0 PUSH1 0x14 PUSH2 0x100 EXP DUP2 SLOAD DUP2 PUSH1 0xFF MUL NOT AND SWAP1 DUP4 ISZERO ISZERO MUL OR SWAP1 SSTORE POP PUSH32 0x62E78CEA01BEE320CD4E420270B5EA74000D11B0C9F74754EBDBFC544B05A258 PUSH2 0x28CD PUSH2 0x2366 JUMP JUMPDEST PUSH1 0x40 MLOAD PUSH2 0x28DA SWAP2 SWAP1 PUSH2 0x2E01 JUMP JUMPDEST PUSH1 0x40 MLOAD DUP1 SWAP2 SUB SWAP1 LOG1 JUMP JUMPDEST PUSH1 0x0 DUP2 CALLDATALOAD SWAP1 POP PUSH2 0x28F3 DUP2 PUSH2 0x3805 JUMP JUMPDEST SWAP3 SWAP2 POP POP JUMP JUMPDEST PUSH1 0x0 DUP2 MLOAD SWAP1 POP PUSH2 0x2908 DUP2 PUSH2 0x3805 JUMP JUMPDEST SWAP3 SWAP2 POP POP JUMP JUMPDEST PUSH1 0x0 DUP2 MLOAD SWAP1 POP PUSH2 0x291D DUP2 PUSH2 0x381C JUMP JUMPDEST SWAP3 SWAP2 POP POP JUMP JUMPDEST PUSH1 0x0 DUP2 CALLDATALOAD SWAP1 POP PUSH2 0x2932 DUP2 PUSH2 0x3833 JUMP JUMPDEST SWAP3 SWAP2 POP POP JUMP JUMPDEST PUSH1 0x0 DUP2 CALLDATALOAD SWAP1 POP PUSH2 0x2947 DUP2 PUSH2 0x384A JUMP JUMPDEST SWAP3 SWAP2 POP POP JUMP JUMPDEST PUSH1 0x0 PUSH1 0x20 DUP3 DUP5 SUB SLT ISZERO PUSH2 0x2963 JUMPI PUSH2 0x2962 PUSH2 0x35CB JUMP JUMPDEST JUMPDEST PUSH1 0x0 PUSH2 0x2971 DUP5 DUP3 DUP6 ADD PUSH2 0x28E4 JUMP JUMPDEST SWAP2 POP POP SWAP3 SWAP2 POP POP JUMP JUMPDEST PUSH1 0x0 PUSH1 0x20 DUP3 DUP5 SUB SLT ISZERO PUSH2 0x2990 JUMPI PUSH2 0x298F PUSH2 0x35CB JUMP JUMPDEST JUMPDEST PUSH1 0x0 PUSH2 0x299E DUP5 DUP3 DUP6 ADD PUSH2 0x28F9 JUMP JUMPDEST SWAP2 POP POP SWAP3 SWAP2 POP POP JUMP JUMPDEST PUSH1 0x0 DUP1 PUSH1 0x40 DUP4 DUP6 SUB SLT ISZERO PUSH2 0x29BE JUMPI PUSH2 0x29BD PUSH2 0x35CB JUMP JUMPDEST JUMPDEST PUSH1 0x0 PUSH2 0x29CC DUP6 DUP3 DUP7 ADD PUSH2 0x28E4 JUMP JUMPDEST SWAP3 POP POP PUSH1 0x20 PUSH2 0x29DD DUP6 DUP3 DUP7 ADD PUSH2 0x2938 JUMP JUMPDEST SWAP2 POP POP SWAP3 POP SWAP3 SWAP1 POP JUMP JUMPDEST PUSH1 0x0 DUP1 PUSH1 0x0 PUSH1 0x60 DUP5 DUP7 SUB SLT ISZERO PUSH2 0x2A00 JUMPI PUSH2 0x29FF PUSH2 0x35CB JUMP JUMPDEST JUMPDEST PUSH1 0x0 PUSH2 0x2A0E DUP7 DUP3 DUP8 ADD PUSH2 0x28E4 JUMP JUMPDEST SWAP4 POP POP PUSH1 0x20 PUSH2 0x2A1F DUP7 DUP3 DUP8 ADD PUSH2 0x2938 JUMP JUMPDEST SWAP3 POP POP PUSH1 0x40 PUSH2 0x2A30 DUP7 DUP3 DUP8 ADD PUSH2 0x2923 JUMP JUMPDEST SWAP2 POP POP SWAP3 POP SWAP3 POP SWAP3 JUMP JUMPDEST PUSH1 0x0 PUSH1 0x20 DUP3 DUP5 SUB SLT ISZERO PUSH2 0x2A50 JUMPI PUSH2 0x2A4F PUSH2 0x35CB JUMP JUMPDEST JUMPDEST PUSH1 0x0 PUSH2 0x2A5E DUP5 DUP3 DUP6 ADD PUSH2 0x290E JUMP JUMPDEST SWAP2 POP POP SWAP3 SWAP2 POP POP JUMP JUMPDEST PUSH1 0x0 PUSH1 0x20 DUP3 DUP5 SUB SLT ISZERO PUSH2 0x2A7D JUMPI PUSH2 0x2A7C PUSH2 0x35CB JUMP JUMPDEST JUMPDEST PUSH1 0x0 PUSH2 0x2A8B DUP5 DUP3 DUP6 ADD PUSH2 0x2923 JUMP JUMPDEST SWAP2 POP POP SWAP3 SWAP2 POP POP JUMP JUMPDEST PUSH1 0x0 DUP1 PUSH1 0x0 PUSH1 0x60 DUP5 DUP7 SUB SLT ISZERO PUSH2 0x2AAD JUMPI PUSH2 0x2AAC PUSH2 0x35CB JUMP JUMPDEST JUMPDEST PUSH1 0x0 PUSH2 0x2ABB DUP7 DUP3 DUP8 ADD PUSH2 0x2923 JUMP JUMPDEST SWAP4 POP POP PUSH1 0x20 PUSH2 0x2ACC DUP7 DUP3 DUP8 ADD PUSH2 0x2923 JUMP JUMPDEST SWAP3 POP POP PUSH1 0x40 PUSH2 0x2ADD DUP7 DUP3 DUP8 ADD PUSH2 0x2923 JUMP JUMPDEST SWAP2 POP POP SWAP3 POP SWAP3 POP SWAP3 JUMP JUMPDEST PUSH1 0x0 DUP1 PUSH1 0x0 DUP1 PUSH1 0x0 DUP1 PUSH1 0xC0 DUP8 DUP10 SUB SLT ISZERO PUSH2 0x2B04 JUMPI PUSH2 0x2B03 PUSH2 0x35CB JUMP JUMPDEST JUMPDEST PUSH1 0x0 PUSH2 0x2B12 DUP10 DUP3 DUP11 ADD PUSH2 0x2923 JUMP JUMPDEST SWAP7 POP POP PUSH1 0x20 PUSH2 0x2B23 DUP10 DUP3 DUP11 ADD PUSH2 0x2923 JUMP JUMPDEST SWAP6 POP POP PUSH1 0x40 PUSH2 0x2B34 DUP10 DUP3 DUP11 ADD PUSH2 0x2923 JUMP JUMPDEST SWAP5 POP POP PUSH1 0x60 PUSH2 0x2B45 DUP10 DUP3 DUP11 ADD PUSH2 0x2923 JUMP JUMPDEST SWAP4 POP POP PUSH1 0x80 PUSH2 0x2B56 DUP10 DUP3 DUP11 ADD PUSH2 0x2923 JUMP JUMPDEST SWAP3 POP POP PUSH1 0xA0 PUSH2 0x2B67 DUP10 DUP3 DUP11 ADD PUSH2 0x2923 JUMP JUMPDEST SWAP2 POP POP SWAP3 SWAP6 POP SWAP3 SWAP6 POP SWAP3 SWAP6 JUMP JUMPDEST PUSH1 0x0 PUSH2 0x2B80 DUP4 DUP4 PUSH2 0x2B8C JUMP JUMPDEST PUSH1 0x20 DUP4 ADD SWAP1 POP SWAP3 SWAP2 POP POP JUMP JUMPDEST PUSH2 0x2B95 DUP2 PUSH2 0x342A JUMP JUMPDEST DUP3 MSTORE POP POP JUMP JUMPDEST PUSH2 0x2BA4 DUP2 PUSH2 0x342A JUMP JUMPDEST DUP3 MSTORE POP POP JUMP JUMPDEST PUSH1 0x0 PUSH2 0x2BB5 DUP3 PUSH2 0x32DB JUMP JUMPDEST PUSH2 0x2BBF DUP2 DUP6 PUSH2 0x32F3 JUMP JUMPDEST SWAP4 POP PUSH2 0x2BCA DUP4 PUSH2 0x32CB JUMP JUMPDEST DUP1 PUSH1 0x0 JUMPDEST DUP4 DUP2 LT ISZERO PUSH2 0x2BFB JUMPI DUP2 MLOAD PUSH2 0x2BE2 DUP9 DUP3 PUSH2 0x2B74 JUMP JUMPDEST SWAP8 POP PUSH2 0x2BED DUP4 PUSH2 0x32E6 JUMP JUMPDEST SWAP3 POP POP PUSH1 0x1 DUP2 ADD SWAP1 POP PUSH2 0x2BCE JUMP JUMPDEST POP DUP6 SWAP4 POP POP POP POP SWAP3 SWAP2 POP POP JUMP JUMPDEST PUSH2 0x2C11 DUP2 PUSH2 0x343C JUMP JUMPDEST DUP3 MSTORE POP POP JUMP JUMPDEST PUSH2 0x2C20 DUP2 PUSH2 0x347F JUMP JUMPDEST DUP3 MSTORE POP POP JUMP JUMPDEST PUSH2 0x2C2F DUP2 PUSH2 0x3491 JUMP JUMPDEST DUP3 MSTORE POP POP JUMP JUMPDEST PUSH2 0x2C3E DUP2 PUSH2 0x34A3 JUMP JUMPDEST DUP3 MSTORE POP POP JUMP JUMPDEST PUSH2 0x2C4D DUP2 PUSH2 0x34B5 JUMP JUMPDEST DUP3 MSTORE POP POP JUMP JUMPDEST PUSH2 0x2C5C DUP2 PUSH2 0x34C7 JUMP JUMPDEST DUP3 MSTORE POP POP JUMP JUMPDEST PUSH2 0x2C6B DUP2 PUSH2 0x34D9 JUMP JUMPDEST DUP3 MSTORE POP POP JUMP JUMPDEST PUSH1 0x0 PUSH2 0x2C7E PUSH1 0x14 DUP4 PUSH2 0x3304 JUMP JUMPDEST SWAP2 POP PUSH2 0x2C89 DUP3 PUSH2 0x35D0 JUMP JUMPDEST PUSH1 0x20 DUP3 ADD SWAP1 POP SWAP2 SWAP1 POP JUMP JUMPDEST PUSH1 0x0 PUSH2 0x2CA1 PUSH1 0x26 DUP4 PUSH2 0x3304 JUMP JUMPDEST SWAP2 POP PUSH2 0x2CAC DUP3 PUSH2 0x35F9 JUMP JUMPDEST PUSH1 0x40 DUP3 ADD SWAP1 POP SWAP2 SWAP1 POP JUMP JUMPDEST PUSH1 0x0 PUSH2 0x2CC4 PUSH1 0x1E DUP4 PUSH2 0x3304 JUMP JUMPDEST SWAP2 POP PUSH2 0x2CCF DUP3 PUSH2 0x3648 JUMP JUMPDEST PUSH1 0x20 DUP3 ADD SWAP1 POP SWAP2 SWAP1 POP JUMP JUMPDEST PUSH1 0x0 PUSH2 0x2CE7 PUSH1 0x22 DUP4 PUSH2 0x3304 JUMP JUMPDEST SWAP2 POP PUSH2 0x2CF2 DUP3 PUSH2 0x3671 JUMP JUMPDEST PUSH1 0x40 DUP3 ADD SWAP1 POP SWAP2 SWAP1 POP JUMP JUMPDEST PUSH1 0x0 PUSH2 0x2D0A PUSH1 0x16 DUP4 PUSH2 0x3304 JUMP JUMPDEST SWAP2 POP PUSH2 0x2D15 DUP3 PUSH2 0x36C0 JUMP JUMPDEST PUSH1 0x20 DUP3 ADD SWAP1 POP SWAP2 SWAP1 POP JUMP JUMPDEST PUSH1 0x0 PUSH2 0x2D2D PUSH1 0x10 DUP4 PUSH2 0x3304 JUMP JUMPDEST SWAP2 POP PUSH2 0x2D38 DUP3 PUSH2 0x36E9 JUMP JUMPDEST PUSH1 0x20 DUP3 ADD SWAP1 POP SWAP2 SWAP1 POP JUMP JUMPDEST PUSH1 0x0 PUSH2 0x2D50 PUSH1 0x16 DUP4 PUSH2 0x3304 JUMP JUMPDEST SWAP2 POP PUSH2 0x2D5B DUP3 PUSH2 0x3712 JUMP JUMPDEST PUSH1 0x20 DUP3 ADD SWAP1 POP SWAP2 SWAP1 POP JUMP JUMPDEST PUSH1 0x0 PUSH2 0x2D73 PUSH1 0x32 DUP4 PUSH2 0x3304 JUMP JUMPDEST SWAP2 POP PUSH2 0x2D7E DUP3 PUSH2 0x373B JUMP JUMPDEST PUSH1 0x40 DUP3 ADD SWAP1 POP SWAP2 SWAP1 POP JUMP JUMPDEST PUSH1 0x0 PUSH2 0x2D96 PUSH1 0x20 DUP4 PUSH2 0x3304 JUMP JUMPDEST SWAP2 POP PUSH2 0x2DA1 DUP3 PUSH2 0x378A JUMP JUMPDEST PUSH1 0x20 DUP3 ADD SWAP1 POP SWAP2 SWAP1 POP JUMP JUMPDEST PUSH1 0x0 PUSH2 0x2DB9 PUSH1 0xF DUP4 PUSH2 0x3304 JUMP JUMPDEST SWAP2 POP PUSH2 0x2DC4 DUP3 PUSH2 0x37B3 JUMP JUMPDEST PUSH1 0x20 DUP3 ADD SWAP1 POP SWAP2 SWAP1 POP JUMP JUMPDEST PUSH1 0x0 PUSH2 0x2DDC PUSH1 0x1F DUP4 PUSH2 0x3304 JUMP JUMPDEST SWAP2 POP PUSH2 0x2DE7 DUP3 PUSH2 0x37DC JUMP JUMPDEST PUSH1 0x20 DUP3 ADD SWAP1 POP SWAP2 SWAP1 POP JUMP JUMPDEST PUSH2 0x2DFB DUP2 PUSH2 0x3468 JUMP JUMPDEST DUP3 MSTORE POP POP JUMP JUMPDEST PUSH1 0x0 PUSH1 0x20 DUP3 ADD SWAP1 POP PUSH2 0x2E16 PUSH1 0x0 DUP4 ADD DUP5 PUSH2 0x2B9B JUMP JUMPDEST SWAP3 SWAP2 POP POP JUMP JUMPDEST PUSH1 0x0 PUSH1 0x60 DUP3 ADD SWAP1 POP PUSH2 0x2E31 PUSH1 0x0 DUP4 ADD DUP7 PUSH2 0x2B9B JUMP JUMPDEST PUSH2 0x2E3E PUSH1 0x20 DUP4 ADD DUP6 PUSH2 0x2B9B JUMP JUMPDEST PUSH2 0x2E4B PUSH1 0x40 DUP4 ADD DUP5 PUSH2 0x2DF2 JUMP JUMPDEST SWAP5 SWAP4 POP POP POP POP JUMP JUMPDEST PUSH1 0x0 PUSH1 0xA0 DUP3 ADD SWAP1 POP PUSH2 0x2E68 PUSH1 0x0 DUP4 ADD DUP9 PUSH2 0x2B9B JUMP JUMPDEST PUSH2 0x2E75 PUSH1 0x20 DUP4 ADD DUP8 PUSH2 0x2C44 JUMP JUMPDEST PUSH2 0x2E82 PUSH1 0x40 DUP4 ADD DUP7 PUSH2 0x2C08 JUMP JUMPDEST PUSH2 0x2E8F PUSH1 0x60 DUP4 ADD DUP6 PUSH2 0x2DF2 JUMP JUMPDEST PUSH2 0x2E9C PUSH1 0x80 DUP4 ADD DUP5 PUSH2 0x2DF2 JUMP JUMPDEST SWAP7 SWAP6 POP POP POP POP POP POP JUMP JUMPDEST PUSH1 0x0 PUSH1 0xA0 DUP3 ADD SWAP1 POP PUSH2 0x2EBB PUSH1 0x0 DUP4 ADD DUP9 PUSH2 0x2B9B JUMP JUMPDEST PUSH2 0x2EC8 PUSH1 0x20 DUP4 ADD DUP8 PUSH2 0x2C44 JUMP JUMPDEST PUSH2 0x2ED5 PUSH1 0x40 DUP4 ADD DUP7 PUSH2 0x2DF2 JUMP JUMPDEST PUSH2 0x2EE2 PUSH1 0x60 DUP4 ADD DUP6 PUSH2 0x2DF2 JUMP JUMPDEST PUSH2 0x2EEF PUSH1 0x80 DUP4 ADD DUP5 PUSH2 0x2DF2 JUMP JUMPDEST SWAP7 SWAP6 POP POP POP POP POP POP JUMP JUMPDEST PUSH1 0x0 PUSH1 0xA0 DUP3 ADD SWAP1 POP PUSH2 0x2F0E PUSH1 0x0 DUP4 ADD DUP9 PUSH2 0x2B9B JUMP JUMPDEST PUSH2 0x2F1B PUSH1 0x20 DUP4 ADD DUP8 PUSH2 0x2C53 JUMP JUMPDEST PUSH2 0x2F28 PUSH1 0x40 DUP4 ADD DUP7 PUSH2 0x2C08 JUMP JUMPDEST PUSH2 0x2F35 PUSH1 0x60 DUP4 ADD DUP6 PUSH2 0x2DF2 JUMP JUMPDEST PUSH2 0x2F42 PUSH1 0x80 DUP4 ADD DUP5 PUSH2 0x2DF2 JUMP JUMPDEST SWAP7 SWAP6 POP POP POP POP POP POP JUMP JUMPDEST PUSH1 0x0 PUSH1 0xA0 DUP3 ADD SWAP1 POP PUSH2 0x2F61 PUSH1 0x0 DUP4 ADD DUP9 PUSH2 0x2B9B JUMP JUMPDEST PUSH2 0x2F6E PUSH1 0x20 DUP4 ADD DUP8 PUSH2 0x2C53 JUMP JUMPDEST PUSH2 0x2F7B PUSH1 0x40 DUP4 ADD DUP7 PUSH2 0x2DF2 JUMP JUMPDEST PUSH2 0x2F88 PUSH1 0x60 DUP4 ADD DUP6 PUSH2 0x2DF2 JUMP JUMPDEST PUSH2 0x2F95 PUSH1 0x80 DUP4 ADD DUP5 PUSH2 0x2DF2 JUMP JUMPDEST SWAP7 SWAP6 POP POP POP POP POP POP JUMP JUMPDEST PUSH1 0x0 PUSH1 0xA0 DUP3 ADD SWAP1 POP PUSH2 0x2FB4 PUSH1 0x0 DUP4 ADD DUP9 PUSH2 0x2B9B JUMP JUMPDEST PUSH2 0x2FC1 PUSH1 0x20 DUP4 ADD DUP8 PUSH2 0x2C62 JUMP JUMPDEST PUSH2 0x2FCE PUSH1 0x40 DUP4 ADD DUP7 PUSH2 0x2C08 JUMP JUMPDEST PUSH2 0x2FDB PUSH1 0x60 DUP4 ADD DUP6 PUSH2 0x2DF2 JUMP JUMPDEST PUSH2 0x2FE8 PUSH1 0x80 DUP4 ADD DUP5 PUSH2 0x2DF2 JUMP JUMPDEST SWAP7 SWAP6 POP POP POP POP POP POP JUMP JUMPDEST PUSH1 0x0 PUSH1 0xA0 DUP3 ADD SWAP1 POP PUSH2 0x3007 PUSH1 0x0 DUP4 ADD DUP9 PUSH2 0x2B9B JUMP JUMPDEST PUSH2 0x3014 PUSH1 0x20 DUP4 ADD DUP8 PUSH2 0x2C62 JUMP JUMPDEST PUSH2 0x3021 PUSH1 0x40 DUP4 ADD DUP7 PUSH2 0x2DF2 JUMP JUMPDEST PUSH2 0x302E PUSH1 0x60 DUP4 ADD DUP6 PUSH2 0x2DF2 JUMP JUMPDEST PUSH2 0x303B PUSH1 0x80 DUP4 ADD DUP5 PUSH2 0x2DF2 JUMP JUMPDEST SWAP7 SWAP6 POP POP POP POP POP POP JUMP JUMPDEST PUSH1 0x0 PUSH1 0x40 DUP3 ADD SWAP1 POP PUSH2 0x305A PUSH1 0x0 DUP4 ADD DUP6 PUSH2 0x2B9B JUMP JUMPDEST PUSH2 0x3067 PUSH1 0x20 DUP4 ADD DUP5 PUSH2 0x2DF2 JUMP JUMPDEST SWAP4 SWAP3 POP POP POP JUMP JUMPDEST PUSH1 0x0 PUSH1 0x20 DUP3 ADD SWAP1 POP PUSH2 0x3083 PUSH1 0x0 DUP4 ADD DUP5 PUSH2 0x2C08 JUMP JUMPDEST SWAP3 SWAP2 POP POP JUMP JUMPDEST PUSH1 0x0 PUSH1 0x20 DUP3 ADD SWAP1 POP PUSH2 0x309E PUSH1 0x0 DUP4 ADD DUP5 PUSH2 0x2C17 JUMP JUMPDEST SWAP3 SWAP2 POP POP JUMP JUMPDEST PUSH1 0x0 PUSH1 0x20 DUP3 ADD SWAP1 POP PUSH2 0x30B9 PUSH1 0x0 DUP4 ADD DUP5 PUSH2 0x2C26 JUMP JUMPDEST SWAP3 SWAP2 POP POP JUMP JUMPDEST PUSH1 0x0 PUSH1 0x20 DUP3 ADD SWAP1 POP DUP2 DUP2 SUB PUSH1 0x0 DUP4 ADD MSTORE PUSH2 0x30D8 DUP2 PUSH2 0x2C71 JUMP JUMPDEST SWAP1 POP SWAP2 SWAP1 POP JUMP JUMPDEST PUSH1 0x0 PUSH1 0x20 DUP3 ADD SWAP1 POP DUP2 DUP2 SUB PUSH1 0x0 DUP4 ADD MSTORE PUSH2 0x30F8 DUP2 PUSH2 0x2C94 JUMP JUMPDEST SWAP1 POP SWAP2 SWAP1 POP JUMP JUMPDEST PUSH1 0x0 PUSH1 0x20 DUP3 ADD SWAP1 POP DUP2 DUP2 SUB PUSH1 0x0 DUP4 ADD MSTORE PUSH2 0x3118 DUP2 PUSH2 0x2CB7 JUMP JUMPDEST SWAP1 POP SWAP2 SWAP1 POP JUMP JUMPDEST PUSH1 0x0 PUSH1 0x20 DUP3 ADD SWAP1 POP DUP2 DUP2 SUB PUSH1 0x0 DUP4 ADD MSTORE PUSH2 0x3138 DUP2 PUSH2 0x2CDA JUMP JUMPDEST SWAP1 POP SWAP2 SWAP1 POP JUMP JUMPDEST PUSH1 0x0 PUSH1 0x20 DUP3 ADD SWAP1 POP DUP2 DUP2 SUB PUSH1 0x0 DUP4 ADD MSTORE PUSH2 0x3158 DUP2 PUSH2 0x2CFD JUMP JUMPDEST SWAP1 POP SWAP2 SWAP1 POP JUMP JUMPDEST PUSH1 0x0 PUSH1 0x20 DUP3 ADD SWAP1 POP DUP2 DUP2 SUB PUSH1 0x0 DUP4 ADD MSTORE PUSH2 0x3178 DUP2 PUSH2 0x2D20 JUMP JUMPDEST SWAP1 POP SWAP2 SWAP1 POP JUMP JUMPDEST PUSH1 0x0 PUSH1 0x20 DUP3 ADD SWAP1 POP DUP2 DUP2 SUB PUSH1 0x0 DUP4 ADD MSTORE PUSH2 0x3198 DUP2 PUSH2 0x2D43 JUMP JUMPDEST SWAP1 POP SWAP2 SWAP1 POP JUMP JUMPDEST PUSH1 0x0 PUSH1 0x20 DUP3 ADD SWAP1 POP DUP2 DUP2 SUB PUSH1 0x0 DUP4 ADD MSTORE PUSH2 0x31B8 DUP2 PUSH2 0x2D66 JUMP JUMPDEST SWAP1 POP SWAP2 SWAP1 POP JUMP JUMPDEST PUSH1 0x0 PUSH1 0x20 DUP3 ADD SWAP1 POP DUP2 DUP2 SUB PUSH1 0x0 DUP4 ADD MSTORE PUSH2 0x31D8 DUP2 PUSH2 0x2D89 JUMP JUMPDEST SWAP1 POP SWAP2 SWAP1 POP JUMP JUMPDEST PUSH1 0x0 PUSH1 0x20 DUP3 ADD SWAP1 POP DUP2 DUP2 SUB PUSH1 0x0 DUP4 ADD MSTORE PUSH2 0x31F8 DUP2 PUSH2 0x2DAC JUMP JUMPDEST SWAP1 POP SWAP2 SWAP1 POP JUMP JUMPDEST PUSH1 0x0 PUSH1 0x20 DUP3 ADD SWAP1 POP DUP2 DUP2 SUB PUSH1 0x0 DUP4 ADD MSTORE PUSH2 0x3218 DUP2 PUSH2 0x2DCF JUMP JUMPDEST SWAP1 POP SWAP2 SWAP1 POP JUMP JUMPDEST PUSH1 0x0 PUSH1 0x20 DUP3 ADD SWAP1 POP PUSH2 0x3234 PUSH1 0x0 DUP4 ADD DUP5 PUSH2 0x2DF2 JUMP JUMPDEST SWAP3 SWAP2 POP POP JUMP JUMPDEST PUSH1 0x0 PUSH1 0xA0 DUP3 ADD SWAP1 POP PUSH2 0x324F PUSH1 0x0 DUP4 ADD DUP9 PUSH2 0x2DF2 JUMP JUMPDEST PUSH2 0x325C PUSH1 0x20 DUP4 ADD DUP8 PUSH2 0x2C35 JUMP JUMPDEST DUP2 DUP2 SUB PUSH1 0x40 DUP4 ADD MSTORE PUSH2 0x326E DUP2 DUP7 PUSH2 0x2BAA JUMP JUMPDEST SWAP1 POP PUSH2 0x327D PUSH1 0x60 DUP4 ADD DUP6 PUSH2 0x2B9B JUMP JUMPDEST PUSH2 0x328A PUSH1 0x80 DUP4 ADD DUP5 PUSH2 0x2DF2 JUMP JUMPDEST SWAP7 SWAP6 POP POP POP POP POP POP JUMP JUMPDEST PUSH1 0x0 PUSH1 0x60 DUP3 ADD SWAP1 POP PUSH2 0x32A9 PUSH1 0x0 DUP4 ADD DUP7 PUSH2 0x2DF2 JUMP JUMPDEST PUSH2 0x32B6 PUSH1 0x20 DUP4 ADD DUP6 PUSH2 0x2DF2 JUMP JUMPDEST PUSH2 0x32C3 PUSH1 0x40 DUP4 ADD DUP5 PUSH2 0x2DF2 JUMP JUMPDEST SWAP5 SWAP4 POP POP POP POP JUMP JUMPDEST PUSH1 0x0 DUP2 SWAP1 POP PUSH1 0x20 DUP3 ADD SWAP1 POP SWAP2 SWAP1 POP JUMP JUMPDEST PUSH1 0x0 DUP2 MLOAD SWAP1 POP SWAP2 SWAP1 POP JUMP JUMPDEST PUSH1 0x0 PUSH1 0x20 DUP3 ADD SWAP1 POP SWAP2 SWAP1 POP JUMP JUMPDEST PUSH1 0x0 DUP3 DUP3 MSTORE PUSH1 0x20 DUP3 ADD SWAP1 POP SWAP3 SWAP2 POP POP JUMP JUMPDEST PUSH1 0x0 DUP3 DUP3 MSTORE PUSH1 0x20 DUP3 ADD SWAP1 POP SWAP3 SWAP2 POP POP JUMP JUMPDEST PUSH1 0x0 PUSH2 0x3320 DUP3 PUSH2 0x3468 JUMP JUMPDEST SWAP2 POP PUSH2 0x332B DUP4 PUSH2 0x3468 JUMP JUMPDEST SWAP3 POP DUP3 PUSH32 0xFFFFFFFFFFFFFFFFFFFFFFFFFFFFFFFFFFFFFFFFFFFFFFFFFFFFFFFFFFFFFFFF SUB DUP3 GT ISZERO PUSH2 0x3360 JUMPI PUSH2 0x335F PUSH2 0x350F JUMP JUMPDEST JUMPDEST DUP3 DUP3 ADD SWAP1 POP SWAP3 SWAP2 POP POP JUMP JUMPDEST PUSH1 0x0 PUSH2 0x3376 DUP3 PUSH2 0x3468 JUMP JUMPDEST SWAP2 POP PUSH2 0x3381 DUP4 PUSH2 0x3468 JUMP JUMPDEST SWAP3 POP DUP3 PUSH2 0x3391 JUMPI PUSH2 0x3390 PUSH2 0x353E JUMP JUMPDEST JUMPDEST DUP3 DUP3 DIV SWAP1 POP SWAP3 SWAP2 POP POP JUMP JUMPDEST PUSH1 0x0 PUSH2 0x33A7 DUP3 PUSH2 0x3468 JUMP JUMPDEST SWAP2 POP PUSH2 0x33B2 DUP4 PUSH2 0x3468 JUMP JUMPDEST SWAP3 POP DUP2 PUSH32 0xFFFFFFFFFFFFFFFFFFFFFFFFFFFFFFFFFFFFFFFFFFFFFFFFFFFFFFFFFFFFFFFF DIV DUP4 GT DUP3 ISZERO ISZERO AND ISZERO PUSH2 0x33EB JUMPI PUSH2 0x33EA PUSH2 0x350F JUMP JUMPDEST JUMPDEST DUP3 DUP3 MUL SWAP1 POP SWAP3 SWAP2 POP POP JUMP JUMPDEST PUSH1 0x0 PUSH2 0x3401 DUP3 PUSH2 0x3468 JUMP JUMPDEST SWAP2 POP PUSH2 0x340C DUP4 PUSH2 0x3468 JUMP JUMPDEST SWAP3 POP DUP3 DUP3 LT ISZERO PUSH2 0x341F JUMPI PUSH2 0x341E PUSH2 0x350F JUMP JUMPDEST JUMPDEST DUP3 DUP3 SUB SWAP1 POP SWAP3 SWAP2 POP POP JUMP JUMPDEST PUSH1 0x0 PUSH2 0x3435 DUP3 PUSH2 0x3448 JUMP JUMPDEST SWAP1 POP SWAP2 SWAP1 POP JUMP JUMPDEST PUSH1 0x0 DUP2 ISZERO ISZERO SWAP1 POP SWAP2 SWAP1 POP JUMP JUMPDEST PUSH1 0x0 PUSH20 0xFFFFFFFFFFFFFFFFFFFFFFFFFFFFFFFFFFFFFFFF DUP3 AND SWAP1 POP SWAP2 SWAP1 POP JUMP JUMPDEST PUSH1 0x0 DUP2 SWAP1 POP SWAP2 SWAP1 POP JUMP JUMPDEST PUSH1 0x0 PUSH1 0xFF DUP3 AND SWAP1 POP SWAP2 SWAP1 POP JUMP JUMPDEST PUSH1 0x0 PUSH2 0x348A DUP3 PUSH2 0x34EB JUMP JUMPDEST SWAP1 POP SWAP2 SWAP1 POP JUMP JUMPDEST PUSH1 0x0 PUSH2 0x349C DUP3 PUSH2 0x34EB JUMP JUMPDEST SWAP1 POP SWAP2 SWAP1 POP JUMP JUMPDEST PUSH1 0x0 PUSH2 0x34AE DUP3 PUSH2 0x3468 JUMP JUMPDEST SWAP1 POP SWAP2 SWAP1 POP JUMP JUMPDEST PUSH1 0x0 PUSH2 0x34C0 DUP3 PUSH2 0x3472 JUMP JUMPDEST SWAP1 POP SWAP2 SWAP1 POP JUMP JUMPDEST PUSH1 0x0 PUSH2 0x34D2 DUP3 PUSH2 0x3472 JUMP JUMPDEST SWAP1 POP SWAP2 SWAP1 POP JUMP JUMPDEST PUSH1 0x0 PUSH2 0x34E4 DUP3 PUSH2 0x3472 JUMP JUMPDEST SWAP1 POP SWAP2 SWAP1 POP JUMP JUMPDEST PUSH1 0x0 PUSH2 0x34F6 DUP3 PUSH2 0x34FD JUMP JUMPDEST SWAP1 POP SWAP2 SWAP1 POP JUMP JUMPDEST PUSH1 0x0 PUSH2 0x3508 DUP3 PUSH2 0x3448 JUMP JUMPDEST SWAP1 POP SWAP2 SWAP1 POP JUMP JUMPDEST PUSH32 0x4E487B7100000000000000000000000000000000000000000000000000000000 PUSH1 0x0 MSTORE PUSH1 0x11 PUSH1 0x4 MSTORE PUSH1 0x24 PUSH1 0x0 REVERT JUMPDEST PUSH32 0x4E487B7100000000000000000000000000000000000000000000000000000000 PUSH1 0x0 MSTORE PUSH1 0x12 PUSH1 0x4 MSTORE PUSH1 0x24 PUSH1 0x0 REVERT JUMPDEST PUSH32 0x4E487B7100000000000000000000000000000000000000000000000000000000 PUSH1 0x0 MSTORE PUSH1 0x32 PUSH1 0x4 MSTORE PUSH1 0x24 PUSH1 0x0 REVERT JUMPDEST PUSH32 0x4E487B7100000000000000000000000000000000000000000000000000000000 PUSH1 0x0 MSTORE PUSH1 0x41 PUSH1 0x4 MSTORE PUSH1 0x24 PUSH1 0x0 REVERT JUMPDEST PUSH1 0x0 DUP1 REVERT JUMPDEST PUSH32 0x5061757361626C653A206E6F7420706175736564000000000000000000000000 PUSH1 0x0 DUP3 ADD MSTORE POP JUMP JUMPDEST PUSH32 0x4F776E61626C653A206E6577206F776E657220697320746865207A65726F2061 PUSH1 0x0 DUP3 ADD MSTORE PUSH32 0x6464726573730000000000000000000000000000000000000000000000000000 PUSH1 0x20 DUP3 ADD MSTORE POP JUMP JUMPDEST PUSH32 0x4E6F7420656E6F7567682062616C616E636520746F2077697468647261770000 PUSH1 0x0 DUP3 ADD MSTORE POP JUMP JUMPDEST PUSH32 0x596F7527726520616C726561647920696E2074686973205374616B65206C6576 PUSH1 0x0 DUP3 ADD MSTORE PUSH32 0x656C000000000000000000000000000000000000000000000000000000000000 PUSH1 0x20 DUP3 ADD MSTORE POP JUMP JUMPDEST PUSH32 0x55736572206973206E6F74206F6E204C6576656C203100000000000000000000 PUSH1 0x0 DUP3 ADD MSTORE POP JUMP JUMPDEST PUSH32 0x5061757361626C653A2070617573656400000000000000000000000000000000 PUSH1 0x0 DUP3 ADD MSTORE POP JUMP JUMPDEST PUSH32 0x55736572206973206E6F74206F6E204C6576656C203000000000000000000000 PUSH1 0x0 DUP3 ADD MSTORE POP JUMP JUMPDEST PUSH32 0x416D6F756E74206E6565647320746F206265206D6F7265207468616E206D696E PUSH1 0x0 DUP3 ADD MSTORE PUSH32 0x20616E64206C657373207468616E206D61780000000000000000000000000000 PUSH1 0x20 DUP3 ADD MSTORE POP JUMP JUMPDEST PUSH32 0x4F776E61626C653A2063616C6C6572206973206E6F7420746865206F776E6572 PUSH1 0x0 DUP3 ADD MSTORE POP JUMP JUMPDEST PUSH32 0x55736572206973206E6F74205669700000000000000000000000000000000000 PUSH1 0x0 DUP3 ADD MSTORE POP JUMP JUMPDEST PUSH32 0x596F7527726520616C726561647920696E2074686520566970205374616B6500 PUSH1 0x0 DUP3 ADD MSTORE POP JUMP JUMPDEST PUSH2 0x380E DUP2 PUSH2 0x342A JUMP JUMPDEST DUP2 EQ PUSH2 0x3819 JUMPI PUSH1 0x0 DUP1 REVERT JUMPDEST POP JUMP JUMPDEST PUSH2 0x3825 DUP2 PUSH2 0x343C JUMP JUMPDEST DUP2 EQ PUSH2 0x3830 JUMPI PUSH1 0x0 DUP1 REVERT JUMPDEST POP JUMP JUMPDEST PUSH2 0x383C DUP2 PUSH2 0x3468 JUMP JUMPDEST DUP2 EQ PUSH2 0x3847 JUMPI PUSH1 0x0 DUP1 REVERT JUMPDEST POP JUMP JUMPDEST PUSH2 0x3853 DUP2 PUSH2 0x3472 JUMP JUMPDEST DUP2 EQ PUSH2 0x385E JUMPI PUSH1 0x0 DUP1 REVERT JUMPDEST POP JUMP INVALID LOG2 PUSH5 0x6970667358 0x22 SLT KECCAK256 XOR 0xAE 0xE7 0xBE SWAP2 0xAA 0xA6 BASEFEE CALLDATALOAD 0xD9 NUMBER MSTORE 0xFB 0xD8 OR ORIGIN CREATE SWAP16 0xE1 KECCAK256 PUSH3 0xAB2037 OR 0xE6 0xD9 0xB0 0xE 0xCF 0xD1 0x5F PUSH5 0x736F6C6343 STOP ADDMOD SMOD STOP CALLER "
				},
				"gasEstimates": {
					"creation": {
						"codeDepositCost": "2897400",
						"executionCost": "infinite",
						"totalCost": "infinite"
					},
					"external": {
						"acceptedToken()": "2690",
						"enterLevel0(uint256)": "infinite",
						"enterLevel1(uint256)": "infinite",
						"enterVip(uint256)": "infinite",
						"getInterest(address,uint8,uint256)": "infinite",
						"isLevel0(address)": "2891",
						"isLevel1(address)": "2913",
						"isOnTime(address,uint8)": "3273",
						"isVip(address)": "2935",
						"level0APY()": "2497",
						"level0Balance(address)": "infinite",
						"level0Max()": "2540",
						"level0Min()": "2519",
						"level1APY()": "2542",
						"level1Balance(address)": "infinite",
						"level1Max()": "2540",
						"level1Min()": "2476",
						"levelVipMax()": "2496",
						"levelVipMin()": "2518",
						"owner()": "2567",
						"pause()": "infinite",
						"paused()": "2641",
						"renounceOwnership()": "30463",
						"setNewAPY(uint256,uint256,uint256)": "infinite",
						"setNewMaxMin(uint256,uint256,uint256,uint256,uint256,uint256)": "infinite",
						"transferOwnership(address)": "30789",
						"uniswapV2Router()": "infinite",
						"unpause()": "infinite",
						"vipBalance(address)": "infinite",
						"vipLevelAPY()": "2475",
						"withdrawLevel0(uint256)": "infinite",
						"withdrawLevel1(uint256)": "infinite",
						"withdrawVip(uint256)": "infinite"
					},
					"internal": {
						"calculateInterest(uint256,uint256,uint256)": "infinite",
						"swapTokensForEth(uint256,address)": "infinite"
					}
				},
				"methodIdentifiers": {
					"acceptedToken()": "451c3d80",
					"enterLevel0(uint256)": "fe2981b5",
					"enterLevel1(uint256)": "1ed81ff8",
					"enterVip(uint256)": "bf01651a",
					"getInterest(address,uint8,uint256)": "69e06848",
					"isLevel0(address)": "6296e750",
					"isLevel1(address)": "635ef285",
					"isOnTime(address,uint8)": "f7edf9ab",
					"isVip(address)": "84203f4b",
					"level0APY()": "8275b181",
					"level0Balance(address)": "67911ba4",
					"level0Max()": "71a1609b",
					"level0Min()": "6505cf31",
					"level1APY()": "1ff08fee",
					"level1Balance(address)": "7fe509d7",
					"level1Max()": "d3900a52",
					"level1Min()": "01ef4739",
					"levelVipMax()": "8f0fb2b7",
					"levelVipMin()": "91789cef",
					"owner()": "8da5cb5b",
					"pause()": "8456cb59",
					"paused()": "5c975abb",
					"renounceOwnership()": "715018a6",
					"setNewAPY(uint256,uint256,uint256)": "e5d15701",
					"setNewMaxMin(uint256,uint256,uint256,uint256,uint256,uint256)": "f4217e1e",
					"transferOwnership(address)": "f2fde38b",
					"uniswapV2Router()": "1694505e",
					"unpause()": "3f4ba83a",
					"vipBalance(address)": "97e9c5fe",
					"vipLevelAPY()": "32938e3a",
					"withdrawLevel0(uint256)": "927e5998",
					"withdrawLevel1(uint256)": "bb664864",
					"withdrawVip(uint256)": "6636389e"
				}
			},
			"userdoc": {
				"kind": "user",
				"methods": {},
				"version": 1
			}
		}
	}
}