{
	"staking.sol": {
		"mochiStaking": {
			"abi": [
				{
					"inputs": [
						{
							"internalType": "address",
							"name": "_token",
							"type": "address"
						},
						{
							"internalType": "address",
							"name": "_reserveWallet",
							"type": "address"
						}
					],
					"stateMutability": "nonpayable",
					"type": "constructor"
				},
				{
					"anonymous": false,
					"inputs": [
						{
							"indexed": true,
							"internalType": "address",
							"name": "previousOwner",
							"type": "address"
						},
						{
							"indexed": true,
							"internalType": "address",
							"name": "newOwner",
							"type": "address"
						}
					],
					"name": "OwnershipTransferred",
					"type": "event"
				},
				{
					"anonymous": false,
					"inputs": [
						{
							"indexed": false,
							"internalType": "address",
							"name": "account",
							"type": "address"
						}
					],
					"name": "Paused",
					"type": "event"
				},
				{
					"anonymous": false,
					"inputs": [
						{
							"indexed": false,
							"internalType": "address",
							"name": "account",
							"type": "address"
						}
					],
					"name": "Unpaused",
					"type": "event"
				},
				{
					"anonymous": false,
					"inputs": [
						{
							"indexed": false,
							"internalType": "address",
							"name": "user",
							"type": "address"
						},
						{
							"indexed": false,
							"internalType": "uint8",
							"name": "class",
							"type": "uint8"
						},
						{
							"indexed": false,
							"internalType": "uint256",
							"name": "amount",
							"type": "uint256"
						},
						{
							"indexed": false,
							"internalType": "uint256",
							"name": "timeStart",
							"type": "uint256"
						},
						{
							"indexed": false,
							"internalType": "uint256",
							"name": "timeEnd",
							"type": "uint256"
						}
					],
					"name": "deposit",
					"type": "event"
				},
				{
					"anonymous": false,
					"inputs": [
						{
							"indexed": false,
							"internalType": "address",
							"name": "user",
							"type": "address"
						},
						{
							"indexed": false,
							"internalType": "uint8",
							"name": "class",
							"type": "uint8"
						},
						{
							"indexed": false,
							"internalType": "bool",
							"name": "onTime",
							"type": "bool"
						},
						{
							"indexed": false,
							"internalType": "uint256",
							"name": "amount",
							"type": "uint256"
						},
						{
							"indexed": false,
							"internalType": "uint256",
							"name": "earnings",
							"type": "uint256"
						}
					],
					"name": "withdraw",
					"type": "event"
				},
				{
					"inputs": [],
					"name": "acceptedToken",
					"outputs": [
						{
							"internalType": "contract IERC20",
							"name": "",
							"type": "address"
						}
					],
					"stateMutability": "view",
					"type": "function"
				},
				{
					"inputs": [
						{
							"internalType": "uint256",
							"name": "_amount",
							"type": "uint256"
						}
					],
					"name": "enterLevel0",
					"outputs": [],
					"stateMutability": "nonpayable",
					"type": "function"
				},
				{
					"inputs": [
						{
							"internalType": "uint256",
							"name": "_amount",
							"type": "uint256"
						}
					],
					"name": "enterLevel1",
					"outputs": [],
					"stateMutability": "nonpayable",
					"type": "function"
				},
				{
					"inputs": [
						{
							"internalType": "uint256",
							"name": "_amount",
							"type": "uint256"
						}
					],
					"name": "enterVip",
					"outputs": [],
					"stateMutability": "nonpayable",
					"type": "function"
				},
				{
					"inputs": [
						{
							"internalType": "address",
							"name": "user",
							"type": "address"
						},
						{
							"internalType": "uint8",
							"name": "class",
							"type": "uint8"
						},
						{
							"internalType": "uint256",
							"name": "balance",
							"type": "uint256"
						}
					],
					"name": "getInterest",
					"outputs": [
						{
							"internalType": "uint256",
							"name": "",
							"type": "uint256"
						}
					],
					"stateMutability": "view",
					"type": "function"
				},
				{
					"inputs": [
						{
							"internalType": "address",
							"name": "",
							"type": "address"
						}
					],
					"name": "isLevel0",
					"outputs": [
						{
							"internalType": "bool",
							"name": "",
							"type": "bool"
						}
					],
					"stateMutability": "view",
					"type": "function"
				},
				{
					"inputs": [
						{
							"internalType": "address",
							"name": "",
							"type": "address"
						}
					],
					"name": "isLevel1",
					"outputs": [
						{
							"internalType": "bool",
							"name": "",
							"type": "bool"
						}
					],
					"stateMutability": "view",
					"type": "function"
				},
				{
					"inputs": [
						{
							"internalType": "address",
							"name": "user",
							"type": "address"
						},
						{
							"internalType": "uint8",
							"name": "class",
							"type": "uint8"
						}
					],
					"name": "isOnTime",
					"outputs": [
						{
							"internalType": "bool",
							"name": "",
							"type": "bool"
						}
					],
					"stateMutability": "view",
					"type": "function"
				},
				{
					"inputs": [
						{
							"internalType": "address",
							"name": "",
							"type": "address"
						}
					],
					"name": "isVip",
					"outputs": [
						{
							"internalType": "bool",
							"name": "",
							"type": "bool"
						}
					],
					"stateMutability": "view",
					"type": "function"
				},
				{
					"inputs": [],
					"name": "level0APY",
					"outputs": [
						{
							"internalType": "uint256",
							"name": "",
							"type": "uint256"
						}
					],
					"stateMutability": "view",
					"type": "function"
				},
				{
					"inputs": [
						{
							"internalType": "address",
							"name": "",
							"type": "address"
						}
					],
					"name": "level0Balance",
					"outputs": [
						{
							"internalType": "uint256",
							"name": "balance",
							"type": "uint256"
						},
						{
							"internalType": "uint256",
							"name": "timeStarted",
							"type": "uint256"
						},
						{
							"internalType": "uint256",
							"name": "timeFinish",
							"type": "uint256"
						}
					],
					"stateMutability": "view",
					"type": "function"
				},
				{
					"inputs": [],
					"name": "level0Max",
					"outputs": [
						{
							"internalType": "uint256",
							"name": "",
							"type": "uint256"
						}
					],
					"stateMutability": "view",
					"type": "function"
				},
				{
					"inputs": [],
					"name": "level0Min",
					"outputs": [
						{
							"internalType": "uint256",
							"name": "",
							"type": "uint256"
						}
					],
					"stateMutability": "view",
					"type": "function"
				},
				{
					"inputs": [],
					"name": "level1APY",
					"outputs": [
						{
							"internalType": "uint256",
							"name": "",
							"type": "uint256"
						}
					],
					"stateMutability": "view",
					"type": "function"
				},
				{
					"inputs": [
						{
							"internalType": "address",
							"name": "",
							"type": "address"
						}
					],
					"name": "level1Balance",
					"outputs": [
						{
							"internalType": "uint256",
							"name": "balance",
							"type": "uint256"
						},
						{
							"internalType": "uint256",
							"name": "timeStarted",
							"type": "uint256"
						},
						{
							"internalType": "uint256",
							"name": "timeFinish",
							"type": "uint256"
						}
					],
					"stateMutability": "view",
					"type": "function"
				},
				{
					"inputs": [],
					"name": "level1Max",
					"outputs": [
						{
							"internalType": "uint256",
							"name": "",
							"type": "uint256"
						}
					],
					"stateMutability": "view",
					"type": "function"
				},
				{
					"inputs": [],
					"name": "level1Min",
					"outputs": [
						{
							"internalType": "uint256",
							"name": "",
							"type": "uint256"
						}
					],
					"stateMutability": "view",
					"type": "function"
				},
				{
					"inputs": [],
					"name": "levelVipMax",
					"outputs": [
						{
							"internalType": "uint256",
							"name": "",
							"type": "uint256"
						}
					],
					"stateMutability": "view",
					"type": "function"
				},
				{
					"inputs": [],
					"name": "levelVipMin",
					"outputs": [
						{
							"internalType": "uint256",
							"name": "",
							"type": "uint256"
						}
					],
					"stateMutability": "view",
					"type": "function"
				},
				{
					"inputs": [],
					"name": "owner",
					"outputs": [
						{
							"internalType": "address",
							"name": "",
							"type": "address"
						}
					],
					"stateMutability": "view",
					"type": "function"
				},
				{
					"inputs": [],
					"name": "pause",
					"outputs": [],
					"stateMutability": "nonpayable",
					"type": "function"
				},
				{
					"inputs": [],
					"name": "paused",
					"outputs": [
						{
							"internalType": "bool",
							"name": "",
							"type": "bool"
						}
					],
					"stateMutability": "view",
					"type": "function"
				},
				{
					"inputs": [],
					"name": "renounceOwnership",
					"outputs": [],
					"stateMutability": "nonpayable",
					"type": "function"
				},
				{
					"inputs": [],
					"name": "reserveWallet",
					"outputs": [
						{
							"internalType": "address",
							"name": "",
							"type": "address"
						}
					],
					"stateMutability": "view",
					"type": "function"
				},
				{
					"inputs": [
						{
							"internalType": "uint256",
							"name": "_level0APY",
							"type": "uint256"
						},
						{
							"internalType": "uint256",
							"name": "_level1APY",
							"type": "uint256"
						},
						{
							"internalType": "uint256",
							"name": "_vipLevelAPY",
							"type": "uint256"
						}
					],
					"name": "setNewAPY",
					"outputs": [],
					"stateMutability": "nonpayable",
					"type": "function"
				},
				{
					"inputs": [
						{
							"internalType": "uint256",
							"name": "_level0Min",
							"type": "uint256"
						},
						{
							"internalType": "uint256",
							"name": "_level0Max",
							"type": "uint256"
						},
						{
							"internalType": "uint256",
							"name": "_level1Min",
							"type": "uint256"
						},
						{
							"internalType": "uint256",
							"name": "_level1Max",
							"type": "uint256"
						},
						{
							"internalType": "uint256",
							"name": "_levelVipMin",
							"type": "uint256"
						},
						{
							"internalType": "uint256",
							"name": "_levelVipMax",
							"type": "uint256"
						}
					],
					"name": "setNewMaxMin",
					"outputs": [],
					"stateMutability": "nonpayable",
					"type": "function"
				},
				{
					"inputs": [
						{
							"internalType": "address",
							"name": "_reserveWallet",
							"type": "address"
						}
					],
					"name": "setReserveWallet",
					"outputs": [],
					"stateMutability": "nonpayable",
					"type": "function"
				},
				{
					"inputs": [
						{
							"internalType": "address",
							"name": "newOwner",
							"type": "address"
						}
					],
					"name": "transferOwnership",
					"outputs": [],
					"stateMutability": "nonpayable",
					"type": "function"
				},
				{
					"inputs": [],
					"name": "uniswapV2Router",
					"outputs": [
						{
							"internalType": "contract IDexRouter",
							"name": "",
							"type": "address"
						}
					],
					"stateMutability": "view",
					"type": "function"
				},
				{
					"inputs": [],
					"name": "unpause",
					"outputs": [],
					"stateMutability": "nonpayable",
					"type": "function"
				},
				{
					"inputs": [
						{
							"internalType": "address",
							"name": "",
							"type": "address"
						}
					],
					"name": "vipBalance",
					"outputs": [
						{
							"internalType": "uint256",
							"name": "balance",
							"type": "uint256"
						},
						{
							"internalType": "uint256",
							"name": "timeStarted",
							"type": "uint256"
						},
						{
							"internalType": "uint256",
							"name": "timeFinish",
							"type": "uint256"
						}
					],
					"stateMutability": "view",
					"type": "function"
				},
				{
					"inputs": [],
					"name": "vipLevelAPY",
					"outputs": [
						{
							"internalType": "uint256",
							"name": "",
							"type": "uint256"
						}
					],
					"stateMutability": "view",
					"type": "function"
				},
				{
					"inputs": [
						{
							"internalType": "uint256",
							"name": "_amount",
							"type": "uint256"
						}
					],
					"name": "withdrawLevel0",
					"outputs": [],
					"stateMutability": "nonpayable",
					"type": "function"
				},
				{
					"inputs": [
						{
							"internalType": "uint256",
							"name": "_amount",
							"type": "uint256"
						}
					],
					"name": "withdrawLevel1",
					"outputs": [],
					"stateMutability": "nonpayable",
					"type": "function"
				},
				{
					"inputs": [
						{
							"internalType": "uint256",
							"name": "_amount",
							"type": "uint256"
						}
					],
					"name": "withdrawVip",
					"outputs": [],
					"stateMutability": "nonpayable",
					"type": "function"
				}
			],
			"devdoc": {
				"kind": "dev",
				"methods": {
					"enterLevel0(uint256)": {
						"details": "Join to a staking class. Requirements:   - User has not enter the staking class previously. "
					},
					"enterLevel1(uint256)": {
						"details": "Join to a staking class. Requirements:    - User has not enter the staking class previously.   "
					},
					"enterVip(uint256)": {
						"details": "Join to a staking class. Requirements: - _amount must be greather than enter fee. - User has not enter the staking class previously.    "
					},
					"getInterest(address,uint8,uint256)": {
						"details": "Get interest earned during the staking time. classes : 0 - level 0, 1 - level 1, 2 - Vip"
					},
					"isOnTime(address,uint8)": {
						"details": "Checks if the staking has reached the timeFinish limit. classes :0 - level 0, 1 - level 1, 2 - Vip"
					},
					"owner()": {
						"details": "Returns the address of the current owner."
					},
					"paused()": {
						"details": "Returns true if the contract is paused, and false otherwise."
					},
					"renounceOwnership()": {
						"details": "Leaves the contract without owner. It will not be possible to call `onlyOwner` functions anymore. Can only be called by the current owner. NOTE: Renouncing ownership will leave the contract without an owner, thereby removing any functionality that is only available to the owner."
					},
					"setNewAPY(uint256,uint256,uint256)": {
						"details": "Change APY for all categories.   "
					},
					"setNewMaxMin(uint256,uint256,uint256,uint256,uint256,uint256)": {
						"details": "Change max and min values for all categories.   "
					},
					"setReserveWallet(address)": {
						"details": "Change Reserve Wallet.   "
					},
					"transferOwnership(address)": {
						"details": "Transfers ownership of the contract to a new account (`newOwner`). Can only be called by the current owner."
					},
					"withdrawLevel0(uint256)": {
						"details": "Withdraw from a staking class. Requirements: - Msg.sender should have an active deposit in the class."
					},
					"withdrawLevel1(uint256)": {
						"details": "Withdraw from a staking class. Requirements: - Msg.sender should have an active deposit in the class."
					},
					"withdrawVip(uint256)": {
						"details": "Withdraw from a staking class. Requirements: - Msg.sender should have an active deposit in the class."
					}
				},
				"version": 1
			},
			"evm": {
				"assembly": "    /* \"staking.sol\":930:12277  contract mochiStaking is Ownable, Pausable {... */\n  mstore(0x40, 0xa0)\n    /* \"staking.sol\":1261:1265  2700 */\n  0x0a8c\n    /* \"staking.sol\":1233:1265  uint256 public level0APY =  2700 */\n  0x02\n  sstore\n    /* \"staking.sol\":1298:1302  3700 */\n  0x0e74\n    /* \"staking.sol\":1271:1302  uint256 public level1APY = 3700 */\n  0x03\n  sstore\n    /* \"staking.sol\":1337:1341  4800 */\n  0x12c0\n    /* \"staking.sol\":1308:1341  uint256 public vipLevelAPY = 4800 */\n  0x04\n  sstore\n    /* \"staking.sol\":1409:1420  50 * 10**18 */\n  0x02b5e3af16b1880000\n    /* \"staking.sol\":1382:1420  uint256 public level0Min = 50 * 10**18 */\n  0x05\n  sstore\n    /* \"staking.sol\":1453:1471  500000000 * 10**18 */\n  0x019d971e4fe8401e74000000\n    /* \"staking.sol\":1426:1471  uint256 public level0Max = 500000000 * 10**18 */\n  0x06\n  sstore\n    /* \"staking.sol\":1504:1516  100 * 10**18 */\n  0x056bc75e2d63100000\n    /* \"staking.sol\":1477:1516  uint256 public level1Min = 100 * 10**18 */\n  0x07\n  sstore\n    /* \"staking.sol\":1549:1567  500000000 * 10**18 */\n  0x019d971e4fe8401e74000000\n    /* \"staking.sol\":1522:1567  uint256 public level1Max = 500000000 * 10**18 */\n  0x08\n  sstore\n    /* \"staking.sol\":1602:1614  200 * 10**18 */\n  0x0ad78ebc5ac6200000\n    /* \"staking.sol\":1573:1614  uint256 public levelVipMin = 200 * 10**18 */\n  0x09\n  sstore\n    /* \"staking.sol\":1649:1668  2500000000 * 10**18 */\n  0x0813f3978f89409844000000\n    /* \"staking.sol\":1620:1668  uint256 public levelVipMax = 2500000000 * 10**18 */\n  0x0a\n  sstore\n    /* \"staking.sol\":2380:2665  constructor(address _token , address _reserveWallet) {... */\n  callvalue\n  dup1\n  iszero\n  tag_1\n  jumpi\n  0x00\n  dup1\n  revert\ntag_1:\n  pop\n  mload(0x40)\n  sub(codesize, bytecodeSize)\n  dup1\n  bytecodeSize\n  dup4\n  codecopy\n  dup2\n  dup2\n  add\n  0x40\n  mstore\n  dup2\n  add\n  swap1\n  tag_2\n  swap2\n  swap1\n  tag_3\n  jump\t// in\ntag_2:\n    /* \"@openzeppelin/contracts/access/Ownable.sol\":921:953  _transferOwnership(_msgSender()) */\n  tag_8\n    /* \"@openzeppelin/contracts/access/Ownable.sol\":940:952  _msgSender() */\n  tag_9\n    /* \"@openzeppelin/contracts/access/Ownable.sol\":940:950  _msgSender */\n  shl(0x20, tag_10)\n    /* \"@openzeppelin/contracts/access/Ownable.sol\":940:952  _msgSender() */\n  0x20\n  shr\n  jump\t// in\ntag_9:\n    /* \"@openzeppelin/contracts/access/Ownable.sol\":921:939  _transferOwnership */\n  shl(0x20, tag_11)\n    /* \"@openzeppelin/contracts/access/Ownable.sol\":921:953  _transferOwnership(_msgSender()) */\n  0x20\n  shr\n  jump\t// in\ntag_8:\n    /* \"@openzeppelin/contracts/security/Pausable.sol\":991:996  false */\n  0x00\n    /* \"@openzeppelin/contracts/security/Pausable.sol\":981:988  _paused */\n  dup1\n  0x14\n    /* \"@openzeppelin/contracts/security/Pausable.sol\":981:996  _paused = false */\n  0x0100\n  exp\n  dup2\n  sload\n  dup2\n  0xff\n  mul\n  not\n  and\n  swap1\n  dup4\n  iszero\n  iszero\n  mul\n  or\n  swap1\n  sstore\n  pop\n    /* \"staking.sol\":2466:2472  _token */\n  dup2\n    /* \"staking.sol\":2443:2456  acceptedToken */\n  0x01\n  0x00\n    /* \"staking.sol\":2443:2473  acceptedToken = IERC20(_token) */\n  0x0100\n  exp\n  dup2\n  sload\n  dup2\n  0xffffffffffffffffffffffffffffffffffffffff\n  mul\n  not\n  and\n  swap1\n  dup4\n  0xffffffffffffffffffffffffffffffffffffffff\n  and\n  mul\n  or\n  swap1\n  sstore\n  pop\n    /* \"staking.sol\":2499:2513  _reserveWallet */\n  dup1\n    /* \"staking.sol\":2483:2496  reserveWallet */\n  0x0b\n  0x00\n    /* \"staking.sol\":2483:2513  reserveWallet = _reserveWallet */\n  0x0100\n  exp\n  dup2\n  sload\n  dup2\n  0xffffffffffffffffffffffffffffffffffffffff\n  mul\n  not\n  and\n  swap1\n  dup4\n  0xffffffffffffffffffffffffffffffffffffffff\n  and\n  mul\n  or\n  swap1\n  sstore\n  pop\n    /* \"staking.sol\":2525:2552  IDexRouter _uniswapV2Router */\n  0x00\n    /* \"staking.sol\":2566:2608  0x9Ac64Cc6e4415144C455BD8E4837Fea55603e5c3 */\n  0x9ac64cc6e4415144c455bd8e4837fea55603e5c3\n    /* \"staking.sol\":2525:2609  IDexRouter _uniswapV2Router = IDexRouter(0x9Ac64Cc6e4415144C455BD8E4837Fea55603e5c3) */\n  swap1\n  pop\n    /* \"staking.sol\":2638:2654  _uniswapV2Router */\n  dup1\n    /* \"staking.sol\":2620:2654  uniswapV2Router = _uniswapV2Router */\n  0xffffffffffffffffffffffffffffffffffffffff\n  and\n  0x80\n  dup2\n  0xffffffffffffffffffffffffffffffffffffffff\n  and\n  0x60\n  shl\n  dup2\n  mstore\n  pop\n  pop\n    /* \"staking.sol\":2433:2665  {... */\n  pop\n    /* \"staking.sol\":2380:2665  constructor(address _token , address _reserveWallet) {... */\n  pop\n  pop\n    /* \"staking.sol\":930:12277  contract mochiStaking is Ownable, Pausable {... */\n  jump(tag_14)\n    /* \"@openzeppelin/contracts/utils/Context.sol\":640:736  function _msgSender() internal view virtual returns (address) {... */\ntag_10:\n    /* \"@openzeppelin/contracts/utils/Context.sol\":693:700  address */\n  0x00\n    /* \"@openzeppelin/contracts/utils/Context.sol\":719:729  msg.sender */\n  caller\n    /* \"@openzeppelin/contracts/utils/Context.sol\":712:729  return msg.sender */\n  swap1\n  pop\n    /* \"@openzeppelin/contracts/utils/Context.sol\":640:736  function _msgSender() internal view virtual returns (address) {... */\n  swap1\n  jump\t// out\n    /* \"@openzeppelin/contracts/access/Ownable.sol\":2270:2457  function _transferOwnership(address newOwner) internal virtual {... */\ntag_11:\n    /* \"@openzeppelin/contracts/access/Ownable.sol\":2343:2359  address oldOwner */\n  0x00\n    /* \"@openzeppelin/contracts/access/Ownable.sol\":2362:2368  _owner */\n  dup1\n  0x00\n  swap1\n  sload\n  swap1\n  0x0100\n  exp\n  swap1\n  div\n  0xffffffffffffffffffffffffffffffffffffffff\n  and\n    /* \"@openzeppelin/contracts/access/Ownable.sol\":2343:2368  address oldOwner = _owner */\n  swap1\n  pop\n    /* \"@openzeppelin/contracts/access/Ownable.sol\":2387:2395  newOwner */\n  dup2\n    /* \"@openzeppelin/contracts/access/Ownable.sol\":2378:2384  _owner */\n  0x00\n  dup1\n    /* \"@openzeppelin/contracts/access/Ownable.sol\":2378:2395  _owner = newOwner */\n  0x0100\n  exp\n  dup2\n  sload\n  dup2\n  0xffffffffffffffffffffffffffffffffffffffff\n  mul\n  not\n  and\n  swap1\n  dup4\n  0xffffffffffffffffffffffffffffffffffffffff\n  and\n  mul\n  or\n  swap1\n  sstore\n  pop\n    /* \"@openzeppelin/contracts/access/Ownable.sol\":2441:2449  newOwner */\n  dup2\n    /* \"@openzeppelin/contracts/access/Ownable.sol\":2410:2450  OwnershipTransferred(oldOwner, newOwner) */\n  0xffffffffffffffffffffffffffffffffffffffff\n  and\n    /* \"@openzeppelin/contracts/access/Ownable.sol\":2431:2439  oldOwner */\n  dup2\n    /* \"@openzeppelin/contracts/access/Ownable.sol\":2410:2450  OwnershipTransferred(oldOwner, newOwner) */\n  0xffffffffffffffffffffffffffffffffffffffff\n  and\n  0x8be0079c531659141344cd1fd0a4f28419497f9722a3daafe3b4186f6b6457e0\n  mload(0x40)\n  mload(0x40)\n  dup1\n  swap2\n  sub\n  swap1\n  log3\n    /* \"@openzeppelin/contracts/access/Ownable.sol\":2333:2457  {... */\n  pop\n    /* \"@openzeppelin/contracts/access/Ownable.sol\":2270:2457  function _transferOwnership(address newOwner) internal virtual {... */\n  pop\n  jump\t// out\n    /* \"#utility.yul\":7:150   */\ntag_18:\n    /* \"#utility.yul\":64:69   */\n  0x00\n    /* \"#utility.yul\":95:101   */\n  dup2\n    /* \"#utility.yul\":89:102   */\n  mload\n    /* \"#utility.yul\":80:102   */\n  swap1\n  pop\n    /* \"#utility.yul\":111:144   */\n  tag_20\n    /* \"#utility.yul\":138:143   */\n  dup2\n    /* \"#utility.yul\":111:144   */\n  tag_21\n  jump\t// in\ntag_20:\n    /* \"#utility.yul\":7:150   */\n  swap3\n  swap2\n  pop\n  pop\n  jump\t// out\n    /* \"#utility.yul\":156:663   */\ntag_3:\n    /* \"#utility.yul\":235:241   */\n  0x00\n    /* \"#utility.yul\":243:249   */\n  dup1\n    /* \"#utility.yul\":292:294   */\n  0x40\n    /* \"#utility.yul\":280:289   */\n  dup4\n    /* \"#utility.yul\":271:278   */\n  dup6\n    /* \"#utility.yul\":267:290   */\n  sub\n    /* \"#utility.yul\":263:295   */\n  slt\n    /* \"#utility.yul\":260:379   */\n  iszero\n  tag_23\n  jumpi\n    /* \"#utility.yul\":298:377   */\n  tag_24\n  tag_25\n  jump\t// in\ntag_24:\n    /* \"#utility.yul\":260:379   */\ntag_23:\n    /* \"#utility.yul\":418:419   */\n  0x00\n    /* \"#utility.yul\":443:507   */\n  tag_26\n    /* \"#utility.yul\":499:506   */\n  dup6\n    /* \"#utility.yul\":490:496   */\n  dup3\n    /* \"#utility.yul\":479:488   */\n  dup7\n    /* \"#utility.yul\":475:497   */\n  add\n    /* \"#utility.yul\":443:507   */\n  tag_18\n  jump\t// in\ntag_26:\n    /* \"#utility.yul\":433:507   */\n  swap3\n  pop\n    /* \"#utility.yul\":389:517   */\n  pop\n    /* \"#utility.yul\":556:558   */\n  0x20\n    /* \"#utility.yul\":582:646   */\n  tag_27\n    /* \"#utility.yul\":638:645   */\n  dup6\n    /* \"#utility.yul\":629:635   */\n  dup3\n    /* \"#utility.yul\":618:627   */\n  dup7\n    /* \"#utility.yul\":614:636   */\n  add\n    /* \"#utility.yul\":582:646   */\n  tag_18\n  jump\t// in\ntag_27:\n    /* \"#utility.yul\":572:646   */\n  swap2\n  pop\n    /* \"#utility.yul\":527:656   */\n  pop\n    /* \"#utility.yul\":156:663   */\n  swap3\n  pop\n  swap3\n  swap1\n  pop\n  jump\t// out\n    /* \"#utility.yul\":750:846   */\ntag_30:\n    /* \"#utility.yul\":787:794   */\n  0x00\n    /* \"#utility.yul\":816:840   */\n  tag_32\n    /* \"#utility.yul\":834:839   */\n  dup3\n    /* \"#utility.yul\":816:840   */\n  tag_33\n  jump\t// in\ntag_32:\n    /* \"#utility.yul\":805:840   */\n  swap1\n  pop\n    /* \"#utility.yul\":750:846   */\n  swap2\n  swap1\n  pop\n  jump\t// out\n    /* \"#utility.yul\":852:978   */\ntag_33:\n    /* \"#utility.yul\":889:896   */\n  0x00\n    /* \"#utility.yul\":929:971   */\n  0xffffffffffffffffffffffffffffffffffffffff\n    /* \"#utility.yul\":922:927   */\n  dup3\n    /* \"#utility.yul\":918:972   */\n  and\n    /* \"#utility.yul\":907:972   */\n  swap1\n  pop\n    /* \"#utility.yul\":852:978   */\n  swap2\n  swap1\n  pop\n  jump\t// out\n    /* \"#utility.yul\":1107:1224   */\ntag_25:\n    /* \"#utility.yul\":1216:1217   */\n  0x00\n    /* \"#utility.yul\":1213:1214   */\n  dup1\n    /* \"#utility.yul\":1206:1218   */\n  revert\n    /* \"#utility.yul\":1230:1352   */\ntag_21:\n    /* \"#utility.yul\":1303:1327   */\n  tag_39\n    /* \"#utility.yul\":1321:1326   */\n  dup2\n    /* \"#utility.yul\":1303:1327   */\n  tag_30\n  jump\t// in\ntag_39:\n    /* \"#utility.yul\":1296:1301   */\n  dup2\n    /* \"#utility.yul\":1293:1328   */\n  eq\n    /* \"#utility.yul\":1283:1346   */\n  tag_40\n  jumpi\n    /* \"#utility.yul\":1342:1343   */\n  0x00\n    /* \"#utility.yul\":1339:1340   */\n  dup1\n    /* \"#utility.yul\":1332:1344   */\n  revert\n    /* \"#utility.yul\":1283:1346   */\ntag_40:\n    /* \"#utility.yul\":1230:1352   */\n  pop\n  jump\t// out\n    /* \"staking.sol\":930:12277  contract mochiStaking is Ownable, Pausable {... */\ntag_14:\n  shr(0x60, mload(0x80))\n  codecopy(0x00, dataOffset(sub_0), dataSize(sub_0))\n  0x00\n  assignImmutable(\"0x0b83f23a4eeb8c3f5f7d5934a2289bcf0186d09a12e1b7f20adf54e4b179db15\")\n  return(0x00, dataSize(sub_0))\nstop\n\nsub_0: assembly {\n        /* \"staking.sol\":930:12277  contract mochiStaking is Ownable, Pausable {... */\n      mstore(0x40, 0x80)\n      callvalue\n      dup1\n      iszero\n      tag_1\n      jumpi\n      0x00\n      dup1\n      revert\n    tag_1:\n      pop\n      jumpi(tag_2, lt(calldatasize, 0x04))\n      shr(0xe0, calldataload(0x00))\n      dup1\n      0x8275b181\n      gt\n      tag_38\n      jumpi\n      dup1\n      0xbf01651a\n      gt\n      tag_39\n      jumpi\n      dup1\n      0xe5d15701\n      gt\n      tag_40\n      jumpi\n      dup1\n      0xe5d15701\n      eq\n      tag_33\n      jumpi\n      dup1\n      0xf2fde38b\n      eq\n      tag_34\n      jumpi\n      dup1\n      0xf4217e1e\n      eq\n      tag_35\n      jumpi\n      dup1\n      0xf7edf9ab\n      eq\n      tag_36\n      jumpi\n      dup1\n      0xfe2981b5\n      eq\n      tag_37\n      jumpi\n      jump(tag_2)\n    tag_40:\n      dup1\n      0xbf01651a\n      eq\n      tag_29\n      jumpi\n      dup1\n      0xd3900a52\n      eq\n      tag_30\n      jumpi\n      dup1\n      0xd72b11bd\n      eq\n      tag_31\n      jumpi\n      dup1\n      0xdda4fa8f\n      eq\n      tag_32\n      jumpi\n      jump(tag_2)\n    tag_39:\n      dup1\n      0x8f0fb2b7\n      gt\n      tag_41\n      jumpi\n      dup1\n      0x8f0fb2b7\n      eq\n      tag_24\n      jumpi\n      dup1\n      0x91789cef\n      eq\n      tag_25\n      jumpi\n      dup1\n      0x927e5998\n      eq\n      tag_26\n      jumpi\n      dup1\n      0x97e9c5fe\n      eq\n      tag_27\n      jumpi\n      dup1\n      0xbb664864\n      eq\n      tag_28\n      jumpi\n      jump(tag_2)\n    tag_41:\n      dup1\n      0x8275b181\n      eq\n      tag_20\n      jumpi\n      dup1\n      0x84203f4b\n      eq\n      tag_21\n      jumpi\n      dup1\n      0x8456cb59\n      eq\n      tag_22\n      jumpi\n      dup1\n      0x8da5cb5b\n      eq\n      tag_23\n      jumpi\n      jump(tag_2)\n    tag_38:\n      dup1\n      0x6296e750\n      gt\n      tag_42\n      jumpi\n      dup1\n      0x67911ba4\n      gt\n      tag_43\n      jumpi\n      dup1\n      0x67911ba4\n      eq\n      tag_15\n      jumpi\n      dup1\n      0x69e06848\n      eq\n      tag_16\n      jumpi\n      dup1\n      0x715018a6\n      eq\n      tag_17\n      jumpi\n      dup1\n      0x71a1609b\n      eq\n      tag_18\n      jumpi\n      dup1\n      0x7fe509d7\n      eq\n      tag_19\n      jumpi\n      jump(tag_2)\n    tag_43:\n      dup1\n      0x6296e750\n      eq\n      tag_11\n      jumpi\n      dup1\n      0x635ef285\n      eq\n      tag_12\n      jumpi\n      dup1\n      0x6505cf31\n      eq\n      tag_13\n      jumpi\n      dup1\n      0x6636389e\n      eq\n      tag_14\n      jumpi\n      jump(tag_2)\n    tag_42:\n      dup1\n      0x32938e3a\n      gt\n      tag_44\n      jumpi\n      dup1\n      0x32938e3a\n      eq\n      tag_7\n      jumpi\n      dup1\n      0x3f4ba83a\n      eq\n      tag_8\n      jumpi\n      dup1\n      0x451c3d80\n      eq\n      tag_9\n      jumpi\n      dup1\n      0x5c975abb\n      eq\n      tag_10\n      jumpi\n      jump(tag_2)\n    tag_44:\n      dup1\n      0x01ef4739\n      eq\n      tag_3\n      jumpi\n      dup1\n      0x1694505e\n      eq\n      tag_4\n      jumpi\n      dup1\n      0x1ed81ff8\n      eq\n      tag_5\n      jumpi\n      dup1\n      0x1ff08fee\n      eq\n      tag_6\n      jumpi\n    tag_2:\n      0x00\n      dup1\n      revert\n        /* \"staking.sol\":1477:1516  uint256 public level1Min = 100 * 10**18 */\n    tag_3:\n      tag_45\n      tag_46\n      jump\t// in\n    tag_45:\n      mload(0x40)\n      tag_47\n      swap2\n      swap1\n      tag_48\n      jump\t// in\n    tag_47:\n      mload(0x40)\n      dup1\n      swap2\n      sub\n      swap1\n      return\n        /* \"staking.sol\":2294:2337  IDexRouter public immutable uniswapV2Router */\n    tag_4:\n      tag_49\n      tag_50\n      jump\t// in\n    tag_49:\n      mload(0x40)\n      tag_51\n      swap2\n      swap1\n      tag_52\n      jump\t// in\n    tag_51:\n      mload(0x40)\n      dup1\n      swap2\n      sub\n      swap1\n      return\n        /* \"staking.sol\":4813:5555  function enterLevel1 (uint256 _amount) public whenNotPaused {... */\n    tag_5:\n      tag_53\n      0x04\n      dup1\n      calldatasize\n      sub\n      dup2\n      add\n      swap1\n      tag_54\n      swap2\n      swap1\n      tag_55\n      jump\t// in\n    tag_54:\n      tag_56\n      jump\t// in\n    tag_53:\n      stop\n        /* \"staking.sol\":1271:1302  uint256 public level1APY = 3700 */\n    tag_6:\n      tag_57\n      tag_58\n      jump\t// in\n    tag_57:\n      mload(0x40)\n      tag_59\n      swap2\n      swap1\n      tag_48\n      jump\t// in\n    tag_59:\n      mload(0x40)\n      dup1\n      swap2\n      sub\n      swap1\n      return\n        /* \"staking.sol\":1308:1341  uint256 public vipLevelAPY = 4800 */\n    tag_7:\n      tag_60\n      tag_61\n      jump\t// in\n    tag_60:\n      mload(0x40)\n      tag_62\n      swap2\n      swap1\n      tag_48\n      jump\t// in\n    tag_62:\n      mload(0x40)\n      dup1\n      swap2\n      sub\n      swap1\n      return\n        /* \"staking.sol\":2786:2850  function unpause () public onlyOwner {... */\n    tag_8:\n      tag_63\n      tag_64\n      jump\t// in\n    tag_63:\n      stop\n        /* \"staking.sol\":1024:1051  IERC20 public acceptedToken */\n    tag_9:\n      tag_65\n      tag_66\n      jump\t// in\n    tag_65:\n      mload(0x40)\n      tag_67\n      swap2\n      swap1\n      tag_68\n      jump\t// in\n    tag_67:\n      mload(0x40)\n      dup1\n      swap2\n      sub\n      swap1\n      return\n        /* \"@openzeppelin/contracts/security/Pausable.sol\":1098:1182  function paused() public view virtual returns (bool) {... */\n    tag_10:\n      tag_69\n      tag_70\n      jump\t// in\n    tag_69:\n      mload(0x40)\n      tag_71\n      swap2\n      swap1\n      tag_72\n      jump\t// in\n    tag_71:\n      mload(0x40)\n      dup1\n      swap2\n      sub\n      swap1\n      return\n        /* \"staking.sol\":1788:1829  mapping (address => bool) public isLevel0 */\n    tag_11:\n      tag_73\n      0x04\n      dup1\n      calldatasize\n      sub\n      dup2\n      add\n      swap1\n      tag_74\n      swap2\n      swap1\n      tag_75\n      jump\t// in\n    tag_74:\n      tag_76\n      jump\t// in\n    tag_73:\n      mload(0x40)\n      tag_77\n      swap2\n      swap1\n      tag_72\n      jump\t// in\n    tag_77:\n      mload(0x40)\n      dup1\n      swap2\n      sub\n      swap1\n      return\n        /* \"staking.sol\":1888:1929  mapping (address => bool) public isLevel1 */\n    tag_12:\n      tag_78\n      0x04\n      dup1\n      calldatasize\n      sub\n      dup2\n      add\n      swap1\n      tag_79\n      swap2\n      swap1\n      tag_75\n      jump\t// in\n    tag_79:\n      tag_80\n      jump\t// in\n    tag_78:\n      mload(0x40)\n      tag_81\n      swap2\n      swap1\n      tag_72\n      jump\t// in\n    tag_81:\n      mload(0x40)\n      dup1\n      swap2\n      sub\n      swap1\n      return\n        /* \"staking.sol\":1382:1420  uint256 public level0Min = 50 * 10**18 */\n    tag_13:\n      tag_82\n      tag_83\n      jump\t// in\n    tag_82:\n      mload(0x40)\n      tag_84\n      swap2\n      swap1\n      tag_48\n      jump\t// in\n    tag_84:\n      mload(0x40)\n      dup1\n      swap2\n      sub\n      swap1\n      return\n        /* \"staking.sol\":10737:11672  function withdrawVip (uint256 _amount) public  {... */\n    tag_14:\n      tag_85\n      0x04\n      dup1\n      calldatasize\n      sub\n      dup2\n      add\n      swap1\n      tag_86\n      swap2\n      swap1\n      tag_55\n      jump\t// in\n    tag_86:\n      tag_87\n      jump\t// in\n    tag_85:\n      stop\n        /* \"staking.sol\":1835:1882  mapping (address => _user) public level0Balance */\n    tag_15:\n      tag_88\n      0x04\n      dup1\n      calldatasize\n      sub\n      dup2\n      add\n      swap1\n      tag_89\n      swap2\n      swap1\n      tag_75\n      jump\t// in\n    tag_89:\n      tag_90\n      jump\t// in\n    tag_88:\n      mload(0x40)\n      tag_91\n      swap4\n      swap3\n      swap2\n      swap1\n      tag_92\n      jump\t// in\n    tag_91:\n      mload(0x40)\n      dup1\n      swap2\n      sub\n      swap1\n      return\n        /* \"staking.sol\":7281:7967  function getInterest (address user, uint8 class, uint256 balance) public view returns (uint256){... */\n    tag_16:\n      tag_93\n      0x04\n      dup1\n      calldatasize\n      sub\n      dup2\n      add\n      swap1\n      tag_94\n      swap2\n      swap1\n      tag_95\n      jump\t// in\n    tag_94:\n      tag_96\n      jump\t// in\n    tag_93:\n      mload(0x40)\n      tag_97\n      swap2\n      swap1\n      tag_48\n      jump\t// in\n    tag_97:\n      mload(0x40)\n      dup1\n      swap2\n      sub\n      swap1\n      return\n        /* \"@openzeppelin/contracts/access/Ownable.sol\":1668:1769  function renounceOwnership() public virtual onlyOwner {... */\n    tag_17:\n      tag_98\n      tag_99\n      jump\t// in\n    tag_98:\n      stop\n        /* \"staking.sol\":1426:1471  uint256 public level0Max = 500000000 * 10**18 */\n    tag_18:\n      tag_100\n      tag_101\n      jump\t// in\n    tag_100:\n      mload(0x40)\n      tag_102\n      swap2\n      swap1\n      tag_48\n      jump\t// in\n    tag_102:\n      mload(0x40)\n      dup1\n      swap2\n      sub\n      swap1\n      return\n        /* \"staking.sol\":1935:1982  mapping (address => _user) public level1Balance */\n    tag_19:\n      tag_103\n      0x04\n      dup1\n      calldatasize\n      sub\n      dup2\n      add\n      swap1\n      tag_104\n      swap2\n      swap1\n      tag_75\n      jump\t// in\n    tag_104:\n      tag_105\n      jump\t// in\n    tag_103:\n      mload(0x40)\n      tag_106\n      swap4\n      swap3\n      swap2\n      swap1\n      tag_92\n      jump\t// in\n    tag_106:\n      mload(0x40)\n      dup1\n      swap2\n      sub\n      swap1\n      return\n        /* \"staking.sol\":1233:1265  uint256 public level0APY =  2700 */\n    tag_20:\n      tag_107\n      tag_108\n      jump\t// in\n    tag_107:\n      mload(0x40)\n      tag_109\n      swap2\n      swap1\n      tag_48\n      jump\t// in\n    tag_109:\n      mload(0x40)\n      dup1\n      swap2\n      sub\n      swap1\n      return\n        /* \"staking.sol\":1988:2026  mapping (address => bool) public isVip */\n    tag_21:\n      tag_110\n      0x04\n      dup1\n      calldatasize\n      sub\n      dup2\n      add\n      swap1\n      tag_111\n      swap2\n      swap1\n      tag_75\n      jump\t// in\n    tag_111:\n      tag_112\n      jump\t// in\n    tag_110:\n      mload(0x40)\n      tag_113\n      swap2\n      swap1\n      tag_72\n      jump\t// in\n    tag_113:\n      mload(0x40)\n      dup1\n      swap2\n      sub\n      swap1\n      return\n        /* \"staking.sol\":2716:2776  function pause () public onlyOwner {... */\n    tag_22:\n      tag_114\n      tag_115\n      jump\t// in\n    tag_114:\n      stop\n        /* \"@openzeppelin/contracts/access/Ownable.sol\":1036:1121  function owner() public view virtual returns (address) {... */\n    tag_23:\n      tag_116\n      tag_117\n      jump\t// in\n    tag_116:\n      mload(0x40)\n      tag_118\n      swap2\n      swap1\n      tag_119\n      jump\t// in\n    tag_118:\n      mload(0x40)\n      dup1\n      swap2\n      sub\n      swap1\n      return\n        /* \"staking.sol\":1620:1668  uint256 public levelVipMax = 2500000000 * 10**18 */\n    tag_24:\n      tag_120\n      tag_121\n      jump\t// in\n    tag_120:\n      mload(0x40)\n      tag_122\n      swap2\n      swap1\n      tag_48\n      jump\t// in\n    tag_122:\n      mload(0x40)\n      dup1\n      swap2\n      sub\n      swap1\n      return\n        /* \"staking.sol\":1573:1614  uint256 public levelVipMin = 200 * 10**18 */\n    tag_25:\n      tag_123\n      tag_124\n      jump\t// in\n    tag_123:\n      mload(0x40)\n      tag_125\n      swap2\n      swap1\n      tag_48\n      jump\t// in\n    tag_125:\n      mload(0x40)\n      dup1\n      swap2\n      sub\n      swap1\n      return\n        /* \"staking.sol\":8495:9466  function withdrawLevel0 (uint256 _amount) public  {... */\n    tag_26:\n      tag_126\n      0x04\n      dup1\n      calldatasize\n      sub\n      dup2\n      add\n      swap1\n      tag_127\n      swap2\n      swap1\n      tag_55\n      jump\t// in\n    tag_127:\n      tag_128\n      jump\t// in\n    tag_126:\n      stop\n        /* \"staking.sol\":2032:2076  mapping (address => _user) public vipBalance */\n    tag_27:\n      tag_129\n      0x04\n      dup1\n      calldatasize\n      sub\n      dup2\n      add\n      swap1\n      tag_130\n      swap2\n      swap1\n      tag_75\n      jump\t// in\n    tag_130:\n      tag_131\n      jump\t// in\n    tag_129:\n      mload(0x40)\n      tag_132\n      swap4\n      swap3\n      swap2\n      swap1\n      tag_92\n      jump\t// in\n    tag_132:\n      mload(0x40)\n      dup1\n      swap2\n      sub\n      swap1\n      return\n        /* \"staking.sol\":9624:10579  function withdrawLevel1 (uint256 _amount) public  {... */\n    tag_28:\n      tag_133\n      0x04\n      dup1\n      calldatasize\n      sub\n      dup2\n      add\n      swap1\n      tag_134\n      swap2\n      swap1\n      tag_55\n      jump\t// in\n    tag_134:\n      tag_135\n      jump\t// in\n    tag_133:\n      stop\n        /* \"staking.sol\":5754:6502  function enterVip (uint256 _amount) public whenNotPaused {... */\n    tag_29:\n      tag_136\n      0x04\n      dup1\n      calldatasize\n      sub\n      dup2\n      add\n      swap1\n      tag_137\n      swap2\n      swap1\n      tag_55\n      jump\t// in\n    tag_137:\n      tag_138\n      jump\t// in\n    tag_136:\n      stop\n        /* \"staking.sol\":1522:1567  uint256 public level1Max = 500000000 * 10**18 */\n    tag_30:\n      tag_139\n      tag_140\n      jump\t// in\n    tag_139:\n      mload(0x40)\n      tag_141\n      swap2\n      swap1\n      tag_48\n      jump\t// in\n    tag_141:\n      mload(0x40)\n      dup1\n      swap2\n      sub\n      swap1\n      return\n        /* \"staking.sol\":1701:1729  address public reserveWallet */\n    tag_31:\n      tag_142\n      tag_143\n      jump\t// in\n    tag_142:\n      mload(0x40)\n      tag_144\n      swap2\n      swap1\n      tag_119\n      jump\t// in\n    tag_144:\n      mload(0x40)\n      dup1\n      swap2\n      sub\n      swap1\n      return\n        /* \"staking.sol\":2910:3029  function setReserveWallet (address _reserveWallet) external onlyOwner{... */\n    tag_32:\n      tag_145\n      0x04\n      dup1\n      calldatasize\n      sub\n      dup2\n      add\n      swap1\n      tag_146\n      swap2\n      swap1\n      tag_75\n      jump\t// in\n    tag_146:\n      tag_147\n      jump\t// in\n    tag_145:\n      stop\n        /* \"staking.sol\":3096:3304  function setNewAPY ( uint256 _level0APY, uint256 _level1APY, uint256 _vipLevelAPY) external onlyOwner{... */\n    tag_33:\n      tag_148\n      0x04\n      dup1\n      calldatasize\n      sub\n      dup2\n      add\n      swap1\n      tag_149\n      swap2\n      swap1\n      tag_150\n      jump\t// in\n    tag_149:\n      tag_151\n      jump\t// in\n    tag_148:\n      stop\n        /* \"@openzeppelin/contracts/access/Ownable.sol\":1918:2116  function transferOwnership(address newOwner) public virtual onlyOwner {... */\n    tag_34:\n      tag_152\n      0x04\n      dup1\n      calldatasize\n      sub\n      dup2\n      add\n      swap1\n      tag_153\n      swap2\n      swap1\n      tag_75\n      jump\t// in\n    tag_153:\n      tag_154\n      jump\t// in\n    tag_152:\n      stop\n        /* \"staking.sol\":3386:3758  function setNewMaxMin (uint256 _level0Min, uint256 _level0Max, uint256 _level1Min, uint256 _level1Max, uint256 _levelVipMin, uint256 _levelVipMax) external onlyOwner{... */\n    tag_35:\n      tag_155\n      0x04\n      dup1\n      calldatasize\n      sub\n      dup2\n      add\n      swap1\n      tag_156\n      swap2\n      swap1\n      tag_157\n      jump\t// in\n    tag_156:\n      tag_158\n      jump\t// in\n    tag_155:\n      stop\n        /* \"staking.sol\":6647:7146  function isOnTime (address user, uint8 class) public view returns (bool) {... */\n    tag_36:\n      tag_159\n      0x04\n      dup1\n      calldatasize\n      sub\n      dup2\n      add\n      swap1\n      tag_160\n      swap2\n      swap1\n      tag_161\n      jump\t// in\n    tag_160:\n      tag_162\n      jump\t// in\n    tag_159:\n      mload(0x40)\n      tag_163\n      swap2\n      swap1\n      tag_72\n      jump\t// in\n    tag_163:\n      mload(0x40)\n      dup1\n      swap2\n      sub\n      swap1\n      return\n        /* \"staking.sol\":3907:4657  function enterLevel0 (uint256 _amount) public whenNotPaused {... */\n    tag_37:\n      tag_164\n      0x04\n      dup1\n      calldatasize\n      sub\n      dup2\n      add\n      swap1\n      tag_165\n      swap2\n      swap1\n      tag_55\n      jump\t// in\n    tag_165:\n      tag_166\n      jump\t// in\n    tag_164:\n      stop\n        /* \"staking.sol\":1477:1516  uint256 public level1Min = 100 * 10**18 */\n    tag_46:\n      sload(0x07)\n      dup2\n      jump\t// out\n        /* \"staking.sol\":2294:2337  IDexRouter public immutable uniswapV2Router */\n    tag_50:\n      immutable(\"0x0b83f23a4eeb8c3f5f7d5934a2289bcf0186d09a12e1b7f20adf54e4b179db15\")\n      dup2\n      jump\t// out\n        /* \"staking.sol\":4813:5555  function enterLevel1 (uint256 _amount) public whenNotPaused {... */\n    tag_56:\n        /* \"@openzeppelin/contracts/security/Pausable.sol\":1412:1420  paused() */\n      tag_168\n        /* \"@openzeppelin/contracts/security/Pausable.sol\":1412:1418  paused */\n      tag_70\n        /* \"@openzeppelin/contracts/security/Pausable.sol\":1412:1420  paused() */\n      jump\t// in\n    tag_168:\n        /* \"@openzeppelin/contracts/security/Pausable.sol\":1411:1420  !paused() */\n      iszero\n        /* \"@openzeppelin/contracts/security/Pausable.sol\":1403:1441  require(!paused(), \"Pausable: paused\") */\n      tag_169\n      jumpi\n      mload(0x40)\n      0x08c379a000000000000000000000000000000000000000000000000000000000\n      dup2\n      mstore\n      0x04\n      add\n      tag_170\n      swap1\n      tag_171\n      jump\t// in\n    tag_170:\n      mload(0x40)\n      dup1\n      swap2\n      sub\n      swap1\n      revert\n    tag_169:\n        /* \"staking.sol\":4902:4911  level1Max */\n      sload(0x08)\n        /* \"staking.sol\":4891:4898  _amount */\n      dup2\n        /* \"staking.sol\":4891:4911  _amount <= level1Max */\n      gt\n      iszero\n        /* \"staking.sol\":4891:4935  _amount <= level1Max && _amount >= level1Min */\n      dup1\n      iszero\n      tag_173\n      jumpi\n      pop\n        /* \"staking.sol\":4926:4935  level1Min */\n      sload(0x07)\n        /* \"staking.sol\":4915:4922  _amount */\n      dup2\n        /* \"staking.sol\":4915:4935  _amount >= level1Min */\n      lt\n      iszero\n        /* \"staking.sol\":4891:4935  _amount <= level1Max && _amount >= level1Min */\n    tag_173:\n        /* \"staking.sol\":4883:4990  require(_amount <= level1Max && _amount >= level1Min, \"Amount needs to be more than min and less than max\") */\n      tag_174\n      jumpi\n      mload(0x40)\n      0x08c379a000000000000000000000000000000000000000000000000000000000\n      dup2\n      mstore\n      0x04\n      add\n      tag_175\n      swap1\n      tag_176\n      jump\t// in\n    tag_175:\n      mload(0x40)\n      dup1\n      swap2\n      sub\n      swap1\n      revert\n    tag_174:\n        /* \"staking.sol\":5000:5018  address _msgSender */\n      0x00\n        /* \"staking.sol\":5021:5031  msg.sender */\n      caller\n        /* \"staking.sol\":5000:5031  address _msgSender = msg.sender */\n      swap1\n      pop\n        /* \"staking.sol\":5052:5060  isLevel1 */\n      0x0e\n        /* \"staking.sol\":5052:5072  isLevel1[_msgSender] */\n      0x00\n        /* \"staking.sol\":5061:5071  _msgSender */\n      dup3\n        /* \"staking.sol\":5052:5072  isLevel1[_msgSender] */\n      0xffffffffffffffffffffffffffffffffffffffff\n      and\n      0xffffffffffffffffffffffffffffffffffffffff\n      and\n      dup2\n      mstore\n      0x20\n      add\n      swap1\n      dup2\n      mstore\n      0x20\n      add\n      0x00\n      keccak256\n      0x00\n      swap1\n      sload\n      swap1\n      0x0100\n      exp\n      swap1\n      div\n      0xff\n      and\n        /* \"staking.sol\":5051:5072  !isLevel1[_msgSender] */\n      iszero\n        /* \"staking.sol\":5043:5111  require(!isLevel1[_msgSender], \"You're already in this Stake level\") */\n      tag_177\n      jumpi\n      mload(0x40)\n      0x08c379a000000000000000000000000000000000000000000000000000000000\n      dup2\n      mstore\n      0x04\n      add\n      tag_178\n      swap1\n      tag_179\n      jump\t// in\n    tag_178:\n      mload(0x40)\n      dup1\n      swap2\n      sub\n      swap1\n      revert\n    tag_177:\n        /* \"staking.sol\":5128:5141  acceptedToken */\n      0x01\n      0x00\n      swap1\n      sload\n      swap1\n      0x0100\n      exp\n      swap1\n      div\n      0xffffffffffffffffffffffffffffffffffffffff\n      and\n        /* \"staking.sol\":5128:5154  acceptedToken.transferFrom */\n      0xffffffffffffffffffffffffffffffffffffffff\n      and\n      0x23b872dd\n        /* \"staking.sol\":5155:5165  _msgSender */\n      dup3\n        /* \"staking.sol\":5175:5179  this */\n      address\n        /* \"staking.sol\":5182:5189  _amount */\n      dup6\n        /* \"staking.sol\":5128:5190  acceptedToken.transferFrom(_msgSender, address(this), _amount) */\n      mload(0x40)\n      dup5\n      0xffffffff\n      and\n      0xe0\n      shl\n      dup2\n      mstore\n      0x04\n      add\n      tag_180\n      swap4\n      swap3\n      swap2\n      swap1\n      tag_181\n      jump\t// in\n    tag_180:\n      0x20\n      mload(0x40)\n      dup1\n      dup4\n      sub\n      dup2\n      0x00\n      dup8\n      dup1\n      extcodesize\n      iszero\n      dup1\n      iszero\n      tag_182\n      jumpi\n      0x00\n      dup1\n      revert\n    tag_182:\n      pop\n      gas\n      call\n      iszero\n      dup1\n      iszero\n      tag_184\n      jumpi\n      returndatasize\n      0x00\n      dup1\n      returndatacopy\n      revert(0x00, returndatasize)\n    tag_184:\n      pop\n      pop\n      pop\n      pop\n      mload(0x40)\n      returndatasize\n      not(0x1f)\n      0x1f\n      dup3\n      add\n      and\n      dup3\n      add\n      dup1\n      0x40\n      mstore\n      pop\n      dup2\n      add\n      swap1\n      tag_185\n      swap2\n      swap1\n      tag_186\n      jump\t// in\n    tag_185:\n      pop\n        /* \"staking.sol\":5224:5228  true */\n      0x01\n        /* \"staking.sol\":5201:5209  isLevel1 */\n      0x0e\n        /* \"staking.sol\":5201:5221  isLevel1[_msgSender] */\n      0x00\n        /* \"staking.sol\":5210:5220  _msgSender */\n      dup4\n        /* \"staking.sol\":5201:5221  isLevel1[_msgSender] */\n      0xffffffffffffffffffffffffffffffffffffffff\n      and\n      0xffffffffffffffffffffffffffffffffffffffff\n      and\n      dup2\n      mstore\n      0x20\n      add\n      swap1\n      dup2\n      mstore\n      0x20\n      add\n      0x00\n      keccak256\n      0x00\n        /* \"staking.sol\":5201:5228  isLevel1[_msgSender] = true */\n      0x0100\n      exp\n      dup2\n      sload\n      dup2\n      0xff\n      mul\n      not\n      and\n      swap1\n      dup4\n      iszero\n      iszero\n      mul\n      or\n      swap1\n      sstore\n      pop\n        /* \"staking.sol\":5266:5452  _user ({... */\n      mload(0x40)\n      dup1\n      0x60\n      add\n      0x40\n      mstore\n      dup1\n        /* \"staking.sol\":5295:5302  _amount */\n      dup4\n        /* \"staking.sol\":5266:5452  _user ({... */\n      dup2\n      mstore\n      0x20\n      add\n        /* \"staking.sol\":5328:5343  block.timestamp */\n      timestamp\n        /* \"staking.sol\":5266:5452  _user ({... */\n      dup2\n      mstore\n      0x20\n      add\n        /* \"staking.sol\":5438:5441  800 */\n      0x0320\n        /* \"staking.sol\":5420:5435  block.timestamp */\n      timestamp\n        /* \"staking.sol\":5420:5441  block.timestamp + 800 */\n      tag_187\n      swap2\n      swap1\n      tag_188\n      jump\t// in\n    tag_187:\n        /* \"staking.sol\":5266:5452  _user ({... */\n      dup2\n      mstore\n      pop\n        /* \"staking.sol\":5238:5251  level1Balance */\n      0x0f\n        /* \"staking.sol\":5238:5263  level1Balance[_msgSender] */\n      0x00\n        /* \"staking.sol\":5252:5262  _msgSender */\n      dup4\n        /* \"staking.sol\":5238:5263  level1Balance[_msgSender] */\n      0xffffffffffffffffffffffffffffffffffffffff\n      and\n      0xffffffffffffffffffffffffffffffffffffffff\n      and\n      dup2\n      mstore\n      0x20\n      add\n      swap1\n      dup2\n      mstore\n      0x20\n      add\n      0x00\n      keccak256\n        /* \"staking.sol\":5238:5452  level1Balance[_msgSender] = _user ({... */\n      0x00\n      dup3\n      add\n      mload\n      dup2\n      0x00\n      add\n      sstore\n      0x20\n      dup3\n      add\n      mload\n      dup2\n      0x01\n      add\n      sstore\n      0x40\n      dup3\n      add\n      mload\n      dup2\n      0x02\n      add\n      sstore\n      swap1\n      pop\n      pop\n        /* \"staking.sol\":5472:5548  deposit (_msgSender, 1, _amount, block.timestamp, block.timestamp + 30 days) */\n      0x17849bb8c713de96b48f218d3bacc9af082261c3ccc7c6dccebe70e667b22f23\n        /* \"staking.sol\":5481:5491  _msgSender */\n      dup2\n        /* \"staking.sol\":5493:5494  1 */\n      0x01\n        /* \"staking.sol\":5496:5503  _amount */\n      dup5\n        /* \"staking.sol\":5505:5520  block.timestamp */\n      timestamp\n        /* \"staking.sol\":5540:5547  30 days */\n      0x278d00\n        /* \"staking.sol\":5522:5537  block.timestamp */\n      timestamp\n        /* \"staking.sol\":5522:5547  block.timestamp + 30 days */\n      tag_189\n      swap2\n      swap1\n      tag_188\n      jump\t// in\n    tag_189:\n        /* \"staking.sol\":5472:5548  deposit (_msgSender, 1, _amount, block.timestamp, block.timestamp + 30 days) */\n      mload(0x40)\n      tag_190\n      swap6\n      swap5\n      swap4\n      swap3\n      swap2\n      swap1\n      tag_191\n      jump\t// in\n    tag_190:\n      mload(0x40)\n      dup1\n      swap2\n      sub\n      swap1\n      log1\n        /* \"staking.sol\":4873:5555  {... */\n      pop\n        /* \"staking.sol\":4813:5555  function enterLevel1 (uint256 _amount) public whenNotPaused {... */\n      pop\n      jump\t// out\n        /* \"staking.sol\":1271:1302  uint256 public level1APY = 3700 */\n    tag_58:\n      sload(0x03)\n      dup2\n      jump\t// out\n        /* \"staking.sol\":1308:1341  uint256 public vipLevelAPY = 4800 */\n    tag_61:\n      sload(0x04)\n      dup2\n      jump\t// out\n        /* \"staking.sol\":2786:2850  function unpause () public onlyOwner {... */\n    tag_64:\n        /* \"@openzeppelin/contracts/access/Ownable.sol\":1259:1271  _msgSender() */\n      tag_193\n        /* \"@openzeppelin/contracts/access/Ownable.sol\":1259:1269  _msgSender */\n      tag_194\n        /* \"@openzeppelin/contracts/access/Ownable.sol\":1259:1271  _msgSender() */\n      jump\t// in\n    tag_193:\n        /* \"@openzeppelin/contracts/access/Ownable.sol\":1248:1271  owner() == _msgSender() */\n      0xffffffffffffffffffffffffffffffffffffffff\n      and\n        /* \"@openzeppelin/contracts/access/Ownable.sol\":1248:1255  owner() */\n      tag_195\n        /* \"@openzeppelin/contracts/access/Ownable.sol\":1248:1253  owner */\n      tag_117\n        /* \"@openzeppelin/contracts/access/Ownable.sol\":1248:1255  owner() */\n      jump\t// in\n    tag_195:\n        /* \"@openzeppelin/contracts/access/Ownable.sol\":1248:1271  owner() == _msgSender() */\n      0xffffffffffffffffffffffffffffffffffffffff\n      and\n      eq\n        /* \"@openzeppelin/contracts/access/Ownable.sol\":1240:1308  require(owner() == _msgSender(), \"Ownable: caller is not the owner\") */\n      tag_196\n      jumpi\n      mload(0x40)\n      0x08c379a000000000000000000000000000000000000000000000000000000000\n      dup2\n      mstore\n      0x04\n      add\n      tag_197\n      swap1\n      tag_198\n      jump\t// in\n    tag_197:\n      mload(0x40)\n      dup1\n      swap2\n      sub\n      swap1\n      revert\n    tag_196:\n        /* \"staking.sol\":2833:2843  _unpause() */\n      tag_200\n        /* \"staking.sol\":2833:2841  _unpause */\n      tag_201\n        /* \"staking.sol\":2833:2843  _unpause() */\n      jump\t// in\n    tag_200:\n        /* \"staking.sol\":2786:2850  function unpause () public onlyOwner {... */\n      jump\t// out\n        /* \"staking.sol\":1024:1051  IERC20 public acceptedToken */\n    tag_66:\n      0x01\n      0x00\n      swap1\n      sload\n      swap1\n      0x0100\n      exp\n      swap1\n      div\n      0xffffffffffffffffffffffffffffffffffffffff\n      and\n      dup2\n      jump\t// out\n        /* \"@openzeppelin/contracts/security/Pausable.sol\":1098:1182  function paused() public view virtual returns (bool) {... */\n    tag_70:\n        /* \"@openzeppelin/contracts/security/Pausable.sol\":1145:1149  bool */\n      0x00\n        /* \"@openzeppelin/contracts/security/Pausable.sol\":1168:1175  _paused */\n      dup1\n      0x14\n      swap1\n      sload\n      swap1\n      0x0100\n      exp\n      swap1\n      div\n      0xff\n      and\n        /* \"@openzeppelin/contracts/security/Pausable.sol\":1161:1175  return _paused */\n      swap1\n      pop\n        /* \"@openzeppelin/contracts/security/Pausable.sol\":1098:1182  function paused() public view virtual returns (bool) {... */\n      swap1\n      jump\t// out\n        /* \"staking.sol\":1788:1829  mapping (address => bool) public isLevel0 */\n    tag_76:\n      mstore(0x20, 0x0c)\n      dup1\n      0x00\n      mstore\n      keccak256(0x00, 0x40)\n      0x00\n      swap2\n      pop\n      sload\n      swap1\n      0x0100\n      exp\n      swap1\n      div\n      0xff\n      and\n      dup2\n      jump\t// out\n        /* \"staking.sol\":1888:1929  mapping (address => bool) public isLevel1 */\n    tag_80:\n      mstore(0x20, 0x0e)\n      dup1\n      0x00\n      mstore\n      keccak256(0x00, 0x40)\n      0x00\n      swap2\n      pop\n      sload\n      swap1\n      0x0100\n      exp\n      swap1\n      div\n      0xff\n      and\n      dup2\n      jump\t// out\n        /* \"staking.sol\":1382:1420  uint256 public level0Min = 50 * 10**18 */\n    tag_83:\n      sload(0x05)\n      dup2\n      jump\t// out\n        /* \"staking.sol\":10737:11672  function withdrawVip (uint256 _amount) public  {... */\n    tag_87:\n        /* \"staking.sol\":10794:10812  address _msgSender */\n      0x00\n        /* \"staking.sol\":10815:10825  msg.sender */\n      caller\n        /* \"staking.sol\":10794:10825  address _msgSender = msg.sender */\n      swap1\n      pop\n        /* \"staking.sol\":10843:10848  isVip */\n      0x10\n        /* \"staking.sol\":10843:10860  isVip[_msgSender] */\n      0x00\n        /* \"staking.sol\":10849:10859  _msgSender */\n      dup3\n        /* \"staking.sol\":10843:10860  isVip[_msgSender] */\n      0xffffffffffffffffffffffffffffffffffffffff\n      and\n      0xffffffffffffffffffffffffffffffffffffffff\n      and\n      dup2\n      mstore\n      0x20\n      add\n      swap1\n      dup2\n      mstore\n      0x20\n      add\n      0x00\n      keccak256\n      0x00\n      swap1\n      sload\n      swap1\n      0x0100\n      exp\n      swap1\n      div\n      0xff\n      and\n        /* \"staking.sol\":10835:10880  require(isVip[_msgSender], \"User is not Vip\") */\n      tag_204\n      jumpi\n      mload(0x40)\n      0x08c379a000000000000000000000000000000000000000000000000000000000\n      dup2\n      mstore\n      0x04\n      add\n      tag_205\n      swap1\n      tag_206\n      jump\t// in\n    tag_205:\n      mload(0x40)\n      dup1\n      swap2\n      sub\n      swap1\n      revert\n    tag_204:\n        /* \"staking.sol\":10895:10910  uint256 balance */\n      0x00\n        /* \"staking.sol\":10913:10923  vipBalance */\n      0x11\n        /* \"staking.sol\":10913:10935  vipBalance[_msgSender] */\n      0x00\n        /* \"staking.sol\":10924:10934  _msgSender */\n      dup4\n        /* \"staking.sol\":10913:10935  vipBalance[_msgSender] */\n      0xffffffffffffffffffffffffffffffffffffffff\n      and\n      0xffffffffffffffffffffffffffffffffffffffff\n      and\n      dup2\n      mstore\n      0x20\n      add\n      swap1\n      dup2\n      mstore\n      0x20\n      add\n      0x00\n      keccak256\n        /* \"staking.sol\":10913:10943  vipBalance[_msgSender].balance */\n      0x00\n      add\n      sload\n        /* \"staking.sol\":10895:10943  uint256 balance = vipBalance[_msgSender].balance */\n      swap1\n      pop\n        /* \"staking.sol\":10972:10979  _amount */\n      dup3\n        /* \"staking.sol\":10961:10968  balance */\n      dup2\n        /* \"staking.sol\":10961:10979  balance >= _amount */\n      lt\n      iszero\n        /* \"staking.sol\":10953:11014  require(balance >= _amount, \"Not enough balance to withdraw\") */\n      tag_207\n      jumpi\n      mload(0x40)\n      0x08c379a000000000000000000000000000000000000000000000000000000000\n      dup2\n      mstore\n      0x04\n      add\n      tag_208\n      swap1\n      tag_209\n      jump\t// in\n    tag_208:\n      mload(0x40)\n      dup1\n      swap2\n      sub\n      swap1\n      revert\n    tag_207:\n        /* \"staking.sol\":11025:11039  bool _isOnTime */\n      0x00\n        /* \"staking.sol\":11042:11065  isOnTime(_msgSender, 2) */\n      tag_210\n        /* \"staking.sol\":11051:11061  _msgSender */\n      dup4\n        /* \"staking.sol\":11063:11064  2 */\n      0x02\n        /* \"staking.sol\":11042:11050  isOnTime */\n      tag_162\n        /* \"staking.sol\":11042:11065  isOnTime(_msgSender, 2) */\n      jump\t// in\n    tag_210:\n        /* \"staking.sol\":11025:11065  bool _isOnTime = isOnTime(_msgSender, 2) */\n      swap1\n      pop\n        /* \"staking.sol\":11075:11091  uint256 earnings */\n      0x00\n        /* \"staking.sol\":11094:11129  getInterest(_msgSender, 2, _amount) */\n      tag_211\n        /* \"staking.sol\":11106:11116  _msgSender */\n      dup5\n        /* \"staking.sol\":11118:11119  2 */\n      0x02\n        /* \"staking.sol\":11121:11128  _amount */\n      dup8\n        /* \"staking.sol\":11094:11105  getInterest */\n      tag_96\n        /* \"staking.sol\":11094:11129  getInterest(_msgSender, 2, _amount) */\n      jump\t// in\n    tag_211:\n        /* \"staking.sol\":11075:11129  uint256 earnings = getInterest(_msgSender, 2, _amount) */\n      swap1\n      pop\n        /* \"staking.sol\":11154:11161  balance */\n      dup3\n        /* \"staking.sol\":11143:11150  _amount */\n      dup6\n        /* \"staking.sol\":11143:11161  _amount == balance */\n      eq\n        /* \"staking.sol\":11140:11332  if(_amount == balance){... */\n      iszero\n      tag_212\n      jumpi\n        /* \"staking.sol\":11183:11193  vipBalance */\n      0x11\n        /* \"staking.sol\":11183:11205  vipBalance[_msgSender] */\n      0x00\n        /* \"staking.sol\":11194:11204  _msgSender */\n      dup6\n        /* \"staking.sol\":11183:11205  vipBalance[_msgSender] */\n      0xffffffffffffffffffffffffffffffffffffffff\n      and\n      0xffffffffffffffffffffffffffffffffffffffff\n      and\n      dup2\n      mstore\n      0x20\n      add\n      swap1\n      dup2\n      mstore\n      0x20\n      add\n      0x00\n      keccak256\n      0x00\n        /* \"staking.sol\":11176:11205  delete vipBalance[_msgSender] */\n      dup1\n      dup3\n      add\n      0x00\n      swap1\n      sstore\n      0x01\n      dup3\n      add\n      0x00\n      swap1\n      sstore\n      0x02\n      dup3\n      add\n      0x00\n      swap1\n      sstore\n      pop\n      pop\n        /* \"staking.sol\":11244:11249  false */\n      0x00\n        /* \"staking.sol\":11224:11229  isVip */\n      0x10\n        /* \"staking.sol\":11224:11241  isVip[_msgSender] */\n      0x00\n        /* \"staking.sol\":11230:11240  _msgSender */\n      dup7\n        /* \"staking.sol\":11224:11241  isVip[_msgSender] */\n      0xffffffffffffffffffffffffffffffffffffffff\n      and\n      0xffffffffffffffffffffffffffffffffffffffff\n      and\n      dup2\n      mstore\n      0x20\n      add\n      swap1\n      dup2\n      mstore\n      0x20\n      add\n      0x00\n      keccak256\n      0x00\n        /* \"staking.sol\":11224:11249  isVip[_msgSender] = false */\n      0x0100\n      exp\n      dup2\n      sload\n      dup2\n      0xff\n      mul\n      not\n      and\n      swap1\n      dup4\n      iszero\n      iszero\n      mul\n      or\n      swap1\n      sstore\n      pop\n        /* \"staking.sol\":11140:11332  if(_amount == balance){... */\n      jump(tag_213)\n    tag_212:\n        /* \"staking.sol\":11314:11321  _amount */\n      dup5\n        /* \"staking.sol\":11280:11290  vipBalance */\n      0x11\n        /* \"staking.sol\":11280:11302  vipBalance[_msgSender] */\n      0x00\n        /* \"staking.sol\":11291:11301  _msgSender */\n      dup7\n        /* \"staking.sol\":11280:11302  vipBalance[_msgSender] */\n      0xffffffffffffffffffffffffffffffffffffffff\n      and\n      0xffffffffffffffffffffffffffffffffffffffff\n      and\n      dup2\n      mstore\n      0x20\n      add\n      swap1\n      dup2\n      mstore\n      0x20\n      add\n      0x00\n      keccak256\n        /* \"staking.sol\":11280:11310  vipBalance[_msgSender].balance */\n      0x00\n      add\n      0x00\n        /* \"staking.sol\":11280:11321  vipBalance[_msgSender].balance -= _amount */\n      dup3\n      dup3\n      sload\n      tag_214\n      swap2\n      swap1\n      tag_215\n      jump\t// in\n    tag_214:\n      swap3\n      pop\n      pop\n      dup2\n      swap1\n      sstore\n      pop\n        /* \"staking.sol\":11140:11332  if(_amount == balance){... */\n    tag_213:\n        /* \"staking.sol\":11345:11354  _isOnTime */\n      dup2\n        /* \"staking.sol\":11342:11597  if(_isOnTime){... */\n      iszero\n      tag_216\n      jumpi\n        /* \"staking.sol\":11369:11382  acceptedToken */\n      0x01\n      0x00\n      swap1\n      sload\n      swap1\n      0x0100\n      exp\n      swap1\n      div\n      0xffffffffffffffffffffffffffffffffffffffff\n      and\n        /* \"staking.sol\":11369:11391  acceptedToken.transfer */\n      0xffffffffffffffffffffffffffffffffffffffff\n      and\n      0xa9059cbb\n        /* \"staking.sol\":11392:11402  _msgSender */\n      dup6\n        /* \"staking.sol\":11404:11411  _amount */\n      dup8\n        /* \"staking.sol\":11369:11412  acceptedToken.transfer(_msgSender, _amount) */\n      mload(0x40)\n      dup4\n      0xffffffff\n      and\n      0xe0\n      shl\n      dup2\n      mstore\n      0x04\n      add\n      tag_217\n      swap3\n      swap2\n      swap1\n      tag_218\n      jump\t// in\n    tag_217:\n      0x20\n      mload(0x40)\n      dup1\n      dup4\n      sub\n      dup2\n      0x00\n      dup8\n      dup1\n      extcodesize\n      iszero\n      dup1\n      iszero\n      tag_219\n      jumpi\n      0x00\n      dup1\n      revert\n    tag_219:\n      pop\n      gas\n      call\n      iszero\n      dup1\n      iszero\n      tag_221\n      jumpi\n      returndatasize\n      0x00\n      dup1\n      returndatacopy\n      revert(0x00, returndatasize)\n    tag_221:\n      pop\n      pop\n      pop\n      pop\n      mload(0x40)\n      returndatasize\n      not(0x1f)\n      0x1f\n      dup3\n      add\n      and\n      dup3\n      add\n      dup1\n      0x40\n      mstore\n      pop\n      dup2\n      add\n      swap1\n      tag_222\n      swap2\n      swap1\n      tag_186\n      jump\t// in\n    tag_222:\n      pop\n        /* \"staking.sol\":11426:11464  swapTokensForEth(earnings, _msgSender) */\n      tag_223\n        /* \"staking.sol\":11443:11451  earnings */\n      dup2\n        /* \"staking.sol\":11453:11463  _msgSender */\n      dup6\n        /* \"staking.sol\":11426:11442  swapTokensForEth */\n      tag_224\n        /* \"staking.sol\":11426:11464  swapTokensForEth(earnings, _msgSender) */\n      jump\t// in\n    tag_223:\n        /* \"staking.sol\":11342:11597  if(_isOnTime){... */\n      jump(tag_225)\n    tag_216:\n        /* \"staking.sol\":11506:11507  0 */\n      0x00\n        /* \"staking.sol\":11495:11507  earnings = 0 */\n      swap1\n      pop\n        /* \"staking.sol\":11532:11545  acceptedToken */\n      0x01\n      0x00\n      swap1\n      sload\n      swap1\n      0x0100\n      exp\n      swap1\n      div\n      0xffffffffffffffffffffffffffffffffffffffff\n      and\n        /* \"staking.sol\":11532:11554  acceptedToken.transfer */\n      0xffffffffffffffffffffffffffffffffffffffff\n      and\n      0xa9059cbb\n        /* \"staking.sol\":11555:11565  _msgSender */\n      dup6\n        /* \"staking.sol\":11567:11574  _amount */\n      dup8\n        /* \"staking.sol\":11532:11575  acceptedToken.transfer(_msgSender, _amount) */\n      mload(0x40)\n      dup4\n      0xffffffff\n      and\n      0xe0\n      shl\n      dup2\n      mstore\n      0x04\n      add\n      tag_226\n      swap3\n      swap2\n      swap1\n      tag_218\n      jump\t// in\n    tag_226:\n      0x20\n      mload(0x40)\n      dup1\n      dup4\n      sub\n      dup2\n      0x00\n      dup8\n      dup1\n      extcodesize\n      iszero\n      dup1\n      iszero\n      tag_227\n      jumpi\n      0x00\n      dup1\n      revert\n    tag_227:\n      pop\n      gas\n      call\n      iszero\n      dup1\n      iszero\n      tag_229\n      jumpi\n      returndatasize\n      0x00\n      dup1\n      returndatacopy\n      revert(0x00, returndatasize)\n    tag_229:\n      pop\n      pop\n      pop\n      pop\n      mload(0x40)\n      returndatasize\n      not(0x1f)\n      0x1f\n      dup3\n      add\n      and\n      dup3\n      add\n      dup1\n      0x40\n      mstore\n      pop\n      dup2\n      add\n      swap1\n      tag_230\n      swap2\n      swap1\n      tag_186\n      jump\t// in\n    tag_230:\n      pop\n        /* \"staking.sol\":11342:11597  if(_isOnTime){... */\n    tag_225:\n        /* \"staking.sol\":11612:11665  withdraw(_msgSender, 2, _isOnTime, _amount, earnings) */\n      0xa3dff5863d601223d9b31a0253b97a6c2085daca56089b92836b4b6a1991e04b\n        /* \"staking.sol\":11621:11631  _msgSender */\n      dup5\n        /* \"staking.sol\":11633:11634  2 */\n      0x02\n        /* \"staking.sol\":11636:11645  _isOnTime */\n      dup5\n        /* \"staking.sol\":11647:11654  _amount */\n      dup9\n        /* \"staking.sol\":11656:11664  earnings */\n      dup6\n        /* \"staking.sol\":11612:11665  withdraw(_msgSender, 2, _isOnTime, _amount, earnings) */\n      mload(0x40)\n      tag_231\n      swap6\n      swap5\n      swap4\n      swap3\n      swap2\n      swap1\n      tag_232\n      jump\t// in\n    tag_231:\n      mload(0x40)\n      dup1\n      swap2\n      sub\n      swap1\n      log1\n        /* \"staking.sol\":10784:11672  {... */\n      pop\n      pop\n      pop\n      pop\n        /* \"staking.sol\":10737:11672  function withdrawVip (uint256 _amount) public  {... */\n      pop\n      jump\t// out\n        /* \"staking.sol\":1835:1882  mapping (address => _user) public level0Balance */\n    tag_90:\n      mstore(0x20, 0x0d)\n      dup1\n      0x00\n      mstore\n      keccak256(0x00, 0x40)\n      0x00\n      swap2\n      pop\n      swap1\n      pop\n      dup1\n      0x00\n      add\n      sload\n      swap1\n      dup1\n      0x01\n      add\n      sload\n      swap1\n      dup1\n      0x02\n      add\n      sload\n      swap1\n      pop\n      dup4\n      jump\t// out\n        /* \"staking.sol\":7281:7967  function getInterest (address user, uint8 class, uint256 balance) public view returns (uint256){... */\n    tag_96:\n        /* \"staking.sol\":7368:7375  uint256 */\n      0x00\n        /* \"staking.sol\":7398:7399  0 */\n      dup1\n        /* \"staking.sol\":7389:7394  class */\n      dup4\n        /* \"staking.sol\":7389:7399  class == 0 */\n      0xff\n      and\n      eq\n        /* \"staking.sol\":7386:7961  if(class == 0){           ... */\n      iszero\n      tag_234\n      jumpi\n        /* \"staking.sol\":7425:7445  uint256 _timeStarted */\n      0x00\n        /* \"staking.sol\":7448:7461  level0Balance */\n      0x0d\n        /* \"staking.sol\":7448:7467  level0Balance[user] */\n      0x00\n        /* \"staking.sol\":7462:7466  user */\n      dup7\n        /* \"staking.sol\":7448:7467  level0Balance[user] */\n      0xffffffffffffffffffffffffffffffffffffffff\n      and\n      0xffffffffffffffffffffffffffffffffffffffff\n      and\n      dup2\n      mstore\n      0x20\n      add\n      swap1\n      dup2\n      mstore\n      0x20\n      add\n      0x00\n      keccak256\n        /* \"staking.sol\":7448:7479  level0Balance[user].timeStarted */\n      0x01\n      add\n      sload\n        /* \"staking.sol\":7425:7479  uint256 _timeStarted = level0Balance[user].timeStarted */\n      swap1\n      pop\n        /* \"staking.sol\":7501:7551  calculateInterest(balance,_timeStarted, level0APY) */\n      tag_235\n        /* \"staking.sol\":7519:7526  balance */\n      dup4\n        /* \"staking.sol\":7527:7539  _timeStarted */\n      dup3\n        /* \"staking.sol\":7541:7550  level0APY */\n      sload(0x02)\n        /* \"staking.sol\":7501:7518  calculateInterest */\n      tag_236\n        /* \"staking.sol\":7501:7551  calculateInterest(balance,_timeStarted, level0APY) */\n      jump\t// in\n    tag_235:\n        /* \"staking.sol\":7494:7551  return calculateInterest(balance,_timeStarted, level0APY) */\n      swap2\n      pop\n      pop\n      jump(tag_233)\n        /* \"staking.sol\":7386:7961  if(class == 0){           ... */\n    tag_234:\n        /* \"staking.sol\":7581:7582  1 */\n      0x01\n        /* \"staking.sol\":7572:7577  class */\n      dup4\n        /* \"staking.sol\":7572:7582  class == 1 */\n      0xff\n      and\n      eq\n        /* \"staking.sol\":7568:7961  if (class == 1){      ... */\n      iszero\n      tag_238\n      jumpi\n        /* \"staking.sol\":7603:7623  uint256 _timeStarted */\n      0x00\n        /* \"staking.sol\":7626:7639  level1Balance */\n      0x0f\n        /* \"staking.sol\":7626:7645  level1Balance[user] */\n      0x00\n        /* \"staking.sol\":7640:7644  user */\n      dup7\n        /* \"staking.sol\":7626:7645  level1Balance[user] */\n      0xffffffffffffffffffffffffffffffffffffffff\n      and\n      0xffffffffffffffffffffffffffffffffffffffff\n      and\n      dup2\n      mstore\n      0x20\n      add\n      swap1\n      dup2\n      mstore\n      0x20\n      add\n      0x00\n      keccak256\n        /* \"staking.sol\":7626:7657  level1Balance[user].timeStarted */\n      0x01\n      add\n      sload\n        /* \"staking.sol\":7603:7657  uint256 _timeStarted = level1Balance[user].timeStarted */\n      swap1\n      pop\n        /* \"staking.sol\":7679:7729  calculateInterest(balance,_timeStarted, level1APY) */\n      tag_239\n        /* \"staking.sol\":7697:7704  balance */\n      dup4\n        /* \"staking.sol\":7705:7717  _timeStarted */\n      dup3\n        /* \"staking.sol\":7719:7728  level1APY */\n      sload(0x03)\n        /* \"staking.sol\":7679:7696  calculateInterest */\n      tag_236\n        /* \"staking.sol\":7679:7729  calculateInterest(balance,_timeStarted, level1APY) */\n      jump\t// in\n    tag_239:\n        /* \"staking.sol\":7672:7729  return calculateInterest(balance,_timeStarted, level1APY) */\n      swap2\n      pop\n      pop\n      jump(tag_233)\n        /* \"staking.sol\":7568:7961  if (class == 1){      ... */\n    tag_238:\n        /* \"staking.sol\":7759:7760  2 */\n      0x02\n        /* \"staking.sol\":7750:7755  class */\n      dup4\n        /* \"staking.sol\":7750:7760  class == 2 */\n      0xff\n      and\n      eq\n        /* \"staking.sol\":7746:7961  if (class == 2){           ... */\n      iszero\n      tag_241\n      jumpi\n        /* \"staking.sol\":7786:7806  uint256 _timeStarted */\n      0x00\n        /* \"staking.sol\":7809:7819  vipBalance */\n      0x11\n        /* \"staking.sol\":7809:7825  vipBalance[user] */\n      0x00\n        /* \"staking.sol\":7820:7824  user */\n      dup7\n        /* \"staking.sol\":7809:7825  vipBalance[user] */\n      0xffffffffffffffffffffffffffffffffffffffff\n      and\n      0xffffffffffffffffffffffffffffffffffffffff\n      and\n      dup2\n      mstore\n      0x20\n      add\n      swap1\n      dup2\n      mstore\n      0x20\n      add\n      0x00\n      keccak256\n        /* \"staking.sol\":7809:7837  vipBalance[user].timeStarted */\n      0x01\n      add\n      sload\n        /* \"staking.sol\":7786:7837  uint256 _timeStarted = vipBalance[user].timeStarted */\n      swap1\n      pop\n        /* \"staking.sol\":7859:7911  calculateInterest(balance,_timeStarted, vipLevelAPY) */\n      tag_242\n        /* \"staking.sol\":7877:7884  balance */\n      dup4\n        /* \"staking.sol\":7885:7897  _timeStarted */\n      dup3\n        /* \"staking.sol\":7899:7910  vipLevelAPY */\n      sload(0x04)\n        /* \"staking.sol\":7859:7876  calculateInterest */\n      tag_236\n        /* \"staking.sol\":7859:7911  calculateInterest(balance,_timeStarted, vipLevelAPY) */\n      jump\t// in\n    tag_242:\n        /* \"staking.sol\":7852:7911  return calculateInterest(balance,_timeStarted, vipLevelAPY) */\n      swap2\n      pop\n      pop\n      jump(tag_233)\n        /* \"staking.sol\":7746:7961  if (class == 2){           ... */\n    tag_241:\n        /* \"staking.sol\":7949:7950  0 */\n      0x00\n        /* \"staking.sol\":7942:7950  return 0 */\n      swap1\n      pop\n        /* \"staking.sol\":7281:7967  function getInterest (address user, uint8 class, uint256 balance) public view returns (uint256){... */\n    tag_233:\n      swap4\n      swap3\n      pop\n      pop\n      pop\n      jump\t// out\n        /* \"@openzeppelin/contracts/access/Ownable.sol\":1668:1769  function renounceOwnership() public virtual onlyOwner {... */\n    tag_99:\n        /* \"@openzeppelin/contracts/access/Ownable.sol\":1259:1271  _msgSender() */\n      tag_245\n        /* \"@openzeppelin/contracts/access/Ownable.sol\":1259:1269  _msgSender */\n      tag_194\n        /* \"@openzeppelin/contracts/access/Ownable.sol\":1259:1271  _msgSender() */\n      jump\t// in\n    tag_245:\n        /* \"@openzeppelin/contracts/access/Ownable.sol\":1248:1271  owner() == _msgSender() */\n      0xffffffffffffffffffffffffffffffffffffffff\n      and\n        /* \"@openzeppelin/contracts/access/Ownable.sol\":1248:1255  owner() */\n      tag_246\n        /* \"@openzeppelin/contracts/access/Ownable.sol\":1248:1253  owner */\n      tag_117\n        /* \"@openzeppelin/contracts/access/Ownable.sol\":1248:1255  owner() */\n      jump\t// in\n    tag_246:\n        /* \"@openzeppelin/contracts/access/Ownable.sol\":1248:1271  owner() == _msgSender() */\n      0xffffffffffffffffffffffffffffffffffffffff\n      and\n      eq\n        /* \"@openzeppelin/contracts/access/Ownable.sol\":1240:1308  require(owner() == _msgSender(), \"Ownable: caller is not the owner\") */\n      tag_247\n      jumpi\n      mload(0x40)\n      0x08c379a000000000000000000000000000000000000000000000000000000000\n      dup2\n      mstore\n      0x04\n      add\n      tag_248\n      swap1\n      tag_198\n      jump\t// in\n    tag_248:\n      mload(0x40)\n      dup1\n      swap2\n      sub\n      swap1\n      revert\n    tag_247:\n        /* \"@openzeppelin/contracts/access/Ownable.sol\":1732:1762  _transferOwnership(address(0)) */\n      tag_250\n        /* \"@openzeppelin/contracts/access/Ownable.sol\":1759:1760  0 */\n      0x00\n        /* \"@openzeppelin/contracts/access/Ownable.sol\":1732:1750  _transferOwnership */\n      tag_251\n        /* \"@openzeppelin/contracts/access/Ownable.sol\":1732:1762  _transferOwnership(address(0)) */\n      jump\t// in\n    tag_250:\n        /* \"@openzeppelin/contracts/access/Ownable.sol\":1668:1769  function renounceOwnership() public virtual onlyOwner {... */\n      jump\t// out\n        /* \"staking.sol\":1426:1471  uint256 public level0Max = 500000000 * 10**18 */\n    tag_101:\n      sload(0x06)\n      dup2\n      jump\t// out\n        /* \"staking.sol\":1935:1982  mapping (address => _user) public level1Balance */\n    tag_105:\n      mstore(0x20, 0x0f)\n      dup1\n      0x00\n      mstore\n      keccak256(0x00, 0x40)\n      0x00\n      swap2\n      pop\n      swap1\n      pop\n      dup1\n      0x00\n      add\n      sload\n      swap1\n      dup1\n      0x01\n      add\n      sload\n      swap1\n      dup1\n      0x02\n      add\n      sload\n      swap1\n      pop\n      dup4\n      jump\t// out\n        /* \"staking.sol\":1233:1265  uint256 public level0APY =  2700 */\n    tag_108:\n      sload(0x02)\n      dup2\n      jump\t// out\n        /* \"staking.sol\":1988:2026  mapping (address => bool) public isVip */\n    tag_112:\n      mstore(0x20, 0x10)\n      dup1\n      0x00\n      mstore\n      keccak256(0x00, 0x40)\n      0x00\n      swap2\n      pop\n      sload\n      swap1\n      0x0100\n      exp\n      swap1\n      div\n      0xff\n      and\n      dup2\n      jump\t// out\n        /* \"staking.sol\":2716:2776  function pause () public onlyOwner {... */\n    tag_115:\n        /* \"@openzeppelin/contracts/access/Ownable.sol\":1259:1271  _msgSender() */\n      tag_253\n        /* \"@openzeppelin/contracts/access/Ownable.sol\":1259:1269  _msgSender */\n      tag_194\n        /* \"@openzeppelin/contracts/access/Ownable.sol\":1259:1271  _msgSender() */\n      jump\t// in\n    tag_253:\n        /* \"@openzeppelin/contracts/access/Ownable.sol\":1248:1271  owner() == _msgSender() */\n      0xffffffffffffffffffffffffffffffffffffffff\n      and\n        /* \"@openzeppelin/contracts/access/Ownable.sol\":1248:1255  owner() */\n      tag_254\n        /* \"@openzeppelin/contracts/access/Ownable.sol\":1248:1253  owner */\n      tag_117\n        /* \"@openzeppelin/contracts/access/Ownable.sol\":1248:1255  owner() */\n      jump\t// in\n    tag_254:\n        /* \"@openzeppelin/contracts/access/Ownable.sol\":1248:1271  owner() == _msgSender() */\n      0xffffffffffffffffffffffffffffffffffffffff\n      and\n      eq\n        /* \"@openzeppelin/contracts/access/Ownable.sol\":1240:1308  require(owner() == _msgSender(), \"Ownable: caller is not the owner\") */\n      tag_255\n      jumpi\n      mload(0x40)\n      0x08c379a000000000000000000000000000000000000000000000000000000000\n      dup2\n      mstore\n      0x04\n      add\n      tag_256\n      swap1\n      tag_198\n      jump\t// in\n    tag_256:\n      mload(0x40)\n      dup1\n      swap2\n      sub\n      swap1\n      revert\n    tag_255:\n        /* \"staking.sol\":2761:2769  _pause() */\n      tag_258\n        /* \"staking.sol\":2761:2767  _pause */\n      tag_259\n        /* \"staking.sol\":2761:2769  _pause() */\n      jump\t// in\n    tag_258:\n        /* \"staking.sol\":2716:2776  function pause () public onlyOwner {... */\n      jump\t// out\n        /* \"@openzeppelin/contracts/access/Ownable.sol\":1036:1121  function owner() public view virtual returns (address) {... */\n    tag_117:\n        /* \"@openzeppelin/contracts/access/Ownable.sol\":1082:1089  address */\n      0x00\n        /* \"@openzeppelin/contracts/access/Ownable.sol\":1108:1114  _owner */\n      dup1\n      0x00\n      swap1\n      sload\n      swap1\n      0x0100\n      exp\n      swap1\n      div\n      0xffffffffffffffffffffffffffffffffffffffff\n      and\n        /* \"@openzeppelin/contracts/access/Ownable.sol\":1101:1114  return _owner */\n      swap1\n      pop\n        /* \"@openzeppelin/contracts/access/Ownable.sol\":1036:1121  function owner() public view virtual returns (address) {... */\n      swap1\n      jump\t// out\n        /* \"staking.sol\":1620:1668  uint256 public levelVipMax = 2500000000 * 10**18 */\n    tag_121:\n      sload(0x0a)\n      dup2\n      jump\t// out\n        /* \"staking.sol\":1573:1614  uint256 public levelVipMin = 200 * 10**18 */\n    tag_124:\n      sload(0x09)\n      dup2\n      jump\t// out\n        /* \"staking.sol\":8495:9466  function withdrawLevel0 (uint256 _amount) public  {... */\n    tag_128:\n        /* \"staking.sol\":8555:8573  address _msgSender */\n      0x00\n        /* \"staking.sol\":8576:8586  msg.sender */\n      caller\n        /* \"staking.sol\":8555:8586  address _msgSender = msg.sender */\n      swap1\n      pop\n        /* \"staking.sol\":8604:8612  isLevel0 */\n      0x0c\n        /* \"staking.sol\":8604:8624  isLevel0[_msgSender] */\n      0x00\n        /* \"staking.sol\":8613:8623  _msgSender */\n      dup3\n        /* \"staking.sol\":8604:8624  isLevel0[_msgSender] */\n      0xffffffffffffffffffffffffffffffffffffffff\n      and\n      0xffffffffffffffffffffffffffffffffffffffff\n      and\n      dup2\n      mstore\n      0x20\n      add\n      swap1\n      dup2\n      mstore\n      0x20\n      add\n      0x00\n      keccak256\n      0x00\n      swap1\n      sload\n      swap1\n      0x0100\n      exp\n      swap1\n      div\n      0xff\n      and\n        /* \"staking.sol\":8596:8651  require(isLevel0[_msgSender], \"User is not on Level 0\") */\n      tag_262\n      jumpi\n      mload(0x40)\n      0x08c379a000000000000000000000000000000000000000000000000000000000\n      dup2\n      mstore\n      0x04\n      add\n      tag_263\n      swap1\n      tag_264\n      jump\t// in\n    tag_263:\n      mload(0x40)\n      dup1\n      swap2\n      sub\n      swap1\n      revert\n    tag_262:\n        /* \"staking.sol\":8662:8677  uint256 balance */\n      0x00\n        /* \"staking.sol\":8680:8693  level0Balance */\n      0x0d\n        /* \"staking.sol\":8680:8705  level0Balance[_msgSender] */\n      0x00\n        /* \"staking.sol\":8694:8704  _msgSender */\n      dup4\n        /* \"staking.sol\":8680:8705  level0Balance[_msgSender] */\n      0xffffffffffffffffffffffffffffffffffffffff\n      and\n      0xffffffffffffffffffffffffffffffffffffffff\n      and\n      dup2\n      mstore\n      0x20\n      add\n      swap1\n      dup2\n      mstore\n      0x20\n      add\n      0x00\n      keccak256\n        /* \"staking.sol\":8680:8713  level0Balance[_msgSender].balance */\n      0x00\n      add\n      sload\n        /* \"staking.sol\":8662:8713  uint256 balance = level0Balance[_msgSender].balance */\n      swap1\n      pop\n        /* \"staking.sol\":8742:8749  _amount */\n      dup3\n        /* \"staking.sol\":8731:8738  balance */\n      dup2\n        /* \"staking.sol\":8731:8749  balance >= _amount */\n      lt\n      iszero\n        /* \"staking.sol\":8723:8784  require(balance >= _amount, \"Not enough balance to withdraw\") */\n      tag_265\n      jumpi\n      mload(0x40)\n      0x08c379a000000000000000000000000000000000000000000000000000000000\n      dup2\n      mstore\n      0x04\n      add\n      tag_266\n      swap1\n      tag_209\n      jump\t// in\n    tag_266:\n      mload(0x40)\n      dup1\n      swap2\n      sub\n      swap1\n      revert\n    tag_265:\n        /* \"staking.sol\":8795:8809  bool _isOnTime */\n      0x00\n        /* \"staking.sol\":8812:8835  isOnTime(_msgSender, 0) */\n      tag_267\n        /* \"staking.sol\":8821:8831  _msgSender */\n      dup4\n        /* \"staking.sol\":8833:8834  0 */\n      0x00\n        /* \"staking.sol\":8812:8820  isOnTime */\n      tag_162\n        /* \"staking.sol\":8812:8835  isOnTime(_msgSender, 0) */\n      jump\t// in\n    tag_267:\n        /* \"staking.sol\":8795:8835  bool _isOnTime = isOnTime(_msgSender, 0) */\n      swap1\n      pop\n        /* \"staking.sol\":8845:8861  uint256 earnings */\n      0x00\n        /* \"staking.sol\":8864:8899  getInterest(_msgSender, 0, _amount) */\n      tag_268\n        /* \"staking.sol\":8876:8886  _msgSender */\n      dup5\n        /* \"staking.sol\":8888:8889  0 */\n      0x00\n        /* \"staking.sol\":8891:8898  _amount */\n      dup8\n        /* \"staking.sol\":8864:8875  getInterest */\n      tag_96\n        /* \"staking.sol\":8864:8899  getInterest(_msgSender, 0, _amount) */\n      jump\t// in\n    tag_268:\n        /* \"staking.sol\":8845:8899  uint256 earnings = getInterest(_msgSender, 0, _amount) */\n      swap1\n      pop\n        /* \"staking.sol\":8924:8931  balance */\n      dup3\n        /* \"staking.sol\":8913:8920  _amount */\n      dup6\n        /* \"staking.sol\":8913:8931  _amount == balance */\n      eq\n        /* \"staking.sol\":8910:9112  if(_amount == balance){... */\n      iszero\n      tag_269\n      jumpi\n        /* \"staking.sol\":8953:8966  level0Balance */\n      0x0d\n        /* \"staking.sol\":8953:8978  level0Balance[_msgSender] */\n      0x00\n        /* \"staking.sol\":8967:8977  _msgSender */\n      dup6\n        /* \"staking.sol\":8953:8978  level0Balance[_msgSender] */\n      0xffffffffffffffffffffffffffffffffffffffff\n      and\n      0xffffffffffffffffffffffffffffffffffffffff\n      and\n      dup2\n      mstore\n      0x20\n      add\n      swap1\n      dup2\n      mstore\n      0x20\n      add\n      0x00\n      keccak256\n      0x00\n        /* \"staking.sol\":8946:8978  delete level0Balance[_msgSender] */\n      dup1\n      dup3\n      add\n      0x00\n      swap1\n      sstore\n      0x01\n      dup3\n      add\n      0x00\n      swap1\n      sstore\n      0x02\n      dup3\n      add\n      0x00\n      swap1\n      sstore\n      pop\n      pop\n        /* \"staking.sol\":9021:9026  false */\n      0x00\n        /* \"staking.sol\":8998:9006  isLevel0 */\n      0x0c\n        /* \"staking.sol\":8998:9018  isLevel0[_msgSender] */\n      0x00\n        /* \"staking.sol\":9007:9017  _msgSender */\n      dup7\n        /* \"staking.sol\":8998:9018  isLevel0[_msgSender] */\n      0xffffffffffffffffffffffffffffffffffffffff\n      and\n      0xffffffffffffffffffffffffffffffffffffffff\n      and\n      dup2\n      mstore\n      0x20\n      add\n      swap1\n      dup2\n      mstore\n      0x20\n      add\n      0x00\n      keccak256\n      0x00\n        /* \"staking.sol\":8998:9026  isLevel0[_msgSender] = false */\n      0x0100\n      exp\n      dup2\n      sload\n      dup2\n      0xff\n      mul\n      not\n      and\n      swap1\n      dup4\n      iszero\n      iszero\n      mul\n      or\n      swap1\n      sstore\n      pop\n        /* \"staking.sol\":8910:9112  if(_amount == balance){... */\n      jump(tag_270)\n    tag_269:\n        /* \"staking.sol\":9094:9101  _amount */\n      dup5\n        /* \"staking.sol\":9057:9070  level0Balance */\n      0x0d\n        /* \"staking.sol\":9057:9082  level0Balance[_msgSender] */\n      0x00\n        /* \"staking.sol\":9071:9081  _msgSender */\n      dup7\n        /* \"staking.sol\":9057:9082  level0Balance[_msgSender] */\n      0xffffffffffffffffffffffffffffffffffffffff\n      and\n      0xffffffffffffffffffffffffffffffffffffffff\n      and\n      dup2\n      mstore\n      0x20\n      add\n      swap1\n      dup2\n      mstore\n      0x20\n      add\n      0x00\n      keccak256\n        /* \"staking.sol\":9057:9090  level0Balance[_msgSender].balance */\n      0x00\n      add\n      0x00\n        /* \"staking.sol\":9057:9101  level0Balance[_msgSender].balance -= _amount */\n      dup3\n      dup3\n      sload\n      tag_271\n      swap2\n      swap1\n      tag_215\n      jump\t// in\n    tag_271:\n      swap3\n      pop\n      pop\n      dup2\n      swap1\n      sstore\n      pop\n        /* \"staking.sol\":8910:9112  if(_amount == balance){... */\n    tag_270:\n        /* \"staking.sol\":9125:9134  _isOnTime */\n      dup2\n        /* \"staking.sol\":9122:9387  if(_isOnTime){... */\n      iszero\n      tag_272\n      jumpi\n        /* \"staking.sol\":9149:9162  acceptedToken */\n      0x01\n      0x00\n      swap1\n      sload\n      swap1\n      0x0100\n      exp\n      swap1\n      div\n      0xffffffffffffffffffffffffffffffffffffffff\n      and\n        /* \"staking.sol\":9149:9171  acceptedToken.transfer */\n      0xffffffffffffffffffffffffffffffffffffffff\n      and\n      0xa9059cbb\n        /* \"staking.sol\":9172:9182  _msgSender */\n      dup6\n        /* \"staking.sol\":9184:9191  _amount */\n      dup8\n        /* \"staking.sol\":9149:9192  acceptedToken.transfer(_msgSender, _amount) */\n      mload(0x40)\n      dup4\n      0xffffffff\n      and\n      0xe0\n      shl\n      dup2\n      mstore\n      0x04\n      add\n      tag_273\n      swap3\n      swap2\n      swap1\n      tag_218\n      jump\t// in\n    tag_273:\n      0x20\n      mload(0x40)\n      dup1\n      dup4\n      sub\n      dup2\n      0x00\n      dup8\n      dup1\n      extcodesize\n      iszero\n      dup1\n      iszero\n      tag_274\n      jumpi\n      0x00\n      dup1\n      revert\n    tag_274:\n      pop\n      gas\n      call\n      iszero\n      dup1\n      iszero\n      tag_276\n      jumpi\n      returndatasize\n      0x00\n      dup1\n      returndatacopy\n      revert(0x00, returndatasize)\n    tag_276:\n      pop\n      pop\n      pop\n      pop\n      mload(0x40)\n      returndatasize\n      not(0x1f)\n      0x1f\n      dup3\n      add\n      and\n      dup3\n      add\n      dup1\n      0x40\n      mstore\n      pop\n      dup2\n      add\n      swap1\n      tag_277\n      swap2\n      swap1\n      tag_186\n      jump\t// in\n    tag_277:\n      pop\n        /* \"staking.sol\":9220:9258  swapTokensForEth(earnings, _msgSender) */\n      tag_278\n        /* \"staking.sol\":9237:9245  earnings */\n      dup2\n        /* \"staking.sol\":9247:9257  _msgSender */\n      dup6\n        /* \"staking.sol\":9220:9236  swapTokensForEth */\n      tag_224\n        /* \"staking.sol\":9220:9258  swapTokensForEth(earnings, _msgSender) */\n      jump\t// in\n    tag_278:\n        /* \"staking.sol\":9122:9387  if(_isOnTime){... */\n      jump(tag_279)\n    tag_272:\n        /* \"staking.sol\":9300:9301  0 */\n      0x00\n        /* \"staking.sol\":9289:9301  earnings = 0 */\n      swap1\n      pop\n        /* \"staking.sol\":9322:9335  acceptedToken */\n      0x01\n      0x00\n      swap1\n      sload\n      swap1\n      0x0100\n      exp\n      swap1\n      div\n      0xffffffffffffffffffffffffffffffffffffffff\n      and\n        /* \"staking.sol\":9322:9344  acceptedToken.transfer */\n      0xffffffffffffffffffffffffffffffffffffffff\n      and\n      0xa9059cbb\n        /* \"staking.sol\":9345:9355  _msgSender */\n      dup6\n        /* \"staking.sol\":9357:9364  _amount */\n      dup8\n        /* \"staking.sol\":9322:9365  acceptedToken.transfer(_msgSender, _amount) */\n      mload(0x40)\n      dup4\n      0xffffffff\n      and\n      0xe0\n      shl\n      dup2\n      mstore\n      0x04\n      add\n      tag_280\n      swap3\n      swap2\n      swap1\n      tag_218\n      jump\t// in\n    tag_280:\n      0x20\n      mload(0x40)\n      dup1\n      dup4\n      sub\n      dup2\n      0x00\n      dup8\n      dup1\n      extcodesize\n      iszero\n      dup1\n      iszero\n      tag_281\n      jumpi\n      0x00\n      dup1\n      revert\n    tag_281:\n      pop\n      gas\n      call\n      iszero\n      dup1\n      iszero\n      tag_283\n      jumpi\n      returndatasize\n      0x00\n      dup1\n      returndatacopy\n      revert(0x00, returndatasize)\n    tag_283:\n      pop\n      pop\n      pop\n      pop\n      mload(0x40)\n      returndatasize\n      not(0x1f)\n      0x1f\n      dup3\n      add\n      and\n      dup3\n      add\n      dup1\n      0x40\n      mstore\n      pop\n      dup2\n      add\n      swap1\n      tag_284\n      swap2\n      swap1\n      tag_186\n      jump\t// in\n    tag_284:\n      pop\n        /* \"staking.sol\":9122:9387  if(_isOnTime){... */\n    tag_279:\n        /* \"staking.sol\":9406:9459  withdraw(_msgSender, 0, _isOnTime, _amount, earnings) */\n      0xa3dff5863d601223d9b31a0253b97a6c2085daca56089b92836b4b6a1991e04b\n        /* \"staking.sol\":9415:9425  _msgSender */\n      dup5\n        /* \"staking.sol\":9427:9428  0 */\n      0x00\n        /* \"staking.sol\":9430:9439  _isOnTime */\n      dup5\n        /* \"staking.sol\":9441:9448  _amount */\n      dup9\n        /* \"staking.sol\":9450:9458  earnings */\n      dup6\n        /* \"staking.sol\":9406:9459  withdraw(_msgSender, 0, _isOnTime, _amount, earnings) */\n      mload(0x40)\n      tag_285\n      swap6\n      swap5\n      swap4\n      swap3\n      swap2\n      swap1\n      tag_286\n      jump\t// in\n    tag_285:\n      mload(0x40)\n      dup1\n      swap2\n      sub\n      swap1\n      log1\n        /* \"staking.sol\":8545:9466  {... */\n      pop\n      pop\n      pop\n      pop\n        /* \"staking.sol\":8495:9466  function withdrawLevel0 (uint256 _amount) public  {... */\n      pop\n      jump\t// out\n        /* \"staking.sol\":2032:2076  mapping (address => _user) public vipBalance */\n    tag_131:\n      mstore(0x20, 0x11)\n      dup1\n      0x00\n      mstore\n      keccak256(0x00, 0x40)\n      0x00\n      swap2\n      pop\n      swap1\n      pop\n      dup1\n      0x00\n      add\n      sload\n      swap1\n      dup1\n      0x01\n      add\n      sload\n      swap1\n      dup1\n      0x02\n      add\n      sload\n      swap1\n      pop\n      dup4\n      jump\t// out\n        /* \"staking.sol\":9624:10579  function withdrawLevel1 (uint256 _amount) public  {... */\n    tag_135:\n        /* \"staking.sol\":9684:9702  address _msgSender */\n      0x00\n        /* \"staking.sol\":9705:9715  msg.sender */\n      caller\n        /* \"staking.sol\":9684:9715  address _msgSender = msg.sender */\n      swap1\n      pop\n        /* \"staking.sol\":9733:9741  isLevel1 */\n      0x0e\n        /* \"staking.sol\":9733:9753  isLevel1[_msgSender] */\n      0x00\n        /* \"staking.sol\":9742:9752  _msgSender */\n      dup3\n        /* \"staking.sol\":9733:9753  isLevel1[_msgSender] */\n      0xffffffffffffffffffffffffffffffffffffffff\n      and\n      0xffffffffffffffffffffffffffffffffffffffff\n      and\n      dup2\n      mstore\n      0x20\n      add\n      swap1\n      dup2\n      mstore\n      0x20\n      add\n      0x00\n      keccak256\n      0x00\n      swap1\n      sload\n      swap1\n      0x0100\n      exp\n      swap1\n      div\n      0xff\n      and\n        /* \"staking.sol\":9725:9780  require(isLevel1[_msgSender], \"User is not on Level 1\") */\n      tag_288\n      jumpi\n      mload(0x40)\n      0x08c379a000000000000000000000000000000000000000000000000000000000\n      dup2\n      mstore\n      0x04\n      add\n      tag_289\n      swap1\n      tag_290\n      jump\t// in\n    tag_289:\n      mload(0x40)\n      dup1\n      swap2\n      sub\n      swap1\n      revert\n    tag_288:\n        /* \"staking.sol\":9791:9806  uint256 balance */\n      0x00\n        /* \"staking.sol\":9809:9822  level1Balance */\n      0x0f\n        /* \"staking.sol\":9809:9834  level1Balance[_msgSender] */\n      0x00\n        /* \"staking.sol\":9823:9833  _msgSender */\n      dup4\n        /* \"staking.sol\":9809:9834  level1Balance[_msgSender] */\n      0xffffffffffffffffffffffffffffffffffffffff\n      and\n      0xffffffffffffffffffffffffffffffffffffffff\n      and\n      dup2\n      mstore\n      0x20\n      add\n      swap1\n      dup2\n      mstore\n      0x20\n      add\n      0x00\n      keccak256\n        /* \"staking.sol\":9809:9842  level1Balance[_msgSender].balance */\n      0x00\n      add\n      sload\n        /* \"staking.sol\":9791:9842  uint256 balance = level1Balance[_msgSender].balance */\n      swap1\n      pop\n        /* \"staking.sol\":9871:9878  _amount */\n      dup3\n        /* \"staking.sol\":9860:9867  balance */\n      dup2\n        /* \"staking.sol\":9860:9878  balance >= _amount */\n      lt\n      iszero\n        /* \"staking.sol\":9852:9913  require(balance >= _amount, \"Not enough balance to withdraw\") */\n      tag_291\n      jumpi\n      mload(0x40)\n      0x08c379a000000000000000000000000000000000000000000000000000000000\n      dup2\n      mstore\n      0x04\n      add\n      tag_292\n      swap1\n      tag_209\n      jump\t// in\n    tag_292:\n      mload(0x40)\n      dup1\n      swap2\n      sub\n      swap1\n      revert\n    tag_291:\n        /* \"staking.sol\":9924:9938  bool _isOnTime */\n      0x00\n        /* \"staking.sol\":9941:9964  isOnTime(_msgSender, 1) */\n      tag_293\n        /* \"staking.sol\":9950:9960  _msgSender */\n      dup4\n        /* \"staking.sol\":9962:9963  1 */\n      0x01\n        /* \"staking.sol\":9941:9949  isOnTime */\n      tag_162\n        /* \"staking.sol\":9941:9964  isOnTime(_msgSender, 1) */\n      jump\t// in\n    tag_293:\n        /* \"staking.sol\":9924:9964  bool _isOnTime = isOnTime(_msgSender, 1) */\n      swap1\n      pop\n        /* \"staking.sol\":9974:9990  uint256 earnings */\n      0x00\n        /* \"staking.sol\":9993:10028  getInterest(_msgSender, 1, _amount) */\n      tag_294\n        /* \"staking.sol\":10005:10015  _msgSender */\n      dup5\n        /* \"staking.sol\":10017:10018  1 */\n      0x01\n        /* \"staking.sol\":10020:10027  _amount */\n      dup8\n        /* \"staking.sol\":9993:10004  getInterest */\n      tag_96\n        /* \"staking.sol\":9993:10028  getInterest(_msgSender, 1, _amount) */\n      jump\t// in\n    tag_294:\n        /* \"staking.sol\":9974:10028  uint256 earnings = getInterest(_msgSender, 1, _amount) */\n      swap1\n      pop\n        /* \"staking.sol\":10053:10060  balance */\n      dup3\n        /* \"staking.sol\":10042:10049  _amount */\n      dup6\n        /* \"staking.sol\":10042:10060  _amount == balance */\n      eq\n        /* \"staking.sol\":10039:10241  if(_amount == balance){... */\n      iszero\n      tag_295\n      jumpi\n        /* \"staking.sol\":10082:10095  level1Balance */\n      0x0f\n        /* \"staking.sol\":10082:10107  level1Balance[_msgSender] */\n      0x00\n        /* \"staking.sol\":10096:10106  _msgSender */\n      dup6\n        /* \"staking.sol\":10082:10107  level1Balance[_msgSender] */\n      0xffffffffffffffffffffffffffffffffffffffff\n      and\n      0xffffffffffffffffffffffffffffffffffffffff\n      and\n      dup2\n      mstore\n      0x20\n      add\n      swap1\n      dup2\n      mstore\n      0x20\n      add\n      0x00\n      keccak256\n      0x00\n        /* \"staking.sol\":10075:10107  delete level1Balance[_msgSender] */\n      dup1\n      dup3\n      add\n      0x00\n      swap1\n      sstore\n      0x01\n      dup3\n      add\n      0x00\n      swap1\n      sstore\n      0x02\n      dup3\n      add\n      0x00\n      swap1\n      sstore\n      pop\n      pop\n        /* \"staking.sol\":10150:10155  false */\n      0x00\n        /* \"staking.sol\":10127:10135  isLevel1 */\n      0x0e\n        /* \"staking.sol\":10127:10147  isLevel1[_msgSender] */\n      0x00\n        /* \"staking.sol\":10136:10146  _msgSender */\n      dup7\n        /* \"staking.sol\":10127:10147  isLevel1[_msgSender] */\n      0xffffffffffffffffffffffffffffffffffffffff\n      and\n      0xffffffffffffffffffffffffffffffffffffffff\n      and\n      dup2\n      mstore\n      0x20\n      add\n      swap1\n      dup2\n      mstore\n      0x20\n      add\n      0x00\n      keccak256\n      0x00\n        /* \"staking.sol\":10127:10155  isLevel1[_msgSender] = false */\n      0x0100\n      exp\n      dup2\n      sload\n      dup2\n      0xff\n      mul\n      not\n      and\n      swap1\n      dup4\n      iszero\n      iszero\n      mul\n      or\n      swap1\n      sstore\n      pop\n        /* \"staking.sol\":10039:10241  if(_amount == balance){... */\n      jump(tag_296)\n    tag_295:\n        /* \"staking.sol\":10223:10230  _amount */\n      dup5\n        /* \"staking.sol\":10186:10199  level1Balance */\n      0x0f\n        /* \"staking.sol\":10186:10211  level1Balance[_msgSender] */\n      0x00\n        /* \"staking.sol\":10200:10210  _msgSender */\n      dup7\n        /* \"staking.sol\":10186:10211  level1Balance[_msgSender] */\n      0xffffffffffffffffffffffffffffffffffffffff\n      and\n      0xffffffffffffffffffffffffffffffffffffffff\n      and\n      dup2\n      mstore\n      0x20\n      add\n      swap1\n      dup2\n      mstore\n      0x20\n      add\n      0x00\n      keccak256\n        /* \"staking.sol\":10186:10219  level1Balance[_msgSender].balance */\n      0x00\n      add\n      0x00\n        /* \"staking.sol\":10186:10230  level1Balance[_msgSender].balance -= _amount */\n      dup3\n      dup3\n      sload\n      tag_297\n      swap2\n      swap1\n      tag_215\n      jump\t// in\n    tag_297:\n      swap3\n      pop\n      pop\n      dup2\n      swap1\n      sstore\n      pop\n        /* \"staking.sol\":10039:10241  if(_amount == balance){... */\n    tag_296:\n        /* \"staking.sol\":10254:10263  _isOnTime */\n      dup2\n        /* \"staking.sol\":10251:10504  if(_isOnTime){... */\n      iszero\n      tag_298\n      jumpi\n        /* \"staking.sol\":10278:10291  acceptedToken */\n      0x01\n      0x00\n      swap1\n      sload\n      swap1\n      0x0100\n      exp\n      swap1\n      div\n      0xffffffffffffffffffffffffffffffffffffffff\n      and\n        /* \"staking.sol\":10278:10300  acceptedToken.transfer */\n      0xffffffffffffffffffffffffffffffffffffffff\n      and\n      0xa9059cbb\n        /* \"staking.sol\":10301:10311  _msgSender */\n      dup6\n        /* \"staking.sol\":10313:10320  _amount */\n      dup8\n        /* \"staking.sol\":10278:10321  acceptedToken.transfer(_msgSender, _amount) */\n      mload(0x40)\n      dup4\n      0xffffffff\n      and\n      0xe0\n      shl\n      dup2\n      mstore\n      0x04\n      add\n      tag_299\n      swap3\n      swap2\n      swap1\n      tag_218\n      jump\t// in\n    tag_299:\n      0x20\n      mload(0x40)\n      dup1\n      dup4\n      sub\n      dup2\n      0x00\n      dup8\n      dup1\n      extcodesize\n      iszero\n      dup1\n      iszero\n      tag_300\n      jumpi\n      0x00\n      dup1\n      revert\n    tag_300:\n      pop\n      gas\n      call\n      iszero\n      dup1\n      iszero\n      tag_302\n      jumpi\n      returndatasize\n      0x00\n      dup1\n      returndatacopy\n      revert(0x00, returndatasize)\n    tag_302:\n      pop\n      pop\n      pop\n      pop\n      mload(0x40)\n      returndatasize\n      not(0x1f)\n      0x1f\n      dup3\n      add\n      and\n      dup3\n      add\n      dup1\n      0x40\n      mstore\n      pop\n      dup2\n      add\n      swap1\n      tag_303\n      swap2\n      swap1\n      tag_186\n      jump\t// in\n    tag_303:\n      pop\n        /* \"staking.sol\":10335:10373  swapTokensForEth(earnings, _msgSender) */\n      tag_304\n        /* \"staking.sol\":10352:10360  earnings */\n      dup2\n        /* \"staking.sol\":10362:10372  _msgSender */\n      dup6\n        /* \"staking.sol\":10335:10351  swapTokensForEth */\n      tag_224\n        /* \"staking.sol\":10335:10373  swapTokensForEth(earnings, _msgSender) */\n      jump\t// in\n    tag_304:\n        /* \"staking.sol\":10251:10504  if(_isOnTime){... */\n      jump(tag_305)\n    tag_298:\n        /* \"staking.sol\":10415:10416  0 */\n      0x00\n        /* \"staking.sol\":10404:10416  earnings = 0 */\n      swap1\n      pop\n        /* \"staking.sol\":10439:10452  acceptedToken */\n      0x01\n      0x00\n      swap1\n      sload\n      swap1\n      0x0100\n      exp\n      swap1\n      div\n      0xffffffffffffffffffffffffffffffffffffffff\n      and\n        /* \"staking.sol\":10439:10461  acceptedToken.transfer */\n      0xffffffffffffffffffffffffffffffffffffffff\n      and\n      0xa9059cbb\n        /* \"staking.sol\":10462:10472  _msgSender */\n      dup6\n        /* \"staking.sol\":10474:10481  _amount */\n      dup8\n        /* \"staking.sol\":10439:10482  acceptedToken.transfer(_msgSender, _amount) */\n      mload(0x40)\n      dup4\n      0xffffffff\n      and\n      0xe0\n      shl\n      dup2\n      mstore\n      0x04\n      add\n      tag_306\n      swap3\n      swap2\n      swap1\n      tag_218\n      jump\t// in\n    tag_306:\n      0x20\n      mload(0x40)\n      dup1\n      dup4\n      sub\n      dup2\n      0x00\n      dup8\n      dup1\n      extcodesize\n      iszero\n      dup1\n      iszero\n      tag_307\n      jumpi\n      0x00\n      dup1\n      revert\n    tag_307:\n      pop\n      gas\n      call\n      iszero\n      dup1\n      iszero\n      tag_309\n      jumpi\n      returndatasize\n      0x00\n      dup1\n      returndatacopy\n      revert(0x00, returndatasize)\n    tag_309:\n      pop\n      pop\n      pop\n      pop\n      mload(0x40)\n      returndatasize\n      not(0x1f)\n      0x1f\n      dup3\n      add\n      and\n      dup3\n      add\n      dup1\n      0x40\n      mstore\n      pop\n      dup2\n      add\n      swap1\n      tag_310\n      swap2\n      swap1\n      tag_186\n      jump\t// in\n    tag_310:\n      pop\n        /* \"staking.sol\":10251:10504  if(_isOnTime){... */\n    tag_305:\n        /* \"staking.sol\":10519:10572  withdraw(_msgSender, 1, _isOnTime, _amount, earnings) */\n      0xa3dff5863d601223d9b31a0253b97a6c2085daca56089b92836b4b6a1991e04b\n        /* \"staking.sol\":10528:10538  _msgSender */\n      dup5\n        /* \"staking.sol\":10540:10541  1 */\n      0x01\n        /* \"staking.sol\":10543:10552  _isOnTime */\n      dup5\n        /* \"staking.sol\":10554:10561  _amount */\n      dup9\n        /* \"staking.sol\":10563:10571  earnings */\n      dup6\n        /* \"staking.sol\":10519:10572  withdraw(_msgSender, 1, _isOnTime, _amount, earnings) */\n      mload(0x40)\n      tag_311\n      swap6\n      swap5\n      swap4\n      swap3\n      swap2\n      swap1\n      tag_312\n      jump\t// in\n    tag_311:\n      mload(0x40)\n      dup1\n      swap2\n      sub\n      swap1\n      log1\n        /* \"staking.sol\":9674:10579  {... */\n      pop\n      pop\n      pop\n      pop\n        /* \"staking.sol\":9624:10579  function withdrawLevel1 (uint256 _amount) public  {... */\n      pop\n      jump\t// out\n        /* \"staking.sol\":5754:6502  function enterVip (uint256 _amount) public whenNotPaused {... */\n    tag_138:\n        /* \"@openzeppelin/contracts/security/Pausable.sol\":1412:1420  paused() */\n      tag_314\n        /* \"@openzeppelin/contracts/security/Pausable.sol\":1412:1418  paused */\n      tag_70\n        /* \"@openzeppelin/contracts/security/Pausable.sol\":1412:1420  paused() */\n      jump\t// in\n    tag_314:\n        /* \"@openzeppelin/contracts/security/Pausable.sol\":1411:1420  !paused() */\n      iszero\n        /* \"@openzeppelin/contracts/security/Pausable.sol\":1403:1441  require(!paused(), \"Pausable: paused\") */\n      tag_315\n      jumpi\n      mload(0x40)\n      0x08c379a000000000000000000000000000000000000000000000000000000000\n      dup2\n      mstore\n      0x04\n      add\n      tag_316\n      swap1\n      tag_171\n      jump\t// in\n    tag_316:\n      mload(0x40)\n      dup1\n      swap2\n      sub\n      swap1\n      revert\n    tag_315:\n        /* \"staking.sol\":5840:5851  levelVipMax */\n      sload(0x0a)\n        /* \"staking.sol\":5829:5836  _amount */\n      dup2\n        /* \"staking.sol\":5829:5851  _amount <= levelVipMax */\n      gt\n      iszero\n        /* \"staking.sol\":5829:5877  _amount <= levelVipMax && _amount >= levelVipMin */\n      dup1\n      iszero\n      tag_318\n      jumpi\n      pop\n        /* \"staking.sol\":5866:5877  levelVipMin */\n      sload(0x09)\n        /* \"staking.sol\":5855:5862  _amount */\n      dup2\n        /* \"staking.sol\":5855:5877  _amount >= levelVipMin */\n      lt\n      iszero\n        /* \"staking.sol\":5829:5877  _amount <= levelVipMax && _amount >= levelVipMin */\n    tag_318:\n        /* \"staking.sol\":5821:5932  require(_amount <= levelVipMax && _amount >= levelVipMin, \"Amount needs to be more than min and less than max\") */\n      tag_319\n      jumpi\n      mload(0x40)\n      0x08c379a000000000000000000000000000000000000000000000000000000000\n      dup2\n      mstore\n      0x04\n      add\n      tag_320\n      swap1\n      tag_176\n      jump\t// in\n    tag_320:\n      mload(0x40)\n      dup1\n      swap2\n      sub\n      swap1\n      revert\n    tag_319:\n        /* \"staking.sol\":5942:5960  address _msgSender */\n      0x00\n        /* \"staking.sol\":5963:5973  msg.sender */\n      caller\n        /* \"staking.sol\":5942:5973  address _msgSender = msg.sender */\n      swap1\n      pop\n        /* \"staking.sol\":6005:6010  isVip */\n      0x10\n        /* \"staking.sol\":6005:6022  isVip[_msgSender] */\n      0x00\n        /* \"staking.sol\":6011:6021  _msgSender */\n      dup3\n        /* \"staking.sol\":6005:6022  isVip[_msgSender] */\n      0xffffffffffffffffffffffffffffffffffffffff\n      and\n      0xffffffffffffffffffffffffffffffffffffffff\n      and\n      dup2\n      mstore\n      0x20\n      add\n      swap1\n      dup2\n      mstore\n      0x20\n      add\n      0x00\n      keccak256\n      0x00\n      swap1\n      sload\n      swap1\n      0x0100\n      exp\n      swap1\n      div\n      0xff\n      and\n        /* \"staking.sol\":6004:6022  !isVip[_msgSender] */\n      iszero\n        /* \"staking.sol\":5996:6058  require(!isVip[_msgSender], \"You're already in the Vip Stake\") */\n      tag_321\n      jumpi\n      mload(0x40)\n      0x08c379a000000000000000000000000000000000000000000000000000000000\n      dup2\n      mstore\n      0x04\n      add\n      tag_322\n      swap1\n      tag_323\n      jump\t// in\n    tag_322:\n      mload(0x40)\n      dup1\n      swap2\n      sub\n      swap1\n      revert\n    tag_321:\n        /* \"staking.sol\":6077:6090  acceptedToken */\n      0x01\n      0x00\n      swap1\n      sload\n      swap1\n      0x0100\n      exp\n      swap1\n      div\n      0xffffffffffffffffffffffffffffffffffffffff\n      and\n        /* \"staking.sol\":6077:6103  acceptedToken.transferFrom */\n      0xffffffffffffffffffffffffffffffffffffffff\n      and\n      0x23b872dd\n        /* \"staking.sol\":6104:6114  _msgSender */\n      dup3\n        /* \"staking.sol\":6124:6128  this */\n      address\n        /* \"staking.sol\":6131:6138  _amount */\n      dup6\n        /* \"staking.sol\":6077:6139  acceptedToken.transferFrom(_msgSender, address(this), _amount) */\n      mload(0x40)\n      dup5\n      0xffffffff\n      and\n      0xe0\n      shl\n      dup2\n      mstore\n      0x04\n      add\n      tag_324\n      swap4\n      swap3\n      swap2\n      swap1\n      tag_181\n      jump\t// in\n    tag_324:\n      0x20\n      mload(0x40)\n      dup1\n      dup4\n      sub\n      dup2\n      0x00\n      dup8\n      dup1\n      extcodesize\n      iszero\n      dup1\n      iszero\n      tag_325\n      jumpi\n      0x00\n      dup1\n      revert\n    tag_325:\n      pop\n      gas\n      call\n      iszero\n      dup1\n      iszero\n      tag_327\n      jumpi\n      returndatasize\n      0x00\n      dup1\n      returndatacopy\n      revert(0x00, returndatasize)\n    tag_327:\n      pop\n      pop\n      pop\n      pop\n      mload(0x40)\n      returndatasize\n      not(0x1f)\n      0x1f\n      dup3\n      add\n      and\n      dup3\n      add\n      dup1\n      0x40\n      mstore\n      pop\n      dup2\n      add\n      swap1\n      tag_328\n      swap2\n      swap1\n      tag_186\n      jump\t// in\n    tag_328:\n      pop\n        /* \"staking.sol\":6170:6174  true */\n      0x01\n        /* \"staking.sol\":6150:6155  isVip */\n      0x10\n        /* \"staking.sol\":6150:6167  isVip[_msgSender] */\n      0x00\n        /* \"staking.sol\":6156:6166  _msgSender */\n      dup4\n        /* \"staking.sol\":6150:6167  isVip[_msgSender] */\n      0xffffffffffffffffffffffffffffffffffffffff\n      and\n      0xffffffffffffffffffffffffffffffffffffffff\n      and\n      dup2\n      mstore\n      0x20\n      add\n      swap1\n      dup2\n      mstore\n      0x20\n      add\n      0x00\n      keccak256\n      0x00\n        /* \"staking.sol\":6150:6174  isVip[_msgSender] = true */\n      0x0100\n      exp\n      dup2\n      sload\n      dup2\n      0xff\n      mul\n      not\n      and\n      swap1\n      dup4\n      iszero\n      iszero\n      mul\n      or\n      swap1\n      sstore\n      pop\n        /* \"staking.sol\":6209:6396  _user ({... */\n      mload(0x40)\n      dup1\n      0x60\n      add\n      0x40\n      mstore\n      dup1\n        /* \"staking.sol\":6238:6245  _amount */\n      dup4\n        /* \"staking.sol\":6209:6396  _user ({... */\n      dup2\n      mstore\n      0x20\n      add\n        /* \"staking.sol\":6271:6286  block.timestamp */\n      timestamp\n        /* \"staking.sol\":6209:6396  _user ({... */\n      dup2\n      mstore\n      0x20\n      add\n        /* \"staking.sol\":6381:6385  1200 */\n      0x04b0\n        /* \"staking.sol\":6363:6378  block.timestamp */\n      timestamp\n        /* \"staking.sol\":6363:6385  block.timestamp + 1200 */\n      tag_329\n      swap2\n      swap1\n      tag_188\n      jump\t// in\n    tag_329:\n        /* \"staking.sol\":6209:6396  _user ({... */\n      dup2\n      mstore\n      pop\n        /* \"staking.sol\":6184:6194  vipBalance */\n      0x11\n        /* \"staking.sol\":6184:6206  vipBalance[_msgSender] */\n      0x00\n        /* \"staking.sol\":6195:6205  _msgSender */\n      dup4\n        /* \"staking.sol\":6184:6206  vipBalance[_msgSender] */\n      0xffffffffffffffffffffffffffffffffffffffff\n      and\n      0xffffffffffffffffffffffffffffffffffffffff\n      and\n      dup2\n      mstore\n      0x20\n      add\n      swap1\n      dup2\n      mstore\n      0x20\n      add\n      0x00\n      keccak256\n        /* \"staking.sol\":6184:6396  vipBalance[_msgSender] = _user ({... */\n      0x00\n      dup3\n      add\n      mload\n      dup2\n      0x00\n      add\n      sstore\n      0x20\n      dup3\n      add\n      mload\n      dup2\n      0x01\n      add\n      sstore\n      0x40\n      dup3\n      add\n      mload\n      dup2\n      0x02\n      add\n      sstore\n      swap1\n      pop\n      pop\n        /* \"staking.sol\":6419:6495  deposit (_msgSender, 2, _amount, block.timestamp, block.timestamp + 90 days) */\n      0x17849bb8c713de96b48f218d3bacc9af082261c3ccc7c6dccebe70e667b22f23\n        /* \"staking.sol\":6428:6438  _msgSender */\n      dup2\n        /* \"staking.sol\":6440:6441  2 */\n      0x02\n        /* \"staking.sol\":6443:6450  _amount */\n      dup5\n        /* \"staking.sol\":6452:6467  block.timestamp */\n      timestamp\n        /* \"staking.sol\":6487:6494  90 days */\n      0x76a700\n        /* \"staking.sol\":6469:6484  block.timestamp */\n      timestamp\n        /* \"staking.sol\":6469:6494  block.timestamp + 90 days */\n      tag_330\n      swap2\n      swap1\n      tag_188\n      jump\t// in\n    tag_330:\n        /* \"staking.sol\":6419:6495  deposit (_msgSender, 2, _amount, block.timestamp, block.timestamp + 90 days) */\n      mload(0x40)\n      tag_331\n      swap6\n      swap5\n      swap4\n      swap3\n      swap2\n      swap1\n      tag_332\n      jump\t// in\n    tag_331:\n      mload(0x40)\n      dup1\n      swap2\n      sub\n      swap1\n      log1\n        /* \"staking.sol\":5811:6502  {... */\n      pop\n        /* \"staking.sol\":5754:6502  function enterVip (uint256 _amount) public whenNotPaused {... */\n      pop\n      jump\t// out\n        /* \"staking.sol\":1522:1567  uint256 public level1Max = 500000000 * 10**18 */\n    tag_140:\n      sload(0x08)\n      dup2\n      jump\t// out\n        /* \"staking.sol\":1701:1729  address public reserveWallet */\n    tag_143:\n      0x0b\n      0x00\n      swap1\n      sload\n      swap1\n      0x0100\n      exp\n      swap1\n      div\n      0xffffffffffffffffffffffffffffffffffffffff\n      and\n      dup2\n      jump\t// out\n        /* \"staking.sol\":2910:3029  function setReserveWallet (address _reserveWallet) external onlyOwner{... */\n    tag_147:\n        /* \"@openzeppelin/contracts/access/Ownable.sol\":1259:1271  _msgSender() */\n      tag_334\n        /* \"@openzeppelin/contracts/access/Ownable.sol\":1259:1269  _msgSender */\n      tag_194\n        /* \"@openzeppelin/contracts/access/Ownable.sol\":1259:1271  _msgSender() */\n      jump\t// in\n    tag_334:\n        /* \"@openzeppelin/contracts/access/Ownable.sol\":1248:1271  owner() == _msgSender() */\n      0xffffffffffffffffffffffffffffffffffffffff\n      and\n        /* \"@openzeppelin/contracts/access/Ownable.sol\":1248:1255  owner() */\n      tag_335\n        /* \"@openzeppelin/contracts/access/Ownable.sol\":1248:1253  owner */\n      tag_117\n        /* \"@openzeppelin/contracts/access/Ownable.sol\":1248:1255  owner() */\n      jump\t// in\n    tag_335:\n        /* \"@openzeppelin/contracts/access/Ownable.sol\":1248:1271  owner() == _msgSender() */\n      0xffffffffffffffffffffffffffffffffffffffff\n      and\n      eq\n        /* \"@openzeppelin/contracts/access/Ownable.sol\":1240:1308  require(owner() == _msgSender(), \"Ownable: caller is not the owner\") */\n      tag_336\n      jumpi\n      mload(0x40)\n      0x08c379a000000000000000000000000000000000000000000000000000000000\n      dup2\n      mstore\n      0x04\n      add\n      tag_337\n      swap1\n      tag_198\n      jump\t// in\n    tag_337:\n      mload(0x40)\n      dup1\n      swap2\n      sub\n      swap1\n      revert\n    tag_336:\n        /* \"staking.sol\":3005:3019  _reserveWallet */\n      dup1\n        /* \"staking.sol\":2989:3002  reserveWallet */\n      0x0b\n      0x00\n        /* \"staking.sol\":2989:3019  reserveWallet = _reserveWallet */\n      0x0100\n      exp\n      dup2\n      sload\n      dup2\n      0xffffffffffffffffffffffffffffffffffffffff\n      mul\n      not\n      and\n      swap1\n      dup4\n      0xffffffffffffffffffffffffffffffffffffffff\n      and\n      mul\n      or\n      swap1\n      sstore\n      pop\n        /* \"staking.sol\":2910:3029  function setReserveWallet (address _reserveWallet) external onlyOwner{... */\n      pop\n      jump\t// out\n        /* \"staking.sol\":3096:3304  function setNewAPY ( uint256 _level0APY, uint256 _level1APY, uint256 _vipLevelAPY) external onlyOwner{... */\n    tag_151:\n        /* \"@openzeppelin/contracts/access/Ownable.sol\":1259:1271  _msgSender() */\n      tag_340\n        /* \"@openzeppelin/contracts/access/Ownable.sol\":1259:1269  _msgSender */\n      tag_194\n        /* \"@openzeppelin/contracts/access/Ownable.sol\":1259:1271  _msgSender() */\n      jump\t// in\n    tag_340:\n        /* \"@openzeppelin/contracts/access/Ownable.sol\":1248:1271  owner() == _msgSender() */\n      0xffffffffffffffffffffffffffffffffffffffff\n      and\n        /* \"@openzeppelin/contracts/access/Ownable.sol\":1248:1255  owner() */\n      tag_341\n        /* \"@openzeppelin/contracts/access/Ownable.sol\":1248:1253  owner */\n      tag_117\n        /* \"@openzeppelin/contracts/access/Ownable.sol\":1248:1255  owner() */\n      jump\t// in\n    tag_341:\n        /* \"@openzeppelin/contracts/access/Ownable.sol\":1248:1271  owner() == _msgSender() */\n      0xffffffffffffffffffffffffffffffffffffffff\n      and\n      eq\n        /* \"@openzeppelin/contracts/access/Ownable.sol\":1240:1308  require(owner() == _msgSender(), \"Ownable: caller is not the owner\") */\n      tag_342\n      jumpi\n      mload(0x40)\n      0x08c379a000000000000000000000000000000000000000000000000000000000\n      dup2\n      mstore\n      0x04\n      add\n      tag_343\n      swap1\n      tag_198\n      jump\t// in\n    tag_343:\n      mload(0x40)\n      dup1\n      swap2\n      sub\n      swap1\n      revert\n    tag_342:\n        /* \"staking.sol\":3219:3229  _level0APY */\n      dup3\n        /* \"staking.sol\":3207:3216  level0APY */\n      0x02\n        /* \"staking.sol\":3207:3229  level0APY = _level0APY */\n      dup2\n      swap1\n      sstore\n      pop\n        /* \"staking.sol\":3251:3261  _level1APY */\n      dup2\n        /* \"staking.sol\":3239:3248  level1APY */\n      0x03\n        /* \"staking.sol\":3239:3261  level1APY = _level1APY */\n      dup2\n      swap1\n      sstore\n      pop\n        /* \"staking.sol\":3285:3297  _vipLevelAPY */\n      dup1\n        /* \"staking.sol\":3271:3282  vipLevelAPY */\n      0x04\n        /* \"staking.sol\":3271:3297  vipLevelAPY = _vipLevelAPY */\n      dup2\n      swap1\n      sstore\n      pop\n        /* \"staking.sol\":3096:3304  function setNewAPY ( uint256 _level0APY, uint256 _level1APY, uint256 _vipLevelAPY) external onlyOwner{... */\n      pop\n      pop\n      pop\n      jump\t// out\n        /* \"@openzeppelin/contracts/access/Ownable.sol\":1918:2116  function transferOwnership(address newOwner) public virtual onlyOwner {... */\n    tag_154:\n        /* \"@openzeppelin/contracts/access/Ownable.sol\":1259:1271  _msgSender() */\n      tag_346\n        /* \"@openzeppelin/contracts/access/Ownable.sol\":1259:1269  _msgSender */\n      tag_194\n        /* \"@openzeppelin/contracts/access/Ownable.sol\":1259:1271  _msgSender() */\n      jump\t// in\n    tag_346:\n        /* \"@openzeppelin/contracts/access/Ownable.sol\":1248:1271  owner() == _msgSender() */\n      0xffffffffffffffffffffffffffffffffffffffff\n      and\n        /* \"@openzeppelin/contracts/access/Ownable.sol\":1248:1255  owner() */\n      tag_347\n        /* \"@openzeppelin/contracts/access/Ownable.sol\":1248:1253  owner */\n      tag_117\n        /* \"@openzeppelin/contracts/access/Ownable.sol\":1248:1255  owner() */\n      jump\t// in\n    tag_347:\n        /* \"@openzeppelin/contracts/access/Ownable.sol\":1248:1271  owner() == _msgSender() */\n      0xffffffffffffffffffffffffffffffffffffffff\n      and\n      eq\n        /* \"@openzeppelin/contracts/access/Ownable.sol\":1240:1308  require(owner() == _msgSender(), \"Ownable: caller is not the owner\") */\n      tag_348\n      jumpi\n      mload(0x40)\n      0x08c379a000000000000000000000000000000000000000000000000000000000\n      dup2\n      mstore\n      0x04\n      add\n      tag_349\n      swap1\n      tag_198\n      jump\t// in\n    tag_349:\n      mload(0x40)\n      dup1\n      swap2\n      sub\n      swap1\n      revert\n    tag_348:\n        /* \"@openzeppelin/contracts/access/Ownable.sol\":2026:2027  0 */\n      0x00\n        /* \"@openzeppelin/contracts/access/Ownable.sol\":2006:2028  newOwner != address(0) */\n      0xffffffffffffffffffffffffffffffffffffffff\n      and\n        /* \"@openzeppelin/contracts/access/Ownable.sol\":2006:2014  newOwner */\n      dup2\n        /* \"@openzeppelin/contracts/access/Ownable.sol\":2006:2028  newOwner != address(0) */\n      0xffffffffffffffffffffffffffffffffffffffff\n      and\n      eq\n      iszero\n        /* \"@openzeppelin/contracts/access/Ownable.sol\":1998:2071  require(newOwner != address(0), \"Ownable: new owner is the zero address\") */\n      tag_351\n      jumpi\n      mload(0x40)\n      0x08c379a000000000000000000000000000000000000000000000000000000000\n      dup2\n      mstore\n      0x04\n      add\n      tag_352\n      swap1\n      tag_353\n      jump\t// in\n    tag_352:\n      mload(0x40)\n      dup1\n      swap2\n      sub\n      swap1\n      revert\n    tag_351:\n        /* \"@openzeppelin/contracts/access/Ownable.sol\":2081:2109  _transferOwnership(newOwner) */\n      tag_354\n        /* \"@openzeppelin/contracts/access/Ownable.sol\":2100:2108  newOwner */\n      dup2\n        /* \"@openzeppelin/contracts/access/Ownable.sol\":2081:2099  _transferOwnership */\n      tag_251\n        /* \"@openzeppelin/contracts/access/Ownable.sol\":2081:2109  _transferOwnership(newOwner) */\n      jump\t// in\n    tag_354:\n        /* \"@openzeppelin/contracts/access/Ownable.sol\":1918:2116  function transferOwnership(address newOwner) public virtual onlyOwner {... */\n      pop\n      jump\t// out\n        /* \"staking.sol\":3386:3758  function setNewMaxMin (uint256 _level0Min, uint256 _level0Max, uint256 _level1Min, uint256 _level1Max, uint256 _levelVipMin, uint256 _levelVipMax) external onlyOwner{... */\n    tag_158:\n        /* \"@openzeppelin/contracts/access/Ownable.sol\":1259:1271  _msgSender() */\n      tag_356\n        /* \"@openzeppelin/contracts/access/Ownable.sol\":1259:1269  _msgSender */\n      tag_194\n        /* \"@openzeppelin/contracts/access/Ownable.sol\":1259:1271  _msgSender() */\n      jump\t// in\n    tag_356:\n        /* \"@openzeppelin/contracts/access/Ownable.sol\":1248:1271  owner() == _msgSender() */\n      0xffffffffffffffffffffffffffffffffffffffff\n      and\n        /* \"@openzeppelin/contracts/access/Ownable.sol\":1248:1255  owner() */\n      tag_357\n        /* \"@openzeppelin/contracts/access/Ownable.sol\":1248:1253  owner */\n      tag_117\n        /* \"@openzeppelin/contracts/access/Ownable.sol\":1248:1255  owner() */\n      jump\t// in\n    tag_357:\n        /* \"@openzeppelin/contracts/access/Ownable.sol\":1248:1271  owner() == _msgSender() */\n      0xffffffffffffffffffffffffffffffffffffffff\n      and\n      eq\n        /* \"@openzeppelin/contracts/access/Ownable.sol\":1240:1308  require(owner() == _msgSender(), \"Ownable: caller is not the owner\") */\n      tag_358\n      jumpi\n      mload(0x40)\n      0x08c379a000000000000000000000000000000000000000000000000000000000\n      dup2\n      mstore\n      0x04\n      add\n      tag_359\n      swap1\n      tag_198\n      jump\t// in\n    tag_359:\n      mload(0x40)\n      dup1\n      swap2\n      sub\n      swap1\n      revert\n    tag_358:\n        /* \"staking.sol\":3573:3583  _level0Min */\n      dup6\n        /* \"staking.sol\":3561:3570  level0Min */\n      0x05\n        /* \"staking.sol\":3561:3583  level0Min = _level0Min */\n      dup2\n      swap1\n      sstore\n      pop\n        /* \"staking.sol\":3605:3615  _level0Max */\n      dup5\n        /* \"staking.sol\":3593:3602  level0Max */\n      0x06\n        /* \"staking.sol\":3593:3615  level0Max = _level0Max */\n      dup2\n      swap1\n      sstore\n      pop\n        /* \"staking.sol\":3637:3647  _level1Min */\n      dup4\n        /* \"staking.sol\":3625:3634  level1Min */\n      0x07\n        /* \"staking.sol\":3625:3647  level1Min = _level1Min */\n      dup2\n      swap1\n      sstore\n      pop\n        /* \"staking.sol\":3669:3679  _level1Max */\n      dup3\n        /* \"staking.sol\":3657:3666  level1Max */\n      0x08\n        /* \"staking.sol\":3657:3679  level1Max = _level1Max */\n      dup2\n      swap1\n      sstore\n      pop\n        /* \"staking.sol\":3703:3715  _levelVipMin */\n      dup2\n        /* \"staking.sol\":3689:3700  levelVipMin */\n      0x09\n        /* \"staking.sol\":3689:3715  levelVipMin = _levelVipMin */\n      dup2\n      swap1\n      sstore\n      pop\n        /* \"staking.sol\":3739:3751  _levelVipMax */\n      dup1\n        /* \"staking.sol\":3725:3736  levelVipMax */\n      0x0a\n        /* \"staking.sol\":3725:3751  levelVipMax = _levelVipMax */\n      dup2\n      swap1\n      sstore\n      pop\n        /* \"staking.sol\":3386:3758  function setNewMaxMin (uint256 _level0Min, uint256 _level0Max, uint256 _level1Min, uint256 _level1Max, uint256 _levelVipMin, uint256 _levelVipMax) external onlyOwner{... */\n      pop\n      pop\n      pop\n      pop\n      pop\n      pop\n      jump\t// out\n        /* \"staking.sol\":6647:7146  function isOnTime (address user, uint8 class) public view returns (bool) {... */\n    tag_162:\n        /* \"staking.sol\":6714:6718  bool */\n      0x00\n        /* \"staking.sol\":6730:6749  uint256 releaseTime */\n      dup1\n        /* \"staking.sol\":6771:6772  0 */\n      0x00\n        /* \"staking.sol\":6762:6767  class */\n      dup4\n        /* \"staking.sol\":6762:6772  class == 0 */\n      0xff\n      and\n      eq\n        /* \"staking.sol\":6759:7093  if(class == 0){... */\n      iszero\n      tag_362\n      jumpi\n        /* \"staking.sol\":6801:6814  level0Balance */\n      0x0d\n        /* \"staking.sol\":6801:6820  level0Balance[user] */\n      0x00\n        /* \"staking.sol\":6815:6819  user */\n      dup6\n        /* \"staking.sol\":6801:6820  level0Balance[user] */\n      0xffffffffffffffffffffffffffffffffffffffff\n      and\n      0xffffffffffffffffffffffffffffffffffffffff\n      and\n      dup2\n      mstore\n      0x20\n      add\n      swap1\n      dup2\n      mstore\n      0x20\n      add\n      0x00\n      keccak256\n        /* \"staking.sol\":6801:6831  level0Balance[user].timeFinish */\n      0x02\n      add\n      sload\n        /* \"staking.sol\":6787:6831  releaseTime = level0Balance[user].timeFinish */\n      swap1\n      pop\n        /* \"staking.sol\":6759:7093  if(class == 0){... */\n      jump(tag_363)\n    tag_362:\n        /* \"staking.sol\":6872:6873  1 */\n      0x01\n        /* \"staking.sol\":6863:6868  class */\n      dup4\n        /* \"staking.sol\":6863:6873  class == 1 */\n      0xff\n      and\n      eq\n        /* \"staking.sol\":6859:7093  if (class == 1){... */\n      iszero\n      tag_364\n      jumpi\n        /* \"staking.sol\":6902:6915  level1Balance */\n      0x0f\n        /* \"staking.sol\":6902:6921  level1Balance[user] */\n      0x00\n        /* \"staking.sol\":6916:6920  user */\n      dup6\n        /* \"staking.sol\":6902:6921  level1Balance[user] */\n      0xffffffffffffffffffffffffffffffffffffffff\n      and\n      0xffffffffffffffffffffffffffffffffffffffff\n      and\n      dup2\n      mstore\n      0x20\n      add\n      swap1\n      dup2\n      mstore\n      0x20\n      add\n      0x00\n      keccak256\n        /* \"staking.sol\":6902:6932  level1Balance[user].timeFinish */\n      0x02\n      add\n      sload\n        /* \"staking.sol\":6888:6932  releaseTime = level1Balance[user].timeFinish */\n      swap1\n      pop\n        /* \"staking.sol\":6859:7093  if (class == 1){... */\n      jump(tag_365)\n    tag_364:\n        /* \"staking.sol\":6971:6972  2 */\n      0x02\n        /* \"staking.sol\":6962:6967  class */\n      dup4\n        /* \"staking.sol\":6962:6972  class == 2 */\n      0xff\n      and\n      eq\n        /* \"staking.sol\":6958:7093  if (class == 2){... */\n      iszero\n      tag_366\n      jumpi\n        /* \"staking.sol\":7001:7011  vipBalance */\n      0x11\n        /* \"staking.sol\":7001:7017  vipBalance[user] */\n      0x00\n        /* \"staking.sol\":7012:7016  user */\n      dup6\n        /* \"staking.sol\":7001:7017  vipBalance[user] */\n      0xffffffffffffffffffffffffffffffffffffffff\n      and\n      0xffffffffffffffffffffffffffffffffffffffff\n      and\n      dup2\n      mstore\n      0x20\n      add\n      swap1\n      dup2\n      mstore\n      0x20\n      add\n      0x00\n      keccak256\n        /* \"staking.sol\":7001:7028  vipBalance[user].timeFinish */\n      0x02\n      add\n      sload\n        /* \"staking.sol\":6987:7028  releaseTime = vipBalance[user].timeFinish */\n      swap1\n      pop\n        /* \"staking.sol\":6958:7093  if (class == 2){... */\n      jump(tag_367)\n    tag_366:\n        /* \"staking.sol\":7077:7082  false */\n      0x00\n        /* \"staking.sol\":7070:7082  return false */\n      swap2\n      pop\n      pop\n      jump(tag_361)\n        /* \"staking.sol\":6958:7093  if (class == 2){... */\n    tag_367:\n        /* \"staking.sol\":6859:7093  if (class == 1){... */\n    tag_365:\n        /* \"staking.sol\":6759:7093  if(class == 0){... */\n    tag_363:\n        /* \"staking.sol\":7128:7139  releaseTime */\n      dup1\n        /* \"staking.sol\":7109:7124  block.timestamp */\n      timestamp\n        /* \"staking.sol\":7109:7139  block.timestamp >= releaseTime */\n      lt\n      iszero\n        /* \"staking.sol\":7102:7139  return block.timestamp >= releaseTime */\n      swap2\n      pop\n      pop\n        /* \"staking.sol\":6647:7146  function isOnTime (address user, uint8 class) public view returns (bool) {... */\n    tag_361:\n      swap3\n      swap2\n      pop\n      pop\n      jump\t// out\n        /* \"staking.sol\":3907:4657  function enterLevel0 (uint256 _amount) public whenNotPaused {... */\n    tag_166:\n        /* \"@openzeppelin/contracts/security/Pausable.sol\":1412:1420  paused() */\n      tag_369\n        /* \"@openzeppelin/contracts/security/Pausable.sol\":1412:1418  paused */\n      tag_70\n        /* \"@openzeppelin/contracts/security/Pausable.sol\":1412:1420  paused() */\n      jump\t// in\n    tag_369:\n        /* \"@openzeppelin/contracts/security/Pausable.sol\":1411:1420  !paused() */\n      iszero\n        /* \"@openzeppelin/contracts/security/Pausable.sol\":1403:1441  require(!paused(), \"Pausable: paused\") */\n      tag_370\n      jumpi\n      mload(0x40)\n      0x08c379a000000000000000000000000000000000000000000000000000000000\n      dup2\n      mstore\n      0x04\n      add\n      tag_371\n      swap1\n      tag_171\n      jump\t// in\n    tag_371:\n      mload(0x40)\n      dup1\n      swap2\n      sub\n      swap1\n      revert\n    tag_370:\n        /* \"staking.sol\":3996:4005  level0Max */\n      sload(0x06)\n        /* \"staking.sol\":3985:3992  _amount */\n      dup2\n        /* \"staking.sol\":3985:4005  _amount <= level0Max */\n      gt\n      iszero\n        /* \"staking.sol\":3985:4029  _amount <= level0Max && _amount >= level0Min */\n      dup1\n      iszero\n      tag_373\n      jumpi\n      pop\n        /* \"staking.sol\":4020:4029  level0Min */\n      sload(0x05)\n        /* \"staking.sol\":4009:4016  _amount */\n      dup2\n        /* \"staking.sol\":4009:4029  _amount >= level0Min */\n      lt\n      iszero\n        /* \"staking.sol\":3985:4029  _amount <= level0Max && _amount >= level0Min */\n    tag_373:\n        /* \"staking.sol\":3977:4084  require(_amount <= level0Max && _amount >= level0Min, \"Amount needs to be more than min and less than max\") */\n      tag_374\n      jumpi\n      mload(0x40)\n      0x08c379a000000000000000000000000000000000000000000000000000000000\n      dup2\n      mstore\n      0x04\n      add\n      tag_375\n      swap1\n      tag_176\n      jump\t// in\n    tag_375:\n      mload(0x40)\n      dup1\n      swap2\n      sub\n      swap1\n      revert\n    tag_374:\n        /* \"staking.sol\":4094:4112  address _msgSender */\n      0x00\n        /* \"staking.sol\":4115:4125  msg.sender */\n      caller\n        /* \"staking.sol\":4094:4125  address _msgSender = msg.sender */\n      swap1\n      pop\n        /* \"staking.sol\":4149:4157  isLevel0 */\n      0x0c\n        /* \"staking.sol\":4149:4169  isLevel0[_msgSender] */\n      0x00\n        /* \"staking.sol\":4158:4168  _msgSender */\n      dup3\n        /* \"staking.sol\":4149:4169  isLevel0[_msgSender] */\n      0xffffffffffffffffffffffffffffffffffffffff\n      and\n      0xffffffffffffffffffffffffffffffffffffffff\n      and\n      dup2\n      mstore\n      0x20\n      add\n      swap1\n      dup2\n      mstore\n      0x20\n      add\n      0x00\n      keccak256\n      0x00\n      swap1\n      sload\n      swap1\n      0x0100\n      exp\n      swap1\n      div\n      0xff\n      and\n        /* \"staking.sol\":4148:4169  !isLevel0[_msgSender] */\n      iszero\n        /* \"staking.sol\":4140:4208  require(!isLevel0[_msgSender], \"You're already in this Stake level\") */\n      tag_376\n      jumpi\n      mload(0x40)\n      0x08c379a000000000000000000000000000000000000000000000000000000000\n      dup2\n      mstore\n      0x04\n      add\n      tag_377\n      swap1\n      tag_179\n      jump\t// in\n    tag_377:\n      mload(0x40)\n      dup1\n      swap2\n      sub\n      swap1\n      revert\n    tag_376:\n        /* \"staking.sol\":4223:4236  acceptedToken */\n      0x01\n      0x00\n      swap1\n      sload\n      swap1\n      0x0100\n      exp\n      swap1\n      div\n      0xffffffffffffffffffffffffffffffffffffffff\n      and\n        /* \"staking.sol\":4223:4249  acceptedToken.transferFrom */\n      0xffffffffffffffffffffffffffffffffffffffff\n      and\n      0x23b872dd\n        /* \"staking.sol\":4250:4260  _msgSender */\n      dup3\n        /* \"staking.sol\":4270:4274  this */\n      address\n        /* \"staking.sol\":4277:4284  _amount */\n      dup6\n        /* \"staking.sol\":4223:4285  acceptedToken.transferFrom(_msgSender, address(this), _amount) */\n      mload(0x40)\n      dup5\n      0xffffffff\n      and\n      0xe0\n      shl\n      dup2\n      mstore\n      0x04\n      add\n      tag_378\n      swap4\n      swap3\n      swap2\n      swap1\n      tag_181\n      jump\t// in\n    tag_378:\n      0x20\n      mload(0x40)\n      dup1\n      dup4\n      sub\n      dup2\n      0x00\n      dup8\n      dup1\n      extcodesize\n      iszero\n      dup1\n      iszero\n      tag_379\n      jumpi\n      0x00\n      dup1\n      revert\n    tag_379:\n      pop\n      gas\n      call\n      iszero\n      dup1\n      iszero\n      tag_381\n      jumpi\n      returndatasize\n      0x00\n      dup1\n      returndatacopy\n      revert(0x00, returndatasize)\n    tag_381:\n      pop\n      pop\n      pop\n      pop\n      mload(0x40)\n      returndatasize\n      not(0x1f)\n      0x1f\n      dup3\n      add\n      and\n      dup3\n      add\n      dup1\n      0x40\n      mstore\n      pop\n      dup2\n      add\n      swap1\n      tag_382\n      swap2\n      swap1\n      tag_186\n      jump\t// in\n    tag_382:\n      pop\n        /* \"staking.sol\":4319:4323  true */\n      0x01\n        /* \"staking.sol\":4296:4304  isLevel0 */\n      0x0c\n        /* \"staking.sol\":4296:4316  isLevel0[_msgSender] */\n      0x00\n        /* \"staking.sol\":4305:4315  _msgSender */\n      dup4\n        /* \"staking.sol\":4296:4316  isLevel0[_msgSender] */\n      0xffffffffffffffffffffffffffffffffffffffff\n      and\n      0xffffffffffffffffffffffffffffffffffffffff\n      and\n      dup2\n      mstore\n      0x20\n      add\n      swap1\n      dup2\n      mstore\n      0x20\n      add\n      0x00\n      keccak256\n      0x00\n        /* \"staking.sol\":4296:4323  isLevel0[_msgSender] = true */\n      0x0100\n      exp\n      dup2\n      sload\n      dup2\n      0xff\n      mul\n      not\n      and\n      swap1\n      dup4\n      iszero\n      iszero\n      mul\n      or\n      swap1\n      sstore\n      pop\n        /* \"staking.sol\":4361:4550  _user ({... */\n      mload(0x40)\n      dup1\n      0x60\n      add\n      0x40\n      mstore\n      dup1\n        /* \"staking.sol\":4391:4398  _amount */\n      dup4\n        /* \"staking.sol\":4361:4550  _user ({... */\n      dup2\n      mstore\n      0x20\n      add\n        /* \"staking.sol\":4425:4440  block.timestamp */\n      timestamp\n        /* \"staking.sol\":4361:4550  _user ({... */\n      dup2\n      mstore\n      0x20\n      add\n        /* \"staking.sol\":4536:4539  600 */\n      0x0258\n        /* \"staking.sol\":4518:4533  block.timestamp */\n      timestamp\n        /* \"staking.sol\":4518:4539  block.timestamp + 600 */\n      tag_383\n      swap2\n      swap1\n      tag_188\n      jump\t// in\n    tag_383:\n        /* \"staking.sol\":4361:4550  _user ({... */\n      dup2\n      mstore\n      pop\n        /* \"staking.sol\":4333:4346  level0Balance */\n      0x0d\n        /* \"staking.sol\":4333:4358  level0Balance[_msgSender] */\n      0x00\n        /* \"staking.sol\":4347:4357  _msgSender */\n      dup4\n        /* \"staking.sol\":4333:4358  level0Balance[_msgSender] */\n      0xffffffffffffffffffffffffffffffffffffffff\n      and\n      0xffffffffffffffffffffffffffffffffffffffff\n      and\n      dup2\n      mstore\n      0x20\n      add\n      swap1\n      dup2\n      mstore\n      0x20\n      add\n      0x00\n      keccak256\n        /* \"staking.sol\":4333:4550  level0Balance[_msgSender] = _user ({... */\n      0x00\n      dup3\n      add\n      mload\n      dup2\n      0x00\n      add\n      sstore\n      0x20\n      dup3\n      add\n      mload\n      dup2\n      0x01\n      add\n      sstore\n      0x40\n      dup3\n      add\n      mload\n      dup2\n      0x02\n      add\n      sstore\n      swap1\n      pop\n      pop\n        /* \"staking.sol\":4575:4650  deposit (_msgSender, 0, _amount, block.timestamp, block.timestamp + 7 days) */\n      0x17849bb8c713de96b48f218d3bacc9af082261c3ccc7c6dccebe70e667b22f23\n        /* \"staking.sol\":4584:4594  _msgSender */\n      dup2\n        /* \"staking.sol\":4596:4597  0 */\n      0x00\n        /* \"staking.sol\":4599:4606  _amount */\n      dup5\n        /* \"staking.sol\":4608:4623  block.timestamp */\n      timestamp\n        /* \"staking.sol\":4643:4649  7 days */\n      0x093a80\n        /* \"staking.sol\":4625:4640  block.timestamp */\n      timestamp\n        /* \"staking.sol\":4625:4649  block.timestamp + 7 days */\n      tag_384\n      swap2\n      swap1\n      tag_188\n      jump\t// in\n    tag_384:\n        /* \"staking.sol\":4575:4650  deposit (_msgSender, 0, _amount, block.timestamp, block.timestamp + 7 days) */\n      mload(0x40)\n      tag_385\n      swap6\n      swap5\n      swap4\n      swap3\n      swap2\n      swap1\n      tag_386\n      jump\t// in\n    tag_385:\n      mload(0x40)\n      dup1\n      swap2\n      sub\n      swap1\n      log1\n        /* \"staking.sol\":3967:4657  {... */\n      pop\n        /* \"staking.sol\":3907:4657  function enterLevel0 (uint256 _amount) public whenNotPaused {... */\n      pop\n      jump\t// out\n        /* \"@openzeppelin/contracts/utils/Context.sol\":640:736  function _msgSender() internal view virtual returns (address) {... */\n    tag_194:\n        /* \"@openzeppelin/contracts/utils/Context.sol\":693:700  address */\n      0x00\n        /* \"@openzeppelin/contracts/utils/Context.sol\":719:729  msg.sender */\n      caller\n        /* \"@openzeppelin/contracts/utils/Context.sol\":712:729  return msg.sender */\n      swap1\n      pop\n        /* \"@openzeppelin/contracts/utils/Context.sol\":640:736  function _msgSender() internal view virtual returns (address) {... */\n      swap1\n      jump\t// out\n        /* \"@openzeppelin/contracts/security/Pausable.sol\":2110:2227  function _unpause() internal virtual whenPaused {... */\n    tag_201:\n        /* \"@openzeppelin/contracts/security/Pausable.sol\":1677:1685  paused() */\n      tag_389\n        /* \"@openzeppelin/contracts/security/Pausable.sol\":1677:1683  paused */\n      tag_70\n        /* \"@openzeppelin/contracts/security/Pausable.sol\":1677:1685  paused() */\n      jump\t// in\n    tag_389:\n        /* \"@openzeppelin/contracts/security/Pausable.sol\":1669:1710  require(paused(), \"Pausable: not paused\") */\n      tag_390\n      jumpi\n      mload(0x40)\n      0x08c379a000000000000000000000000000000000000000000000000000000000\n      dup2\n      mstore\n      0x04\n      add\n      tag_391\n      swap1\n      tag_392\n      jump\t// in\n    tag_391:\n      mload(0x40)\n      dup1\n      swap2\n      sub\n      swap1\n      revert\n    tag_390:\n        /* \"@openzeppelin/contracts/security/Pausable.sol\":2178:2183  false */\n      0x00\n        /* \"@openzeppelin/contracts/security/Pausable.sol\":2168:2175  _paused */\n      dup1\n      0x14\n        /* \"@openzeppelin/contracts/security/Pausable.sol\":2168:2183  _paused = false */\n      0x0100\n      exp\n      dup2\n      sload\n      dup2\n      0xff\n      mul\n      not\n      and\n      swap1\n      dup4\n      iszero\n      iszero\n      mul\n      or\n      swap1\n      sstore\n      pop\n        /* \"@openzeppelin/contracts/security/Pausable.sol\":2198:2220  Unpaused(_msgSender()) */\n      0x5db9ee0a495bf2e6ff9c91a7834c1ba4fdd244a5e8aa4e537bd38aeae4b073aa\n        /* \"@openzeppelin/contracts/security/Pausable.sol\":2207:2219  _msgSender() */\n      tag_394\n        /* \"@openzeppelin/contracts/security/Pausable.sol\":2207:2217  _msgSender */\n      tag_194\n        /* \"@openzeppelin/contracts/security/Pausable.sol\":2207:2219  _msgSender() */\n      jump\t// in\n    tag_394:\n        /* \"@openzeppelin/contracts/security/Pausable.sol\":2198:2220  Unpaused(_msgSender()) */\n      mload(0x40)\n      tag_395\n      swap2\n      swap1\n      tag_119\n      jump\t// in\n    tag_395:\n      mload(0x40)\n      dup1\n      swap2\n      sub\n      swap1\n      log1\n        /* \"@openzeppelin/contracts/security/Pausable.sol\":2110:2227  function _unpause() internal virtual whenPaused {... */\n      jump\t// out\n        /* \"staking.sol\":11680:12275  function swapTokensForEth(uint256 tokenAmount, address recipient) private {... */\n    tag_224:\n        /* \"staking.sol\":11823:11844  address[] memory path */\n      0x00\n        /* \"staking.sol\":11861:11862  2 */\n      0x02\n        /* \"staking.sol\":11847:11863  new address[](2) */\n      0xffffffffffffffff\n      dup2\n      gt\n      iszero\n      tag_397\n      jumpi\n      tag_398\n      tag_399\n      jump\t// in\n    tag_398:\n    tag_397:\n      mload(0x40)\n      swap1\n      dup1\n      dup3\n      mstore\n      dup1\n      0x20\n      mul\n      0x20\n      add\n      dup3\n      add\n      0x40\n      mstore\n      dup1\n      iszero\n      tag_400\n      jumpi\n      dup2\n      0x20\n      add\n      0x20\n      dup3\n      mul\n      dup1\n      calldatasize\n      dup4\n      calldatacopy\n      dup1\n      dup3\n      add\n      swap2\n      pop\n      pop\n      swap1\n      pop\n    tag_400:\n      pop\n        /* \"staking.sol\":11823:11863  address[] memory path = new address[](2) */\n      swap1\n      pop\n        /* \"staking.sol\":11891:11904  acceptedToken */\n      0x01\n      0x00\n      swap1\n      sload\n      swap1\n      0x0100\n      exp\n      swap1\n      div\n      0xffffffffffffffffffffffffffffffffffffffff\n      and\n        /* \"staking.sol\":11873:11877  path */\n      dup2\n        /* \"staking.sol\":11878:11879  0 */\n      0x00\n        /* \"staking.sol\":11873:11880  path[0] */\n      dup2\n      mload\n      dup2\n      lt\n      tag_401\n      jumpi\n      tag_402\n      tag_403\n      jump\t// in\n    tag_402:\n    tag_401:\n      0x20\n      mul\n      0x20\n      add\n      add\n        /* \"staking.sol\":11873:11905  path[0] = address(acceptedToken) */\n      swap1\n      0xffffffffffffffffffffffffffffffffffffffff\n      and\n      swap1\n      dup2\n      0xffffffffffffffffffffffffffffffffffffffff\n      and\n      dup2\n      mstore\n      pop\n      pop\n        /* \"staking.sol\":11925:11940  uniswapV2Router */\n      immutable(\"0x0b83f23a4eeb8c3f5f7d5934a2289bcf0186d09a12e1b7f20adf54e4b179db15\")\n        /* \"staking.sol\":11925:11945  uniswapV2Router.WETH */\n      0xffffffffffffffffffffffffffffffffffffffff\n      and\n      0xad5c4648\n        /* \"staking.sol\":11925:11947  uniswapV2Router.WETH() */\n      mload(0x40)\n      dup2\n      0xffffffff\n      and\n      0xe0\n      shl\n      dup2\n      mstore\n      0x04\n      add\n      0x20\n      mload(0x40)\n      dup1\n      dup4\n      sub\n      dup2\n      dup7\n      dup1\n      extcodesize\n      iszero\n      dup1\n      iszero\n      tag_404\n      jumpi\n      0x00\n      dup1\n      revert\n    tag_404:\n      pop\n      gas\n      staticcall\n      iszero\n      dup1\n      iszero\n      tag_406\n      jumpi\n      returndatasize\n      0x00\n      dup1\n      returndatacopy\n      revert(0x00, returndatasize)\n    tag_406:\n      pop\n      pop\n      pop\n      pop\n      mload(0x40)\n      returndatasize\n      not(0x1f)\n      0x1f\n      dup3\n      add\n      and\n      dup3\n      add\n      dup1\n      0x40\n      mstore\n      pop\n      dup2\n      add\n      swap1\n      tag_407\n      swap2\n      swap1\n      tag_408\n      jump\t// in\n    tag_407:\n        /* \"staking.sol\":11915:11919  path */\n      dup2\n        /* \"staking.sol\":11920:11921  1 */\n      0x01\n        /* \"staking.sol\":11915:11922  path[1] */\n      dup2\n      mload\n      dup2\n      lt\n      tag_409\n      jumpi\n      tag_410\n      tag_403\n      jump\t// in\n    tag_410:\n    tag_409:\n      0x20\n      mul\n      0x20\n      add\n      add\n        /* \"staking.sol\":11915:11947  path[1] = uniswapV2Router.WETH() */\n      swap1\n      0xffffffffffffffffffffffffffffffffffffffff\n      and\n      swap1\n      dup2\n      0xffffffffffffffffffffffffffffffffffffffff\n      and\n      dup2\n      mstore\n      pop\n      pop\n        /* \"staking.sol\":11958:11971  acceptedToken */\n      0x01\n      0x00\n      swap1\n      sload\n      swap1\n      0x0100\n      exp\n      swap1\n      div\n      0xffffffffffffffffffffffffffffffffffffffff\n      and\n        /* \"staking.sol\":11958:11979  acceptedToken.approve */\n      0xffffffffffffffffffffffffffffffffffffffff\n      and\n      0x095ea7b3\n        /* \"staking.sol\":11988:12003  uniswapV2Router */\n      immutable(\"0x0b83f23a4eeb8c3f5f7d5934a2289bcf0186d09a12e1b7f20adf54e4b179db15\")\n        /* \"staking.sol\":12006:12017  tokenAmount */\n      dup6\n        /* \"staking.sol\":11958:12018  acceptedToken.approve(address(uniswapV2Router), tokenAmount) */\n      mload(0x40)\n      dup4\n      0xffffffff\n      and\n      0xe0\n      shl\n      dup2\n      mstore\n      0x04\n      add\n      tag_411\n      swap3\n      swap2\n      swap1\n      tag_218\n      jump\t// in\n    tag_411:\n      0x20\n      mload(0x40)\n      dup1\n      dup4\n      sub\n      dup2\n      0x00\n      dup8\n      dup1\n      extcodesize\n      iszero\n      dup1\n      iszero\n      tag_412\n      jumpi\n      0x00\n      dup1\n      revert\n    tag_412:\n      pop\n      gas\n      call\n      iszero\n      dup1\n      iszero\n      tag_414\n      jumpi\n      returndatasize\n      0x00\n      dup1\n      returndatacopy\n      revert(0x00, returndatasize)\n    tag_414:\n      pop\n      pop\n      pop\n      pop\n      mload(0x40)\n      returndatasize\n      not(0x1f)\n      0x1f\n      dup3\n      add\n      and\n      dup3\n      add\n      dup1\n      0x40\n      mstore\n      pop\n      dup2\n      add\n      swap1\n      tag_415\n      swap2\n      swap1\n      tag_186\n      jump\t// in\n    tag_415:\n      pop\n        /* \"staking.sol\":12054:12069  uniswapV2Router */\n      immutable(\"0x0b83f23a4eeb8c3f5f7d5934a2289bcf0186d09a12e1b7f20adf54e4b179db15\")\n        /* \"staking.sol\":12054:12120  uniswapV2Router.swapExactTokensForETHSupportingFeeOnTransferTokens */\n      0xffffffffffffffffffffffffffffffffffffffff\n      and\n      0x791ac947\n        /* \"staking.sol\":12134:12145  tokenAmount */\n      dup5\n        /* \"staking.sol\":12159:12160  0 */\n      0x00\n        /* \"staking.sol\":12202:12206  path */\n      dup5\n        /* \"staking.sol\":12220:12229  recipient */\n      dup7\n        /* \"staking.sol\":12243:12258  block.timestamp */\n      timestamp\n        /* \"staking.sol\":12054:12268  uniswapV2Router.swapExactTokensForETHSupportingFeeOnTransferTokens(... */\n      mload(0x40)\n      dup7\n      0xffffffff\n      and\n      0xe0\n      shl\n      dup2\n      mstore\n      0x04\n      add\n      tag_416\n      swap6\n      swap5\n      swap4\n      swap3\n      swap2\n      swap1\n      tag_417\n      jump\t// in\n    tag_416:\n      0x00\n      mload(0x40)\n      dup1\n      dup4\n      sub\n      dup2\n      0x00\n      dup8\n      dup1\n      extcodesize\n      iszero\n      dup1\n      iszero\n      tag_418\n      jumpi\n      0x00\n      dup1\n      revert\n    tag_418:\n      pop\n      gas\n      call\n      iszero\n      dup1\n      iszero\n      tag_420\n      jumpi\n      returndatasize\n      0x00\n      dup1\n      returndatacopy\n      revert(0x00, returndatasize)\n    tag_420:\n      pop\n      pop\n      pop\n      pop\n        /* \"staking.sol\":11754:12275  {... */\n      pop\n        /* \"staking.sol\":11680:12275  function swapTokensForEth(uint256 tokenAmount, address recipient) private {... */\n      pop\n      pop\n      jump\t// out\n        /* \"staking.sol\":7973:8337  function calculateInterest (uint256 _balance, uint256 _timeStarted, uint256 _APY) internal view returns (uint256){... */\n    tag_236:\n        /* \"staking.sol\":8078:8085  uint256 */\n      0x00\n        /* \"staking.sol\":8096:8114  uint256 timeStaked */\n      dup1\n        /* \"staking.sol\":8135:8147  _timeStarted */\n      dup4\n        /* \"staking.sol\":8117:8132  block.timestamp */\n      timestamp\n        /* \"staking.sol\":8117:8147  block.timestamp - _timeStarted */\n      tag_422\n      swap2\n      swap1\n      tag_215\n      jump\t// in\n    tag_422:\n        /* \"staking.sol\":8096:8147  uint256 timeStaked = block.timestamp - _timeStarted */\n      swap1\n      pop\n        /* \"staking.sol\":8165:8190  uint256 interestPerSecond */\n      0x00\n        /* \"staking.sol\":8223:8231  365 days */\n      0x01e13380\n        /* \"staking.sol\":8214:8219  10000 */\n      0x2710\n        /* \"staking.sol\":8206:8210  _APY */\n      dup6\n        /* \"staking.sol\":8195:8203  _balance */\n      dup9\n        /* \"staking.sol\":8195:8210  _balance * _APY */\n      tag_423\n      swap2\n      swap1\n      tag_424\n      jump\t// in\n    tag_423:\n        /* \"staking.sol\":8194:8219  (_balance * _APY) / 10000 */\n      tag_425\n      swap2\n      swap1\n      tag_426\n      jump\t// in\n    tag_425:\n        /* \"staking.sol\":8193:8231  ((_balance * _APY) / 10000) / 365 days */\n      tag_427\n      swap2\n      swap1\n      tag_426\n      jump\t// in\n    tag_427:\n        /* \"staking.sol\":8165:8231  uint256 interestPerSecond = ((_balance * _APY) / 10000) / 365 days */\n      swap1\n      pop\n        /* \"staking.sol\":8241:8264  uint256 interestsEarned */\n      0x00\n        /* \"staking.sol\":8280:8297  interestPerSecond */\n      dup2\n        /* \"staking.sol\":8267:8277  timeStaked */\n      dup4\n        /* \"staking.sol\":8267:8297  timeStaked * interestPerSecond */\n      tag_428\n      swap2\n      swap1\n      tag_424\n      jump\t// in\n    tag_428:\n        /* \"staking.sol\":8241:8297  uint256 interestsEarned = timeStaked * interestPerSecond */\n      swap1\n      pop\n        /* \"staking.sol\":8315:8330  interestsEarned */\n      dup1\n        /* \"staking.sol\":8308:8330  return interestsEarned */\n      swap4\n      pop\n      pop\n      pop\n      pop\n        /* \"staking.sol\":7973:8337  function calculateInterest (uint256 _balance, uint256 _timeStarted, uint256 _APY) internal view returns (uint256){... */\n      swap4\n      swap3\n      pop\n      pop\n      pop\n      jump\t// out\n        /* \"@openzeppelin/contracts/access/Ownable.sol\":2270:2457  function _transferOwnership(address newOwner) internal virtual {... */\n    tag_251:\n        /* \"@openzeppelin/contracts/access/Ownable.sol\":2343:2359  address oldOwner */\n      0x00\n        /* \"@openzeppelin/contracts/access/Ownable.sol\":2362:2368  _owner */\n      dup1\n      0x00\n      swap1\n      sload\n      swap1\n      0x0100\n      exp\n      swap1\n      div\n      0xffffffffffffffffffffffffffffffffffffffff\n      and\n        /* \"@openzeppelin/contracts/access/Ownable.sol\":2343:2368  address oldOwner = _owner */\n      swap1\n      pop\n        /* \"@openzeppelin/contracts/access/Ownable.sol\":2387:2395  newOwner */\n      dup2\n        /* \"@openzeppelin/contracts/access/Ownable.sol\":2378:2384  _owner */\n      0x00\n      dup1\n        /* \"@openzeppelin/contracts/access/Ownable.sol\":2378:2395  _owner = newOwner */\n      0x0100\n      exp\n      dup2\n      sload\n      dup2\n      0xffffffffffffffffffffffffffffffffffffffff\n      mul\n      not\n      and\n      swap1\n      dup4\n      0xffffffffffffffffffffffffffffffffffffffff\n      and\n      mul\n      or\n      swap1\n      sstore\n      pop\n        /* \"@openzeppelin/contracts/access/Ownable.sol\":2441:2449  newOwner */\n      dup2\n        /* \"@openzeppelin/contracts/access/Ownable.sol\":2410:2450  OwnershipTransferred(oldOwner, newOwner) */\n      0xffffffffffffffffffffffffffffffffffffffff\n      and\n        /* \"@openzeppelin/contracts/access/Ownable.sol\":2431:2439  oldOwner */\n      dup2\n        /* \"@openzeppelin/contracts/access/Ownable.sol\":2410:2450  OwnershipTransferred(oldOwner, newOwner) */\n      0xffffffffffffffffffffffffffffffffffffffff\n      and\n      0x8be0079c531659141344cd1fd0a4f28419497f9722a3daafe3b4186f6b6457e0\n      mload(0x40)\n      mload(0x40)\n      dup1\n      swap2\n      sub\n      swap1\n      log3\n        /* \"@openzeppelin/contracts/access/Ownable.sol\":2333:2457  {... */\n      pop\n        /* \"@openzeppelin/contracts/access/Ownable.sol\":2270:2457  function _transferOwnership(address newOwner) internal virtual {... */\n      pop\n      jump\t// out\n        /* \"@openzeppelin/contracts/security/Pausable.sol\":1863:1978  function _pause() internal virtual whenNotPaused {... */\n    tag_259:\n        /* \"@openzeppelin/contracts/security/Pausable.sol\":1412:1420  paused() */\n      tag_431\n        /* \"@openzeppelin/contracts/security/Pausable.sol\":1412:1418  paused */\n      tag_70\n        /* \"@openzeppelin/contracts/security/Pausable.sol\":1412:1420  paused() */\n      jump\t// in\n    tag_431:\n        /* \"@openzeppelin/contracts/security/Pausable.sol\":1411:1420  !paused() */\n      iszero\n        /* \"@openzeppelin/contracts/security/Pausable.sol\":1403:1441  require(!paused(), \"Pausable: paused\") */\n      tag_432\n      jumpi\n      mload(0x40)\n      0x08c379a000000000000000000000000000000000000000000000000000000000\n      dup2\n      mstore\n      0x04\n      add\n      tag_433\n      swap1\n      tag_171\n      jump\t// in\n    tag_433:\n      mload(0x40)\n      dup1\n      swap2\n      sub\n      swap1\n      revert\n    tag_432:\n        /* \"@openzeppelin/contracts/security/Pausable.sol\":1932:1936  true */\n      0x01\n        /* \"@openzeppelin/contracts/security/Pausable.sol\":1922:1929  _paused */\n      0x00\n      0x14\n        /* \"@openzeppelin/contracts/security/Pausable.sol\":1922:1936  _paused = true */\n      0x0100\n      exp\n      dup2\n      sload\n      dup2\n      0xff\n      mul\n      not\n      and\n      swap1\n      dup4\n      iszero\n      iszero\n      mul\n      or\n      swap1\n      sstore\n      pop\n        /* \"@openzeppelin/contracts/security/Pausable.sol\":1951:1971  Paused(_msgSender()) */\n      0x62e78cea01bee320cd4e420270b5ea74000d11b0c9f74754ebdbfc544b05a258\n        /* \"@openzeppelin/contracts/security/Pausable.sol\":1958:1970  _msgSender() */\n      tag_435\n        /* \"@openzeppelin/contracts/security/Pausable.sol\":1958:1968  _msgSender */\n      tag_194\n        /* \"@openzeppelin/contracts/security/Pausable.sol\":1958:1970  _msgSender() */\n      jump\t// in\n    tag_435:\n        /* \"@openzeppelin/contracts/security/Pausable.sol\":1951:1971  Paused(_msgSender()) */\n      mload(0x40)\n      tag_436\n      swap2\n      swap1\n      tag_119\n      jump\t// in\n    tag_436:\n      mload(0x40)\n      dup1\n      swap2\n      sub\n      swap1\n      log1\n        /* \"@openzeppelin/contracts/security/Pausable.sol\":1863:1978  function _pause() internal virtual whenNotPaused {... */\n      jump\t// out\n        /* \"#utility.yul\":7:146   */\n    tag_438:\n        /* \"#utility.yul\":53:58   */\n      0x00\n        /* \"#utility.yul\":91:97   */\n      dup2\n        /* \"#utility.yul\":78:98   */\n      calldataload\n        /* \"#utility.yul\":69:98   */\n      swap1\n      pop\n        /* \"#utility.yul\":107:140   */\n      tag_440\n        /* \"#utility.yul\":134:139   */\n      dup2\n        /* \"#utility.yul\":107:140   */\n      tag_441\n      jump\t// in\n    tag_440:\n        /* \"#utility.yul\":7:146   */\n      swap3\n      swap2\n      pop\n      pop\n      jump\t// out\n        /* \"#utility.yul\":152:295   */\n    tag_442:\n        /* \"#utility.yul\":209:214   */\n      0x00\n        /* \"#utility.yul\":240:246   */\n      dup2\n        /* \"#utility.yul\":234:247   */\n      mload\n        /* \"#utility.yul\":225:247   */\n      swap1\n      pop\n        /* \"#utility.yul\":256:289   */\n      tag_444\n        /* \"#utility.yul\":283:288   */\n      dup2\n        /* \"#utility.yul\":256:289   */\n      tag_441\n      jump\t// in\n    tag_444:\n        /* \"#utility.yul\":152:295   */\n      swap3\n      swap2\n      pop\n      pop\n      jump\t// out\n        /* \"#utility.yul\":301:438   */\n    tag_445:\n        /* \"#utility.yul\":355:360   */\n      0x00\n        /* \"#utility.yul\":386:392   */\n      dup2\n        /* \"#utility.yul\":380:393   */\n      mload\n        /* \"#utility.yul\":371:393   */\n      swap1\n      pop\n        /* \"#utility.yul\":402:432   */\n      tag_447\n        /* \"#utility.yul\":426:431   */\n      dup2\n        /* \"#utility.yul\":402:432   */\n      tag_448\n      jump\t// in\n    tag_447:\n        /* \"#utility.yul\":301:438   */\n      swap3\n      swap2\n      pop\n      pop\n      jump\t// out\n        /* \"#utility.yul\":444:583   */\n    tag_449:\n        /* \"#utility.yul\":490:495   */\n      0x00\n        /* \"#utility.yul\":528:534   */\n      dup2\n        /* \"#utility.yul\":515:535   */\n      calldataload\n        /* \"#utility.yul\":506:535   */\n      swap1\n      pop\n        /* \"#utility.yul\":544:577   */\n      tag_451\n        /* \"#utility.yul\":571:576   */\n      dup2\n        /* \"#utility.yul\":544:577   */\n      tag_452\n      jump\t// in\n    tag_451:\n        /* \"#utility.yul\":444:583   */\n      swap3\n      swap2\n      pop\n      pop\n      jump\t// out\n        /* \"#utility.yul\":589:724   */\n    tag_453:\n        /* \"#utility.yul\":633:638   */\n      0x00\n        /* \"#utility.yul\":671:677   */\n      dup2\n        /* \"#utility.yul\":658:678   */\n      calldataload\n        /* \"#utility.yul\":649:678   */\n      swap1\n      pop\n        /* \"#utility.yul\":687:718   */\n      tag_455\n        /* \"#utility.yul\":712:717   */\n      dup2\n        /* \"#utility.yul\":687:718   */\n      tag_456\n      jump\t// in\n    tag_455:\n        /* \"#utility.yul\":589:724   */\n      swap3\n      swap2\n      pop\n      pop\n      jump\t// out\n        /* \"#utility.yul\":730:1059   */\n    tag_75:\n        /* \"#utility.yul\":789:795   */\n      0x00\n        /* \"#utility.yul\":838:840   */\n      0x20\n        /* \"#utility.yul\":826:835   */\n      dup3\n        /* \"#utility.yul\":817:824   */\n      dup5\n        /* \"#utility.yul\":813:836   */\n      sub\n        /* \"#utility.yul\":809:841   */\n      slt\n        /* \"#utility.yul\":806:925   */\n      iszero\n      tag_458\n      jumpi\n        /* \"#utility.yul\":844:923   */\n      tag_459\n      tag_460\n      jump\t// in\n    tag_459:\n        /* \"#utility.yul\":806:925   */\n    tag_458:\n        /* \"#utility.yul\":964:965   */\n      0x00\n        /* \"#utility.yul\":989:1042   */\n      tag_461\n        /* \"#utility.yul\":1034:1041   */\n      dup5\n        /* \"#utility.yul\":1025:1031   */\n      dup3\n        /* \"#utility.yul\":1014:1023   */\n      dup6\n        /* \"#utility.yul\":1010:1032   */\n      add\n        /* \"#utility.yul\":989:1042   */\n      tag_438\n      jump\t// in\n    tag_461:\n        /* \"#utility.yul\":979:1042   */\n      swap2\n      pop\n        /* \"#utility.yul\":935:1052   */\n      pop\n        /* \"#utility.yul\":730:1059   */\n      swap3\n      swap2\n      pop\n      pop\n      jump\t// out\n        /* \"#utility.yul\":1065:1416   */\n    tag_408:\n        /* \"#utility.yul\":1135:1141   */\n      0x00\n        /* \"#utility.yul\":1184:1186   */\n      0x20\n        /* \"#utility.yul\":1172:1181   */\n      dup3\n        /* \"#utility.yul\":1163:1170   */\n      dup5\n        /* \"#utility.yul\":1159:1182   */\n      sub\n        /* \"#utility.yul\":1155:1187   */\n      slt\n        /* \"#utility.yul\":1152:1271   */\n      iszero\n      tag_463\n      jumpi\n        /* \"#utility.yul\":1190:1269   */\n      tag_464\n      tag_460\n      jump\t// in\n    tag_464:\n        /* \"#utility.yul\":1152:1271   */\n    tag_463:\n        /* \"#utility.yul\":1310:1311   */\n      0x00\n        /* \"#utility.yul\":1335:1399   */\n      tag_465\n        /* \"#utility.yul\":1391:1398   */\n      dup5\n        /* \"#utility.yul\":1382:1388   */\n      dup3\n        /* \"#utility.yul\":1371:1380   */\n      dup6\n        /* \"#utility.yul\":1367:1389   */\n      add\n        /* \"#utility.yul\":1335:1399   */\n      tag_442\n      jump\t// in\n    tag_465:\n        /* \"#utility.yul\":1325:1399   */\n      swap2\n      pop\n        /* \"#utility.yul\":1281:1409   */\n      pop\n        /* \"#utility.yul\":1065:1416   */\n      swap3\n      swap2\n      pop\n      pop\n      jump\t// out\n        /* \"#utility.yul\":1422:1892   */\n    tag_161:\n        /* \"#utility.yul\":1488:1494   */\n      0x00\n        /* \"#utility.yul\":1496:1502   */\n      dup1\n        /* \"#utility.yul\":1545:1547   */\n      0x40\n        /* \"#utility.yul\":1533:1542   */\n      dup4\n        /* \"#utility.yul\":1524:1531   */\n      dup6\n        /* \"#utility.yul\":1520:1543   */\n      sub\n        /* \"#utility.yul\":1516:1548   */\n      slt\n        /* \"#utility.yul\":1513:1632   */\n      iszero\n      tag_467\n      jumpi\n        /* \"#utility.yul\":1551:1630   */\n      tag_468\n      tag_460\n      jump\t// in\n    tag_468:\n        /* \"#utility.yul\":1513:1632   */\n    tag_467:\n        /* \"#utility.yul\":1671:1672   */\n      0x00\n        /* \"#utility.yul\":1696:1749   */\n      tag_469\n        /* \"#utility.yul\":1741:1748   */\n      dup6\n        /* \"#utility.yul\":1732:1738   */\n      dup3\n        /* \"#utility.yul\":1721:1730   */\n      dup7\n        /* \"#utility.yul\":1717:1739   */\n      add\n        /* \"#utility.yul\":1696:1749   */\n      tag_438\n      jump\t// in\n    tag_469:\n        /* \"#utility.yul\":1686:1749   */\n      swap3\n      pop\n        /* \"#utility.yul\":1642:1759   */\n      pop\n        /* \"#utility.yul\":1798:1800   */\n      0x20\n        /* \"#utility.yul\":1824:1875   */\n      tag_470\n        /* \"#utility.yul\":1867:1874   */\n      dup6\n        /* \"#utility.yul\":1858:1864   */\n      dup3\n        /* \"#utility.yul\":1847:1856   */\n      dup7\n        /* \"#utility.yul\":1843:1865   */\n      add\n        /* \"#utility.yul\":1824:1875   */\n      tag_453\n      jump\t// in\n    tag_470:\n        /* \"#utility.yul\":1814:1875   */\n      swap2\n      pop\n        /* \"#utility.yul\":1769:1885   */\n      pop\n        /* \"#utility.yul\":1422:1892   */\n      swap3\n      pop\n      swap3\n      swap1\n      pop\n      jump\t// out\n        /* \"#utility.yul\":1898:2513   */\n    tag_95:\n        /* \"#utility.yul\":1973:1979   */\n      0x00\n        /* \"#utility.yul\":1981:1987   */\n      dup1\n        /* \"#utility.yul\":1989:1995   */\n      0x00\n        /* \"#utility.yul\":2038:2040   */\n      0x60\n        /* \"#utility.yul\":2026:2035   */\n      dup5\n        /* \"#utility.yul\":2017:2024   */\n      dup7\n        /* \"#utility.yul\":2013:2036   */\n      sub\n        /* \"#utility.yul\":2009:2041   */\n      slt\n        /* \"#utility.yul\":2006:2125   */\n      iszero\n      tag_472\n      jumpi\n        /* \"#utility.yul\":2044:2123   */\n      tag_473\n      tag_460\n      jump\t// in\n    tag_473:\n        /* \"#utility.yul\":2006:2125   */\n    tag_472:\n        /* \"#utility.yul\":2164:2165   */\n      0x00\n        /* \"#utility.yul\":2189:2242   */\n      tag_474\n        /* \"#utility.yul\":2234:2241   */\n      dup7\n        /* \"#utility.yul\":2225:2231   */\n      dup3\n        /* \"#utility.yul\":2214:2223   */\n      dup8\n        /* \"#utility.yul\":2210:2232   */\n      add\n        /* \"#utility.yul\":2189:2242   */\n      tag_438\n      jump\t// in\n    tag_474:\n        /* \"#utility.yul\":2179:2242   */\n      swap4\n      pop\n        /* \"#utility.yul\":2135:2252   */\n      pop\n        /* \"#utility.yul\":2291:2293   */\n      0x20\n        /* \"#utility.yul\":2317:2368   */\n      tag_475\n        /* \"#utility.yul\":2360:2367   */\n      dup7\n        /* \"#utility.yul\":2351:2357   */\n      dup3\n        /* \"#utility.yul\":2340:2349   */\n      dup8\n        /* \"#utility.yul\":2336:2358   */\n      add\n        /* \"#utility.yul\":2317:2368   */\n      tag_453\n      jump\t// in\n    tag_475:\n        /* \"#utility.yul\":2307:2368   */\n      swap3\n      pop\n        /* \"#utility.yul\":2262:2378   */\n      pop\n        /* \"#utility.yul\":2417:2419   */\n      0x40\n        /* \"#utility.yul\":2443:2496   */\n      tag_476\n        /* \"#utility.yul\":2488:2495   */\n      dup7\n        /* \"#utility.yul\":2479:2485   */\n      dup3\n        /* \"#utility.yul\":2468:2477   */\n      dup8\n        /* \"#utility.yul\":2464:2486   */\n      add\n        /* \"#utility.yul\":2443:2496   */\n      tag_449\n      jump\t// in\n    tag_476:\n        /* \"#utility.yul\":2433:2496   */\n      swap2\n      pop\n        /* \"#utility.yul\":2388:2506   */\n      pop\n        /* \"#utility.yul\":1898:2513   */\n      swap3\n      pop\n      swap3\n      pop\n      swap3\n      jump\t// out\n        /* \"#utility.yul\":2519:2864   */\n    tag_186:\n        /* \"#utility.yul\":2586:2592   */\n      0x00\n        /* \"#utility.yul\":2635:2637   */\n      0x20\n        /* \"#utility.yul\":2623:2632   */\n      dup3\n        /* \"#utility.yul\":2614:2621   */\n      dup5\n        /* \"#utility.yul\":2610:2633   */\n      sub\n        /* \"#utility.yul\":2606:2638   */\n      slt\n        /* \"#utility.yul\":2603:2722   */\n      iszero\n      tag_478\n      jumpi\n        /* \"#utility.yul\":2641:2720   */\n      tag_479\n      tag_460\n      jump\t// in\n    tag_479:\n        /* \"#utility.yul\":2603:2722   */\n    tag_478:\n        /* \"#utility.yul\":2761:2762   */\n      0x00\n        /* \"#utility.yul\":2786:2847   */\n      tag_480\n        /* \"#utility.yul\":2839:2846   */\n      dup5\n        /* \"#utility.yul\":2830:2836   */\n      dup3\n        /* \"#utility.yul\":2819:2828   */\n      dup6\n        /* \"#utility.yul\":2815:2837   */\n      add\n        /* \"#utility.yul\":2786:2847   */\n      tag_445\n      jump\t// in\n    tag_480:\n        /* \"#utility.yul\":2776:2847   */\n      swap2\n      pop\n        /* \"#utility.yul\":2732:2857   */\n      pop\n        /* \"#utility.yul\":2519:2864   */\n      swap3\n      swap2\n      pop\n      pop\n      jump\t// out\n        /* \"#utility.yul\":2870:3199   */\n    tag_55:\n        /* \"#utility.yul\":2929:2935   */\n      0x00\n        /* \"#utility.yul\":2978:2980   */\n      0x20\n        /* \"#utility.yul\":2966:2975   */\n      dup3\n        /* \"#utility.yul\":2957:2964   */\n      dup5\n        /* \"#utility.yul\":2953:2976   */\n      sub\n        /* \"#utility.yul\":2949:2981   */\n      slt\n        /* \"#utility.yul\":2946:3065   */\n      iszero\n      tag_482\n      jumpi\n        /* \"#utility.yul\":2984:3063   */\n      tag_483\n      tag_460\n      jump\t// in\n    tag_483:\n        /* \"#utility.yul\":2946:3065   */\n    tag_482:\n        /* \"#utility.yul\":3104:3105   */\n      0x00\n        /* \"#utility.yul\":3129:3182   */\n      tag_484\n        /* \"#utility.yul\":3174:3181   */\n      dup5\n        /* \"#utility.yul\":3165:3171   */\n      dup3\n        /* \"#utility.yul\":3154:3163   */\n      dup6\n        /* \"#utility.yul\":3150:3172   */\n      add\n        /* \"#utility.yul\":3129:3182   */\n      tag_449\n      jump\t// in\n    tag_484:\n        /* \"#utility.yul\":3119:3182   */\n      swap2\n      pop\n        /* \"#utility.yul\":3075:3192   */\n      pop\n        /* \"#utility.yul\":2870:3199   */\n      swap3\n      swap2\n      pop\n      pop\n      jump\t// out\n        /* \"#utility.yul\":3205:3824   */\n    tag_150:\n        /* \"#utility.yul\":3282:3288   */\n      0x00\n        /* \"#utility.yul\":3290:3296   */\n      dup1\n        /* \"#utility.yul\":3298:3304   */\n      0x00\n        /* \"#utility.yul\":3347:3349   */\n      0x60\n        /* \"#utility.yul\":3335:3344   */\n      dup5\n        /* \"#utility.yul\":3326:3333   */\n      dup7\n        /* \"#utility.yul\":3322:3345   */\n      sub\n        /* \"#utility.yul\":3318:3350   */\n      slt\n        /* \"#utility.yul\":3315:3434   */\n      iszero\n      tag_486\n      jumpi\n        /* \"#utility.yul\":3353:3432   */\n      tag_487\n      tag_460\n      jump\t// in\n    tag_487:\n        /* \"#utility.yul\":3315:3434   */\n    tag_486:\n        /* \"#utility.yul\":3473:3474   */\n      0x00\n        /* \"#utility.yul\":3498:3551   */\n      tag_488\n        /* \"#utility.yul\":3543:3550   */\n      dup7\n        /* \"#utility.yul\":3534:3540   */\n      dup3\n        /* \"#utility.yul\":3523:3532   */\n      dup8\n        /* \"#utility.yul\":3519:3541   */\n      add\n        /* \"#utility.yul\":3498:3551   */\n      tag_449\n      jump\t// in\n    tag_488:\n        /* \"#utility.yul\":3488:3551   */\n      swap4\n      pop\n        /* \"#utility.yul\":3444:3561   */\n      pop\n        /* \"#utility.yul\":3600:3602   */\n      0x20\n        /* \"#utility.yul\":3626:3679   */\n      tag_489\n        /* \"#utility.yul\":3671:3678   */\n      dup7\n        /* \"#utility.yul\":3662:3668   */\n      dup3\n        /* \"#utility.yul\":3651:3660   */\n      dup8\n        /* \"#utility.yul\":3647:3669   */\n      add\n        /* \"#utility.yul\":3626:3679   */\n      tag_449\n      jump\t// in\n    tag_489:\n        /* \"#utility.yul\":3616:3679   */\n      swap3\n      pop\n        /* \"#utility.yul\":3571:3689   */\n      pop\n        /* \"#utility.yul\":3728:3730   */\n      0x40\n        /* \"#utility.yul\":3754:3807   */\n      tag_490\n        /* \"#utility.yul\":3799:3806   */\n      dup7\n        /* \"#utility.yul\":3790:3796   */\n      dup3\n        /* \"#utility.yul\":3779:3788   */\n      dup8\n        /* \"#utility.yul\":3775:3797   */\n      add\n        /* \"#utility.yul\":3754:3807   */\n      tag_449\n      jump\t// in\n    tag_490:\n        /* \"#utility.yul\":3744:3807   */\n      swap2\n      pop\n        /* \"#utility.yul\":3699:3817   */\n      pop\n        /* \"#utility.yul\":3205:3824   */\n      swap3\n      pop\n      swap3\n      pop\n      swap3\n      jump\t// out\n        /* \"#utility.yul\":3830:4887   */\n    tag_157:\n        /* \"#utility.yul\":3934:3940   */\n      0x00\n        /* \"#utility.yul\":3942:3948   */\n      dup1\n        /* \"#utility.yul\":3950:3956   */\n      0x00\n        /* \"#utility.yul\":3958:3964   */\n      dup1\n        /* \"#utility.yul\":3966:3972   */\n      0x00\n        /* \"#utility.yul\":3974:3980   */\n      dup1\n        /* \"#utility.yul\":4023:4026   */\n      0xc0\n        /* \"#utility.yul\":4011:4020   */\n      dup8\n        /* \"#utility.yul\":4002:4009   */\n      dup10\n        /* \"#utility.yul\":3998:4021   */\n      sub\n        /* \"#utility.yul\":3994:4027   */\n      slt\n        /* \"#utility.yul\":3991:4111   */\n      iszero\n      tag_492\n      jumpi\n        /* \"#utility.yul\":4030:4109   */\n      tag_493\n      tag_460\n      jump\t// in\n    tag_493:\n        /* \"#utility.yul\":3991:4111   */\n    tag_492:\n        /* \"#utility.yul\":4150:4151   */\n      0x00\n        /* \"#utility.yul\":4175:4228   */\n      tag_494\n        /* \"#utility.yul\":4220:4227   */\n      dup10\n        /* \"#utility.yul\":4211:4217   */\n      dup3\n        /* \"#utility.yul\":4200:4209   */\n      dup11\n        /* \"#utility.yul\":4196:4218   */\n      add\n        /* \"#utility.yul\":4175:4228   */\n      tag_449\n      jump\t// in\n    tag_494:\n        /* \"#utility.yul\":4165:4228   */\n      swap7\n      pop\n        /* \"#utility.yul\":4121:4238   */\n      pop\n        /* \"#utility.yul\":4277:4279   */\n      0x20\n        /* \"#utility.yul\":4303:4356   */\n      tag_495\n        /* \"#utility.yul\":4348:4355   */\n      dup10\n        /* \"#utility.yul\":4339:4345   */\n      dup3\n        /* \"#utility.yul\":4328:4337   */\n      dup11\n        /* \"#utility.yul\":4324:4346   */\n      add\n        /* \"#utility.yul\":4303:4356   */\n      tag_449\n      jump\t// in\n    tag_495:\n        /* \"#utility.yul\":4293:4356   */\n      swap6\n      pop\n        /* \"#utility.yul\":4248:4366   */\n      pop\n        /* \"#utility.yul\":4405:4407   */\n      0x40\n        /* \"#utility.yul\":4431:4484   */\n      tag_496\n        /* \"#utility.yul\":4476:4483   */\n      dup10\n        /* \"#utility.yul\":4467:4473   */\n      dup3\n        /* \"#utility.yul\":4456:4465   */\n      dup11\n        /* \"#utility.yul\":4452:4474   */\n      add\n        /* \"#utility.yul\":4431:4484   */\n      tag_449\n      jump\t// in\n    tag_496:\n        /* \"#utility.yul\":4421:4484   */\n      swap5\n      pop\n        /* \"#utility.yul\":4376:4494   */\n      pop\n        /* \"#utility.yul\":4533:4535   */\n      0x60\n        /* \"#utility.yul\":4559:4612   */\n      tag_497\n        /* \"#utility.yul\":4604:4611   */\n      dup10\n        /* \"#utility.yul\":4595:4601   */\n      dup3\n        /* \"#utility.yul\":4584:4593   */\n      dup11\n        /* \"#utility.yul\":4580:4602   */\n      add\n        /* \"#utility.yul\":4559:4612   */\n      tag_449\n      jump\t// in\n    tag_497:\n        /* \"#utility.yul\":4549:4612   */\n      swap4\n      pop\n        /* \"#utility.yul\":4504:4622   */\n      pop\n        /* \"#utility.yul\":4661:4664   */\n      0x80\n        /* \"#utility.yul\":4688:4741   */\n      tag_498\n        /* \"#utility.yul\":4733:4740   */\n      dup10\n        /* \"#utility.yul\":4724:4730   */\n      dup3\n        /* \"#utility.yul\":4713:4722   */\n      dup11\n        /* \"#utility.yul\":4709:4731   */\n      add\n        /* \"#utility.yul\":4688:4741   */\n      tag_449\n      jump\t// in\n    tag_498:\n        /* \"#utility.yul\":4678:4741   */\n      swap3\n      pop\n        /* \"#utility.yul\":4632:4751   */\n      pop\n        /* \"#utility.yul\":4790:4793   */\n      0xa0\n        /* \"#utility.yul\":4817:4870   */\n      tag_499\n        /* \"#utility.yul\":4862:4869   */\n      dup10\n        /* \"#utility.yul\":4853:4859   */\n      dup3\n        /* \"#utility.yul\":4842:4851   */\n      dup11\n        /* \"#utility.yul\":4838:4860   */\n      add\n        /* \"#utility.yul\":4817:4870   */\n      tag_449\n      jump\t// in\n    tag_499:\n        /* \"#utility.yul\":4807:4870   */\n      swap2\n      pop\n        /* \"#utility.yul\":4761:4880   */\n      pop\n        /* \"#utility.yul\":3830:4887   */\n      swap3\n      swap6\n      pop\n      swap3\n      swap6\n      pop\n      swap3\n      swap6\n      jump\t// out\n        /* \"#utility.yul\":4893:5072   */\n    tag_500:\n        /* \"#utility.yul\":4962:4972   */\n      0x00\n        /* \"#utility.yul\":4983:5029   */\n      tag_502\n        /* \"#utility.yul\":5025:5028   */\n      dup4\n        /* \"#utility.yul\":5017:5023   */\n      dup4\n        /* \"#utility.yul\":4983:5029   */\n      tag_503\n      jump\t// in\n    tag_502:\n        /* \"#utility.yul\":5061:5065   */\n      0x20\n        /* \"#utility.yul\":5056:5059   */\n      dup4\n        /* \"#utility.yul\":5052:5066   */\n      add\n        /* \"#utility.yul\":5038:5066   */\n      swap1\n      pop\n        /* \"#utility.yul\":4893:5072   */\n      swap3\n      swap2\n      pop\n      pop\n      jump\t// out\n        /* \"#utility.yul\":5078:5186   */\n    tag_503:\n        /* \"#utility.yul\":5155:5179   */\n      tag_505\n        /* \"#utility.yul\":5173:5178   */\n      dup2\n        /* \"#utility.yul\":5155:5179   */\n      tag_506\n      jump\t// in\n    tag_505:\n        /* \"#utility.yul\":5150:5153   */\n      dup3\n        /* \"#utility.yul\":5143:5180   */\n      mstore\n        /* \"#utility.yul\":5078:5186   */\n      pop\n      pop\n      jump\t// out\n        /* \"#utility.yul\":5192:5310   */\n    tag_507:\n        /* \"#utility.yul\":5279:5303   */\n      tag_509\n        /* \"#utility.yul\":5297:5302   */\n      dup2\n        /* \"#utility.yul\":5279:5303   */\n      tag_506\n      jump\t// in\n    tag_509:\n        /* \"#utility.yul\":5274:5277   */\n      dup3\n        /* \"#utility.yul\":5267:5304   */\n      mstore\n        /* \"#utility.yul\":5192:5310   */\n      pop\n      pop\n      jump\t// out\n        /* \"#utility.yul\":5346:6078   */\n    tag_510:\n        /* \"#utility.yul\":5465:5468   */\n      0x00\n        /* \"#utility.yul\":5494:5548   */\n      tag_512\n        /* \"#utility.yul\":5542:5547   */\n      dup3\n        /* \"#utility.yul\":5494:5548   */\n      tag_513\n      jump\t// in\n    tag_512:\n        /* \"#utility.yul\":5564:5650   */\n      tag_514\n        /* \"#utility.yul\":5643:5649   */\n      dup2\n        /* \"#utility.yul\":5638:5641   */\n      dup6\n        /* \"#utility.yul\":5564:5650   */\n      tag_515\n      jump\t// in\n    tag_514:\n        /* \"#utility.yul\":5557:5650   */\n      swap4\n      pop\n        /* \"#utility.yul\":5674:5730   */\n      tag_516\n        /* \"#utility.yul\":5724:5729   */\n      dup4\n        /* \"#utility.yul\":5674:5730   */\n      tag_517\n      jump\t// in\n    tag_516:\n        /* \"#utility.yul\":5753:5760   */\n      dup1\n        /* \"#utility.yul\":5784:5785   */\n      0x00\n        /* \"#utility.yul\":5769:6053   */\n    tag_518:\n        /* \"#utility.yul\":5794:5800   */\n      dup4\n        /* \"#utility.yul\":5791:5792   */\n      dup2\n        /* \"#utility.yul\":5788:5801   */\n      lt\n        /* \"#utility.yul\":5769:6053   */\n      iszero\n      tag_520\n      jumpi\n        /* \"#utility.yul\":5870:5876   */\n      dup2\n        /* \"#utility.yul\":5864:5877   */\n      mload\n        /* \"#utility.yul\":5897:5960   */\n      tag_521\n        /* \"#utility.yul\":5956:5959   */\n      dup9\n        /* \"#utility.yul\":5941:5954   */\n      dup3\n        /* \"#utility.yul\":5897:5960   */\n      tag_500\n      jump\t// in\n    tag_521:\n        /* \"#utility.yul\":5890:5960   */\n      swap8\n      pop\n        /* \"#utility.yul\":5983:6043   */\n      tag_522\n        /* \"#utility.yul\":6036:6042   */\n      dup4\n        /* \"#utility.yul\":5983:6043   */\n      tag_523\n      jump\t// in\n    tag_522:\n        /* \"#utility.yul\":5973:6043   */\n      swap3\n      pop\n        /* \"#utility.yul\":5829:6053   */\n      pop\n        /* \"#utility.yul\":5816:5817   */\n      0x01\n        /* \"#utility.yul\":5813:5814   */\n      dup2\n        /* \"#utility.yul\":5809:5818   */\n      add\n        /* \"#utility.yul\":5804:5818   */\n      swap1\n      pop\n        /* \"#utility.yul\":5769:6053   */\n      jump(tag_518)\n    tag_520:\n        /* \"#utility.yul\":5773:5787   */\n      pop\n        /* \"#utility.yul\":6069:6072   */\n      dup6\n        /* \"#utility.yul\":6062:6072   */\n      swap4\n      pop\n        /* \"#utility.yul\":5470:6078   */\n      pop\n      pop\n      pop\n        /* \"#utility.yul\":5346:6078   */\n      swap3\n      swap2\n      pop\n      pop\n      jump\t// out\n        /* \"#utility.yul\":6084:6193   */\n    tag_524:\n        /* \"#utility.yul\":6165:6186   */\n      tag_526\n        /* \"#utility.yul\":6180:6185   */\n      dup2\n        /* \"#utility.yul\":6165:6186   */\n      tag_527\n      jump\t// in\n    tag_526:\n        /* \"#utility.yul\":6160:6163   */\n      dup3\n        /* \"#utility.yul\":6153:6187   */\n      mstore\n        /* \"#utility.yul\":6084:6193   */\n      pop\n      pop\n      jump\t// out\n        /* \"#utility.yul\":6199:6366   */\n    tag_528:\n        /* \"#utility.yul\":6304:6359   */\n      tag_530\n        /* \"#utility.yul\":6353:6358   */\n      dup2\n        /* \"#utility.yul\":6304:6359   */\n      tag_531\n      jump\t// in\n    tag_530:\n        /* \"#utility.yul\":6299:6302   */\n      dup3\n        /* \"#utility.yul\":6292:6360   */\n      mstore\n        /* \"#utility.yul\":6199:6366   */\n      pop\n      pop\n      jump\t// out\n        /* \"#utility.yul\":6372:6531   */\n    tag_532:\n        /* \"#utility.yul\":6473:6524   */\n      tag_534\n        /* \"#utility.yul\":6518:6523   */\n      dup2\n        /* \"#utility.yul\":6473:6524   */\n      tag_535\n      jump\t// in\n    tag_534:\n        /* \"#utility.yul\":6468:6471   */\n      dup3\n        /* \"#utility.yul\":6461:6525   */\n      mstore\n        /* \"#utility.yul\":6372:6531   */\n      pop\n      pop\n      jump\t// out\n        /* \"#utility.yul\":6537:6684   */\n    tag_536:\n        /* \"#utility.yul\":6632:6677   */\n      tag_538\n        /* \"#utility.yul\":6671:6676   */\n      dup2\n        /* \"#utility.yul\":6632:6677   */\n      tag_539\n      jump\t// in\n    tag_538:\n        /* \"#utility.yul\":6627:6630   */\n      dup3\n        /* \"#utility.yul\":6620:6678   */\n      mstore\n        /* \"#utility.yul\":6537:6684   */\n      pop\n      pop\n      jump\t// out\n        /* \"#utility.yul\":6690:6833   */\n    tag_540:\n        /* \"#utility.yul\":6783:6826   */\n      tag_542\n        /* \"#utility.yul\":6820:6825   */\n      dup2\n        /* \"#utility.yul\":6783:6826   */\n      tag_543\n      jump\t// in\n    tag_542:\n        /* \"#utility.yul\":6778:6781   */\n      dup3\n        /* \"#utility.yul\":6771:6827   */\n      mstore\n        /* \"#utility.yul\":6690:6833   */\n      pop\n      pop\n      jump\t// out\n        /* \"#utility.yul\":6839:6982   */\n    tag_544:\n        /* \"#utility.yul\":6932:6975   */\n      tag_546\n        /* \"#utility.yul\":6969:6974   */\n      dup2\n        /* \"#utility.yul\":6932:6975   */\n      tag_547\n      jump\t// in\n    tag_546:\n        /* \"#utility.yul\":6927:6930   */\n      dup3\n        /* \"#utility.yul\":6920:6976   */\n      mstore\n        /* \"#utility.yul\":6839:6982   */\n      pop\n      pop\n      jump\t// out\n        /* \"#utility.yul\":6988:7131   */\n    tag_548:\n        /* \"#utility.yul\":7081:7124   */\n      tag_550\n        /* \"#utility.yul\":7118:7123   */\n      dup2\n        /* \"#utility.yul\":7081:7124   */\n      tag_551\n      jump\t// in\n    tag_550:\n        /* \"#utility.yul\":7076:7079   */\n      dup3\n        /* \"#utility.yul\":7069:7125   */\n      mstore\n        /* \"#utility.yul\":6988:7131   */\n      pop\n      pop\n      jump\t// out\n        /* \"#utility.yul\":7137:7503   */\n    tag_552:\n        /* \"#utility.yul\":7279:7282   */\n      0x00\n        /* \"#utility.yul\":7300:7367   */\n      tag_554\n        /* \"#utility.yul\":7364:7366   */\n      0x14\n        /* \"#utility.yul\":7359:7362   */\n      dup4\n        /* \"#utility.yul\":7300:7367   */\n      tag_555\n      jump\t// in\n    tag_554:\n        /* \"#utility.yul\":7293:7367   */\n      swap2\n      pop\n        /* \"#utility.yul\":7376:7469   */\n      tag_556\n        /* \"#utility.yul\":7465:7468   */\n      dup3\n        /* \"#utility.yul\":7376:7469   */\n      tag_557\n      jump\t// in\n    tag_556:\n        /* \"#utility.yul\":7494:7496   */\n      0x20\n        /* \"#utility.yul\":7489:7492   */\n      dup3\n        /* \"#utility.yul\":7485:7497   */\n      add\n        /* \"#utility.yul\":7478:7497   */\n      swap1\n      pop\n        /* \"#utility.yul\":7137:7503   */\n      swap2\n      swap1\n      pop\n      jump\t// out\n        /* \"#utility.yul\":7509:7875   */\n    tag_558:\n        /* \"#utility.yul\":7651:7654   */\n      0x00\n        /* \"#utility.yul\":7672:7739   */\n      tag_560\n        /* \"#utility.yul\":7736:7738   */\n      0x26\n        /* \"#utility.yul\":7731:7734   */\n      dup4\n        /* \"#utility.yul\":7672:7739   */\n      tag_555\n      jump\t// in\n    tag_560:\n        /* \"#utility.yul\":7665:7739   */\n      swap2\n      pop\n        /* \"#utility.yul\":7748:7841   */\n      tag_561\n        /* \"#utility.yul\":7837:7840   */\n      dup3\n        /* \"#utility.yul\":7748:7841   */\n      tag_562\n      jump\t// in\n    tag_561:\n        /* \"#utility.yul\":7866:7868   */\n      0x40\n        /* \"#utility.yul\":7861:7864   */\n      dup3\n        /* \"#utility.yul\":7857:7869   */\n      add\n        /* \"#utility.yul\":7850:7869   */\n      swap1\n      pop\n        /* \"#utility.yul\":7509:7875   */\n      swap2\n      swap1\n      pop\n      jump\t// out\n        /* \"#utility.yul\":7881:8247   */\n    tag_563:\n        /* \"#utility.yul\":8023:8026   */\n      0x00\n        /* \"#utility.yul\":8044:8111   */\n      tag_565\n        /* \"#utility.yul\":8108:8110   */\n      0x1e\n        /* \"#utility.yul\":8103:8106   */\n      dup4\n        /* \"#utility.yul\":8044:8111   */\n      tag_555\n      jump\t// in\n    tag_565:\n        /* \"#utility.yul\":8037:8111   */\n      swap2\n      pop\n        /* \"#utility.yul\":8120:8213   */\n      tag_566\n        /* \"#utility.yul\":8209:8212   */\n      dup3\n        /* \"#utility.yul\":8120:8213   */\n      tag_567\n      jump\t// in\n    tag_566:\n        /* \"#utility.yul\":8238:8240   */\n      0x20\n        /* \"#utility.yul\":8233:8236   */\n      dup3\n        /* \"#utility.yul\":8229:8241   */\n      add\n        /* \"#utility.yul\":8222:8241   */\n      swap1\n      pop\n        /* \"#utility.yul\":7881:8247   */\n      swap2\n      swap1\n      pop\n      jump\t// out\n        /* \"#utility.yul\":8253:8619   */\n    tag_568:\n        /* \"#utility.yul\":8395:8398   */\n      0x00\n        /* \"#utility.yul\":8416:8483   */\n      tag_570\n        /* \"#utility.yul\":8480:8482   */\n      0x22\n        /* \"#utility.yul\":8475:8478   */\n      dup4\n        /* \"#utility.yul\":8416:8483   */\n      tag_555\n      jump\t// in\n    tag_570:\n        /* \"#utility.yul\":8409:8483   */\n      swap2\n      pop\n        /* \"#utility.yul\":8492:8585   */\n      tag_571\n        /* \"#utility.yul\":8581:8584   */\n      dup3\n        /* \"#utility.yul\":8492:8585   */\n      tag_572\n      jump\t// in\n    tag_571:\n        /* \"#utility.yul\":8610:8612   */\n      0x40\n        /* \"#utility.yul\":8605:8608   */\n      dup3\n        /* \"#utility.yul\":8601:8613   */\n      add\n        /* \"#utility.yul\":8594:8613   */\n      swap1\n      pop\n        /* \"#utility.yul\":8253:8619   */\n      swap2\n      swap1\n      pop\n      jump\t// out\n        /* \"#utility.yul\":8625:8991   */\n    tag_573:\n        /* \"#utility.yul\":8767:8770   */\n      0x00\n        /* \"#utility.yul\":8788:8855   */\n      tag_575\n        /* \"#utility.yul\":8852:8854   */\n      0x16\n        /* \"#utility.yul\":8847:8850   */\n      dup4\n        /* \"#utility.yul\":8788:8855   */\n      tag_555\n      jump\t// in\n    tag_575:\n        /* \"#utility.yul\":8781:8855   */\n      swap2\n      pop\n        /* \"#utility.yul\":8864:8957   */\n      tag_576\n        /* \"#utility.yul\":8953:8956   */\n      dup3\n        /* \"#utility.yul\":8864:8957   */\n      tag_577\n      jump\t// in\n    tag_576:\n        /* \"#utility.yul\":8982:8984   */\n      0x20\n        /* \"#utility.yul\":8977:8980   */\n      dup3\n        /* \"#utility.yul\":8973:8985   */\n      add\n        /* \"#utility.yul\":8966:8985   */\n      swap1\n      pop\n        /* \"#utility.yul\":8625:8991   */\n      swap2\n      swap1\n      pop\n      jump\t// out\n        /* \"#utility.yul\":8997:9363   */\n    tag_578:\n        /* \"#utility.yul\":9139:9142   */\n      0x00\n        /* \"#utility.yul\":9160:9227   */\n      tag_580\n        /* \"#utility.yul\":9224:9226   */\n      0x10\n        /* \"#utility.yul\":9219:9222   */\n      dup4\n        /* \"#utility.yul\":9160:9227   */\n      tag_555\n      jump\t// in\n    tag_580:\n        /* \"#utility.yul\":9153:9227   */\n      swap2\n      pop\n        /* \"#utility.yul\":9236:9329   */\n      tag_581\n        /* \"#utility.yul\":9325:9328   */\n      dup3\n        /* \"#utility.yul\":9236:9329   */\n      tag_582\n      jump\t// in\n    tag_581:\n        /* \"#utility.yul\":9354:9356   */\n      0x20\n        /* \"#utility.yul\":9349:9352   */\n      dup3\n        /* \"#utility.yul\":9345:9357   */\n      add\n        /* \"#utility.yul\":9338:9357   */\n      swap1\n      pop\n        /* \"#utility.yul\":8997:9363   */\n      swap2\n      swap1\n      pop\n      jump\t// out\n        /* \"#utility.yul\":9369:9735   */\n    tag_583:\n        /* \"#utility.yul\":9511:9514   */\n      0x00\n        /* \"#utility.yul\":9532:9599   */\n      tag_585\n        /* \"#utility.yul\":9596:9598   */\n      0x16\n        /* \"#utility.yul\":9591:9594   */\n      dup4\n        /* \"#utility.yul\":9532:9599   */\n      tag_555\n      jump\t// in\n    tag_585:\n        /* \"#utility.yul\":9525:9599   */\n      swap2\n      pop\n        /* \"#utility.yul\":9608:9701   */\n      tag_586\n        /* \"#utility.yul\":9697:9700   */\n      dup3\n        /* \"#utility.yul\":9608:9701   */\n      tag_587\n      jump\t// in\n    tag_586:\n        /* \"#utility.yul\":9726:9728   */\n      0x20\n        /* \"#utility.yul\":9721:9724   */\n      dup3\n        /* \"#utility.yul\":9717:9729   */\n      add\n        /* \"#utility.yul\":9710:9729   */\n      swap1\n      pop\n        /* \"#utility.yul\":9369:9735   */\n      swap2\n      swap1\n      pop\n      jump\t// out\n        /* \"#utility.yul\":9741:10107   */\n    tag_588:\n        /* \"#utility.yul\":9883:9886   */\n      0x00\n        /* \"#utility.yul\":9904:9971   */\n      tag_590\n        /* \"#utility.yul\":9968:9970   */\n      0x32\n        /* \"#utility.yul\":9963:9966   */\n      dup4\n        /* \"#utility.yul\":9904:9971   */\n      tag_555\n      jump\t// in\n    tag_590:\n        /* \"#utility.yul\":9897:9971   */\n      swap2\n      pop\n        /* \"#utility.yul\":9980:10073   */\n      tag_591\n        /* \"#utility.yul\":10069:10072   */\n      dup3\n        /* \"#utility.yul\":9980:10073   */\n      tag_592\n      jump\t// in\n    tag_591:\n        /* \"#utility.yul\":10098:10100   */\n      0x40\n        /* \"#utility.yul\":10093:10096   */\n      dup3\n        /* \"#utility.yul\":10089:10101   */\n      add\n        /* \"#utility.yul\":10082:10101   */\n      swap1\n      pop\n        /* \"#utility.yul\":9741:10107   */\n      swap2\n      swap1\n      pop\n      jump\t// out\n        /* \"#utility.yul\":10113:10479   */\n    tag_593:\n        /* \"#utility.yul\":10255:10258   */\n      0x00\n        /* \"#utility.yul\":10276:10343   */\n      tag_595\n        /* \"#utility.yul\":10340:10342   */\n      0x20\n        /* \"#utility.yul\":10335:10338   */\n      dup4\n        /* \"#utility.yul\":10276:10343   */\n      tag_555\n      jump\t// in\n    tag_595:\n        /* \"#utility.yul\":10269:10343   */\n      swap2\n      pop\n        /* \"#utility.yul\":10352:10445   */\n      tag_596\n        /* \"#utility.yul\":10441:10444   */\n      dup3\n        /* \"#utility.yul\":10352:10445   */\n      tag_597\n      jump\t// in\n    tag_596:\n        /* \"#utility.yul\":10470:10472   */\n      0x20\n        /* \"#utility.yul\":10465:10468   */\n      dup3\n        /* \"#utility.yul\":10461:10473   */\n      add\n        /* \"#utility.yul\":10454:10473   */\n      swap1\n      pop\n        /* \"#utility.yul\":10113:10479   */\n      swap2\n      swap1\n      pop\n      jump\t// out\n        /* \"#utility.yul\":10485:10851   */\n    tag_598:\n        /* \"#utility.yul\":10627:10630   */\n      0x00\n        /* \"#utility.yul\":10648:10715   */\n      tag_600\n        /* \"#utility.yul\":10712:10714   */\n      0x0f\n        /* \"#utility.yul\":10707:10710   */\n      dup4\n        /* \"#utility.yul\":10648:10715   */\n      tag_555\n      jump\t// in\n    tag_600:\n        /* \"#utility.yul\":10641:10715   */\n      swap2\n      pop\n        /* \"#utility.yul\":10724:10817   */\n      tag_601\n        /* \"#utility.yul\":10813:10816   */\n      dup3\n        /* \"#utility.yul\":10724:10817   */\n      tag_602\n      jump\t// in\n    tag_601:\n        /* \"#utility.yul\":10842:10844   */\n      0x20\n        /* \"#utility.yul\":10837:10840   */\n      dup3\n        /* \"#utility.yul\":10833:10845   */\n      add\n        /* \"#utility.yul\":10826:10845   */\n      swap1\n      pop\n        /* \"#utility.yul\":10485:10851   */\n      swap2\n      swap1\n      pop\n      jump\t// out\n        /* \"#utility.yul\":10857:11223   */\n    tag_603:\n        /* \"#utility.yul\":10999:11002   */\n      0x00\n        /* \"#utility.yul\":11020:11087   */\n      tag_605\n        /* \"#utility.yul\":11084:11086   */\n      0x1f\n        /* \"#utility.yul\":11079:11082   */\n      dup4\n        /* \"#utility.yul\":11020:11087   */\n      tag_555\n      jump\t// in\n    tag_605:\n        /* \"#utility.yul\":11013:11087   */\n      swap2\n      pop\n        /* \"#utility.yul\":11096:11189   */\n      tag_606\n        /* \"#utility.yul\":11185:11188   */\n      dup3\n        /* \"#utility.yul\":11096:11189   */\n      tag_607\n      jump\t// in\n    tag_606:\n        /* \"#utility.yul\":11214:11216   */\n      0x20\n        /* \"#utility.yul\":11209:11212   */\n      dup3\n        /* \"#utility.yul\":11205:11217   */\n      add\n        /* \"#utility.yul\":11198:11217   */\n      swap1\n      pop\n        /* \"#utility.yul\":10857:11223   */\n      swap2\n      swap1\n      pop\n      jump\t// out\n        /* \"#utility.yul\":11229:11347   */\n    tag_608:\n        /* \"#utility.yul\":11316:11340   */\n      tag_610\n        /* \"#utility.yul\":11334:11339   */\n      dup2\n        /* \"#utility.yul\":11316:11340   */\n      tag_611\n      jump\t// in\n    tag_610:\n        /* \"#utility.yul\":11311:11314   */\n      dup3\n        /* \"#utility.yul\":11304:11341   */\n      mstore\n        /* \"#utility.yul\":11229:11347   */\n      pop\n      pop\n      jump\t// out\n        /* \"#utility.yul\":11353:11575   */\n    tag_119:\n        /* \"#utility.yul\":11446:11450   */\n      0x00\n        /* \"#utility.yul\":11484:11486   */\n      0x20\n        /* \"#utility.yul\":11473:11482   */\n      dup3\n        /* \"#utility.yul\":11469:11487   */\n      add\n        /* \"#utility.yul\":11461:11487   */\n      swap1\n      pop\n        /* \"#utility.yul\":11497:11568   */\n      tag_613\n        /* \"#utility.yul\":11565:11566   */\n      0x00\n        /* \"#utility.yul\":11554:11563   */\n      dup4\n        /* \"#utility.yul\":11550:11567   */\n      add\n        /* \"#utility.yul\":11541:11547   */\n      dup5\n        /* \"#utility.yul\":11497:11568   */\n      tag_507\n      jump\t// in\n    tag_613:\n        /* \"#utility.yul\":11353:11575   */\n      swap3\n      swap2\n      pop\n      pop\n      jump\t// out\n        /* \"#utility.yul\":11581:12023   */\n    tag_181:\n        /* \"#utility.yul\":11730:11734   */\n      0x00\n        /* \"#utility.yul\":11768:11770   */\n      0x60\n        /* \"#utility.yul\":11757:11766   */\n      dup3\n        /* \"#utility.yul\":11753:11771   */\n      add\n        /* \"#utility.yul\":11745:11771   */\n      swap1\n      pop\n        /* \"#utility.yul\":11781:11852   */\n      tag_615\n        /* \"#utility.yul\":11849:11850   */\n      0x00\n        /* \"#utility.yul\":11838:11847   */\n      dup4\n        /* \"#utility.yul\":11834:11851   */\n      add\n        /* \"#utility.yul\":11825:11831   */\n      dup7\n        /* \"#utility.yul\":11781:11852   */\n      tag_507\n      jump\t// in\n    tag_615:\n        /* \"#utility.yul\":11862:11934   */\n      tag_616\n        /* \"#utility.yul\":11930:11932   */\n      0x20\n        /* \"#utility.yul\":11919:11928   */\n      dup4\n        /* \"#utility.yul\":11915:11933   */\n      add\n        /* \"#utility.yul\":11906:11912   */\n      dup6\n        /* \"#utility.yul\":11862:11934   */\n      tag_507\n      jump\t// in\n    tag_616:\n        /* \"#utility.yul\":11944:12016   */\n      tag_617\n        /* \"#utility.yul\":12012:12014   */\n      0x40\n        /* \"#utility.yul\":12001:12010   */\n      dup4\n        /* \"#utility.yul\":11997:12015   */\n      add\n        /* \"#utility.yul\":11988:11994   */\n      dup5\n        /* \"#utility.yul\":11944:12016   */\n      tag_608\n      jump\t// in\n    tag_617:\n        /* \"#utility.yul\":11581:12023   */\n      swap5\n      swap4\n      pop\n      pop\n      pop\n      pop\n      jump\t// out\n        /* \"#utility.yul\":12029:12693   */\n    tag_286:\n        /* \"#utility.yul\":12234:12238   */\n      0x00\n        /* \"#utility.yul\":12272:12275   */\n      0xa0\n        /* \"#utility.yul\":12261:12270   */\n      dup3\n        /* \"#utility.yul\":12257:12276   */\n      add\n        /* \"#utility.yul\":12249:12276   */\n      swap1\n      pop\n        /* \"#utility.yul\":12286:12357   */\n      tag_619\n        /* \"#utility.yul\":12354:12355   */\n      0x00\n        /* \"#utility.yul\":12343:12352   */\n      dup4\n        /* \"#utility.yul\":12339:12356   */\n      add\n        /* \"#utility.yul\":12330:12336   */\n      dup9\n        /* \"#utility.yul\":12286:12357   */\n      tag_507\n      jump\t// in\n    tag_619:\n        /* \"#utility.yul\":12367:12445   */\n      tag_620\n        /* \"#utility.yul\":12441:12443   */\n      0x20\n        /* \"#utility.yul\":12430:12439   */\n      dup4\n        /* \"#utility.yul\":12426:12444   */\n      add\n        /* \"#utility.yul\":12417:12423   */\n      dup8\n        /* \"#utility.yul\":12367:12445   */\n      tag_540\n      jump\t// in\n    tag_620:\n        /* \"#utility.yul\":12455:12521   */\n      tag_621\n        /* \"#utility.yul\":12517:12519   */\n      0x40\n        /* \"#utility.yul\":12506:12515   */\n      dup4\n        /* \"#utility.yul\":12502:12520   */\n      add\n        /* \"#utility.yul\":12493:12499   */\n      dup7\n        /* \"#utility.yul\":12455:12521   */\n      tag_524\n      jump\t// in\n    tag_621:\n        /* \"#utility.yul\":12531:12603   */\n      tag_622\n        /* \"#utility.yul\":12599:12601   */\n      0x60\n        /* \"#utility.yul\":12588:12597   */\n      dup4\n        /* \"#utility.yul\":12584:12602   */\n      add\n        /* \"#utility.yul\":12575:12581   */\n      dup6\n        /* \"#utility.yul\":12531:12603   */\n      tag_608\n      jump\t// in\n    tag_622:\n        /* \"#utility.yul\":12613:12686   */\n      tag_623\n        /* \"#utility.yul\":12681:12684   */\n      0x80\n        /* \"#utility.yul\":12670:12679   */\n      dup4\n        /* \"#utility.yul\":12666:12685   */\n      add\n        /* \"#utility.yul\":12657:12663   */\n      dup5\n        /* \"#utility.yul\":12613:12686   */\n      tag_608\n      jump\t// in\n    tag_623:\n        /* \"#utility.yul\":12029:12693   */\n      swap7\n      swap6\n      pop\n      pop\n      pop\n      pop\n      pop\n      pop\n      jump\t// out\n        /* \"#utility.yul\":12699:13375   */\n    tag_386:\n        /* \"#utility.yul\":12910:12914   */\n      0x00\n        /* \"#utility.yul\":12948:12951   */\n      0xa0\n        /* \"#utility.yul\":12937:12946   */\n      dup3\n        /* \"#utility.yul\":12933:12952   */\n      add\n        /* \"#utility.yul\":12925:12952   */\n      swap1\n      pop\n        /* \"#utility.yul\":12962:13033   */\n      tag_625\n        /* \"#utility.yul\":13030:13031   */\n      0x00\n        /* \"#utility.yul\":13019:13028   */\n      dup4\n        /* \"#utility.yul\":13015:13032   */\n      add\n        /* \"#utility.yul\":13006:13012   */\n      dup9\n        /* \"#utility.yul\":12962:13033   */\n      tag_507\n      jump\t// in\n    tag_625:\n        /* \"#utility.yul\":13043:13121   */\n      tag_626\n        /* \"#utility.yul\":13117:13119   */\n      0x20\n        /* \"#utility.yul\":13106:13115   */\n      dup4\n        /* \"#utility.yul\":13102:13120   */\n      add\n        /* \"#utility.yul\":13093:13099   */\n      dup8\n        /* \"#utility.yul\":13043:13121   */\n      tag_540\n      jump\t// in\n    tag_626:\n        /* \"#utility.yul\":13131:13203   */\n      tag_627\n        /* \"#utility.yul\":13199:13201   */\n      0x40\n        /* \"#utility.yul\":13188:13197   */\n      dup4\n        /* \"#utility.yul\":13184:13202   */\n      add\n        /* \"#utility.yul\":13175:13181   */\n      dup7\n        /* \"#utility.yul\":13131:13203   */\n      tag_608\n      jump\t// in\n    tag_627:\n        /* \"#utility.yul\":13213:13285   */\n      tag_628\n        /* \"#utility.yul\":13281:13283   */\n      0x60\n        /* \"#utility.yul\":13270:13279   */\n      dup4\n        /* \"#utility.yul\":13266:13284   */\n      add\n        /* \"#utility.yul\":13257:13263   */\n      dup6\n        /* \"#utility.yul\":13213:13285   */\n      tag_608\n      jump\t// in\n    tag_628:\n        /* \"#utility.yul\":13295:13368   */\n      tag_629\n        /* \"#utility.yul\":13363:13366   */\n      0x80\n        /* \"#utility.yul\":13352:13361   */\n      dup4\n        /* \"#utility.yul\":13348:13367   */\n      add\n        /* \"#utility.yul\":13339:13345   */\n      dup5\n        /* \"#utility.yul\":13295:13368   */\n      tag_608\n      jump\t// in\n    tag_629:\n        /* \"#utility.yul\":12699:13375   */\n      swap7\n      swap6\n      pop\n      pop\n      pop\n      pop\n      pop\n      pop\n      jump\t// out\n        /* \"#utility.yul\":13381:14045   */\n    tag_312:\n        /* \"#utility.yul\":13586:13590   */\n      0x00\n        /* \"#utility.yul\":13624:13627   */\n      0xa0\n        /* \"#utility.yul\":13613:13622   */\n      dup3\n        /* \"#utility.yul\":13609:13628   */\n      add\n        /* \"#utility.yul\":13601:13628   */\n      swap1\n      pop\n        /* \"#utility.yul\":13638:13709   */\n      tag_631\n        /* \"#utility.yul\":13706:13707   */\n      0x00\n        /* \"#utility.yul\":13695:13704   */\n      dup4\n        /* \"#utility.yul\":13691:13708   */\n      add\n        /* \"#utility.yul\":13682:13688   */\n      dup9\n        /* \"#utility.yul\":13638:13709   */\n      tag_507\n      jump\t// in\n    tag_631:\n        /* \"#utility.yul\":13719:13797   */\n      tag_632\n        /* \"#utility.yul\":13793:13795   */\n      0x20\n        /* \"#utility.yul\":13782:13791   */\n      dup4\n        /* \"#utility.yul\":13778:13796   */\n      add\n        /* \"#utility.yul\":13769:13775   */\n      dup8\n        /* \"#utility.yul\":13719:13797   */\n      tag_544\n      jump\t// in\n    tag_632:\n        /* \"#utility.yul\":13807:13873   */\n      tag_633\n        /* \"#utility.yul\":13869:13871   */\n      0x40\n        /* \"#utility.yul\":13858:13867   */\n      dup4\n        /* \"#utility.yul\":13854:13872   */\n      add\n        /* \"#utility.yul\":13845:13851   */\n      dup7\n        /* \"#utility.yul\":13807:13873   */\n      tag_524\n      jump\t// in\n    tag_633:\n        /* \"#utility.yul\":13883:13955   */\n      tag_634\n        /* \"#utility.yul\":13951:13953   */\n      0x60\n        /* \"#utility.yul\":13940:13949   */\n      dup4\n        /* \"#utility.yul\":13936:13954   */\n      add\n        /* \"#utility.yul\":13927:13933   */\n      dup6\n        /* \"#utility.yul\":13883:13955   */\n      tag_608\n      jump\t// in\n    tag_634:\n        /* \"#utility.yul\":13965:14038   */\n      tag_635\n        /* \"#utility.yul\":14033:14036   */\n      0x80\n        /* \"#utility.yul\":14022:14031   */\n      dup4\n        /* \"#utility.yul\":14018:14037   */\n      add\n        /* \"#utility.yul\":14009:14015   */\n      dup5\n        /* \"#utility.yul\":13965:14038   */\n      tag_608\n      jump\t// in\n    tag_635:\n        /* \"#utility.yul\":13381:14045   */\n      swap7\n      swap6\n      pop\n      pop\n      pop\n      pop\n      pop\n      pop\n      jump\t// out\n        /* \"#utility.yul\":14051:14727   */\n    tag_191:\n        /* \"#utility.yul\":14262:14266   */\n      0x00\n        /* \"#utility.yul\":14300:14303   */\n      0xa0\n        /* \"#utility.yul\":14289:14298   */\n      dup3\n        /* \"#utility.yul\":14285:14304   */\n      add\n        /* \"#utility.yul\":14277:14304   */\n      swap1\n      pop\n        /* \"#utility.yul\":14314:14385   */\n      tag_637\n        /* \"#utility.yul\":14382:14383   */\n      0x00\n        /* \"#utility.yul\":14371:14380   */\n      dup4\n        /* \"#utility.yul\":14367:14384   */\n      add\n        /* \"#utility.yul\":14358:14364   */\n      dup9\n        /* \"#utility.yul\":14314:14385   */\n      tag_507\n      jump\t// in\n    tag_637:\n        /* \"#utility.yul\":14395:14473   */\n      tag_638\n        /* \"#utility.yul\":14469:14471   */\n      0x20\n        /* \"#utility.yul\":14458:14467   */\n      dup4\n        /* \"#utility.yul\":14454:14472   */\n      add\n        /* \"#utility.yul\":14445:14451   */\n      dup8\n        /* \"#utility.yul\":14395:14473   */\n      tag_544\n      jump\t// in\n    tag_638:\n        /* \"#utility.yul\":14483:14555   */\n      tag_639\n        /* \"#utility.yul\":14551:14553   */\n      0x40\n        /* \"#utility.yul\":14540:14549   */\n      dup4\n        /* \"#utility.yul\":14536:14554   */\n      add\n        /* \"#utility.yul\":14527:14533   */\n      dup7\n        /* \"#utility.yul\":14483:14555   */\n      tag_608\n      jump\t// in\n    tag_639:\n        /* \"#utility.yul\":14565:14637   */\n      tag_640\n        /* \"#utility.yul\":14633:14635   */\n      0x60\n        /* \"#utility.yul\":14622:14631   */\n      dup4\n        /* \"#utility.yul\":14618:14636   */\n      add\n        /* \"#utility.yul\":14609:14615   */\n      dup6\n        /* \"#utility.yul\":14565:14637   */\n      tag_608\n      jump\t// in\n    tag_640:\n        /* \"#utility.yul\":14647:14720   */\n      tag_641\n        /* \"#utility.yul\":14715:14718   */\n      0x80\n        /* \"#utility.yul\":14704:14713   */\n      dup4\n        /* \"#utility.yul\":14700:14719   */\n      add\n        /* \"#utility.yul\":14691:14697   */\n      dup5\n        /* \"#utility.yul\":14647:14720   */\n      tag_608\n      jump\t// in\n    tag_641:\n        /* \"#utility.yul\":14051:14727   */\n      swap7\n      swap6\n      pop\n      pop\n      pop\n      pop\n      pop\n      pop\n      jump\t// out\n        /* \"#utility.yul\":14733:15397   */\n    tag_232:\n        /* \"#utility.yul\":14938:14942   */\n      0x00\n        /* \"#utility.yul\":14976:14979   */\n      0xa0\n        /* \"#utility.yul\":14965:14974   */\n      dup3\n        /* \"#utility.yul\":14961:14980   */\n      add\n        /* \"#utility.yul\":14953:14980   */\n      swap1\n      pop\n        /* \"#utility.yul\":14990:15061   */\n      tag_643\n        /* \"#utility.yul\":15058:15059   */\n      0x00\n        /* \"#utility.yul\":15047:15056   */\n      dup4\n        /* \"#utility.yul\":15043:15060   */\n      add\n        /* \"#utility.yul\":15034:15040   */\n      dup9\n        /* \"#utility.yul\":14990:15061   */\n      tag_507\n      jump\t// in\n    tag_643:\n        /* \"#utility.yul\":15071:15149   */\n      tag_644\n        /* \"#utility.yul\":15145:15147   */\n      0x20\n        /* \"#utility.yul\":15134:15143   */\n      dup4\n        /* \"#utility.yul\":15130:15148   */\n      add\n        /* \"#utility.yul\":15121:15127   */\n      dup8\n        /* \"#utility.yul\":15071:15149   */\n      tag_548\n      jump\t// in\n    tag_644:\n        /* \"#utility.yul\":15159:15225   */\n      tag_645\n        /* \"#utility.yul\":15221:15223   */\n      0x40\n        /* \"#utility.yul\":15210:15219   */\n      dup4\n        /* \"#utility.yul\":15206:15224   */\n      add\n        /* \"#utility.yul\":15197:15203   */\n      dup7\n        /* \"#utility.yul\":15159:15225   */\n      tag_524\n      jump\t// in\n    tag_645:\n        /* \"#utility.yul\":15235:15307   */\n      tag_646\n        /* \"#utility.yul\":15303:15305   */\n      0x60\n        /* \"#utility.yul\":15292:15301   */\n      dup4\n        /* \"#utility.yul\":15288:15306   */\n      add\n        /* \"#utility.yul\":15279:15285   */\n      dup6\n        /* \"#utility.yul\":15235:15307   */\n      tag_608\n      jump\t// in\n    tag_646:\n        /* \"#utility.yul\":15317:15390   */\n      tag_647\n        /* \"#utility.yul\":15385:15388   */\n      0x80\n        /* \"#utility.yul\":15374:15383   */\n      dup4\n        /* \"#utility.yul\":15370:15389   */\n      add\n        /* \"#utility.yul\":15361:15367   */\n      dup5\n        /* \"#utility.yul\":15317:15390   */\n      tag_608\n      jump\t// in\n    tag_647:\n        /* \"#utility.yul\":14733:15397   */\n      swap7\n      swap6\n      pop\n      pop\n      pop\n      pop\n      pop\n      pop\n      jump\t// out\n        /* \"#utility.yul\":15403:16079   */\n    tag_332:\n        /* \"#utility.yul\":15614:15618   */\n      0x00\n        /* \"#utility.yul\":15652:15655   */\n      0xa0\n        /* \"#utility.yul\":15641:15650   */\n      dup3\n        /* \"#utility.yul\":15637:15656   */\n      add\n        /* \"#utility.yul\":15629:15656   */\n      swap1\n      pop\n        /* \"#utility.yul\":15666:15737   */\n      tag_649\n        /* \"#utility.yul\":15734:15735   */\n      0x00\n        /* \"#utility.yul\":15723:15732   */\n      dup4\n        /* \"#utility.yul\":15719:15736   */\n      add\n        /* \"#utility.yul\":15710:15716   */\n      dup9\n        /* \"#utility.yul\":15666:15737   */\n      tag_507\n      jump\t// in\n    tag_649:\n        /* \"#utility.yul\":15747:15825   */\n      tag_650\n        /* \"#utility.yul\":15821:15823   */\n      0x20\n        /* \"#utility.yul\":15810:15819   */\n      dup4\n        /* \"#utility.yul\":15806:15824   */\n      add\n        /* \"#utility.yul\":15797:15803   */\n      dup8\n        /* \"#utility.yul\":15747:15825   */\n      tag_548\n      jump\t// in\n    tag_650:\n        /* \"#utility.yul\":15835:15907   */\n      tag_651\n        /* \"#utility.yul\":15903:15905   */\n      0x40\n        /* \"#utility.yul\":15892:15901   */\n      dup4\n        /* \"#utility.yul\":15888:15906   */\n      add\n        /* \"#utility.yul\":15879:15885   */\n      dup7\n        /* \"#utility.yul\":15835:15907   */\n      tag_608\n      jump\t// in\n    tag_651:\n        /* \"#utility.yul\":15917:15989   */\n      tag_652\n        /* \"#utility.yul\":15985:15987   */\n      0x60\n        /* \"#utility.yul\":15974:15983   */\n      dup4\n        /* \"#utility.yul\":15970:15988   */\n      add\n        /* \"#utility.yul\":15961:15967   */\n      dup6\n        /* \"#utility.yul\":15917:15989   */\n      tag_608\n      jump\t// in\n    tag_652:\n        /* \"#utility.yul\":15999:16072   */\n      tag_653\n        /* \"#utility.yul\":16067:16070   */\n      0x80\n        /* \"#utility.yul\":16056:16065   */\n      dup4\n        /* \"#utility.yul\":16052:16071   */\n      add\n        /* \"#utility.yul\":16043:16049   */\n      dup5\n        /* \"#utility.yul\":15999:16072   */\n      tag_608\n      jump\t// in\n    tag_653:\n        /* \"#utility.yul\":15403:16079   */\n      swap7\n      swap6\n      pop\n      pop\n      pop\n      pop\n      pop\n      pop\n      jump\t// out\n        /* \"#utility.yul\":16085:16417   */\n    tag_218:\n        /* \"#utility.yul\":16206:16210   */\n      0x00\n        /* \"#utility.yul\":16244:16246   */\n      0x40\n        /* \"#utility.yul\":16233:16242   */\n      dup3\n        /* \"#utility.yul\":16229:16247   */\n      add\n        /* \"#utility.yul\":16221:16247   */\n      swap1\n      pop\n        /* \"#utility.yul\":16257:16328   */\n      tag_655\n        /* \"#utility.yul\":16325:16326   */\n      0x00\n        /* \"#utility.yul\":16314:16323   */\n      dup4\n        /* \"#utility.yul\":16310:16327   */\n      add\n        /* \"#utility.yul\":16301:16307   */\n      dup6\n        /* \"#utility.yul\":16257:16328   */\n      tag_507\n      jump\t// in\n    tag_655:\n        /* \"#utility.yul\":16338:16410   */\n      tag_656\n        /* \"#utility.yul\":16406:16408   */\n      0x20\n        /* \"#utility.yul\":16395:16404   */\n      dup4\n        /* \"#utility.yul\":16391:16409   */\n      add\n        /* \"#utility.yul\":16382:16388   */\n      dup5\n        /* \"#utility.yul\":16338:16410   */\n      tag_608\n      jump\t// in\n    tag_656:\n        /* \"#utility.yul\":16085:16417   */\n      swap4\n      swap3\n      pop\n      pop\n      pop\n      jump\t// out\n        /* \"#utility.yul\":16423:16633   */\n    tag_72:\n        /* \"#utility.yul\":16510:16514   */\n      0x00\n        /* \"#utility.yul\":16548:16550   */\n      0x20\n        /* \"#utility.yul\":16537:16546   */\n      dup3\n        /* \"#utility.yul\":16533:16551   */\n      add\n        /* \"#utility.yul\":16525:16551   */\n      swap1\n      pop\n        /* \"#utility.yul\":16561:16626   */\n      tag_658\n        /* \"#utility.yul\":16623:16624   */\n      0x00\n        /* \"#utility.yul\":16612:16621   */\n      dup4\n        /* \"#utility.yul\":16608:16625   */\n      add\n        /* \"#utility.yul\":16599:16605   */\n      dup5\n        /* \"#utility.yul\":16561:16626   */\n      tag_524\n      jump\t// in\n    tag_658:\n        /* \"#utility.yul\":16423:16633   */\n      swap3\n      swap2\n      pop\n      pop\n      jump\t// out\n        /* \"#utility.yul\":16639:16897   */\n    tag_52:\n        /* \"#utility.yul\":16750:16754   */\n      0x00\n        /* \"#utility.yul\":16788:16790   */\n      0x20\n        /* \"#utility.yul\":16777:16786   */\n      dup3\n        /* \"#utility.yul\":16773:16791   */\n      add\n        /* \"#utility.yul\":16765:16791   */\n      swap1\n      pop\n        /* \"#utility.yul\":16801:16890   */\n      tag_660\n        /* \"#utility.yul\":16887:16888   */\n      0x00\n        /* \"#utility.yul\":16876:16885   */\n      dup4\n        /* \"#utility.yul\":16872:16889   */\n      add\n        /* \"#utility.yul\":16863:16869   */\n      dup5\n        /* \"#utility.yul\":16801:16890   */\n      tag_528\n      jump\t// in\n    tag_660:\n        /* \"#utility.yul\":16639:16897   */\n      swap3\n      swap2\n      pop\n      pop\n      jump\t// out\n        /* \"#utility.yul\":16903:17153   */\n    tag_68:\n        /* \"#utility.yul\":17010:17014   */\n      0x00\n        /* \"#utility.yul\":17048:17050   */\n      0x20\n        /* \"#utility.yul\":17037:17046   */\n      dup3\n        /* \"#utility.yul\":17033:17051   */\n      add\n        /* \"#utility.yul\":17025:17051   */\n      swap1\n      pop\n        /* \"#utility.yul\":17061:17146   */\n      tag_662\n        /* \"#utility.yul\":17143:17144   */\n      0x00\n        /* \"#utility.yul\":17132:17141   */\n      dup4\n        /* \"#utility.yul\":17128:17145   */\n      add\n        /* \"#utility.yul\":17119:17125   */\n      dup5\n        /* \"#utility.yul\":17061:17146   */\n      tag_532\n      jump\t// in\n    tag_662:\n        /* \"#utility.yul\":16903:17153   */\n      swap3\n      swap2\n      pop\n      pop\n      jump\t// out\n        /* \"#utility.yul\":17159:17578   */\n    tag_392:\n        /* \"#utility.yul\":17325:17329   */\n      0x00\n        /* \"#utility.yul\":17363:17365   */\n      0x20\n        /* \"#utility.yul\":17352:17361   */\n      dup3\n        /* \"#utility.yul\":17348:17366   */\n      add\n        /* \"#utility.yul\":17340:17366   */\n      swap1\n      pop\n        /* \"#utility.yul\":17412:17421   */\n      dup2\n        /* \"#utility.yul\":17406:17410   */\n      dup2\n        /* \"#utility.yul\":17402:17422   */\n      sub\n        /* \"#utility.yul\":17398:17399   */\n      0x00\n        /* \"#utility.yul\":17387:17396   */\n      dup4\n        /* \"#utility.yul\":17383:17400   */\n      add\n        /* \"#utility.yul\":17376:17423   */\n      mstore\n        /* \"#utility.yul\":17440:17571   */\n      tag_664\n        /* \"#utility.yul\":17566:17570   */\n      dup2\n        /* \"#utility.yul\":17440:17571   */\n      tag_552\n      jump\t// in\n    tag_664:\n        /* \"#utility.yul\":17432:17571   */\n      swap1\n      pop\n        /* \"#utility.yul\":17159:17578   */\n      swap2\n      swap1\n      pop\n      jump\t// out\n        /* \"#utility.yul\":17584:18003   */\n    tag_353:\n        /* \"#utility.yul\":17750:17754   */\n      0x00\n        /* \"#utility.yul\":17788:17790   */\n      0x20\n        /* \"#utility.yul\":17777:17786   */\n      dup3\n        /* \"#utility.yul\":17773:17791   */\n      add\n        /* \"#utility.yul\":17765:17791   */\n      swap1\n      pop\n        /* \"#utility.yul\":17837:17846   */\n      dup2\n        /* \"#utility.yul\":17831:17835   */\n      dup2\n        /* \"#utility.yul\":17827:17847   */\n      sub\n        /* \"#utility.yul\":17823:17824   */\n      0x00\n        /* \"#utility.yul\":17812:17821   */\n      dup4\n        /* \"#utility.yul\":17808:17825   */\n      add\n        /* \"#utility.yul\":17801:17848   */\n      mstore\n        /* \"#utility.yul\":17865:17996   */\n      tag_666\n        /* \"#utility.yul\":17991:17995   */\n      dup2\n        /* \"#utility.yul\":17865:17996   */\n      tag_558\n      jump\t// in\n    tag_666:\n        /* \"#utility.yul\":17857:17996   */\n      swap1\n      pop\n        /* \"#utility.yul\":17584:18003   */\n      swap2\n      swap1\n      pop\n      jump\t// out\n        /* \"#utility.yul\":18009:18428   */\n    tag_209:\n        /* \"#utility.yul\":18175:18179   */\n      0x00\n        /* \"#utility.yul\":18213:18215   */\n      0x20\n        /* \"#utility.yul\":18202:18211   */\n      dup3\n        /* \"#utility.yul\":18198:18216   */\n      add\n        /* \"#utility.yul\":18190:18216   */\n      swap1\n      pop\n        /* \"#utility.yul\":18262:18271   */\n      dup2\n        /* \"#utility.yul\":18256:18260   */\n      dup2\n        /* \"#utility.yul\":18252:18272   */\n      sub\n        /* \"#utility.yul\":18248:18249   */\n      0x00\n        /* \"#utility.yul\":18237:18246   */\n      dup4\n        /* \"#utility.yul\":18233:18250   */\n      add\n        /* \"#utility.yul\":18226:18273   */\n      mstore\n        /* \"#utility.yul\":18290:18421   */\n      tag_668\n        /* \"#utility.yul\":18416:18420   */\n      dup2\n        /* \"#utility.yul\":18290:18421   */\n      tag_563\n      jump\t// in\n    tag_668:\n        /* \"#utility.yul\":18282:18421   */\n      swap1\n      pop\n        /* \"#utility.yul\":18009:18428   */\n      swap2\n      swap1\n      pop\n      jump\t// out\n        /* \"#utility.yul\":18434:18853   */\n    tag_179:\n        /* \"#utility.yul\":18600:18604   */\n      0x00\n        /* \"#utility.yul\":18638:18640   */\n      0x20\n        /* \"#utility.yul\":18627:18636   */\n      dup3\n        /* \"#utility.yul\":18623:18641   */\n      add\n        /* \"#utility.yul\":18615:18641   */\n      swap1\n      pop\n        /* \"#utility.yul\":18687:18696   */\n      dup2\n        /* \"#utility.yul\":18681:18685   */\n      dup2\n        /* \"#utility.yul\":18677:18697   */\n      sub\n        /* \"#utility.yul\":18673:18674   */\n      0x00\n        /* \"#utility.yul\":18662:18671   */\n      dup4\n        /* \"#utility.yul\":18658:18675   */\n      add\n        /* \"#utility.yul\":18651:18698   */\n      mstore\n        /* \"#utility.yul\":18715:18846   */\n      tag_670\n        /* \"#utility.yul\":18841:18845   */\n      dup2\n        /* \"#utility.yul\":18715:18846   */\n      tag_568\n      jump\t// in\n    tag_670:\n        /* \"#utility.yul\":18707:18846   */\n      swap1\n      pop\n        /* \"#utility.yul\":18434:18853   */\n      swap2\n      swap1\n      pop\n      jump\t// out\n        /* \"#utility.yul\":18859:19278   */\n    tag_290:\n        /* \"#utility.yul\":19025:19029   */\n      0x00\n        /* \"#utility.yul\":19063:19065   */\n      0x20\n        /* \"#utility.yul\":19052:19061   */\n      dup3\n        /* \"#utility.yul\":19048:19066   */\n      add\n        /* \"#utility.yul\":19040:19066   */\n      swap1\n      pop\n        /* \"#utility.yul\":19112:19121   */\n      dup2\n        /* \"#utility.yul\":19106:19110   */\n      dup2\n        /* \"#utility.yul\":19102:19122   */\n      sub\n        /* \"#utility.yul\":19098:19099   */\n      0x00\n        /* \"#utility.yul\":19087:19096   */\n      dup4\n        /* \"#utility.yul\":19083:19100   */\n      add\n        /* \"#utility.yul\":19076:19123   */\n      mstore\n        /* \"#utility.yul\":19140:19271   */\n      tag_672\n        /* \"#utility.yul\":19266:19270   */\n      dup2\n        /* \"#utility.yul\":19140:19271   */\n      tag_573\n      jump\t// in\n    tag_672:\n        /* \"#utility.yul\":19132:19271   */\n      swap1\n      pop\n        /* \"#utility.yul\":18859:19278   */\n      swap2\n      swap1\n      pop\n      jump\t// out\n        /* \"#utility.yul\":19284:19703   */\n    tag_171:\n        /* \"#utility.yul\":19450:19454   */\n      0x00\n        /* \"#utility.yul\":19488:19490   */\n      0x20\n        /* \"#utility.yul\":19477:19486   */\n      dup3\n        /* \"#utility.yul\":19473:19491   */\n      add\n        /* \"#utility.yul\":19465:19491   */\n      swap1\n      pop\n        /* \"#utility.yul\":19537:19546   */\n      dup2\n        /* \"#utility.yul\":19531:19535   */\n      dup2\n        /* \"#utility.yul\":19527:19547   */\n      sub\n        /* \"#utility.yul\":19523:19524   */\n      0x00\n        /* \"#utility.yul\":19512:19521   */\n      dup4\n        /* \"#utility.yul\":19508:19525   */\n      add\n        /* \"#utility.yul\":19501:19548   */\n      mstore\n        /* \"#utility.yul\":19565:19696   */\n      tag_674\n        /* \"#utility.yul\":19691:19695   */\n      dup2\n        /* \"#utility.yul\":19565:19696   */\n      tag_578\n      jump\t// in\n    tag_674:\n        /* \"#utility.yul\":19557:19696   */\n      swap1\n      pop\n        /* \"#utility.yul\":19284:19703   */\n      swap2\n      swap1\n      pop\n      jump\t// out\n        /* \"#utility.yul\":19709:20128   */\n    tag_264:\n        /* \"#utility.yul\":19875:19879   */\n      0x00\n        /* \"#utility.yul\":19913:19915   */\n      0x20\n        /* \"#utility.yul\":19902:19911   */\n      dup3\n        /* \"#utility.yul\":19898:19916   */\n      add\n        /* \"#utility.yul\":19890:19916   */\n      swap1\n      pop\n        /* \"#utility.yul\":19962:19971   */\n      dup2\n        /* \"#utility.yul\":19956:19960   */\n      dup2\n        /* \"#utility.yul\":19952:19972   */\n      sub\n        /* \"#utility.yul\":19948:19949   */\n      0x00\n        /* \"#utility.yul\":19937:19946   */\n      dup4\n        /* \"#utility.yul\":19933:19950   */\n      add\n        /* \"#utility.yul\":19926:19973   */\n      mstore\n        /* \"#utility.yul\":19990:20121   */\n      tag_676\n        /* \"#utility.yul\":20116:20120   */\n      dup2\n        /* \"#utility.yul\":19990:20121   */\n      tag_583\n      jump\t// in\n    tag_676:\n        /* \"#utility.yul\":19982:20121   */\n      swap1\n      pop\n        /* \"#utility.yul\":19709:20128   */\n      swap2\n      swap1\n      pop\n      jump\t// out\n        /* \"#utility.yul\":20134:20553   */\n    tag_176:\n        /* \"#utility.yul\":20300:20304   */\n      0x00\n        /* \"#utility.yul\":20338:20340   */\n      0x20\n        /* \"#utility.yul\":20327:20336   */\n      dup3\n        /* \"#utility.yul\":20323:20341   */\n      add\n        /* \"#utility.yul\":20315:20341   */\n      swap1\n      pop\n        /* \"#utility.yul\":20387:20396   */\n      dup2\n        /* \"#utility.yul\":20381:20385   */\n      dup2\n        /* \"#utility.yul\":20377:20397   */\n      sub\n        /* \"#utility.yul\":20373:20374   */\n      0x00\n        /* \"#utility.yul\":20362:20371   */\n      dup4\n        /* \"#utility.yul\":20358:20375   */\n      add\n        /* \"#utility.yul\":20351:20398   */\n      mstore\n        /* \"#utility.yul\":20415:20546   */\n      tag_678\n        /* \"#utility.yul\":20541:20545   */\n      dup2\n        /* \"#utility.yul\":20415:20546   */\n      tag_588\n      jump\t// in\n    tag_678:\n        /* \"#utility.yul\":20407:20546   */\n      swap1\n      pop\n        /* \"#utility.yul\":20134:20553   */\n      swap2\n      swap1\n      pop\n      jump\t// out\n        /* \"#utility.yul\":20559:20978   */\n    tag_198:\n        /* \"#utility.yul\":20725:20729   */\n      0x00\n        /* \"#utility.yul\":20763:20765   */\n      0x20\n        /* \"#utility.yul\":20752:20761   */\n      dup3\n        /* \"#utility.yul\":20748:20766   */\n      add\n        /* \"#utility.yul\":20740:20766   */\n      swap1\n      pop\n        /* \"#utility.yul\":20812:20821   */\n      dup2\n        /* \"#utility.yul\":20806:20810   */\n      dup2\n        /* \"#utility.yul\":20802:20822   */\n      sub\n        /* \"#utility.yul\":20798:20799   */\n      0x00\n        /* \"#utility.yul\":20787:20796   */\n      dup4\n        /* \"#utility.yul\":20783:20800   */\n      add\n        /* \"#utility.yul\":20776:20823   */\n      mstore\n        /* \"#utility.yul\":20840:20971   */\n      tag_680\n        /* \"#utility.yul\":20966:20970   */\n      dup2\n        /* \"#utility.yul\":20840:20971   */\n      tag_593\n      jump\t// in\n    tag_680:\n        /* \"#utility.yul\":20832:20971   */\n      swap1\n      pop\n        /* \"#utility.yul\":20559:20978   */\n      swap2\n      swap1\n      pop\n      jump\t// out\n        /* \"#utility.yul\":20984:21403   */\n    tag_206:\n        /* \"#utility.yul\":21150:21154   */\n      0x00\n        /* \"#utility.yul\":21188:21190   */\n      0x20\n        /* \"#utility.yul\":21177:21186   */\n      dup3\n        /* \"#utility.yul\":21173:21191   */\n      add\n        /* \"#utility.yul\":21165:21191   */\n      swap1\n      pop\n        /* \"#utility.yul\":21237:21246   */\n      dup2\n        /* \"#utility.yul\":21231:21235   */\n      dup2\n        /* \"#utility.yul\":21227:21247   */\n      sub\n        /* \"#utility.yul\":21223:21224   */\n      0x00\n        /* \"#utility.yul\":21212:21221   */\n      dup4\n        /* \"#utility.yul\":21208:21225   */\n      add\n        /* \"#utility.yul\":21201:21248   */\n      mstore\n        /* \"#utility.yul\":21265:21396   */\n      tag_682\n        /* \"#utility.yul\":21391:21395   */\n      dup2\n        /* \"#utility.yul\":21265:21396   */\n      tag_598\n      jump\t// in\n    tag_682:\n        /* \"#utility.yul\":21257:21396   */\n      swap1\n      pop\n        /* \"#utility.yul\":20984:21403   */\n      swap2\n      swap1\n      pop\n      jump\t// out\n        /* \"#utility.yul\":21409:21828   */\n    tag_323:\n        /* \"#utility.yul\":21575:21579   */\n      0x00\n        /* \"#utility.yul\":21613:21615   */\n      0x20\n        /* \"#utility.yul\":21602:21611   */\n      dup3\n        /* \"#utility.yul\":21598:21616   */\n      add\n        /* \"#utility.yul\":21590:21616   */\n      swap1\n      pop\n        /* \"#utility.yul\":21662:21671   */\n      dup2\n        /* \"#utility.yul\":21656:21660   */\n      dup2\n        /* \"#utility.yul\":21652:21672   */\n      sub\n        /* \"#utility.yul\":21648:21649   */\n      0x00\n        /* \"#utility.yul\":21637:21646   */\n      dup4\n        /* \"#utility.yul\":21633:21650   */\n      add\n        /* \"#utility.yul\":21626:21673   */\n      mstore\n        /* \"#utility.yul\":21690:21821   */\n      tag_684\n        /* \"#utility.yul\":21816:21820   */\n      dup2\n        /* \"#utility.yul\":21690:21821   */\n      tag_603\n      jump\t// in\n    tag_684:\n        /* \"#utility.yul\":21682:21821   */\n      swap1\n      pop\n        /* \"#utility.yul\":21409:21828   */\n      swap2\n      swap1\n      pop\n      jump\t// out\n        /* \"#utility.yul\":21834:22056   */\n    tag_48:\n        /* \"#utility.yul\":21927:21931   */\n      0x00\n        /* \"#utility.yul\":21965:21967   */\n      0x20\n        /* \"#utility.yul\":21954:21963   */\n      dup3\n        /* \"#utility.yul\":21950:21968   */\n      add\n        /* \"#utility.yul\":21942:21968   */\n      swap1\n      pop\n        /* \"#utility.yul\":21978:22049   */\n      tag_686\n        /* \"#utility.yul\":22046:22047   */\n      0x00\n        /* \"#utility.yul\":22035:22044   */\n      dup4\n        /* \"#utility.yul\":22031:22048   */\n      add\n        /* \"#utility.yul\":22022:22028   */\n      dup5\n        /* \"#utility.yul\":21978:22049   */\n      tag_608\n      jump\t// in\n    tag_686:\n        /* \"#utility.yul\":21834:22056   */\n      swap3\n      swap2\n      pop\n      pop\n      jump\t// out\n        /* \"#utility.yul\":22062:22893   */\n    tag_417:\n        /* \"#utility.yul\":22325:22329   */\n      0x00\n        /* \"#utility.yul\":22363:22366   */\n      0xa0\n        /* \"#utility.yul\":22352:22361   */\n      dup3\n        /* \"#utility.yul\":22348:22367   */\n      add\n        /* \"#utility.yul\":22340:22367   */\n      swap1\n      pop\n        /* \"#utility.yul\":22377:22448   */\n      tag_688\n        /* \"#utility.yul\":22445:22446   */\n      0x00\n        /* \"#utility.yul\":22434:22443   */\n      dup4\n        /* \"#utility.yul\":22430:22447   */\n      add\n        /* \"#utility.yul\":22421:22427   */\n      dup9\n        /* \"#utility.yul\":22377:22448   */\n      tag_608\n      jump\t// in\n    tag_688:\n        /* \"#utility.yul\":22458:22538   */\n      tag_689\n        /* \"#utility.yul\":22534:22536   */\n      0x20\n        /* \"#utility.yul\":22523:22532   */\n      dup4\n        /* \"#utility.yul\":22519:22537   */\n      add\n        /* \"#utility.yul\":22510:22516   */\n      dup8\n        /* \"#utility.yul\":22458:22538   */\n      tag_536\n      jump\t// in\n    tag_689:\n        /* \"#utility.yul\":22585:22594   */\n      dup2\n        /* \"#utility.yul\":22579:22583   */\n      dup2\n        /* \"#utility.yul\":22575:22595   */\n      sub\n        /* \"#utility.yul\":22570:22572   */\n      0x40\n        /* \"#utility.yul\":22559:22568   */\n      dup4\n        /* \"#utility.yul\":22555:22573   */\n      add\n        /* \"#utility.yul\":22548:22596   */\n      mstore\n        /* \"#utility.yul\":22613:22721   */\n      tag_690\n        /* \"#utility.yul\":22716:22720   */\n      dup2\n        /* \"#utility.yul\":22707:22713   */\n      dup7\n        /* \"#utility.yul\":22613:22721   */\n      tag_510\n      jump\t// in\n    tag_690:\n        /* \"#utility.yul\":22605:22721   */\n      swap1\n      pop\n        /* \"#utility.yul\":22731:22803   */\n      tag_691\n        /* \"#utility.yul\":22799:22801   */\n      0x60\n        /* \"#utility.yul\":22788:22797   */\n      dup4\n        /* \"#utility.yul\":22784:22802   */\n      add\n        /* \"#utility.yul\":22775:22781   */\n      dup6\n        /* \"#utility.yul\":22731:22803   */\n      tag_507\n      jump\t// in\n    tag_691:\n        /* \"#utility.yul\":22813:22886   */\n      tag_692\n        /* \"#utility.yul\":22881:22884   */\n      0x80\n        /* \"#utility.yul\":22870:22879   */\n      dup4\n        /* \"#utility.yul\":22866:22885   */\n      add\n        /* \"#utility.yul\":22857:22863   */\n      dup5\n        /* \"#utility.yul\":22813:22886   */\n      tag_608\n      jump\t// in\n    tag_692:\n        /* \"#utility.yul\":22062:22893   */\n      swap7\n      swap6\n      pop\n      pop\n      pop\n      pop\n      pop\n      pop\n      jump\t// out\n        /* \"#utility.yul\":22899:23341   */\n    tag_92:\n        /* \"#utility.yul\":23048:23052   */\n      0x00\n        /* \"#utility.yul\":23086:23088   */\n      0x60\n        /* \"#utility.yul\":23075:23084   */\n      dup3\n        /* \"#utility.yul\":23071:23089   */\n      add\n        /* \"#utility.yul\":23063:23089   */\n      swap1\n      pop\n        /* \"#utility.yul\":23099:23170   */\n      tag_694\n        /* \"#utility.yul\":23167:23168   */\n      0x00\n        /* \"#utility.yul\":23156:23165   */\n      dup4\n        /* \"#utility.yul\":23152:23169   */\n      add\n        /* \"#utility.yul\":23143:23149   */\n      dup7\n        /* \"#utility.yul\":23099:23170   */\n      tag_608\n      jump\t// in\n    tag_694:\n        /* \"#utility.yul\":23180:23252   */\n      tag_695\n        /* \"#utility.yul\":23248:23250   */\n      0x20\n        /* \"#utility.yul\":23237:23246   */\n      dup4\n        /* \"#utility.yul\":23233:23251   */\n      add\n        /* \"#utility.yul\":23224:23230   */\n      dup6\n        /* \"#utility.yul\":23180:23252   */\n      tag_608\n      jump\t// in\n    tag_695:\n        /* \"#utility.yul\":23262:23334   */\n      tag_696\n        /* \"#utility.yul\":23330:23332   */\n      0x40\n        /* \"#utility.yul\":23319:23328   */\n      dup4\n        /* \"#utility.yul\":23315:23333   */\n      add\n        /* \"#utility.yul\":23306:23312   */\n      dup5\n        /* \"#utility.yul\":23262:23334   */\n      tag_608\n      jump\t// in\n    tag_696:\n        /* \"#utility.yul\":22899:23341   */\n      swap5\n      swap4\n      pop\n      pop\n      pop\n      pop\n      jump\t// out\n        /* \"#utility.yul\":23428:23560   */\n    tag_517:\n        /* \"#utility.yul\":23495:23499   */\n      0x00\n        /* \"#utility.yul\":23518:23521   */\n      dup2\n        /* \"#utility.yul\":23510:23521   */\n      swap1\n      pop\n        /* \"#utility.yul\":23548:23552   */\n      0x20\n        /* \"#utility.yul\":23543:23546   */\n      dup3\n        /* \"#utility.yul\":23539:23553   */\n      add\n        /* \"#utility.yul\":23531:23553   */\n      swap1\n      pop\n        /* \"#utility.yul\":23428:23560   */\n      swap2\n      swap1\n      pop\n      jump\t// out\n        /* \"#utility.yul\":23566:23680   */\n    tag_513:\n        /* \"#utility.yul\":23633:23639   */\n      0x00\n        /* \"#utility.yul\":23667:23672   */\n      dup2\n        /* \"#utility.yul\":23661:23673   */\n      mload\n        /* \"#utility.yul\":23651:23673   */\n      swap1\n      pop\n        /* \"#utility.yul\":23566:23680   */\n      swap2\n      swap1\n      pop\n      jump\t// out\n        /* \"#utility.yul\":23686:23799   */\n    tag_523:\n        /* \"#utility.yul\":23756:23760   */\n      0x00\n        /* \"#utility.yul\":23788:23792   */\n      0x20\n        /* \"#utility.yul\":23783:23786   */\n      dup3\n        /* \"#utility.yul\":23779:23793   */\n      add\n        /* \"#utility.yul\":23771:23793   */\n      swap1\n      pop\n        /* \"#utility.yul\":23686:23799   */\n      swap2\n      swap1\n      pop\n      jump\t// out\n        /* \"#utility.yul\":23805:23989   */\n    tag_515:\n        /* \"#utility.yul\":23904:23915   */\n      0x00\n        /* \"#utility.yul\":23938:23944   */\n      dup3\n        /* \"#utility.yul\":23933:23936   */\n      dup3\n        /* \"#utility.yul\":23926:23945   */\n      mstore\n        /* \"#utility.yul\":23978:23982   */\n      0x20\n        /* \"#utility.yul\":23973:23976   */\n      dup3\n        /* \"#utility.yul\":23969:23983   */\n      add\n        /* \"#utility.yul\":23954:23983   */\n      swap1\n      pop\n        /* \"#utility.yul\":23805:23989   */\n      swap3\n      swap2\n      pop\n      pop\n      jump\t// out\n        /* \"#utility.yul\":23995:24164   */\n    tag_555:\n        /* \"#utility.yul\":24079:24090   */\n      0x00\n        /* \"#utility.yul\":24113:24119   */\n      dup3\n        /* \"#utility.yul\":24108:24111   */\n      dup3\n        /* \"#utility.yul\":24101:24120   */\n      mstore\n        /* \"#utility.yul\":24153:24157   */\n      0x20\n        /* \"#utility.yul\":24148:24151   */\n      dup3\n        /* \"#utility.yul\":24144:24158   */\n      add\n        /* \"#utility.yul\":24129:24158   */\n      swap1\n      pop\n        /* \"#utility.yul\":23995:24164   */\n      swap3\n      swap2\n      pop\n      pop\n      jump\t// out\n        /* \"#utility.yul\":24170:24475   */\n    tag_188:\n        /* \"#utility.yul\":24210:24213   */\n      0x00\n        /* \"#utility.yul\":24229:24249   */\n      tag_705\n        /* \"#utility.yul\":24247:24248   */\n      dup3\n        /* \"#utility.yul\":24229:24249   */\n      tag_611\n      jump\t// in\n    tag_705:\n        /* \"#utility.yul\":24224:24249   */\n      swap2\n      pop\n        /* \"#utility.yul\":24263:24283   */\n      tag_706\n        /* \"#utility.yul\":24281:24282   */\n      dup4\n        /* \"#utility.yul\":24263:24283   */\n      tag_611\n      jump\t// in\n    tag_706:\n        /* \"#utility.yul\":24258:24283   */\n      swap3\n      pop\n        /* \"#utility.yul\":24417:24418   */\n      dup3\n        /* \"#utility.yul\":24349:24415   */\n      0xffffffffffffffffffffffffffffffffffffffffffffffffffffffffffffffff\n        /* \"#utility.yul\":24345:24419   */\n      sub\n        /* \"#utility.yul\":24342:24343   */\n      dup3\n        /* \"#utility.yul\":24339:24420   */\n      gt\n        /* \"#utility.yul\":24336:24443   */\n      iszero\n      tag_707\n      jumpi\n        /* \"#utility.yul\":24423:24441   */\n      tag_708\n      tag_709\n      jump\t// in\n    tag_708:\n        /* \"#utility.yul\":24336:24443   */\n    tag_707:\n        /* \"#utility.yul\":24467:24468   */\n      dup3\n        /* \"#utility.yul\":24464:24465   */\n      dup3\n        /* \"#utility.yul\":24460:24469   */\n      add\n        /* \"#utility.yul\":24453:24469   */\n      swap1\n      pop\n        /* \"#utility.yul\":24170:24475   */\n      swap3\n      swap2\n      pop\n      pop\n      jump\t// out\n        /* \"#utility.yul\":24481:24666   */\n    tag_426:\n        /* \"#utility.yul\":24521:24522   */\n      0x00\n        /* \"#utility.yul\":24538:24558   */\n      tag_711\n        /* \"#utility.yul\":24556:24557   */\n      dup3\n        /* \"#utility.yul\":24538:24558   */\n      tag_611\n      jump\t// in\n    tag_711:\n        /* \"#utility.yul\":24533:24558   */\n      swap2\n      pop\n        /* \"#utility.yul\":24572:24592   */\n      tag_712\n        /* \"#utility.yul\":24590:24591   */\n      dup4\n        /* \"#utility.yul\":24572:24592   */\n      tag_611\n      jump\t// in\n    tag_712:\n        /* \"#utility.yul\":24567:24592   */\n      swap3\n      pop\n        /* \"#utility.yul\":24611:24612   */\n      dup3\n        /* \"#utility.yul\":24601:24636   */\n      tag_713\n      jumpi\n        /* \"#utility.yul\":24616:24634   */\n      tag_714\n      tag_715\n      jump\t// in\n    tag_714:\n        /* \"#utility.yul\":24601:24636   */\n    tag_713:\n        /* \"#utility.yul\":24658:24659   */\n      dup3\n        /* \"#utility.yul\":24655:24656   */\n      dup3\n        /* \"#utility.yul\":24651:24660   */\n      div\n        /* \"#utility.yul\":24646:24660   */\n      swap1\n      pop\n        /* \"#utility.yul\":24481:24666   */\n      swap3\n      swap2\n      pop\n      pop\n      jump\t// out\n        /* \"#utility.yul\":24672:25020   */\n    tag_424:\n        /* \"#utility.yul\":24712:24719   */\n      0x00\n        /* \"#utility.yul\":24735:24755   */\n      tag_717\n        /* \"#utility.yul\":24753:24754   */\n      dup3\n        /* \"#utility.yul\":24735:24755   */\n      tag_611\n      jump\t// in\n    tag_717:\n        /* \"#utility.yul\":24730:24755   */\n      swap2\n      pop\n        /* \"#utility.yul\":24769:24789   */\n      tag_718\n        /* \"#utility.yul\":24787:24788   */\n      dup4\n        /* \"#utility.yul\":24769:24789   */\n      tag_611\n      jump\t// in\n    tag_718:\n        /* \"#utility.yul\":24764:24789   */\n      swap3\n      pop\n        /* \"#utility.yul\":24957:24958   */\n      dup2\n        /* \"#utility.yul\":24889:24955   */\n      0xffffffffffffffffffffffffffffffffffffffffffffffffffffffffffffffff\n        /* \"#utility.yul\":24885:24959   */\n      div\n        /* \"#utility.yul\":24882:24883   */\n      dup4\n        /* \"#utility.yul\":24879:24960   */\n      gt\n        /* \"#utility.yul\":24874:24875   */\n      dup3\n        /* \"#utility.yul\":24867:24876   */\n      iszero\n        /* \"#utility.yul\":24860:24877   */\n      iszero\n        /* \"#utility.yul\":24856:24961   */\n      and\n        /* \"#utility.yul\":24853:24984   */\n      iszero\n      tag_719\n      jumpi\n        /* \"#utility.yul\":24964:24982   */\n      tag_720\n      tag_709\n      jump\t// in\n    tag_720:\n        /* \"#utility.yul\":24853:24984   */\n    tag_719:\n        /* \"#utility.yul\":25012:25013   */\n      dup3\n        /* \"#utility.yul\":25009:25010   */\n      dup3\n        /* \"#utility.yul\":25005:25014   */\n      mul\n        /* \"#utility.yul\":24994:25014   */\n      swap1\n      pop\n        /* \"#utility.yul\":24672:25020   */\n      swap3\n      swap2\n      pop\n      pop\n      jump\t// out\n        /* \"#utility.yul\":25026:25217   */\n    tag_215:\n        /* \"#utility.yul\":25066:25070   */\n      0x00\n        /* \"#utility.yul\":25086:25106   */\n      tag_722\n        /* \"#utility.yul\":25104:25105   */\n      dup3\n        /* \"#utility.yul\":25086:25106   */\n      tag_611\n      jump\t// in\n    tag_722:\n        /* \"#utility.yul\":25081:25106   */\n      swap2\n      pop\n        /* \"#utility.yul\":25120:25140   */\n      tag_723\n        /* \"#utility.yul\":25138:25139   */\n      dup4\n        /* \"#utility.yul\":25120:25140   */\n      tag_611\n      jump\t// in\n    tag_723:\n        /* \"#utility.yul\":25115:25140   */\n      swap3\n      pop\n        /* \"#utility.yul\":25159:25160   */\n      dup3\n        /* \"#utility.yul\":25156:25157   */\n      dup3\n        /* \"#utility.yul\":25153:25161   */\n      lt\n        /* \"#utility.yul\":25150:25184   */\n      iszero\n      tag_724\n      jumpi\n        /* \"#utility.yul\":25164:25182   */\n      tag_725\n      tag_709\n      jump\t// in\n    tag_725:\n        /* \"#utility.yul\":25150:25184   */\n    tag_724:\n        /* \"#utility.yul\":25209:25210   */\n      dup3\n        /* \"#utility.yul\":25206:25207   */\n      dup3\n        /* \"#utility.yul\":25202:25211   */\n      sub\n        /* \"#utility.yul\":25194:25211   */\n      swap1\n      pop\n        /* \"#utility.yul\":25026:25217   */\n      swap3\n      swap2\n      pop\n      pop\n      jump\t// out\n        /* \"#utility.yul\":25223:25319   */\n    tag_506:\n        /* \"#utility.yul\":25260:25267   */\n      0x00\n        /* \"#utility.yul\":25289:25313   */\n      tag_727\n        /* \"#utility.yul\":25307:25312   */\n      dup3\n        /* \"#utility.yul\":25289:25313   */\n      tag_728\n      jump\t// in\n    tag_727:\n        /* \"#utility.yul\":25278:25313   */\n      swap1\n      pop\n        /* \"#utility.yul\":25223:25319   */\n      swap2\n      swap1\n      pop\n      jump\t// out\n        /* \"#utility.yul\":25325:25415   */\n    tag_527:\n        /* \"#utility.yul\":25359:25366   */\n      0x00\n        /* \"#utility.yul\":25402:25407   */\n      dup2\n        /* \"#utility.yul\":25395:25408   */\n      iszero\n        /* \"#utility.yul\":25388:25409   */\n      iszero\n        /* \"#utility.yul\":25377:25409   */\n      swap1\n      pop\n        /* \"#utility.yul\":25325:25415   */\n      swap2\n      swap1\n      pop\n      jump\t// out\n        /* \"#utility.yul\":25421:25547   */\n    tag_728:\n        /* \"#utility.yul\":25458:25465   */\n      0x00\n        /* \"#utility.yul\":25498:25540   */\n      0xffffffffffffffffffffffffffffffffffffffff\n        /* \"#utility.yul\":25491:25496   */\n      dup3\n        /* \"#utility.yul\":25487:25541   */\n      and\n        /* \"#utility.yul\":25476:25541   */\n      swap1\n      pop\n        /* \"#utility.yul\":25421:25547   */\n      swap2\n      swap1\n      pop\n      jump\t// out\n        /* \"#utility.yul\":25553:25630   */\n    tag_611:\n        /* \"#utility.yul\":25590:25597   */\n      0x00\n        /* \"#utility.yul\":25619:25624   */\n      dup2\n        /* \"#utility.yul\":25608:25624   */\n      swap1\n      pop\n        /* \"#utility.yul\":25553:25630   */\n      swap2\n      swap1\n      pop\n      jump\t// out\n        /* \"#utility.yul\":25636:25722   */\n    tag_732:\n        /* \"#utility.yul\":25671:25678   */\n      0x00\n        /* \"#utility.yul\":25711:25715   */\n      0xff\n        /* \"#utility.yul\":25704:25709   */\n      dup3\n        /* \"#utility.yul\":25700:25716   */\n      and\n        /* \"#utility.yul\":25689:25716   */\n      swap1\n      pop\n        /* \"#utility.yul\":25636:25722   */\n      swap2\n      swap1\n      pop\n      jump\t// out\n        /* \"#utility.yul\":25728:25872   */\n    tag_531:\n        /* \"#utility.yul\":25796:25805   */\n      0x00\n        /* \"#utility.yul\":25829:25866   */\n      tag_735\n        /* \"#utility.yul\":25860:25865   */\n      dup3\n        /* \"#utility.yul\":25829:25866   */\n      tag_736\n      jump\t// in\n    tag_735:\n        /* \"#utility.yul\":25816:25866   */\n      swap1\n      pop\n        /* \"#utility.yul\":25728:25872   */\n      swap2\n      swap1\n      pop\n      jump\t// out\n        /* \"#utility.yul\":25878:26018   */\n    tag_535:\n        /* \"#utility.yul\":25942:25951   */\n      0x00\n        /* \"#utility.yul\":25975:26012   */\n      tag_738\n        /* \"#utility.yul\":26006:26011   */\n      dup3\n        /* \"#utility.yul\":25975:26012   */\n      tag_736\n      jump\t// in\n    tag_738:\n        /* \"#utility.yul\":25962:26012   */\n      swap1\n      pop\n        /* \"#utility.yul\":25878:26018   */\n      swap2\n      swap1\n      pop\n      jump\t// out\n        /* \"#utility.yul\":26024:26145   */\n    tag_539:\n        /* \"#utility.yul\":26082:26091   */\n      0x00\n        /* \"#utility.yul\":26115:26139   */\n      tag_740\n        /* \"#utility.yul\":26133:26138   */\n      dup3\n        /* \"#utility.yul\":26115:26139   */\n      tag_611\n      jump\t// in\n    tag_740:\n        /* \"#utility.yul\":26102:26139   */\n      swap1\n      pop\n        /* \"#utility.yul\":26024:26145   */\n      swap2\n      swap1\n      pop\n      jump\t// out\n        /* \"#utility.yul\":26151:26268   */\n    tag_543:\n        /* \"#utility.yul\":26207:26216   */\n      0x00\n        /* \"#utility.yul\":26240:26262   */\n      tag_742\n        /* \"#utility.yul\":26256:26261   */\n      dup3\n        /* \"#utility.yul\":26240:26262   */\n      tag_732\n      jump\t// in\n    tag_742:\n        /* \"#utility.yul\":26227:26262   */\n      swap1\n      pop\n        /* \"#utility.yul\":26151:26268   */\n      swap2\n      swap1\n      pop\n      jump\t// out\n        /* \"#utility.yul\":26274:26391   */\n    tag_547:\n        /* \"#utility.yul\":26330:26339   */\n      0x00\n        /* \"#utility.yul\":26363:26385   */\n      tag_744\n        /* \"#utility.yul\":26379:26384   */\n      dup3\n        /* \"#utility.yul\":26363:26385   */\n      tag_732\n      jump\t// in\n    tag_744:\n        /* \"#utility.yul\":26350:26385   */\n      swap1\n      pop\n        /* \"#utility.yul\":26274:26391   */\n      swap2\n      swap1\n      pop\n      jump\t// out\n        /* \"#utility.yul\":26397:26514   */\n    tag_551:\n        /* \"#utility.yul\":26453:26462   */\n      0x00\n        /* \"#utility.yul\":26486:26508   */\n      tag_746\n        /* \"#utility.yul\":26502:26507   */\n      dup3\n        /* \"#utility.yul\":26486:26508   */\n      tag_732\n      jump\t// in\n    tag_746:\n        /* \"#utility.yul\":26473:26508   */\n      swap1\n      pop\n        /* \"#utility.yul\":26397:26514   */\n      swap2\n      swap1\n      pop\n      jump\t// out\n        /* \"#utility.yul\":26520:26646   */\n    tag_736:\n        /* \"#utility.yul\":26570:26579   */\n      0x00\n        /* \"#utility.yul\":26603:26640   */\n      tag_748\n        /* \"#utility.yul\":26634:26639   */\n      dup3\n        /* \"#utility.yul\":26603:26640   */\n      tag_749\n      jump\t// in\n    tag_748:\n        /* \"#utility.yul\":26590:26640   */\n      swap1\n      pop\n        /* \"#utility.yul\":26520:26646   */\n      swap2\n      swap1\n      pop\n      jump\t// out\n        /* \"#utility.yul\":26652:26765   */\n    tag_749:\n        /* \"#utility.yul\":26702:26711   */\n      0x00\n        /* \"#utility.yul\":26735:26759   */\n      tag_751\n        /* \"#utility.yul\":26753:26758   */\n      dup3\n        /* \"#utility.yul\":26735:26759   */\n      tag_728\n      jump\t// in\n    tag_751:\n        /* \"#utility.yul\":26722:26759   */\n      swap1\n      pop\n        /* \"#utility.yul\":26652:26765   */\n      swap2\n      swap1\n      pop\n      jump\t// out\n        /* \"#utility.yul\":26771:26951   */\n    tag_709:\n        /* \"#utility.yul\":26819:26896   */\n      0x4e487b7100000000000000000000000000000000000000000000000000000000\n        /* \"#utility.yul\":26816:26817   */\n      0x00\n        /* \"#utility.yul\":26809:26897   */\n      mstore\n        /* \"#utility.yul\":26916:26920   */\n      0x11\n        /* \"#utility.yul\":26913:26914   */\n      0x04\n        /* \"#utility.yul\":26906:26921   */\n      mstore\n        /* \"#utility.yul\":26940:26944   */\n      0x24\n        /* \"#utility.yul\":26937:26938   */\n      0x00\n        /* \"#utility.yul\":26930:26945   */\n      revert\n        /* \"#utility.yul\":26957:27137   */\n    tag_715:\n        /* \"#utility.yul\":27005:27082   */\n      0x4e487b7100000000000000000000000000000000000000000000000000000000\n        /* \"#utility.yul\":27002:27003   */\n      0x00\n        /* \"#utility.yul\":26995:27083   */\n      mstore\n        /* \"#utility.yul\":27102:27106   */\n      0x12\n        /* \"#utility.yul\":27099:27100   */\n      0x04\n        /* \"#utility.yul\":27092:27107   */\n      mstore\n        /* \"#utility.yul\":27126:27130   */\n      0x24\n        /* \"#utility.yul\":27123:27124   */\n      0x00\n        /* \"#utility.yul\":27116:27131   */\n      revert\n        /* \"#utility.yul\":27143:27323   */\n    tag_403:\n        /* \"#utility.yul\":27191:27268   */\n      0x4e487b7100000000000000000000000000000000000000000000000000000000\n        /* \"#utility.yul\":27188:27189   */\n      0x00\n        /* \"#utility.yul\":27181:27269   */\n      mstore\n        /* \"#utility.yul\":27288:27292   */\n      0x32\n        /* \"#utility.yul\":27285:27286   */\n      0x04\n        /* \"#utility.yul\":27278:27293   */\n      mstore\n        /* \"#utility.yul\":27312:27316   */\n      0x24\n        /* \"#utility.yul\":27309:27310   */\n      0x00\n        /* \"#utility.yul\":27302:27317   */\n      revert\n        /* \"#utility.yul\":27329:27509   */\n    tag_399:\n        /* \"#utility.yul\":27377:27454   */\n      0x4e487b7100000000000000000000000000000000000000000000000000000000\n        /* \"#utility.yul\":27374:27375   */\n      0x00\n        /* \"#utility.yul\":27367:27455   */\n      mstore\n        /* \"#utility.yul\":27474:27478   */\n      0x41\n        /* \"#utility.yul\":27471:27472   */\n      0x04\n        /* \"#utility.yul\":27464:27479   */\n      mstore\n        /* \"#utility.yul\":27498:27502   */\n      0x24\n        /* \"#utility.yul\":27495:27496   */\n      0x00\n        /* \"#utility.yul\":27488:27503   */\n      revert\n        /* \"#utility.yul\":27638:27755   */\n    tag_460:\n        /* \"#utility.yul\":27747:27748   */\n      0x00\n        /* \"#utility.yul\":27744:27745   */\n      dup1\n        /* \"#utility.yul\":27737:27749   */\n      revert\n        /* \"#utility.yul\":27761:27931   */\n    tag_557:\n        /* \"#utility.yul\":27901:27923   */\n      0x5061757361626c653a206e6f7420706175736564000000000000000000000000\n        /* \"#utility.yul\":27897:27898   */\n      0x00\n        /* \"#utility.yul\":27889:27895   */\n      dup3\n        /* \"#utility.yul\":27885:27899   */\n      add\n        /* \"#utility.yul\":27878:27924   */\n      mstore\n        /* \"#utility.yul\":27761:27931   */\n      pop\n      jump\t// out\n        /* \"#utility.yul\":27937:28162   */\n    tag_562:\n        /* \"#utility.yul\":28077:28111   */\n      0x4f776e61626c653a206e6577206f776e657220697320746865207a65726f2061\n        /* \"#utility.yul\":28073:28074   */\n      0x00\n        /* \"#utility.yul\":28065:28071   */\n      dup3\n        /* \"#utility.yul\":28061:28075   */\n      add\n        /* \"#utility.yul\":28054:28112   */\n      mstore\n        /* \"#utility.yul\":28146:28154   */\n      0x6464726573730000000000000000000000000000000000000000000000000000\n        /* \"#utility.yul\":28141:28143   */\n      0x20\n        /* \"#utility.yul\":28133:28139   */\n      dup3\n        /* \"#utility.yul\":28129:28144   */\n      add\n        /* \"#utility.yul\":28122:28155   */\n      mstore\n        /* \"#utility.yul\":27937:28162   */\n      pop\n      jump\t// out\n        /* \"#utility.yul\":28168:28348   */\n    tag_567:\n        /* \"#utility.yul\":28308:28340   */\n      0x4e6f7420656e6f7567682062616c616e636520746f2077697468647261770000\n        /* \"#utility.yul\":28304:28305   */\n      0x00\n        /* \"#utility.yul\":28296:28302   */\n      dup3\n        /* \"#utility.yul\":28292:28306   */\n      add\n        /* \"#utility.yul\":28285:28341   */\n      mstore\n        /* \"#utility.yul\":28168:28348   */\n      pop\n      jump\t// out\n        /* \"#utility.yul\":28354:28575   */\n    tag_572:\n        /* \"#utility.yul\":28494:28528   */\n      0x596f7527726520616c726561647920696e2074686973205374616b65206c6576\n        /* \"#utility.yul\":28490:28491   */\n      0x00\n        /* \"#utility.yul\":28482:28488   */\n      dup3\n        /* \"#utility.yul\":28478:28492   */\n      add\n        /* \"#utility.yul\":28471:28529   */\n      mstore\n        /* \"#utility.yul\":28563:28567   */\n      0x656c000000000000000000000000000000000000000000000000000000000000\n        /* \"#utility.yul\":28558:28560   */\n      0x20\n        /* \"#utility.yul\":28550:28556   */\n      dup3\n        /* \"#utility.yul\":28546:28561   */\n      add\n        /* \"#utility.yul\":28539:28568   */\n      mstore\n        /* \"#utility.yul\":28354:28575   */\n      pop\n      jump\t// out\n        /* \"#utility.yul\":28581:28753   */\n    tag_577:\n        /* \"#utility.yul\":28721:28745   */\n      0x55736572206973206e6f74206f6e204c6576656c203100000000000000000000\n        /* \"#utility.yul\":28717:28718   */\n      0x00\n        /* \"#utility.yul\":28709:28715   */\n      dup3\n        /* \"#utility.yul\":28705:28719   */\n      add\n        /* \"#utility.yul\":28698:28746   */\n      mstore\n        /* \"#utility.yul\":28581:28753   */\n      pop\n      jump\t// out\n        /* \"#utility.yul\":28759:28925   */\n    tag_582:\n        /* \"#utility.yul\":28899:28917   */\n      0x5061757361626c653a2070617573656400000000000000000000000000000000\n        /* \"#utility.yul\":28895:28896   */\n      0x00\n        /* \"#utility.yul\":28887:28893   */\n      dup3\n        /* \"#utility.yul\":28883:28897   */\n      add\n        /* \"#utility.yul\":28876:28918   */\n      mstore\n        /* \"#utility.yul\":28759:28925   */\n      pop\n      jump\t// out\n        /* \"#utility.yul\":28931:29103   */\n    tag_587:\n        /* \"#utility.yul\":29071:29095   */\n      0x55736572206973206e6f74206f6e204c6576656c203000000000000000000000\n        /* \"#utility.yul\":29067:29068   */\n      0x00\n        /* \"#utility.yul\":29059:29065   */\n      dup3\n        /* \"#utility.yul\":29055:29069   */\n      add\n        /* \"#utility.yul\":29048:29096   */\n      mstore\n        /* \"#utility.yul\":28931:29103   */\n      pop\n      jump\t// out\n        /* \"#utility.yul\":29109:29346   */\n    tag_592:\n        /* \"#utility.yul\":29249:29283   */\n      0x416d6f756e74206e6565647320746f206265206d6f7265207468616e206d696e\n        /* \"#utility.yul\":29245:29246   */\n      0x00\n        /* \"#utility.yul\":29237:29243   */\n      dup3\n        /* \"#utility.yul\":29233:29247   */\n      add\n        /* \"#utility.yul\":29226:29284   */\n      mstore\n        /* \"#utility.yul\":29318:29338   */\n      0x20616e64206c657373207468616e206d61780000000000000000000000000000\n        /* \"#utility.yul\":29313:29315   */\n      0x20\n        /* \"#utility.yul\":29305:29311   */\n      dup3\n        /* \"#utility.yul\":29301:29316   */\n      add\n        /* \"#utility.yul\":29294:29339   */\n      mstore\n        /* \"#utility.yul\":29109:29346   */\n      pop\n      jump\t// out\n        /* \"#utility.yul\":29352:29534   */\n    tag_597:\n        /* \"#utility.yul\":29492:29526   */\n      0x4f776e61626c653a2063616c6c6572206973206e6f7420746865206f776e6572\n        /* \"#utility.yul\":29488:29489   */\n      0x00\n        /* \"#utility.yul\":29480:29486   */\n      dup3\n        /* \"#utility.yul\":29476:29490   */\n      add\n        /* \"#utility.yul\":29469:29527   */\n      mstore\n        /* \"#utility.yul\":29352:29534   */\n      pop\n      jump\t// out\n        /* \"#utility.yul\":29540:29705   */\n    tag_602:\n        /* \"#utility.yul\":29680:29697   */\n      0x55736572206973206e6f74205669700000000000000000000000000000000000\n        /* \"#utility.yul\":29676:29677   */\n      0x00\n        /* \"#utility.yul\":29668:29674   */\n      dup3\n        /* \"#utility.yul\":29664:29678   */\n      add\n        /* \"#utility.yul\":29657:29698   */\n      mstore\n        /* \"#utility.yul\":29540:29705   */\n      pop\n      jump\t// out\n        /* \"#utility.yul\":29711:29892   */\n    tag_607:\n        /* \"#utility.yul\":29851:29884   */\n      0x596f7527726520616c726561647920696e2074686520566970205374616b6500\n        /* \"#utility.yul\":29847:29848   */\n      0x00\n        /* \"#utility.yul\":29839:29845   */\n      dup3\n        /* \"#utility.yul\":29835:29849   */\n      add\n        /* \"#utility.yul\":29828:29885   */\n      mstore\n        /* \"#utility.yul\":29711:29892   */\n      pop\n      jump\t// out\n        /* \"#utility.yul\":29898:30020   */\n    tag_441:\n        /* \"#utility.yul\":29971:29995   */\n      tag_771\n        /* \"#utility.yul\":29989:29994   */\n      dup2\n        /* \"#utility.yul\":29971:29995   */\n      tag_506\n      jump\t// in\n    tag_771:\n        /* \"#utility.yul\":29964:29969   */\n      dup2\n        /* \"#utility.yul\":29961:29996   */\n      eq\n        /* \"#utility.yul\":29951:30014   */\n      tag_772\n      jumpi\n        /* \"#utility.yul\":30010:30011   */\n      0x00\n        /* \"#utility.yul\":30007:30008   */\n      dup1\n        /* \"#utility.yul\":30000:30012   */\n      revert\n        /* \"#utility.yul\":29951:30014   */\n    tag_772:\n        /* \"#utility.yul\":29898:30020   */\n      pop\n      jump\t// out\n        /* \"#utility.yul\":30026:30142   */\n    tag_448:\n        /* \"#utility.yul\":30096:30117   */\n      tag_774\n        /* \"#utility.yul\":30111:30116   */\n      dup2\n        /* \"#utility.yul\":30096:30117   */\n      tag_527\n      jump\t// in\n    tag_774:\n        /* \"#utility.yul\":30089:30094   */\n      dup2\n        /* \"#utility.yul\":30086:30118   */\n      eq\n        /* \"#utility.yul\":30076:30136   */\n      tag_775\n      jumpi\n        /* \"#utility.yul\":30132:30133   */\n      0x00\n        /* \"#utility.yul\":30129:30130   */\n      dup1\n        /* \"#utility.yul\":30122:30134   */\n      revert\n        /* \"#utility.yul\":30076:30136   */\n    tag_775:\n        /* \"#utility.yul\":30026:30142   */\n      pop\n      jump\t// out\n        /* \"#utility.yul\":30148:30270   */\n    tag_452:\n        /* \"#utility.yul\":30221:30245   */\n      tag_777\n        /* \"#utility.yul\":30239:30244   */\n      dup2\n        /* \"#utility.yul\":30221:30245   */\n      tag_611\n      jump\t// in\n    tag_777:\n        /* \"#utility.yul\":30214:30219   */\n      dup2\n        /* \"#utility.yul\":30211:30246   */\n      eq\n        /* \"#utility.yul\":30201:30264   */\n      tag_778\n      jumpi\n        /* \"#utility.yul\":30260:30261   */\n      0x00\n        /* \"#utility.yul\":30257:30258   */\n      dup1\n        /* \"#utility.yul\":30250:30262   */\n      revert\n        /* \"#utility.yul\":30201:30264   */\n    tag_778:\n        /* \"#utility.yul\":30148:30270   */\n      pop\n      jump\t// out\n        /* \"#utility.yul\":30276:30394   */\n    tag_456:\n        /* \"#utility.yul\":30347:30369   */\n      tag_780\n        /* \"#utility.yul\":30363:30368   */\n      dup2\n        /* \"#utility.yul\":30347:30369   */\n      tag_732\n      jump\t// in\n    tag_780:\n        /* \"#utility.yul\":30340:30345   */\n      dup2\n        /* \"#utility.yul\":30337:30370   */\n      eq\n        /* \"#utility.yul\":30327:30388   */\n      tag_781\n      jumpi\n        /* \"#utility.yul\":30384:30385   */\n      0x00\n        /* \"#utility.yul\":30381:30382   */\n      dup1\n        /* \"#utility.yul\":30374:30386   */\n      revert\n        /* \"#utility.yul\":30327:30388   */\n    tag_781:\n        /* \"#utility.yul\":30276:30394   */\n      pop\n      jump\t// out\n\n    auxdata: 0xa264697066735822122061eec852a66b3ba339fef2e42b7a52002e38ec1a2d22dbba43b1b126db75b8a664736f6c63430008070033\n}\n",
				"bytecode": {
					"linkReferences": {},
					"object": "60a0604052610a8c600255610e746003556112c06004556802b5e3af16b18800006005556b019d971e4fe8401e7400000060065568056bc75e2d631000006007556b019d971e4fe8401e74000000600855680ad78ebc5ac62000006009556b0813f3978f89409844000000600a553480156200007a57600080fd5b5060405162003d3338038062003d338339818101604052810190620000a0919062000298565b620000c0620000b4620001b560201b60201c565b620001bd60201b60201c565b60008060146101000a81548160ff02191690831515021790555081600160006101000a81548173ffffffffffffffffffffffffffffffffffffffff021916908373ffffffffffffffffffffffffffffffffffffffff16021790555080600b60006101000a81548173ffffffffffffffffffffffffffffffffffffffff021916908373ffffffffffffffffffffffffffffffffffffffff1602179055506000739ac64cc6e4415144c455bd8e4837fea55603e5c390508073ffffffffffffffffffffffffffffffffffffffff1660808173ffffffffffffffffffffffffffffffffffffffff1660601b8152505050505062000332565b600033905090565b60008060009054906101000a900473ffffffffffffffffffffffffffffffffffffffff169050816000806101000a81548173ffffffffffffffffffffffffffffffffffffffff021916908373ffffffffffffffffffffffffffffffffffffffff1602179055508173ffffffffffffffffffffffffffffffffffffffff168173ffffffffffffffffffffffffffffffffffffffff167f8be0079c531659141344cd1fd0a4f28419497f9722a3daafe3b4186f6b6457e060405160405180910390a35050565b600081519050620002928162000318565b92915050565b60008060408385031215620002b257620002b162000313565b5b6000620002c28582860162000281565b9250506020620002d58582860162000281565b9150509250929050565b6000620002ec82620002f3565b9050919050565b600073ffffffffffffffffffffffffffffffffffffffff82169050919050565b600080fd5b6200032381620002df565b81146200032f57600080fd5b50565b60805160601c6139cd620003666000396000818161067e015281816126060152818161273001526127c201526139cd6000f3fe608060405234801561001057600080fd5b50600436106102115760003560e01c80638275b18111610125578063bf01651a116100ad578063e5d157011161007c578063e5d15701146105d6578063f2fde38b146105f2578063f4217e1e1461060e578063f7edf9ab1461062a578063fe2981b51461065a57610211565b8063bf01651a14610562578063d3900a521461057e578063d72b11bd1461059c578063dda4fa8f146105ba57610211565b80638f0fb2b7116100f45780638f0fb2b7146104bc57806391789cef146104da578063927e5998146104f857806397e9c5fe14610514578063bb6648641461054657610211565b80638275b1811461044657806384203f4b146104645780638456cb59146104945780638da5cb5b1461049e57610211565b80636296e750116101a857806367911ba41161017757806367911ba41461038a57806369e06848146103bc578063715018a6146103ec57806371a1609b146103f65780637fe509d71461041457610211565b80636296e750146102f0578063635ef285146103205780636505cf31146103505780636636389e1461036e57610211565b806332938e3a116101e457806332938e3a1461028c5780633f4ba83a146102aa578063451c3d80146102b45780635c975abb146102d257610211565b806301ef4739146102165780631694505e146102345780631ed81ff8146102525780631ff08fee1461026e575b600080fd5b61021e610676565b60405161022b9190613355565b60405180910390f35b61023c61067c565b60405161024991906131bf565b60405180910390f35b61026c60048036038101906102679190612b9d565b6106a0565b005b6102766109b1565b6040516102839190613355565b60405180910390f35b6102946109b7565b6040516102a19190613355565b60405180910390f35b6102b26109bd565b005b6102bc610a43565b6040516102c991906131da565b60405180910390f35b6102da610a69565b6040516102e791906131a4565b60405180910390f35b61030a60048036038101906103059190612a83565b610a7f565b60405161031791906131a4565b60405180910390f35b61033a60048036038101906103359190612a83565b610a9f565b60405161034791906131a4565b60405180910390f35b610358610abf565b6040516103659190613355565b60405180910390f35b61038860048036038101906103839190612b9d565b610ac5565b005b6103a4600480360381019061039f9190612a83565b610ed9565b6040516103b3939291906133ca565b60405180910390f35b6103d660048036038101906103d19190612b1d565b610f03565b6040516103e39190613355565b60405180910390f35b6103f4611048565b005b6103fe6110d0565b60405161040b9190613355565b60405180910390f35b61042e60048036038101906104299190612a83565b6110d6565b60405161043d939291906133ca565b60405180910390f35b61044e611100565b60405161045b9190613355565b60405180910390f35b61047e60048036038101906104799190612a83565b611106565b60405161048b91906131a4565b60405180910390f35b61049c611126565b005b6104a66111ac565b6040516104b39190612f37565b60405180910390f35b6104c46111d5565b6040516104d19190613355565b60405180910390f35b6104e26111db565b6040516104ef9190613355565b60405180910390f35b610512600480360381019061050d9190612b9d565b6111e1565b005b61052e60048036038101906105299190612a83565b6115f5565b60405161053d939291906133ca565b60405180910390f35b610560600480360381019061055b9190612b9d565b61161f565b005b61057c60048036038101906105779190612b9d565b611a33565b005b610586611d44565b6040516105939190613355565b60405180910390f35b6105a4611d4a565b6040516105b19190612f37565b60405180910390f35b6105d460048036038101906105cf9190612a83565b611d70565b005b6105f060048036038101906105eb9190612bca565b611e30565b005b61060c60048036038101906106079190612a83565b611ec6565b005b61062860048036038101906106239190612c1d565b611fbe565b005b610644600480360381019061063f9190612add565b61206c565b60405161065191906131a4565b60405180910390f35b610674600480360381019061066f9190612b9d565b61218b565b005b60075481565b7f000000000000000000000000000000000000000000000000000000000000000081565b6106a8610a69565b156106e8576040517f08c379a00000000000000000000000000000000000000000000000000000000081526004016106df90613295565b60405180910390fd5b60085481111580156106fc57506007548110155b61073b576040517f08c379a0000000000000000000000000000000000000000000000000000000008152600401610732906132d5565b60405180910390fd5b6000339050600e60008273ffffffffffffffffffffffffffffffffffffffff1673ffffffffffffffffffffffffffffffffffffffff16815260200190815260200160002060009054906101000a900460ff16156107cd576040517f08c379a00000000000000000000000000000000000000000000000000000000081526004016107c490613255565b60405180910390fd5b600160009054906101000a900473ffffffffffffffffffffffffffffffffffffffff1673ffffffffffffffffffffffffffffffffffffffff166323b872dd8230856040518463ffffffff1660e01b815260040161082c93929190612f52565b602060405180830381600087803b15801561084657600080fd5b505af115801561085a573d6000803e3d6000fd5b505050506040513d601f19601f8201168201806040525081019061087e9190612b70565b506001600e60008373ffffffffffffffffffffffffffffffffffffffff1673ffffffffffffffffffffffffffffffffffffffff16815260200190815260200160002060006101000a81548160ff0219169083151502179055506040518060600160405280838152602001428152602001610320426108fc919061344b565b815250600f60008373ffffffffffffffffffffffffffffffffffffffff1673ffffffffffffffffffffffffffffffffffffffff1681526020019081526020016000206000820151816000015560208201518160010155604082015181600201559050507f17849bb8c713de96b48f218d3bacc9af082261c3ccc7c6dccebe70e667b22f23816001844262278d0042610994919061344b565b6040516109a5959493929190613082565b60405180910390a15050565b60035481565b60045481565b6109c561249c565b73ffffffffffffffffffffffffffffffffffffffff166109e36111ac565b73ffffffffffffffffffffffffffffffffffffffff1614610a39576040517f08c379a0000000000000000000000000000000000000000000000000000000008152600401610a30906132f5565b60405180910390fd5b610a416124a4565b565b600160009054906101000a900473ffffffffffffffffffffffffffffffffffffffff1681565b60008060149054906101000a900460ff16905090565b600c6020528060005260406000206000915054906101000a900460ff1681565b600e6020528060005260406000206000915054906101000a900460ff1681565b60055481565b6000339050601060008273ffffffffffffffffffffffffffffffffffffffff1673ffffffffffffffffffffffffffffffffffffffff16815260200190815260200160002060009054906101000a900460ff16610b56576040517f08c379a0000000000000000000000000000000000000000000000000000000008152600401610b4d90613315565b60405180910390fd5b6000601160008373ffffffffffffffffffffffffffffffffffffffff1673ffffffffffffffffffffffffffffffffffffffff16815260200190815260200160002060000154905082811015610be0576040517f08c379a0000000000000000000000000000000000000000000000000000000008152600401610bd790613235565b60405180910390fd5b6000610bed83600261206c565b90506000610bfd84600287610f03565b905082851415610cbe57601160008573ffffffffffffffffffffffffffffffffffffffff1673ffffffffffffffffffffffffffffffffffffffff1681526020019081526020016000206000808201600090556001820160009055600282016000905550506000601060008673ffffffffffffffffffffffffffffffffffffffff1673ffffffffffffffffffffffffffffffffffffffff16815260200190815260200160002060006101000a81548160ff021916908315150217905550610d18565b84601160008673ffffffffffffffffffffffffffffffffffffffff1673ffffffffffffffffffffffffffffffffffffffff1681526020019081526020016000206000016000828254610d10919061352c565b925050819055505b8115610ddd57600160009054906101000a900473ffffffffffffffffffffffffffffffffffffffff1673ffffffffffffffffffffffffffffffffffffffff1663a9059cbb85876040518363ffffffff1660e01b8152600401610d7b92919061317b565b602060405180830381600087803b158015610d9557600080fd5b505af1158015610da9573d6000803e3d6000fd5b505050506040513d601f19601f82011682018060405250810190610dcd9190612b70565b50610dd88185612545565b610e92565b60009050600160009054906101000a900473ffffffffffffffffffffffffffffffffffffffff1673ffffffffffffffffffffffffffffffffffffffff1663a9059cbb85876040518363ffffffff1660e01b8152600401610e3e92919061317b565b602060405180830381600087803b158015610e5857600080fd5b505af1158015610e6c573d6000803e3d6000fd5b505050506040513d601f19601f82011682018060405250810190610e909190612b70565b505b7fa3dff5863d601223d9b31a0253b97a6c2085daca56089b92836b4b6a1991e04b846002848885604051610eca9594939291906130d5565b60405180910390a15050505050565b600d6020528060005260406000206000915090508060000154908060010154908060020154905083565b6000808360ff161415610f6c576000600d60008673ffffffffffffffffffffffffffffffffffffffff1673ffffffffffffffffffffffffffffffffffffffff168152602001908152602001600020600101549050610f648382600254612859565b915050611041565b60018360ff161415610fd4576000600f60008673ffffffffffffffffffffffffffffffffffffffff1673ffffffffffffffffffffffffffffffffffffffff168152602001908152602001600020600101549050610fcc8382600354612859565b915050611041565b60028360ff16141561103c576000601160008673ffffffffffffffffffffffffffffffffffffffff1673ffffffffffffffffffffffffffffffffffffffff1681526020019081526020016000206001015490506110348382600454612859565b915050611041565b600090505b9392505050565b61105061249c565b73ffffffffffffffffffffffffffffffffffffffff1661106e6111ac565b73ffffffffffffffffffffffffffffffffffffffff16146110c4576040517f08c379a00000000000000000000000000000000000000000000000000000000081526004016110bb906132f5565b60405180910390fd5b6110ce60006128b3565b565b60065481565b600f6020528060005260406000206000915090508060000154908060010154908060020154905083565b60025481565b60106020528060005260406000206000915054906101000a900460ff1681565b61112e61249c565b73ffffffffffffffffffffffffffffffffffffffff1661114c6111ac565b73ffffffffffffffffffffffffffffffffffffffff16146111a2576040517f08c379a0000000000000000000000000000000000000000000000000000000008152600401611199906132f5565b60405180910390fd5b6111aa612977565b565b60008060009054906101000a900473ffffffffffffffffffffffffffffffffffffffff16905090565b600a5481565b60095481565b6000339050600c60008273ffffffffffffffffffffffffffffffffffffffff1673ffffffffffffffffffffffffffffffffffffffff16815260200190815260200160002060009054906101000a900460ff16611272576040517f08c379a0000000000000000000000000000000000000000000000000000000008152600401611269906132b5565b60405180910390fd5b6000600d60008373ffffffffffffffffffffffffffffffffffffffff1673ffffffffffffffffffffffffffffffffffffffff168152602001908152602001600020600001549050828110156112fc576040517f08c379a00000000000000000000000000000000000000000000000000000000081526004016112f390613235565b60405180910390fd5b600061130983600061206c565b9050600061131984600087610f03565b9050828514156113da57600d60008573ffffffffffffffffffffffffffffffffffffffff1673ffffffffffffffffffffffffffffffffffffffff1681526020019081526020016000206000808201600090556001820160009055600282016000905550506000600c60008673ffffffffffffffffffffffffffffffffffffffff1673ffffffffffffffffffffffffffffffffffffffff16815260200190815260200160002060006101000a81548160ff021916908315150217905550611434565b84600d60008673ffffffffffffffffffffffffffffffffffffffff1673ffffffffffffffffffffffffffffffffffffffff168152602001908152602001600020600001600082825461142c919061352c565b925050819055505b81156114f957600160009054906101000a900473ffffffffffffffffffffffffffffffffffffffff1673ffffffffffffffffffffffffffffffffffffffff1663a9059cbb85876040518363ffffffff1660e01b815260040161149792919061317b565b602060405180830381600087803b1580156114b157600080fd5b505af11580156114c5573d6000803e3d6000fd5b505050506040513d601f19601f820116820180604052508101906114e99190612b70565b506114f48185612545565b6115ae565b60009050600160009054906101000a900473ffffffffffffffffffffffffffffffffffffffff1673ffffffffffffffffffffffffffffffffffffffff1663a9059cbb85876040518363ffffffff1660e01b815260040161155a92919061317b565b602060405180830381600087803b15801561157457600080fd5b505af1158015611588573d6000803e3d6000fd5b505050506040513d601f19601f820116820180604052508101906115ac9190612b70565b505b7fa3dff5863d601223d9b31a0253b97a6c2085daca56089b92836b4b6a1991e04b8460008488856040516115e6959493929190612f89565b60405180910390a15050505050565b60116020528060005260406000206000915090508060000154908060010154908060020154905083565b6000339050600e60008273ffffffffffffffffffffffffffffffffffffffff1673ffffffffffffffffffffffffffffffffffffffff16815260200190815260200160002060009054906101000a900460ff166116b0576040517f08c379a00000000000000000000000000000000000000000000000000000000081526004016116a790613275565b60405180910390fd5b6000600f60008373ffffffffffffffffffffffffffffffffffffffff1673ffffffffffffffffffffffffffffffffffffffff1681526020019081526020016000206000015490508281101561173a576040517f08c379a000000000000000000000000000000000000000000000000000000000815260040161173190613235565b60405180910390fd5b600061174783600161206c565b9050600061175784600187610f03565b90508285141561181857600f60008573ffffffffffffffffffffffffffffffffffffffff1673ffffffffffffffffffffffffffffffffffffffff1681526020019081526020016000206000808201600090556001820160009055600282016000905550506000600e60008673ffffffffffffffffffffffffffffffffffffffff1673ffffffffffffffffffffffffffffffffffffffff16815260200190815260200160002060006101000a81548160ff021916908315150217905550611872565b84600f60008673ffffffffffffffffffffffffffffffffffffffff1673ffffffffffffffffffffffffffffffffffffffff168152602001908152602001600020600001600082825461186a919061352c565b925050819055505b811561193757600160009054906101000a900473ffffffffffffffffffffffffffffffffffffffff1673ffffffffffffffffffffffffffffffffffffffff1663a9059cbb85876040518363ffffffff1660e01b81526004016118d592919061317b565b602060405180830381600087803b1580156118ef57600080fd5b505af1158015611903573d6000803e3d6000fd5b505050506040513d601f19601f820116820180604052508101906119279190612b70565b506119328185612545565b6119ec565b60009050600160009054906101000a900473ffffffffffffffffffffffffffffffffffffffff1673ffffffffffffffffffffffffffffffffffffffff1663a9059cbb85876040518363ffffffff1660e01b815260040161199892919061317b565b602060405180830381600087803b1580156119b257600080fd5b505af11580156119c6573d6000803e3d6000fd5b505050506040513d601f19601f820116820180604052508101906119ea9190612b70565b505b7fa3dff5863d601223d9b31a0253b97a6c2085daca56089b92836b4b6a1991e04b846001848885604051611a2495949392919061302f565b60405180910390a15050505050565b611a3b610a69565b15611a7b576040517f08c379a0000000000000000000000000000000000000000000000000000000008152600401611a7290613295565b60405180910390fd5b600a548111158015611a8f57506009548110155b611ace576040517f08c379a0000000000000000000000000000000000000000000000000000000008152600401611ac5906132d5565b60405180910390fd5b6000339050601060008273ffffffffffffffffffffffffffffffffffffffff1673ffffffffffffffffffffffffffffffffffffffff16815260200190815260200160002060009054906101000a900460ff1615611b60576040517f08c379a0000000000000000000000000000000000000000000000000000000008152600401611b5790613335565b60405180910390fd5b600160009054906101000a900473ffffffffffffffffffffffffffffffffffffffff1673ffffffffffffffffffffffffffffffffffffffff166323b872dd8230856040518463ffffffff1660e01b8152600401611bbf93929190612f52565b602060405180830381600087803b158015611bd957600080fd5b505af1158015611bed573d6000803e3d6000fd5b505050506040513d601f19601f82011682018060405250810190611c119190612b70565b506001601060008373ffffffffffffffffffffffffffffffffffffffff1673ffffffffffffffffffffffffffffffffffffffff16815260200190815260200160002060006101000a81548160ff02191690831515021790555060405180606001604052808381526020014281526020016104b042611c8f919061344b565b815250601160008373ffffffffffffffffffffffffffffffffffffffff1673ffffffffffffffffffffffffffffffffffffffff1681526020019081526020016000206000820151816000015560208201518160010155604082015181600201559050507f17849bb8c713de96b48f218d3bacc9af082261c3ccc7c6dccebe70e667b22f2381600284426276a70042611d27919061344b565b604051611d38959493929190613128565b60405180910390a15050565b60085481565b600b60009054906101000a900473ffffffffffffffffffffffffffffffffffffffff1681565b611d7861249c565b73ffffffffffffffffffffffffffffffffffffffff16611d966111ac565b73ffffffffffffffffffffffffffffffffffffffff1614611dec576040517f08c379a0000000000000000000000000000000000000000000000000000000008152600401611de3906132f5565b60405180910390fd5b80600b60006101000a81548173ffffffffffffffffffffffffffffffffffffffff021916908373ffffffffffffffffffffffffffffffffffffffff16021790555050565b611e3861249c565b73ffffffffffffffffffffffffffffffffffffffff16611e566111ac565b73ffffffffffffffffffffffffffffffffffffffff1614611eac576040517f08c379a0000000000000000000000000000000000000000000000000000000008152600401611ea3906132f5565b60405180910390fd5b826002819055508160038190555080600481905550505050565b611ece61249c565b73ffffffffffffffffffffffffffffffffffffffff16611eec6111ac565b73ffffffffffffffffffffffffffffffffffffffff1614611f42576040517f08c379a0000000000000000000000000000000000000000000000000000000008152600401611f39906132f5565b60405180910390fd5b600073ffffffffffffffffffffffffffffffffffffffff168173ffffffffffffffffffffffffffffffffffffffff161415611fb2576040517f08c379a0000000000000000000000000000000000000000000000000000000008152600401611fa990613215565b60405180910390fd5b611fbb816128b3565b50565b611fc661249c565b73ffffffffffffffffffffffffffffffffffffffff16611fe46111ac565b73ffffffffffffffffffffffffffffffffffffffff161461203a576040517f08c379a0000000000000000000000000000000000000000000000000000000008152600401612031906132f5565b60405180910390fd5b856005819055508460068190555083600781905550826008819055508160098190555080600a81905550505050505050565b60008060008360ff1614156120c557600d60008573ffffffffffffffffffffffffffffffffffffffff1673ffffffffffffffffffffffffffffffffffffffff16815260200190815260200160002060020154905061217d565b60018360ff16141561211b57600f60008573ffffffffffffffffffffffffffffffffffffffff1673ffffffffffffffffffffffffffffffffffffffff16815260200190815260200160002060020154905061217c565b60028360ff16141561217157601160008573ffffffffffffffffffffffffffffffffffffffff1673ffffffffffffffffffffffffffffffffffffffff16815260200190815260200160002060020154905061217b565b6000915050612185565b5b5b804210159150505b92915050565b612193610a69565b156121d3576040517f08c379a00000000000000000000000000000000000000000000000000000000081526004016121ca90613295565b60405180910390fd5b60065481111580156121e757506005548110155b612226576040517f08c379a000000000000000000000000000000000000000000000000000000000815260040161221d906132d5565b60405180910390fd5b6000339050600c60008273ffffffffffffffffffffffffffffffffffffffff1673ffffffffffffffffffffffffffffffffffffffff16815260200190815260200160002060009054906101000a900460ff16156122b8576040517f08c379a00000000000000000000000000000000000000000000000000000000081526004016122af90613255565b60405180910390fd5b600160009054906101000a900473ffffffffffffffffffffffffffffffffffffffff1673ffffffffffffffffffffffffffffffffffffffff166323b872dd8230856040518463ffffffff1660e01b815260040161231793929190612f52565b602060405180830381600087803b15801561233157600080fd5b505af1158015612345573d6000803e3d6000fd5b505050506040513d601f19601f820116820180604052508101906123699190612b70565b506001600c60008373ffffffffffffffffffffffffffffffffffffffff1673ffffffffffffffffffffffffffffffffffffffff16815260200190815260200160002060006101000a81548160ff0219169083151502179055506040518060600160405280838152602001428152602001610258426123e7919061344b565b815250600d60008373ffffffffffffffffffffffffffffffffffffffff1673ffffffffffffffffffffffffffffffffffffffff1681526020019081526020016000206000820151816000015560208201518160010155604082015181600201559050507f17849bb8c713de96b48f218d3bacc9af082261c3ccc7c6dccebe70e667b22f23816000844262093a804261247f919061344b565b604051612490959493929190612fdc565b60405180910390a15050565b600033905090565b6124ac610a69565b6124eb576040517f08c379a00000000000000000000000000000000000000000000000000000000081526004016124e2906131f5565b60405180910390fd5b60008060146101000a81548160ff0219169083151502179055507f5db9ee0a495bf2e6ff9c91a7834c1ba4fdd244a5e8aa4e537bd38aeae4b073aa61252e61249c565b60405161253b9190612f37565b60405180910390a1565b6000600267ffffffffffffffff811115612562576125616136d2565b5b6040519080825280602002602001820160405280156125905781602001602082028036833780820191505090505b509050600160009054906101000a900473ffffffffffffffffffffffffffffffffffffffff16816000815181106125ca576125c96136a3565b5b602002602001019073ffffffffffffffffffffffffffffffffffffffff16908173ffffffffffffffffffffffffffffffffffffffff16815250507f000000000000000000000000000000000000000000000000000000000000000073ffffffffffffffffffffffffffffffffffffffff1663ad5c46486040518163ffffffff1660e01b815260040160206040518083038186803b15801561266a57600080fd5b505afa15801561267e573d6000803e3d6000fd5b505050506040513d601f19601f820116820180604052508101906126a29190612ab0565b816001815181106126b6576126b56136a3565b5b602002602001019073ffffffffffffffffffffffffffffffffffffffff16908173ffffffffffffffffffffffffffffffffffffffff1681525050600160009054906101000a900473ffffffffffffffffffffffffffffffffffffffff1673ffffffffffffffffffffffffffffffffffffffff1663095ea7b37f0000000000000000000000000000000000000000000000000000000000000000856040518363ffffffff1660e01b815260040161276d92919061317b565b602060405180830381600087803b15801561278757600080fd5b505af115801561279b573d6000803e3d6000fd5b505050506040513d601f19601f820116820180604052508101906127bf9190612b70565b507f000000000000000000000000000000000000000000000000000000000000000073ffffffffffffffffffffffffffffffffffffffff1663791ac9478460008486426040518663ffffffff1660e01b8152600401612822959493929190613370565b600060405180830381600087803b15801561283c57600080fd5b505af1158015612850573d6000803e3d6000fd5b50505050505050565b6000808342612868919061352c565b905060006301e13380612710858861288091906134d2565b61288a91906134a1565b61289491906134a1565b9050600081836128a491906134d2565b90508093505050509392505050565b60008060009054906101000a900473ffffffffffffffffffffffffffffffffffffffff169050816000806101000a81548173ffffffffffffffffffffffffffffffffffffffff021916908373ffffffffffffffffffffffffffffffffffffffff1602179055508173ffffffffffffffffffffffffffffffffffffffff168173ffffffffffffffffffffffffffffffffffffffff167f8be0079c531659141344cd1fd0a4f28419497f9722a3daafe3b4186f6b6457e060405160405180910390a35050565b61297f610a69565b156129bf576040517f08c379a00000000000000000000000000000000000000000000000000000000081526004016129b690613295565b60405180910390fd5b6001600060146101000a81548160ff0219169083151502179055507f62e78cea01bee320cd4e420270b5ea74000d11b0c9f74754ebdbfc544b05a258612a0361249c565b604051612a109190612f37565b60405180910390a1565b600081359050612a298161393b565b92915050565b600081519050612a3e8161393b565b92915050565b600081519050612a5381613952565b92915050565b600081359050612a6881613969565b92915050565b600081359050612a7d81613980565b92915050565b600060208284031215612a9957612a98613701565b5b6000612aa784828501612a1a565b91505092915050565b600060208284031215612ac657612ac5613701565b5b6000612ad484828501612a2f565b91505092915050565b60008060408385031215612af457612af3613701565b5b6000612b0285828601612a1a565b9250506020612b1385828601612a6e565b9150509250929050565b600080600060608486031215612b3657612b35613701565b5b6000612b4486828701612a1a565b9350506020612b5586828701612a6e565b9250506040612b6686828701612a59565b9150509250925092565b600060208284031215612b8657612b85613701565b5b6000612b9484828501612a44565b91505092915050565b600060208284031215612bb357612bb2613701565b5b6000612bc184828501612a59565b91505092915050565b600080600060608486031215612be357612be2613701565b5b6000612bf186828701612a59565b9350506020612c0286828701612a59565b9250506040612c1386828701612a59565b9150509250925092565b60008060008060008060c08789031215612c3a57612c39613701565b5b6000612c4889828a01612a59565b9650506020612c5989828a01612a59565b9550506040612c6a89828a01612a59565b9450506060612c7b89828a01612a59565b9350506080612c8c89828a01612a59565b92505060a0612c9d89828a01612a59565b9150509295509295509295565b6000612cb68383612cc2565b60208301905092915050565b612ccb81613560565b82525050565b612cda81613560565b82525050565b6000612ceb82613411565b612cf58185613429565b9350612d0083613401565b8060005b83811015612d31578151612d188882612caa565b9750612d238361341c565b925050600181019050612d04565b5085935050505092915050565b612d4781613572565b82525050565b612d56816135b5565b82525050565b612d65816135c7565b82525050565b612d74816135d9565b82525050565b612d83816135eb565b82525050565b612d92816135fd565b82525050565b612da18161360f565b82525050565b6000612db460148361343a565b9150612dbf82613706565b602082019050919050565b6000612dd760268361343a565b9150612de28261372f565b604082019050919050565b6000612dfa601e8361343a565b9150612e058261377e565b602082019050919050565b6000612e1d60228361343a565b9150612e28826137a7565b604082019050919050565b6000612e4060168361343a565b9150612e4b826137f6565b602082019050919050565b6000612e6360108361343a565b9150612e6e8261381f565b602082019050919050565b6000612e8660168361343a565b9150612e9182613848565b602082019050919050565b6000612ea960328361343a565b9150612eb482613871565b604082019050919050565b6000612ecc60208361343a565b9150612ed7826138c0565b602082019050919050565b6000612eef600f8361343a565b9150612efa826138e9565b602082019050919050565b6000612f12601f8361343a565b9150612f1d82613912565b602082019050919050565b612f318161359e565b82525050565b6000602082019050612f4c6000830184612cd1565b92915050565b6000606082019050612f676000830186612cd1565b612f746020830185612cd1565b612f816040830184612f28565b949350505050565b600060a082019050612f9e6000830188612cd1565b612fab6020830187612d7a565b612fb86040830186612d3e565b612fc56060830185612f28565b612fd26080830184612f28565b9695505050505050565b600060a082019050612ff16000830188612cd1565b612ffe6020830187612d7a565b61300b6040830186612f28565b6130186060830185612f28565b6130256080830184612f28565b9695505050505050565b600060a0820190506130446000830188612cd1565b6130516020830187612d89565b61305e6040830186612d3e565b61306b6060830185612f28565b6130786080830184612f28565b9695505050505050565b600060a0820190506130976000830188612cd1565b6130a46020830187612d89565b6130b16040830186612f28565b6130be6060830185612f28565b6130cb6080830184612f28565b9695505050505050565b600060a0820190506130ea6000830188612cd1565b6130f76020830187612d98565b6131046040830186612d3e565b6131116060830185612f28565b61311e6080830184612f28565b9695505050505050565b600060a08201905061313d6000830188612cd1565b61314a6020830187612d98565b6131576040830186612f28565b6131646060830185612f28565b6131716080830184612f28565b9695505050505050565b60006040820190506131906000830185612cd1565b61319d6020830184612f28565b9392505050565b60006020820190506131b96000830184612d3e565b92915050565b60006020820190506131d46000830184612d4d565b92915050565b60006020820190506131ef6000830184612d5c565b92915050565b6000602082019050818103600083015261320e81612da7565b9050919050565b6000602082019050818103600083015261322e81612dca565b9050919050565b6000602082019050818103600083015261324e81612ded565b9050919050565b6000602082019050818103600083015261326e81612e10565b9050919050565b6000602082019050818103600083015261328e81612e33565b9050919050565b600060208201905081810360008301526132ae81612e56565b9050919050565b600060208201905081810360008301526132ce81612e79565b9050919050565b600060208201905081810360008301526132ee81612e9c565b9050919050565b6000602082019050818103600083015261330e81612ebf565b9050919050565b6000602082019050818103600083015261332e81612ee2565b9050919050565b6000602082019050818103600083015261334e81612f05565b9050919050565b600060208201905061336a6000830184612f28565b92915050565b600060a0820190506133856000830188612f28565b6133926020830187612d6b565b81810360408301526133a48186612ce0565b90506133b36060830185612cd1565b6133c06080830184612f28565b9695505050505050565b60006060820190506133df6000830186612f28565b6133ec6020830185612f28565b6133f96040830184612f28565b949350505050565b6000819050602082019050919050565b600081519050919050565b6000602082019050919050565b600082825260208201905092915050565b600082825260208201905092915050565b60006134568261359e565b91506134618361359e565b9250827fffffffffffffffffffffffffffffffffffffffffffffffffffffffffffffffff0382111561349657613495613645565b5b828201905092915050565b60006134ac8261359e565b91506134b78361359e565b9250826134c7576134c6613674565b5b828204905092915050565b60006134dd8261359e565b91506134e88361359e565b9250817fffffffffffffffffffffffffffffffffffffffffffffffffffffffffffffffff048311821515161561352157613520613645565b5b828202905092915050565b60006135378261359e565b91506135428361359e565b92508282101561355557613554613645565b5b828203905092915050565b600061356b8261357e565b9050919050565b60008115159050919050565b600073ffffffffffffffffffffffffffffffffffffffff82169050919050565b6000819050919050565b600060ff82169050919050565b60006135c082613621565b9050919050565b60006135d282613621565b9050919050565b60006135e48261359e565b9050919050565b60006135f6826135a8565b9050919050565b6000613608826135a8565b9050919050565b600061361a826135a8565b9050919050565b600061362c82613633565b9050919050565b600061363e8261357e565b9050919050565b7f4e487b7100000000000000000000000000000000000000000000000000000000600052601160045260246000fd5b7f4e487b7100000000000000000000000000000000000000000000000000000000600052601260045260246000fd5b7f4e487b7100000000000000000000000000000000000000000000000000000000600052603260045260246000fd5b7f4e487b7100000000000000000000000000000000000000000000000000000000600052604160045260246000fd5b600080fd5b7f5061757361626c653a206e6f7420706175736564000000000000000000000000600082015250565b7f4f776e61626c653a206e6577206f776e657220697320746865207a65726f206160008201527f6464726573730000000000000000000000000000000000000000000000000000602082015250565b7f4e6f7420656e6f7567682062616c616e636520746f2077697468647261770000600082015250565b7f596f7527726520616c726561647920696e2074686973205374616b65206c657660008201527f656c000000000000000000000000000000000000000000000000000000000000602082015250565b7f55736572206973206e6f74206f6e204c6576656c203100000000000000000000600082015250565b7f5061757361626c653a2070617573656400000000000000000000000000000000600082015250565b7f55736572206973206e6f74206f6e204c6576656c203000000000000000000000600082015250565b7f416d6f756e74206e6565647320746f206265206d6f7265207468616e206d696e60008201527f20616e64206c657373207468616e206d61780000000000000000000000000000602082015250565b7f4f776e61626c653a2063616c6c6572206973206e6f7420746865206f776e6572600082015250565b7f55736572206973206e6f74205669700000000000000000000000000000000000600082015250565b7f596f7527726520616c726561647920696e2074686520566970205374616b6500600082015250565b61394481613560565b811461394f57600080fd5b50565b61395b81613572565b811461396657600080fd5b50565b6139728161359e565b811461397d57600080fd5b50565b613989816135a8565b811461399457600080fd5b5056fea264697066735822122061eec852a66b3ba339fef2e42b7a52002e38ec1a2d22dbba43b1b126db75b8a664736f6c63430008070033",
					"opcodes": "PUSH1 0xA0 PUSH1 0x40 MSTORE PUSH2 0xA8C PUSH1 0x2 SSTORE PUSH2 0xE74 PUSH1 0x3 SSTORE PUSH2 0x12C0 PUSH1 0x4 SSTORE PUSH9 0x2B5E3AF16B1880000 PUSH1 0x5 SSTORE PUSH12 0x19D971E4FE8401E74000000 PUSH1 0x6 SSTORE PUSH9 0x56BC75E2D63100000 PUSH1 0x7 SSTORE PUSH12 0x19D971E4FE8401E74000000 PUSH1 0x8 SSTORE PUSH9 0xAD78EBC5AC6200000 PUSH1 0x9 SSTORE PUSH12 0x813F3978F89409844000000 PUSH1 0xA SSTORE CALLVALUE DUP1 ISZERO PUSH3 0x7A JUMPI PUSH1 0x0 DUP1 REVERT JUMPDEST POP PUSH1 0x40 MLOAD PUSH3 0x3D33 CODESIZE SUB DUP1 PUSH3 0x3D33 DUP4 CODECOPY DUP2 DUP2 ADD PUSH1 0x40 MSTORE DUP2 ADD SWAP1 PUSH3 0xA0 SWAP2 SWAP1 PUSH3 0x298 JUMP JUMPDEST PUSH3 0xC0 PUSH3 0xB4 PUSH3 0x1B5 PUSH1 0x20 SHL PUSH1 0x20 SHR JUMP JUMPDEST PUSH3 0x1BD PUSH1 0x20 SHL PUSH1 0x20 SHR JUMP JUMPDEST PUSH1 0x0 DUP1 PUSH1 0x14 PUSH2 0x100 EXP DUP2 SLOAD DUP2 PUSH1 0xFF MUL NOT AND SWAP1 DUP4 ISZERO ISZERO MUL OR SWAP1 SSTORE POP DUP2 PUSH1 0x1 PUSH1 0x0 PUSH2 0x100 EXP DUP2 SLOAD DUP2 PUSH20 0xFFFFFFFFFFFFFFFFFFFFFFFFFFFFFFFFFFFFFFFF MUL NOT AND SWAP1 DUP4 PUSH20 0xFFFFFFFFFFFFFFFFFFFFFFFFFFFFFFFFFFFFFFFF AND MUL OR SWAP1 SSTORE POP DUP1 PUSH1 0xB PUSH1 0x0 PUSH2 0x100 EXP DUP2 SLOAD DUP2 PUSH20 0xFFFFFFFFFFFFFFFFFFFFFFFFFFFFFFFFFFFFFFFF MUL NOT AND SWAP1 DUP4 PUSH20 0xFFFFFFFFFFFFFFFFFFFFFFFFFFFFFFFFFFFFFFFF AND MUL OR SWAP1 SSTORE POP PUSH1 0x0 PUSH20 0x9AC64CC6E4415144C455BD8E4837FEA55603E5C3 SWAP1 POP DUP1 PUSH20 0xFFFFFFFFFFFFFFFFFFFFFFFFFFFFFFFFFFFFFFFF AND PUSH1 0x80 DUP2 PUSH20 0xFFFFFFFFFFFFFFFFFFFFFFFFFFFFFFFFFFFFFFFF AND PUSH1 0x60 SHL DUP2 MSTORE POP POP POP POP POP PUSH3 0x332 JUMP JUMPDEST PUSH1 0x0 CALLER SWAP1 POP SWAP1 JUMP JUMPDEST PUSH1 0x0 DUP1 PUSH1 0x0 SWAP1 SLOAD SWAP1 PUSH2 0x100 EXP SWAP1 DIV PUSH20 0xFFFFFFFFFFFFFFFFFFFFFFFFFFFFFFFFFFFFFFFF AND SWAP1 POP DUP2 PUSH1 0x0 DUP1 PUSH2 0x100 EXP DUP2 SLOAD DUP2 PUSH20 0xFFFFFFFFFFFFFFFFFFFFFFFFFFFFFFFFFFFFFFFF MUL NOT AND SWAP1 DUP4 PUSH20 0xFFFFFFFFFFFFFFFFFFFFFFFFFFFFFFFFFFFFFFFF AND MUL OR SWAP1 SSTORE POP DUP2 PUSH20 0xFFFFFFFFFFFFFFFFFFFFFFFFFFFFFFFFFFFFFFFF AND DUP2 PUSH20 0xFFFFFFFFFFFFFFFFFFFFFFFFFFFFFFFFFFFFFFFF AND PUSH32 0x8BE0079C531659141344CD1FD0A4F28419497F9722A3DAAFE3B4186F6B6457E0 PUSH1 0x40 MLOAD PUSH1 0x40 MLOAD DUP1 SWAP2 SUB SWAP1 LOG3 POP POP JUMP JUMPDEST PUSH1 0x0 DUP2 MLOAD SWAP1 POP PUSH3 0x292 DUP2 PUSH3 0x318 JUMP JUMPDEST SWAP3 SWAP2 POP POP JUMP JUMPDEST PUSH1 0x0 DUP1 PUSH1 0x40 DUP4 DUP6 SUB SLT ISZERO PUSH3 0x2B2 JUMPI PUSH3 0x2B1 PUSH3 0x313 JUMP JUMPDEST JUMPDEST PUSH1 0x0 PUSH3 0x2C2 DUP6 DUP3 DUP7 ADD PUSH3 0x281 JUMP JUMPDEST SWAP3 POP POP PUSH1 0x20 PUSH3 0x2D5 DUP6 DUP3 DUP7 ADD PUSH3 0x281 JUMP JUMPDEST SWAP2 POP POP SWAP3 POP SWAP3 SWAP1 POP JUMP JUMPDEST PUSH1 0x0 PUSH3 0x2EC DUP3 PUSH3 0x2F3 JUMP JUMPDEST SWAP1 POP SWAP2 SWAP1 POP JUMP JUMPDEST PUSH1 0x0 PUSH20 0xFFFFFFFFFFFFFFFFFFFFFFFFFFFFFFFFFFFFFFFF DUP3 AND SWAP1 POP SWAP2 SWAP1 POP JUMP JUMPDEST PUSH1 0x0 DUP1 REVERT JUMPDEST PUSH3 0x323 DUP2 PUSH3 0x2DF JUMP JUMPDEST DUP2 EQ PUSH3 0x32F JUMPI PUSH1 0x0 DUP1 REVERT JUMPDEST POP JUMP JUMPDEST PUSH1 0x80 MLOAD PUSH1 0x60 SHR PUSH2 0x39CD PUSH3 0x366 PUSH1 0x0 CODECOPY PUSH1 0x0 DUP2 DUP2 PUSH2 0x67E ADD MSTORE DUP2 DUP2 PUSH2 0x2606 ADD MSTORE DUP2 DUP2 PUSH2 0x2730 ADD MSTORE PUSH2 0x27C2 ADD MSTORE PUSH2 0x39CD PUSH1 0x0 RETURN INVALID PUSH1 0x80 PUSH1 0x40 MSTORE CALLVALUE DUP1 ISZERO PUSH2 0x10 JUMPI PUSH1 0x0 DUP1 REVERT JUMPDEST POP PUSH1 0x4 CALLDATASIZE LT PUSH2 0x211 JUMPI PUSH1 0x0 CALLDATALOAD PUSH1 0xE0 SHR DUP1 PUSH4 0x8275B181 GT PUSH2 0x125 JUMPI DUP1 PUSH4 0xBF01651A GT PUSH2 0xAD JUMPI DUP1 PUSH4 0xE5D15701 GT PUSH2 0x7C JUMPI DUP1 PUSH4 0xE5D15701 EQ PUSH2 0x5D6 JUMPI DUP1 PUSH4 0xF2FDE38B EQ PUSH2 0x5F2 JUMPI DUP1 PUSH4 0xF4217E1E EQ PUSH2 0x60E JUMPI DUP1 PUSH4 0xF7EDF9AB EQ PUSH2 0x62A JUMPI DUP1 PUSH4 0xFE2981B5 EQ PUSH2 0x65A JUMPI PUSH2 0x211 JUMP JUMPDEST DUP1 PUSH4 0xBF01651A EQ PUSH2 0x562 JUMPI DUP1 PUSH4 0xD3900A52 EQ PUSH2 0x57E JUMPI DUP1 PUSH4 0xD72B11BD EQ PUSH2 0x59C JUMPI DUP1 PUSH4 0xDDA4FA8F EQ PUSH2 0x5BA JUMPI PUSH2 0x211 JUMP JUMPDEST DUP1 PUSH4 0x8F0FB2B7 GT PUSH2 0xF4 JUMPI DUP1 PUSH4 0x8F0FB2B7 EQ PUSH2 0x4BC JUMPI DUP1 PUSH4 0x91789CEF EQ PUSH2 0x4DA JUMPI DUP1 PUSH4 0x927E5998 EQ PUSH2 0x4F8 JUMPI DUP1 PUSH4 0x97E9C5FE EQ PUSH2 0x514 JUMPI DUP1 PUSH4 0xBB664864 EQ PUSH2 0x546 JUMPI PUSH2 0x211 JUMP JUMPDEST DUP1 PUSH4 0x8275B181 EQ PUSH2 0x446 JUMPI DUP1 PUSH4 0x84203F4B EQ PUSH2 0x464 JUMPI DUP1 PUSH4 0x8456CB59 EQ PUSH2 0x494 JUMPI DUP1 PUSH4 0x8DA5CB5B EQ PUSH2 0x49E JUMPI PUSH2 0x211 JUMP JUMPDEST DUP1 PUSH4 0x6296E750 GT PUSH2 0x1A8 JUMPI DUP1 PUSH4 0x67911BA4 GT PUSH2 0x177 JUMPI DUP1 PUSH4 0x67911BA4 EQ PUSH2 0x38A JUMPI DUP1 PUSH4 0x69E06848 EQ PUSH2 0x3BC JUMPI DUP1 PUSH4 0x715018A6 EQ PUSH2 0x3EC JUMPI DUP1 PUSH4 0x71A1609B EQ PUSH2 0x3F6 JUMPI DUP1 PUSH4 0x7FE509D7 EQ PUSH2 0x414 JUMPI PUSH2 0x211 JUMP JUMPDEST DUP1 PUSH4 0x6296E750 EQ PUSH2 0x2F0 JUMPI DUP1 PUSH4 0x635EF285 EQ PUSH2 0x320 JUMPI DUP1 PUSH4 0x6505CF31 EQ PUSH2 0x350 JUMPI DUP1 PUSH4 0x6636389E EQ PUSH2 0x36E JUMPI PUSH2 0x211 JUMP JUMPDEST DUP1 PUSH4 0x32938E3A GT PUSH2 0x1E4 JUMPI DUP1 PUSH4 0x32938E3A EQ PUSH2 0x28C JUMPI DUP1 PUSH4 0x3F4BA83A EQ PUSH2 0x2AA JUMPI DUP1 PUSH4 0x451C3D80 EQ PUSH2 0x2B4 JUMPI DUP1 PUSH4 0x5C975ABB EQ PUSH2 0x2D2 JUMPI PUSH2 0x211 JUMP JUMPDEST DUP1 PUSH4 0x1EF4739 EQ PUSH2 0x216 JUMPI DUP1 PUSH4 0x1694505E EQ PUSH2 0x234 JUMPI DUP1 PUSH4 0x1ED81FF8 EQ PUSH2 0x252 JUMPI DUP1 PUSH4 0x1FF08FEE EQ PUSH2 0x26E JUMPI JUMPDEST PUSH1 0x0 DUP1 REVERT JUMPDEST PUSH2 0x21E PUSH2 0x676 JUMP JUMPDEST PUSH1 0x40 MLOAD PUSH2 0x22B SWAP2 SWAP1 PUSH2 0x3355 JUMP JUMPDEST PUSH1 0x40 MLOAD DUP1 SWAP2 SUB SWAP1 RETURN JUMPDEST PUSH2 0x23C PUSH2 0x67C JUMP JUMPDEST PUSH1 0x40 MLOAD PUSH2 0x249 SWAP2 SWAP1 PUSH2 0x31BF JUMP JUMPDEST PUSH1 0x40 MLOAD DUP1 SWAP2 SUB SWAP1 RETURN JUMPDEST PUSH2 0x26C PUSH1 0x4 DUP1 CALLDATASIZE SUB DUP2 ADD SWAP1 PUSH2 0x267 SWAP2 SWAP1 PUSH2 0x2B9D JUMP JUMPDEST PUSH2 0x6A0 JUMP JUMPDEST STOP JUMPDEST PUSH2 0x276 PUSH2 0x9B1 JUMP JUMPDEST PUSH1 0x40 MLOAD PUSH2 0x283 SWAP2 SWAP1 PUSH2 0x3355 JUMP JUMPDEST PUSH1 0x40 MLOAD DUP1 SWAP2 SUB SWAP1 RETURN JUMPDEST PUSH2 0x294 PUSH2 0x9B7 JUMP JUMPDEST PUSH1 0x40 MLOAD PUSH2 0x2A1 SWAP2 SWAP1 PUSH2 0x3355 JUMP JUMPDEST PUSH1 0x40 MLOAD DUP1 SWAP2 SUB SWAP1 RETURN JUMPDEST PUSH2 0x2B2 PUSH2 0x9BD JUMP JUMPDEST STOP JUMPDEST PUSH2 0x2BC PUSH2 0xA43 JUMP JUMPDEST PUSH1 0x40 MLOAD PUSH2 0x2C9 SWAP2 SWAP1 PUSH2 0x31DA JUMP JUMPDEST PUSH1 0x40 MLOAD DUP1 SWAP2 SUB SWAP1 RETURN JUMPDEST PUSH2 0x2DA PUSH2 0xA69 JUMP JUMPDEST PUSH1 0x40 MLOAD PUSH2 0x2E7 SWAP2 SWAP1 PUSH2 0x31A4 JUMP JUMPDEST PUSH1 0x40 MLOAD DUP1 SWAP2 SUB SWAP1 RETURN JUMPDEST PUSH2 0x30A PUSH1 0x4 DUP1 CALLDATASIZE SUB DUP2 ADD SWAP1 PUSH2 0x305 SWAP2 SWAP1 PUSH2 0x2A83 JUMP JUMPDEST PUSH2 0xA7F JUMP JUMPDEST PUSH1 0x40 MLOAD PUSH2 0x317 SWAP2 SWAP1 PUSH2 0x31A4 JUMP JUMPDEST PUSH1 0x40 MLOAD DUP1 SWAP2 SUB SWAP1 RETURN JUMPDEST PUSH2 0x33A PUSH1 0x4 DUP1 CALLDATASIZE SUB DUP2 ADD SWAP1 PUSH2 0x335 SWAP2 SWAP1 PUSH2 0x2A83 JUMP JUMPDEST PUSH2 0xA9F JUMP JUMPDEST PUSH1 0x40 MLOAD PUSH2 0x347 SWAP2 SWAP1 PUSH2 0x31A4 JUMP JUMPDEST PUSH1 0x40 MLOAD DUP1 SWAP2 SUB SWAP1 RETURN JUMPDEST PUSH2 0x358 PUSH2 0xABF JUMP JUMPDEST PUSH1 0x40 MLOAD PUSH2 0x365 SWAP2 SWAP1 PUSH2 0x3355 JUMP JUMPDEST PUSH1 0x40 MLOAD DUP1 SWAP2 SUB SWAP1 RETURN JUMPDEST PUSH2 0x388 PUSH1 0x4 DUP1 CALLDATASIZE SUB DUP2 ADD SWAP1 PUSH2 0x383 SWAP2 SWAP1 PUSH2 0x2B9D JUMP JUMPDEST PUSH2 0xAC5 JUMP JUMPDEST STOP JUMPDEST PUSH2 0x3A4 PUSH1 0x4 DUP1 CALLDATASIZE SUB DUP2 ADD SWAP1 PUSH2 0x39F SWAP2 SWAP1 PUSH2 0x2A83 JUMP JUMPDEST PUSH2 0xED9 JUMP JUMPDEST PUSH1 0x40 MLOAD PUSH2 0x3B3 SWAP4 SWAP3 SWAP2 SWAP1 PUSH2 0x33CA JUMP JUMPDEST PUSH1 0x40 MLOAD DUP1 SWAP2 SUB SWAP1 RETURN JUMPDEST PUSH2 0x3D6 PUSH1 0x4 DUP1 CALLDATASIZE SUB DUP2 ADD SWAP1 PUSH2 0x3D1 SWAP2 SWAP1 PUSH2 0x2B1D JUMP JUMPDEST PUSH2 0xF03 JUMP JUMPDEST PUSH1 0x40 MLOAD PUSH2 0x3E3 SWAP2 SWAP1 PUSH2 0x3355 JUMP JUMPDEST PUSH1 0x40 MLOAD DUP1 SWAP2 SUB SWAP1 RETURN JUMPDEST PUSH2 0x3F4 PUSH2 0x1048 JUMP JUMPDEST STOP JUMPDEST PUSH2 0x3FE PUSH2 0x10D0 JUMP JUMPDEST PUSH1 0x40 MLOAD PUSH2 0x40B SWAP2 SWAP1 PUSH2 0x3355 JUMP JUMPDEST PUSH1 0x40 MLOAD DUP1 SWAP2 SUB SWAP1 RETURN JUMPDEST PUSH2 0x42E PUSH1 0x4 DUP1 CALLDATASIZE SUB DUP2 ADD SWAP1 PUSH2 0x429 SWAP2 SWAP1 PUSH2 0x2A83 JUMP JUMPDEST PUSH2 0x10D6 JUMP JUMPDEST PUSH1 0x40 MLOAD PUSH2 0x43D SWAP4 SWAP3 SWAP2 SWAP1 PUSH2 0x33CA JUMP JUMPDEST PUSH1 0x40 MLOAD DUP1 SWAP2 SUB SWAP1 RETURN JUMPDEST PUSH2 0x44E PUSH2 0x1100 JUMP JUMPDEST PUSH1 0x40 MLOAD PUSH2 0x45B SWAP2 SWAP1 PUSH2 0x3355 JUMP JUMPDEST PUSH1 0x40 MLOAD DUP1 SWAP2 SUB SWAP1 RETURN JUMPDEST PUSH2 0x47E PUSH1 0x4 DUP1 CALLDATASIZE SUB DUP2 ADD SWAP1 PUSH2 0x479 SWAP2 SWAP1 PUSH2 0x2A83 JUMP JUMPDEST PUSH2 0x1106 JUMP JUMPDEST PUSH1 0x40 MLOAD PUSH2 0x48B SWAP2 SWAP1 PUSH2 0x31A4 JUMP JUMPDEST PUSH1 0x40 MLOAD DUP1 SWAP2 SUB SWAP1 RETURN JUMPDEST PUSH2 0x49C PUSH2 0x1126 JUMP JUMPDEST STOP JUMPDEST PUSH2 0x4A6 PUSH2 0x11AC JUMP JUMPDEST PUSH1 0x40 MLOAD PUSH2 0x4B3 SWAP2 SWAP1 PUSH2 0x2F37 JUMP JUMPDEST PUSH1 0x40 MLOAD DUP1 SWAP2 SUB SWAP1 RETURN JUMPDEST PUSH2 0x4C4 PUSH2 0x11D5 JUMP JUMPDEST PUSH1 0x40 MLOAD PUSH2 0x4D1 SWAP2 SWAP1 PUSH2 0x3355 JUMP JUMPDEST PUSH1 0x40 MLOAD DUP1 SWAP2 SUB SWAP1 RETURN JUMPDEST PUSH2 0x4E2 PUSH2 0x11DB JUMP JUMPDEST PUSH1 0x40 MLOAD PUSH2 0x4EF SWAP2 SWAP1 PUSH2 0x3355 JUMP JUMPDEST PUSH1 0x40 MLOAD DUP1 SWAP2 SUB SWAP1 RETURN JUMPDEST PUSH2 0x512 PUSH1 0x4 DUP1 CALLDATASIZE SUB DUP2 ADD SWAP1 PUSH2 0x50D SWAP2 SWAP1 PUSH2 0x2B9D JUMP JUMPDEST PUSH2 0x11E1 JUMP JUMPDEST STOP JUMPDEST PUSH2 0x52E PUSH1 0x4 DUP1 CALLDATASIZE SUB DUP2 ADD SWAP1 PUSH2 0x529 SWAP2 SWAP1 PUSH2 0x2A83 JUMP JUMPDEST PUSH2 0x15F5 JUMP JUMPDEST PUSH1 0x40 MLOAD PUSH2 0x53D SWAP4 SWAP3 SWAP2 SWAP1 PUSH2 0x33CA JUMP JUMPDEST PUSH1 0x40 MLOAD DUP1 SWAP2 SUB SWAP1 RETURN JUMPDEST PUSH2 0x560 PUSH1 0x4 DUP1 CALLDATASIZE SUB DUP2 ADD SWAP1 PUSH2 0x55B SWAP2 SWAP1 PUSH2 0x2B9D JUMP JUMPDEST PUSH2 0x161F JUMP JUMPDEST STOP JUMPDEST PUSH2 0x57C PUSH1 0x4 DUP1 CALLDATASIZE SUB DUP2 ADD SWAP1 PUSH2 0x577 SWAP2 SWAP1 PUSH2 0x2B9D JUMP JUMPDEST PUSH2 0x1A33 JUMP JUMPDEST STOP JUMPDEST PUSH2 0x586 PUSH2 0x1D44 JUMP JUMPDEST PUSH1 0x40 MLOAD PUSH2 0x593 SWAP2 SWAP1 PUSH2 0x3355 JUMP JUMPDEST PUSH1 0x40 MLOAD DUP1 SWAP2 SUB SWAP1 RETURN JUMPDEST PUSH2 0x5A4 PUSH2 0x1D4A JUMP JUMPDEST PUSH1 0x40 MLOAD PUSH2 0x5B1 SWAP2 SWAP1 PUSH2 0x2F37 JUMP JUMPDEST PUSH1 0x40 MLOAD DUP1 SWAP2 SUB SWAP1 RETURN JUMPDEST PUSH2 0x5D4 PUSH1 0x4 DUP1 CALLDATASIZE SUB DUP2 ADD SWAP1 PUSH2 0x5CF SWAP2 SWAP1 PUSH2 0x2A83 JUMP JUMPDEST PUSH2 0x1D70 JUMP JUMPDEST STOP JUMPDEST PUSH2 0x5F0 PUSH1 0x4 DUP1 CALLDATASIZE SUB DUP2 ADD SWAP1 PUSH2 0x5EB SWAP2 SWAP1 PUSH2 0x2BCA JUMP JUMPDEST PUSH2 0x1E30 JUMP JUMPDEST STOP JUMPDEST PUSH2 0x60C PUSH1 0x4 DUP1 CALLDATASIZE SUB DUP2 ADD SWAP1 PUSH2 0x607 SWAP2 SWAP1 PUSH2 0x2A83 JUMP JUMPDEST PUSH2 0x1EC6 JUMP JUMPDEST STOP JUMPDEST PUSH2 0x628 PUSH1 0x4 DUP1 CALLDATASIZE SUB DUP2 ADD SWAP1 PUSH2 0x623 SWAP2 SWAP1 PUSH2 0x2C1D JUMP JUMPDEST PUSH2 0x1FBE JUMP JUMPDEST STOP JUMPDEST PUSH2 0x644 PUSH1 0x4 DUP1 CALLDATASIZE SUB DUP2 ADD SWAP1 PUSH2 0x63F SWAP2 SWAP1 PUSH2 0x2ADD JUMP JUMPDEST PUSH2 0x206C JUMP JUMPDEST PUSH1 0x40 MLOAD PUSH2 0x651 SWAP2 SWAP1 PUSH2 0x31A4 JUMP JUMPDEST PUSH1 0x40 MLOAD DUP1 SWAP2 SUB SWAP1 RETURN JUMPDEST PUSH2 0x674 PUSH1 0x4 DUP1 CALLDATASIZE SUB DUP2 ADD SWAP1 PUSH2 0x66F SWAP2 SWAP1 PUSH2 0x2B9D JUMP JUMPDEST PUSH2 0x218B JUMP JUMPDEST STOP JUMPDEST PUSH1 0x7 SLOAD DUP2 JUMP JUMPDEST PUSH32 0x0 DUP2 JUMP JUMPDEST PUSH2 0x6A8 PUSH2 0xA69 JUMP JUMPDEST ISZERO PUSH2 0x6E8 JUMPI PUSH1 0x40 MLOAD PUSH32 0x8C379A000000000000000000000000000000000000000000000000000000000 DUP2 MSTORE PUSH1 0x4 ADD PUSH2 0x6DF SWAP1 PUSH2 0x3295 JUMP JUMPDEST PUSH1 0x40 MLOAD DUP1 SWAP2 SUB SWAP1 REVERT JUMPDEST PUSH1 0x8 SLOAD DUP2 GT ISZERO DUP1 ISZERO PUSH2 0x6FC JUMPI POP PUSH1 0x7 SLOAD DUP2 LT ISZERO JUMPDEST PUSH2 0x73B JUMPI PUSH1 0x40 MLOAD PUSH32 0x8C379A000000000000000000000000000000000000000000000000000000000 DUP2 MSTORE PUSH1 0x4 ADD PUSH2 0x732 SWAP1 PUSH2 0x32D5 JUMP JUMPDEST PUSH1 0x40 MLOAD DUP1 SWAP2 SUB SWAP1 REVERT JUMPDEST PUSH1 0x0 CALLER SWAP1 POP PUSH1 0xE PUSH1 0x0 DUP3 PUSH20 0xFFFFFFFFFFFFFFFFFFFFFFFFFFFFFFFFFFFFFFFF AND PUSH20 0xFFFFFFFFFFFFFFFFFFFFFFFFFFFFFFFFFFFFFFFF AND DUP2 MSTORE PUSH1 0x20 ADD SWAP1 DUP2 MSTORE PUSH1 0x20 ADD PUSH1 0x0 KECCAK256 PUSH1 0x0 SWAP1 SLOAD SWAP1 PUSH2 0x100 EXP SWAP1 DIV PUSH1 0xFF AND ISZERO PUSH2 0x7CD JUMPI PUSH1 0x40 MLOAD PUSH32 0x8C379A000000000000000000000000000000000000000000000000000000000 DUP2 MSTORE PUSH1 0x4 ADD PUSH2 0x7C4 SWAP1 PUSH2 0x3255 JUMP JUMPDEST PUSH1 0x40 MLOAD DUP1 SWAP2 SUB SWAP1 REVERT JUMPDEST PUSH1 0x1 PUSH1 0x0 SWAP1 SLOAD SWAP1 PUSH2 0x100 EXP SWAP1 DIV PUSH20 0xFFFFFFFFFFFFFFFFFFFFFFFFFFFFFFFFFFFFFFFF AND PUSH20 0xFFFFFFFFFFFFFFFFFFFFFFFFFFFFFFFFFFFFFFFF AND PUSH4 0x23B872DD DUP3 ADDRESS DUP6 PUSH1 0x40 MLOAD DUP5 PUSH4 0xFFFFFFFF AND PUSH1 0xE0 SHL DUP2 MSTORE PUSH1 0x4 ADD PUSH2 0x82C SWAP4 SWAP3 SWAP2 SWAP1 PUSH2 0x2F52 JUMP JUMPDEST PUSH1 0x20 PUSH1 0x40 MLOAD DUP1 DUP4 SUB DUP2 PUSH1 0x0 DUP8 DUP1 EXTCODESIZE ISZERO DUP1 ISZERO PUSH2 0x846 JUMPI PUSH1 0x0 DUP1 REVERT JUMPDEST POP GAS CALL ISZERO DUP1 ISZERO PUSH2 0x85A JUMPI RETURNDATASIZE PUSH1 0x0 DUP1 RETURNDATACOPY RETURNDATASIZE PUSH1 0x0 REVERT JUMPDEST POP POP POP POP PUSH1 0x40 MLOAD RETURNDATASIZE PUSH1 0x1F NOT PUSH1 0x1F DUP3 ADD AND DUP3 ADD DUP1 PUSH1 0x40 MSTORE POP DUP2 ADD SWAP1 PUSH2 0x87E SWAP2 SWAP1 PUSH2 0x2B70 JUMP JUMPDEST POP PUSH1 0x1 PUSH1 0xE PUSH1 0x0 DUP4 PUSH20 0xFFFFFFFFFFFFFFFFFFFFFFFFFFFFFFFFFFFFFFFF AND PUSH20 0xFFFFFFFFFFFFFFFFFFFFFFFFFFFFFFFFFFFFFFFF AND DUP2 MSTORE PUSH1 0x20 ADD SWAP1 DUP2 MSTORE PUSH1 0x20 ADD PUSH1 0x0 KECCAK256 PUSH1 0x0 PUSH2 0x100 EXP DUP2 SLOAD DUP2 PUSH1 0xFF MUL NOT AND SWAP1 DUP4 ISZERO ISZERO MUL OR SWAP1 SSTORE POP PUSH1 0x40 MLOAD DUP1 PUSH1 0x60 ADD PUSH1 0x40 MSTORE DUP1 DUP4 DUP2 MSTORE PUSH1 0x20 ADD TIMESTAMP DUP2 MSTORE PUSH1 0x20 ADD PUSH2 0x320 TIMESTAMP PUSH2 0x8FC SWAP2 SWAP1 PUSH2 0x344B JUMP JUMPDEST DUP2 MSTORE POP PUSH1 0xF PUSH1 0x0 DUP4 PUSH20 0xFFFFFFFFFFFFFFFFFFFFFFFFFFFFFFFFFFFFFFFF AND PUSH20 0xFFFFFFFFFFFFFFFFFFFFFFFFFFFFFFFFFFFFFFFF AND DUP2 MSTORE PUSH1 0x20 ADD SWAP1 DUP2 MSTORE PUSH1 0x20 ADD PUSH1 0x0 KECCAK256 PUSH1 0x0 DUP3 ADD MLOAD DUP2 PUSH1 0x0 ADD SSTORE PUSH1 0x20 DUP3 ADD MLOAD DUP2 PUSH1 0x1 ADD SSTORE PUSH1 0x40 DUP3 ADD MLOAD DUP2 PUSH1 0x2 ADD SSTORE SWAP1 POP POP PUSH32 0x17849BB8C713DE96B48F218D3BACC9AF082261C3CCC7C6DCCEBE70E667B22F23 DUP2 PUSH1 0x1 DUP5 TIMESTAMP PUSH3 0x278D00 TIMESTAMP PUSH2 0x994 SWAP2 SWAP1 PUSH2 0x344B JUMP JUMPDEST PUSH1 0x40 MLOAD PUSH2 0x9A5 SWAP6 SWAP5 SWAP4 SWAP3 SWAP2 SWAP1 PUSH2 0x3082 JUMP JUMPDEST PUSH1 0x40 MLOAD DUP1 SWAP2 SUB SWAP1 LOG1 POP POP JUMP JUMPDEST PUSH1 0x3 SLOAD DUP2 JUMP JUMPDEST PUSH1 0x4 SLOAD DUP2 JUMP JUMPDEST PUSH2 0x9C5 PUSH2 0x249C JUMP JUMPDEST PUSH20 0xFFFFFFFFFFFFFFFFFFFFFFFFFFFFFFFFFFFFFFFF AND PUSH2 0x9E3 PUSH2 0x11AC JUMP JUMPDEST PUSH20 0xFFFFFFFFFFFFFFFFFFFFFFFFFFFFFFFFFFFFFFFF AND EQ PUSH2 0xA39 JUMPI PUSH1 0x40 MLOAD PUSH32 0x8C379A000000000000000000000000000000000000000000000000000000000 DUP2 MSTORE PUSH1 0x4 ADD PUSH2 0xA30 SWAP1 PUSH2 0x32F5 JUMP JUMPDEST PUSH1 0x40 MLOAD DUP1 SWAP2 SUB SWAP1 REVERT JUMPDEST PUSH2 0xA41 PUSH2 0x24A4 JUMP JUMPDEST JUMP JUMPDEST PUSH1 0x1 PUSH1 0x0 SWAP1 SLOAD SWAP1 PUSH2 0x100 EXP SWAP1 DIV PUSH20 0xFFFFFFFFFFFFFFFFFFFFFFFFFFFFFFFFFFFFFFFF AND DUP2 JUMP JUMPDEST PUSH1 0x0 DUP1 PUSH1 0x14 SWAP1 SLOAD SWAP1 PUSH2 0x100 EXP SWAP1 DIV PUSH1 0xFF AND SWAP1 POP SWAP1 JUMP JUMPDEST PUSH1 0xC PUSH1 0x20 MSTORE DUP1 PUSH1 0x0 MSTORE PUSH1 0x40 PUSH1 0x0 KECCAK256 PUSH1 0x0 SWAP2 POP SLOAD SWAP1 PUSH2 0x100 EXP SWAP1 DIV PUSH1 0xFF AND DUP2 JUMP JUMPDEST PUSH1 0xE PUSH1 0x20 MSTORE DUP1 PUSH1 0x0 MSTORE PUSH1 0x40 PUSH1 0x0 KECCAK256 PUSH1 0x0 SWAP2 POP SLOAD SWAP1 PUSH2 0x100 EXP SWAP1 DIV PUSH1 0xFF AND DUP2 JUMP JUMPDEST PUSH1 0x5 SLOAD DUP2 JUMP JUMPDEST PUSH1 0x0 CALLER SWAP1 POP PUSH1 0x10 PUSH1 0x0 DUP3 PUSH20 0xFFFFFFFFFFFFFFFFFFFFFFFFFFFFFFFFFFFFFFFF AND PUSH20 0xFFFFFFFFFFFFFFFFFFFFFFFFFFFFFFFFFFFFFFFF AND DUP2 MSTORE PUSH1 0x20 ADD SWAP1 DUP2 MSTORE PUSH1 0x20 ADD PUSH1 0x0 KECCAK256 PUSH1 0x0 SWAP1 SLOAD SWAP1 PUSH2 0x100 EXP SWAP1 DIV PUSH1 0xFF AND PUSH2 0xB56 JUMPI PUSH1 0x40 MLOAD PUSH32 0x8C379A000000000000000000000000000000000000000000000000000000000 DUP2 MSTORE PUSH1 0x4 ADD PUSH2 0xB4D SWAP1 PUSH2 0x3315 JUMP JUMPDEST PUSH1 0x40 MLOAD DUP1 SWAP2 SUB SWAP1 REVERT JUMPDEST PUSH1 0x0 PUSH1 0x11 PUSH1 0x0 DUP4 PUSH20 0xFFFFFFFFFFFFFFFFFFFFFFFFFFFFFFFFFFFFFFFF AND PUSH20 0xFFFFFFFFFFFFFFFFFFFFFFFFFFFFFFFFFFFFFFFF AND DUP2 MSTORE PUSH1 0x20 ADD SWAP1 DUP2 MSTORE PUSH1 0x20 ADD PUSH1 0x0 KECCAK256 PUSH1 0x0 ADD SLOAD SWAP1 POP DUP3 DUP2 LT ISZERO PUSH2 0xBE0 JUMPI PUSH1 0x40 MLOAD PUSH32 0x8C379A000000000000000000000000000000000000000000000000000000000 DUP2 MSTORE PUSH1 0x4 ADD PUSH2 0xBD7 SWAP1 PUSH2 0x3235 JUMP JUMPDEST PUSH1 0x40 MLOAD DUP1 SWAP2 SUB SWAP1 REVERT JUMPDEST PUSH1 0x0 PUSH2 0xBED DUP4 PUSH1 0x2 PUSH2 0x206C JUMP JUMPDEST SWAP1 POP PUSH1 0x0 PUSH2 0xBFD DUP5 PUSH1 0x2 DUP8 PUSH2 0xF03 JUMP JUMPDEST SWAP1 POP DUP3 DUP6 EQ ISZERO PUSH2 0xCBE JUMPI PUSH1 0x11 PUSH1 0x0 DUP6 PUSH20 0xFFFFFFFFFFFFFFFFFFFFFFFFFFFFFFFFFFFFFFFF AND PUSH20 0xFFFFFFFFFFFFFFFFFFFFFFFFFFFFFFFFFFFFFFFF AND DUP2 MSTORE PUSH1 0x20 ADD SWAP1 DUP2 MSTORE PUSH1 0x20 ADD PUSH1 0x0 KECCAK256 PUSH1 0x0 DUP1 DUP3 ADD PUSH1 0x0 SWAP1 SSTORE PUSH1 0x1 DUP3 ADD PUSH1 0x0 SWAP1 SSTORE PUSH1 0x2 DUP3 ADD PUSH1 0x0 SWAP1 SSTORE POP POP PUSH1 0x0 PUSH1 0x10 PUSH1 0x0 DUP7 PUSH20 0xFFFFFFFFFFFFFFFFFFFFFFFFFFFFFFFFFFFFFFFF AND PUSH20 0xFFFFFFFFFFFFFFFFFFFFFFFFFFFFFFFFFFFFFFFF AND DUP2 MSTORE PUSH1 0x20 ADD SWAP1 DUP2 MSTORE PUSH1 0x20 ADD PUSH1 0x0 KECCAK256 PUSH1 0x0 PUSH2 0x100 EXP DUP2 SLOAD DUP2 PUSH1 0xFF MUL NOT AND SWAP1 DUP4 ISZERO ISZERO MUL OR SWAP1 SSTORE POP PUSH2 0xD18 JUMP JUMPDEST DUP5 PUSH1 0x11 PUSH1 0x0 DUP7 PUSH20 0xFFFFFFFFFFFFFFFFFFFFFFFFFFFFFFFFFFFFFFFF AND PUSH20 0xFFFFFFFFFFFFFFFFFFFFFFFFFFFFFFFFFFFFFFFF AND DUP2 MSTORE PUSH1 0x20 ADD SWAP1 DUP2 MSTORE PUSH1 0x20 ADD PUSH1 0x0 KECCAK256 PUSH1 0x0 ADD PUSH1 0x0 DUP3 DUP3 SLOAD PUSH2 0xD10 SWAP2 SWAP1 PUSH2 0x352C JUMP JUMPDEST SWAP3 POP POP DUP2 SWAP1 SSTORE POP JUMPDEST DUP2 ISZERO PUSH2 0xDDD JUMPI PUSH1 0x1 PUSH1 0x0 SWAP1 SLOAD SWAP1 PUSH2 0x100 EXP SWAP1 DIV PUSH20 0xFFFFFFFFFFFFFFFFFFFFFFFFFFFFFFFFFFFFFFFF AND PUSH20 0xFFFFFFFFFFFFFFFFFFFFFFFFFFFFFFFFFFFFFFFF AND PUSH4 0xA9059CBB DUP6 DUP8 PUSH1 0x40 MLOAD DUP4 PUSH4 0xFFFFFFFF AND PUSH1 0xE0 SHL DUP2 MSTORE PUSH1 0x4 ADD PUSH2 0xD7B SWAP3 SWAP2 SWAP1 PUSH2 0x317B JUMP JUMPDEST PUSH1 0x20 PUSH1 0x40 MLOAD DUP1 DUP4 SUB DUP2 PUSH1 0x0 DUP8 DUP1 EXTCODESIZE ISZERO DUP1 ISZERO PUSH2 0xD95 JUMPI PUSH1 0x0 DUP1 REVERT JUMPDEST POP GAS CALL ISZERO DUP1 ISZERO PUSH2 0xDA9 JUMPI RETURNDATASIZE PUSH1 0x0 DUP1 RETURNDATACOPY RETURNDATASIZE PUSH1 0x0 REVERT JUMPDEST POP POP POP POP PUSH1 0x40 MLOAD RETURNDATASIZE PUSH1 0x1F NOT PUSH1 0x1F DUP3 ADD AND DUP3 ADD DUP1 PUSH1 0x40 MSTORE POP DUP2 ADD SWAP1 PUSH2 0xDCD SWAP2 SWAP1 PUSH2 0x2B70 JUMP JUMPDEST POP PUSH2 0xDD8 DUP2 DUP6 PUSH2 0x2545 JUMP JUMPDEST PUSH2 0xE92 JUMP JUMPDEST PUSH1 0x0 SWAP1 POP PUSH1 0x1 PUSH1 0x0 SWAP1 SLOAD SWAP1 PUSH2 0x100 EXP SWAP1 DIV PUSH20 0xFFFFFFFFFFFFFFFFFFFFFFFFFFFFFFFFFFFFFFFF AND PUSH20 0xFFFFFFFFFFFFFFFFFFFFFFFFFFFFFFFFFFFFFFFF AND PUSH4 0xA9059CBB DUP6 DUP8 PUSH1 0x40 MLOAD DUP4 PUSH4 0xFFFFFFFF AND PUSH1 0xE0 SHL DUP2 MSTORE PUSH1 0x4 ADD PUSH2 0xE3E SWAP3 SWAP2 SWAP1 PUSH2 0x317B JUMP JUMPDEST PUSH1 0x20 PUSH1 0x40 MLOAD DUP1 DUP4 SUB DUP2 PUSH1 0x0 DUP8 DUP1 EXTCODESIZE ISZERO DUP1 ISZERO PUSH2 0xE58 JUMPI PUSH1 0x0 DUP1 REVERT JUMPDEST POP GAS CALL ISZERO DUP1 ISZERO PUSH2 0xE6C JUMPI RETURNDATASIZE PUSH1 0x0 DUP1 RETURNDATACOPY RETURNDATASIZE PUSH1 0x0 REVERT JUMPDEST POP POP POP POP PUSH1 0x40 MLOAD RETURNDATASIZE PUSH1 0x1F NOT PUSH1 0x1F DUP3 ADD AND DUP3 ADD DUP1 PUSH1 0x40 MSTORE POP DUP2 ADD SWAP1 PUSH2 0xE90 SWAP2 SWAP1 PUSH2 0x2B70 JUMP JUMPDEST POP JUMPDEST PUSH32 0xA3DFF5863D601223D9B31A0253B97A6C2085DACA56089B92836B4B6A1991E04B DUP5 PUSH1 0x2 DUP5 DUP9 DUP6 PUSH1 0x40 MLOAD PUSH2 0xECA SWAP6 SWAP5 SWAP4 SWAP3 SWAP2 SWAP1 PUSH2 0x30D5 JUMP JUMPDEST PUSH1 0x40 MLOAD DUP1 SWAP2 SUB SWAP1 LOG1 POP POP POP POP POP JUMP JUMPDEST PUSH1 0xD PUSH1 0x20 MSTORE DUP1 PUSH1 0x0 MSTORE PUSH1 0x40 PUSH1 0x0 KECCAK256 PUSH1 0x0 SWAP2 POP SWAP1 POP DUP1 PUSH1 0x0 ADD SLOAD SWAP1 DUP1 PUSH1 0x1 ADD SLOAD SWAP1 DUP1 PUSH1 0x2 ADD SLOAD SWAP1 POP DUP4 JUMP JUMPDEST PUSH1 0x0 DUP1 DUP4 PUSH1 0xFF AND EQ ISZERO PUSH2 0xF6C JUMPI PUSH1 0x0 PUSH1 0xD PUSH1 0x0 DUP7 PUSH20 0xFFFFFFFFFFFFFFFFFFFFFFFFFFFFFFFFFFFFFFFF AND PUSH20 0xFFFFFFFFFFFFFFFFFFFFFFFFFFFFFFFFFFFFFFFF AND DUP2 MSTORE PUSH1 0x20 ADD SWAP1 DUP2 MSTORE PUSH1 0x20 ADD PUSH1 0x0 KECCAK256 PUSH1 0x1 ADD SLOAD SWAP1 POP PUSH2 0xF64 DUP4 DUP3 PUSH1 0x2 SLOAD PUSH2 0x2859 JUMP JUMPDEST SWAP2 POP POP PUSH2 0x1041 JUMP JUMPDEST PUSH1 0x1 DUP4 PUSH1 0xFF AND EQ ISZERO PUSH2 0xFD4 JUMPI PUSH1 0x0 PUSH1 0xF PUSH1 0x0 DUP7 PUSH20 0xFFFFFFFFFFFFFFFFFFFFFFFFFFFFFFFFFFFFFFFF AND PUSH20 0xFFFFFFFFFFFFFFFFFFFFFFFFFFFFFFFFFFFFFFFF AND DUP2 MSTORE PUSH1 0x20 ADD SWAP1 DUP2 MSTORE PUSH1 0x20 ADD PUSH1 0x0 KECCAK256 PUSH1 0x1 ADD SLOAD SWAP1 POP PUSH2 0xFCC DUP4 DUP3 PUSH1 0x3 SLOAD PUSH2 0x2859 JUMP JUMPDEST SWAP2 POP POP PUSH2 0x1041 JUMP JUMPDEST PUSH1 0x2 DUP4 PUSH1 0xFF AND EQ ISZERO PUSH2 0x103C JUMPI PUSH1 0x0 PUSH1 0x11 PUSH1 0x0 DUP7 PUSH20 0xFFFFFFFFFFFFFFFFFFFFFFFFFFFFFFFFFFFFFFFF AND PUSH20 0xFFFFFFFFFFFFFFFFFFFFFFFFFFFFFFFFFFFFFFFF AND DUP2 MSTORE PUSH1 0x20 ADD SWAP1 DUP2 MSTORE PUSH1 0x20 ADD PUSH1 0x0 KECCAK256 PUSH1 0x1 ADD SLOAD SWAP1 POP PUSH2 0x1034 DUP4 DUP3 PUSH1 0x4 SLOAD PUSH2 0x2859 JUMP JUMPDEST SWAP2 POP POP PUSH2 0x1041 JUMP JUMPDEST PUSH1 0x0 SWAP1 POP JUMPDEST SWAP4 SWAP3 POP POP POP JUMP JUMPDEST PUSH2 0x1050 PUSH2 0x249C JUMP JUMPDEST PUSH20 0xFFFFFFFFFFFFFFFFFFFFFFFFFFFFFFFFFFFFFFFF AND PUSH2 0x106E PUSH2 0x11AC JUMP JUMPDEST PUSH20 0xFFFFFFFFFFFFFFFFFFFFFFFFFFFFFFFFFFFFFFFF AND EQ PUSH2 0x10C4 JUMPI PUSH1 0x40 MLOAD PUSH32 0x8C379A000000000000000000000000000000000000000000000000000000000 DUP2 MSTORE PUSH1 0x4 ADD PUSH2 0x10BB SWAP1 PUSH2 0x32F5 JUMP JUMPDEST PUSH1 0x40 MLOAD DUP1 SWAP2 SUB SWAP1 REVERT JUMPDEST PUSH2 0x10CE PUSH1 0x0 PUSH2 0x28B3 JUMP JUMPDEST JUMP JUMPDEST PUSH1 0x6 SLOAD DUP2 JUMP JUMPDEST PUSH1 0xF PUSH1 0x20 MSTORE DUP1 PUSH1 0x0 MSTORE PUSH1 0x40 PUSH1 0x0 KECCAK256 PUSH1 0x0 SWAP2 POP SWAP1 POP DUP1 PUSH1 0x0 ADD SLOAD SWAP1 DUP1 PUSH1 0x1 ADD SLOAD SWAP1 DUP1 PUSH1 0x2 ADD SLOAD SWAP1 POP DUP4 JUMP JUMPDEST PUSH1 0x2 SLOAD DUP2 JUMP JUMPDEST PUSH1 0x10 PUSH1 0x20 MSTORE DUP1 PUSH1 0x0 MSTORE PUSH1 0x40 PUSH1 0x0 KECCAK256 PUSH1 0x0 SWAP2 POP SLOAD SWAP1 PUSH2 0x100 EXP SWAP1 DIV PUSH1 0xFF AND DUP2 JUMP JUMPDEST PUSH2 0x112E PUSH2 0x249C JUMP JUMPDEST PUSH20 0xFFFFFFFFFFFFFFFFFFFFFFFFFFFFFFFFFFFFFFFF AND PUSH2 0x114C PUSH2 0x11AC JUMP JUMPDEST PUSH20 0xFFFFFFFFFFFFFFFFFFFFFFFFFFFFFFFFFFFFFFFF AND EQ PUSH2 0x11A2 JUMPI PUSH1 0x40 MLOAD PUSH32 0x8C379A000000000000000000000000000000000000000000000000000000000 DUP2 MSTORE PUSH1 0x4 ADD PUSH2 0x1199 SWAP1 PUSH2 0x32F5 JUMP JUMPDEST PUSH1 0x40 MLOAD DUP1 SWAP2 SUB SWAP1 REVERT JUMPDEST PUSH2 0x11AA PUSH2 0x2977 JUMP JUMPDEST JUMP JUMPDEST PUSH1 0x0 DUP1 PUSH1 0x0 SWAP1 SLOAD SWAP1 PUSH2 0x100 EXP SWAP1 DIV PUSH20 0xFFFFFFFFFFFFFFFFFFFFFFFFFFFFFFFFFFFFFFFF AND SWAP1 POP SWAP1 JUMP JUMPDEST PUSH1 0xA SLOAD DUP2 JUMP JUMPDEST PUSH1 0x9 SLOAD DUP2 JUMP JUMPDEST PUSH1 0x0 CALLER SWAP1 POP PUSH1 0xC PUSH1 0x0 DUP3 PUSH20 0xFFFFFFFFFFFFFFFFFFFFFFFFFFFFFFFFFFFFFFFF AND PUSH20 0xFFFFFFFFFFFFFFFFFFFFFFFFFFFFFFFFFFFFFFFF AND DUP2 MSTORE PUSH1 0x20 ADD SWAP1 DUP2 MSTORE PUSH1 0x20 ADD PUSH1 0x0 KECCAK256 PUSH1 0x0 SWAP1 SLOAD SWAP1 PUSH2 0x100 EXP SWAP1 DIV PUSH1 0xFF AND PUSH2 0x1272 JUMPI PUSH1 0x40 MLOAD PUSH32 0x8C379A000000000000000000000000000000000000000000000000000000000 DUP2 MSTORE PUSH1 0x4 ADD PUSH2 0x1269 SWAP1 PUSH2 0x32B5 JUMP JUMPDEST PUSH1 0x40 MLOAD DUP1 SWAP2 SUB SWAP1 REVERT JUMPDEST PUSH1 0x0 PUSH1 0xD PUSH1 0x0 DUP4 PUSH20 0xFFFFFFFFFFFFFFFFFFFFFFFFFFFFFFFFFFFFFFFF AND PUSH20 0xFFFFFFFFFFFFFFFFFFFFFFFFFFFFFFFFFFFFFFFF AND DUP2 MSTORE PUSH1 0x20 ADD SWAP1 DUP2 MSTORE PUSH1 0x20 ADD PUSH1 0x0 KECCAK256 PUSH1 0x0 ADD SLOAD SWAP1 POP DUP3 DUP2 LT ISZERO PUSH2 0x12FC JUMPI PUSH1 0x40 MLOAD PUSH32 0x8C379A000000000000000000000000000000000000000000000000000000000 DUP2 MSTORE PUSH1 0x4 ADD PUSH2 0x12F3 SWAP1 PUSH2 0x3235 JUMP JUMPDEST PUSH1 0x40 MLOAD DUP1 SWAP2 SUB SWAP1 REVERT JUMPDEST PUSH1 0x0 PUSH2 0x1309 DUP4 PUSH1 0x0 PUSH2 0x206C JUMP JUMPDEST SWAP1 POP PUSH1 0x0 PUSH2 0x1319 DUP5 PUSH1 0x0 DUP8 PUSH2 0xF03 JUMP JUMPDEST SWAP1 POP DUP3 DUP6 EQ ISZERO PUSH2 0x13DA JUMPI PUSH1 0xD PUSH1 0x0 DUP6 PUSH20 0xFFFFFFFFFFFFFFFFFFFFFFFFFFFFFFFFFFFFFFFF AND PUSH20 0xFFFFFFFFFFFFFFFFFFFFFFFFFFFFFFFFFFFFFFFF AND DUP2 MSTORE PUSH1 0x20 ADD SWAP1 DUP2 MSTORE PUSH1 0x20 ADD PUSH1 0x0 KECCAK256 PUSH1 0x0 DUP1 DUP3 ADD PUSH1 0x0 SWAP1 SSTORE PUSH1 0x1 DUP3 ADD PUSH1 0x0 SWAP1 SSTORE PUSH1 0x2 DUP3 ADD PUSH1 0x0 SWAP1 SSTORE POP POP PUSH1 0x0 PUSH1 0xC PUSH1 0x0 DUP7 PUSH20 0xFFFFFFFFFFFFFFFFFFFFFFFFFFFFFFFFFFFFFFFF AND PUSH20 0xFFFFFFFFFFFFFFFFFFFFFFFFFFFFFFFFFFFFFFFF AND DUP2 MSTORE PUSH1 0x20 ADD SWAP1 DUP2 MSTORE PUSH1 0x20 ADD PUSH1 0x0 KECCAK256 PUSH1 0x0 PUSH2 0x100 EXP DUP2 SLOAD DUP2 PUSH1 0xFF MUL NOT AND SWAP1 DUP4 ISZERO ISZERO MUL OR SWAP1 SSTORE POP PUSH2 0x1434 JUMP JUMPDEST DUP5 PUSH1 0xD PUSH1 0x0 DUP7 PUSH20 0xFFFFFFFFFFFFFFFFFFFFFFFFFFFFFFFFFFFFFFFF AND PUSH20 0xFFFFFFFFFFFFFFFFFFFFFFFFFFFFFFFFFFFFFFFF AND DUP2 MSTORE PUSH1 0x20 ADD SWAP1 DUP2 MSTORE PUSH1 0x20 ADD PUSH1 0x0 KECCAK256 PUSH1 0x0 ADD PUSH1 0x0 DUP3 DUP3 SLOAD PUSH2 0x142C SWAP2 SWAP1 PUSH2 0x352C JUMP JUMPDEST SWAP3 POP POP DUP2 SWAP1 SSTORE POP JUMPDEST DUP2 ISZERO PUSH2 0x14F9 JUMPI PUSH1 0x1 PUSH1 0x0 SWAP1 SLOAD SWAP1 PUSH2 0x100 EXP SWAP1 DIV PUSH20 0xFFFFFFFFFFFFFFFFFFFFFFFFFFFFFFFFFFFFFFFF AND PUSH20 0xFFFFFFFFFFFFFFFFFFFFFFFFFFFFFFFFFFFFFFFF AND PUSH4 0xA9059CBB DUP6 DUP8 PUSH1 0x40 MLOAD DUP4 PUSH4 0xFFFFFFFF AND PUSH1 0xE0 SHL DUP2 MSTORE PUSH1 0x4 ADD PUSH2 0x1497 SWAP3 SWAP2 SWAP1 PUSH2 0x317B JUMP JUMPDEST PUSH1 0x20 PUSH1 0x40 MLOAD DUP1 DUP4 SUB DUP2 PUSH1 0x0 DUP8 DUP1 EXTCODESIZE ISZERO DUP1 ISZERO PUSH2 0x14B1 JUMPI PUSH1 0x0 DUP1 REVERT JUMPDEST POP GAS CALL ISZERO DUP1 ISZERO PUSH2 0x14C5 JUMPI RETURNDATASIZE PUSH1 0x0 DUP1 RETURNDATACOPY RETURNDATASIZE PUSH1 0x0 REVERT JUMPDEST POP POP POP POP PUSH1 0x40 MLOAD RETURNDATASIZE PUSH1 0x1F NOT PUSH1 0x1F DUP3 ADD AND DUP3 ADD DUP1 PUSH1 0x40 MSTORE POP DUP2 ADD SWAP1 PUSH2 0x14E9 SWAP2 SWAP1 PUSH2 0x2B70 JUMP JUMPDEST POP PUSH2 0x14F4 DUP2 DUP6 PUSH2 0x2545 JUMP JUMPDEST PUSH2 0x15AE JUMP JUMPDEST PUSH1 0x0 SWAP1 POP PUSH1 0x1 PUSH1 0x0 SWAP1 SLOAD SWAP1 PUSH2 0x100 EXP SWAP1 DIV PUSH20 0xFFFFFFFFFFFFFFFFFFFFFFFFFFFFFFFFFFFFFFFF AND PUSH20 0xFFFFFFFFFFFFFFFFFFFFFFFFFFFFFFFFFFFFFFFF AND PUSH4 0xA9059CBB DUP6 DUP8 PUSH1 0x40 MLOAD DUP4 PUSH4 0xFFFFFFFF AND PUSH1 0xE0 SHL DUP2 MSTORE PUSH1 0x4 ADD PUSH2 0x155A SWAP3 SWAP2 SWAP1 PUSH2 0x317B JUMP JUMPDEST PUSH1 0x20 PUSH1 0x40 MLOAD DUP1 DUP4 SUB DUP2 PUSH1 0x0 DUP8 DUP1 EXTCODESIZE ISZERO DUP1 ISZERO PUSH2 0x1574 JUMPI PUSH1 0x0 DUP1 REVERT JUMPDEST POP GAS CALL ISZERO DUP1 ISZERO PUSH2 0x1588 JUMPI RETURNDATASIZE PUSH1 0x0 DUP1 RETURNDATACOPY RETURNDATASIZE PUSH1 0x0 REVERT JUMPDEST POP POP POP POP PUSH1 0x40 MLOAD RETURNDATASIZE PUSH1 0x1F NOT PUSH1 0x1F DUP3 ADD AND DUP3 ADD DUP1 PUSH1 0x40 MSTORE POP DUP2 ADD SWAP1 PUSH2 0x15AC SWAP2 SWAP1 PUSH2 0x2B70 JUMP JUMPDEST POP JUMPDEST PUSH32 0xA3DFF5863D601223D9B31A0253B97A6C2085DACA56089B92836B4B6A1991E04B DUP5 PUSH1 0x0 DUP5 DUP9 DUP6 PUSH1 0x40 MLOAD PUSH2 0x15E6 SWAP6 SWAP5 SWAP4 SWAP3 SWAP2 SWAP1 PUSH2 0x2F89 JUMP JUMPDEST PUSH1 0x40 MLOAD DUP1 SWAP2 SUB SWAP1 LOG1 POP POP POP POP POP JUMP JUMPDEST PUSH1 0x11 PUSH1 0x20 MSTORE DUP1 PUSH1 0x0 MSTORE PUSH1 0x40 PUSH1 0x0 KECCAK256 PUSH1 0x0 SWAP2 POP SWAP1 POP DUP1 PUSH1 0x0 ADD SLOAD SWAP1 DUP1 PUSH1 0x1 ADD SLOAD SWAP1 DUP1 PUSH1 0x2 ADD SLOAD SWAP1 POP DUP4 JUMP JUMPDEST PUSH1 0x0 CALLER SWAP1 POP PUSH1 0xE PUSH1 0x0 DUP3 PUSH20 0xFFFFFFFFFFFFFFFFFFFFFFFFFFFFFFFFFFFFFFFF AND PUSH20 0xFFFFFFFFFFFFFFFFFFFFFFFFFFFFFFFFFFFFFFFF AND DUP2 MSTORE PUSH1 0x20 ADD SWAP1 DUP2 MSTORE PUSH1 0x20 ADD PUSH1 0x0 KECCAK256 PUSH1 0x0 SWAP1 SLOAD SWAP1 PUSH2 0x100 EXP SWAP1 DIV PUSH1 0xFF AND PUSH2 0x16B0 JUMPI PUSH1 0x40 MLOAD PUSH32 0x8C379A000000000000000000000000000000000000000000000000000000000 DUP2 MSTORE PUSH1 0x4 ADD PUSH2 0x16A7 SWAP1 PUSH2 0x3275 JUMP JUMPDEST PUSH1 0x40 MLOAD DUP1 SWAP2 SUB SWAP1 REVERT JUMPDEST PUSH1 0x0 PUSH1 0xF PUSH1 0x0 DUP4 PUSH20 0xFFFFFFFFFFFFFFFFFFFFFFFFFFFFFFFFFFFFFFFF AND PUSH20 0xFFFFFFFFFFFFFFFFFFFFFFFFFFFFFFFFFFFFFFFF AND DUP2 MSTORE PUSH1 0x20 ADD SWAP1 DUP2 MSTORE PUSH1 0x20 ADD PUSH1 0x0 KECCAK256 PUSH1 0x0 ADD SLOAD SWAP1 POP DUP3 DUP2 LT ISZERO PUSH2 0x173A JUMPI PUSH1 0x40 MLOAD PUSH32 0x8C379A000000000000000000000000000000000000000000000000000000000 DUP2 MSTORE PUSH1 0x4 ADD PUSH2 0x1731 SWAP1 PUSH2 0x3235 JUMP JUMPDEST PUSH1 0x40 MLOAD DUP1 SWAP2 SUB SWAP1 REVERT JUMPDEST PUSH1 0x0 PUSH2 0x1747 DUP4 PUSH1 0x1 PUSH2 0x206C JUMP JUMPDEST SWAP1 POP PUSH1 0x0 PUSH2 0x1757 DUP5 PUSH1 0x1 DUP8 PUSH2 0xF03 JUMP JUMPDEST SWAP1 POP DUP3 DUP6 EQ ISZERO PUSH2 0x1818 JUMPI PUSH1 0xF PUSH1 0x0 DUP6 PUSH20 0xFFFFFFFFFFFFFFFFFFFFFFFFFFFFFFFFFFFFFFFF AND PUSH20 0xFFFFFFFFFFFFFFFFFFFFFFFFFFFFFFFFFFFFFFFF AND DUP2 MSTORE PUSH1 0x20 ADD SWAP1 DUP2 MSTORE PUSH1 0x20 ADD PUSH1 0x0 KECCAK256 PUSH1 0x0 DUP1 DUP3 ADD PUSH1 0x0 SWAP1 SSTORE PUSH1 0x1 DUP3 ADD PUSH1 0x0 SWAP1 SSTORE PUSH1 0x2 DUP3 ADD PUSH1 0x0 SWAP1 SSTORE POP POP PUSH1 0x0 PUSH1 0xE PUSH1 0x0 DUP7 PUSH20 0xFFFFFFFFFFFFFFFFFFFFFFFFFFFFFFFFFFFFFFFF AND PUSH20 0xFFFFFFFFFFFFFFFFFFFFFFFFFFFFFFFFFFFFFFFF AND DUP2 MSTORE PUSH1 0x20 ADD SWAP1 DUP2 MSTORE PUSH1 0x20 ADD PUSH1 0x0 KECCAK256 PUSH1 0x0 PUSH2 0x100 EXP DUP2 SLOAD DUP2 PUSH1 0xFF MUL NOT AND SWAP1 DUP4 ISZERO ISZERO MUL OR SWAP1 SSTORE POP PUSH2 0x1872 JUMP JUMPDEST DUP5 PUSH1 0xF PUSH1 0x0 DUP7 PUSH20 0xFFFFFFFFFFFFFFFFFFFFFFFFFFFFFFFFFFFFFFFF AND PUSH20 0xFFFFFFFFFFFFFFFFFFFFFFFFFFFFFFFFFFFFFFFF AND DUP2 MSTORE PUSH1 0x20 ADD SWAP1 DUP2 MSTORE PUSH1 0x20 ADD PUSH1 0x0 KECCAK256 PUSH1 0x0 ADD PUSH1 0x0 DUP3 DUP3 SLOAD PUSH2 0x186A SWAP2 SWAP1 PUSH2 0x352C JUMP JUMPDEST SWAP3 POP POP DUP2 SWAP1 SSTORE POP JUMPDEST DUP2 ISZERO PUSH2 0x1937 JUMPI PUSH1 0x1 PUSH1 0x0 SWAP1 SLOAD SWAP1 PUSH2 0x100 EXP SWAP1 DIV PUSH20 0xFFFFFFFFFFFFFFFFFFFFFFFFFFFFFFFFFFFFFFFF AND PUSH20 0xFFFFFFFFFFFFFFFFFFFFFFFFFFFFFFFFFFFFFFFF AND PUSH4 0xA9059CBB DUP6 DUP8 PUSH1 0x40 MLOAD DUP4 PUSH4 0xFFFFFFFF AND PUSH1 0xE0 SHL DUP2 MSTORE PUSH1 0x4 ADD PUSH2 0x18D5 SWAP3 SWAP2 SWAP1 PUSH2 0x317B JUMP JUMPDEST PUSH1 0x20 PUSH1 0x40 MLOAD DUP1 DUP4 SUB DUP2 PUSH1 0x0 DUP8 DUP1 EXTCODESIZE ISZERO DUP1 ISZERO PUSH2 0x18EF JUMPI PUSH1 0x0 DUP1 REVERT JUMPDEST POP GAS CALL ISZERO DUP1 ISZERO PUSH2 0x1903 JUMPI RETURNDATASIZE PUSH1 0x0 DUP1 RETURNDATACOPY RETURNDATASIZE PUSH1 0x0 REVERT JUMPDEST POP POP POP POP PUSH1 0x40 MLOAD RETURNDATASIZE PUSH1 0x1F NOT PUSH1 0x1F DUP3 ADD AND DUP3 ADD DUP1 PUSH1 0x40 MSTORE POP DUP2 ADD SWAP1 PUSH2 0x1927 SWAP2 SWAP1 PUSH2 0x2B70 JUMP JUMPDEST POP PUSH2 0x1932 DUP2 DUP6 PUSH2 0x2545 JUMP JUMPDEST PUSH2 0x19EC JUMP JUMPDEST PUSH1 0x0 SWAP1 POP PUSH1 0x1 PUSH1 0x0 SWAP1 SLOAD SWAP1 PUSH2 0x100 EXP SWAP1 DIV PUSH20 0xFFFFFFFFFFFFFFFFFFFFFFFFFFFFFFFFFFFFFFFF AND PUSH20 0xFFFFFFFFFFFFFFFFFFFFFFFFFFFFFFFFFFFFFFFF AND PUSH4 0xA9059CBB DUP6 DUP8 PUSH1 0x40 MLOAD DUP4 PUSH4 0xFFFFFFFF AND PUSH1 0xE0 SHL DUP2 MSTORE PUSH1 0x4 ADD PUSH2 0x1998 SWAP3 SWAP2 SWAP1 PUSH2 0x317B JUMP JUMPDEST PUSH1 0x20 PUSH1 0x40 MLOAD DUP1 DUP4 SUB DUP2 PUSH1 0x0 DUP8 DUP1 EXTCODESIZE ISZERO DUP1 ISZERO PUSH2 0x19B2 JUMPI PUSH1 0x0 DUP1 REVERT JUMPDEST POP GAS CALL ISZERO DUP1 ISZERO PUSH2 0x19C6 JUMPI RETURNDATASIZE PUSH1 0x0 DUP1 RETURNDATACOPY RETURNDATASIZE PUSH1 0x0 REVERT JUMPDEST POP POP POP POP PUSH1 0x40 MLOAD RETURNDATASIZE PUSH1 0x1F NOT PUSH1 0x1F DUP3 ADD AND DUP3 ADD DUP1 PUSH1 0x40 MSTORE POP DUP2 ADD SWAP1 PUSH2 0x19EA SWAP2 SWAP1 PUSH2 0x2B70 JUMP JUMPDEST POP JUMPDEST PUSH32 0xA3DFF5863D601223D9B31A0253B97A6C2085DACA56089B92836B4B6A1991E04B DUP5 PUSH1 0x1 DUP5 DUP9 DUP6 PUSH1 0x40 MLOAD PUSH2 0x1A24 SWAP6 SWAP5 SWAP4 SWAP3 SWAP2 SWAP1 PUSH2 0x302F JUMP JUMPDEST PUSH1 0x40 MLOAD DUP1 SWAP2 SUB SWAP1 LOG1 POP POP POP POP POP JUMP JUMPDEST PUSH2 0x1A3B PUSH2 0xA69 JUMP JUMPDEST ISZERO PUSH2 0x1A7B JUMPI PUSH1 0x40 MLOAD PUSH32 0x8C379A000000000000000000000000000000000000000000000000000000000 DUP2 MSTORE PUSH1 0x4 ADD PUSH2 0x1A72 SWAP1 PUSH2 0x3295 JUMP JUMPDEST PUSH1 0x40 MLOAD DUP1 SWAP2 SUB SWAP1 REVERT JUMPDEST PUSH1 0xA SLOAD DUP2 GT ISZERO DUP1 ISZERO PUSH2 0x1A8F JUMPI POP PUSH1 0x9 SLOAD DUP2 LT ISZERO JUMPDEST PUSH2 0x1ACE JUMPI PUSH1 0x40 MLOAD PUSH32 0x8C379A000000000000000000000000000000000000000000000000000000000 DUP2 MSTORE PUSH1 0x4 ADD PUSH2 0x1AC5 SWAP1 PUSH2 0x32D5 JUMP JUMPDEST PUSH1 0x40 MLOAD DUP1 SWAP2 SUB SWAP1 REVERT JUMPDEST PUSH1 0x0 CALLER SWAP1 POP PUSH1 0x10 PUSH1 0x0 DUP3 PUSH20 0xFFFFFFFFFFFFFFFFFFFFFFFFFFFFFFFFFFFFFFFF AND PUSH20 0xFFFFFFFFFFFFFFFFFFFFFFFFFFFFFFFFFFFFFFFF AND DUP2 MSTORE PUSH1 0x20 ADD SWAP1 DUP2 MSTORE PUSH1 0x20 ADD PUSH1 0x0 KECCAK256 PUSH1 0x0 SWAP1 SLOAD SWAP1 PUSH2 0x100 EXP SWAP1 DIV PUSH1 0xFF AND ISZERO PUSH2 0x1B60 JUMPI PUSH1 0x40 MLOAD PUSH32 0x8C379A000000000000000000000000000000000000000000000000000000000 DUP2 MSTORE PUSH1 0x4 ADD PUSH2 0x1B57 SWAP1 PUSH2 0x3335 JUMP JUMPDEST PUSH1 0x40 MLOAD DUP1 SWAP2 SUB SWAP1 REVERT JUMPDEST PUSH1 0x1 PUSH1 0x0 SWAP1 SLOAD SWAP1 PUSH2 0x100 EXP SWAP1 DIV PUSH20 0xFFFFFFFFFFFFFFFFFFFFFFFFFFFFFFFFFFFFFFFF AND PUSH20 0xFFFFFFFFFFFFFFFFFFFFFFFFFFFFFFFFFFFFFFFF AND PUSH4 0x23B872DD DUP3 ADDRESS DUP6 PUSH1 0x40 MLOAD DUP5 PUSH4 0xFFFFFFFF AND PUSH1 0xE0 SHL DUP2 MSTORE PUSH1 0x4 ADD PUSH2 0x1BBF SWAP4 SWAP3 SWAP2 SWAP1 PUSH2 0x2F52 JUMP JUMPDEST PUSH1 0x20 PUSH1 0x40 MLOAD DUP1 DUP4 SUB DUP2 PUSH1 0x0 DUP8 DUP1 EXTCODESIZE ISZERO DUP1 ISZERO PUSH2 0x1BD9 JUMPI PUSH1 0x0 DUP1 REVERT JUMPDEST POP GAS CALL ISZERO DUP1 ISZERO PUSH2 0x1BED JUMPI RETURNDATASIZE PUSH1 0x0 DUP1 RETURNDATACOPY RETURNDATASIZE PUSH1 0x0 REVERT JUMPDEST POP POP POP POP PUSH1 0x40 MLOAD RETURNDATASIZE PUSH1 0x1F NOT PUSH1 0x1F DUP3 ADD AND DUP3 ADD DUP1 PUSH1 0x40 MSTORE POP DUP2 ADD SWAP1 PUSH2 0x1C11 SWAP2 SWAP1 PUSH2 0x2B70 JUMP JUMPDEST POP PUSH1 0x1 PUSH1 0x10 PUSH1 0x0 DUP4 PUSH20 0xFFFFFFFFFFFFFFFFFFFFFFFFFFFFFFFFFFFFFFFF AND PUSH20 0xFFFFFFFFFFFFFFFFFFFFFFFFFFFFFFFFFFFFFFFF AND DUP2 MSTORE PUSH1 0x20 ADD SWAP1 DUP2 MSTORE PUSH1 0x20 ADD PUSH1 0x0 KECCAK256 PUSH1 0x0 PUSH2 0x100 EXP DUP2 SLOAD DUP2 PUSH1 0xFF MUL NOT AND SWAP1 DUP4 ISZERO ISZERO MUL OR SWAP1 SSTORE POP PUSH1 0x40 MLOAD DUP1 PUSH1 0x60 ADD PUSH1 0x40 MSTORE DUP1 DUP4 DUP2 MSTORE PUSH1 0x20 ADD TIMESTAMP DUP2 MSTORE PUSH1 0x20 ADD PUSH2 0x4B0 TIMESTAMP PUSH2 0x1C8F SWAP2 SWAP1 PUSH2 0x344B JUMP JUMPDEST DUP2 MSTORE POP PUSH1 0x11 PUSH1 0x0 DUP4 PUSH20 0xFFFFFFFFFFFFFFFFFFFFFFFFFFFFFFFFFFFFFFFF AND PUSH20 0xFFFFFFFFFFFFFFFFFFFFFFFFFFFFFFFFFFFFFFFF AND DUP2 MSTORE PUSH1 0x20 ADD SWAP1 DUP2 MSTORE PUSH1 0x20 ADD PUSH1 0x0 KECCAK256 PUSH1 0x0 DUP3 ADD MLOAD DUP2 PUSH1 0x0 ADD SSTORE PUSH1 0x20 DUP3 ADD MLOAD DUP2 PUSH1 0x1 ADD SSTORE PUSH1 0x40 DUP3 ADD MLOAD DUP2 PUSH1 0x2 ADD SSTORE SWAP1 POP POP PUSH32 0x17849BB8C713DE96B48F218D3BACC9AF082261C3CCC7C6DCCEBE70E667B22F23 DUP2 PUSH1 0x2 DUP5 TIMESTAMP PUSH3 0x76A700 TIMESTAMP PUSH2 0x1D27 SWAP2 SWAP1 PUSH2 0x344B JUMP JUMPDEST PUSH1 0x40 MLOAD PUSH2 0x1D38 SWAP6 SWAP5 SWAP4 SWAP3 SWAP2 SWAP1 PUSH2 0x3128 JUMP JUMPDEST PUSH1 0x40 MLOAD DUP1 SWAP2 SUB SWAP1 LOG1 POP POP JUMP JUMPDEST PUSH1 0x8 SLOAD DUP2 JUMP JUMPDEST PUSH1 0xB PUSH1 0x0 SWAP1 SLOAD SWAP1 PUSH2 0x100 EXP SWAP1 DIV PUSH20 0xFFFFFFFFFFFFFFFFFFFFFFFFFFFFFFFFFFFFFFFF AND DUP2 JUMP JUMPDEST PUSH2 0x1D78 PUSH2 0x249C JUMP JUMPDEST PUSH20 0xFFFFFFFFFFFFFFFFFFFFFFFFFFFFFFFFFFFFFFFF AND PUSH2 0x1D96 PUSH2 0x11AC JUMP JUMPDEST PUSH20 0xFFFFFFFFFFFFFFFFFFFFFFFFFFFFFFFFFFFFFFFF AND EQ PUSH2 0x1DEC JUMPI PUSH1 0x40 MLOAD PUSH32 0x8C379A000000000000000000000000000000000000000000000000000000000 DUP2 MSTORE PUSH1 0x4 ADD PUSH2 0x1DE3 SWAP1 PUSH2 0x32F5 JUMP JUMPDEST PUSH1 0x40 MLOAD DUP1 SWAP2 SUB SWAP1 REVERT JUMPDEST DUP1 PUSH1 0xB PUSH1 0x0 PUSH2 0x100 EXP DUP2 SLOAD DUP2 PUSH20 0xFFFFFFFFFFFFFFFFFFFFFFFFFFFFFFFFFFFFFFFF MUL NOT AND SWAP1 DUP4 PUSH20 0xFFFFFFFFFFFFFFFFFFFFFFFFFFFFFFFFFFFFFFFF AND MUL OR SWAP1 SSTORE POP POP JUMP JUMPDEST PUSH2 0x1E38 PUSH2 0x249C JUMP JUMPDEST PUSH20 0xFFFFFFFFFFFFFFFFFFFFFFFFFFFFFFFFFFFFFFFF AND PUSH2 0x1E56 PUSH2 0x11AC JUMP JUMPDEST PUSH20 0xFFFFFFFFFFFFFFFFFFFFFFFFFFFFFFFFFFFFFFFF AND EQ PUSH2 0x1EAC JUMPI PUSH1 0x40 MLOAD PUSH32 0x8C379A000000000000000000000000000000000000000000000000000000000 DUP2 MSTORE PUSH1 0x4 ADD PUSH2 0x1EA3 SWAP1 PUSH2 0x32F5 JUMP JUMPDEST PUSH1 0x40 MLOAD DUP1 SWAP2 SUB SWAP1 REVERT JUMPDEST DUP3 PUSH1 0x2 DUP2 SWAP1 SSTORE POP DUP2 PUSH1 0x3 DUP2 SWAP1 SSTORE POP DUP1 PUSH1 0x4 DUP2 SWAP1 SSTORE POP POP POP POP JUMP JUMPDEST PUSH2 0x1ECE PUSH2 0x249C JUMP JUMPDEST PUSH20 0xFFFFFFFFFFFFFFFFFFFFFFFFFFFFFFFFFFFFFFFF AND PUSH2 0x1EEC PUSH2 0x11AC JUMP JUMPDEST PUSH20 0xFFFFFFFFFFFFFFFFFFFFFFFFFFFFFFFFFFFFFFFF AND EQ PUSH2 0x1F42 JUMPI PUSH1 0x40 MLOAD PUSH32 0x8C379A000000000000000000000000000000000000000000000000000000000 DUP2 MSTORE PUSH1 0x4 ADD PUSH2 0x1F39 SWAP1 PUSH2 0x32F5 JUMP JUMPDEST PUSH1 0x40 MLOAD DUP1 SWAP2 SUB SWAP1 REVERT JUMPDEST PUSH1 0x0 PUSH20 0xFFFFFFFFFFFFFFFFFFFFFFFFFFFFFFFFFFFFFFFF AND DUP2 PUSH20 0xFFFFFFFFFFFFFFFFFFFFFFFFFFFFFFFFFFFFFFFF AND EQ ISZERO PUSH2 0x1FB2 JUMPI PUSH1 0x40 MLOAD PUSH32 0x8C379A000000000000000000000000000000000000000000000000000000000 DUP2 MSTORE PUSH1 0x4 ADD PUSH2 0x1FA9 SWAP1 PUSH2 0x3215 JUMP JUMPDEST PUSH1 0x40 MLOAD DUP1 SWAP2 SUB SWAP1 REVERT JUMPDEST PUSH2 0x1FBB DUP2 PUSH2 0x28B3 JUMP JUMPDEST POP JUMP JUMPDEST PUSH2 0x1FC6 PUSH2 0x249C JUMP JUMPDEST PUSH20 0xFFFFFFFFFFFFFFFFFFFFFFFFFFFFFFFFFFFFFFFF AND PUSH2 0x1FE4 PUSH2 0x11AC JUMP JUMPDEST PUSH20 0xFFFFFFFFFFFFFFFFFFFFFFFFFFFFFFFFFFFFFFFF AND EQ PUSH2 0x203A JUMPI PUSH1 0x40 MLOAD PUSH32 0x8C379A000000000000000000000000000000000000000000000000000000000 DUP2 MSTORE PUSH1 0x4 ADD PUSH2 0x2031 SWAP1 PUSH2 0x32F5 JUMP JUMPDEST PUSH1 0x40 MLOAD DUP1 SWAP2 SUB SWAP1 REVERT JUMPDEST DUP6 PUSH1 0x5 DUP2 SWAP1 SSTORE POP DUP5 PUSH1 0x6 DUP2 SWAP1 SSTORE POP DUP4 PUSH1 0x7 DUP2 SWAP1 SSTORE POP DUP3 PUSH1 0x8 DUP2 SWAP1 SSTORE POP DUP2 PUSH1 0x9 DUP2 SWAP1 SSTORE POP DUP1 PUSH1 0xA DUP2 SWAP1 SSTORE POP POP POP POP POP POP POP JUMP JUMPDEST PUSH1 0x0 DUP1 PUSH1 0x0 DUP4 PUSH1 0xFF AND EQ ISZERO PUSH2 0x20C5 JUMPI PUSH1 0xD PUSH1 0x0 DUP6 PUSH20 0xFFFFFFFFFFFFFFFFFFFFFFFFFFFFFFFFFFFFFFFF AND PUSH20 0xFFFFFFFFFFFFFFFFFFFFFFFFFFFFFFFFFFFFFFFF AND DUP2 MSTORE PUSH1 0x20 ADD SWAP1 DUP2 MSTORE PUSH1 0x20 ADD PUSH1 0x0 KECCAK256 PUSH1 0x2 ADD SLOAD SWAP1 POP PUSH2 0x217D JUMP JUMPDEST PUSH1 0x1 DUP4 PUSH1 0xFF AND EQ ISZERO PUSH2 0x211B JUMPI PUSH1 0xF PUSH1 0x0 DUP6 PUSH20 0xFFFFFFFFFFFFFFFFFFFFFFFFFFFFFFFFFFFFFFFF AND PUSH20 0xFFFFFFFFFFFFFFFFFFFFFFFFFFFFFFFFFFFFFFFF AND DUP2 MSTORE PUSH1 0x20 ADD SWAP1 DUP2 MSTORE PUSH1 0x20 ADD PUSH1 0x0 KECCAK256 PUSH1 0x2 ADD SLOAD SWAP1 POP PUSH2 0x217C JUMP JUMPDEST PUSH1 0x2 DUP4 PUSH1 0xFF AND EQ ISZERO PUSH2 0x2171 JUMPI PUSH1 0x11 PUSH1 0x0 DUP6 PUSH20 0xFFFFFFFFFFFFFFFFFFFFFFFFFFFFFFFFFFFFFFFF AND PUSH20 0xFFFFFFFFFFFFFFFFFFFFFFFFFFFFFFFFFFFFFFFF AND DUP2 MSTORE PUSH1 0x20 ADD SWAP1 DUP2 MSTORE PUSH1 0x20 ADD PUSH1 0x0 KECCAK256 PUSH1 0x2 ADD SLOAD SWAP1 POP PUSH2 0x217B JUMP JUMPDEST PUSH1 0x0 SWAP2 POP POP PUSH2 0x2185 JUMP JUMPDEST JUMPDEST JUMPDEST DUP1 TIMESTAMP LT ISZERO SWAP2 POP POP JUMPDEST SWAP3 SWAP2 POP POP JUMP JUMPDEST PUSH2 0x2193 PUSH2 0xA69 JUMP JUMPDEST ISZERO PUSH2 0x21D3 JUMPI PUSH1 0x40 MLOAD PUSH32 0x8C379A000000000000000000000000000000000000000000000000000000000 DUP2 MSTORE PUSH1 0x4 ADD PUSH2 0x21CA SWAP1 PUSH2 0x3295 JUMP JUMPDEST PUSH1 0x40 MLOAD DUP1 SWAP2 SUB SWAP1 REVERT JUMPDEST PUSH1 0x6 SLOAD DUP2 GT ISZERO DUP1 ISZERO PUSH2 0x21E7 JUMPI POP PUSH1 0x5 SLOAD DUP2 LT ISZERO JUMPDEST PUSH2 0x2226 JUMPI PUSH1 0x40 MLOAD PUSH32 0x8C379A000000000000000000000000000000000000000000000000000000000 DUP2 MSTORE PUSH1 0x4 ADD PUSH2 0x221D SWAP1 PUSH2 0x32D5 JUMP JUMPDEST PUSH1 0x40 MLOAD DUP1 SWAP2 SUB SWAP1 REVERT JUMPDEST PUSH1 0x0 CALLER SWAP1 POP PUSH1 0xC PUSH1 0x0 DUP3 PUSH20 0xFFFFFFFFFFFFFFFFFFFFFFFFFFFFFFFFFFFFFFFF AND PUSH20 0xFFFFFFFFFFFFFFFFFFFFFFFFFFFFFFFFFFFFFFFF AND DUP2 MSTORE PUSH1 0x20 ADD SWAP1 DUP2 MSTORE PUSH1 0x20 ADD PUSH1 0x0 KECCAK256 PUSH1 0x0 SWAP1 SLOAD SWAP1 PUSH2 0x100 EXP SWAP1 DIV PUSH1 0xFF AND ISZERO PUSH2 0x22B8 JUMPI PUSH1 0x40 MLOAD PUSH32 0x8C379A000000000000000000000000000000000000000000000000000000000 DUP2 MSTORE PUSH1 0x4 ADD PUSH2 0x22AF SWAP1 PUSH2 0x3255 JUMP JUMPDEST PUSH1 0x40 MLOAD DUP1 SWAP2 SUB SWAP1 REVERT JUMPDEST PUSH1 0x1 PUSH1 0x0 SWAP1 SLOAD SWAP1 PUSH2 0x100 EXP SWAP1 DIV PUSH20 0xFFFFFFFFFFFFFFFFFFFFFFFFFFFFFFFFFFFFFFFF AND PUSH20 0xFFFFFFFFFFFFFFFFFFFFFFFFFFFFFFFFFFFFFFFF AND PUSH4 0x23B872DD DUP3 ADDRESS DUP6 PUSH1 0x40 MLOAD DUP5 PUSH4 0xFFFFFFFF AND PUSH1 0xE0 SHL DUP2 MSTORE PUSH1 0x4 ADD PUSH2 0x2317 SWAP4 SWAP3 SWAP2 SWAP1 PUSH2 0x2F52 JUMP JUMPDEST PUSH1 0x20 PUSH1 0x40 MLOAD DUP1 DUP4 SUB DUP2 PUSH1 0x0 DUP8 DUP1 EXTCODESIZE ISZERO DUP1 ISZERO PUSH2 0x2331 JUMPI PUSH1 0x0 DUP1 REVERT JUMPDEST POP GAS CALL ISZERO DUP1 ISZERO PUSH2 0x2345 JUMPI RETURNDATASIZE PUSH1 0x0 DUP1 RETURNDATACOPY RETURNDATASIZE PUSH1 0x0 REVERT JUMPDEST POP POP POP POP PUSH1 0x40 MLOAD RETURNDATASIZE PUSH1 0x1F NOT PUSH1 0x1F DUP3 ADD AND DUP3 ADD DUP1 PUSH1 0x40 MSTORE POP DUP2 ADD SWAP1 PUSH2 0x2369 SWAP2 SWAP1 PUSH2 0x2B70 JUMP JUMPDEST POP PUSH1 0x1 PUSH1 0xC PUSH1 0x0 DUP4 PUSH20 0xFFFFFFFFFFFFFFFFFFFFFFFFFFFFFFFFFFFFFFFF AND PUSH20 0xFFFFFFFFFFFFFFFFFFFFFFFFFFFFFFFFFFFFFFFF AND DUP2 MSTORE PUSH1 0x20 ADD SWAP1 DUP2 MSTORE PUSH1 0x20 ADD PUSH1 0x0 KECCAK256 PUSH1 0x0 PUSH2 0x100 EXP DUP2 SLOAD DUP2 PUSH1 0xFF MUL NOT AND SWAP1 DUP4 ISZERO ISZERO MUL OR SWAP1 SSTORE POP PUSH1 0x40 MLOAD DUP1 PUSH1 0x60 ADD PUSH1 0x40 MSTORE DUP1 DUP4 DUP2 MSTORE PUSH1 0x20 ADD TIMESTAMP DUP2 MSTORE PUSH1 0x20 ADD PUSH2 0x258 TIMESTAMP PUSH2 0x23E7 SWAP2 SWAP1 PUSH2 0x344B JUMP JUMPDEST DUP2 MSTORE POP PUSH1 0xD PUSH1 0x0 DUP4 PUSH20 0xFFFFFFFFFFFFFFFFFFFFFFFFFFFFFFFFFFFFFFFF AND PUSH20 0xFFFFFFFFFFFFFFFFFFFFFFFFFFFFFFFFFFFFFFFF AND DUP2 MSTORE PUSH1 0x20 ADD SWAP1 DUP2 MSTORE PUSH1 0x20 ADD PUSH1 0x0 KECCAK256 PUSH1 0x0 DUP3 ADD MLOAD DUP2 PUSH1 0x0 ADD SSTORE PUSH1 0x20 DUP3 ADD MLOAD DUP2 PUSH1 0x1 ADD SSTORE PUSH1 0x40 DUP3 ADD MLOAD DUP2 PUSH1 0x2 ADD SSTORE SWAP1 POP POP PUSH32 0x17849BB8C713DE96B48F218D3BACC9AF082261C3CCC7C6DCCEBE70E667B22F23 DUP2 PUSH1 0x0 DUP5 TIMESTAMP PUSH3 0x93A80 TIMESTAMP PUSH2 0x247F SWAP2 SWAP1 PUSH2 0x344B JUMP JUMPDEST PUSH1 0x40 MLOAD PUSH2 0x2490 SWAP6 SWAP5 SWAP4 SWAP3 SWAP2 SWAP1 PUSH2 0x2FDC JUMP JUMPDEST PUSH1 0x40 MLOAD DUP1 SWAP2 SUB SWAP1 LOG1 POP POP JUMP JUMPDEST PUSH1 0x0 CALLER SWAP1 POP SWAP1 JUMP JUMPDEST PUSH2 0x24AC PUSH2 0xA69 JUMP JUMPDEST PUSH2 0x24EB JUMPI PUSH1 0x40 MLOAD PUSH32 0x8C379A000000000000000000000000000000000000000000000000000000000 DUP2 MSTORE PUSH1 0x4 ADD PUSH2 0x24E2 SWAP1 PUSH2 0x31F5 JUMP JUMPDEST PUSH1 0x40 MLOAD DUP1 SWAP2 SUB SWAP1 REVERT JUMPDEST PUSH1 0x0 DUP1 PUSH1 0x14 PUSH2 0x100 EXP DUP2 SLOAD DUP2 PUSH1 0xFF MUL NOT AND SWAP1 DUP4 ISZERO ISZERO MUL OR SWAP1 SSTORE POP PUSH32 0x5DB9EE0A495BF2E6FF9C91A7834C1BA4FDD244A5E8AA4E537BD38AEAE4B073AA PUSH2 0x252E PUSH2 0x249C JUMP JUMPDEST PUSH1 0x40 MLOAD PUSH2 0x253B SWAP2 SWAP1 PUSH2 0x2F37 JUMP JUMPDEST PUSH1 0x40 MLOAD DUP1 SWAP2 SUB SWAP1 LOG1 JUMP JUMPDEST PUSH1 0x0 PUSH1 0x2 PUSH8 0xFFFFFFFFFFFFFFFF DUP2 GT ISZERO PUSH2 0x2562 JUMPI PUSH2 0x2561 PUSH2 0x36D2 JUMP JUMPDEST JUMPDEST PUSH1 0x40 MLOAD SWAP1 DUP1 DUP3 MSTORE DUP1 PUSH1 0x20 MUL PUSH1 0x20 ADD DUP3 ADD PUSH1 0x40 MSTORE DUP1 ISZERO PUSH2 0x2590 JUMPI DUP2 PUSH1 0x20 ADD PUSH1 0x20 DUP3 MUL DUP1 CALLDATASIZE DUP4 CALLDATACOPY DUP1 DUP3 ADD SWAP2 POP POP SWAP1 POP JUMPDEST POP SWAP1 POP PUSH1 0x1 PUSH1 0x0 SWAP1 SLOAD SWAP1 PUSH2 0x100 EXP SWAP1 DIV PUSH20 0xFFFFFFFFFFFFFFFFFFFFFFFFFFFFFFFFFFFFFFFF AND DUP2 PUSH1 0x0 DUP2 MLOAD DUP2 LT PUSH2 0x25CA JUMPI PUSH2 0x25C9 PUSH2 0x36A3 JUMP JUMPDEST JUMPDEST PUSH1 0x20 MUL PUSH1 0x20 ADD ADD SWAP1 PUSH20 0xFFFFFFFFFFFFFFFFFFFFFFFFFFFFFFFFFFFFFFFF AND SWAP1 DUP2 PUSH20 0xFFFFFFFFFFFFFFFFFFFFFFFFFFFFFFFFFFFFFFFF AND DUP2 MSTORE POP POP PUSH32 0x0 PUSH20 0xFFFFFFFFFFFFFFFFFFFFFFFFFFFFFFFFFFFFFFFF AND PUSH4 0xAD5C4648 PUSH1 0x40 MLOAD DUP2 PUSH4 0xFFFFFFFF AND PUSH1 0xE0 SHL DUP2 MSTORE PUSH1 0x4 ADD PUSH1 0x20 PUSH1 0x40 MLOAD DUP1 DUP4 SUB DUP2 DUP7 DUP1 EXTCODESIZE ISZERO DUP1 ISZERO PUSH2 0x266A JUMPI PUSH1 0x0 DUP1 REVERT JUMPDEST POP GAS STATICCALL ISZERO DUP1 ISZERO PUSH2 0x267E JUMPI RETURNDATASIZE PUSH1 0x0 DUP1 RETURNDATACOPY RETURNDATASIZE PUSH1 0x0 REVERT JUMPDEST POP POP POP POP PUSH1 0x40 MLOAD RETURNDATASIZE PUSH1 0x1F NOT PUSH1 0x1F DUP3 ADD AND DUP3 ADD DUP1 PUSH1 0x40 MSTORE POP DUP2 ADD SWAP1 PUSH2 0x26A2 SWAP2 SWAP1 PUSH2 0x2AB0 JUMP JUMPDEST DUP2 PUSH1 0x1 DUP2 MLOAD DUP2 LT PUSH2 0x26B6 JUMPI PUSH2 0x26B5 PUSH2 0x36A3 JUMP JUMPDEST JUMPDEST PUSH1 0x20 MUL PUSH1 0x20 ADD ADD SWAP1 PUSH20 0xFFFFFFFFFFFFFFFFFFFFFFFFFFFFFFFFFFFFFFFF AND SWAP1 DUP2 PUSH20 0xFFFFFFFFFFFFFFFFFFFFFFFFFFFFFFFFFFFFFFFF AND DUP2 MSTORE POP POP PUSH1 0x1 PUSH1 0x0 SWAP1 SLOAD SWAP1 PUSH2 0x100 EXP SWAP1 DIV PUSH20 0xFFFFFFFFFFFFFFFFFFFFFFFFFFFFFFFFFFFFFFFF AND PUSH20 0xFFFFFFFFFFFFFFFFFFFFFFFFFFFFFFFFFFFFFFFF AND PUSH4 0x95EA7B3 PUSH32 0x0 DUP6 PUSH1 0x40 MLOAD DUP4 PUSH4 0xFFFFFFFF AND PUSH1 0xE0 SHL DUP2 MSTORE PUSH1 0x4 ADD PUSH2 0x276D SWAP3 SWAP2 SWAP1 PUSH2 0x317B JUMP JUMPDEST PUSH1 0x20 PUSH1 0x40 MLOAD DUP1 DUP4 SUB DUP2 PUSH1 0x0 DUP8 DUP1 EXTCODESIZE ISZERO DUP1 ISZERO PUSH2 0x2787 JUMPI PUSH1 0x0 DUP1 REVERT JUMPDEST POP GAS CALL ISZERO DUP1 ISZERO PUSH2 0x279B JUMPI RETURNDATASIZE PUSH1 0x0 DUP1 RETURNDATACOPY RETURNDATASIZE PUSH1 0x0 REVERT JUMPDEST POP POP POP POP PUSH1 0x40 MLOAD RETURNDATASIZE PUSH1 0x1F NOT PUSH1 0x1F DUP3 ADD AND DUP3 ADD DUP1 PUSH1 0x40 MSTORE POP DUP2 ADD SWAP1 PUSH2 0x27BF SWAP2 SWAP1 PUSH2 0x2B70 JUMP JUMPDEST POP PUSH32 0x0 PUSH20 0xFFFFFFFFFFFFFFFFFFFFFFFFFFFFFFFFFFFFFFFF AND PUSH4 0x791AC947 DUP5 PUSH1 0x0 DUP5 DUP7 TIMESTAMP PUSH1 0x40 MLOAD DUP7 PUSH4 0xFFFFFFFF AND PUSH1 0xE0 SHL DUP2 MSTORE PUSH1 0x4 ADD PUSH2 0x2822 SWAP6 SWAP5 SWAP4 SWAP3 SWAP2 SWAP1 PUSH2 0x3370 JUMP JUMPDEST PUSH1 0x0 PUSH1 0x40 MLOAD DUP1 DUP4 SUB DUP2 PUSH1 0x0 DUP8 DUP1 EXTCODESIZE ISZERO DUP1 ISZERO PUSH2 0x283C JUMPI PUSH1 0x0 DUP1 REVERT JUMPDEST POP GAS CALL ISZERO DUP1 ISZERO PUSH2 0x2850 JUMPI RETURNDATASIZE PUSH1 0x0 DUP1 RETURNDATACOPY RETURNDATASIZE PUSH1 0x0 REVERT JUMPDEST POP POP POP POP POP POP POP JUMP JUMPDEST PUSH1 0x0 DUP1 DUP4 TIMESTAMP PUSH2 0x2868 SWAP2 SWAP1 PUSH2 0x352C JUMP JUMPDEST SWAP1 POP PUSH1 0x0 PUSH4 0x1E13380 PUSH2 0x2710 DUP6 DUP9 PUSH2 0x2880 SWAP2 SWAP1 PUSH2 0x34D2 JUMP JUMPDEST PUSH2 0x288A SWAP2 SWAP1 PUSH2 0x34A1 JUMP JUMPDEST PUSH2 0x2894 SWAP2 SWAP1 PUSH2 0x34A1 JUMP JUMPDEST SWAP1 POP PUSH1 0x0 DUP2 DUP4 PUSH2 0x28A4 SWAP2 SWAP1 PUSH2 0x34D2 JUMP JUMPDEST SWAP1 POP DUP1 SWAP4 POP POP POP POP SWAP4 SWAP3 POP POP POP JUMP JUMPDEST PUSH1 0x0 DUP1 PUSH1 0x0 SWAP1 SLOAD SWAP1 PUSH2 0x100 EXP SWAP1 DIV PUSH20 0xFFFFFFFFFFFFFFFFFFFFFFFFFFFFFFFFFFFFFFFF AND SWAP1 POP DUP2 PUSH1 0x0 DUP1 PUSH2 0x100 EXP DUP2 SLOAD DUP2 PUSH20 0xFFFFFFFFFFFFFFFFFFFFFFFFFFFFFFFFFFFFFFFF MUL NOT AND SWAP1 DUP4 PUSH20 0xFFFFFFFFFFFFFFFFFFFFFFFFFFFFFFFFFFFFFFFF AND MUL OR SWAP1 SSTORE POP DUP2 PUSH20 0xFFFFFFFFFFFFFFFFFFFFFFFFFFFFFFFFFFFFFFFF AND DUP2 PUSH20 0xFFFFFFFFFFFFFFFFFFFFFFFFFFFFFFFFFFFFFFFF AND PUSH32 0x8BE0079C531659141344CD1FD0A4F28419497F9722A3DAAFE3B4186F6B6457E0 PUSH1 0x40 MLOAD PUSH1 0x40 MLOAD DUP1 SWAP2 SUB SWAP1 LOG3 POP POP JUMP JUMPDEST PUSH2 0x297F PUSH2 0xA69 JUMP JUMPDEST ISZERO PUSH2 0x29BF JUMPI PUSH1 0x40 MLOAD PUSH32 0x8C379A000000000000000000000000000000000000000000000000000000000 DUP2 MSTORE PUSH1 0x4 ADD PUSH2 0x29B6 SWAP1 PUSH2 0x3295 JUMP JUMPDEST PUSH1 0x40 MLOAD DUP1 SWAP2 SUB SWAP1 REVERT JUMPDEST PUSH1 0x1 PUSH1 0x0 PUSH1 0x14 PUSH2 0x100 EXP DUP2 SLOAD DUP2 PUSH1 0xFF MUL NOT AND SWAP1 DUP4 ISZERO ISZERO MUL OR SWAP1 SSTORE POP PUSH32 0x62E78CEA01BEE320CD4E420270B5EA74000D11B0C9F74754EBDBFC544B05A258 PUSH2 0x2A03 PUSH2 0x249C JUMP JUMPDEST PUSH1 0x40 MLOAD PUSH2 0x2A10 SWAP2 SWAP1 PUSH2 0x2F37 JUMP JUMPDEST PUSH1 0x40 MLOAD DUP1 SWAP2 SUB SWAP1 LOG1 JUMP JUMPDEST PUSH1 0x0 DUP2 CALLDATALOAD SWAP1 POP PUSH2 0x2A29 DUP2 PUSH2 0x393B JUMP JUMPDEST SWAP3 SWAP2 POP POP JUMP JUMPDEST PUSH1 0x0 DUP2 MLOAD SWAP1 POP PUSH2 0x2A3E DUP2 PUSH2 0x393B JUMP JUMPDEST SWAP3 SWAP2 POP POP JUMP JUMPDEST PUSH1 0x0 DUP2 MLOAD SWAP1 POP PUSH2 0x2A53 DUP2 PUSH2 0x3952 JUMP JUMPDEST SWAP3 SWAP2 POP POP JUMP JUMPDEST PUSH1 0x0 DUP2 CALLDATALOAD SWAP1 POP PUSH2 0x2A68 DUP2 PUSH2 0x3969 JUMP JUMPDEST SWAP3 SWAP2 POP POP JUMP JUMPDEST PUSH1 0x0 DUP2 CALLDATALOAD SWAP1 POP PUSH2 0x2A7D DUP2 PUSH2 0x3980 JUMP JUMPDEST SWAP3 SWAP2 POP POP JUMP JUMPDEST PUSH1 0x0 PUSH1 0x20 DUP3 DUP5 SUB SLT ISZERO PUSH2 0x2A99 JUMPI PUSH2 0x2A98 PUSH2 0x3701 JUMP JUMPDEST JUMPDEST PUSH1 0x0 PUSH2 0x2AA7 DUP5 DUP3 DUP6 ADD PUSH2 0x2A1A JUMP JUMPDEST SWAP2 POP POP SWAP3 SWAP2 POP POP JUMP JUMPDEST PUSH1 0x0 PUSH1 0x20 DUP3 DUP5 SUB SLT ISZERO PUSH2 0x2AC6 JUMPI PUSH2 0x2AC5 PUSH2 0x3701 JUMP JUMPDEST JUMPDEST PUSH1 0x0 PUSH2 0x2AD4 DUP5 DUP3 DUP6 ADD PUSH2 0x2A2F JUMP JUMPDEST SWAP2 POP POP SWAP3 SWAP2 POP POP JUMP JUMPDEST PUSH1 0x0 DUP1 PUSH1 0x40 DUP4 DUP6 SUB SLT ISZERO PUSH2 0x2AF4 JUMPI PUSH2 0x2AF3 PUSH2 0x3701 JUMP JUMPDEST JUMPDEST PUSH1 0x0 PUSH2 0x2B02 DUP6 DUP3 DUP7 ADD PUSH2 0x2A1A JUMP JUMPDEST SWAP3 POP POP PUSH1 0x20 PUSH2 0x2B13 DUP6 DUP3 DUP7 ADD PUSH2 0x2A6E JUMP JUMPDEST SWAP2 POP POP SWAP3 POP SWAP3 SWAP1 POP JUMP JUMPDEST PUSH1 0x0 DUP1 PUSH1 0x0 PUSH1 0x60 DUP5 DUP7 SUB SLT ISZERO PUSH2 0x2B36 JUMPI PUSH2 0x2B35 PUSH2 0x3701 JUMP JUMPDEST JUMPDEST PUSH1 0x0 PUSH2 0x2B44 DUP7 DUP3 DUP8 ADD PUSH2 0x2A1A JUMP JUMPDEST SWAP4 POP POP PUSH1 0x20 PUSH2 0x2B55 DUP7 DUP3 DUP8 ADD PUSH2 0x2A6E JUMP JUMPDEST SWAP3 POP POP PUSH1 0x40 PUSH2 0x2B66 DUP7 DUP3 DUP8 ADD PUSH2 0x2A59 JUMP JUMPDEST SWAP2 POP POP SWAP3 POP SWAP3 POP SWAP3 JUMP JUMPDEST PUSH1 0x0 PUSH1 0x20 DUP3 DUP5 SUB SLT ISZERO PUSH2 0x2B86 JUMPI PUSH2 0x2B85 PUSH2 0x3701 JUMP JUMPDEST JUMPDEST PUSH1 0x0 PUSH2 0x2B94 DUP5 DUP3 DUP6 ADD PUSH2 0x2A44 JUMP JUMPDEST SWAP2 POP POP SWAP3 SWAP2 POP POP JUMP JUMPDEST PUSH1 0x0 PUSH1 0x20 DUP3 DUP5 SUB SLT ISZERO PUSH2 0x2BB3 JUMPI PUSH2 0x2BB2 PUSH2 0x3701 JUMP JUMPDEST JUMPDEST PUSH1 0x0 PUSH2 0x2BC1 DUP5 DUP3 DUP6 ADD PUSH2 0x2A59 JUMP JUMPDEST SWAP2 POP POP SWAP3 SWAP2 POP POP JUMP JUMPDEST PUSH1 0x0 DUP1 PUSH1 0x0 PUSH1 0x60 DUP5 DUP7 SUB SLT ISZERO PUSH2 0x2BE3 JUMPI PUSH2 0x2BE2 PUSH2 0x3701 JUMP JUMPDEST JUMPDEST PUSH1 0x0 PUSH2 0x2BF1 DUP7 DUP3 DUP8 ADD PUSH2 0x2A59 JUMP JUMPDEST SWAP4 POP POP PUSH1 0x20 PUSH2 0x2C02 DUP7 DUP3 DUP8 ADD PUSH2 0x2A59 JUMP JUMPDEST SWAP3 POP POP PUSH1 0x40 PUSH2 0x2C13 DUP7 DUP3 DUP8 ADD PUSH2 0x2A59 JUMP JUMPDEST SWAP2 POP POP SWAP3 POP SWAP3 POP SWAP3 JUMP JUMPDEST PUSH1 0x0 DUP1 PUSH1 0x0 DUP1 PUSH1 0x0 DUP1 PUSH1 0xC0 DUP8 DUP10 SUB SLT ISZERO PUSH2 0x2C3A JUMPI PUSH2 0x2C39 PUSH2 0x3701 JUMP JUMPDEST JUMPDEST PUSH1 0x0 PUSH2 0x2C48 DUP10 DUP3 DUP11 ADD PUSH2 0x2A59 JUMP JUMPDEST SWAP7 POP POP PUSH1 0x20 PUSH2 0x2C59 DUP10 DUP3 DUP11 ADD PUSH2 0x2A59 JUMP JUMPDEST SWAP6 POP POP PUSH1 0x40 PUSH2 0x2C6A DUP10 DUP3 DUP11 ADD PUSH2 0x2A59 JUMP JUMPDEST SWAP5 POP POP PUSH1 0x60 PUSH2 0x2C7B DUP10 DUP3 DUP11 ADD PUSH2 0x2A59 JUMP JUMPDEST SWAP4 POP POP PUSH1 0x80 PUSH2 0x2C8C DUP10 DUP3 DUP11 ADD PUSH2 0x2A59 JUMP JUMPDEST SWAP3 POP POP PUSH1 0xA0 PUSH2 0x2C9D DUP10 DUP3 DUP11 ADD PUSH2 0x2A59 JUMP JUMPDEST SWAP2 POP POP SWAP3 SWAP6 POP SWAP3 SWAP6 POP SWAP3 SWAP6 JUMP JUMPDEST PUSH1 0x0 PUSH2 0x2CB6 DUP4 DUP4 PUSH2 0x2CC2 JUMP JUMPDEST PUSH1 0x20 DUP4 ADD SWAP1 POP SWAP3 SWAP2 POP POP JUMP JUMPDEST PUSH2 0x2CCB DUP2 PUSH2 0x3560 JUMP JUMPDEST DUP3 MSTORE POP POP JUMP JUMPDEST PUSH2 0x2CDA DUP2 PUSH2 0x3560 JUMP JUMPDEST DUP3 MSTORE POP POP JUMP JUMPDEST PUSH1 0x0 PUSH2 0x2CEB DUP3 PUSH2 0x3411 JUMP JUMPDEST PUSH2 0x2CF5 DUP2 DUP6 PUSH2 0x3429 JUMP JUMPDEST SWAP4 POP PUSH2 0x2D00 DUP4 PUSH2 0x3401 JUMP JUMPDEST DUP1 PUSH1 0x0 JUMPDEST DUP4 DUP2 LT ISZERO PUSH2 0x2D31 JUMPI DUP2 MLOAD PUSH2 0x2D18 DUP9 DUP3 PUSH2 0x2CAA JUMP JUMPDEST SWAP8 POP PUSH2 0x2D23 DUP4 PUSH2 0x341C JUMP JUMPDEST SWAP3 POP POP PUSH1 0x1 DUP2 ADD SWAP1 POP PUSH2 0x2D04 JUMP JUMPDEST POP DUP6 SWAP4 POP POP POP POP SWAP3 SWAP2 POP POP JUMP JUMPDEST PUSH2 0x2D47 DUP2 PUSH2 0x3572 JUMP JUMPDEST DUP3 MSTORE POP POP JUMP JUMPDEST PUSH2 0x2D56 DUP2 PUSH2 0x35B5 JUMP JUMPDEST DUP3 MSTORE POP POP JUMP JUMPDEST PUSH2 0x2D65 DUP2 PUSH2 0x35C7 JUMP JUMPDEST DUP3 MSTORE POP POP JUMP JUMPDEST PUSH2 0x2D74 DUP2 PUSH2 0x35D9 JUMP JUMPDEST DUP3 MSTORE POP POP JUMP JUMPDEST PUSH2 0x2D83 DUP2 PUSH2 0x35EB JUMP JUMPDEST DUP3 MSTORE POP POP JUMP JUMPDEST PUSH2 0x2D92 DUP2 PUSH2 0x35FD JUMP JUMPDEST DUP3 MSTORE POP POP JUMP JUMPDEST PUSH2 0x2DA1 DUP2 PUSH2 0x360F JUMP JUMPDEST DUP3 MSTORE POP POP JUMP JUMPDEST PUSH1 0x0 PUSH2 0x2DB4 PUSH1 0x14 DUP4 PUSH2 0x343A JUMP JUMPDEST SWAP2 POP PUSH2 0x2DBF DUP3 PUSH2 0x3706 JUMP JUMPDEST PUSH1 0x20 DUP3 ADD SWAP1 POP SWAP2 SWAP1 POP JUMP JUMPDEST PUSH1 0x0 PUSH2 0x2DD7 PUSH1 0x26 DUP4 PUSH2 0x343A JUMP JUMPDEST SWAP2 POP PUSH2 0x2DE2 DUP3 PUSH2 0x372F JUMP JUMPDEST PUSH1 0x40 DUP3 ADD SWAP1 POP SWAP2 SWAP1 POP JUMP JUMPDEST PUSH1 0x0 PUSH2 0x2DFA PUSH1 0x1E DUP4 PUSH2 0x343A JUMP JUMPDEST SWAP2 POP PUSH2 0x2E05 DUP3 PUSH2 0x377E JUMP JUMPDEST PUSH1 0x20 DUP3 ADD SWAP1 POP SWAP2 SWAP1 POP JUMP JUMPDEST PUSH1 0x0 PUSH2 0x2E1D PUSH1 0x22 DUP4 PUSH2 0x343A JUMP JUMPDEST SWAP2 POP PUSH2 0x2E28 DUP3 PUSH2 0x37A7 JUMP JUMPDEST PUSH1 0x40 DUP3 ADD SWAP1 POP SWAP2 SWAP1 POP JUMP JUMPDEST PUSH1 0x0 PUSH2 0x2E40 PUSH1 0x16 DUP4 PUSH2 0x343A JUMP JUMPDEST SWAP2 POP PUSH2 0x2E4B DUP3 PUSH2 0x37F6 JUMP JUMPDEST PUSH1 0x20 DUP3 ADD SWAP1 POP SWAP2 SWAP1 POP JUMP JUMPDEST PUSH1 0x0 PUSH2 0x2E63 PUSH1 0x10 DUP4 PUSH2 0x343A JUMP JUMPDEST SWAP2 POP PUSH2 0x2E6E DUP3 PUSH2 0x381F JUMP JUMPDEST PUSH1 0x20 DUP3 ADD SWAP1 POP SWAP2 SWAP1 POP JUMP JUMPDEST PUSH1 0x0 PUSH2 0x2E86 PUSH1 0x16 DUP4 PUSH2 0x343A JUMP JUMPDEST SWAP2 POP PUSH2 0x2E91 DUP3 PUSH2 0x3848 JUMP JUMPDEST PUSH1 0x20 DUP3 ADD SWAP1 POP SWAP2 SWAP1 POP JUMP JUMPDEST PUSH1 0x0 PUSH2 0x2EA9 PUSH1 0x32 DUP4 PUSH2 0x343A JUMP JUMPDEST SWAP2 POP PUSH2 0x2EB4 DUP3 PUSH2 0x3871 JUMP JUMPDEST PUSH1 0x40 DUP3 ADD SWAP1 POP SWAP2 SWAP1 POP JUMP JUMPDEST PUSH1 0x0 PUSH2 0x2ECC PUSH1 0x20 DUP4 PUSH2 0x343A JUMP JUMPDEST SWAP2 POP PUSH2 0x2ED7 DUP3 PUSH2 0x38C0 JUMP JUMPDEST PUSH1 0x20 DUP3 ADD SWAP1 POP SWAP2 SWAP1 POP JUMP JUMPDEST PUSH1 0x0 PUSH2 0x2EEF PUSH1 0xF DUP4 PUSH2 0x343A JUMP JUMPDEST SWAP2 POP PUSH2 0x2EFA DUP3 PUSH2 0x38E9 JUMP JUMPDEST PUSH1 0x20 DUP3 ADD SWAP1 POP SWAP2 SWAP1 POP JUMP JUMPDEST PUSH1 0x0 PUSH2 0x2F12 PUSH1 0x1F DUP4 PUSH2 0x343A JUMP JUMPDEST SWAP2 POP PUSH2 0x2F1D DUP3 PUSH2 0x3912 JUMP JUMPDEST PUSH1 0x20 DUP3 ADD SWAP1 POP SWAP2 SWAP1 POP JUMP JUMPDEST PUSH2 0x2F31 DUP2 PUSH2 0x359E JUMP JUMPDEST DUP3 MSTORE POP POP JUMP JUMPDEST PUSH1 0x0 PUSH1 0x20 DUP3 ADD SWAP1 POP PUSH2 0x2F4C PUSH1 0x0 DUP4 ADD DUP5 PUSH2 0x2CD1 JUMP JUMPDEST SWAP3 SWAP2 POP POP JUMP JUMPDEST PUSH1 0x0 PUSH1 0x60 DUP3 ADD SWAP1 POP PUSH2 0x2F67 PUSH1 0x0 DUP4 ADD DUP7 PUSH2 0x2CD1 JUMP JUMPDEST PUSH2 0x2F74 PUSH1 0x20 DUP4 ADD DUP6 PUSH2 0x2CD1 JUMP JUMPDEST PUSH2 0x2F81 PUSH1 0x40 DUP4 ADD DUP5 PUSH2 0x2F28 JUMP JUMPDEST SWAP5 SWAP4 POP POP POP POP JUMP JUMPDEST PUSH1 0x0 PUSH1 0xA0 DUP3 ADD SWAP1 POP PUSH2 0x2F9E PUSH1 0x0 DUP4 ADD DUP9 PUSH2 0x2CD1 JUMP JUMPDEST PUSH2 0x2FAB PUSH1 0x20 DUP4 ADD DUP8 PUSH2 0x2D7A JUMP JUMPDEST PUSH2 0x2FB8 PUSH1 0x40 DUP4 ADD DUP7 PUSH2 0x2D3E JUMP JUMPDEST PUSH2 0x2FC5 PUSH1 0x60 DUP4 ADD DUP6 PUSH2 0x2F28 JUMP JUMPDEST PUSH2 0x2FD2 PUSH1 0x80 DUP4 ADD DUP5 PUSH2 0x2F28 JUMP JUMPDEST SWAP7 SWAP6 POP POP POP POP POP POP JUMP JUMPDEST PUSH1 0x0 PUSH1 0xA0 DUP3 ADD SWAP1 POP PUSH2 0x2FF1 PUSH1 0x0 DUP4 ADD DUP9 PUSH2 0x2CD1 JUMP JUMPDEST PUSH2 0x2FFE PUSH1 0x20 DUP4 ADD DUP8 PUSH2 0x2D7A JUMP JUMPDEST PUSH2 0x300B PUSH1 0x40 DUP4 ADD DUP7 PUSH2 0x2F28 JUMP JUMPDEST PUSH2 0x3018 PUSH1 0x60 DUP4 ADD DUP6 PUSH2 0x2F28 JUMP JUMPDEST PUSH2 0x3025 PUSH1 0x80 DUP4 ADD DUP5 PUSH2 0x2F28 JUMP JUMPDEST SWAP7 SWAP6 POP POP POP POP POP POP JUMP JUMPDEST PUSH1 0x0 PUSH1 0xA0 DUP3 ADD SWAP1 POP PUSH2 0x3044 PUSH1 0x0 DUP4 ADD DUP9 PUSH2 0x2CD1 JUMP JUMPDEST PUSH2 0x3051 PUSH1 0x20 DUP4 ADD DUP8 PUSH2 0x2D89 JUMP JUMPDEST PUSH2 0x305E PUSH1 0x40 DUP4 ADD DUP7 PUSH2 0x2D3E JUMP JUMPDEST PUSH2 0x306B PUSH1 0x60 DUP4 ADD DUP6 PUSH2 0x2F28 JUMP JUMPDEST PUSH2 0x3078 PUSH1 0x80 DUP4 ADD DUP5 PUSH2 0x2F28 JUMP JUMPDEST SWAP7 SWAP6 POP POP POP POP POP POP JUMP JUMPDEST PUSH1 0x0 PUSH1 0xA0 DUP3 ADD SWAP1 POP PUSH2 0x3097 PUSH1 0x0 DUP4 ADD DUP9 PUSH2 0x2CD1 JUMP JUMPDEST PUSH2 0x30A4 PUSH1 0x20 DUP4 ADD DUP8 PUSH2 0x2D89 JUMP JUMPDEST PUSH2 0x30B1 PUSH1 0x40 DUP4 ADD DUP7 PUSH2 0x2F28 JUMP JUMPDEST PUSH2 0x30BE PUSH1 0x60 DUP4 ADD DUP6 PUSH2 0x2F28 JUMP JUMPDEST PUSH2 0x30CB PUSH1 0x80 DUP4 ADD DUP5 PUSH2 0x2F28 JUMP JUMPDEST SWAP7 SWAP6 POP POP POP POP POP POP JUMP JUMPDEST PUSH1 0x0 PUSH1 0xA0 DUP3 ADD SWAP1 POP PUSH2 0x30EA PUSH1 0x0 DUP4 ADD DUP9 PUSH2 0x2CD1 JUMP JUMPDEST PUSH2 0x30F7 PUSH1 0x20 DUP4 ADD DUP8 PUSH2 0x2D98 JUMP JUMPDEST PUSH2 0x3104 PUSH1 0x40 DUP4 ADD DUP7 PUSH2 0x2D3E JUMP JUMPDEST PUSH2 0x3111 PUSH1 0x60 DUP4 ADD DUP6 PUSH2 0x2F28 JUMP JUMPDEST PUSH2 0x311E PUSH1 0x80 DUP4 ADD DUP5 PUSH2 0x2F28 JUMP JUMPDEST SWAP7 SWAP6 POP POP POP POP POP POP JUMP JUMPDEST PUSH1 0x0 PUSH1 0xA0 DUP3 ADD SWAP1 POP PUSH2 0x313D PUSH1 0x0 DUP4 ADD DUP9 PUSH2 0x2CD1 JUMP JUMPDEST PUSH2 0x314A PUSH1 0x20 DUP4 ADD DUP8 PUSH2 0x2D98 JUMP JUMPDEST PUSH2 0x3157 PUSH1 0x40 DUP4 ADD DUP7 PUSH2 0x2F28 JUMP JUMPDEST PUSH2 0x3164 PUSH1 0x60 DUP4 ADD DUP6 PUSH2 0x2F28 JUMP JUMPDEST PUSH2 0x3171 PUSH1 0x80 DUP4 ADD DUP5 PUSH2 0x2F28 JUMP JUMPDEST SWAP7 SWAP6 POP POP POP POP POP POP JUMP JUMPDEST PUSH1 0x0 PUSH1 0x40 DUP3 ADD SWAP1 POP PUSH2 0x3190 PUSH1 0x0 DUP4 ADD DUP6 PUSH2 0x2CD1 JUMP JUMPDEST PUSH2 0x319D PUSH1 0x20 DUP4 ADD DUP5 PUSH2 0x2F28 JUMP JUMPDEST SWAP4 SWAP3 POP POP POP JUMP JUMPDEST PUSH1 0x0 PUSH1 0x20 DUP3 ADD SWAP1 POP PUSH2 0x31B9 PUSH1 0x0 DUP4 ADD DUP5 PUSH2 0x2D3E JUMP JUMPDEST SWAP3 SWAP2 POP POP JUMP JUMPDEST PUSH1 0x0 PUSH1 0x20 DUP3 ADD SWAP1 POP PUSH2 0x31D4 PUSH1 0x0 DUP4 ADD DUP5 PUSH2 0x2D4D JUMP JUMPDEST SWAP3 SWAP2 POP POP JUMP JUMPDEST PUSH1 0x0 PUSH1 0x20 DUP3 ADD SWAP1 POP PUSH2 0x31EF PUSH1 0x0 DUP4 ADD DUP5 PUSH2 0x2D5C JUMP JUMPDEST SWAP3 SWAP2 POP POP JUMP JUMPDEST PUSH1 0x0 PUSH1 0x20 DUP3 ADD SWAP1 POP DUP2 DUP2 SUB PUSH1 0x0 DUP4 ADD MSTORE PUSH2 0x320E DUP2 PUSH2 0x2DA7 JUMP JUMPDEST SWAP1 POP SWAP2 SWAP1 POP JUMP JUMPDEST PUSH1 0x0 PUSH1 0x20 DUP3 ADD SWAP1 POP DUP2 DUP2 SUB PUSH1 0x0 DUP4 ADD MSTORE PUSH2 0x322E DUP2 PUSH2 0x2DCA JUMP JUMPDEST SWAP1 POP SWAP2 SWAP1 POP JUMP JUMPDEST PUSH1 0x0 PUSH1 0x20 DUP3 ADD SWAP1 POP DUP2 DUP2 SUB PUSH1 0x0 DUP4 ADD MSTORE PUSH2 0x324E DUP2 PUSH2 0x2DED JUMP JUMPDEST SWAP1 POP SWAP2 SWAP1 POP JUMP JUMPDEST PUSH1 0x0 PUSH1 0x20 DUP3 ADD SWAP1 POP DUP2 DUP2 SUB PUSH1 0x0 DUP4 ADD MSTORE PUSH2 0x326E DUP2 PUSH2 0x2E10 JUMP JUMPDEST SWAP1 POP SWAP2 SWAP1 POP JUMP JUMPDEST PUSH1 0x0 PUSH1 0x20 DUP3 ADD SWAP1 POP DUP2 DUP2 SUB PUSH1 0x0 DUP4 ADD MSTORE PUSH2 0x328E DUP2 PUSH2 0x2E33 JUMP JUMPDEST SWAP1 POP SWAP2 SWAP1 POP JUMP JUMPDEST PUSH1 0x0 PUSH1 0x20 DUP3 ADD SWAP1 POP DUP2 DUP2 SUB PUSH1 0x0 DUP4 ADD MSTORE PUSH2 0x32AE DUP2 PUSH2 0x2E56 JUMP JUMPDEST SWAP1 POP SWAP2 SWAP1 POP JUMP JUMPDEST PUSH1 0x0 PUSH1 0x20 DUP3 ADD SWAP1 POP DUP2 DUP2 SUB PUSH1 0x0 DUP4 ADD MSTORE PUSH2 0x32CE DUP2 PUSH2 0x2E79 JUMP JUMPDEST SWAP1 POP SWAP2 SWAP1 POP JUMP JUMPDEST PUSH1 0x0 PUSH1 0x20 DUP3 ADD SWAP1 POP DUP2 DUP2 SUB PUSH1 0x0 DUP4 ADD MSTORE PUSH2 0x32EE DUP2 PUSH2 0x2E9C JUMP JUMPDEST SWAP1 POP SWAP2 SWAP1 POP JUMP JUMPDEST PUSH1 0x0 PUSH1 0x20 DUP3 ADD SWAP1 POP DUP2 DUP2 SUB PUSH1 0x0 DUP4 ADD MSTORE PUSH2 0x330E DUP2 PUSH2 0x2EBF JUMP JUMPDEST SWAP1 POP SWAP2 SWAP1 POP JUMP JUMPDEST PUSH1 0x0 PUSH1 0x20 DUP3 ADD SWAP1 POP DUP2 DUP2 SUB PUSH1 0x0 DUP4 ADD MSTORE PUSH2 0x332E DUP2 PUSH2 0x2EE2 JUMP JUMPDEST SWAP1 POP SWAP2 SWAP1 POP JUMP JUMPDEST PUSH1 0x0 PUSH1 0x20 DUP3 ADD SWAP1 POP DUP2 DUP2 SUB PUSH1 0x0 DUP4 ADD MSTORE PUSH2 0x334E DUP2 PUSH2 0x2F05 JUMP JUMPDEST SWAP1 POP SWAP2 SWAP1 POP JUMP JUMPDEST PUSH1 0x0 PUSH1 0x20 DUP3 ADD SWAP1 POP PUSH2 0x336A PUSH1 0x0 DUP4 ADD DUP5 PUSH2 0x2F28 JUMP JUMPDEST SWAP3 SWAP2 POP POP JUMP JUMPDEST PUSH1 0x0 PUSH1 0xA0 DUP3 ADD SWAP1 POP PUSH2 0x3385 PUSH1 0x0 DUP4 ADD DUP9 PUSH2 0x2F28 JUMP JUMPDEST PUSH2 0x3392 PUSH1 0x20 DUP4 ADD DUP8 PUSH2 0x2D6B JUMP JUMPDEST DUP2 DUP2 SUB PUSH1 0x40 DUP4 ADD MSTORE PUSH2 0x33A4 DUP2 DUP7 PUSH2 0x2CE0 JUMP JUMPDEST SWAP1 POP PUSH2 0x33B3 PUSH1 0x60 DUP4 ADD DUP6 PUSH2 0x2CD1 JUMP JUMPDEST PUSH2 0x33C0 PUSH1 0x80 DUP4 ADD DUP5 PUSH2 0x2F28 JUMP JUMPDEST SWAP7 SWAP6 POP POP POP POP POP POP JUMP JUMPDEST PUSH1 0x0 PUSH1 0x60 DUP3 ADD SWAP1 POP PUSH2 0x33DF PUSH1 0x0 DUP4 ADD DUP7 PUSH2 0x2F28 JUMP JUMPDEST PUSH2 0x33EC PUSH1 0x20 DUP4 ADD DUP6 PUSH2 0x2F28 JUMP JUMPDEST PUSH2 0x33F9 PUSH1 0x40 DUP4 ADD DUP5 PUSH2 0x2F28 JUMP JUMPDEST SWAP5 SWAP4 POP POP POP POP JUMP JUMPDEST PUSH1 0x0 DUP2 SWAP1 POP PUSH1 0x20 DUP3 ADD SWAP1 POP SWAP2 SWAP1 POP JUMP JUMPDEST PUSH1 0x0 DUP2 MLOAD SWAP1 POP SWAP2 SWAP1 POP JUMP JUMPDEST PUSH1 0x0 PUSH1 0x20 DUP3 ADD SWAP1 POP SWAP2 SWAP1 POP JUMP JUMPDEST PUSH1 0x0 DUP3 DUP3 MSTORE PUSH1 0x20 DUP3 ADD SWAP1 POP SWAP3 SWAP2 POP POP JUMP JUMPDEST PUSH1 0x0 DUP3 DUP3 MSTORE PUSH1 0x20 DUP3 ADD SWAP1 POP SWAP3 SWAP2 POP POP JUMP JUMPDEST PUSH1 0x0 PUSH2 0x3456 DUP3 PUSH2 0x359E JUMP JUMPDEST SWAP2 POP PUSH2 0x3461 DUP4 PUSH2 0x359E JUMP JUMPDEST SWAP3 POP DUP3 PUSH32 0xFFFFFFFFFFFFFFFFFFFFFFFFFFFFFFFFFFFFFFFFFFFFFFFFFFFFFFFFFFFFFFFF SUB DUP3 GT ISZERO PUSH2 0x3496 JUMPI PUSH2 0x3495 PUSH2 0x3645 JUMP JUMPDEST JUMPDEST DUP3 DUP3 ADD SWAP1 POP SWAP3 SWAP2 POP POP JUMP JUMPDEST PUSH1 0x0 PUSH2 0x34AC DUP3 PUSH2 0x359E JUMP JUMPDEST SWAP2 POP PUSH2 0x34B7 DUP4 PUSH2 0x359E JUMP JUMPDEST SWAP3 POP DUP3 PUSH2 0x34C7 JUMPI PUSH2 0x34C6 PUSH2 0x3674 JUMP JUMPDEST JUMPDEST DUP3 DUP3 DIV SWAP1 POP SWAP3 SWAP2 POP POP JUMP JUMPDEST PUSH1 0x0 PUSH2 0x34DD DUP3 PUSH2 0x359E JUMP JUMPDEST SWAP2 POP PUSH2 0x34E8 DUP4 PUSH2 0x359E JUMP JUMPDEST SWAP3 POP DUP2 PUSH32 0xFFFFFFFFFFFFFFFFFFFFFFFFFFFFFFFFFFFFFFFFFFFFFFFFFFFFFFFFFFFFFFFF DIV DUP4 GT DUP3 ISZERO ISZERO AND ISZERO PUSH2 0x3521 JUMPI PUSH2 0x3520 PUSH2 0x3645 JUMP JUMPDEST JUMPDEST DUP3 DUP3 MUL SWAP1 POP SWAP3 SWAP2 POP POP JUMP JUMPDEST PUSH1 0x0 PUSH2 0x3537 DUP3 PUSH2 0x359E JUMP JUMPDEST SWAP2 POP PUSH2 0x3542 DUP4 PUSH2 0x359E JUMP JUMPDEST SWAP3 POP DUP3 DUP3 LT ISZERO PUSH2 0x3555 JUMPI PUSH2 0x3554 PUSH2 0x3645 JUMP JUMPDEST JUMPDEST DUP3 DUP3 SUB SWAP1 POP SWAP3 SWAP2 POP POP JUMP JUMPDEST PUSH1 0x0 PUSH2 0x356B DUP3 PUSH2 0x357E JUMP JUMPDEST SWAP1 POP SWAP2 SWAP1 POP JUMP JUMPDEST PUSH1 0x0 DUP2 ISZERO ISZERO SWAP1 POP SWAP2 SWAP1 POP JUMP JUMPDEST PUSH1 0x0 PUSH20 0xFFFFFFFFFFFFFFFFFFFFFFFFFFFFFFFFFFFFFFFF DUP3 AND SWAP1 POP SWAP2 SWAP1 POP JUMP JUMPDEST PUSH1 0x0 DUP2 SWAP1 POP SWAP2 SWAP1 POP JUMP JUMPDEST PUSH1 0x0 PUSH1 0xFF DUP3 AND SWAP1 POP SWAP2 SWAP1 POP JUMP JUMPDEST PUSH1 0x0 PUSH2 0x35C0 DUP3 PUSH2 0x3621 JUMP JUMPDEST SWAP1 POP SWAP2 SWAP1 POP JUMP JUMPDEST PUSH1 0x0 PUSH2 0x35D2 DUP3 PUSH2 0x3621 JUMP JUMPDEST SWAP1 POP SWAP2 SWAP1 POP JUMP JUMPDEST PUSH1 0x0 PUSH2 0x35E4 DUP3 PUSH2 0x359E JUMP JUMPDEST SWAP1 POP SWAP2 SWAP1 POP JUMP JUMPDEST PUSH1 0x0 PUSH2 0x35F6 DUP3 PUSH2 0x35A8 JUMP JUMPDEST SWAP1 POP SWAP2 SWAP1 POP JUMP JUMPDEST PUSH1 0x0 PUSH2 0x3608 DUP3 PUSH2 0x35A8 JUMP JUMPDEST SWAP1 POP SWAP2 SWAP1 POP JUMP JUMPDEST PUSH1 0x0 PUSH2 0x361A DUP3 PUSH2 0x35A8 JUMP JUMPDEST SWAP1 POP SWAP2 SWAP1 POP JUMP JUMPDEST PUSH1 0x0 PUSH2 0x362C DUP3 PUSH2 0x3633 JUMP JUMPDEST SWAP1 POP SWAP2 SWAP1 POP JUMP JUMPDEST PUSH1 0x0 PUSH2 0x363E DUP3 PUSH2 0x357E JUMP JUMPDEST SWAP1 POP SWAP2 SWAP1 POP JUMP JUMPDEST PUSH32 0x4E487B7100000000000000000000000000000000000000000000000000000000 PUSH1 0x0 MSTORE PUSH1 0x11 PUSH1 0x4 MSTORE PUSH1 0x24 PUSH1 0x0 REVERT JUMPDEST PUSH32 0x4E487B7100000000000000000000000000000000000000000000000000000000 PUSH1 0x0 MSTORE PUSH1 0x12 PUSH1 0x4 MSTORE PUSH1 0x24 PUSH1 0x0 REVERT JUMPDEST PUSH32 0x4E487B7100000000000000000000000000000000000000000000000000000000 PUSH1 0x0 MSTORE PUSH1 0x32 PUSH1 0x4 MSTORE PUSH1 0x24 PUSH1 0x0 REVERT JUMPDEST PUSH32 0x4E487B7100000000000000000000000000000000000000000000000000000000 PUSH1 0x0 MSTORE PUSH1 0x41 PUSH1 0x4 MSTORE PUSH1 0x24 PUSH1 0x0 REVERT JUMPDEST PUSH1 0x0 DUP1 REVERT JUMPDEST PUSH32 0x5061757361626C653A206E6F7420706175736564000000000000000000000000 PUSH1 0x0 DUP3 ADD MSTORE POP JUMP JUMPDEST PUSH32 0x4F776E61626C653A206E6577206F776E657220697320746865207A65726F2061 PUSH1 0x0 DUP3 ADD MSTORE PUSH32 0x6464726573730000000000000000000000000000000000000000000000000000 PUSH1 0x20 DUP3 ADD MSTORE POP JUMP JUMPDEST PUSH32 0x4E6F7420656E6F7567682062616C616E636520746F2077697468647261770000 PUSH1 0x0 DUP3 ADD MSTORE POP JUMP JUMPDEST PUSH32 0x596F7527726520616C726561647920696E2074686973205374616B65206C6576 PUSH1 0x0 DUP3 ADD MSTORE PUSH32 0x656C000000000000000000000000000000000000000000000000000000000000 PUSH1 0x20 DUP3 ADD MSTORE POP JUMP JUMPDEST PUSH32 0x55736572206973206E6F74206F6E204C6576656C203100000000000000000000 PUSH1 0x0 DUP3 ADD MSTORE POP JUMP JUMPDEST PUSH32 0x5061757361626C653A2070617573656400000000000000000000000000000000 PUSH1 0x0 DUP3 ADD MSTORE POP JUMP JUMPDEST PUSH32 0x55736572206973206E6F74206F6E204C6576656C203000000000000000000000 PUSH1 0x0 DUP3 ADD MSTORE POP JUMP JUMPDEST PUSH32 0x416D6F756E74206E6565647320746F206265206D6F7265207468616E206D696E PUSH1 0x0 DUP3 ADD MSTORE PUSH32 0x20616E64206C657373207468616E206D61780000000000000000000000000000 PUSH1 0x20 DUP3 ADD MSTORE POP JUMP JUMPDEST PUSH32 0x4F776E61626C653A2063616C6C6572206973206E6F7420746865206F776E6572 PUSH1 0x0 DUP3 ADD MSTORE POP JUMP JUMPDEST PUSH32 0x55736572206973206E6F74205669700000000000000000000000000000000000 PUSH1 0x0 DUP3 ADD MSTORE POP JUMP JUMPDEST PUSH32 0x596F7527726520616C726561647920696E2074686520566970205374616B6500 PUSH1 0x0 DUP3 ADD MSTORE POP JUMP JUMPDEST PUSH2 0x3944 DUP2 PUSH2 0x3560 JUMP JUMPDEST DUP2 EQ PUSH2 0x394F JUMPI PUSH1 0x0 DUP1 REVERT JUMPDEST POP JUMP JUMPDEST PUSH2 0x395B DUP2 PUSH2 0x3572 JUMP JUMPDEST DUP2 EQ PUSH2 0x3966 JUMPI PUSH1 0x0 DUP1 REVERT JUMPDEST POP JUMP JUMPDEST PUSH2 0x3972 DUP2 PUSH2 0x359E JUMP JUMPDEST DUP2 EQ PUSH2 0x397D JUMPI PUSH1 0x0 DUP1 REVERT JUMPDEST POP JUMP JUMPDEST PUSH2 0x3989 DUP2 PUSH2 0x35A8 JUMP JUMPDEST DUP2 EQ PUSH2 0x3994 JUMPI PUSH1 0x0 DUP1 REVERT JUMPDEST POP JUMP INVALID LOG2 PUSH5 0x6970667358 0x22 SLT KECCAK256 PUSH2 0xEEC8 MSTORE 0xA6 PUSH12 0x3BA339FEF2E42B7A52002E38 0xEC BYTE 0x2D 0x22 0xDB 0xBA NUMBER 0xB1 0xB1 0x26 0xDB PUSH22 0xB8A664736F6C63430008070033000000000000000000 "
				},
				"gasEstimates": {
					"creation": {
						"codeDepositCost": "2959400",
						"executionCost": "infinite",
						"totalCost": "infinite"
					},
					"external": {
						"acceptedToken()": "2690",
						"enterLevel0(uint256)": "infinite",
						"enterLevel1(uint256)": "infinite",
						"enterVip(uint256)": "infinite",
						"getInterest(address,uint8,uint256)": "infinite",
						"isLevel0(address)": "2891",
						"isLevel1(address)": "2913",
						"isOnTime(address,uint8)": "3273",
						"isVip(address)": "2913",
						"level0APY()": "2475",
						"level0Balance(address)": "infinite",
						"level0Max()": "2540",
						"level0Min()": "2519",
						"level1APY()": "2542",
						"level1Balance(address)": "infinite",
						"level1Max()": "2496",
						"level1Min()": "2476",
						"levelVipMax()": "2474",
						"levelVipMin()": "2496",
						"owner()": "2634",
						"pause()": "infinite",
						"paused()": "2641",
						"renounceOwnership()": "30463",
						"reserveWallet()": "2603",
						"setNewAPY(uint256,uint256,uint256)": "infinite",
						"setNewMaxMin(uint256,uint256,uint256,uint256,uint256,uint256)": "infinite",
						"setReserveWallet(address)": "27073",
						"transferOwnership(address)": "30789",
						"uniswapV2Router()": "infinite",
						"unpause()": "infinite",
						"vipBalance(address)": "infinite",
						"vipLevelAPY()": "2475",
						"withdrawLevel0(uint256)": "infinite",
						"withdrawLevel1(uint256)": "infinite",
						"withdrawVip(uint256)": "infinite"
					},
					"internal": {
						"calculateInterest(uint256,uint256,uint256)": "infinite",
						"swapTokensForEth(uint256,address)": "infinite"
					}
				},
				"methodIdentifiers": {
					"acceptedToken()": "451c3d80",
					"enterLevel0(uint256)": "fe2981b5",
					"enterLevel1(uint256)": "1ed81ff8",
					"enterVip(uint256)": "bf01651a",
					"getInterest(address,uint8,uint256)": "69e06848",
					"isLevel0(address)": "6296e750",
					"isLevel1(address)": "635ef285",
					"isOnTime(address,uint8)": "f7edf9ab",
					"isVip(address)": "84203f4b",
					"level0APY()": "8275b181",
					"level0Balance(address)": "67911ba4",
					"level0Max()": "71a1609b",
					"level0Min()": "6505cf31",
					"level1APY()": "1ff08fee",
					"level1Balance(address)": "7fe509d7",
					"level1Max()": "d3900a52",
					"level1Min()": "01ef4739",
					"levelVipMax()": "8f0fb2b7",
					"levelVipMin()": "91789cef",
					"owner()": "8da5cb5b",
					"pause()": "8456cb59",
					"paused()": "5c975abb",
					"renounceOwnership()": "715018a6",
					"reserveWallet()": "d72b11bd",
					"setNewAPY(uint256,uint256,uint256)": "e5d15701",
					"setNewMaxMin(uint256,uint256,uint256,uint256,uint256,uint256)": "f4217e1e",
					"setReserveWallet(address)": "dda4fa8f",
					"transferOwnership(address)": "f2fde38b",
					"uniswapV2Router()": "1694505e",
					"unpause()": "3f4ba83a",
					"vipBalance(address)": "97e9c5fe",
					"vipLevelAPY()": "32938e3a",
					"withdrawLevel0(uint256)": "927e5998",
					"withdrawLevel1(uint256)": "bb664864",
					"withdrawVip(uint256)": "6636389e"
				}
			},
			"userdoc": {
				"kind": "user",
				"methods": {},
				"version": 1
			}
		}
	}
}