{
	"staking.sol": {
		"SenseiStaking": {
			"abi": [
				{
					"inputs": [
						{
							"internalType": "address",
							"name": "_token",
							"type": "address"
						},
						{
							"internalType": "address",
							"name": "_reserveWallet",
							"type": "address"
						}
					],
					"stateMutability": "nonpayable",
					"type": "constructor"
				},
				{
					"anonymous": false,
					"inputs": [
						{
							"indexed": true,
							"internalType": "address",
							"name": "previousOwner",
							"type": "address"
						},
						{
							"indexed": true,
							"internalType": "address",
							"name": "newOwner",
							"type": "address"
						}
					],
					"name": "OwnershipTransferred",
					"type": "event"
				},
				{
					"anonymous": false,
					"inputs": [
						{
							"indexed": false,
							"internalType": "address",
							"name": "account",
							"type": "address"
						}
					],
					"name": "Paused",
					"type": "event"
				},
				{
					"anonymous": false,
					"inputs": [
						{
							"indexed": false,
							"internalType": "address",
							"name": "account",
							"type": "address"
						}
					],
					"name": "Unpaused",
					"type": "event"
				},
				{
					"anonymous": false,
					"inputs": [
						{
							"indexed": false,
							"internalType": "address",
							"name": "user",
							"type": "address"
						},
						{
							"indexed": false,
							"internalType": "uint8",
							"name": "class",
							"type": "uint8"
						},
						{
							"indexed": false,
							"internalType": "uint256",
							"name": "amount",
							"type": "uint256"
						},
						{
							"indexed": false,
							"internalType": "uint256",
							"name": "timeStart",
							"type": "uint256"
						},
						{
							"indexed": false,
							"internalType": "uint256",
							"name": "timeEnd",
							"type": "uint256"
						}
					],
					"name": "deposit",
					"type": "event"
				},
				{
					"anonymous": false,
					"inputs": [
						{
							"indexed": false,
							"internalType": "address",
							"name": "user",
							"type": "address"
						},
						{
							"indexed": false,
							"internalType": "uint8",
							"name": "class",
							"type": "uint8"
						},
						{
							"indexed": false,
							"internalType": "bool",
							"name": "onTime",
							"type": "bool"
						},
						{
							"indexed": false,
							"internalType": "uint256",
							"name": "amount",
							"type": "uint256"
						},
						{
							"indexed": false,
							"internalType": "uint256",
							"name": "earnings",
							"type": "uint256"
						}
					],
					"name": "withdraw",
					"type": "event"
				},
				{
					"inputs": [],
					"name": "acceptedToken",
					"outputs": [
						{
							"internalType": "contract IERC20",
							"name": "",
							"type": "address"
						}
					],
					"stateMutability": "view",
					"type": "function"
				},
				{
					"inputs": [
						{
							"internalType": "uint256",
							"name": "_amount",
							"type": "uint256"
						}
					],
					"name": "enterLevel0",
					"outputs": [],
					"stateMutability": "nonpayable",
					"type": "function"
				},
				{
					"inputs": [
						{
							"internalType": "uint256",
							"name": "_amount",
							"type": "uint256"
						}
					],
					"name": "enterLevel1",
					"outputs": [],
					"stateMutability": "nonpayable",
					"type": "function"
				},
				{
					"inputs": [
						{
							"internalType": "uint256",
							"name": "_amount",
							"type": "uint256"
						}
					],
					"name": "enterVip",
					"outputs": [],
					"stateMutability": "nonpayable",
					"type": "function"
				},
				{
					"inputs": [
						{
							"internalType": "address",
							"name": "user",
							"type": "address"
						},
						{
							"internalType": "uint8",
							"name": "class",
							"type": "uint8"
						},
						{
							"internalType": "uint256",
							"name": "balance",
							"type": "uint256"
						}
					],
					"name": "getInterest",
					"outputs": [
						{
							"internalType": "uint256",
							"name": "",
							"type": "uint256"
						}
					],
					"stateMutability": "view",
					"type": "function"
				},
				{
					"inputs": [
						{
							"internalType": "address",
							"name": "",
							"type": "address"
						}
					],
					"name": "isLevel0",
					"outputs": [
						{
							"internalType": "bool",
							"name": "",
							"type": "bool"
						}
					],
					"stateMutability": "view",
					"type": "function"
				},
				{
					"inputs": [
						{
							"internalType": "address",
							"name": "",
							"type": "address"
						}
					],
					"name": "isLevel1",
					"outputs": [
						{
							"internalType": "bool",
							"name": "",
							"type": "bool"
						}
					],
					"stateMutability": "view",
					"type": "function"
				},
				{
					"inputs": [
						{
							"internalType": "address",
							"name": "user",
							"type": "address"
						},
						{
							"internalType": "uint8",
							"name": "class",
							"type": "uint8"
						}
					],
					"name": "isOnTime",
					"outputs": [
						{
							"internalType": "bool",
							"name": "",
							"type": "bool"
						}
					],
					"stateMutability": "view",
					"type": "function"
				},
				{
					"inputs": [
						{
							"internalType": "address",
							"name": "",
							"type": "address"
						}
					],
					"name": "isVip",
					"outputs": [
						{
							"internalType": "bool",
							"name": "",
							"type": "bool"
						}
					],
					"stateMutability": "view",
					"type": "function"
				},
				{
					"inputs": [],
					"name": "level0APY",
					"outputs": [
						{
							"internalType": "uint256",
							"name": "",
							"type": "uint256"
						}
					],
					"stateMutability": "view",
					"type": "function"
				},
				{
					"inputs": [
						{
							"internalType": "address",
							"name": "",
							"type": "address"
						}
					],
					"name": "level0Balance",
					"outputs": [
						{
							"internalType": "uint256",
							"name": "balance",
							"type": "uint256"
						},
						{
							"internalType": "uint256",
							"name": "timeStarted",
							"type": "uint256"
						},
						{
							"internalType": "uint256",
							"name": "timeFinish",
							"type": "uint256"
						}
					],
					"stateMutability": "view",
					"type": "function"
				},
				{
					"inputs": [],
					"name": "level0Max",
					"outputs": [
						{
							"internalType": "uint256",
							"name": "",
							"type": "uint256"
						}
					],
					"stateMutability": "view",
					"type": "function"
				},
				{
					"inputs": [],
					"name": "level0Min",
					"outputs": [
						{
							"internalType": "uint256",
							"name": "",
							"type": "uint256"
						}
					],
					"stateMutability": "view",
					"type": "function"
				},
				{
					"inputs": [],
					"name": "level1APY",
					"outputs": [
						{
							"internalType": "uint256",
							"name": "",
							"type": "uint256"
						}
					],
					"stateMutability": "view",
					"type": "function"
				},
				{
					"inputs": [
						{
							"internalType": "address",
							"name": "",
							"type": "address"
						}
					],
					"name": "level1Balance",
					"outputs": [
						{
							"internalType": "uint256",
							"name": "balance",
							"type": "uint256"
						},
						{
							"internalType": "uint256",
							"name": "timeStarted",
							"type": "uint256"
						},
						{
							"internalType": "uint256",
							"name": "timeFinish",
							"type": "uint256"
						}
					],
					"stateMutability": "view",
					"type": "function"
				},
				{
					"inputs": [],
					"name": "level1Max",
					"outputs": [
						{
							"internalType": "uint256",
							"name": "",
							"type": "uint256"
						}
					],
					"stateMutability": "view",
					"type": "function"
				},
				{
					"inputs": [],
					"name": "level1Min",
					"outputs": [
						{
							"internalType": "uint256",
							"name": "",
							"type": "uint256"
						}
					],
					"stateMutability": "view",
					"type": "function"
				},
				{
					"inputs": [],
					"name": "levelVipMax",
					"outputs": [
						{
							"internalType": "uint256",
							"name": "",
							"type": "uint256"
						}
					],
					"stateMutability": "view",
					"type": "function"
				},
				{
					"inputs": [],
					"name": "levelVipMin",
					"outputs": [
						{
							"internalType": "uint256",
							"name": "",
							"type": "uint256"
						}
					],
					"stateMutability": "view",
					"type": "function"
				},
				{
					"inputs": [],
					"name": "owner",
					"outputs": [
						{
							"internalType": "address",
							"name": "",
							"type": "address"
						}
					],
					"stateMutability": "view",
					"type": "function"
				},
				{
					"inputs": [],
					"name": "pause",
					"outputs": [],
					"stateMutability": "nonpayable",
					"type": "function"
				},
				{
					"inputs": [],
					"name": "paused",
					"outputs": [
						{
							"internalType": "bool",
							"name": "",
							"type": "bool"
						}
					],
					"stateMutability": "view",
					"type": "function"
				},
				{
					"inputs": [],
					"name": "renounceOwnership",
					"outputs": [],
					"stateMutability": "nonpayable",
					"type": "function"
				},
				{
					"inputs": [],
					"name": "reserveWallet",
					"outputs": [
						{
							"internalType": "address",
							"name": "",
							"type": "address"
						}
					],
					"stateMutability": "view",
					"type": "function"
				},
				{
					"inputs": [
						{
							"internalType": "uint256",
							"name": "_level0APY",
							"type": "uint256"
						},
						{
							"internalType": "uint256",
							"name": "_level1APY",
							"type": "uint256"
						},
						{
							"internalType": "uint256",
							"name": "_vipLevelAPY",
							"type": "uint256"
						}
					],
					"name": "setNewAPY",
					"outputs": [],
					"stateMutability": "nonpayable",
					"type": "function"
				},
				{
					"inputs": [
						{
							"internalType": "uint256",
							"name": "_level0Min",
							"type": "uint256"
						},
						{
							"internalType": "uint256",
							"name": "_level0Max",
							"type": "uint256"
						},
						{
							"internalType": "uint256",
							"name": "_level1Min",
							"type": "uint256"
						},
						{
							"internalType": "uint256",
							"name": "_level1Max",
							"type": "uint256"
						},
						{
							"internalType": "uint256",
							"name": "_levelVipMin",
							"type": "uint256"
						},
						{
							"internalType": "uint256",
							"name": "_levelVipMax",
							"type": "uint256"
						}
					],
					"name": "setNewMaxMin",
					"outputs": [],
					"stateMutability": "nonpayable",
					"type": "function"
				},
				{
					"inputs": [
						{
							"internalType": "address",
							"name": "_reserveWallet",
							"type": "address"
						}
					],
					"name": "setReserveWallet",
					"outputs": [],
					"stateMutability": "nonpayable",
					"type": "function"
				},
				{
					"inputs": [
						{
							"internalType": "address",
							"name": "newOwner",
							"type": "address"
						}
					],
					"name": "transferOwnership",
					"outputs": [],
					"stateMutability": "nonpayable",
					"type": "function"
				},
				{
					"inputs": [],
					"name": "unpause",
					"outputs": [],
					"stateMutability": "nonpayable",
					"type": "function"
				},
				{
					"inputs": [
						{
							"internalType": "address",
							"name": "",
							"type": "address"
						}
					],
					"name": "vipBalance",
					"outputs": [
						{
							"internalType": "uint256",
							"name": "balance",
							"type": "uint256"
						},
						{
							"internalType": "uint256",
							"name": "timeStarted",
							"type": "uint256"
						},
						{
							"internalType": "uint256",
							"name": "timeFinish",
							"type": "uint256"
						}
					],
					"stateMutability": "view",
					"type": "function"
				},
				{
					"inputs": [],
					"name": "vipLevelAPY",
					"outputs": [
						{
							"internalType": "uint256",
							"name": "",
							"type": "uint256"
						}
					],
					"stateMutability": "view",
					"type": "function"
				},
				{
					"inputs": [
						{
							"internalType": "uint256",
							"name": "_amount",
							"type": "uint256"
						}
					],
					"name": "withdrawLevel0",
					"outputs": [],
					"stateMutability": "nonpayable",
					"type": "function"
				},
				{
					"inputs": [
						{
							"internalType": "uint256",
							"name": "_amount",
							"type": "uint256"
						}
					],
					"name": "withdrawLevel1",
					"outputs": [],
					"stateMutability": "nonpayable",
					"type": "function"
				},
				{
					"inputs": [
						{
							"internalType": "uint256",
							"name": "_amount",
							"type": "uint256"
						}
					],
					"name": "withdrawVip",
					"outputs": [],
					"stateMutability": "nonpayable",
					"type": "function"
				}
			],
			"devdoc": {
				"kind": "dev",
				"methods": {
					"enterLevel0(uint256)": {
						"details": "Join to a staking class. Requirements:   - User has not enter the staking class previously. "
					},
					"enterLevel1(uint256)": {
						"details": "Join to a staking class. Requirements:    - User has not enter the staking class previously.   "
					},
					"enterVip(uint256)": {
						"details": "Join to a staking class. Requirements: - _amount must be greather than enter fee. - User has not enter the staking class previously.    "
					},
					"getInterest(address,uint8,uint256)": {
						"details": "Get interest earned during the staking time. classes : 0 - level 0, 1 - level 1, 2 - Vip"
					},
					"isOnTime(address,uint8)": {
						"details": "Checks if the staking has reached the timeFinish limit. classes :0 - level 0, 1 - level 1, 2 - Vip"
					},
					"owner()": {
						"details": "Returns the address of the current owner."
					},
					"paused()": {
						"details": "Returns true if the contract is paused, and false otherwise."
					},
					"renounceOwnership()": {
						"details": "Leaves the contract without owner. It will not be possible to call `onlyOwner` functions anymore. Can only be called by the current owner. NOTE: Renouncing ownership will leave the contract without an owner, thereby removing any functionality that is only available to the owner."
					},
					"setNewAPY(uint256,uint256,uint256)": {
						"details": "Change APY for all categories.   "
					},
					"setNewMaxMin(uint256,uint256,uint256,uint256,uint256,uint256)": {
						"details": "Change max and min values for all categories.   "
					},
					"setReserveWallet(address)": {
						"details": "Change Reserve Wallet.   "
					},
					"transferOwnership(address)": {
						"details": "Transfers ownership of the contract to a new account (`newOwner`). Can only be called by the current owner."
					},
					"withdrawLevel0(uint256)": {
						"details": "Withdraw from a staking class. Requirements: - Msg.sender should have an active deposit in the class."
					},
					"withdrawLevel1(uint256)": {
						"details": "Withdraw from a staking class. Requirements: - Msg.sender should have an active deposit in the class."
					},
					"withdrawVip(uint256)": {
						"details": "Withdraw from a staking class. Requirements: - Msg.sender should have an active deposit in the class."
					}
				},
				"version": 1
			},
			"evm": {
				"assembly": "    /* \"staking.sol\":225:10700  contract SenseiStaking is Ownable, Pausable {... */\n  mstore(0x40, 0x80)\n    /* \"staking.sol\":557:561  2700 */\n  0x0a8c\n    /* \"staking.sol\":529:561  uint256 public level0APY =  2700 */\n  0x02\n  sstore\n    /* \"staking.sol\":594:598  3700 */\n  0x0e74\n    /* \"staking.sol\":567:598  uint256 public level1APY = 3700 */\n  0x03\n  sstore\n    /* \"staking.sol\":633:637  4800 */\n  0x12c0\n    /* \"staking.sol\":604:637  uint256 public vipLevelAPY = 4800 */\n  0x04\n  sstore\n    /* \"staking.sol\":705:716  50 * 10**18 */\n  0x02b5e3af16b1880000\n    /* \"staking.sol\":678:716  uint256 public level0Min = 50 * 10**18 */\n  0x05\n  sstore\n    /* \"staking.sol\":749:767  500000000 * 10**18 */\n  0x019d971e4fe8401e74000000\n    /* \"staking.sol\":722:767  uint256 public level0Max = 500000000 * 10**18 */\n  0x06\n  sstore\n    /* \"staking.sol\":800:812  100 * 10**18 */\n  0x056bc75e2d63100000\n    /* \"staking.sol\":773:812  uint256 public level1Min = 100 * 10**18 */\n  0x07\n  sstore\n    /* \"staking.sol\":845:863  500000000 * 10**18 */\n  0x019d971e4fe8401e74000000\n    /* \"staking.sol\":818:863  uint256 public level1Max = 500000000 * 10**18 */\n  0x08\n  sstore\n    /* \"staking.sol\":898:910  200 * 10**18 */\n  0x0ad78ebc5ac6200000\n    /* \"staking.sol\":869:910  uint256 public levelVipMin = 200 * 10**18 */\n  0x09\n  sstore\n    /* \"staking.sol\":945:964  2500000000 * 10**18 */\n  0x0813f3978f89409844000000\n    /* \"staking.sol\":916:964  uint256 public levelVipMax = 2500000000 * 10**18 */\n  0x0a\n  sstore\n    /* \"staking.sol\":1627:1774  constructor(address _token , address _reserveWallet) {... */\n  callvalue\n  dup1\n  iszero\n  tag_1\n  jumpi\n  0x00\n  dup1\n  revert\ntag_1:\n  pop\n  mload(0x40)\n  sub(codesize, bytecodeSize)\n  dup1\n  bytecodeSize\n  dup4\n  codecopy\n  dup2\n  add\n  0x40\n  dup2\n  swap1\n  mstore\n  tag_2\n  swap2\n  tag_3\n  jump\t// in\ntag_2:\n    /* \"@openzeppelin/contracts/access/Ownable.sol\":921:953  _transferOwnership(_msgSender()) */\n  tag_8\n    /* \"@openzeppelin/contracts/utils/Context.sol\":719:729  msg.sender */\n  caller\n    /* \"@openzeppelin/contracts/access/Ownable.sol\":921:939  _transferOwnership */\n  tag_11\n    /* \"@openzeppelin/contracts/access/Ownable.sol\":921:953  _transferOwnership(_msgSender()) */\n  jump\t// in\ntag_8:\n    /* \"@openzeppelin/contracts/security/Pausable.sol\":991:996  false */\n  0x00\n    /* \"@openzeppelin/contracts/security/Pausable.sol\":981:996  _paused = false */\n  dup1\n  sload\n  not(shl(0xa0, 0xff))\n  and\n  swap1\n  sstore\n  0x01\n    /* \"staking.sol\":1690:1720  acceptedToken = IERC20(_token) */\n  dup1\n  sload\n  sub(shl(0xa0, 0x01), 0x01)\n  swap4\n  dup5\n  and\n  not(sub(shl(0xa0, 0x01), 0x01))\n  swap2\n  dup3\n  and\n  or\n  swap1\n  swap2\n  sstore\n    /* \"staking.sol\":1730:1743  reserveWallet */\n  0x0b\n    /* \"staking.sol\":1730:1760  reserveWallet = _reserveWallet */\n  dup1\n  sload\n  swap3\n  swap1\n  swap4\n  and\n  swap2\n  and\n  or\n  swap1\n  sstore\n    /* \"staking.sol\":225:10700  contract SenseiStaking is Ownable, Pausable {... */\n  jump(tag_18)\n    /* \"@openzeppelin/contracts/access/Ownable.sol\":2270:2457  function _transferOwnership(address newOwner) internal virtual {... */\ntag_11:\n    /* \"@openzeppelin/contracts/access/Ownable.sol\":2343:2359  address oldOwner */\n  0x00\n    /* \"@openzeppelin/contracts/access/Ownable.sol\":2362:2368  _owner */\n  dup1\n  sload\n  sub(shl(0xa0, 0x01), 0x01)\n    /* \"@openzeppelin/contracts/access/Ownable.sol\":2378:2395  _owner = newOwner */\n  dup4\n  dup2\n  and\n  not(sub(shl(0xa0, 0x01), 0x01))\n  dup4\n  and\n  dup2\n  or\n  dup5\n  sstore\n    /* \"@openzeppelin/contracts/access/Ownable.sol\":2410:2450  OwnershipTransferred(oldOwner, newOwner) */\n  mload(0x40)\n    /* \"@openzeppelin/contracts/access/Ownable.sol\":2362:2368  _owner */\n  swap2\n  swap1\n  swap3\n  and\n  swap3\n  dup4\n  swap2\n    /* \"@openzeppelin/contracts/access/Ownable.sol\":2410:2450  OwnershipTransferred(oldOwner, newOwner) */\n  0x8be0079c531659141344cd1fd0a4f28419497f9722a3daafe3b4186f6b6457e0\n  swap2\n    /* \"@openzeppelin/contracts/access/Ownable.sol\":2343:2359  address oldOwner */\n  swap1\n    /* \"@openzeppelin/contracts/access/Ownable.sol\":2410:2450  OwnershipTransferred(oldOwner, newOwner) */\n  log3\n    /* \"@openzeppelin/contracts/access/Ownable.sol\":2333:2457  {... */\n  pop\n    /* \"@openzeppelin/contracts/access/Ownable.sol\":2270:2457  function _transferOwnership(address newOwner) internal virtual {... */\n  pop\n  jump\t// out\n    /* \"#utility.yul\":14:191   */\ntag_17:\n    /* \"#utility.yul\":93:106   */\n  dup1\n  mload\n  sub(shl(0xa0, 0x01), 0x01)\n    /* \"#utility.yul\":135:166   */\n  dup2\n  and\n    /* \"#utility.yul\":125:167   */\n  dup2\n  eq\n    /* \"#utility.yul\":115:185   */\n  tag_20\n  jumpi\n    /* \"#utility.yul\":181:182   */\n  0x00\n    /* \"#utility.yul\":178:179   */\n  dup1\n    /* \"#utility.yul\":171:183   */\n  revert\n    /* \"#utility.yul\":115:185   */\ntag_20:\n    /* \"#utility.yul\":14:191   */\n  swap2\n  swap1\n  pop\n  jump\t// out\n    /* \"#utility.yul\":196:489   */\ntag_3:\n    /* \"#utility.yul\":275:281   */\n  0x00\n    /* \"#utility.yul\":283:289   */\n  dup1\n    /* \"#utility.yul\":336:338   */\n  0x40\n    /* \"#utility.yul\":324:333   */\n  dup4\n    /* \"#utility.yul\":315:322   */\n  dup6\n    /* \"#utility.yul\":311:334   */\n  sub\n    /* \"#utility.yul\":307:339   */\n  slt\n    /* \"#utility.yul\":304:356   */\n  iszero\n  tag_22\n  jumpi\n    /* \"#utility.yul\":352:353   */\n  0x00\n    /* \"#utility.yul\":349:350   */\n  dup1\n    /* \"#utility.yul\":342:354   */\n  revert\n    /* \"#utility.yul\":304:356   */\ntag_22:\n    /* \"#utility.yul\":375:415   */\n  tag_23\n    /* \"#utility.yul\":405:414   */\n  dup4\n    /* \"#utility.yul\":375:415   */\n  tag_17\n  jump\t// in\ntag_23:\n    /* \"#utility.yul\":365:415   */\n  swap2\n  pop\n    /* \"#utility.yul\":434:483   */\n  tag_24\n    /* \"#utility.yul\":479:481   */\n  0x20\n    /* \"#utility.yul\":468:477   */\n  dup5\n    /* \"#utility.yul\":464:482   */\n  add\n    /* \"#utility.yul\":434:483   */\n  tag_17\n  jump\t// in\ntag_24:\n    /* \"#utility.yul\":424:483   */\n  swap1\n  pop\n    /* \"#utility.yul\":196:489   */\n  swap3\n  pop\n  swap3\n  swap1\n  pop\n  jump\t// out\ntag_18:\n    /* \"staking.sol\":225:10700  contract SenseiStaking is Ownable, Pausable {... */\n  dataSize(sub_0)\n  dup1\n  dataOffset(sub_0)\n  0x00\n  codecopy\n  0x00\n  return\nstop\n\nsub_0: assembly {\n        /* \"staking.sol\":225:10700  contract SenseiStaking is Ownable, Pausable {... */\n      mstore(0x40, 0x80)\n      callvalue\n      dup1\n      iszero\n      tag_1\n      jumpi\n      0x00\n      dup1\n      revert\n    tag_1:\n      pop\n      jumpi(tag_2, lt(calldatasize, 0x04))\n      shr(0xe0, calldataload(0x00))\n      dup1\n      0x84203f4b\n      gt\n      tag_37\n      jumpi\n      dup1\n      0xbf01651a\n      gt\n      tag_38\n      jumpi\n      dup1\n      0xe5d15701\n      gt\n      tag_39\n      jumpi\n      dup1\n      0xe5d15701\n      eq\n      tag_32\n      jumpi\n      dup1\n      0xf2fde38b\n      eq\n      tag_33\n      jumpi\n      dup1\n      0xf4217e1e\n      eq\n      tag_34\n      jumpi\n      dup1\n      0xf7edf9ab\n      eq\n      tag_35\n      jumpi\n      dup1\n      0xfe2981b5\n      eq\n      tag_36\n      jumpi\n      0x00\n      dup1\n      revert\n    tag_39:\n      dup1\n      0xbf01651a\n      eq\n      tag_28\n      jumpi\n      dup1\n      0xd3900a52\n      eq\n      tag_29\n      jumpi\n      dup1\n      0xd72b11bd\n      eq\n      tag_30\n      jumpi\n      dup1\n      0xdda4fa8f\n      eq\n      tag_31\n      jumpi\n      0x00\n      dup1\n      revert\n    tag_38:\n      dup1\n      0x91789cef\n      gt\n      tag_40\n      jumpi\n      dup1\n      0x91789cef\n      eq\n      tag_24\n      jumpi\n      dup1\n      0x927e5998\n      eq\n      tag_25\n      jumpi\n      dup1\n      0x97e9c5fe\n      eq\n      tag_26\n      jumpi\n      dup1\n      0xbb664864\n      eq\n      tag_27\n      jumpi\n      0x00\n      dup1\n      revert\n    tag_40:\n      dup1\n      0x84203f4b\n      eq\n      tag_20\n      jumpi\n      dup1\n      0x8456cb59\n      eq\n      tag_21\n      jumpi\n      dup1\n      0x8da5cb5b\n      eq\n      tag_22\n      jumpi\n      dup1\n      0x8f0fb2b7\n      eq\n      tag_23\n      jumpi\n      0x00\n      dup1\n      revert\n    tag_37:\n      dup1\n      0x635ef285\n      gt\n      tag_41\n      jumpi\n      dup1\n      0x69e06848\n      gt\n      tag_42\n      jumpi\n      dup1\n      0x69e06848\n      eq\n      tag_15\n      jumpi\n      dup1\n      0x715018a6\n      eq\n      tag_16\n      jumpi\n      dup1\n      0x71a1609b\n      eq\n      tag_17\n      jumpi\n      dup1\n      0x7fe509d7\n      eq\n      tag_18\n      jumpi\n      dup1\n      0x8275b181\n      eq\n      tag_19\n      jumpi\n      0x00\n      dup1\n      revert\n    tag_42:\n      dup1\n      0x635ef285\n      eq\n      tag_11\n      jumpi\n      dup1\n      0x6505cf31\n      eq\n      tag_12\n      jumpi\n      dup1\n      0x6636389e\n      eq\n      tag_13\n      jumpi\n      dup1\n      0x67911ba4\n      eq\n      tag_14\n      jumpi\n      0x00\n      dup1\n      revert\n    tag_41:\n      dup1\n      0x3f4ba83a\n      gt\n      tag_43\n      jumpi\n      dup1\n      0x3f4ba83a\n      eq\n      tag_7\n      jumpi\n      dup1\n      0x451c3d80\n      eq\n      tag_8\n      jumpi\n      dup1\n      0x5c975abb\n      eq\n      tag_9\n      jumpi\n      dup1\n      0x6296e750\n      eq\n      tag_10\n      jumpi\n      0x00\n      dup1\n      revert\n    tag_43:\n      dup1\n      0x01ef4739\n      eq\n      tag_3\n      jumpi\n      dup1\n      0x1ed81ff8\n      eq\n      tag_4\n      jumpi\n      dup1\n      0x1ff08fee\n      eq\n      tag_5\n      jumpi\n      dup1\n      0x32938e3a\n      eq\n      tag_6\n      jumpi\n    tag_2:\n      0x00\n      dup1\n      revert\n        /* \"staking.sol\":773:812  uint256 public level1Min = 100 * 10**18 */\n    tag_3:\n      tag_44\n      sload(0x07)\n      dup2\n      jump\n    tag_44:\n      mload(0x40)\n        /* \"#utility.yul\":160:185   */\n      swap1\n      dup2\n      mstore\n        /* \"#utility.yul\":148:150   */\n      0x20\n        /* \"#utility.yul\":133:151   */\n      add\n        /* \"staking.sol\":773:812  uint256 public level1Min = 100 * 10**18 */\n    tag_46:\n      mload(0x40)\n      dup1\n      swap2\n      sub\n      swap1\n      return\n        /* \"staking.sol\":3873:4567  function enterLevel1 (uint256 _amount) public whenNotPaused {... */\n    tag_4:\n      tag_48\n      tag_49\n      calldatasize\n      0x04\n      tag_50\n      jump\t// in\n    tag_49:\n      tag_51\n      jump\t// in\n    tag_48:\n      stop\n        /* \"staking.sol\":567:598  uint256 public level1APY = 3700 */\n    tag_5:\n      tag_44\n      sload(0x03)\n      dup2\n      jump\n        /* \"staking.sol\":604:637  uint256 public vipLevelAPY = 4800 */\n    tag_6:\n      tag_44\n      sload(0x04)\n      dup2\n      jump\n        /* \"staking.sol\":1895:1959  function unpause () public onlyOwner {... */\n    tag_7:\n      tag_48\n      tag_59\n      jump\t// in\n        /* \"staking.sol\":320:347  IERC20 public acceptedToken */\n    tag_8:\n      sload(0x01)\n      tag_60\n      swap1\n      sub(shl(0xa0, 0x01), 0x01)\n      and\n      dup2\n      jump\n    tag_60:\n      mload(0x40)\n      sub(shl(0xa0, 0x01), 0x01)\n        /* \"#utility.yul\":559:591   */\n      swap1\n      swap2\n      and\n        /* \"#utility.yul\":541:592   */\n      dup2\n      mstore\n        /* \"#utility.yul\":529:531   */\n      0x20\n        /* \"#utility.yul\":514:532   */\n      add\n        /* \"staking.sol\":320:347  IERC20 public acceptedToken */\n      tag_46\n        /* \"#utility.yul\":381:598   */\n      jump\n        /* \"@openzeppelin/contracts/security/Pausable.sol\":1098:1182  function paused() public view virtual returns (bool) {... */\n    tag_9:\n        /* \"@openzeppelin/contracts/security/Pausable.sol\":1145:1149  bool */\n      0x00\n        /* \"@openzeppelin/contracts/security/Pausable.sol\":1168:1175  _paused */\n      sload\n      shl(0xa0, 0x01)\n      swap1\n      div\n      0xff\n      and\n        /* \"@openzeppelin/contracts/security/Pausable.sol\":1098:1182  function paused() public view virtual returns (bool) {... */\n    tag_64:\n      mload(0x40)\n        /* \"#utility.yul\":768:782   */\n      swap1\n      iszero\n        /* \"#utility.yul\":761:783   */\n      iszero\n        /* \"#utility.yul\":743:784   */\n      dup2\n      mstore\n        /* \"#utility.yul\":731:733   */\n      0x20\n        /* \"#utility.yul\":716:734   */\n      add\n        /* \"@openzeppelin/contracts/security/Pausable.sol\":1098:1182  function paused() public view virtual returns (bool) {... */\n      tag_46\n        /* \"#utility.yul\":603:790   */\n      jump\n        /* \"staking.sol\":1084:1125  mapping (address => bool) public isLevel0 */\n    tag_10:\n      tag_64\n      tag_69\n      calldatasize\n      0x04\n      tag_70\n      jump\t// in\n    tag_69:\n      mstore(0x20, 0x0c)\n      0x00\n      swap1\n      dup2\n      mstore\n      0x40\n      swap1\n      keccak256\n      sload\n      0xff\n      and\n      dup2\n      jump\n        /* \"staking.sol\":1184:1225  mapping (address => bool) public isLevel1 */\n    tag_11:\n      tag_64\n      tag_74\n      calldatasize\n      0x04\n      tag_70\n      jump\t// in\n    tag_74:\n      mstore(0x20, 0x0e)\n      0x00\n      swap1\n      dup2\n      mstore\n      0x40\n      swap1\n      keccak256\n      sload\n      0xff\n      and\n      dup2\n      jump\n        /* \"staking.sol\":678:716  uint256 public level0Min = 50 * 10**18 */\n    tag_12:\n      tag_44\n      sload(0x05)\n      dup2\n      jump\n        /* \"staking.sol\":9736:10696  function withdrawVip (uint256 _amount) public  {... */\n    tag_13:\n      tag_48\n      tag_81\n      calldatasize\n      0x04\n      tag_50\n      jump\t// in\n    tag_81:\n      tag_82\n      jump\t// in\n        /* \"staking.sol\":1131:1178  mapping (address => _user) public level0Balance */\n    tag_14:\n      tag_83\n      tag_84\n      calldatasize\n      0x04\n      tag_70\n      jump\t// in\n    tag_84:\n      mstore(0x20, 0x0d)\n      0x00\n      swap1\n      dup2\n      mstore\n      0x40\n      swap1\n      keccak256\n      dup1\n      sload\n      0x01\n      dup3\n      add\n      sload\n      0x02\n      swap1\n      swap3\n      add\n      sload\n      swap1\n      swap2\n      swap1\n      dup4\n      jump\n    tag_83:\n      0x40\n      dup1\n      mload\n        /* \"#utility.yul\":1366:1391   */\n      swap4\n      dup5\n      mstore\n        /* \"#utility.yul\":1422:1424   */\n      0x20\n        /* \"#utility.yul\":1407:1425   */\n      dup5\n      add\n        /* \"#utility.yul\":1400:1434   */\n      swap3\n      swap1\n      swap3\n      mstore\n        /* \"#utility.yul\":1450:1468   */\n      swap1\n      dup3\n      add\n        /* \"#utility.yul\":1443:1477   */\n      mstore\n        /* \"#utility.yul\":1354:1356   */\n      0x60\n        /* \"#utility.yul\":1339:1357   */\n      add\n        /* \"staking.sol\":1131:1178  mapping (address => _user) public level0Balance */\n      tag_46\n        /* \"#utility.yul\":1164:1483   */\n      jump\n        /* \"staking.sol\":6244:6930  function getInterest (address user, uint8 class, uint256 balance) public view returns (uint256){... */\n    tag_15:\n      tag_44\n      tag_89\n      calldatasize\n      0x04\n      tag_90\n      jump\t// in\n    tag_89:\n      tag_91\n      jump\t// in\n        /* \"@openzeppelin/contracts/access/Ownable.sol\":1668:1769  function renounceOwnership() public virtual onlyOwner {... */\n    tag_16:\n      tag_48\n      tag_94\n      jump\t// in\n        /* \"staking.sol\":722:767  uint256 public level0Max = 500000000 * 10**18 */\n    tag_17:\n      tag_44\n      sload(0x06)\n      dup2\n      jump\n        /* \"staking.sol\":1231:1278  mapping (address => _user) public level1Balance */\n    tag_18:\n      tag_83\n      tag_99\n      calldatasize\n      0x04\n      tag_70\n      jump\t// in\n    tag_99:\n      mstore(0x20, 0x0f)\n      0x00\n      swap1\n      dup2\n      mstore\n      0x40\n      swap1\n      keccak256\n      dup1\n      sload\n      0x01\n      dup3\n      add\n      sload\n      0x02\n      swap1\n      swap3\n      add\n      sload\n      swap1\n      swap2\n      swap1\n      dup4\n      jump\n        /* \"staking.sol\":529:561  uint256 public level0APY =  2700 */\n    tag_19:\n      tag_44\n      sload(0x02)\n      dup2\n      jump\n        /* \"staking.sol\":1284:1322  mapping (address => bool) public isVip */\n    tag_20:\n      tag_64\n      tag_106\n      calldatasize\n      0x04\n      tag_70\n      jump\t// in\n    tag_106:\n      mstore(0x20, 0x10)\n      0x00\n      swap1\n      dup2\n      mstore\n      0x40\n      swap1\n      keccak256\n      sload\n      0xff\n      and\n      dup2\n      jump\n        /* \"staking.sol\":1825:1885  function pause () public onlyOwner {... */\n    tag_21:\n      tag_48\n      tag_110\n      jump\t// in\n        /* \"@openzeppelin/contracts/access/Ownable.sol\":1036:1121  function owner() public view virtual returns (address) {... */\n    tag_22:\n        /* \"@openzeppelin/contracts/access/Ownable.sol\":1082:1089  address */\n      0x00\n        /* \"@openzeppelin/contracts/access/Ownable.sol\":1108:1114  _owner */\n      sload\n      sub(shl(0xa0, 0x01), 0x01)\n      and\n        /* \"@openzeppelin/contracts/access/Ownable.sol\":1036:1121  function owner() public view virtual returns (address) {... */\n      jump(tag_60)\n        /* \"staking.sol\":916:964  uint256 public levelVipMax = 2500000000 * 10**18 */\n    tag_23:\n      tag_44\n      sload(0x0a)\n      dup2\n      jump\n        /* \"staking.sol\":869:910  uint256 public levelVipMin = 200 * 10**18 */\n    tag_24:\n      tag_44\n      sload(0x09)\n      dup2\n      jump\n        /* \"staking.sol\":7458:8440  function withdrawLevel0 (uint256 _amount) public  {... */\n    tag_25:\n      tag_48\n      tag_122\n      calldatasize\n      0x04\n      tag_50\n      jump\t// in\n    tag_122:\n      tag_123\n      jump\t// in\n        /* \"staking.sol\":1328:1372  mapping (address => _user) public vipBalance */\n    tag_26:\n      tag_83\n      tag_125\n      calldatasize\n      0x04\n      tag_70\n      jump\t// in\n    tag_125:\n      mstore(0x20, 0x11)\n      0x00\n      swap1\n      dup2\n      mstore\n      0x40\n      swap1\n      keccak256\n      dup1\n      sload\n      0x01\n      dup3\n      add\n      sload\n      0x02\n      swap1\n      swap3\n      add\n      sload\n      swap1\n      swap2\n      swap1\n      dup4\n      jump\n        /* \"staking.sol\":8598:9578  function withdrawLevel1 (uint256 _amount) public  {... */\n    tag_27:\n      tag_48\n      tag_129\n      calldatasize\n      0x04\n      tag_50\n      jump\t// in\n    tag_129:\n      tag_130\n      jump\t// in\n        /* \"staking.sol\":4766:5465  function enterVip (uint256 _amount) public whenNotPaused {... */\n    tag_28:\n      tag_48\n      tag_132\n      calldatasize\n      0x04\n      tag_50\n      jump\t// in\n    tag_132:\n      tag_133\n      jump\t// in\n        /* \"staking.sol\":818:863  uint256 public level1Max = 500000000 * 10**18 */\n    tag_29:\n      tag_44\n      sload(0x08)\n      dup2\n      jump\n        /* \"staking.sol\":997:1025  address public reserveWallet */\n    tag_30:\n      sload(0x0b)\n      tag_60\n      swap1\n      sub(shl(0xa0, 0x01), 0x01)\n      and\n      dup2\n      jump\n        /* \"staking.sol\":2019:2138  function setReserveWallet (address _reserveWallet) external onlyOwner{... */\n    tag_31:\n      tag_48\n      tag_141\n      calldatasize\n      0x04\n      tag_70\n      jump\t// in\n    tag_141:\n      tag_142\n      jump\t// in\n        /* \"staking.sol\":2205:2413  function setNewAPY ( uint256 _level0APY, uint256 _level1APY, uint256 _vipLevelAPY) external onlyOwner{... */\n    tag_32:\n      tag_48\n      tag_144\n      calldatasize\n      0x04\n      tag_145\n      jump\t// in\n    tag_144:\n      tag_146\n      jump\t// in\n        /* \"@openzeppelin/contracts/access/Ownable.sol\":1918:2116  function transferOwnership(address newOwner) public virtual onlyOwner {... */\n    tag_33:\n      tag_48\n      tag_148\n      calldatasize\n      0x04\n      tag_70\n      jump\t// in\n    tag_148:\n      tag_149\n      jump\t// in\n        /* \"staking.sol\":2495:2867  function setNewMaxMin (uint256 _level0Min, uint256 _level0Max, uint256 _level1Min, uint256 _level1Max, uint256 _levelVipMin, uint256 _levelVipMax) external onlyOwner{... */\n    tag_34:\n      tag_48\n      tag_151\n      calldatasize\n      0x04\n      tag_152\n      jump\t// in\n    tag_151:\n      tag_153\n      jump\t// in\n        /* \"staking.sol\":5610:6109  function isOnTime (address user, uint8 class) public view returns (bool) {... */\n    tag_35:\n      tag_64\n      tag_155\n      calldatasize\n      0x04\n      tag_156\n      jump\t// in\n    tag_155:\n      tag_157\n      jump\t// in\n        /* \"staking.sol\":3016:3717  function enterLevel0 (uint256 _amount) public whenNotPaused {... */\n    tag_36:\n      tag_48\n      tag_160\n      calldatasize\n      0x04\n      tag_50\n      jump\t// in\n    tag_160:\n      tag_161\n      jump\t// in\n        /* \"staking.sol\":3873:4567  function enterLevel1 (uint256 _amount) public whenNotPaused {... */\n    tag_51:\n        /* \"@openzeppelin/contracts/security/Pausable.sol\":1145:1149  bool */\n      0x00\n        /* \"@openzeppelin/contracts/security/Pausable.sol\":1168:1175  _paused */\n      sload\n      shl(0xa0, 0x01)\n      swap1\n      div\n      0xff\n      and\n        /* \"@openzeppelin/contracts/security/Pausable.sol\":1411:1420  !paused() */\n      iszero\n        /* \"@openzeppelin/contracts/security/Pausable.sol\":1403:1441  require(!paused(), \"Pausable: paused\") */\n      tag_164\n      jumpi\n      mload(0x40)\n      shl(0xe5, 0x461bcd)\n      dup2\n      mstore\n      0x04\n      add\n      tag_165\n      swap1\n      tag_166\n      jump\t// in\n    tag_165:\n      mload(0x40)\n      dup1\n      swap2\n      sub\n      swap1\n      revert\n    tag_164:\n        /* \"staking.sol\":3962:3971  level1Max */\n      sload(0x08)\n        /* \"staking.sol\":3951:3958  _amount */\n      dup2\n        /* \"staking.sol\":3951:3971  _amount <= level1Max */\n      gt\n      iszero\n        /* \"staking.sol\":3951:3995  _amount <= level1Max && _amount >= level1Min */\n      dup1\n      iszero\n      tag_168\n      jumpi\n      pop\n        /* \"staking.sol\":3986:3995  level1Min */\n      sload(0x07)\n        /* \"staking.sol\":3975:3982  _amount */\n      dup2\n        /* \"staking.sol\":3975:3995  _amount >= level1Min */\n      lt\n      iszero\n        /* \"staking.sol\":3951:3995  _amount <= level1Max && _amount >= level1Min */\n    tag_168:\n        /* \"staking.sol\":3943:4050  require(_amount <= level1Max && _amount >= level1Min, \"Amount needs to be more than min and less than max\") */\n      tag_169\n      jumpi\n      mload(0x40)\n      shl(0xe5, 0x461bcd)\n      dup2\n      mstore\n      0x04\n      add\n      tag_165\n      swap1\n      tag_171\n      jump\t// in\n    tag_169:\n        /* \"staking.sol\":4081:4091  msg.sender */\n      caller\n        /* \"staking.sol\":4060:4078  address _msgSender */\n      0x00\n        /* \"staking.sol\":4112:4132  isLevel1[_msgSender] */\n      dup2\n      dup2\n      mstore\n        /* \"staking.sol\":4112:4120  isLevel1 */\n      0x0e\n        /* \"staking.sol\":4112:4132  isLevel1[_msgSender] */\n      0x20\n      mstore\n      0x40\n      swap1\n      keccak256\n      sload\n      0xff\n      and\n        /* \"staking.sol\":4111:4132  !isLevel1[_msgSender] */\n      iszero\n        /* \"staking.sol\":4103:4171  require(!isLevel1[_msgSender], \"You're already in this Stake level\") */\n      tag_172\n      jumpi\n      mload(0x40)\n      shl(0xe5, 0x461bcd)\n      dup2\n      mstore\n      0x04\n      add\n      tag_165\n      swap1\n      tag_174\n      jump\t// in\n    tag_172:\n        /* \"staking.sol\":4188:4201  acceptedToken */\n      sload(0x01)\n        /* \"staking.sol\":4188:4250  acceptedToken.transferFrom(_msgSender, address(this), _amount) */\n      mload(0x40)\n      shl(0xe0, 0x23b872dd)\n      dup2\n      mstore\n      sub(shl(0xa0, 0x01), 0x01)\n        /* \"staking.sol\":4188:4201  acceptedToken */\n      swap1\n      swap2\n      and\n      swap1\n        /* \"staking.sol\":4188:4214  acceptedToken.transferFrom */\n      0x23b872dd\n      swap1\n        /* \"staking.sol\":4188:4250  acceptedToken.transferFrom(_msgSender, address(this), _amount) */\n      tag_175\n      swap1\n        /* \"staking.sol\":4215:4225  _msgSender */\n      dup5\n      swap1\n        /* \"staking.sol\":4235:4239  this */\n      address\n      swap1\n        /* \"staking.sol\":4242:4249  _amount */\n      dup8\n      swap1\n        /* \"staking.sol\":4188:4250  acceptedToken.transferFrom(_msgSender, address(this), _amount) */\n      0x04\n      add\n      tag_176\n      jump\t// in\n    tag_175:\n      0x20\n      mload(0x40)\n      dup1\n      dup4\n      sub\n      dup2\n      0x00\n      dup8\n      gas\n      call\n      iszero\n      dup1\n      iszero\n      tag_178\n      jumpi\n      returndatasize\n      0x00\n      dup1\n      returndatacopy\n      revert(0x00, returndatasize)\n    tag_178:\n      pop\n      pop\n      pop\n      pop\n      mload(0x40)\n      returndatasize\n      not(0x1f)\n      0x1f\n      dup3\n      add\n      and\n      dup3\n      add\n      dup1\n      0x40\n      mstore\n      pop\n      dup2\n      add\n      swap1\n      tag_179\n      swap2\n      swap1\n      tag_180\n      jump\t// in\n    tag_179:\n      pop\n      sub(shl(0xa0, 0x01), 0x01)\n        /* \"staking.sol\":4261:4281  isLevel1[_msgSender] */\n      dup2\n      and\n      0x00\n      swap1\n      dup2\n      mstore\n        /* \"staking.sol\":4261:4269  isLevel1 */\n      0x0e\n        /* \"staking.sol\":4261:4281  isLevel1[_msgSender] */\n      0x20\n      swap1\n      dup2\n      mstore\n      0x40\n      swap2\n      dup3\n      swap1\n      keccak256\n        /* \"staking.sol\":4261:4288  isLevel1[_msgSender] = true */\n      dup1\n      sload\n      not(0xff)\n      and\n        /* \"staking.sol\":4284:4288  true */\n      0x01\n        /* \"staking.sol\":4261:4288  isLevel1[_msgSender] = true */\n      or\n      swap1\n      sstore\n        /* \"staking.sol\":4326:4464  _user ({... */\n      dup2\n      mload\n      0x60\n      dup2\n      add\n      dup4\n      mstore\n      dup5\n      dup2\n      mstore\n        /* \"staking.sol\":4388:4403  block.timestamp */\n      timestamp\n        /* \"staking.sol\":4326:4464  _user ({... */\n      swap2\n      dup2\n      add\n      dup3\n      swap1\n      mstore\n      swap2\n      dup3\n      add\n      swap1\n        /* \"staking.sol\":4428:4453  block.timestamp + 30 days */\n      tag_181\n      swap1\n        /* \"staking.sol\":4446:4453  30 days */\n      0x278d00\n        /* \"staking.sol\":4428:4453  block.timestamp + 30 days */\n      tag_182\n      jump\t// in\n    tag_181:\n        /* \"staking.sol\":4326:4464  _user ({... */\n      swap1\n      mstore\n      sub(shl(0xa0, 0x01), 0x01)\n        /* \"staking.sol\":4298:4323  level1Balance[_msgSender] */\n      dup3\n      and\n      0x00\n      swap1\n      dup2\n      mstore\n        /* \"staking.sol\":4298:4311  level1Balance */\n      0x0f\n        /* \"staking.sol\":4298:4323  level1Balance[_msgSender] */\n      0x20\n      swap1\n      dup2\n      mstore\n      0x40\n      swap2\n      dup3\n      swap1\n      keccak256\n        /* \"staking.sol\":4298:4464  level1Balance[_msgSender] = _user ({... */\n      dup4\n      mload\n      dup2\n      sstore\n      swap1\n      dup4\n      add\n      mload\n      0x01\n      dup1\n      dup4\n      add\n      swap2\n      swap1\n      swap2\n      sstore\n      swap3\n      swap1\n      swap2\n      add\n      mload\n      0x02\n      swap1\n      swap2\n      add\n      sstore\n        /* \"staking.sol\":4484:4560  deposit (_msgSender, 1, _amount, block.timestamp, block.timestamp + 30 days) */\n      0x17849bb8c713de96b48f218d3bacc9af082261c3ccc7c6dccebe70e667b22f23\n      swap1\n        /* \"staking.sol\":4312:4322  _msgSender */\n      dup3\n      swap1\n        /* \"staking.sol\":4508:4515  _amount */\n      dup5\n        /* \"staking.sol\":4517:4532  block.timestamp */\n      timestamp\n        /* \"staking.sol\":4534:4559  block.timestamp + 30 days */\n      tag_183\n        /* \"staking.sol\":4517:4532  block.timestamp */\n      dup2\n        /* \"staking.sol\":4552:4559  30 days */\n      0x278d00\n        /* \"staking.sol\":4534:4559  block.timestamp + 30 days */\n      tag_182\n      jump\t// in\n    tag_183:\n        /* \"staking.sol\":4484:4560  deposit (_msgSender, 1, _amount, block.timestamp, block.timestamp + 30 days) */\n      0x40\n      dup1\n      mload\n      sub(shl(0xa0, 0x01), 0x01)\n        /* \"#utility.yul\":5673:5705   */\n      swap1\n      swap7\n      and\n        /* \"#utility.yul\":5655:5706   */\n      dup7\n      mstore\n        /* \"#utility.yul\":5754:5758   */\n      0xff\n        /* \"#utility.yul\":5742:5759   */\n      swap1\n      swap5\n      and\n        /* \"#utility.yul\":5737:5739   */\n      0x20\n        /* \"#utility.yul\":5722:5740   */\n      dup7\n      add\n        /* \"#utility.yul\":5715:5760   */\n      mstore\n        /* \"#utility.yul\":5776:5794   */\n      swap3\n      dup5\n      add\n        /* \"#utility.yul\":5769:5803   */\n      swap2\n      swap1\n      swap2\n      mstore\n        /* \"#utility.yul\":5834:5836   */\n      0x60\n        /* \"#utility.yul\":5819:5837   */\n      dup4\n      add\n        /* \"#utility.yul\":5812:5846   */\n      mstore\n        /* \"#utility.yul\":5877:5880   */\n      0x80\n        /* \"#utility.yul\":5862:5881   */\n      dup3\n      add\n        /* \"#utility.yul\":5855:5890   */\n      mstore\n        /* \"#utility.yul\":5642:5645   */\n      0xa0\n        /* \"#utility.yul\":5627:5646   */\n      add\n        /* \"staking.sol\":4484:4560  deposit (_msgSender, 1, _amount, block.timestamp, block.timestamp + 30 days) */\n      mload(0x40)\n      dup1\n      swap2\n      sub\n      swap1\n      log1\n        /* \"staking.sol\":3933:4567  {... */\n      pop\n        /* \"staking.sol\":3873:4567  function enterLevel1 (uint256 _amount) public whenNotPaused {... */\n      pop\n      jump\t// out\n        /* \"staking.sol\":1895:1959  function unpause () public onlyOwner {... */\n    tag_59:\n        /* \"@openzeppelin/contracts/access/Ownable.sol\":1082:1089  address */\n      0x00\n        /* \"@openzeppelin/contracts/access/Ownable.sol\":1108:1114  _owner */\n      sload\n      sub(shl(0xa0, 0x01), 0x01)\n      and\n        /* \"@openzeppelin/contracts/utils/Context.sol\":719:729  msg.sender */\n      caller\n        /* \"@openzeppelin/contracts/access/Ownable.sol\":1248:1271  owner() == _msgSender() */\n      eq\n        /* \"@openzeppelin/contracts/access/Ownable.sol\":1240:1308  require(owner() == _msgSender(), \"Ownable: caller is not the owner\") */\n      tag_190\n      jumpi\n      mload(0x40)\n      shl(0xe5, 0x461bcd)\n      dup2\n      mstore\n      0x04\n      add\n      tag_165\n      swap1\n      tag_192\n      jump\t// in\n    tag_190:\n        /* \"staking.sol\":1942:1952  _unpause() */\n      tag_194\n        /* \"staking.sol\":1942:1950  _unpause */\n      tag_195\n        /* \"staking.sol\":1942:1952  _unpause() */\n      jump\t// in\n    tag_194:\n        /* \"staking.sol\":1895:1959  function unpause () public onlyOwner {... */\n      jump\t// out\n        /* \"staking.sol\":9736:10696  function withdrawVip (uint256 _amount) public  {... */\n    tag_82:\n        /* \"staking.sol\":9814:9824  msg.sender */\n      caller\n        /* \"staking.sol\":9793:9811  address _msgSender */\n      0x00\n        /* \"staking.sol\":9842:9859  isVip[_msgSender] */\n      dup2\n      dup2\n      mstore\n        /* \"staking.sol\":9842:9847  isVip */\n      0x10\n        /* \"staking.sol\":9842:9859  isVip[_msgSender] */\n      0x20\n      mstore\n      0x40\n      swap1\n      keccak256\n      sload\n      0xff\n      and\n        /* \"staking.sol\":9834:9879  require(isVip[_msgSender], \"User is not Vip\") */\n      tag_198\n      jumpi\n      mload(0x40)\n      shl(0xe5, 0x461bcd)\n      dup2\n      mstore\n        /* \"#utility.yul\":6464:6466   */\n      0x20\n        /* \"staking.sol\":9834:9879  require(isVip[_msgSender], \"User is not Vip\") */\n      0x04\n      dup3\n      add\n        /* \"#utility.yul\":6446:6467   */\n      mstore\n        /* \"#utility.yul\":6503:6505   */\n      0x0f\n        /* \"#utility.yul\":6483:6501   */\n      0x24\n      dup3\n      add\n        /* \"#utility.yul\":6476:6506   */\n      mstore\n      shl(0x8c, 0x055736572206973206e6f742056697)\n        /* \"#utility.yul\":6522:6540   */\n      0x44\n      dup3\n      add\n        /* \"#utility.yul\":6515:6560   */\n      mstore\n        /* \"#utility.yul\":6577:6595   */\n      0x64\n      add\n        /* \"staking.sol\":9834:9879  require(isVip[_msgSender], \"User is not Vip\") */\n      tag_165\n        /* \"#utility.yul\":6262:6601   */\n      jump\n        /* \"staking.sol\":9834:9879  require(isVip[_msgSender], \"User is not Vip\") */\n    tag_198:\n      sub(shl(0xa0, 0x01), 0x01)\n        /* \"staking.sol\":9912:9934  vipBalance[_msgSender] */\n      dup2\n      and\n        /* \"staking.sol\":9894:9909  uint256 balance */\n      0x00\n        /* \"staking.sol\":9912:9934  vipBalance[_msgSender] */\n      swap1\n      dup2\n      mstore\n        /* \"staking.sol\":9912:9922  vipBalance */\n      0x11\n        /* \"staking.sol\":9912:9934  vipBalance[_msgSender] */\n      0x20\n      mstore\n      0x40\n      swap1\n      keccak256\n        /* \"staking.sol\":9912:9942  vipBalance[_msgSender].balance */\n      sload\n        /* \"staking.sol\":9960:9978  balance >= _amount */\n      dup3\n      dup2\n      lt\n      iszero\n        /* \"staking.sol\":9952:10013  require(balance >= _amount, \"Not enough balance to withdraw\") */\n      tag_201\n      jumpi\n      mload(0x40)\n      shl(0xe5, 0x461bcd)\n      dup2\n      mstore\n      0x04\n      add\n      tag_165\n      swap1\n      tag_203\n      jump\t// in\n    tag_201:\n        /* \"staking.sol\":10024:10038  bool _isOnTime */\n      0x00\n        /* \"staking.sol\":10041:10064  isOnTime(_msgSender, 2) */\n      tag_204\n        /* \"staking.sol\":10050:10060  _msgSender */\n      dup4\n        /* \"staking.sol\":10062:10063  2 */\n      0x02\n        /* \"staking.sol\":10041:10049  isOnTime */\n      tag_157\n        /* \"staking.sol\":10041:10064  isOnTime(_msgSender, 2) */\n      jump\t// in\n    tag_204:\n        /* \"staking.sol\":10024:10064  bool _isOnTime = isOnTime(_msgSender, 2) */\n      swap1\n      pop\n        /* \"staking.sol\":10074:10090  uint256 earnings */\n      0x00\n        /* \"staking.sol\":10093:10128  getInterest(_msgSender, 2, _amount) */\n      tag_205\n        /* \"staking.sol\":10105:10115  _msgSender */\n      dup5\n        /* \"staking.sol\":10117:10118  2 */\n      0x02\n        /* \"staking.sol\":10120:10127  _amount */\n      dup8\n        /* \"staking.sol\":10093:10104  getInterest */\n      tag_91\n        /* \"staking.sol\":10093:10128  getInterest(_msgSender, 2, _amount) */\n      jump\t// in\n    tag_205:\n        /* \"staking.sol\":10074:10128  uint256 earnings = getInterest(_msgSender, 2, _amount) */\n      swap1\n      pop\n        /* \"staking.sol\":10153:10160  balance */\n      dup3\n        /* \"staking.sol\":10142:10149  _amount */\n      dup6\n        /* \"staking.sol\":10142:10160  _amount == balance */\n      eq\n        /* \"staking.sol\":10139:10331  if(_amount == balance){... */\n      iszero\n      tag_206\n      jumpi\n      sub(shl(0xa0, 0x01), 0x01)\n        /* \"staking.sol\":10182:10204  vipBalance[_msgSender] */\n      dup5\n      and\n      0x00\n      swap1\n      dup2\n      mstore\n        /* \"staking.sol\":10182:10192  vipBalance */\n      0x11\n        /* \"staking.sol\":10182:10204  vipBalance[_msgSender] */\n      0x20\n      swap1\n      dup2\n      mstore\n      0x40\n      dup1\n      dup4\n      keccak256\n        /* \"staking.sol\":10175:10204  delete vipBalance[_msgSender] */\n      dup4\n      dup2\n      sstore\n      0x01\n      dup2\n      add\n      dup5\n      swap1\n      sstore\n      0x02\n      add\n      dup4\n      swap1\n      sstore\n        /* \"staking.sol\":10223:10228  isVip */\n      0x10\n        /* \"staking.sol\":10223:10240  isVip[_msgSender] */\n      swap1\n      swap2\n      mstore\n      swap1\n      keccak256\n        /* \"staking.sol\":10223:10248  isVip[_msgSender] = false */\n      dup1\n      sload\n      not(0xff)\n      and\n      swap1\n      sstore\n        /* \"staking.sol\":10139:10331  if(_amount == balance){... */\n      jump(tag_207)\n    tag_206:\n      sub(shl(0xa0, 0x01), 0x01)\n        /* \"staking.sol\":10279:10301  vipBalance[_msgSender] */\n      dup5\n      and\n      0x00\n      swap1\n      dup2\n      mstore\n        /* \"staking.sol\":10279:10289  vipBalance */\n      0x11\n        /* \"staking.sol\":10279:10301  vipBalance[_msgSender] */\n      0x20\n      mstore\n      0x40\n      dup2\n      keccak256\n        /* \"staking.sol\":10279:10320  vipBalance[_msgSender].balance -= _amount */\n      dup1\n      sload\n        /* \"staking.sol\":10313:10320  _amount */\n      dup8\n      swap3\n        /* \"staking.sol\":10279:10301  vipBalance[_msgSender] */\n      swap1\n        /* \"staking.sol\":10279:10320  vipBalance[_msgSender].balance -= _amount */\n      tag_208\n      swap1\n        /* \"staking.sol\":10313:10320  _amount */\n      dup5\n      swap1\n        /* \"staking.sol\":10279:10320  vipBalance[_msgSender].balance -= _amount */\n      tag_209\n      jump\t// in\n    tag_208:\n      swap1\n      swap2\n      sstore\n      pop\n      pop\n        /* \"staking.sol\":10139:10331  if(_amount == balance){... */\n    tag_207:\n        /* \"staking.sol\":10344:10353  _isOnTime */\n      dup2\n        /* \"staking.sol\":10341:10621  if(_isOnTime){... */\n      iszero\n      tag_210\n      jumpi\n        /* \"staking.sol\":10368:10381  acceptedToken */\n      sload(0x01)\n        /* \"staking.sol\":10368:10411  acceptedToken.transfer(_msgSender, _amount) */\n      mload(0x40)\n      shl(0xe0, 0xa9059cbb)\n      dup2\n      mstore\n      sub(shl(0xa0, 0x01), 0x01)\n        /* \"#utility.yul\":7287:7319   */\n      dup7\n      dup2\n      and\n        /* \"staking.sol\":10368:10411  acceptedToken.transfer(_msgSender, _amount) */\n      0x04\n      dup4\n      add\n        /* \"#utility.yul\":7269:7320   */\n      mstore\n        /* \"#utility.yul\":7336:7354   */\n      0x24\n      dup3\n      add\n        /* \"#utility.yul\":7329:7363   */\n      dup9\n      swap1\n      mstore\n        /* \"staking.sol\":10368:10381  acceptedToken */\n      swap1\n      swap2\n      and\n      swap1\n        /* \"staking.sol\":10368:10390  acceptedToken.transfer */\n      0xa9059cbb\n      swap1\n        /* \"#utility.yul\":7242:7260   */\n      0x44\n      add\n        /* \"staking.sol\":10368:10411  acceptedToken.transfer(_msgSender, _amount) */\n      0x20\n      mload(0x40)\n      dup1\n      dup4\n      sub\n      dup2\n      0x00\n      dup8\n      gas\n      call\n      iszero\n      dup1\n      iszero\n      tag_214\n      jumpi\n      returndatasize\n      0x00\n      dup1\n      returndatacopy\n      revert(0x00, returndatasize)\n    tag_214:\n      pop\n      pop\n      pop\n      pop\n      mload(0x40)\n      returndatasize\n      not(0x1f)\n      0x1f\n      dup3\n      add\n      and\n      dup3\n      add\n      dup1\n      0x40\n      mstore\n      pop\n      dup2\n      add\n      swap1\n      tag_215\n      swap2\n      swap1\n      tag_180\n      jump\t// in\n    tag_215:\n      pop\n        /* \"staking.sol\":10425:10438  acceptedToken */\n      sload(0x01)\n        /* \"staking.sol\":10452:10465  reserveWallet */\n      sload(0x0b)\n        /* \"staking.sol\":10425:10488  acceptedToken.transferFrom(reserveWallet, _msgSender, earnings) */\n      mload(0x40)\n      shl(0xe0, 0x23b872dd)\n      dup2\n      mstore\n      sub(shl(0xa0, 0x01), 0x01)\n        /* \"staking.sol\":10425:10438  acceptedToken */\n      swap3\n      dup4\n      and\n      swap3\n        /* \"staking.sol\":10425:10451  acceptedToken.transferFrom */\n      0x23b872dd\n      swap3\n        /* \"staking.sol\":10425:10488  acceptedToken.transferFrom(reserveWallet, _msgSender, earnings) */\n      tag_216\n      swap3\n        /* \"staking.sol\":10452:10465  reserveWallet */\n      swap2\n      and\n      swap1\n        /* \"staking.sol\":10467:10477  _msgSender */\n      dup9\n      swap1\n        /* \"staking.sol\":10479:10487  earnings */\n      dup7\n      swap1\n        /* \"staking.sol\":10425:10488  acceptedToken.transferFrom(reserveWallet, _msgSender, earnings) */\n      0x04\n      add\n      tag_176\n      jump\t// in\n    tag_216:\n      0x20\n      mload(0x40)\n      dup1\n      dup4\n      sub\n      dup2\n      0x00\n      dup8\n      gas\n      call\n      iszero\n      dup1\n      iszero\n      tag_218\n      jumpi\n      returndatasize\n      0x00\n      dup1\n      returndatacopy\n      revert(0x00, returndatasize)\n    tag_218:\n      pop\n      pop\n      pop\n      pop\n      mload(0x40)\n      returndatasize\n      not(0x1f)\n      0x1f\n      dup3\n      add\n      and\n      dup3\n      add\n      dup1\n      0x40\n      mstore\n      pop\n      dup2\n      add\n      swap1\n      tag_219\n      swap2\n      swap1\n      tag_180\n      jump\t// in\n    tag_219:\n      pop\n        /* \"staking.sol\":10341:10621  if(_isOnTime){... */\n      jump(tag_220)\n    tag_210:\n      pop\n        /* \"staking.sol\":10556:10569  acceptedToken */\n      sload(0x01)\n        /* \"staking.sol\":10556:10599  acceptedToken.transfer(_msgSender, _amount) */\n      mload(0x40)\n      shl(0xe0, 0xa9059cbb)\n      dup2\n      mstore\n      sub(shl(0xa0, 0x01), 0x01)\n        /* \"#utility.yul\":7287:7319   */\n      dup6\n      dup2\n      and\n        /* \"staking.sol\":10556:10599  acceptedToken.transfer(_msgSender, _amount) */\n      0x04\n      dup4\n      add\n        /* \"#utility.yul\":7269:7320   */\n      mstore\n        /* \"#utility.yul\":7336:7354   */\n      0x24\n      dup3\n      add\n        /* \"#utility.yul\":7329:7363   */\n      dup8\n      swap1\n      mstore\n        /* \"staking.sol\":10530:10531  0 */\n      0x00\n      swap3\n        /* \"staking.sol\":10556:10569  acceptedToken */\n      and\n      swap1\n        /* \"staking.sol\":10556:10578  acceptedToken.transfer */\n      0xa9059cbb\n      swap1\n        /* \"#utility.yul\":7242:7260   */\n      0x44\n      add\n        /* \"staking.sol\":10556:10599  acceptedToken.transfer(_msgSender, _amount) */\n      0x20\n      mload(0x40)\n      dup1\n      dup4\n      sub\n      dup2\n      0x00\n      dup8\n      gas\n      call\n      iszero\n      dup1\n      iszero\n      tag_223\n      jumpi\n      returndatasize\n      0x00\n      dup1\n      returndatacopy\n      revert(0x00, returndatasize)\n    tag_223:\n      pop\n      pop\n      pop\n      pop\n      mload(0x40)\n      returndatasize\n      not(0x1f)\n      0x1f\n      dup3\n      add\n      and\n      dup3\n      add\n      dup1\n      0x40\n      mstore\n      pop\n      dup2\n      add\n      swap1\n      tag_224\n      swap2\n      swap1\n      tag_180\n      jump\t// in\n    tag_224:\n      pop\n        /* \"staking.sol\":10341:10621  if(_isOnTime){... */\n    tag_220:\n        /* \"staking.sol\":10636:10689  withdraw(_msgSender, 2, _isOnTime, _amount, earnings) */\n      0xa3dff5863d601223d9b31a0253b97a6c2085daca56089b92836b4b6a1991e04b\n        /* \"staking.sol\":10645:10655  _msgSender */\n      dup5\n        /* \"staking.sol\":10657:10658  2 */\n      0x02\n        /* \"staking.sol\":10660:10669  _isOnTime */\n      dup5\n        /* \"staking.sol\":10671:10678  _amount */\n      dup9\n        /* \"staking.sol\":10680:10688  earnings */\n      dup6\n        /* \"staking.sol\":10636:10689  withdraw(_msgSender, 2, _isOnTime, _amount, earnings) */\n      mload(0x40)\n      tag_225\n      swap6\n      swap5\n      swap4\n      swap3\n      swap2\n      swap1\n      tag_226\n      jump\t// in\n    tag_225:\n      mload(0x40)\n      dup1\n      swap2\n      sub\n      swap1\n      log1\n        /* \"staking.sol\":9783:10696  {... */\n      pop\n      pop\n      pop\n      pop\n        /* \"staking.sol\":9736:10696  function withdrawVip (uint256 _amount) public  {... */\n      pop\n      jump\t// out\n        /* \"staking.sol\":6244:6930  function getInterest (address user, uint8 class, uint256 balance) public view returns (uint256){... */\n    tag_91:\n        /* \"staking.sol\":6331:6338  uint256 */\n      0x00\n        /* \"staking.sol\":6352:6362  class == 0 */\n      0xff\n      dup4\n      and\n        /* \"staking.sol\":6349:6924  if(class == 0){           ... */\n      tag_228\n      jumpi\n      sub(shl(0xa0, 0x01), 0x01)\n        /* \"staking.sol\":6411:6430  level0Balance[user] */\n      dup5\n      and\n        /* \"staking.sol\":6388:6408  uint256 _timeStarted */\n      0x00\n        /* \"staking.sol\":6411:6430  level0Balance[user] */\n      swap1\n      dup2\n      mstore\n        /* \"staking.sol\":6411:6424  level0Balance */\n      0x0d\n        /* \"staking.sol\":6411:6430  level0Balance[user] */\n      0x20\n      mstore\n      0x40\n      swap1\n      keccak256\n        /* \"staking.sol\":6411:6442  level0Balance[user].timeStarted */\n      0x01\n      add\n      sload\n        /* \"staking.sol\":6504:6513  level0APY */\n      sload(0x02)\n        /* \"staking.sol\":6464:6514  calculateInterest(balance,_timeStarted, level0APY) */\n      tag_229\n      swap1\n        /* \"staking.sol\":6482:6489  balance */\n      dup5\n      swap1\n        /* \"staking.sol\":6411:6442  level0Balance[user].timeStarted */\n      dup4\n      swap1\n        /* \"staking.sol\":6464:6481  calculateInterest */\n      tag_230\n        /* \"staking.sol\":6464:6514  calculateInterest(balance,_timeStarted, level0APY) */\n      jump\t// in\n    tag_229:\n        /* \"staking.sol\":6457:6514  return calculateInterest(balance,_timeStarted, level0APY) */\n      swap2\n      pop\n      pop\n      jump(tag_237)\n        /* \"staking.sol\":6349:6924  if(class == 0){           ... */\n    tag_228:\n        /* \"staking.sol\":6535:6540  class */\n      dup3\n        /* \"staking.sol\":6535:6545  class == 1 */\n      0xff\n      and\n        /* \"staking.sol\":6544:6545  1 */\n      0x01\n        /* \"staking.sol\":6535:6545  class == 1 */\n      eq\n        /* \"staking.sol\":6531:6924  if (class == 1){      ... */\n      iszero\n      tag_232\n      jumpi\n      sub(shl(0xa0, 0x01), 0x01)\n        /* \"staking.sol\":6589:6608  level1Balance[user] */\n      dup5\n      and\n        /* \"staking.sol\":6566:6586  uint256 _timeStarted */\n      0x00\n        /* \"staking.sol\":6589:6608  level1Balance[user] */\n      swap1\n      dup2\n      mstore\n        /* \"staking.sol\":6589:6602  level1Balance */\n      0x0f\n        /* \"staking.sol\":6589:6608  level1Balance[user] */\n      0x20\n      mstore\n      0x40\n      swap1\n      keccak256\n        /* \"staking.sol\":6589:6620  level1Balance[user].timeStarted */\n      0x01\n      add\n      sload\n        /* \"staking.sol\":6682:6691  level1APY */\n      sload(0x03)\n        /* \"staking.sol\":6642:6692  calculateInterest(balance,_timeStarted, level1APY) */\n      tag_229\n      swap1\n        /* \"staking.sol\":6660:6667  balance */\n      dup5\n      swap1\n        /* \"staking.sol\":6589:6620  level1Balance[user].timeStarted */\n      dup4\n      swap1\n        /* \"staking.sol\":6642:6659  calculateInterest */\n      tag_230\n        /* \"staking.sol\":6642:6692  calculateInterest(balance,_timeStarted, level1APY) */\n      jump\t// in\n        /* \"staking.sol\":6531:6924  if (class == 1){      ... */\n    tag_232:\n        /* \"staking.sol\":6713:6718  class */\n      dup3\n        /* \"staking.sol\":6713:6723  class == 2 */\n      0xff\n      and\n        /* \"staking.sol\":6722:6723  2 */\n      0x02\n        /* \"staking.sol\":6713:6723  class == 2 */\n      eq\n        /* \"staking.sol\":6709:6924  if (class == 2){           ... */\n      iszero\n      tag_235\n      jumpi\n      sub(shl(0xa0, 0x01), 0x01)\n        /* \"staking.sol\":6772:6788  vipBalance[user] */\n      dup5\n      and\n        /* \"staking.sol\":6749:6769  uint256 _timeStarted */\n      0x00\n        /* \"staking.sol\":6772:6788  vipBalance[user] */\n      swap1\n      dup2\n      mstore\n        /* \"staking.sol\":6772:6782  vipBalance */\n      0x11\n        /* \"staking.sol\":6772:6788  vipBalance[user] */\n      0x20\n      mstore\n      0x40\n      swap1\n      keccak256\n        /* \"staking.sol\":6772:6800  vipBalance[user].timeStarted */\n      0x01\n      add\n      sload\n        /* \"staking.sol\":6862:6873  vipLevelAPY */\n      sload(0x04)\n        /* \"staking.sol\":6822:6874  calculateInterest(balance,_timeStarted, vipLevelAPY) */\n      tag_229\n      swap1\n        /* \"staking.sol\":6840:6847  balance */\n      dup5\n      swap1\n        /* \"staking.sol\":6772:6800  vipBalance[user].timeStarted */\n      dup4\n      swap1\n        /* \"staking.sol\":6822:6839  calculateInterest */\n      tag_230\n        /* \"staking.sol\":6822:6874  calculateInterest(balance,_timeStarted, vipLevelAPY) */\n      jump\t// in\n        /* \"staking.sol\":6709:6924  if (class == 2){           ... */\n    tag_235:\n      pop\n        /* \"staking.sol\":6912:6913  0 */\n      0x00\n        /* \"staking.sol\":6709:6924  if (class == 2){           ... */\n    tag_237:\n        /* \"staking.sol\":6244:6930  function getInterest (address user, uint8 class, uint256 balance) public view returns (uint256){... */\n      swap4\n      swap3\n      pop\n      pop\n      pop\n      jump\t// out\n        /* \"@openzeppelin/contracts/access/Ownable.sol\":1668:1769  function renounceOwnership() public virtual onlyOwner {... */\n    tag_94:\n        /* \"@openzeppelin/contracts/access/Ownable.sol\":1082:1089  address */\n      0x00\n        /* \"@openzeppelin/contracts/access/Ownable.sol\":1108:1114  _owner */\n      sload\n      sub(shl(0xa0, 0x01), 0x01)\n      and\n        /* \"@openzeppelin/contracts/utils/Context.sol\":719:729  msg.sender */\n      caller\n        /* \"@openzeppelin/contracts/access/Ownable.sol\":1248:1271  owner() == _msgSender() */\n      eq\n        /* \"@openzeppelin/contracts/access/Ownable.sol\":1240:1308  require(owner() == _msgSender(), \"Ownable: caller is not the owner\") */\n      tag_241\n      jumpi\n      mload(0x40)\n      shl(0xe5, 0x461bcd)\n      dup2\n      mstore\n      0x04\n      add\n      tag_165\n      swap1\n      tag_192\n      jump\t// in\n    tag_241:\n        /* \"@openzeppelin/contracts/access/Ownable.sol\":1732:1762  _transferOwnership(address(0)) */\n      tag_194\n        /* \"@openzeppelin/contracts/access/Ownable.sol\":1759:1760  0 */\n      0x00\n        /* \"@openzeppelin/contracts/access/Ownable.sol\":1732:1750  _transferOwnership */\n      tag_245\n        /* \"@openzeppelin/contracts/access/Ownable.sol\":1732:1762  _transferOwnership(address(0)) */\n      jump\t// in\n        /* \"staking.sol\":1825:1885  function pause () public onlyOwner {... */\n    tag_110:\n        /* \"@openzeppelin/contracts/access/Ownable.sol\":1082:1089  address */\n      0x00\n        /* \"@openzeppelin/contracts/access/Ownable.sol\":1108:1114  _owner */\n      sload\n      sub(shl(0xa0, 0x01), 0x01)\n      and\n        /* \"@openzeppelin/contracts/utils/Context.sol\":719:729  msg.sender */\n      caller\n        /* \"@openzeppelin/contracts/access/Ownable.sol\":1248:1271  owner() == _msgSender() */\n      eq\n        /* \"@openzeppelin/contracts/access/Ownable.sol\":1240:1308  require(owner() == _msgSender(), \"Ownable: caller is not the owner\") */\n      tag_249\n      jumpi\n      mload(0x40)\n      shl(0xe5, 0x461bcd)\n      dup2\n      mstore\n      0x04\n      add\n      tag_165\n      swap1\n      tag_192\n      jump\t// in\n    tag_249:\n        /* \"staking.sol\":1870:1878  _pause() */\n      tag_194\n        /* \"staking.sol\":1870:1876  _pause */\n      tag_253\n        /* \"staking.sol\":1870:1878  _pause() */\n      jump\t// in\n        /* \"staking.sol\":7458:8440  function withdrawLevel0 (uint256 _amount) public  {... */\n    tag_123:\n        /* \"staking.sol\":7539:7549  msg.sender */\n      caller\n        /* \"staking.sol\":7518:7536  address _msgSender */\n      0x00\n        /* \"staking.sol\":7567:7587  isLevel0[_msgSender] */\n      dup2\n      dup2\n      mstore\n        /* \"staking.sol\":7567:7575  isLevel0 */\n      0x0c\n        /* \"staking.sol\":7567:7587  isLevel0[_msgSender] */\n      0x20\n      mstore\n      0x40\n      swap1\n      keccak256\n      sload\n      0xff\n      and\n        /* \"staking.sol\":7559:7614  require(isLevel0[_msgSender], \"User is not on Level 0\") */\n      tag_256\n      jumpi\n      mload(0x40)\n      shl(0xe5, 0x461bcd)\n      dup2\n      mstore\n        /* \"#utility.yul\":8097:8099   */\n      0x20\n        /* \"staking.sol\":7559:7614  require(isLevel0[_msgSender], \"User is not on Level 0\") */\n      0x04\n      dup3\n      add\n        /* \"#utility.yul\":8079:8100   */\n      mstore\n        /* \"#utility.yul\":8136:8138   */\n      0x16\n        /* \"#utility.yul\":8116:8134   */\n      0x24\n      dup3\n      add\n        /* \"#utility.yul\":8109:8139   */\n      mstore\n      shl(0x54, 0x055736572206973206e6f74206f6e204c6576656c203)\n        /* \"#utility.yul\":8155:8173   */\n      0x44\n      dup3\n      add\n        /* \"#utility.yul\":8148:8200   */\n      mstore\n        /* \"#utility.yul\":8217:8235   */\n      0x64\n      add\n        /* \"staking.sol\":7559:7614  require(isLevel0[_msgSender], \"User is not on Level 0\") */\n      tag_165\n        /* \"#utility.yul\":7895:8241   */\n      jump\n        /* \"staking.sol\":7559:7614  require(isLevel0[_msgSender], \"User is not on Level 0\") */\n    tag_256:\n      sub(shl(0xa0, 0x01), 0x01)\n        /* \"staking.sol\":7643:7668  level0Balance[_msgSender] */\n      dup2\n      and\n        /* \"staking.sol\":7625:7640  uint256 balance */\n      0x00\n        /* \"staking.sol\":7643:7668  level0Balance[_msgSender] */\n      swap1\n      dup2\n      mstore\n        /* \"staking.sol\":7643:7656  level0Balance */\n      0x0d\n        /* \"staking.sol\":7643:7668  level0Balance[_msgSender] */\n      0x20\n      mstore\n      0x40\n      swap1\n      keccak256\n        /* \"staking.sol\":7643:7676  level0Balance[_msgSender].balance */\n      sload\n        /* \"staking.sol\":7694:7712  balance >= _amount */\n      dup3\n      dup2\n      lt\n      iszero\n        /* \"staking.sol\":7686:7747  require(balance >= _amount, \"Not enough balance to withdraw\") */\n      tag_259\n      jumpi\n      mload(0x40)\n      shl(0xe5, 0x461bcd)\n      dup2\n      mstore\n      0x04\n      add\n      tag_165\n      swap1\n      tag_203\n      jump\t// in\n    tag_259:\n        /* \"staking.sol\":7758:7772  bool _isOnTime */\n      0x00\n        /* \"staking.sol\":7775:7798  isOnTime(_msgSender, 0) */\n      tag_261\n        /* \"staking.sol\":7784:7794  _msgSender */\n      dup4\n        /* \"staking.sol\":7796:7797  0 */\n      0x00\n        /* \"staking.sol\":7775:7783  isOnTime */\n      tag_157\n        /* \"staking.sol\":7775:7798  isOnTime(_msgSender, 0) */\n      jump\t// in\n    tag_261:\n        /* \"staking.sol\":7758:7798  bool _isOnTime = isOnTime(_msgSender, 0) */\n      swap1\n      pop\n        /* \"staking.sol\":7808:7824  uint256 earnings */\n      0x00\n        /* \"staking.sol\":7827:7862  getInterest(_msgSender, 0, _amount) */\n      tag_262\n        /* \"staking.sol\":7839:7849  _msgSender */\n      dup5\n        /* \"staking.sol\":7851:7852  0 */\n      0x00\n        /* \"staking.sol\":7854:7861  _amount */\n      dup8\n        /* \"staking.sol\":7827:7838  getInterest */\n      tag_91\n        /* \"staking.sol\":7827:7862  getInterest(_msgSender, 0, _amount) */\n      jump\t// in\n    tag_262:\n        /* \"staking.sol\":7808:7862  uint256 earnings = getInterest(_msgSender, 0, _amount) */\n      swap1\n      pop\n        /* \"staking.sol\":7887:7894  balance */\n      dup3\n        /* \"staking.sol\":7876:7883  _amount */\n      dup6\n        /* \"staking.sol\":7876:7894  _amount == balance */\n      eq\n        /* \"staking.sol\":7873:8075  if(_amount == balance){... */\n      iszero\n      tag_263\n      jumpi\n      sub(shl(0xa0, 0x01), 0x01)\n        /* \"staking.sol\":7916:7941  level0Balance[_msgSender] */\n      dup5\n      and\n      0x00\n      swap1\n      dup2\n      mstore\n        /* \"staking.sol\":7916:7929  level0Balance */\n      0x0d\n        /* \"staking.sol\":7916:7941  level0Balance[_msgSender] */\n      0x20\n      swap1\n      dup2\n      mstore\n      0x40\n      dup1\n      dup4\n      keccak256\n        /* \"staking.sol\":7909:7941  delete level0Balance[_msgSender] */\n      dup4\n      dup2\n      sstore\n      0x01\n      dup2\n      add\n      dup5\n      swap1\n      sstore\n      0x02\n      add\n      dup4\n      swap1\n      sstore\n        /* \"staking.sol\":7961:7969  isLevel0 */\n      0x0c\n        /* \"staking.sol\":7961:7981  isLevel0[_msgSender] */\n      swap1\n      swap2\n      mstore\n      swap1\n      keccak256\n        /* \"staking.sol\":7961:7989  isLevel0[_msgSender] = false */\n      dup1\n      sload\n      not(0xff)\n      and\n      swap1\n      sstore\n        /* \"staking.sol\":7873:8075  if(_amount == balance){... */\n      jump(tag_264)\n    tag_263:\n      sub(shl(0xa0, 0x01), 0x01)\n        /* \"staking.sol\":8020:8045  level0Balance[_msgSender] */\n      dup5\n      and\n      0x00\n      swap1\n      dup2\n      mstore\n        /* \"staking.sol\":8020:8033  level0Balance */\n      0x0d\n        /* \"staking.sol\":8020:8045  level0Balance[_msgSender] */\n      0x20\n      mstore\n      0x40\n      dup2\n      keccak256\n        /* \"staking.sol\":8020:8064  level0Balance[_msgSender].balance -= _amount */\n      dup1\n      sload\n        /* \"staking.sol\":8057:8064  _amount */\n      dup8\n      swap3\n        /* \"staking.sol\":8020:8045  level0Balance[_msgSender] */\n      swap1\n        /* \"staking.sol\":8020:8064  level0Balance[_msgSender].balance -= _amount */\n      tag_265\n      swap1\n        /* \"staking.sol\":8057:8064  _amount */\n      dup5\n      swap1\n        /* \"staking.sol\":8020:8064  level0Balance[_msgSender].balance -= _amount */\n      tag_209\n      jump\t// in\n    tag_265:\n      swap1\n      swap2\n      sstore\n      pop\n      pop\n        /* \"staking.sol\":7873:8075  if(_amount == balance){... */\n    tag_264:\n        /* \"staking.sol\":8088:8097  _isOnTime */\n      dup2\n        /* \"staking.sol\":8085:8361  if(_isOnTime){... */\n      iszero\n      tag_266\n      jumpi\n        /* \"staking.sol\":8112:8125  acceptedToken */\n      sload(0x01)\n        /* \"staking.sol\":8112:8155  acceptedToken.transfer(_msgSender, _amount) */\n      mload(0x40)\n      shl(0xe0, 0xa9059cbb)\n      dup2\n      mstore\n      sub(shl(0xa0, 0x01), 0x01)\n        /* \"#utility.yul\":7287:7319   */\n      dup7\n      dup2\n      and\n        /* \"staking.sol\":8112:8155  acceptedToken.transfer(_msgSender, _amount) */\n      0x04\n      dup4\n      add\n        /* \"#utility.yul\":7269:7320   */\n      mstore\n        /* \"#utility.yul\":7336:7354   */\n      0x24\n      dup3\n      add\n        /* \"#utility.yul\":7329:7363   */\n      dup9\n      swap1\n      mstore\n        /* \"staking.sol\":8112:8125  acceptedToken */\n      swap1\n      swap2\n      and\n      swap1\n        /* \"staking.sol\":8112:8134  acceptedToken.transfer */\n      0xa9059cbb\n      swap1\n        /* \"#utility.yul\":7242:7260   */\n      0x44\n      add\n        /* \"staking.sol\":8112:8155  acceptedToken.transfer(_msgSender, _amount) */\n      0x20\n      mload(0x40)\n      dup1\n      dup4\n      sub\n      dup2\n      0x00\n      dup8\n      gas\n      call\n      iszero\n      dup1\n      iszero\n      tag_269\n      jumpi\n      returndatasize\n      0x00\n      dup1\n      returndatacopy\n      revert(0x00, returndatasize)\n    tag_269:\n      pop\n      pop\n      pop\n      pop\n      mload(0x40)\n      returndatasize\n      not(0x1f)\n      0x1f\n      dup3\n      add\n      and\n      dup3\n      add\n      dup1\n      0x40\n      mstore\n      pop\n      dup2\n      add\n      swap1\n      tag_270\n      swap2\n      swap1\n      tag_180\n      jump\t// in\n    tag_270:\n      pop\n        /* \"staking.sol\":8169:8182  acceptedToken */\n      sload(0x01)\n        /* \"staking.sol\":8196:8209  reserveWallet */\n      sload(0x0b)\n        /* \"staking.sol\":8169:8232  acceptedToken.transferFrom(reserveWallet, _msgSender, earnings) */\n      mload(0x40)\n      shl(0xe0, 0x23b872dd)\n      dup2\n      mstore\n      sub(shl(0xa0, 0x01), 0x01)\n        /* \"staking.sol\":8169:8182  acceptedToken */\n      swap3\n      dup4\n      and\n      swap3\n        /* \"staking.sol\":8169:8195  acceptedToken.transferFrom */\n      0x23b872dd\n      swap3\n        /* \"staking.sol\":8169:8232  acceptedToken.transferFrom(reserveWallet, _msgSender, earnings) */\n      tag_271\n      swap3\n        /* \"staking.sol\":8196:8209  reserveWallet */\n      swap2\n      and\n      swap1\n        /* \"staking.sol\":8211:8221  _msgSender */\n      dup9\n      swap1\n        /* \"staking.sol\":8223:8231  earnings */\n      dup7\n      swap1\n        /* \"staking.sol\":8169:8232  acceptedToken.transferFrom(reserveWallet, _msgSender, earnings) */\n      0x04\n      add\n      tag_176\n      jump\t// in\n    tag_271:\n      0x20\n      mload(0x40)\n      dup1\n      dup4\n      sub\n      dup2\n      0x00\n      dup8\n      gas\n      call\n      iszero\n      dup1\n      iszero\n      tag_273\n      jumpi\n      returndatasize\n      0x00\n      dup1\n      returndatacopy\n      revert(0x00, returndatasize)\n    tag_273:\n      pop\n      pop\n      pop\n      pop\n      mload(0x40)\n      returndatasize\n      not(0x1f)\n      0x1f\n      dup3\n      add\n      and\n      dup3\n      add\n      dup1\n      0x40\n      mstore\n      pop\n      dup2\n      add\n      swap1\n      tag_274\n      swap2\n      swap1\n      tag_180\n      jump\t// in\n    tag_274:\n      pop\n        /* \"staking.sol\":8085:8361  if(_isOnTime){... */\n      jump(tag_275)\n    tag_266:\n      pop\n        /* \"staking.sol\":8296:8309  acceptedToken */\n      sload(0x01)\n        /* \"staking.sol\":8296:8339  acceptedToken.transfer(_msgSender, _amount) */\n      mload(0x40)\n      shl(0xe0, 0xa9059cbb)\n      dup2\n      mstore\n      sub(shl(0xa0, 0x01), 0x01)\n        /* \"#utility.yul\":7287:7319   */\n      dup6\n      dup2\n      and\n        /* \"staking.sol\":8296:8339  acceptedToken.transfer(_msgSender, _amount) */\n      0x04\n      dup4\n      add\n        /* \"#utility.yul\":7269:7320   */\n      mstore\n        /* \"#utility.yul\":7336:7354   */\n      0x24\n      dup3\n      add\n        /* \"#utility.yul\":7329:7363   */\n      dup8\n      swap1\n      mstore\n        /* \"staking.sol\":8274:8275  0 */\n      0x00\n      swap3\n        /* \"staking.sol\":8296:8309  acceptedToken */\n      and\n      swap1\n        /* \"staking.sol\":8296:8318  acceptedToken.transfer */\n      0xa9059cbb\n      swap1\n        /* \"#utility.yul\":7242:7260   */\n      0x44\n      add\n        /* \"staking.sol\":8296:8339  acceptedToken.transfer(_msgSender, _amount) */\n      0x20\n      mload(0x40)\n      dup1\n      dup4\n      sub\n      dup2\n      0x00\n      dup8\n      gas\n      call\n      iszero\n      dup1\n      iszero\n      tag_278\n      jumpi\n      returndatasize\n      0x00\n      dup1\n      returndatacopy\n      revert(0x00, returndatasize)\n    tag_278:\n      pop\n      pop\n      pop\n      pop\n      mload(0x40)\n      returndatasize\n      not(0x1f)\n      0x1f\n      dup3\n      add\n      and\n      dup3\n      add\n      dup1\n      0x40\n      mstore\n      pop\n      dup2\n      add\n      swap1\n      tag_279\n      swap2\n      swap1\n      tag_180\n      jump\t// in\n    tag_279:\n      pop\n        /* \"staking.sol\":8085:8361  if(_isOnTime){... */\n    tag_275:\n        /* \"staking.sol\":8380:8433  withdraw(_msgSender, 0, _isOnTime, _amount, earnings) */\n      0xa3dff5863d601223d9b31a0253b97a6c2085daca56089b92836b4b6a1991e04b\n        /* \"staking.sol\":8389:8399  _msgSender */\n      dup5\n        /* \"staking.sol\":8401:8402  0 */\n      0x00\n        /* \"staking.sol\":8404:8413  _isOnTime */\n      dup5\n        /* \"staking.sol\":8415:8422  _amount */\n      dup9\n        /* \"staking.sol\":8424:8432  earnings */\n      dup6\n        /* \"staking.sol\":8380:8433  withdraw(_msgSender, 0, _isOnTime, _amount, earnings) */\n      mload(0x40)\n      tag_225\n      swap6\n      swap5\n      swap4\n      swap3\n      swap2\n      swap1\n      tag_226\n      jump\t// in\n        /* \"staking.sol\":8598:9578  function withdrawLevel1 (uint256 _amount) public  {... */\n    tag_130:\n        /* \"staking.sol\":8679:8689  msg.sender */\n      caller\n        /* \"staking.sol\":8658:8676  address _msgSender */\n      0x00\n        /* \"staking.sol\":8707:8727  isLevel1[_msgSender] */\n      dup2\n      dup2\n      mstore\n        /* \"staking.sol\":8707:8715  isLevel1 */\n      0x0e\n        /* \"staking.sol\":8707:8727  isLevel1[_msgSender] */\n      0x20\n      mstore\n      0x40\n      swap1\n      keccak256\n      sload\n      0xff\n      and\n        /* \"staking.sol\":8699:8754  require(isLevel1[_msgSender], \"User is not on Level 1\") */\n      tag_283\n      jumpi\n      mload(0x40)\n      shl(0xe5, 0x461bcd)\n      dup2\n      mstore\n        /* \"#utility.yul\":8969:8971   */\n      0x20\n        /* \"staking.sol\":8699:8754  require(isLevel1[_msgSender], \"User is not on Level 1\") */\n      0x04\n      dup3\n      add\n        /* \"#utility.yul\":8951:8972   */\n      mstore\n        /* \"#utility.yul\":9008:9010   */\n      0x16\n        /* \"#utility.yul\":8988:9006   */\n      0x24\n      dup3\n      add\n        /* \"#utility.yul\":8981:9011   */\n      mstore\n      shl(0x50, 0x55736572206973206e6f74206f6e204c6576656c2031)\n        /* \"#utility.yul\":9027:9045   */\n      0x44\n      dup3\n      add\n        /* \"#utility.yul\":9020:9072   */\n      mstore\n        /* \"#utility.yul\":9089:9107   */\n      0x64\n      add\n        /* \"staking.sol\":8699:8754  require(isLevel1[_msgSender], \"User is not on Level 1\") */\n      tag_165\n        /* \"#utility.yul\":8767:9113   */\n      jump\n        /* \"staking.sol\":8699:8754  require(isLevel1[_msgSender], \"User is not on Level 1\") */\n    tag_283:\n      sub(shl(0xa0, 0x01), 0x01)\n        /* \"staking.sol\":8783:8808  level1Balance[_msgSender] */\n      dup2\n      and\n        /* \"staking.sol\":8765:8780  uint256 balance */\n      0x00\n        /* \"staking.sol\":8783:8808  level1Balance[_msgSender] */\n      swap1\n      dup2\n      mstore\n        /* \"staking.sol\":8783:8796  level1Balance */\n      0x0f\n        /* \"staking.sol\":8783:8808  level1Balance[_msgSender] */\n      0x20\n      mstore\n      0x40\n      swap1\n      keccak256\n        /* \"staking.sol\":8783:8816  level1Balance[_msgSender].balance */\n      sload\n        /* \"staking.sol\":8834:8852  balance >= _amount */\n      dup3\n      dup2\n      lt\n      iszero\n        /* \"staking.sol\":8826:8887  require(balance >= _amount, \"Not enough balance to withdraw\") */\n      tag_286\n      jumpi\n      mload(0x40)\n      shl(0xe5, 0x461bcd)\n      dup2\n      mstore\n      0x04\n      add\n      tag_165\n      swap1\n      tag_203\n      jump\t// in\n    tag_286:\n        /* \"staking.sol\":8898:8912  bool _isOnTime */\n      0x00\n        /* \"staking.sol\":8915:8938  isOnTime(_msgSender, 1) */\n      tag_288\n        /* \"staking.sol\":8924:8934  _msgSender */\n      dup4\n        /* \"staking.sol\":8936:8937  1 */\n      0x01\n        /* \"staking.sol\":8915:8923  isOnTime */\n      tag_157\n        /* \"staking.sol\":8915:8938  isOnTime(_msgSender, 1) */\n      jump\t// in\n    tag_288:\n        /* \"staking.sol\":8898:8938  bool _isOnTime = isOnTime(_msgSender, 1) */\n      swap1\n      pop\n        /* \"staking.sol\":8948:8964  uint256 earnings */\n      0x00\n        /* \"staking.sol\":8967:9002  getInterest(_msgSender, 1, _amount) */\n      tag_289\n        /* \"staking.sol\":8979:8989  _msgSender */\n      dup5\n        /* \"staking.sol\":8991:8992  1 */\n      0x01\n        /* \"staking.sol\":8994:9001  _amount */\n      dup8\n        /* \"staking.sol\":8967:8978  getInterest */\n      tag_91\n        /* \"staking.sol\":8967:9002  getInterest(_msgSender, 1, _amount) */\n      jump\t// in\n    tag_289:\n        /* \"staking.sol\":8948:9002  uint256 earnings = getInterest(_msgSender, 1, _amount) */\n      swap1\n      pop\n        /* \"staking.sol\":9027:9034  balance */\n      dup3\n        /* \"staking.sol\":9016:9023  _amount */\n      dup6\n        /* \"staking.sol\":9016:9034  _amount == balance */\n      eq\n        /* \"staking.sol\":9013:9215  if(_amount == balance){... */\n      iszero\n      tag_290\n      jumpi\n      sub(shl(0xa0, 0x01), 0x01)\n        /* \"staking.sol\":9056:9081  level1Balance[_msgSender] */\n      dup5\n      and\n      0x00\n      swap1\n      dup2\n      mstore\n        /* \"staking.sol\":9056:9069  level1Balance */\n      0x0f\n        /* \"staking.sol\":9056:9081  level1Balance[_msgSender] */\n      0x20\n      swap1\n      dup2\n      mstore\n      0x40\n      dup1\n      dup4\n      keccak256\n        /* \"staking.sol\":9049:9081  delete level1Balance[_msgSender] */\n      dup4\n      dup2\n      sstore\n      0x01\n      dup2\n      add\n      dup5\n      swap1\n      sstore\n      0x02\n      add\n      dup4\n      swap1\n      sstore\n        /* \"staking.sol\":9101:9109  isLevel1 */\n      0x0e\n        /* \"staking.sol\":9101:9121  isLevel1[_msgSender] */\n      swap1\n      swap2\n      mstore\n      swap1\n      keccak256\n        /* \"staking.sol\":9101:9129  isLevel1[_msgSender] = false */\n      dup1\n      sload\n      not(0xff)\n      and\n      swap1\n      sstore\n        /* \"staking.sol\":9013:9215  if(_amount == balance){... */\n      jump(tag_291)\n    tag_290:\n      sub(shl(0xa0, 0x01), 0x01)\n        /* \"staking.sol\":9160:9185  level1Balance[_msgSender] */\n      dup5\n      and\n      0x00\n      swap1\n      dup2\n      mstore\n        /* \"staking.sol\":9160:9173  level1Balance */\n      0x0f\n        /* \"staking.sol\":9160:9185  level1Balance[_msgSender] */\n      0x20\n      mstore\n      0x40\n      dup2\n      keccak256\n        /* \"staking.sol\":9160:9204  level1Balance[_msgSender].balance -= _amount */\n      dup1\n      sload\n        /* \"staking.sol\":9197:9204  _amount */\n      dup8\n      swap3\n        /* \"staking.sol\":9160:9185  level1Balance[_msgSender] */\n      swap1\n        /* \"staking.sol\":9160:9204  level1Balance[_msgSender].balance -= _amount */\n      tag_292\n      swap1\n        /* \"staking.sol\":9197:9204  _amount */\n      dup5\n      swap1\n        /* \"staking.sol\":9160:9204  level1Balance[_msgSender].balance -= _amount */\n      tag_209\n      jump\t// in\n    tag_292:\n      swap1\n      swap2\n      sstore\n      pop\n      pop\n        /* \"staking.sol\":9013:9215  if(_amount == balance){... */\n    tag_291:\n        /* \"staking.sol\":9228:9237  _isOnTime */\n      dup2\n        /* \"staking.sol\":9225:9503  if(_isOnTime){... */\n      iszero\n      tag_293\n      jumpi\n        /* \"staking.sol\":9252:9265  acceptedToken */\n      sload(0x01)\n        /* \"staking.sol\":9252:9295  acceptedToken.transfer(_msgSender, _amount) */\n      mload(0x40)\n      shl(0xe0, 0xa9059cbb)\n      dup2\n      mstore\n      sub(shl(0xa0, 0x01), 0x01)\n        /* \"#utility.yul\":7287:7319   */\n      dup7\n      dup2\n      and\n        /* \"staking.sol\":9252:9295  acceptedToken.transfer(_msgSender, _amount) */\n      0x04\n      dup4\n      add\n        /* \"#utility.yul\":7269:7320   */\n      mstore\n        /* \"#utility.yul\":7336:7354   */\n      0x24\n      dup3\n      add\n        /* \"#utility.yul\":7329:7363   */\n      dup9\n      swap1\n      mstore\n        /* \"staking.sol\":9252:9265  acceptedToken */\n      swap1\n      swap2\n      and\n      swap1\n        /* \"staking.sol\":9252:9274  acceptedToken.transfer */\n      0xa9059cbb\n      swap1\n        /* \"#utility.yul\":7242:7260   */\n      0x44\n      add\n        /* \"staking.sol\":9252:9295  acceptedToken.transfer(_msgSender, _amount) */\n      0x20\n      mload(0x40)\n      dup1\n      dup4\n      sub\n      dup2\n      0x00\n      dup8\n      gas\n      call\n      iszero\n      dup1\n      iszero\n      tag_296\n      jumpi\n      returndatasize\n      0x00\n      dup1\n      returndatacopy\n      revert(0x00, returndatasize)\n    tag_296:\n      pop\n      pop\n      pop\n      pop\n      mload(0x40)\n      returndatasize\n      not(0x1f)\n      0x1f\n      dup3\n      add\n      and\n      dup3\n      add\n      dup1\n      0x40\n      mstore\n      pop\n      dup2\n      add\n      swap1\n      tag_297\n      swap2\n      swap1\n      tag_180\n      jump\t// in\n    tag_297:\n      pop\n        /* \"staking.sol\":9309:9322  acceptedToken */\n      sload(0x01)\n        /* \"staking.sol\":9336:9349  reserveWallet */\n      sload(0x0b)\n        /* \"staking.sol\":9309:9372  acceptedToken.transferFrom(reserveWallet, _msgSender, earnings) */\n      mload(0x40)\n      shl(0xe0, 0x23b872dd)\n      dup2\n      mstore\n      sub(shl(0xa0, 0x01), 0x01)\n        /* \"staking.sol\":9309:9322  acceptedToken */\n      swap3\n      dup4\n      and\n      swap3\n        /* \"staking.sol\":9309:9335  acceptedToken.transferFrom */\n      0x23b872dd\n      swap3\n        /* \"staking.sol\":9309:9372  acceptedToken.transferFrom(reserveWallet, _msgSender, earnings) */\n      tag_298\n      swap3\n        /* \"staking.sol\":9336:9349  reserveWallet */\n      swap2\n      and\n      swap1\n        /* \"staking.sol\":9351:9361  _msgSender */\n      dup9\n      swap1\n        /* \"staking.sol\":9363:9371  earnings */\n      dup7\n      swap1\n        /* \"staking.sol\":9309:9372  acceptedToken.transferFrom(reserveWallet, _msgSender, earnings) */\n      0x04\n      add\n      tag_176\n      jump\t// in\n    tag_298:\n      0x20\n      mload(0x40)\n      dup1\n      dup4\n      sub\n      dup2\n      0x00\n      dup8\n      gas\n      call\n      iszero\n      dup1\n      iszero\n      tag_300\n      jumpi\n      returndatasize\n      0x00\n      dup1\n      returndatacopy\n      revert(0x00, returndatasize)\n    tag_300:\n      pop\n      pop\n      pop\n      pop\n      mload(0x40)\n      returndatasize\n      not(0x1f)\n      0x1f\n      dup3\n      add\n      and\n      dup3\n      add\n      dup1\n      0x40\n      mstore\n      pop\n      dup2\n      add\n      swap1\n      tag_301\n      swap2\n      swap1\n      tag_180\n      jump\t// in\n    tag_301:\n      pop\n        /* \"staking.sol\":9225:9503  if(_isOnTime){... */\n      jump(tag_302)\n    tag_293:\n      pop\n        /* \"staking.sol\":9438:9451  acceptedToken */\n      sload(0x01)\n        /* \"staking.sol\":9438:9481  acceptedToken.transfer(_msgSender, _amount) */\n      mload(0x40)\n      shl(0xe0, 0xa9059cbb)\n      dup2\n      mstore\n      sub(shl(0xa0, 0x01), 0x01)\n        /* \"#utility.yul\":7287:7319   */\n      dup6\n      dup2\n      and\n        /* \"staking.sol\":9438:9481  acceptedToken.transfer(_msgSender, _amount) */\n      0x04\n      dup4\n      add\n        /* \"#utility.yul\":7269:7320   */\n      mstore\n        /* \"#utility.yul\":7336:7354   */\n      0x24\n      dup3\n      add\n        /* \"#utility.yul\":7329:7363   */\n      dup8\n      swap1\n      mstore\n        /* \"staking.sol\":9414:9415  0 */\n      0x00\n      swap3\n        /* \"staking.sol\":9438:9451  acceptedToken */\n      and\n      swap1\n        /* \"staking.sol\":9438:9460  acceptedToken.transfer */\n      0xa9059cbb\n      swap1\n        /* \"#utility.yul\":7242:7260   */\n      0x44\n      add\n        /* \"staking.sol\":9438:9481  acceptedToken.transfer(_msgSender, _amount) */\n      0x20\n      mload(0x40)\n      dup1\n      dup4\n      sub\n      dup2\n      0x00\n      dup8\n      gas\n      call\n      iszero\n      dup1\n      iszero\n      tag_305\n      jumpi\n      returndatasize\n      0x00\n      dup1\n      returndatacopy\n      revert(0x00, returndatasize)\n    tag_305:\n      pop\n      pop\n      pop\n      pop\n      mload(0x40)\n      returndatasize\n      not(0x1f)\n      0x1f\n      dup3\n      add\n      and\n      dup3\n      add\n      dup1\n      0x40\n      mstore\n      pop\n      dup2\n      add\n      swap1\n      tag_306\n      swap2\n      swap1\n      tag_180\n      jump\t// in\n    tag_306:\n      pop\n        /* \"staking.sol\":9225:9503  if(_isOnTime){... */\n    tag_302:\n        /* \"staking.sol\":9518:9571  withdraw(_msgSender, 1, _isOnTime, _amount, earnings) */\n      0xa3dff5863d601223d9b31a0253b97a6c2085daca56089b92836b4b6a1991e04b\n        /* \"staking.sol\":9527:9537  _msgSender */\n      dup5\n        /* \"staking.sol\":9539:9540  1 */\n      0x01\n        /* \"staking.sol\":9542:9551  _isOnTime */\n      dup5\n        /* \"staking.sol\":9553:9560  _amount */\n      dup9\n        /* \"staking.sol\":9562:9570  earnings */\n      dup6\n        /* \"staking.sol\":9518:9571  withdraw(_msgSender, 1, _isOnTime, _amount, earnings) */\n      mload(0x40)\n      tag_225\n      swap6\n      swap5\n      swap4\n      swap3\n      swap2\n      swap1\n      tag_226\n      jump\t// in\n        /* \"staking.sol\":4766:5465  function enterVip (uint256 _amount) public whenNotPaused {... */\n    tag_133:\n        /* \"@openzeppelin/contracts/security/Pausable.sol\":1145:1149  bool */\n      0x00\n        /* \"@openzeppelin/contracts/security/Pausable.sol\":1168:1175  _paused */\n      sload\n      shl(0xa0, 0x01)\n      swap1\n      div\n      0xff\n      and\n        /* \"@openzeppelin/contracts/security/Pausable.sol\":1411:1420  !paused() */\n      iszero\n        /* \"@openzeppelin/contracts/security/Pausable.sol\":1403:1441  require(!paused(), \"Pausable: paused\") */\n      tag_311\n      jumpi\n      mload(0x40)\n      shl(0xe5, 0x461bcd)\n      dup2\n      mstore\n      0x04\n      add\n      tag_165\n      swap1\n      tag_166\n      jump\t// in\n    tag_311:\n        /* \"staking.sol\":4852:4863  levelVipMax */\n      sload(0x0a)\n        /* \"staking.sol\":4841:4848  _amount */\n      dup2\n        /* \"staking.sol\":4841:4863  _amount <= levelVipMax */\n      gt\n      iszero\n        /* \"staking.sol\":4841:4889  _amount <= levelVipMax && _amount >= levelVipMin */\n      dup1\n      iszero\n      tag_314\n      jumpi\n      pop\n        /* \"staking.sol\":4878:4889  levelVipMin */\n      sload(0x09)\n        /* \"staking.sol\":4867:4874  _amount */\n      dup2\n        /* \"staking.sol\":4867:4889  _amount >= levelVipMin */\n      lt\n      iszero\n        /* \"staking.sol\":4841:4889  _amount <= levelVipMax && _amount >= levelVipMin */\n    tag_314:\n        /* \"staking.sol\":4833:4944  require(_amount <= levelVipMax && _amount >= levelVipMin, \"Amount needs to be more than min and less than max\") */\n      tag_315\n      jumpi\n      mload(0x40)\n      shl(0xe5, 0x461bcd)\n      dup2\n      mstore\n      0x04\n      add\n      tag_165\n      swap1\n      tag_171\n      jump\t// in\n    tag_315:\n        /* \"staking.sol\":4975:4985  msg.sender */\n      caller\n        /* \"staking.sol\":4954:4972  address _msgSender */\n      0x00\n        /* \"staking.sol\":5017:5034  isVip[_msgSender] */\n      dup2\n      dup2\n      mstore\n        /* \"staking.sol\":5017:5022  isVip */\n      0x10\n        /* \"staking.sol\":5017:5034  isVip[_msgSender] */\n      0x20\n      mstore\n      0x40\n      swap1\n      keccak256\n      sload\n      0xff\n      and\n        /* \"staking.sol\":5016:5034  !isVip[_msgSender] */\n      iszero\n        /* \"staking.sol\":5008:5070  require(!isVip[_msgSender], \"You're already in the Vip Stake\") */\n      tag_317\n      jumpi\n      mload(0x40)\n      shl(0xe5, 0x461bcd)\n      dup2\n      mstore\n        /* \"#utility.yul\":9841:9843   */\n      0x20\n        /* \"staking.sol\":5008:5070  require(!isVip[_msgSender], \"You're already in the Vip Stake\") */\n      0x04\n      dup3\n      add\n        /* \"#utility.yul\":9823:9844   */\n      mstore\n        /* \"#utility.yul\":9880:9882   */\n      0x1f\n        /* \"#utility.yul\":9860:9878   */\n      0x24\n      dup3\n      add\n        /* \"#utility.yul\":9853:9883   */\n      mstore\n        /* \"#utility.yul\":9919:9952   */\n      0x596f7527726520616c726561647920696e2074686520566970205374616b6500\n        /* \"#utility.yul\":9899:9917   */\n      0x44\n      dup3\n      add\n        /* \"#utility.yul\":9892:9953   */\n      mstore\n        /* \"#utility.yul\":9970:9988   */\n      0x64\n      add\n        /* \"staking.sol\":5008:5070  require(!isVip[_msgSender], \"You're already in the Vip Stake\") */\n      tag_165\n        /* \"#utility.yul\":9639:9994   */\n      jump\n        /* \"staking.sol\":5008:5070  require(!isVip[_msgSender], \"You're already in the Vip Stake\") */\n    tag_317:\n        /* \"staking.sol\":5089:5102  acceptedToken */\n      sload(0x01)\n        /* \"staking.sol\":5089:5151  acceptedToken.transferFrom(_msgSender, address(this), _amount) */\n      mload(0x40)\n      shl(0xe0, 0x23b872dd)\n      dup2\n      mstore\n      sub(shl(0xa0, 0x01), 0x01)\n        /* \"staking.sol\":5089:5102  acceptedToken */\n      swap1\n      swap2\n      and\n      swap1\n        /* \"staking.sol\":5089:5115  acceptedToken.transferFrom */\n      0x23b872dd\n      swap1\n        /* \"staking.sol\":5089:5151  acceptedToken.transferFrom(_msgSender, address(this), _amount) */\n      tag_320\n      swap1\n        /* \"staking.sol\":5116:5126  _msgSender */\n      dup5\n      swap1\n        /* \"staking.sol\":5136:5140  this */\n      address\n      swap1\n        /* \"staking.sol\":5143:5150  _amount */\n      dup8\n      swap1\n        /* \"staking.sol\":5089:5151  acceptedToken.transferFrom(_msgSender, address(this), _amount) */\n      0x04\n      add\n      tag_176\n      jump\t// in\n    tag_320:\n      0x20\n      mload(0x40)\n      dup1\n      dup4\n      sub\n      dup2\n      0x00\n      dup8\n      gas\n      call\n      iszero\n      dup1\n      iszero\n      tag_322\n      jumpi\n      returndatasize\n      0x00\n      dup1\n      returndatacopy\n      revert(0x00, returndatasize)\n    tag_322:\n      pop\n      pop\n      pop\n      pop\n      mload(0x40)\n      returndatasize\n      not(0x1f)\n      0x1f\n      dup3\n      add\n      and\n      dup3\n      add\n      dup1\n      0x40\n      mstore\n      pop\n      dup2\n      add\n      swap1\n      tag_323\n      swap2\n      swap1\n      tag_180\n      jump\t// in\n    tag_323:\n      pop\n      sub(shl(0xa0, 0x01), 0x01)\n        /* \"staking.sol\":5162:5179  isVip[_msgSender] */\n      dup2\n      and\n      0x00\n      swap1\n      dup2\n      mstore\n        /* \"staking.sol\":5162:5167  isVip */\n      0x10\n        /* \"staking.sol\":5162:5179  isVip[_msgSender] */\n      0x20\n      swap1\n      dup2\n      mstore\n      0x40\n      swap2\n      dup3\n      swap1\n      keccak256\n        /* \"staking.sol\":5162:5186  isVip[_msgSender] = true */\n      dup1\n      sload\n      not(0xff)\n      and\n        /* \"staking.sol\":5182:5186  true */\n      0x01\n        /* \"staking.sol\":5162:5186  isVip[_msgSender] = true */\n      or\n      swap1\n      sstore\n        /* \"staking.sol\":5221:5359  _user ({... */\n      dup2\n      mload\n      0x60\n      dup2\n      add\n      dup4\n      mstore\n      dup5\n      dup2\n      mstore\n        /* \"staking.sol\":5283:5298  block.timestamp */\n      timestamp\n        /* \"staking.sol\":5221:5359  _user ({... */\n      swap2\n      dup2\n      add\n      dup3\n      swap1\n      mstore\n      swap2\n      dup3\n      add\n      swap1\n        /* \"staking.sol\":5323:5348  block.timestamp + 90 days */\n      tag_324\n      swap1\n        /* \"staking.sol\":5341:5348  90 days */\n      0x76a700\n        /* \"staking.sol\":5323:5348  block.timestamp + 90 days */\n      tag_182\n      jump\t// in\n    tag_324:\n        /* \"staking.sol\":5221:5359  _user ({... */\n      swap1\n      mstore\n      sub(shl(0xa0, 0x01), 0x01)\n        /* \"staking.sol\":5196:5218  vipBalance[_msgSender] */\n      dup3\n      and\n      0x00\n      swap1\n      dup2\n      mstore\n        /* \"staking.sol\":5196:5206  vipBalance */\n      0x11\n        /* \"staking.sol\":5196:5218  vipBalance[_msgSender] */\n      0x20\n      swap1\n      dup2\n      mstore\n      0x40\n      swap2\n      dup3\n      swap1\n      keccak256\n        /* \"staking.sol\":5196:5359  vipBalance[_msgSender] = _user ({... */\n      dup4\n      mload\n      dup2\n      sstore\n      swap1\n      dup4\n      add\n      mload\n      0x01\n      dup3\n      add\n      sstore\n      swap2\n      add\n      mload\n      0x02\n      swap2\n      dup3\n      add\n      sstore\n        /* \"staking.sol\":5382:5458  deposit (_msgSender, 2, _amount, block.timestamp, block.timestamp + 90 days) */\n      0x17849bb8c713de96b48f218d3bacc9af082261c3ccc7c6dccebe70e667b22f23\n      swap1\n        /* \"staking.sol\":5207:5217  _msgSender */\n      dup3\n      swap1\n        /* \"staking.sol\":5406:5413  _amount */\n      dup5\n        /* \"staking.sol\":5415:5430  block.timestamp */\n      timestamp\n        /* \"staking.sol\":5432:5457  block.timestamp + 90 days */\n      tag_183\n        /* \"staking.sol\":5415:5430  block.timestamp */\n      dup2\n        /* \"staking.sol\":5450:5457  90 days */\n      0x76a700\n        /* \"staking.sol\":5432:5457  block.timestamp + 90 days */\n      tag_182\n      jump\t// in\n        /* \"staking.sol\":2019:2138  function setReserveWallet (address _reserveWallet) external onlyOwner{... */\n    tag_142:\n        /* \"@openzeppelin/contracts/access/Ownable.sol\":1082:1089  address */\n      0x00\n        /* \"@openzeppelin/contracts/access/Ownable.sol\":1108:1114  _owner */\n      sload\n      sub(shl(0xa0, 0x01), 0x01)\n      and\n        /* \"@openzeppelin/contracts/utils/Context.sol\":719:729  msg.sender */\n      caller\n        /* \"@openzeppelin/contracts/access/Ownable.sol\":1248:1271  owner() == _msgSender() */\n      eq\n        /* \"@openzeppelin/contracts/access/Ownable.sol\":1240:1308  require(owner() == _msgSender(), \"Ownable: caller is not the owner\") */\n      tag_331\n      jumpi\n      mload(0x40)\n      shl(0xe5, 0x461bcd)\n      dup2\n      mstore\n      0x04\n      add\n      tag_165\n      swap1\n      tag_192\n      jump\t// in\n    tag_331:\n        /* \"staking.sol\":2098:2111  reserveWallet */\n      0x0b\n        /* \"staking.sol\":2098:2128  reserveWallet = _reserveWallet */\n      dup1\n      sload\n      not(sub(shl(0xa0, 0x01), 0x01))\n      and\n      sub(shl(0xa0, 0x01), 0x01)\n      swap3\n      swap1\n      swap3\n      and\n      swap2\n      swap1\n      swap2\n      or\n      swap1\n      sstore\n        /* \"staking.sol\":2019:2138  function setReserveWallet (address _reserveWallet) external onlyOwner{... */\n      jump\t// out\n        /* \"staking.sol\":2205:2413  function setNewAPY ( uint256 _level0APY, uint256 _level1APY, uint256 _vipLevelAPY) external onlyOwner{... */\n    tag_146:\n        /* \"@openzeppelin/contracts/access/Ownable.sol\":1082:1089  address */\n      0x00\n        /* \"@openzeppelin/contracts/access/Ownable.sol\":1108:1114  _owner */\n      sload\n      sub(shl(0xa0, 0x01), 0x01)\n      and\n        /* \"@openzeppelin/contracts/utils/Context.sol\":719:729  msg.sender */\n      caller\n        /* \"@openzeppelin/contracts/access/Ownable.sol\":1248:1271  owner() == _msgSender() */\n      eq\n        /* \"@openzeppelin/contracts/access/Ownable.sol\":1240:1308  require(owner() == _msgSender(), \"Ownable: caller is not the owner\") */\n      tag_337\n      jumpi\n      mload(0x40)\n      shl(0xe5, 0x461bcd)\n      dup2\n      mstore\n      0x04\n      add\n      tag_165\n      swap1\n      tag_192\n      jump\t// in\n    tag_337:\n        /* \"staking.sol\":2316:2325  level0APY */\n      0x02\n        /* \"staking.sol\":2316:2338  level0APY = _level0APY */\n      swap3\n      swap1\n      swap3\n      sstore\n        /* \"staking.sol\":2348:2357  level1APY */\n      0x03\n        /* \"staking.sol\":2348:2370  level1APY = _level1APY */\n      sstore\n        /* \"staking.sol\":2380:2391  vipLevelAPY */\n      0x04\n        /* \"staking.sol\":2380:2406  vipLevelAPY = _vipLevelAPY */\n      sstore\n        /* \"staking.sol\":2205:2413  function setNewAPY ( uint256 _level0APY, uint256 _level1APY, uint256 _vipLevelAPY) external onlyOwner{... */\n      jump\t// out\n        /* \"@openzeppelin/contracts/access/Ownable.sol\":1918:2116  function transferOwnership(address newOwner) public virtual onlyOwner {... */\n    tag_149:\n        /* \"@openzeppelin/contracts/access/Ownable.sol\":1082:1089  address */\n      0x00\n        /* \"@openzeppelin/contracts/access/Ownable.sol\":1108:1114  _owner */\n      sload\n      sub(shl(0xa0, 0x01), 0x01)\n      and\n        /* \"@openzeppelin/contracts/utils/Context.sol\":719:729  msg.sender */\n      caller\n        /* \"@openzeppelin/contracts/access/Ownable.sol\":1248:1271  owner() == _msgSender() */\n      eq\n        /* \"@openzeppelin/contracts/access/Ownable.sol\":1240:1308  require(owner() == _msgSender(), \"Ownable: caller is not the owner\") */\n      tag_343\n      jumpi\n      mload(0x40)\n      shl(0xe5, 0x461bcd)\n      dup2\n      mstore\n      0x04\n      add\n      tag_165\n      swap1\n      tag_192\n      jump\t// in\n    tag_343:\n      sub(shl(0xa0, 0x01), 0x01)\n        /* \"@openzeppelin/contracts/access/Ownable.sol\":2006:2028  newOwner != address(0) */\n      dup2\n      and\n        /* \"@openzeppelin/contracts/access/Ownable.sol\":1998:2071  require(newOwner != address(0), \"Ownable: new owner is the zero address\") */\n      tag_346\n      jumpi\n      mload(0x40)\n      shl(0xe5, 0x461bcd)\n      dup2\n      mstore\n        /* \"#utility.yul\":10712:10714   */\n      0x20\n        /* \"@openzeppelin/contracts/access/Ownable.sol\":1998:2071  require(newOwner != address(0), \"Ownable: new owner is the zero address\") */\n      0x04\n      dup3\n      add\n        /* \"#utility.yul\":10694:10715   */\n      mstore\n        /* \"#utility.yul\":10751:10753   */\n      0x26\n        /* \"#utility.yul\":10731:10749   */\n      0x24\n      dup3\n      add\n        /* \"#utility.yul\":10724:10754   */\n      mstore\n        /* \"#utility.yul\":10790:10824   */\n      0x4f776e61626c653a206e6577206f776e657220697320746865207a65726f2061\n        /* \"#utility.yul\":10770:10788   */\n      0x44\n      dup3\n      add\n        /* \"#utility.yul\":10763:10825   */\n      mstore\n      shl(0xd0, 0x646472657373)\n        /* \"#utility.yul\":10841:10859   */\n      0x64\n      dup3\n      add\n        /* \"#utility.yul\":10834:10870   */\n      mstore\n        /* \"#utility.yul\":10887:10906   */\n      0x84\n      add\n        /* \"@openzeppelin/contracts/access/Ownable.sol\":1998:2071  require(newOwner != address(0), \"Ownable: new owner is the zero address\") */\n      tag_165\n        /* \"#utility.yul\":10510:10912   */\n      jump\n        /* \"@openzeppelin/contracts/access/Ownable.sol\":1998:2071  require(newOwner != address(0), \"Ownable: new owner is the zero address\") */\n    tag_346:\n        /* \"@openzeppelin/contracts/access/Ownable.sol\":2081:2109  _transferOwnership(newOwner) */\n      tag_349\n        /* \"@openzeppelin/contracts/access/Ownable.sol\":2100:2108  newOwner */\n      dup2\n        /* \"@openzeppelin/contracts/access/Ownable.sol\":2081:2099  _transferOwnership */\n      tag_245\n        /* \"@openzeppelin/contracts/access/Ownable.sol\":2081:2109  _transferOwnership(newOwner) */\n      jump\t// in\n    tag_349:\n        /* \"@openzeppelin/contracts/access/Ownable.sol\":1918:2116  function transferOwnership(address newOwner) public virtual onlyOwner {... */\n      pop\n      jump\t// out\n        /* \"staking.sol\":2495:2867  function setNewMaxMin (uint256 _level0Min, uint256 _level0Max, uint256 _level1Min, uint256 _level1Max, uint256 _levelVipMin, uint256 _levelVipMax) external onlyOwner{... */\n    tag_153:\n        /* \"@openzeppelin/contracts/access/Ownable.sol\":1082:1089  address */\n      0x00\n        /* \"@openzeppelin/contracts/access/Ownable.sol\":1108:1114  _owner */\n      sload\n      sub(shl(0xa0, 0x01), 0x01)\n      and\n        /* \"@openzeppelin/contracts/utils/Context.sol\":719:729  msg.sender */\n      caller\n        /* \"@openzeppelin/contracts/access/Ownable.sol\":1248:1271  owner() == _msgSender() */\n      eq\n        /* \"@openzeppelin/contracts/access/Ownable.sol\":1240:1308  require(owner() == _msgSender(), \"Ownable: caller is not the owner\") */\n      tag_353\n      jumpi\n      mload(0x40)\n      shl(0xe5, 0x461bcd)\n      dup2\n      mstore\n      0x04\n      add\n      tag_165\n      swap1\n      tag_192\n      jump\t// in\n    tag_353:\n        /* \"staking.sol\":2670:2679  level0Min */\n      0x05\n        /* \"staking.sol\":2670:2692  level0Min = _level0Min */\n      swap6\n      swap1\n      swap6\n      sstore\n        /* \"staking.sol\":2702:2711  level0Max */\n      0x06\n        /* \"staking.sol\":2702:2724  level0Max = _level0Max */\n      swap4\n      swap1\n      swap4\n      sstore\n        /* \"staking.sol\":2734:2743  level1Min */\n      0x07\n        /* \"staking.sol\":2734:2756  level1Min = _level1Min */\n      swap2\n      swap1\n      swap2\n      sstore\n        /* \"staking.sol\":2766:2775  level1Max */\n      0x08\n        /* \"staking.sol\":2766:2788  level1Max = _level1Max */\n      sstore\n        /* \"staking.sol\":2798:2809  levelVipMin */\n      0x09\n        /* \"staking.sol\":2798:2824  levelVipMin = _levelVipMin */\n      sstore\n        /* \"staking.sol\":2834:2845  levelVipMax */\n      0x0a\n        /* \"staking.sol\":2834:2860  levelVipMax = _levelVipMax */\n      sstore\n        /* \"staking.sol\":2495:2867  function setNewMaxMin (uint256 _level0Min, uint256 _level0Max, uint256 _level1Min, uint256 _level1Max, uint256 _levelVipMin, uint256 _levelVipMax) external onlyOwner{... */\n      jump\t// out\n        /* \"staking.sol\":5610:6109  function isOnTime (address user, uint8 class) public view returns (bool) {... */\n    tag_157:\n        /* \"staking.sol\":5677:5681  bool */\n      0x00\n      dup1\n        /* \"staking.sol\":5725:5735  class == 0 */\n      0xff\n      dup4\n      and\n        /* \"staking.sol\":5722:6056  if(class == 0){... */\n      tag_357\n      jumpi\n      pop\n      sub(shl(0xa0, 0x01), 0x01)\n        /* \"staking.sol\":5764:5783  level0Balance[user] */\n      dup4\n      and\n      0x00\n      swap1\n      dup2\n      mstore\n        /* \"staking.sol\":5764:5777  level0Balance */\n      0x0d\n        /* \"staking.sol\":5764:5783  level0Balance[user] */\n      0x20\n      mstore\n      0x40\n      swap1\n      keccak256\n        /* \"staking.sol\":5764:5794  level0Balance[user].timeFinish */\n      0x02\n      add\n      sload\n        /* \"staking.sol\":5722:6056  if(class == 0){... */\n      jump(tag_362)\n    tag_357:\n        /* \"staking.sol\":5826:5831  class */\n      dup3\n        /* \"staking.sol\":5826:5836  class == 1 */\n      0xff\n      and\n        /* \"staking.sol\":5835:5836  1 */\n      0x01\n        /* \"staking.sol\":5826:5836  class == 1 */\n      eq\n        /* \"staking.sol\":5822:6056  if (class == 1){... */\n      iszero\n      tag_359\n      jumpi\n      pop\n      sub(shl(0xa0, 0x01), 0x01)\n        /* \"staking.sol\":5865:5884  level1Balance[user] */\n      dup4\n      and\n      0x00\n      swap1\n      dup2\n      mstore\n        /* \"staking.sol\":5865:5878  level1Balance */\n      0x0f\n        /* \"staking.sol\":5865:5884  level1Balance[user] */\n      0x20\n      mstore\n      0x40\n      swap1\n      keccak256\n        /* \"staking.sol\":5865:5895  level1Balance[user].timeFinish */\n      0x02\n      add\n      sload\n        /* \"staking.sol\":5822:6056  if (class == 1){... */\n      jump(tag_362)\n    tag_359:\n        /* \"staking.sol\":5925:5930  class */\n      dup3\n        /* \"staking.sol\":5925:5935  class == 2 */\n      0xff\n      and\n        /* \"staking.sol\":5934:5935  2 */\n      0x02\n        /* \"staking.sol\":5925:5935  class == 2 */\n      eq\n        /* \"staking.sol\":5921:6056  if (class == 2){... */\n      iszero\n      tag_361\n      jumpi\n      pop\n      sub(shl(0xa0, 0x01), 0x01)\n        /* \"staking.sol\":5964:5980  vipBalance[user] */\n      dup4\n      and\n      0x00\n      swap1\n      dup2\n      mstore\n        /* \"staking.sol\":5964:5974  vipBalance */\n      0x11\n        /* \"staking.sol\":5964:5980  vipBalance[user] */\n      0x20\n      mstore\n      0x40\n      swap1\n      keccak256\n        /* \"staking.sol\":5964:5991  vipBalance[user].timeFinish */\n      0x02\n      add\n      sload\n        /* \"staking.sol\":5921:6056  if (class == 2){... */\n      jump(tag_362)\n    tag_361:\n        /* \"staking.sol\":6040:6045  false */\n      0x00\n        /* \"staking.sol\":6033:6045  return false */\n      swap2\n      pop\n      pop\n      jump(tag_356)\n        /* \"staking.sol\":5921:6056  if (class == 2){... */\n    tag_362:\n        /* \"staking.sol\":6072:6087  block.timestamp */\n      timestamp\n        /* \"staking.sol\":6072:6102  block.timestamp >= releaseTime */\n      lt\n      iszero\n      swap1\n      pop\n        /* \"staking.sol\":5610:6109  function isOnTime (address user, uint8 class) public view returns (bool) {... */\n    tag_356:\n      swap3\n      swap2\n      pop\n      pop\n      jump\t// out\n        /* \"staking.sol\":3016:3717  function enterLevel0 (uint256 _amount) public whenNotPaused {... */\n    tag_161:\n        /* \"@openzeppelin/contracts/security/Pausable.sol\":1145:1149  bool */\n      0x00\n        /* \"@openzeppelin/contracts/security/Pausable.sol\":1168:1175  _paused */\n      sload\n      shl(0xa0, 0x01)\n      swap1\n      div\n      0xff\n      and\n        /* \"@openzeppelin/contracts/security/Pausable.sol\":1411:1420  !paused() */\n      iszero\n        /* \"@openzeppelin/contracts/security/Pausable.sol\":1403:1441  require(!paused(), \"Pausable: paused\") */\n      tag_365\n      jumpi\n      mload(0x40)\n      shl(0xe5, 0x461bcd)\n      dup2\n      mstore\n      0x04\n      add\n      tag_165\n      swap1\n      tag_166\n      jump\t// in\n    tag_365:\n        /* \"staking.sol\":3105:3114  level0Max */\n      sload(0x06)\n        /* \"staking.sol\":3094:3101  _amount */\n      dup2\n        /* \"staking.sol\":3094:3114  _amount <= level0Max */\n      gt\n      iszero\n        /* \"staking.sol\":3094:3138  _amount <= level0Max && _amount >= level0Min */\n      dup1\n      iszero\n      tag_368\n      jumpi\n      pop\n        /* \"staking.sol\":3129:3138  level0Min */\n      sload(0x05)\n        /* \"staking.sol\":3118:3125  _amount */\n      dup2\n        /* \"staking.sol\":3118:3138  _amount >= level0Min */\n      lt\n      iszero\n        /* \"staking.sol\":3094:3138  _amount <= level0Max && _amount >= level0Min */\n    tag_368:\n        /* \"staking.sol\":3086:3193  require(_amount <= level0Max && _amount >= level0Min, \"Amount needs to be more than min and less than max\") */\n      tag_369\n      jumpi\n      mload(0x40)\n      shl(0xe5, 0x461bcd)\n      dup2\n      mstore\n      0x04\n      add\n      tag_165\n      swap1\n      tag_171\n      jump\t// in\n    tag_369:\n        /* \"staking.sol\":3224:3234  msg.sender */\n      caller\n        /* \"staking.sol\":3203:3221  address _msgSender */\n      0x00\n        /* \"staking.sol\":3258:3278  isLevel0[_msgSender] */\n      dup2\n      dup2\n      mstore\n        /* \"staking.sol\":3258:3266  isLevel0 */\n      0x0c\n        /* \"staking.sol\":3258:3278  isLevel0[_msgSender] */\n      0x20\n      mstore\n      0x40\n      swap1\n      keccak256\n      sload\n      0xff\n      and\n        /* \"staking.sol\":3257:3278  !isLevel0[_msgSender] */\n      iszero\n        /* \"staking.sol\":3249:3317  require(!isLevel0[_msgSender], \"You're already in this Stake level\") */\n      tag_371\n      jumpi\n      mload(0x40)\n      shl(0xe5, 0x461bcd)\n      dup2\n      mstore\n      0x04\n      add\n      tag_165\n      swap1\n      tag_174\n      jump\t// in\n    tag_371:\n        /* \"staking.sol\":3332:3345  acceptedToken */\n      sload(0x01)\n        /* \"staking.sol\":3332:3394  acceptedToken.transferFrom(_msgSender, address(this), _amount) */\n      mload(0x40)\n      shl(0xe0, 0x23b872dd)\n      dup2\n      mstore\n      sub(shl(0xa0, 0x01), 0x01)\n        /* \"staking.sol\":3332:3345  acceptedToken */\n      swap1\n      swap2\n      and\n      swap1\n        /* \"staking.sol\":3332:3358  acceptedToken.transferFrom */\n      0x23b872dd\n      swap1\n        /* \"staking.sol\":3332:3394  acceptedToken.transferFrom(_msgSender, address(this), _amount) */\n      tag_373\n      swap1\n        /* \"staking.sol\":3359:3369  _msgSender */\n      dup5\n      swap1\n        /* \"staking.sol\":3379:3383  this */\n      address\n      swap1\n        /* \"staking.sol\":3386:3393  _amount */\n      dup8\n      swap1\n        /* \"staking.sol\":3332:3394  acceptedToken.transferFrom(_msgSender, address(this), _amount) */\n      0x04\n      add\n      tag_176\n      jump\t// in\n    tag_373:\n      0x20\n      mload(0x40)\n      dup1\n      dup4\n      sub\n      dup2\n      0x00\n      dup8\n      gas\n      call\n      iszero\n      dup1\n      iszero\n      tag_375\n      jumpi\n      returndatasize\n      0x00\n      dup1\n      returndatacopy\n      revert(0x00, returndatasize)\n    tag_375:\n      pop\n      pop\n      pop\n      pop\n      mload(0x40)\n      returndatasize\n      not(0x1f)\n      0x1f\n      dup3\n      add\n      and\n      dup3\n      add\n      dup1\n      0x40\n      mstore\n      pop\n      dup2\n      add\n      swap1\n      tag_376\n      swap2\n      swap1\n      tag_180\n      jump\t// in\n    tag_376:\n      pop\n      sub(shl(0xa0, 0x01), 0x01)\n        /* \"staking.sol\":3405:3425  isLevel0[_msgSender] */\n      dup2\n      and\n      0x00\n      swap1\n      dup2\n      mstore\n        /* \"staking.sol\":3405:3413  isLevel0 */\n      0x0c\n        /* \"staking.sol\":3405:3425  isLevel0[_msgSender] */\n      0x20\n      swap1\n      dup2\n      mstore\n      0x40\n      swap2\n      dup3\n      swap1\n      keccak256\n        /* \"staking.sol\":3405:3432  isLevel0[_msgSender] = true */\n      dup1\n      sload\n      not(0xff)\n      and\n        /* \"staking.sol\":3428:3432  true */\n      0x01\n        /* \"staking.sol\":3405:3432  isLevel0[_msgSender] = true */\n      or\n      swap1\n      sstore\n        /* \"staking.sol\":3470:3610  _user ({... */\n      dup2\n      mload\n      0x60\n      dup2\n      add\n      dup4\n      mstore\n      dup5\n      dup2\n      mstore\n        /* \"staking.sol\":3534:3549  block.timestamp */\n      timestamp\n        /* \"staking.sol\":3470:3610  _user ({... */\n      swap2\n      dup2\n      add\n      dup3\n      swap1\n      mstore\n      swap2\n      dup3\n      add\n      swap1\n        /* \"staking.sol\":3575:3599  block.timestamp + 7 days */\n      tag_377\n      swap1\n        /* \"staking.sol\":3593:3599  7 days */\n      0x093a80\n        /* \"staking.sol\":3575:3599  block.timestamp + 7 days */\n      tag_182\n      jump\t// in\n    tag_377:\n        /* \"staking.sol\":3470:3610  _user ({... */\n      swap1\n      mstore\n      sub(shl(0xa0, 0x01), 0x01)\n        /* \"staking.sol\":3442:3467  level0Balance[_msgSender] */\n      dup3\n      and\n      0x00\n      swap1\n      dup2\n      mstore\n        /* \"staking.sol\":3442:3455  level0Balance */\n      0x0d\n        /* \"staking.sol\":3442:3467  level0Balance[_msgSender] */\n      0x20\n      swap1\n      dup2\n      mstore\n      0x40\n      dup1\n      dup4\n      keccak256\n        /* \"staking.sol\":3442:3610  level0Balance[_msgSender] = _user ({... */\n      dup5\n      mload\n      dup2\n      sstore\n      swap2\n      dup5\n      add\n      mload\n      0x01\n      dup4\n      add\n      sstore\n      swap3\n      swap1\n      swap3\n      add\n      mload\n      0x02\n      swap1\n      swap3\n      add\n      swap2\n      swap1\n      swap2\n      sstore\n        /* \"staking.sol\":3635:3710  deposit (_msgSender, 0, _amount, block.timestamp, block.timestamp + 7 days) */\n      0x17849bb8c713de96b48f218d3bacc9af082261c3ccc7c6dccebe70e667b22f23\n      swap1\n        /* \"staking.sol\":3456:3466  _msgSender */\n      dup3\n      swap1\n        /* \"staking.sol\":3659:3666  _amount */\n      dup5\n        /* \"staking.sol\":3668:3683  block.timestamp */\n      timestamp\n        /* \"staking.sol\":3685:3709  block.timestamp + 7 days */\n      tag_183\n        /* \"staking.sol\":3668:3683  block.timestamp */\n      dup2\n        /* \"staking.sol\":3703:3709  7 days */\n      0x093a80\n        /* \"staking.sol\":3685:3709  block.timestamp + 7 days */\n      tag_182\n      jump\t// in\n        /* \"@openzeppelin/contracts/security/Pausable.sol\":2110:2227  function _unpause() internal virtual whenPaused {... */\n    tag_195:\n        /* \"@openzeppelin/contracts/security/Pausable.sol\":1145:1149  bool */\n      0x00\n        /* \"@openzeppelin/contracts/security/Pausable.sol\":1168:1175  _paused */\n      sload\n      shl(0xa0, 0x01)\n      swap1\n      div\n      0xff\n      and\n        /* \"@openzeppelin/contracts/security/Pausable.sol\":1669:1710  require(paused(), \"Pausable: not paused\") */\n      tag_384\n      jumpi\n      mload(0x40)\n      shl(0xe5, 0x461bcd)\n      dup2\n      mstore\n        /* \"#utility.yul\":11630:11632   */\n      0x20\n        /* \"@openzeppelin/contracts/security/Pausable.sol\":1669:1710  require(paused(), \"Pausable: not paused\") */\n      0x04\n      dup3\n      add\n        /* \"#utility.yul\":11612:11633   */\n      mstore\n        /* \"#utility.yul\":11669:11671   */\n      0x14\n        /* \"#utility.yul\":11649:11667   */\n      0x24\n      dup3\n      add\n        /* \"#utility.yul\":11642:11672   */\n      mstore\n      shl(0x62, 0x14185d5cd8589b194e881b9bdd081c185d5cd959)\n        /* \"#utility.yul\":11688:11706   */\n      0x44\n      dup3\n      add\n        /* \"#utility.yul\":11681:11731   */\n      mstore\n        /* \"#utility.yul\":11748:11766   */\n      0x64\n      add\n        /* \"@openzeppelin/contracts/security/Pausable.sol\":1669:1710  require(paused(), \"Pausable: not paused\") */\n      tag_165\n        /* \"#utility.yul\":11428:11772   */\n      jump\n        /* \"@openzeppelin/contracts/security/Pausable.sol\":1669:1710  require(paused(), \"Pausable: not paused\") */\n    tag_384:\n        /* \"@openzeppelin/contracts/security/Pausable.sol\":2178:2183  false */\n      0x00\n        /* \"@openzeppelin/contracts/security/Pausable.sol\":2168:2183  _paused = false */\n      dup1\n      sload\n      not(shl(0xa0, 0xff))\n      and\n      swap1\n      sstore\n        /* \"@openzeppelin/contracts/security/Pausable.sol\":2198:2220  Unpaused(_msgSender()) */\n      0x5db9ee0a495bf2e6ff9c91a7834c1ba4fdd244a5e8aa4e537bd38aeae4b073aa\n        /* \"@openzeppelin/contracts/utils/Context.sol\":719:729  msg.sender */\n      caller\n        /* \"@openzeppelin/contracts/security/Pausable.sol\":2207:2219  _msgSender() */\n    tag_388:\n        /* \"@openzeppelin/contracts/security/Pausable.sol\":2198:2220  Unpaused(_msgSender()) */\n      mload(0x40)\n      sub(shl(0xa0, 0x01), 0x01)\n        /* \"#utility.yul\":559:591   */\n      swap1\n      swap2\n      and\n        /* \"#utility.yul\":541:592   */\n      dup2\n      mstore\n        /* \"#utility.yul\":529:531   */\n      0x20\n        /* \"#utility.yul\":514:532   */\n      add\n        /* \"@openzeppelin/contracts/security/Pausable.sol\":2198:2220  Unpaused(_msgSender()) */\n      mload(0x40)\n      dup1\n      swap2\n      sub\n      swap1\n      log1\n        /* \"@openzeppelin/contracts/security/Pausable.sol\":2110:2227  function _unpause() internal virtual whenPaused {... */\n      jump\t// out\n        /* \"staking.sol\":6936:7300  function calculateInterest (uint256 _balance, uint256 _timeStarted, uint256 _APY) internal view returns (uint256){... */\n    tag_230:\n        /* \"staking.sol\":7041:7048  uint256 */\n      0x00\n      dup1\n        /* \"staking.sol\":7080:7110  block.timestamp - _timeStarted */\n      tag_391\n        /* \"staking.sol\":7098:7110  _timeStarted */\n      dup5\n        /* \"staking.sol\":7080:7095  block.timestamp */\n      timestamp\n        /* \"staking.sol\":7080:7110  block.timestamp - _timeStarted */\n      tag_209\n      jump\t// in\n    tag_391:\n        /* \"staking.sol\":7059:7110  uint256 timeStaked = block.timestamp - _timeStarted */\n      swap1\n      pop\n        /* \"staking.sol\":7128:7153  uint256 interestPerSecond */\n      0x00\n        /* \"staking.sol\":7186:7194  365 days */\n      0x01e13380\n        /* \"staking.sol\":7177:7182  10000 */\n      0x2710\n        /* \"staking.sol\":7158:7173  _balance * _APY */\n      tag_392\n        /* \"staking.sol\":7169:7173  _APY */\n      dup7\n        /* \"staking.sol\":7158:7166  _balance */\n      dup10\n        /* \"staking.sol\":7158:7173  _balance * _APY */\n      tag_393\n      jump\t// in\n    tag_392:\n        /* \"staking.sol\":7157:7182  (_balance * _APY) / 10000 */\n      tag_394\n      swap2\n      swap1\n      tag_395\n      jump\t// in\n    tag_394:\n        /* \"staking.sol\":7156:7194  ((_balance * _APY) / 10000) / 365 days */\n      tag_396\n      swap2\n      swap1\n      tag_395\n      jump\t// in\n    tag_396:\n        /* \"staking.sol\":7128:7194  uint256 interestPerSecond = ((_balance * _APY) / 10000) / 365 days */\n      swap1\n      pop\n        /* \"staking.sol\":7204:7227  uint256 interestsEarned */\n      0x00\n        /* \"staking.sol\":7230:7260  timeStaked * interestPerSecond */\n      tag_397\n        /* \"staking.sol\":7128:7194  uint256 interestPerSecond = ((_balance * _APY) / 10000) / 365 days */\n      dup3\n        /* \"staking.sol\":7230:7240  timeStaked */\n      dup5\n        /* \"staking.sol\":7230:7260  timeStaked * interestPerSecond */\n      tag_393\n      jump\t// in\n    tag_397:\n        /* \"staking.sol\":7204:7260  uint256 interestsEarned = timeStaked * interestPerSecond */\n      swap8\n        /* \"staking.sol\":6936:7300  function calculateInterest (uint256 _balance, uint256 _timeStarted, uint256 _APY) internal view returns (uint256){... */\n      swap7\n      pop\n      pop\n      pop\n      pop\n      pop\n      pop\n      pop\n      jump\t// out\n        /* \"@openzeppelin/contracts/access/Ownable.sol\":2270:2457  function _transferOwnership(address newOwner) internal virtual {... */\n    tag_245:\n        /* \"@openzeppelin/contracts/access/Ownable.sol\":2343:2359  address oldOwner */\n      0x00\n        /* \"@openzeppelin/contracts/access/Ownable.sol\":2362:2368  _owner */\n      dup1\n      sload\n      sub(shl(0xa0, 0x01), 0x01)\n        /* \"@openzeppelin/contracts/access/Ownable.sol\":2378:2395  _owner = newOwner */\n      dup4\n      dup2\n      and\n      not(sub(shl(0xa0, 0x01), 0x01))\n      dup4\n      and\n      dup2\n      or\n      dup5\n      sstore\n        /* \"@openzeppelin/contracts/access/Ownable.sol\":2410:2450  OwnershipTransferred(oldOwner, newOwner) */\n      mload(0x40)\n        /* \"@openzeppelin/contracts/access/Ownable.sol\":2362:2368  _owner */\n      swap2\n      swap1\n      swap3\n      and\n      swap3\n      dup4\n      swap2\n        /* \"@openzeppelin/contracts/access/Ownable.sol\":2410:2450  OwnershipTransferred(oldOwner, newOwner) */\n      0x8be0079c531659141344cd1fd0a4f28419497f9722a3daafe3b4186f6b6457e0\n      swap2\n        /* \"@openzeppelin/contracts/access/Ownable.sol\":2343:2359  address oldOwner */\n      swap1\n        /* \"@openzeppelin/contracts/access/Ownable.sol\":2410:2450  OwnershipTransferred(oldOwner, newOwner) */\n      log3\n        /* \"@openzeppelin/contracts/access/Ownable.sol\":2333:2457  {... */\n      pop\n        /* \"@openzeppelin/contracts/access/Ownable.sol\":2270:2457  function _transferOwnership(address newOwner) internal virtual {... */\n      pop\n      jump\t// out\n        /* \"@openzeppelin/contracts/security/Pausable.sol\":1863:1978  function _pause() internal virtual whenNotPaused {... */\n    tag_253:\n        /* \"@openzeppelin/contracts/security/Pausable.sol\":1145:1149  bool */\n      0x00\n        /* \"@openzeppelin/contracts/security/Pausable.sol\":1168:1175  _paused */\n      sload\n      shl(0xa0, 0x01)\n      swap1\n      div\n      0xff\n      and\n        /* \"@openzeppelin/contracts/security/Pausable.sol\":1411:1420  !paused() */\n      iszero\n        /* \"@openzeppelin/contracts/security/Pausable.sol\":1403:1441  require(!paused(), \"Pausable: paused\") */\n      tag_401\n      jumpi\n      mload(0x40)\n      shl(0xe5, 0x461bcd)\n      dup2\n      mstore\n      0x04\n      add\n      tag_165\n      swap1\n      tag_166\n      jump\t// in\n    tag_401:\n        /* \"@openzeppelin/contracts/security/Pausable.sol\":1922:1929  _paused */\n      0x00\n        /* \"@openzeppelin/contracts/security/Pausable.sol\":1922:1936  _paused = true */\n      dup1\n      sload\n      not(shl(0xa0, 0xff))\n      and\n      shl(0xa0, 0x01)\n      or\n      swap1\n      sstore\n        /* \"@openzeppelin/contracts/security/Pausable.sol\":1951:1971  Paused(_msgSender()) */\n      0x62e78cea01bee320cd4e420270b5ea74000d11b0c9f74754ebdbfc544b05a258\n        /* \"@openzeppelin/contracts/security/Pausable.sol\":1958:1970  _msgSender() */\n      tag_388\n        /* \"@openzeppelin/contracts/utils/Context.sol\":719:729  msg.sender */\n      caller\n      swap1\n        /* \"@openzeppelin/contracts/utils/Context.sol\":640:736  function _msgSender() internal view virtual returns (address) {... */\n      jump\n        /* \"#utility.yul\":196:376   */\n    tag_50:\n        /* \"#utility.yul\":255:261   */\n      0x00\n        /* \"#utility.yul\":308:310   */\n      0x20\n        /* \"#utility.yul\":296:305   */\n      dup3\n        /* \"#utility.yul\":287:294   */\n      dup5\n        /* \"#utility.yul\":283:306   */\n      sub\n        /* \"#utility.yul\":279:311   */\n      slt\n        /* \"#utility.yul\":276:328   */\n      iszero\n      tag_412\n      jumpi\n        /* \"#utility.yul\":324:325   */\n      0x00\n        /* \"#utility.yul\":321:322   */\n      dup1\n        /* \"#utility.yul\":314:326   */\n      revert\n        /* \"#utility.yul\":276:328   */\n    tag_412:\n      pop\n        /* \"#utility.yul\":347:370   */\n      calldataload\n      swap2\n        /* \"#utility.yul\":196:376   */\n      swap1\n      pop\n      jump\t// out\n        /* \"#utility.yul\":795:968   */\n    tag_406:\n        /* \"#utility.yul\":863:883   */\n      dup1\n      calldataload\n      sub(shl(0xa0, 0x01), 0x01)\n        /* \"#utility.yul\":912:943   */\n      dup2\n      and\n        /* \"#utility.yul\":902:944   */\n      dup2\n      eq\n        /* \"#utility.yul\":892:962   */\n      tag_416\n      jumpi\n        /* \"#utility.yul\":958:959   */\n      0x00\n        /* \"#utility.yul\":955:956   */\n      dup1\n        /* \"#utility.yul\":948:960   */\n      revert\n        /* \"#utility.yul\":892:962   */\n    tag_416:\n        /* \"#utility.yul\":795:968   */\n      swap2\n      swap1\n      pop\n      jump\t// out\n        /* \"#utility.yul\":973:1159   */\n    tag_70:\n        /* \"#utility.yul\":1032:1038   */\n      0x00\n        /* \"#utility.yul\":1085:1087   */\n      0x20\n        /* \"#utility.yul\":1073:1082   */\n      dup3\n        /* \"#utility.yul\":1064:1071   */\n      dup5\n        /* \"#utility.yul\":1060:1083   */\n      sub\n        /* \"#utility.yul\":1056:1088   */\n      slt\n        /* \"#utility.yul\":1053:1105   */\n      iszero\n      tag_418\n      jumpi\n        /* \"#utility.yul\":1101:1102   */\n      0x00\n        /* \"#utility.yul\":1098:1099   */\n      dup1\n        /* \"#utility.yul\":1091:1103   */\n      revert\n        /* \"#utility.yul\":1053:1105   */\n    tag_418:\n        /* \"#utility.yul\":1124:1153   */\n      tag_237\n        /* \"#utility.yul\":1143:1152   */\n      dup3\n        /* \"#utility.yul\":1124:1153   */\n      tag_406\n      jump\t// in\n        /* \"#utility.yul\":1488:1644   */\n    tag_407:\n        /* \"#utility.yul\":1554:1574   */\n      dup1\n      calldataload\n        /* \"#utility.yul\":1614:1618   */\n      0xff\n        /* \"#utility.yul\":1603:1619   */\n      dup2\n      and\n        /* \"#utility.yul\":1593:1620   */\n      dup2\n      eq\n        /* \"#utility.yul\":1583:1638   */\n      tag_416\n      jumpi\n        /* \"#utility.yul\":1634:1635   */\n      0x00\n        /* \"#utility.yul\":1631:1632   */\n      dup1\n        /* \"#utility.yul\":1624:1636   */\n      revert\n        /* \"#utility.yul\":1649:1973   */\n    tag_90:\n        /* \"#utility.yul\":1724:1730   */\n      0x00\n        /* \"#utility.yul\":1732:1738   */\n      dup1\n        /* \"#utility.yul\":1740:1746   */\n      0x00\n        /* \"#utility.yul\":1793:1795   */\n      0x60\n        /* \"#utility.yul\":1781:1790   */\n      dup5\n        /* \"#utility.yul\":1772:1779   */\n      dup7\n        /* \"#utility.yul\":1768:1791   */\n      sub\n        /* \"#utility.yul\":1764:1796   */\n      slt\n        /* \"#utility.yul\":1761:1813   */\n      iszero\n      tag_424\n      jumpi\n        /* \"#utility.yul\":1809:1810   */\n      0x00\n        /* \"#utility.yul\":1806:1807   */\n      dup1\n        /* \"#utility.yul\":1799:1811   */\n      revert\n        /* \"#utility.yul\":1761:1813   */\n    tag_424:\n        /* \"#utility.yul\":1832:1861   */\n      tag_425\n        /* \"#utility.yul\":1851:1860   */\n      dup5\n        /* \"#utility.yul\":1832:1861   */\n      tag_406\n      jump\t// in\n    tag_425:\n        /* \"#utility.yul\":1822:1861   */\n      swap3\n      pop\n        /* \"#utility.yul\":1880:1916   */\n      tag_426\n        /* \"#utility.yul\":1912:1914   */\n      0x20\n        /* \"#utility.yul\":1901:1910   */\n      dup6\n        /* \"#utility.yul\":1897:1915   */\n      add\n        /* \"#utility.yul\":1880:1916   */\n      tag_407\n      jump\t// in\n    tag_426:\n        /* \"#utility.yul\":1870:1916   */\n      swap2\n      pop\n        /* \"#utility.yul\":1963:1965   */\n      0x40\n        /* \"#utility.yul\":1952:1961   */\n      dup5\n        /* \"#utility.yul\":1948:1966   */\n      add\n        /* \"#utility.yul\":1935:1967   */\n      calldataload\n        /* \"#utility.yul\":1925:1967   */\n      swap1\n      pop\n        /* \"#utility.yul\":1649:1973   */\n      swap3\n      pop\n      swap3\n      pop\n      swap3\n      jump\t// out\n        /* \"#utility.yul\":2186:2502   */\n    tag_145:\n        /* \"#utility.yul\":2263:2269   */\n      0x00\n        /* \"#utility.yul\":2271:2277   */\n      dup1\n        /* \"#utility.yul\":2279:2285   */\n      0x00\n        /* \"#utility.yul\":2332:2334   */\n      0x60\n        /* \"#utility.yul\":2320:2329   */\n      dup5\n        /* \"#utility.yul\":2311:2318   */\n      dup7\n        /* \"#utility.yul\":2307:2330   */\n      sub\n        /* \"#utility.yul\":2303:2335   */\n      slt\n        /* \"#utility.yul\":2300:2352   */\n      iszero\n      tag_429\n      jumpi\n        /* \"#utility.yul\":2348:2349   */\n      0x00\n        /* \"#utility.yul\":2345:2346   */\n      dup1\n        /* \"#utility.yul\":2338:2350   */\n      revert\n        /* \"#utility.yul\":2300:2352   */\n    tag_429:\n      pop\n      pop\n        /* \"#utility.yul\":2371:2394   */\n      dup2\n      calldataload\n      swap4\n        /* \"#utility.yul\":2441:2443   */\n      0x20\n        /* \"#utility.yul\":2426:2444   */\n      dup4\n      add\n        /* \"#utility.yul\":2413:2445   */\n      calldataload\n      swap4\n      pop\n        /* \"#utility.yul\":2492:2494   */\n      0x40\n        /* \"#utility.yul\":2477:2495   */\n      swap1\n      swap3\n      add\n        /* \"#utility.yul\":2464:2496   */\n      calldataload\n      swap2\n        /* \"#utility.yul\":2186:2502   */\n      swap1\n      pop\n      jump\t// out\n        /* \"#utility.yul\":2507:3030   */\n    tag_152:\n        /* \"#utility.yul\":2611:2617   */\n      0x00\n        /* \"#utility.yul\":2619:2625   */\n      dup1\n        /* \"#utility.yul\":2627:2633   */\n      0x00\n        /* \"#utility.yul\":2635:2641   */\n      dup1\n        /* \"#utility.yul\":2643:2649   */\n      0x00\n        /* \"#utility.yul\":2651:2657   */\n      dup1\n        /* \"#utility.yul\":2704:2707   */\n      0xc0\n        /* \"#utility.yul\":2692:2701   */\n      dup8\n        /* \"#utility.yul\":2683:2690   */\n      dup10\n        /* \"#utility.yul\":2679:2702   */\n      sub\n        /* \"#utility.yul\":2675:2708   */\n      slt\n        /* \"#utility.yul\":2672:2725   */\n      iszero\n      tag_431\n      jumpi\n        /* \"#utility.yul\":2721:2722   */\n      0x00\n        /* \"#utility.yul\":2718:2719   */\n      dup1\n        /* \"#utility.yul\":2711:2723   */\n      revert\n        /* \"#utility.yul\":2672:2725   */\n    tag_431:\n      pop\n      pop\n        /* \"#utility.yul\":2744:2767   */\n      dup5\n      calldataload\n      swap7\n        /* \"#utility.yul\":2814:2816   */\n      0x20\n        /* \"#utility.yul\":2799:2817   */\n      dup7\n      add\n        /* \"#utility.yul\":2786:2818   */\n      calldataload\n      swap7\n      pop\n        /* \"#utility.yul\":2865:2867   */\n      0x40\n        /* \"#utility.yul\":2850:2868   */\n      dup7\n      add\n        /* \"#utility.yul\":2837:2869   */\n      calldataload\n      swap6\n        /* \"#utility.yul\":2916:2918   */\n      0x60\n        /* \"#utility.yul\":2901:2919   */\n      dup2\n      add\n        /* \"#utility.yul\":2888:2920   */\n      calldataload\n      swap6\n      pop\n        /* \"#utility.yul\":2967:2970   */\n      0x80\n        /* \"#utility.yul\":2952:2971   */\n      dup2\n      add\n        /* \"#utility.yul\":2939:2972   */\n      calldataload\n      swap5\n      pop\n        /* \"#utility.yul\":3019:3022   */\n      0xa0\n        /* \"#utility.yul\":3004:3023   */\n      add\n        /* \"#utility.yul\":2991:3024   */\n      calldataload\n      swap3\n      pop\n        /* \"#utility.yul\":2507:3030   */\n      swap1\n      pop\n      jump\t// out\n        /* \"#utility.yul\":3035:3291   */\n    tag_156:\n        /* \"#utility.yul\":3101:3107   */\n      0x00\n        /* \"#utility.yul\":3109:3115   */\n      dup1\n        /* \"#utility.yul\":3162:3164   */\n      0x40\n        /* \"#utility.yul\":3150:3159   */\n      dup4\n        /* \"#utility.yul\":3141:3148   */\n      dup6\n        /* \"#utility.yul\":3137:3160   */\n      sub\n        /* \"#utility.yul\":3133:3165   */\n      slt\n        /* \"#utility.yul\":3130:3182   */\n      iszero\n      tag_433\n      jumpi\n        /* \"#utility.yul\":3178:3179   */\n      0x00\n        /* \"#utility.yul\":3175:3176   */\n      dup1\n        /* \"#utility.yul\":3168:3180   */\n      revert\n        /* \"#utility.yul\":3130:3182   */\n    tag_433:\n        /* \"#utility.yul\":3201:3230   */\n      tag_434\n        /* \"#utility.yul\":3220:3229   */\n      dup4\n        /* \"#utility.yul\":3201:3230   */\n      tag_406\n      jump\t// in\n    tag_434:\n        /* \"#utility.yul\":3191:3230   */\n      swap2\n      pop\n        /* \"#utility.yul\":3249:3285   */\n      tag_435\n        /* \"#utility.yul\":3281:3283   */\n      0x20\n        /* \"#utility.yul\":3270:3279   */\n      dup5\n        /* \"#utility.yul\":3266:3284   */\n      add\n        /* \"#utility.yul\":3249:3285   */\n      tag_407\n      jump\t// in\n    tag_435:\n        /* \"#utility.yul\":3239:3285   */\n      swap1\n      pop\n        /* \"#utility.yul\":3035:3291   */\n      swap3\n      pop\n      swap3\n      swap1\n      pop\n      jump\t// out\n        /* \"#utility.yul\":3296:3636   */\n    tag_166:\n        /* \"#utility.yul\":3498:3500   */\n      0x20\n        /* \"#utility.yul\":3480:3501   */\n      dup1\n      dup3\n      mstore\n        /* \"#utility.yul\":3537:3539   */\n      0x10\n        /* \"#utility.yul\":3517:3535   */\n      swap1\n      dup3\n      add\n        /* \"#utility.yul\":3510:3540   */\n      mstore\n      shl(0x82, 0x14185d5cd8589b194e881c185d5cd959)\n        /* \"#utility.yul\":3571:3573   */\n      0x40\n        /* \"#utility.yul\":3556:3574   */\n      dup3\n      add\n        /* \"#utility.yul\":3549:3595   */\n      mstore\n        /* \"#utility.yul\":3627:3629   */\n      0x60\n        /* \"#utility.yul\":3612:3630   */\n      add\n      swap1\n        /* \"#utility.yul\":3296:3636   */\n      jump\t// out\n        /* \"#utility.yul\":3641:4055   */\n    tag_171:\n        /* \"#utility.yul\":3843:3845   */\n      0x20\n        /* \"#utility.yul\":3825:3846   */\n      dup1\n      dup3\n      mstore\n        /* \"#utility.yul\":3882:3884   */\n      0x32\n        /* \"#utility.yul\":3862:3880   */\n      swap1\n      dup3\n      add\n        /* \"#utility.yul\":3855:3885   */\n      mstore\n        /* \"#utility.yul\":3921:3955   */\n      0x416d6f756e74206e6565647320746f206265206d6f7265207468616e206d696e\n        /* \"#utility.yul\":3916:3918   */\n      0x40\n        /* \"#utility.yul\":3901:3919   */\n      dup3\n      add\n        /* \"#utility.yul\":3894:3956   */\n      mstore\n      shl(0x73, 0x040c2dcc840d8cae6e640e8d0c2dc40dac2f)\n        /* \"#utility.yul\":3987:3989   */\n      0x60\n        /* \"#utility.yul\":3972:3990   */\n      dup3\n      add\n        /* \"#utility.yul\":3965:4013   */\n      mstore\n        /* \"#utility.yul\":4045:4048   */\n      0x80\n        /* \"#utility.yul\":4030:4049   */\n      add\n      swap1\n        /* \"#utility.yul\":3641:4055   */\n      jump\t// out\n        /* \"#utility.yul\":4060:4458   */\n    tag_174:\n        /* \"#utility.yul\":4262:4264   */\n      0x20\n        /* \"#utility.yul\":4244:4265   */\n      dup1\n      dup3\n      mstore\n        /* \"#utility.yul\":4301:4303   */\n      0x22\n        /* \"#utility.yul\":4281:4299   */\n      swap1\n      dup3\n      add\n        /* \"#utility.yul\":4274:4304   */\n      mstore\n        /* \"#utility.yul\":4340:4374   */\n      0x596f7527726520616c726561647920696e2074686973205374616b65206c6576\n        /* \"#utility.yul\":4335:4337   */\n      0x40\n        /* \"#utility.yul\":4320:4338   */\n      dup3\n      add\n        /* \"#utility.yul\":4313:4375   */\n      mstore\n      shl(0xf2, 0x195b)\n        /* \"#utility.yul\":4406:4408   */\n      0x60\n        /* \"#utility.yul\":4391:4409   */\n      dup3\n      add\n        /* \"#utility.yul\":4384:4416   */\n      mstore\n        /* \"#utility.yul\":4448:4451   */\n      0x80\n        /* \"#utility.yul\":4433:4452   */\n      add\n      swap1\n        /* \"#utility.yul\":4060:4458   */\n      jump\t// out\n        /* \"#utility.yul\":4463:4838   */\n    tag_176:\n      sub(shl(0xa0, 0x01), 0x01)\n        /* \"#utility.yul\":4721:4736   */\n      swap4\n      dup5\n      and\n        /* \"#utility.yul\":4703:4737   */\n      dup2\n      mstore\n        /* \"#utility.yul\":4773:4788   */\n      swap2\n      swap1\n      swap3\n      and\n        /* \"#utility.yul\":4768:4770   */\n      0x20\n        /* \"#utility.yul\":4753:4771   */\n      dup3\n      add\n        /* \"#utility.yul\":4746:4789   */\n      mstore\n        /* \"#utility.yul\":4820:4822   */\n      0x40\n        /* \"#utility.yul\":4805:4823   */\n      dup2\n      add\n        /* \"#utility.yul\":4798:4832   */\n      swap2\n      swap1\n      swap2\n      mstore\n        /* \"#utility.yul\":4653:4655   */\n      0x60\n        /* \"#utility.yul\":4638:4656   */\n      add\n      swap1\n        /* \"#utility.yul\":4463:4838   */\n      jump\t// out\n        /* \"#utility.yul\":4843:5120   */\n    tag_180:\n        /* \"#utility.yul\":4910:4916   */\n      0x00\n        /* \"#utility.yul\":4963:4965   */\n      0x20\n        /* \"#utility.yul\":4951:4960   */\n      dup3\n        /* \"#utility.yul\":4942:4949   */\n      dup5\n        /* \"#utility.yul\":4938:4961   */\n      sub\n        /* \"#utility.yul\":4934:4966   */\n      slt\n        /* \"#utility.yul\":4931:4983   */\n      iszero\n      tag_441\n      jumpi\n        /* \"#utility.yul\":4979:4980   */\n      0x00\n        /* \"#utility.yul\":4976:4977   */\n      dup1\n        /* \"#utility.yul\":4969:4981   */\n      revert\n        /* \"#utility.yul\":4931:4983   */\n    tag_441:\n        /* \"#utility.yul\":5011:5020   */\n      dup2\n        /* \"#utility.yul\":5005:5021   */\n      mload\n        /* \"#utility.yul\":5064:5069   */\n      dup1\n        /* \"#utility.yul\":5057:5070   */\n      iszero\n        /* \"#utility.yul\":5050:5071   */\n      iszero\n        /* \"#utility.yul\":5043:5048   */\n      dup2\n        /* \"#utility.yul\":5040:5072   */\n      eq\n        /* \"#utility.yul\":5030:5090   */\n      tag_237\n      jumpi\n        /* \"#utility.yul\":5086:5087   */\n      0x00\n        /* \"#utility.yul\":5083:5084   */\n      dup1\n        /* \"#utility.yul\":5076:5088   */\n      revert\n        /* \"#utility.yul\":5125:5252   */\n    tag_408:\n        /* \"#utility.yul\":5186:5196   */\n      0x4e487b71\n        /* \"#utility.yul\":5181:5184   */\n      0xe0\n        /* \"#utility.yul\":5177:5197   */\n      shl\n        /* \"#utility.yul\":5174:5175   */\n      0x00\n        /* \"#utility.yul\":5167:5198   */\n      mstore\n        /* \"#utility.yul\":5217:5221   */\n      0x11\n        /* \"#utility.yul\":5214:5215   */\n      0x04\n        /* \"#utility.yul\":5207:5222   */\n      mstore\n        /* \"#utility.yul\":5241:5245   */\n      0x24\n        /* \"#utility.yul\":5238:5239   */\n      0x00\n        /* \"#utility.yul\":5231:5246   */\n      revert\n        /* \"#utility.yul\":5257:5385   */\n    tag_182:\n        /* \"#utility.yul\":5297:5300   */\n      0x00\n        /* \"#utility.yul\":5328:5329   */\n      dup3\n        /* \"#utility.yul\":5324:5330   */\n      not\n        /* \"#utility.yul\":5321:5322   */\n      dup3\n        /* \"#utility.yul\":5318:5331   */\n      gt\n        /* \"#utility.yul\":5315:5354   */\n      iszero\n      tag_446\n      jumpi\n        /* \"#utility.yul\":5334:5352   */\n      tag_446\n      tag_408\n      jump\t// in\n    tag_446:\n      pop\n        /* \"#utility.yul\":5370:5379   */\n      add\n      swap1\n        /* \"#utility.yul\":5257:5385   */\n      jump\t// out\n        /* \"#utility.yul\":5901:6257   */\n    tag_192:\n        /* \"#utility.yul\":6103:6105   */\n      0x20\n        /* \"#utility.yul\":6085:6106   */\n      dup1\n      dup3\n      mstore\n        /* \"#utility.yul\":6122:6140   */\n      dup2\n      dup2\n      add\n        /* \"#utility.yul\":6115:6145   */\n      mstore\n        /* \"#utility.yul\":6181:6215   */\n      0x4f776e61626c653a2063616c6c6572206973206e6f7420746865206f776e6572\n        /* \"#utility.yul\":6176:6178   */\n      0x40\n        /* \"#utility.yul\":6161:6179   */\n      dup3\n      add\n        /* \"#utility.yul\":6154:6216   */\n      mstore\n        /* \"#utility.yul\":6248:6250   */\n      0x60\n        /* \"#utility.yul\":6233:6251   */\n      add\n      swap1\n        /* \"#utility.yul\":5901:6257   */\n      jump\t// out\n        /* \"#utility.yul\":6606:6960   */\n    tag_203:\n        /* \"#utility.yul\":6808:6810   */\n      0x20\n        /* \"#utility.yul\":6790:6811   */\n      dup1\n      dup3\n      mstore\n        /* \"#utility.yul\":6847:6849   */\n      0x1e\n        /* \"#utility.yul\":6827:6845   */\n      swap1\n      dup3\n      add\n        /* \"#utility.yul\":6820:6850   */\n      mstore\n        /* \"#utility.yul\":6886:6918   */\n      0x4e6f7420656e6f7567682062616c616e636520746f2077697468647261770000\n        /* \"#utility.yul\":6881:6883   */\n      0x40\n        /* \"#utility.yul\":6866:6884   */\n      dup3\n      add\n        /* \"#utility.yul\":6859:6919   */\n      mstore\n        /* \"#utility.yul\":6951:6953   */\n      0x60\n        /* \"#utility.yul\":6936:6954   */\n      add\n      swap1\n        /* \"#utility.yul\":6606:6960   */\n      jump\t// out\n        /* \"#utility.yul\":6965:7090   */\n    tag_209:\n        /* \"#utility.yul\":7005:7009   */\n      0x00\n        /* \"#utility.yul\":7033:7034   */\n      dup3\n        /* \"#utility.yul\":7030:7031   */\n      dup3\n        /* \"#utility.yul\":7027:7035   */\n      lt\n        /* \"#utility.yul\":7024:7058   */\n      iszero\n      tag_453\n      jumpi\n        /* \"#utility.yul\":7038:7056   */\n      tag_453\n      tag_408\n      jump\t// in\n    tag_453:\n      pop\n        /* \"#utility.yul\":7075:7084   */\n      sub\n      swap1\n        /* \"#utility.yul\":6965:7090   */\n      jump\t// out\n        /* \"#utility.yul\":7374:7890   */\n    tag_226:\n      sub(shl(0xa0, 0x01), 0x01)\n        /* \"#utility.yul\":7651:7683   */\n      swap6\n      swap1\n      swap6\n      and\n        /* \"#utility.yul\":7633:7684   */\n      dup6\n      mstore\n        /* \"#utility.yul\":7732:7736   */\n      0xff\n        /* \"#utility.yul\":7720:7737   */\n      swap4\n      swap1\n      swap4\n      and\n        /* \"#utility.yul\":7715:7717   */\n      0x20\n        /* \"#utility.yul\":7700:7718   */\n      dup6\n      add\n        /* \"#utility.yul\":7693:7738   */\n      mstore\n        /* \"#utility.yul\":7781:7795   */\n      swap1\n      iszero\n        /* \"#utility.yul\":7774:7796   */\n      iszero\n        /* \"#utility.yul\":7769:7771   */\n      0x40\n        /* \"#utility.yul\":7754:7772   */\n      dup5\n      add\n        /* \"#utility.yul\":7747:7797   */\n      mstore\n        /* \"#utility.yul\":7828:7830   */\n      0x60\n        /* \"#utility.yul\":7813:7831   */\n      dup4\n      add\n        /* \"#utility.yul\":7806:7840   */\n      mstore\n        /* \"#utility.yul\":7871:7874   */\n      0x80\n        /* \"#utility.yul\":7856:7875   */\n      dup3\n      add\n        /* \"#utility.yul\":7849:7884   */\n      mstore\n        /* \"#utility.yul\":7620:7623   */\n      0xa0\n        /* \"#utility.yul\":7605:7624   */\n      add\n      swap1\n        /* \"#utility.yul\":7374:7890   */\n      jump\t// out\n        /* \"#utility.yul\":11777:11945   */\n    tag_393:\n        /* \"#utility.yul\":11817:11824   */\n      0x00\n        /* \"#utility.yul\":11883:11884   */\n      dup2\n        /* \"#utility.yul\":11879:11880   */\n      0x00\n        /* \"#utility.yul\":11875:11881   */\n      not\n        /* \"#utility.yul\":11871:11885   */\n      div\n        /* \"#utility.yul\":11868:11869   */\n      dup4\n        /* \"#utility.yul\":11865:11886   */\n      gt\n        /* \"#utility.yul\":11860:11861   */\n      dup3\n        /* \"#utility.yul\":11853:11862   */\n      iszero\n        /* \"#utility.yul\":11846:11863   */\n      iszero\n        /* \"#utility.yul\":11842:11887   */\n      and\n        /* \"#utility.yul\":11839:11910   */\n      iszero\n      tag_467\n      jumpi\n        /* \"#utility.yul\":11890:11908   */\n      tag_467\n      tag_408\n      jump\t// in\n    tag_467:\n      pop\n        /* \"#utility.yul\":11930:11939   */\n      mul\n      swap1\n        /* \"#utility.yul\":11777:11945   */\n      jump\t// out\n        /* \"#utility.yul\":11950:12167   */\n    tag_395:\n        /* \"#utility.yul\":11990:11991   */\n      0x00\n        /* \"#utility.yul\":12016:12017   */\n      dup3\n        /* \"#utility.yul\":12006:12138   */\n      tag_469\n      jumpi\n        /* \"#utility.yul\":12060:12070   */\n      0x4e487b71\n        /* \"#utility.yul\":12055:12058   */\n      0xe0\n        /* \"#utility.yul\":12051:12071   */\n      shl\n        /* \"#utility.yul\":12048:12049   */\n      0x00\n        /* \"#utility.yul\":12041:12072   */\n      mstore\n        /* \"#utility.yul\":12095:12099   */\n      0x12\n        /* \"#utility.yul\":12092:12093   */\n      0x04\n        /* \"#utility.yul\":12085:12100   */\n      mstore\n        /* \"#utility.yul\":12123:12127   */\n      0x24\n        /* \"#utility.yul\":12120:12121   */\n      0x00\n        /* \"#utility.yul\":12113:12128   */\n      revert\n        /* \"#utility.yul\":12006:12138   */\n    tag_469:\n      pop\n        /* \"#utility.yul\":12152:12161   */\n      div\n      swap1\n        /* \"#utility.yul\":11950:12167   */\n      jump\t// out\n\n    auxdata: 0xa2646970667358221220b1817615e6b3db0d0d7b1b78f19962be2cc09238ad00b903b554a0599706815564736f6c634300080b0033\n}\n",
				"bytecode": {
					"linkReferences": {},
					"object": "6080604052610a8c600255610e746003556112c06004556802b5e3af16b18800006005556b019d971e4fe8401e7400000060065568056bc75e2d631000006007556b019d971e4fe8401e74000000600855680ad78ebc5ac62000006009556b0813f3978f89409844000000600a553480156200007a57600080fd5b5060405162001d4138038062001d418339810160408190526200009d9162000154565b620000a833620000e7565b6000805460ff60a01b19169055600180546001600160a01b039384166001600160a01b031991821617909155600b80549290931691161790556200018c565b600080546001600160a01b038381166001600160a01b0319831681178455604051919092169283917f8be0079c531659141344cd1fd0a4f28419497f9722a3daafe3b4186f6b6457e09190a35050565b80516001600160a01b03811681146200014f57600080fd5b919050565b600080604083850312156200016857600080fd5b620001738362000137565b9150620001836020840162000137565b90509250929050565b611ba5806200019c6000396000f3fe608060405234801561001057600080fd5b50600436106102065760003560e01c806384203f4b1161011a578063bf01651a116100ad578063e5d157011161007c578063e5d157011461048c578063f2fde38b1461049f578063f4217e1e146104b2578063f7edf9ab146104c5578063fe2981b5146104d857600080fd5b8063bf01651a1461044a578063d3900a521461045d578063d72b11bd14610466578063dda4fa8f1461047957600080fd5b806391789cef116100e957806391789cef146103ec578063927e5998146103f557806397e9c5fe14610408578063bb6648641461043757600080fd5b806384203f4b146103a75780638456cb59146103ca5780638da5cb5b146103d25780638f0fb2b7146103e357600080fd5b8063635ef2851161019d57806369e068481161016c57806369e068481461034b578063715018a61461035e57806371a1609b146103665780637fe509d71461036f5780638275b1811461039e57600080fd5b8063635ef285146102c25780636505cf31146102e55780636636389e146102ee57806367911ba41461030157600080fd5b80633f4ba83a116101d95780633f4ba83a1461024e578063451c3d80146102565780635c975abb146102815780636296e7501461029f57600080fd5b806301ef47391461020b5780631ed81ff8146102275780631ff08fee1461023c57806332938e3a14610245575b600080fd5b61021460075481565b6040519081526020015b60405180910390f35b61023a610235366004611809565b6104eb565b005b61021460035481565b61021460045481565b61023a6106e8565b600154610269906001600160a01b031681565b6040516001600160a01b03909116815260200161021e565b600054600160a01b900460ff165b604051901515815260200161021e565b61028f6102ad36600461183e565b600c6020526000908152604090205460ff1681565b61028f6102d036600461183e565b600e6020526000908152604090205460ff1681565b61021460055481565b61023a6102fc366004611809565b61071c565b61033061030f36600461183e565b600d6020526000908152604090208054600182015460029092015490919083565b6040805193845260208401929092529082015260600161021e565b61021461035936600461186a565b6109fb565b61023a610ab4565b61021460065481565b61033061037d36600461183e565b600f6020526000908152604090208054600182015460029092015490919083565b61021460025481565b61028f6103b536600461183e565b60106020526000908152604090205460ff1681565b61023a610ae8565b6000546001600160a01b0316610269565b610214600a5481565b61021460095481565b61023a610403366004611809565b610b1a565b61033061041636600461183e565b60116020526000908152604090208054600182015460029092015490919083565b61023a610445366004611809565b610df1565b61023a610458366004611809565b6110c8565b61021460085481565b600b54610269906001600160a01b031681565b61023a61048736600461183e565b6112ab565b61023a61049a3660046118a6565b6112f7565b61023a6104ad36600461183e565b61132f565b61023a6104c03660046118d2565b6113ca565b61028f6104d3366004611915565b611411565b61023a6104e6366004611809565b6114b0565b600054600160a01b900460ff161561051e5760405162461bcd60e51b815260040161051590611948565b60405180910390fd5b600854811115801561053257506007548110155b61054e5760405162461bcd60e51b815260040161051590611972565b336000818152600e602052604090205460ff161561057e5760405162461bcd60e51b8152600401610515906119c4565b6001546040516323b872dd60e01b81526001600160a01b03909116906323b872dd906105b290849030908790600401611a06565b6020604051808303816000875af11580156105d1573d6000803e3d6000fd5b505050506040513d601f19601f820116820180604052508101906105f59190611a2a565b506001600160a01b0381166000908152600e6020908152604091829020805460ff19166001179055815160608101835284815242918101829052918201906106409062278d00611a62565b90526001600160a01b0382166000908152600f6020908152604091829020835181559083015160018083019190915592909101516002909101557f17849bb8c713de96b48f218d3bacc9af082261c3ccc7c6dccebe70e667b22f2390829084426106ad8162278d00611a62565b604080516001600160a01b03909616865260ff9094166020860152928401919091526060830152608082015260a00160405180910390a15050565b6000546001600160a01b031633146107125760405162461bcd60e51b815260040161051590611a7a565b61071a611667565b565b3360008181526010602052604090205460ff1661076d5760405162461bcd60e51b815260206004820152600f60248201526e055736572206973206e6f742056697608c1b6044820152606401610515565b6001600160a01b038116600090815260116020526040902054828110156107a65760405162461bcd60e51b815260040161051590611aaf565b60006107b3836002611411565b905060006107c3846002876109fb565b90508285141561080c576001600160a01b03841660009081526011602090815260408083208381556001810184905560020183905560109091529020805460ff1916905561083a565b6001600160a01b03841660009081526011602052604081208054879290610834908490611ae6565b90915550505b81156109395760015460405163a9059cbb60e01b81526001600160a01b038681166004830152602482018890529091169063a9059cbb906044016020604051808303816000875af1158015610893573d6000803e3d6000fd5b505050506040513d601f19601f820116820180604052508101906108b79190611a2a565b50600154600b546040516323b872dd60e01b81526001600160a01b03928316926323b872dd926108f09291169088908690600401611a06565b6020604051808303816000875af115801561090f573d6000803e3d6000fd5b505050506040513d601f19601f820116820180604052508101906109339190611a2a565b506109b4565b5060015460405163a9059cbb60e01b81526001600160a01b03858116600483015260248201879052600092169063a9059cbb906044016020604051808303816000875af115801561098e573d6000803e3d6000fd5b505050506040513d601f19601f820116820180604052508101906109b29190611a2a565b505b7fa3dff5863d601223d9b31a0253b97a6c2085daca56089b92836b4b6a1991e04b8460028488856040516109ec959493929190611afd565b60405180910390a15050505050565b600060ff8316610a39576001600160a01b0384166000908152600d6020526040902060010154600254610a319084908390611704565b915050610aad565b8260ff1660011415610a71576001600160a01b0384166000908152600f6020526040902060010154600354610a319084908390611704565b8260ff1660021415610aa9576001600160a01b038416600090815260116020526040902060010154600454610a319084908390611704565b5060005b9392505050565b6000546001600160a01b03163314610ade5760405162461bcd60e51b815260040161051590611a7a565b61071a6000611754565b6000546001600160a01b03163314610b125760405162461bcd60e51b815260040161051590611a7a565b61071a6117a4565b336000818152600c602052604090205460ff16610b725760405162461bcd60e51b8152602060048201526016602482015275055736572206973206e6f74206f6e204c6576656c20360541b6044820152606401610515565b6001600160a01b0381166000908152600d602052604090205482811015610bab5760405162461bcd60e51b815260040161051590611aaf565b6000610bb8836000611411565b90506000610bc8846000876109fb565b905082851415610c11576001600160a01b0384166000908152600d6020908152604080832083815560018101849055600201839055600c9091529020805460ff19169055610c3f565b6001600160a01b0384166000908152600d602052604081208054879290610c39908490611ae6565b90915550505b8115610d3e5760015460405163a9059cbb60e01b81526001600160a01b038681166004830152602482018890529091169063a9059cbb906044016020604051808303816000875af1158015610c98573d6000803e3d6000fd5b505050506040513d601f19601f82011682018060405250810190610cbc9190611a2a565b50600154600b546040516323b872dd60e01b81526001600160a01b03928316926323b872dd92610cf59291169088908690600401611a06565b6020604051808303816000875af1158015610d14573d6000803e3d6000fd5b505050506040513d601f19601f82011682018060405250810190610d389190611a2a565b50610db9565b5060015460405163a9059cbb60e01b81526001600160a01b03858116600483015260248201879052600092169063a9059cbb906044016020604051808303816000875af1158015610d93573d6000803e3d6000fd5b505050506040513d601f19601f82011682018060405250810190610db79190611a2a565b505b7fa3dff5863d601223d9b31a0253b97a6c2085daca56089b92836b4b6a1991e04b8460008488856040516109ec959493929190611afd565b336000818152600e602052604090205460ff16610e495760405162461bcd60e51b815260206004820152601660248201527555736572206973206e6f74206f6e204c6576656c203160501b6044820152606401610515565b6001600160a01b0381166000908152600f602052604090205482811015610e825760405162461bcd60e51b815260040161051590611aaf565b6000610e8f836001611411565b90506000610e9f846001876109fb565b905082851415610ee8576001600160a01b0384166000908152600f6020908152604080832083815560018101849055600201839055600e9091529020805460ff19169055610f16565b6001600160a01b0384166000908152600f602052604081208054879290610f10908490611ae6565b90915550505b81156110155760015460405163a9059cbb60e01b81526001600160a01b038681166004830152602482018890529091169063a9059cbb906044016020604051808303816000875af1158015610f6f573d6000803e3d6000fd5b505050506040513d601f19601f82011682018060405250810190610f939190611a2a565b50600154600b546040516323b872dd60e01b81526001600160a01b03928316926323b872dd92610fcc9291169088908690600401611a06565b6020604051808303816000875af1158015610feb573d6000803e3d6000fd5b505050506040513d601f19601f8201168201806040525081019061100f9190611a2a565b50611090565b5060015460405163a9059cbb60e01b81526001600160a01b03858116600483015260248201879052600092169063a9059cbb906044016020604051808303816000875af115801561106a573d6000803e3d6000fd5b505050506040513d601f19601f8201168201806040525081019061108e9190611a2a565b505b7fa3dff5863d601223d9b31a0253b97a6c2085daca56089b92836b4b6a1991e04b8460018488856040516109ec959493929190611afd565b600054600160a01b900460ff16156110f25760405162461bcd60e51b815260040161051590611948565b600a54811115801561110657506009548110155b6111225760405162461bcd60e51b815260040161051590611972565b3360008181526010602052604090205460ff16156111825760405162461bcd60e51b815260206004820152601f60248201527f596f7527726520616c726561647920696e2074686520566970205374616b65006044820152606401610515565b6001546040516323b872dd60e01b81526001600160a01b03909116906323b872dd906111b690849030908790600401611a06565b6020604051808303816000875af11580156111d5573d6000803e3d6000fd5b505050506040513d601f19601f820116820180604052508101906111f99190611a2a565b506001600160a01b038116600090815260106020908152604091829020805460ff1916600117905581516060810183528481524291810182905291820190611244906276a700611a62565b90526001600160a01b038216600090815260116020908152604091829020835181559083015160018201559101516002918201557f17849bb8c713de96b48f218d3bacc9af082261c3ccc7c6dccebe70e667b22f2390829084426106ad816276a700611a62565b6000546001600160a01b031633146112d55760405162461bcd60e51b815260040161051590611a7a565b600b80546001600160a01b0319166001600160a01b0392909216919091179055565b6000546001600160a01b031633146113215760405162461bcd60e51b815260040161051590611a7a565b600292909255600355600455565b6000546001600160a01b031633146113595760405162461bcd60e51b815260040161051590611a7a565b6001600160a01b0381166113be5760405162461bcd60e51b815260206004820152602660248201527f4f776e61626c653a206e6577206f776e657220697320746865207a65726f206160448201526564647265737360d01b6064820152608401610515565b6113c781611754565b50565b6000546001600160a01b031633146113f45760405162461bcd60e51b815260040161051590611a7a565b600595909555600693909355600791909155600855600955600a55565b60008060ff831661143e57506001600160a01b0383166000908152600d60205260409020600201546114a4565b8260ff166001141561146c57506001600160a01b0383166000908152600f60205260409020600201546114a4565b8260ff166002141561149a57506001600160a01b0383166000908152601160205260409020600201546114a4565b60009150506114aa565b42101590505b92915050565b600054600160a01b900460ff16156114da5760405162461bcd60e51b815260040161051590611948565b60065481111580156114ee57506005548110155b61150a5760405162461bcd60e51b815260040161051590611972565b336000818152600c602052604090205460ff161561153a5760405162461bcd60e51b8152600401610515906119c4565b6001546040516323b872dd60e01b81526001600160a01b03909116906323b872dd9061156e90849030908790600401611a06565b6020604051808303816000875af115801561158d573d6000803e3d6000fd5b505050506040513d601f19601f820116820180604052508101906115b19190611a2a565b506001600160a01b0381166000908152600c6020908152604091829020805460ff19166001179055815160608101835284815242918101829052918201906115fc9062093a80611a62565b90526001600160a01b0382166000908152600d602090815260408083208451815591840151600183015592909201516002909201919091557f17849bb8c713de96b48f218d3bacc9af082261c3ccc7c6dccebe70e667b22f2390829084426106ad8162093a80611a62565b600054600160a01b900460ff166116b75760405162461bcd60e51b815260206004820152601460248201527314185d5cd8589b194e881b9bdd081c185d5cd95960621b6044820152606401610515565b6000805460ff60a01b191690557f5db9ee0a495bf2e6ff9c91a7834c1ba4fdd244a5e8aa4e537bd38aeae4b073aa335b6040516001600160a01b03909116815260200160405180910390a1565b6000806117118442611ae6565b905060006301e133806127106117278689611b2e565b6117319190611b4d565b61173b9190611b4d565b905060006117498284611b2e565b979650505050505050565b600080546001600160a01b038381166001600160a01b0319831681178455604051919092169283917f8be0079c531659141344cd1fd0a4f28419497f9722a3daafe3b4186f6b6457e09190a35050565b600054600160a01b900460ff16156117ce5760405162461bcd60e51b815260040161051590611948565b6000805460ff60a01b1916600160a01b1790557f62e78cea01bee320cd4e420270b5ea74000d11b0c9f74754ebdbfc544b05a2586116e73390565b60006020828403121561181b57600080fd5b5035919050565b80356001600160a01b038116811461183957600080fd5b919050565b60006020828403121561185057600080fd5b610aad82611822565b803560ff8116811461183957600080fd5b60008060006060848603121561187f57600080fd5b61188884611822565b925061189660208501611859565b9150604084013590509250925092565b6000806000606084860312156118bb57600080fd5b505081359360208301359350604090920135919050565b60008060008060008060c087890312156118eb57600080fd5b505084359660208601359650604086013595606081013595506080810135945060a0013592509050565b6000806040838503121561192857600080fd5b61193183611822565b915061193f60208401611859565b90509250929050565b60208082526010908201526f14185d5cd8589b194e881c185d5cd95960821b604082015260600190565b60208082526032908201527f416d6f756e74206e6565647320746f206265206d6f7265207468616e206d696e604082015271040c2dcc840d8cae6e640e8d0c2dc40dac2f60731b606082015260800190565b60208082526022908201527f596f7527726520616c726561647920696e2074686973205374616b65206c6576604082015261195b60f21b606082015260800190565b6001600160a01b039384168152919092166020820152604081019190915260600190565b600060208284031215611a3c57600080fd5b81518015158114610aad57600080fd5b634e487b7160e01b600052601160045260246000fd5b60008219821115611a7557611a75611a4c565b500190565b6020808252818101527f4f776e61626c653a2063616c6c6572206973206e6f7420746865206f776e6572604082015260600190565b6020808252601e908201527f4e6f7420656e6f7567682062616c616e636520746f2077697468647261770000604082015260600190565b600082821015611af857611af8611a4c565b500390565b6001600160a01b0395909516855260ff93909316602085015290151560408401526060830152608082015260a00190565b6000816000190483118215151615611b4857611b48611a4c565b500290565b600082611b6a57634e487b7160e01b600052601260045260246000fd5b50049056fea2646970667358221220b1817615e6b3db0d0d7b1b78f19962be2cc09238ad00b903b554a0599706815564736f6c634300080b0033",
					"opcodes": "PUSH1 0x80 PUSH1 0x40 MSTORE PUSH2 0xA8C PUSH1 0x2 SSTORE PUSH2 0xE74 PUSH1 0x3 SSTORE PUSH2 0x12C0 PUSH1 0x4 SSTORE PUSH9 0x2B5E3AF16B1880000 PUSH1 0x5 SSTORE PUSH12 0x19D971E4FE8401E74000000 PUSH1 0x6 SSTORE PUSH9 0x56BC75E2D63100000 PUSH1 0x7 SSTORE PUSH12 0x19D971E4FE8401E74000000 PUSH1 0x8 SSTORE PUSH9 0xAD78EBC5AC6200000 PUSH1 0x9 SSTORE PUSH12 0x813F3978F89409844000000 PUSH1 0xA SSTORE CALLVALUE DUP1 ISZERO PUSH3 0x7A JUMPI PUSH1 0x0 DUP1 REVERT JUMPDEST POP PUSH1 0x40 MLOAD PUSH3 0x1D41 CODESIZE SUB DUP1 PUSH3 0x1D41 DUP4 CODECOPY DUP2 ADD PUSH1 0x40 DUP2 SWAP1 MSTORE PUSH3 0x9D SWAP2 PUSH3 0x154 JUMP JUMPDEST PUSH3 0xA8 CALLER PUSH3 0xE7 JUMP JUMPDEST PUSH1 0x0 DUP1 SLOAD PUSH1 0xFF PUSH1 0xA0 SHL NOT AND SWAP1 SSTORE PUSH1 0x1 DUP1 SLOAD PUSH1 0x1 PUSH1 0x1 PUSH1 0xA0 SHL SUB SWAP4 DUP5 AND PUSH1 0x1 PUSH1 0x1 PUSH1 0xA0 SHL SUB NOT SWAP2 DUP3 AND OR SWAP1 SWAP2 SSTORE PUSH1 0xB DUP1 SLOAD SWAP3 SWAP1 SWAP4 AND SWAP2 AND OR SWAP1 SSTORE PUSH3 0x18C JUMP JUMPDEST PUSH1 0x0 DUP1 SLOAD PUSH1 0x1 PUSH1 0x1 PUSH1 0xA0 SHL SUB DUP4 DUP2 AND PUSH1 0x1 PUSH1 0x1 PUSH1 0xA0 SHL SUB NOT DUP4 AND DUP2 OR DUP5 SSTORE PUSH1 0x40 MLOAD SWAP2 SWAP1 SWAP3 AND SWAP3 DUP4 SWAP2 PUSH32 0x8BE0079C531659141344CD1FD0A4F28419497F9722A3DAAFE3B4186F6B6457E0 SWAP2 SWAP1 LOG3 POP POP JUMP JUMPDEST DUP1 MLOAD PUSH1 0x1 PUSH1 0x1 PUSH1 0xA0 SHL SUB DUP2 AND DUP2 EQ PUSH3 0x14F JUMPI PUSH1 0x0 DUP1 REVERT JUMPDEST SWAP2 SWAP1 POP JUMP JUMPDEST PUSH1 0x0 DUP1 PUSH1 0x40 DUP4 DUP6 SUB SLT ISZERO PUSH3 0x168 JUMPI PUSH1 0x0 DUP1 REVERT JUMPDEST PUSH3 0x173 DUP4 PUSH3 0x137 JUMP JUMPDEST SWAP2 POP PUSH3 0x183 PUSH1 0x20 DUP5 ADD PUSH3 0x137 JUMP JUMPDEST SWAP1 POP SWAP3 POP SWAP3 SWAP1 POP JUMP JUMPDEST PUSH2 0x1BA5 DUP1 PUSH3 0x19C PUSH1 0x0 CODECOPY PUSH1 0x0 RETURN INVALID PUSH1 0x80 PUSH1 0x40 MSTORE CALLVALUE DUP1 ISZERO PUSH2 0x10 JUMPI PUSH1 0x0 DUP1 REVERT JUMPDEST POP PUSH1 0x4 CALLDATASIZE LT PUSH2 0x206 JUMPI PUSH1 0x0 CALLDATALOAD PUSH1 0xE0 SHR DUP1 PUSH4 0x84203F4B GT PUSH2 0x11A JUMPI DUP1 PUSH4 0xBF01651A GT PUSH2 0xAD JUMPI DUP1 PUSH4 0xE5D15701 GT PUSH2 0x7C JUMPI DUP1 PUSH4 0xE5D15701 EQ PUSH2 0x48C JUMPI DUP1 PUSH4 0xF2FDE38B EQ PUSH2 0x49F JUMPI DUP1 PUSH4 0xF4217E1E EQ PUSH2 0x4B2 JUMPI DUP1 PUSH4 0xF7EDF9AB EQ PUSH2 0x4C5 JUMPI DUP1 PUSH4 0xFE2981B5 EQ PUSH2 0x4D8 JUMPI PUSH1 0x0 DUP1 REVERT JUMPDEST DUP1 PUSH4 0xBF01651A EQ PUSH2 0x44A JUMPI DUP1 PUSH4 0xD3900A52 EQ PUSH2 0x45D JUMPI DUP1 PUSH4 0xD72B11BD EQ PUSH2 0x466 JUMPI DUP1 PUSH4 0xDDA4FA8F EQ PUSH2 0x479 JUMPI PUSH1 0x0 DUP1 REVERT JUMPDEST DUP1 PUSH4 0x91789CEF GT PUSH2 0xE9 JUMPI DUP1 PUSH4 0x91789CEF EQ PUSH2 0x3EC JUMPI DUP1 PUSH4 0x927E5998 EQ PUSH2 0x3F5 JUMPI DUP1 PUSH4 0x97E9C5FE EQ PUSH2 0x408 JUMPI DUP1 PUSH4 0xBB664864 EQ PUSH2 0x437 JUMPI PUSH1 0x0 DUP1 REVERT JUMPDEST DUP1 PUSH4 0x84203F4B EQ PUSH2 0x3A7 JUMPI DUP1 PUSH4 0x8456CB59 EQ PUSH2 0x3CA JUMPI DUP1 PUSH4 0x8DA5CB5B EQ PUSH2 0x3D2 JUMPI DUP1 PUSH4 0x8F0FB2B7 EQ PUSH2 0x3E3 JUMPI PUSH1 0x0 DUP1 REVERT JUMPDEST DUP1 PUSH4 0x635EF285 GT PUSH2 0x19D JUMPI DUP1 PUSH4 0x69E06848 GT PUSH2 0x16C JUMPI DUP1 PUSH4 0x69E06848 EQ PUSH2 0x34B JUMPI DUP1 PUSH4 0x715018A6 EQ PUSH2 0x35E JUMPI DUP1 PUSH4 0x71A1609B EQ PUSH2 0x366 JUMPI DUP1 PUSH4 0x7FE509D7 EQ PUSH2 0x36F JUMPI DUP1 PUSH4 0x8275B181 EQ PUSH2 0x39E JUMPI PUSH1 0x0 DUP1 REVERT JUMPDEST DUP1 PUSH4 0x635EF285 EQ PUSH2 0x2C2 JUMPI DUP1 PUSH4 0x6505CF31 EQ PUSH2 0x2E5 JUMPI DUP1 PUSH4 0x6636389E EQ PUSH2 0x2EE JUMPI DUP1 PUSH4 0x67911BA4 EQ PUSH2 0x301 JUMPI PUSH1 0x0 DUP1 REVERT JUMPDEST DUP1 PUSH4 0x3F4BA83A GT PUSH2 0x1D9 JUMPI DUP1 PUSH4 0x3F4BA83A EQ PUSH2 0x24E JUMPI DUP1 PUSH4 0x451C3D80 EQ PUSH2 0x256 JUMPI DUP1 PUSH4 0x5C975ABB EQ PUSH2 0x281 JUMPI DUP1 PUSH4 0x6296E750 EQ PUSH2 0x29F JUMPI PUSH1 0x0 DUP1 REVERT JUMPDEST DUP1 PUSH4 0x1EF4739 EQ PUSH2 0x20B JUMPI DUP1 PUSH4 0x1ED81FF8 EQ PUSH2 0x227 JUMPI DUP1 PUSH4 0x1FF08FEE EQ PUSH2 0x23C JUMPI DUP1 PUSH4 0x32938E3A EQ PUSH2 0x245 JUMPI JUMPDEST PUSH1 0x0 DUP1 REVERT JUMPDEST PUSH2 0x214 PUSH1 0x7 SLOAD DUP2 JUMP JUMPDEST PUSH1 0x40 MLOAD SWAP1 DUP2 MSTORE PUSH1 0x20 ADD JUMPDEST PUSH1 0x40 MLOAD DUP1 SWAP2 SUB SWAP1 RETURN JUMPDEST PUSH2 0x23A PUSH2 0x235 CALLDATASIZE PUSH1 0x4 PUSH2 0x1809 JUMP JUMPDEST PUSH2 0x4EB JUMP JUMPDEST STOP JUMPDEST PUSH2 0x214 PUSH1 0x3 SLOAD DUP2 JUMP JUMPDEST PUSH2 0x214 PUSH1 0x4 SLOAD DUP2 JUMP JUMPDEST PUSH2 0x23A PUSH2 0x6E8 JUMP JUMPDEST PUSH1 0x1 SLOAD PUSH2 0x269 SWAP1 PUSH1 0x1 PUSH1 0x1 PUSH1 0xA0 SHL SUB AND DUP2 JUMP JUMPDEST PUSH1 0x40 MLOAD PUSH1 0x1 PUSH1 0x1 PUSH1 0xA0 SHL SUB SWAP1 SWAP2 AND DUP2 MSTORE PUSH1 0x20 ADD PUSH2 0x21E JUMP JUMPDEST PUSH1 0x0 SLOAD PUSH1 0x1 PUSH1 0xA0 SHL SWAP1 DIV PUSH1 0xFF AND JUMPDEST PUSH1 0x40 MLOAD SWAP1 ISZERO ISZERO DUP2 MSTORE PUSH1 0x20 ADD PUSH2 0x21E JUMP JUMPDEST PUSH2 0x28F PUSH2 0x2AD CALLDATASIZE PUSH1 0x4 PUSH2 0x183E JUMP JUMPDEST PUSH1 0xC PUSH1 0x20 MSTORE PUSH1 0x0 SWAP1 DUP2 MSTORE PUSH1 0x40 SWAP1 KECCAK256 SLOAD PUSH1 0xFF AND DUP2 JUMP JUMPDEST PUSH2 0x28F PUSH2 0x2D0 CALLDATASIZE PUSH1 0x4 PUSH2 0x183E JUMP JUMPDEST PUSH1 0xE PUSH1 0x20 MSTORE PUSH1 0x0 SWAP1 DUP2 MSTORE PUSH1 0x40 SWAP1 KECCAK256 SLOAD PUSH1 0xFF AND DUP2 JUMP JUMPDEST PUSH2 0x214 PUSH1 0x5 SLOAD DUP2 JUMP JUMPDEST PUSH2 0x23A PUSH2 0x2FC CALLDATASIZE PUSH1 0x4 PUSH2 0x1809 JUMP JUMPDEST PUSH2 0x71C JUMP JUMPDEST PUSH2 0x330 PUSH2 0x30F CALLDATASIZE PUSH1 0x4 PUSH2 0x183E JUMP JUMPDEST PUSH1 0xD PUSH1 0x20 MSTORE PUSH1 0x0 SWAP1 DUP2 MSTORE PUSH1 0x40 SWAP1 KECCAK256 DUP1 SLOAD PUSH1 0x1 DUP3 ADD SLOAD PUSH1 0x2 SWAP1 SWAP3 ADD SLOAD SWAP1 SWAP2 SWAP1 DUP4 JUMP JUMPDEST PUSH1 0x40 DUP1 MLOAD SWAP4 DUP5 MSTORE PUSH1 0x20 DUP5 ADD SWAP3 SWAP1 SWAP3 MSTORE SWAP1 DUP3 ADD MSTORE PUSH1 0x60 ADD PUSH2 0x21E JUMP JUMPDEST PUSH2 0x214 PUSH2 0x359 CALLDATASIZE PUSH1 0x4 PUSH2 0x186A JUMP JUMPDEST PUSH2 0x9FB JUMP JUMPDEST PUSH2 0x23A PUSH2 0xAB4 JUMP JUMPDEST PUSH2 0x214 PUSH1 0x6 SLOAD DUP2 JUMP JUMPDEST PUSH2 0x330 PUSH2 0x37D CALLDATASIZE PUSH1 0x4 PUSH2 0x183E JUMP JUMPDEST PUSH1 0xF PUSH1 0x20 MSTORE PUSH1 0x0 SWAP1 DUP2 MSTORE PUSH1 0x40 SWAP1 KECCAK256 DUP1 SLOAD PUSH1 0x1 DUP3 ADD SLOAD PUSH1 0x2 SWAP1 SWAP3 ADD SLOAD SWAP1 SWAP2 SWAP1 DUP4 JUMP JUMPDEST PUSH2 0x214 PUSH1 0x2 SLOAD DUP2 JUMP JUMPDEST PUSH2 0x28F PUSH2 0x3B5 CALLDATASIZE PUSH1 0x4 PUSH2 0x183E JUMP JUMPDEST PUSH1 0x10 PUSH1 0x20 MSTORE PUSH1 0x0 SWAP1 DUP2 MSTORE PUSH1 0x40 SWAP1 KECCAK256 SLOAD PUSH1 0xFF AND DUP2 JUMP JUMPDEST PUSH2 0x23A PUSH2 0xAE8 JUMP JUMPDEST PUSH1 0x0 SLOAD PUSH1 0x1 PUSH1 0x1 PUSH1 0xA0 SHL SUB AND PUSH2 0x269 JUMP JUMPDEST PUSH2 0x214 PUSH1 0xA SLOAD DUP2 JUMP JUMPDEST PUSH2 0x214 PUSH1 0x9 SLOAD DUP2 JUMP JUMPDEST PUSH2 0x23A PUSH2 0x403 CALLDATASIZE PUSH1 0x4 PUSH2 0x1809 JUMP JUMPDEST PUSH2 0xB1A JUMP JUMPDEST PUSH2 0x330 PUSH2 0x416 CALLDATASIZE PUSH1 0x4 PUSH2 0x183E JUMP JUMPDEST PUSH1 0x11 PUSH1 0x20 MSTORE PUSH1 0x0 SWAP1 DUP2 MSTORE PUSH1 0x40 SWAP1 KECCAK256 DUP1 SLOAD PUSH1 0x1 DUP3 ADD SLOAD PUSH1 0x2 SWAP1 SWAP3 ADD SLOAD SWAP1 SWAP2 SWAP1 DUP4 JUMP JUMPDEST PUSH2 0x23A PUSH2 0x445 CALLDATASIZE PUSH1 0x4 PUSH2 0x1809 JUMP JUMPDEST PUSH2 0xDF1 JUMP JUMPDEST PUSH2 0x23A PUSH2 0x458 CALLDATASIZE PUSH1 0x4 PUSH2 0x1809 JUMP JUMPDEST PUSH2 0x10C8 JUMP JUMPDEST PUSH2 0x214 PUSH1 0x8 SLOAD DUP2 JUMP JUMPDEST PUSH1 0xB SLOAD PUSH2 0x269 SWAP1 PUSH1 0x1 PUSH1 0x1 PUSH1 0xA0 SHL SUB AND DUP2 JUMP JUMPDEST PUSH2 0x23A PUSH2 0x487 CALLDATASIZE PUSH1 0x4 PUSH2 0x183E JUMP JUMPDEST PUSH2 0x12AB JUMP JUMPDEST PUSH2 0x23A PUSH2 0x49A CALLDATASIZE PUSH1 0x4 PUSH2 0x18A6 JUMP JUMPDEST PUSH2 0x12F7 JUMP JUMPDEST PUSH2 0x23A PUSH2 0x4AD CALLDATASIZE PUSH1 0x4 PUSH2 0x183E JUMP JUMPDEST PUSH2 0x132F JUMP JUMPDEST PUSH2 0x23A PUSH2 0x4C0 CALLDATASIZE PUSH1 0x4 PUSH2 0x18D2 JUMP JUMPDEST PUSH2 0x13CA JUMP JUMPDEST PUSH2 0x28F PUSH2 0x4D3 CALLDATASIZE PUSH1 0x4 PUSH2 0x1915 JUMP JUMPDEST PUSH2 0x1411 JUMP JUMPDEST PUSH2 0x23A PUSH2 0x4E6 CALLDATASIZE PUSH1 0x4 PUSH2 0x1809 JUMP JUMPDEST PUSH2 0x14B0 JUMP JUMPDEST PUSH1 0x0 SLOAD PUSH1 0x1 PUSH1 0xA0 SHL SWAP1 DIV PUSH1 0xFF AND ISZERO PUSH2 0x51E JUMPI PUSH1 0x40 MLOAD PUSH3 0x461BCD PUSH1 0xE5 SHL DUP2 MSTORE PUSH1 0x4 ADD PUSH2 0x515 SWAP1 PUSH2 0x1948 JUMP JUMPDEST PUSH1 0x40 MLOAD DUP1 SWAP2 SUB SWAP1 REVERT JUMPDEST PUSH1 0x8 SLOAD DUP2 GT ISZERO DUP1 ISZERO PUSH2 0x532 JUMPI POP PUSH1 0x7 SLOAD DUP2 LT ISZERO JUMPDEST PUSH2 0x54E JUMPI PUSH1 0x40 MLOAD PUSH3 0x461BCD PUSH1 0xE5 SHL DUP2 MSTORE PUSH1 0x4 ADD PUSH2 0x515 SWAP1 PUSH2 0x1972 JUMP JUMPDEST CALLER PUSH1 0x0 DUP2 DUP2 MSTORE PUSH1 0xE PUSH1 0x20 MSTORE PUSH1 0x40 SWAP1 KECCAK256 SLOAD PUSH1 0xFF AND ISZERO PUSH2 0x57E JUMPI PUSH1 0x40 MLOAD PUSH3 0x461BCD PUSH1 0xE5 SHL DUP2 MSTORE PUSH1 0x4 ADD PUSH2 0x515 SWAP1 PUSH2 0x19C4 JUMP JUMPDEST PUSH1 0x1 SLOAD PUSH1 0x40 MLOAD PUSH4 0x23B872DD PUSH1 0xE0 SHL DUP2 MSTORE PUSH1 0x1 PUSH1 0x1 PUSH1 0xA0 SHL SUB SWAP1 SWAP2 AND SWAP1 PUSH4 0x23B872DD SWAP1 PUSH2 0x5B2 SWAP1 DUP5 SWAP1 ADDRESS SWAP1 DUP8 SWAP1 PUSH1 0x4 ADD PUSH2 0x1A06 JUMP JUMPDEST PUSH1 0x20 PUSH1 0x40 MLOAD DUP1 DUP4 SUB DUP2 PUSH1 0x0 DUP8 GAS CALL ISZERO DUP1 ISZERO PUSH2 0x5D1 JUMPI RETURNDATASIZE PUSH1 0x0 DUP1 RETURNDATACOPY RETURNDATASIZE PUSH1 0x0 REVERT JUMPDEST POP POP POP POP PUSH1 0x40 MLOAD RETURNDATASIZE PUSH1 0x1F NOT PUSH1 0x1F DUP3 ADD AND DUP3 ADD DUP1 PUSH1 0x40 MSTORE POP DUP2 ADD SWAP1 PUSH2 0x5F5 SWAP2 SWAP1 PUSH2 0x1A2A JUMP JUMPDEST POP PUSH1 0x1 PUSH1 0x1 PUSH1 0xA0 SHL SUB DUP2 AND PUSH1 0x0 SWAP1 DUP2 MSTORE PUSH1 0xE PUSH1 0x20 SWAP1 DUP2 MSTORE PUSH1 0x40 SWAP2 DUP3 SWAP1 KECCAK256 DUP1 SLOAD PUSH1 0xFF NOT AND PUSH1 0x1 OR SWAP1 SSTORE DUP2 MLOAD PUSH1 0x60 DUP2 ADD DUP4 MSTORE DUP5 DUP2 MSTORE TIMESTAMP SWAP2 DUP2 ADD DUP3 SWAP1 MSTORE SWAP2 DUP3 ADD SWAP1 PUSH2 0x640 SWAP1 PUSH3 0x278D00 PUSH2 0x1A62 JUMP JUMPDEST SWAP1 MSTORE PUSH1 0x1 PUSH1 0x1 PUSH1 0xA0 SHL SUB DUP3 AND PUSH1 0x0 SWAP1 DUP2 MSTORE PUSH1 0xF PUSH1 0x20 SWAP1 DUP2 MSTORE PUSH1 0x40 SWAP2 DUP3 SWAP1 KECCAK256 DUP4 MLOAD DUP2 SSTORE SWAP1 DUP4 ADD MLOAD PUSH1 0x1 DUP1 DUP4 ADD SWAP2 SWAP1 SWAP2 SSTORE SWAP3 SWAP1 SWAP2 ADD MLOAD PUSH1 0x2 SWAP1 SWAP2 ADD SSTORE PUSH32 0x17849BB8C713DE96B48F218D3BACC9AF082261C3CCC7C6DCCEBE70E667B22F23 SWAP1 DUP3 SWAP1 DUP5 TIMESTAMP PUSH2 0x6AD DUP2 PUSH3 0x278D00 PUSH2 0x1A62 JUMP JUMPDEST PUSH1 0x40 DUP1 MLOAD PUSH1 0x1 PUSH1 0x1 PUSH1 0xA0 SHL SUB SWAP1 SWAP7 AND DUP7 MSTORE PUSH1 0xFF SWAP1 SWAP5 AND PUSH1 0x20 DUP7 ADD MSTORE SWAP3 DUP5 ADD SWAP2 SWAP1 SWAP2 MSTORE PUSH1 0x60 DUP4 ADD MSTORE PUSH1 0x80 DUP3 ADD MSTORE PUSH1 0xA0 ADD PUSH1 0x40 MLOAD DUP1 SWAP2 SUB SWAP1 LOG1 POP POP JUMP JUMPDEST PUSH1 0x0 SLOAD PUSH1 0x1 PUSH1 0x1 PUSH1 0xA0 SHL SUB AND CALLER EQ PUSH2 0x712 JUMPI PUSH1 0x40 MLOAD PUSH3 0x461BCD PUSH1 0xE5 SHL DUP2 MSTORE PUSH1 0x4 ADD PUSH2 0x515 SWAP1 PUSH2 0x1A7A JUMP JUMPDEST PUSH2 0x71A PUSH2 0x1667 JUMP JUMPDEST JUMP JUMPDEST CALLER PUSH1 0x0 DUP2 DUP2 MSTORE PUSH1 0x10 PUSH1 0x20 MSTORE PUSH1 0x40 SWAP1 KECCAK256 SLOAD PUSH1 0xFF AND PUSH2 0x76D JUMPI PUSH1 0x40 MLOAD PUSH3 0x461BCD PUSH1 0xE5 SHL DUP2 MSTORE PUSH1 0x20 PUSH1 0x4 DUP3 ADD MSTORE PUSH1 0xF PUSH1 0x24 DUP3 ADD MSTORE PUSH15 0x55736572206973206E6F742056697 PUSH1 0x8C SHL PUSH1 0x44 DUP3 ADD MSTORE PUSH1 0x64 ADD PUSH2 0x515 JUMP JUMPDEST PUSH1 0x1 PUSH1 0x1 PUSH1 0xA0 SHL SUB DUP2 AND PUSH1 0x0 SWAP1 DUP2 MSTORE PUSH1 0x11 PUSH1 0x20 MSTORE PUSH1 0x40 SWAP1 KECCAK256 SLOAD DUP3 DUP2 LT ISZERO PUSH2 0x7A6 JUMPI PUSH1 0x40 MLOAD PUSH3 0x461BCD PUSH1 0xE5 SHL DUP2 MSTORE PUSH1 0x4 ADD PUSH2 0x515 SWAP1 PUSH2 0x1AAF JUMP JUMPDEST PUSH1 0x0 PUSH2 0x7B3 DUP4 PUSH1 0x2 PUSH2 0x1411 JUMP JUMPDEST SWAP1 POP PUSH1 0x0 PUSH2 0x7C3 DUP5 PUSH1 0x2 DUP8 PUSH2 0x9FB JUMP JUMPDEST SWAP1 POP DUP3 DUP6 EQ ISZERO PUSH2 0x80C JUMPI PUSH1 0x1 PUSH1 0x1 PUSH1 0xA0 SHL SUB DUP5 AND PUSH1 0x0 SWAP1 DUP2 MSTORE PUSH1 0x11 PUSH1 0x20 SWAP1 DUP2 MSTORE PUSH1 0x40 DUP1 DUP4 KECCAK256 DUP4 DUP2 SSTORE PUSH1 0x1 DUP2 ADD DUP5 SWAP1 SSTORE PUSH1 0x2 ADD DUP4 SWAP1 SSTORE PUSH1 0x10 SWAP1 SWAP2 MSTORE SWAP1 KECCAK256 DUP1 SLOAD PUSH1 0xFF NOT AND SWAP1 SSTORE PUSH2 0x83A JUMP JUMPDEST PUSH1 0x1 PUSH1 0x1 PUSH1 0xA0 SHL SUB DUP5 AND PUSH1 0x0 SWAP1 DUP2 MSTORE PUSH1 0x11 PUSH1 0x20 MSTORE PUSH1 0x40 DUP2 KECCAK256 DUP1 SLOAD DUP8 SWAP3 SWAP1 PUSH2 0x834 SWAP1 DUP5 SWAP1 PUSH2 0x1AE6 JUMP JUMPDEST SWAP1 SWAP2 SSTORE POP POP JUMPDEST DUP2 ISZERO PUSH2 0x939 JUMPI PUSH1 0x1 SLOAD PUSH1 0x40 MLOAD PUSH4 0xA9059CBB PUSH1 0xE0 SHL DUP2 MSTORE PUSH1 0x1 PUSH1 0x1 PUSH1 0xA0 SHL SUB DUP7 DUP2 AND PUSH1 0x4 DUP4 ADD MSTORE PUSH1 0x24 DUP3 ADD DUP9 SWAP1 MSTORE SWAP1 SWAP2 AND SWAP1 PUSH4 0xA9059CBB SWAP1 PUSH1 0x44 ADD PUSH1 0x20 PUSH1 0x40 MLOAD DUP1 DUP4 SUB DUP2 PUSH1 0x0 DUP8 GAS CALL ISZERO DUP1 ISZERO PUSH2 0x893 JUMPI RETURNDATASIZE PUSH1 0x0 DUP1 RETURNDATACOPY RETURNDATASIZE PUSH1 0x0 REVERT JUMPDEST POP POP POP POP PUSH1 0x40 MLOAD RETURNDATASIZE PUSH1 0x1F NOT PUSH1 0x1F DUP3 ADD AND DUP3 ADD DUP1 PUSH1 0x40 MSTORE POP DUP2 ADD SWAP1 PUSH2 0x8B7 SWAP2 SWAP1 PUSH2 0x1A2A JUMP JUMPDEST POP PUSH1 0x1 SLOAD PUSH1 0xB SLOAD PUSH1 0x40 MLOAD PUSH4 0x23B872DD PUSH1 0xE0 SHL DUP2 MSTORE PUSH1 0x1 PUSH1 0x1 PUSH1 0xA0 SHL SUB SWAP3 DUP4 AND SWAP3 PUSH4 0x23B872DD SWAP3 PUSH2 0x8F0 SWAP3 SWAP2 AND SWAP1 DUP9 SWAP1 DUP7 SWAP1 PUSH1 0x4 ADD PUSH2 0x1A06 JUMP JUMPDEST PUSH1 0x20 PUSH1 0x40 MLOAD DUP1 DUP4 SUB DUP2 PUSH1 0x0 DUP8 GAS CALL ISZERO DUP1 ISZERO PUSH2 0x90F JUMPI RETURNDATASIZE PUSH1 0x0 DUP1 RETURNDATACOPY RETURNDATASIZE PUSH1 0x0 REVERT JUMPDEST POP POP POP POP PUSH1 0x40 MLOAD RETURNDATASIZE PUSH1 0x1F NOT PUSH1 0x1F DUP3 ADD AND DUP3 ADD DUP1 PUSH1 0x40 MSTORE POP DUP2 ADD SWAP1 PUSH2 0x933 SWAP2 SWAP1 PUSH2 0x1A2A JUMP JUMPDEST POP PUSH2 0x9B4 JUMP JUMPDEST POP PUSH1 0x1 SLOAD PUSH1 0x40 MLOAD PUSH4 0xA9059CBB PUSH1 0xE0 SHL DUP2 MSTORE PUSH1 0x1 PUSH1 0x1 PUSH1 0xA0 SHL SUB DUP6 DUP2 AND PUSH1 0x4 DUP4 ADD MSTORE PUSH1 0x24 DUP3 ADD DUP8 SWAP1 MSTORE PUSH1 0x0 SWAP3 AND SWAP1 PUSH4 0xA9059CBB SWAP1 PUSH1 0x44 ADD PUSH1 0x20 PUSH1 0x40 MLOAD DUP1 DUP4 SUB DUP2 PUSH1 0x0 DUP8 GAS CALL ISZERO DUP1 ISZERO PUSH2 0x98E JUMPI RETURNDATASIZE PUSH1 0x0 DUP1 RETURNDATACOPY RETURNDATASIZE PUSH1 0x0 REVERT JUMPDEST POP POP POP POP PUSH1 0x40 MLOAD RETURNDATASIZE PUSH1 0x1F NOT PUSH1 0x1F DUP3 ADD AND DUP3 ADD DUP1 PUSH1 0x40 MSTORE POP DUP2 ADD SWAP1 PUSH2 0x9B2 SWAP2 SWAP1 PUSH2 0x1A2A JUMP JUMPDEST POP JUMPDEST PUSH32 0xA3DFF5863D601223D9B31A0253B97A6C2085DACA56089B92836B4B6A1991E04B DUP5 PUSH1 0x2 DUP5 DUP9 DUP6 PUSH1 0x40 MLOAD PUSH2 0x9EC SWAP6 SWAP5 SWAP4 SWAP3 SWAP2 SWAP1 PUSH2 0x1AFD JUMP JUMPDEST PUSH1 0x40 MLOAD DUP1 SWAP2 SUB SWAP1 LOG1 POP POP POP POP POP JUMP JUMPDEST PUSH1 0x0 PUSH1 0xFF DUP4 AND PUSH2 0xA39 JUMPI PUSH1 0x1 PUSH1 0x1 PUSH1 0xA0 SHL SUB DUP5 AND PUSH1 0x0 SWAP1 DUP2 MSTORE PUSH1 0xD PUSH1 0x20 MSTORE PUSH1 0x40 SWAP1 KECCAK256 PUSH1 0x1 ADD SLOAD PUSH1 0x2 SLOAD PUSH2 0xA31 SWAP1 DUP5 SWAP1 DUP4 SWAP1 PUSH2 0x1704 JUMP JUMPDEST SWAP2 POP POP PUSH2 0xAAD JUMP JUMPDEST DUP3 PUSH1 0xFF AND PUSH1 0x1 EQ ISZERO PUSH2 0xA71 JUMPI PUSH1 0x1 PUSH1 0x1 PUSH1 0xA0 SHL SUB DUP5 AND PUSH1 0x0 SWAP1 DUP2 MSTORE PUSH1 0xF PUSH1 0x20 MSTORE PUSH1 0x40 SWAP1 KECCAK256 PUSH1 0x1 ADD SLOAD PUSH1 0x3 SLOAD PUSH2 0xA31 SWAP1 DUP5 SWAP1 DUP4 SWAP1 PUSH2 0x1704 JUMP JUMPDEST DUP3 PUSH1 0xFF AND PUSH1 0x2 EQ ISZERO PUSH2 0xAA9 JUMPI PUSH1 0x1 PUSH1 0x1 PUSH1 0xA0 SHL SUB DUP5 AND PUSH1 0x0 SWAP1 DUP2 MSTORE PUSH1 0x11 PUSH1 0x20 MSTORE PUSH1 0x40 SWAP1 KECCAK256 PUSH1 0x1 ADD SLOAD PUSH1 0x4 SLOAD PUSH2 0xA31 SWAP1 DUP5 SWAP1 DUP4 SWAP1 PUSH2 0x1704 JUMP JUMPDEST POP PUSH1 0x0 JUMPDEST SWAP4 SWAP3 POP POP POP JUMP JUMPDEST PUSH1 0x0 SLOAD PUSH1 0x1 PUSH1 0x1 PUSH1 0xA0 SHL SUB AND CALLER EQ PUSH2 0xADE JUMPI PUSH1 0x40 MLOAD PUSH3 0x461BCD PUSH1 0xE5 SHL DUP2 MSTORE PUSH1 0x4 ADD PUSH2 0x515 SWAP1 PUSH2 0x1A7A JUMP JUMPDEST PUSH2 0x71A PUSH1 0x0 PUSH2 0x1754 JUMP JUMPDEST PUSH1 0x0 SLOAD PUSH1 0x1 PUSH1 0x1 PUSH1 0xA0 SHL SUB AND CALLER EQ PUSH2 0xB12 JUMPI PUSH1 0x40 MLOAD PUSH3 0x461BCD PUSH1 0xE5 SHL DUP2 MSTORE PUSH1 0x4 ADD PUSH2 0x515 SWAP1 PUSH2 0x1A7A JUMP JUMPDEST PUSH2 0x71A PUSH2 0x17A4 JUMP JUMPDEST CALLER PUSH1 0x0 DUP2 DUP2 MSTORE PUSH1 0xC PUSH1 0x20 MSTORE PUSH1 0x40 SWAP1 KECCAK256 SLOAD PUSH1 0xFF AND PUSH2 0xB72 JUMPI PUSH1 0x40 MLOAD PUSH3 0x461BCD PUSH1 0xE5 SHL DUP2 MSTORE PUSH1 0x20 PUSH1 0x4 DUP3 ADD MSTORE PUSH1 0x16 PUSH1 0x24 DUP3 ADD MSTORE PUSH22 0x55736572206973206E6F74206F6E204C6576656C203 PUSH1 0x54 SHL PUSH1 0x44 DUP3 ADD MSTORE PUSH1 0x64 ADD PUSH2 0x515 JUMP JUMPDEST PUSH1 0x1 PUSH1 0x1 PUSH1 0xA0 SHL SUB DUP2 AND PUSH1 0x0 SWAP1 DUP2 MSTORE PUSH1 0xD PUSH1 0x20 MSTORE PUSH1 0x40 SWAP1 KECCAK256 SLOAD DUP3 DUP2 LT ISZERO PUSH2 0xBAB JUMPI PUSH1 0x40 MLOAD PUSH3 0x461BCD PUSH1 0xE5 SHL DUP2 MSTORE PUSH1 0x4 ADD PUSH2 0x515 SWAP1 PUSH2 0x1AAF JUMP JUMPDEST PUSH1 0x0 PUSH2 0xBB8 DUP4 PUSH1 0x0 PUSH2 0x1411 JUMP JUMPDEST SWAP1 POP PUSH1 0x0 PUSH2 0xBC8 DUP5 PUSH1 0x0 DUP8 PUSH2 0x9FB JUMP JUMPDEST SWAP1 POP DUP3 DUP6 EQ ISZERO PUSH2 0xC11 JUMPI PUSH1 0x1 PUSH1 0x1 PUSH1 0xA0 SHL SUB DUP5 AND PUSH1 0x0 SWAP1 DUP2 MSTORE PUSH1 0xD PUSH1 0x20 SWAP1 DUP2 MSTORE PUSH1 0x40 DUP1 DUP4 KECCAK256 DUP4 DUP2 SSTORE PUSH1 0x1 DUP2 ADD DUP5 SWAP1 SSTORE PUSH1 0x2 ADD DUP4 SWAP1 SSTORE PUSH1 0xC SWAP1 SWAP2 MSTORE SWAP1 KECCAK256 DUP1 SLOAD PUSH1 0xFF NOT AND SWAP1 SSTORE PUSH2 0xC3F JUMP JUMPDEST PUSH1 0x1 PUSH1 0x1 PUSH1 0xA0 SHL SUB DUP5 AND PUSH1 0x0 SWAP1 DUP2 MSTORE PUSH1 0xD PUSH1 0x20 MSTORE PUSH1 0x40 DUP2 KECCAK256 DUP1 SLOAD DUP8 SWAP3 SWAP1 PUSH2 0xC39 SWAP1 DUP5 SWAP1 PUSH2 0x1AE6 JUMP JUMPDEST SWAP1 SWAP2 SSTORE POP POP JUMPDEST DUP2 ISZERO PUSH2 0xD3E JUMPI PUSH1 0x1 SLOAD PUSH1 0x40 MLOAD PUSH4 0xA9059CBB PUSH1 0xE0 SHL DUP2 MSTORE PUSH1 0x1 PUSH1 0x1 PUSH1 0xA0 SHL SUB DUP7 DUP2 AND PUSH1 0x4 DUP4 ADD MSTORE PUSH1 0x24 DUP3 ADD DUP9 SWAP1 MSTORE SWAP1 SWAP2 AND SWAP1 PUSH4 0xA9059CBB SWAP1 PUSH1 0x44 ADD PUSH1 0x20 PUSH1 0x40 MLOAD DUP1 DUP4 SUB DUP2 PUSH1 0x0 DUP8 GAS CALL ISZERO DUP1 ISZERO PUSH2 0xC98 JUMPI RETURNDATASIZE PUSH1 0x0 DUP1 RETURNDATACOPY RETURNDATASIZE PUSH1 0x0 REVERT JUMPDEST POP POP POP POP PUSH1 0x40 MLOAD RETURNDATASIZE PUSH1 0x1F NOT PUSH1 0x1F DUP3 ADD AND DUP3 ADD DUP1 PUSH1 0x40 MSTORE POP DUP2 ADD SWAP1 PUSH2 0xCBC SWAP2 SWAP1 PUSH2 0x1A2A JUMP JUMPDEST POP PUSH1 0x1 SLOAD PUSH1 0xB SLOAD PUSH1 0x40 MLOAD PUSH4 0x23B872DD PUSH1 0xE0 SHL DUP2 MSTORE PUSH1 0x1 PUSH1 0x1 PUSH1 0xA0 SHL SUB SWAP3 DUP4 AND SWAP3 PUSH4 0x23B872DD SWAP3 PUSH2 0xCF5 SWAP3 SWAP2 AND SWAP1 DUP9 SWAP1 DUP7 SWAP1 PUSH1 0x4 ADD PUSH2 0x1A06 JUMP JUMPDEST PUSH1 0x20 PUSH1 0x40 MLOAD DUP1 DUP4 SUB DUP2 PUSH1 0x0 DUP8 GAS CALL ISZERO DUP1 ISZERO PUSH2 0xD14 JUMPI RETURNDATASIZE PUSH1 0x0 DUP1 RETURNDATACOPY RETURNDATASIZE PUSH1 0x0 REVERT JUMPDEST POP POP POP POP PUSH1 0x40 MLOAD RETURNDATASIZE PUSH1 0x1F NOT PUSH1 0x1F DUP3 ADD AND DUP3 ADD DUP1 PUSH1 0x40 MSTORE POP DUP2 ADD SWAP1 PUSH2 0xD38 SWAP2 SWAP1 PUSH2 0x1A2A JUMP JUMPDEST POP PUSH2 0xDB9 JUMP JUMPDEST POP PUSH1 0x1 SLOAD PUSH1 0x40 MLOAD PUSH4 0xA9059CBB PUSH1 0xE0 SHL DUP2 MSTORE PUSH1 0x1 PUSH1 0x1 PUSH1 0xA0 SHL SUB DUP6 DUP2 AND PUSH1 0x4 DUP4 ADD MSTORE PUSH1 0x24 DUP3 ADD DUP8 SWAP1 MSTORE PUSH1 0x0 SWAP3 AND SWAP1 PUSH4 0xA9059CBB SWAP1 PUSH1 0x44 ADD PUSH1 0x20 PUSH1 0x40 MLOAD DUP1 DUP4 SUB DUP2 PUSH1 0x0 DUP8 GAS CALL ISZERO DUP1 ISZERO PUSH2 0xD93 JUMPI RETURNDATASIZE PUSH1 0x0 DUP1 RETURNDATACOPY RETURNDATASIZE PUSH1 0x0 REVERT JUMPDEST POP POP POP POP PUSH1 0x40 MLOAD RETURNDATASIZE PUSH1 0x1F NOT PUSH1 0x1F DUP3 ADD AND DUP3 ADD DUP1 PUSH1 0x40 MSTORE POP DUP2 ADD SWAP1 PUSH2 0xDB7 SWAP2 SWAP1 PUSH2 0x1A2A JUMP JUMPDEST POP JUMPDEST PUSH32 0xA3DFF5863D601223D9B31A0253B97A6C2085DACA56089B92836B4B6A1991E04B DUP5 PUSH1 0x0 DUP5 DUP9 DUP6 PUSH1 0x40 MLOAD PUSH2 0x9EC SWAP6 SWAP5 SWAP4 SWAP3 SWAP2 SWAP1 PUSH2 0x1AFD JUMP JUMPDEST CALLER PUSH1 0x0 DUP2 DUP2 MSTORE PUSH1 0xE PUSH1 0x20 MSTORE PUSH1 0x40 SWAP1 KECCAK256 SLOAD PUSH1 0xFF AND PUSH2 0xE49 JUMPI PUSH1 0x40 MLOAD PUSH3 0x461BCD PUSH1 0xE5 SHL DUP2 MSTORE PUSH1 0x20 PUSH1 0x4 DUP3 ADD MSTORE PUSH1 0x16 PUSH1 0x24 DUP3 ADD MSTORE PUSH22 0x55736572206973206E6F74206F6E204C6576656C2031 PUSH1 0x50 SHL PUSH1 0x44 DUP3 ADD MSTORE PUSH1 0x64 ADD PUSH2 0x515 JUMP JUMPDEST PUSH1 0x1 PUSH1 0x1 PUSH1 0xA0 SHL SUB DUP2 AND PUSH1 0x0 SWAP1 DUP2 MSTORE PUSH1 0xF PUSH1 0x20 MSTORE PUSH1 0x40 SWAP1 KECCAK256 SLOAD DUP3 DUP2 LT ISZERO PUSH2 0xE82 JUMPI PUSH1 0x40 MLOAD PUSH3 0x461BCD PUSH1 0xE5 SHL DUP2 MSTORE PUSH1 0x4 ADD PUSH2 0x515 SWAP1 PUSH2 0x1AAF JUMP JUMPDEST PUSH1 0x0 PUSH2 0xE8F DUP4 PUSH1 0x1 PUSH2 0x1411 JUMP JUMPDEST SWAP1 POP PUSH1 0x0 PUSH2 0xE9F DUP5 PUSH1 0x1 DUP8 PUSH2 0x9FB JUMP JUMPDEST SWAP1 POP DUP3 DUP6 EQ ISZERO PUSH2 0xEE8 JUMPI PUSH1 0x1 PUSH1 0x1 PUSH1 0xA0 SHL SUB DUP5 AND PUSH1 0x0 SWAP1 DUP2 MSTORE PUSH1 0xF PUSH1 0x20 SWAP1 DUP2 MSTORE PUSH1 0x40 DUP1 DUP4 KECCAK256 DUP4 DUP2 SSTORE PUSH1 0x1 DUP2 ADD DUP5 SWAP1 SSTORE PUSH1 0x2 ADD DUP4 SWAP1 SSTORE PUSH1 0xE SWAP1 SWAP2 MSTORE SWAP1 KECCAK256 DUP1 SLOAD PUSH1 0xFF NOT AND SWAP1 SSTORE PUSH2 0xF16 JUMP JUMPDEST PUSH1 0x1 PUSH1 0x1 PUSH1 0xA0 SHL SUB DUP5 AND PUSH1 0x0 SWAP1 DUP2 MSTORE PUSH1 0xF PUSH1 0x20 MSTORE PUSH1 0x40 DUP2 KECCAK256 DUP1 SLOAD DUP8 SWAP3 SWAP1 PUSH2 0xF10 SWAP1 DUP5 SWAP1 PUSH2 0x1AE6 JUMP JUMPDEST SWAP1 SWAP2 SSTORE POP POP JUMPDEST DUP2 ISZERO PUSH2 0x1015 JUMPI PUSH1 0x1 SLOAD PUSH1 0x40 MLOAD PUSH4 0xA9059CBB PUSH1 0xE0 SHL DUP2 MSTORE PUSH1 0x1 PUSH1 0x1 PUSH1 0xA0 SHL SUB DUP7 DUP2 AND PUSH1 0x4 DUP4 ADD MSTORE PUSH1 0x24 DUP3 ADD DUP9 SWAP1 MSTORE SWAP1 SWAP2 AND SWAP1 PUSH4 0xA9059CBB SWAP1 PUSH1 0x44 ADD PUSH1 0x20 PUSH1 0x40 MLOAD DUP1 DUP4 SUB DUP2 PUSH1 0x0 DUP8 GAS CALL ISZERO DUP1 ISZERO PUSH2 0xF6F JUMPI RETURNDATASIZE PUSH1 0x0 DUP1 RETURNDATACOPY RETURNDATASIZE PUSH1 0x0 REVERT JUMPDEST POP POP POP POP PUSH1 0x40 MLOAD RETURNDATASIZE PUSH1 0x1F NOT PUSH1 0x1F DUP3 ADD AND DUP3 ADD DUP1 PUSH1 0x40 MSTORE POP DUP2 ADD SWAP1 PUSH2 0xF93 SWAP2 SWAP1 PUSH2 0x1A2A JUMP JUMPDEST POP PUSH1 0x1 SLOAD PUSH1 0xB SLOAD PUSH1 0x40 MLOAD PUSH4 0x23B872DD PUSH1 0xE0 SHL DUP2 MSTORE PUSH1 0x1 PUSH1 0x1 PUSH1 0xA0 SHL SUB SWAP3 DUP4 AND SWAP3 PUSH4 0x23B872DD SWAP3 PUSH2 0xFCC SWAP3 SWAP2 AND SWAP1 DUP9 SWAP1 DUP7 SWAP1 PUSH1 0x4 ADD PUSH2 0x1A06 JUMP JUMPDEST PUSH1 0x20 PUSH1 0x40 MLOAD DUP1 DUP4 SUB DUP2 PUSH1 0x0 DUP8 GAS CALL ISZERO DUP1 ISZERO PUSH2 0xFEB JUMPI RETURNDATASIZE PUSH1 0x0 DUP1 RETURNDATACOPY RETURNDATASIZE PUSH1 0x0 REVERT JUMPDEST POP POP POP POP PUSH1 0x40 MLOAD RETURNDATASIZE PUSH1 0x1F NOT PUSH1 0x1F DUP3 ADD AND DUP3 ADD DUP1 PUSH1 0x40 MSTORE POP DUP2 ADD SWAP1 PUSH2 0x100F SWAP2 SWAP1 PUSH2 0x1A2A JUMP JUMPDEST POP PUSH2 0x1090 JUMP JUMPDEST POP PUSH1 0x1 SLOAD PUSH1 0x40 MLOAD PUSH4 0xA9059CBB PUSH1 0xE0 SHL DUP2 MSTORE PUSH1 0x1 PUSH1 0x1 PUSH1 0xA0 SHL SUB DUP6 DUP2 AND PUSH1 0x4 DUP4 ADD MSTORE PUSH1 0x24 DUP3 ADD DUP8 SWAP1 MSTORE PUSH1 0x0 SWAP3 AND SWAP1 PUSH4 0xA9059CBB SWAP1 PUSH1 0x44 ADD PUSH1 0x20 PUSH1 0x40 MLOAD DUP1 DUP4 SUB DUP2 PUSH1 0x0 DUP8 GAS CALL ISZERO DUP1 ISZERO PUSH2 0x106A JUMPI RETURNDATASIZE PUSH1 0x0 DUP1 RETURNDATACOPY RETURNDATASIZE PUSH1 0x0 REVERT JUMPDEST POP POP POP POP PUSH1 0x40 MLOAD RETURNDATASIZE PUSH1 0x1F NOT PUSH1 0x1F DUP3 ADD AND DUP3 ADD DUP1 PUSH1 0x40 MSTORE POP DUP2 ADD SWAP1 PUSH2 0x108E SWAP2 SWAP1 PUSH2 0x1A2A JUMP JUMPDEST POP JUMPDEST PUSH32 0xA3DFF5863D601223D9B31A0253B97A6C2085DACA56089B92836B4B6A1991E04B DUP5 PUSH1 0x1 DUP5 DUP9 DUP6 PUSH1 0x40 MLOAD PUSH2 0x9EC SWAP6 SWAP5 SWAP4 SWAP3 SWAP2 SWAP1 PUSH2 0x1AFD JUMP JUMPDEST PUSH1 0x0 SLOAD PUSH1 0x1 PUSH1 0xA0 SHL SWAP1 DIV PUSH1 0xFF AND ISZERO PUSH2 0x10F2 JUMPI PUSH1 0x40 MLOAD PUSH3 0x461BCD PUSH1 0xE5 SHL DUP2 MSTORE PUSH1 0x4 ADD PUSH2 0x515 SWAP1 PUSH2 0x1948 JUMP JUMPDEST PUSH1 0xA SLOAD DUP2 GT ISZERO DUP1 ISZERO PUSH2 0x1106 JUMPI POP PUSH1 0x9 SLOAD DUP2 LT ISZERO JUMPDEST PUSH2 0x1122 JUMPI PUSH1 0x40 MLOAD PUSH3 0x461BCD PUSH1 0xE5 SHL DUP2 MSTORE PUSH1 0x4 ADD PUSH2 0x515 SWAP1 PUSH2 0x1972 JUMP JUMPDEST CALLER PUSH1 0x0 DUP2 DUP2 MSTORE PUSH1 0x10 PUSH1 0x20 MSTORE PUSH1 0x40 SWAP1 KECCAK256 SLOAD PUSH1 0xFF AND ISZERO PUSH2 0x1182 JUMPI PUSH1 0x40 MLOAD PUSH3 0x461BCD PUSH1 0xE5 SHL DUP2 MSTORE PUSH1 0x20 PUSH1 0x4 DUP3 ADD MSTORE PUSH1 0x1F PUSH1 0x24 DUP3 ADD MSTORE PUSH32 0x596F7527726520616C726561647920696E2074686520566970205374616B6500 PUSH1 0x44 DUP3 ADD MSTORE PUSH1 0x64 ADD PUSH2 0x515 JUMP JUMPDEST PUSH1 0x1 SLOAD PUSH1 0x40 MLOAD PUSH4 0x23B872DD PUSH1 0xE0 SHL DUP2 MSTORE PUSH1 0x1 PUSH1 0x1 PUSH1 0xA0 SHL SUB SWAP1 SWAP2 AND SWAP1 PUSH4 0x23B872DD SWAP1 PUSH2 0x11B6 SWAP1 DUP5 SWAP1 ADDRESS SWAP1 DUP8 SWAP1 PUSH1 0x4 ADD PUSH2 0x1A06 JUMP JUMPDEST PUSH1 0x20 PUSH1 0x40 MLOAD DUP1 DUP4 SUB DUP2 PUSH1 0x0 DUP8 GAS CALL ISZERO DUP1 ISZERO PUSH2 0x11D5 JUMPI RETURNDATASIZE PUSH1 0x0 DUP1 RETURNDATACOPY RETURNDATASIZE PUSH1 0x0 REVERT JUMPDEST POP POP POP POP PUSH1 0x40 MLOAD RETURNDATASIZE PUSH1 0x1F NOT PUSH1 0x1F DUP3 ADD AND DUP3 ADD DUP1 PUSH1 0x40 MSTORE POP DUP2 ADD SWAP1 PUSH2 0x11F9 SWAP2 SWAP1 PUSH2 0x1A2A JUMP JUMPDEST POP PUSH1 0x1 PUSH1 0x1 PUSH1 0xA0 SHL SUB DUP2 AND PUSH1 0x0 SWAP1 DUP2 MSTORE PUSH1 0x10 PUSH1 0x20 SWAP1 DUP2 MSTORE PUSH1 0x40 SWAP2 DUP3 SWAP1 KECCAK256 DUP1 SLOAD PUSH1 0xFF NOT AND PUSH1 0x1 OR SWAP1 SSTORE DUP2 MLOAD PUSH1 0x60 DUP2 ADD DUP4 MSTORE DUP5 DUP2 MSTORE TIMESTAMP SWAP2 DUP2 ADD DUP3 SWAP1 MSTORE SWAP2 DUP3 ADD SWAP1 PUSH2 0x1244 SWAP1 PUSH3 0x76A700 PUSH2 0x1A62 JUMP JUMPDEST SWAP1 MSTORE PUSH1 0x1 PUSH1 0x1 PUSH1 0xA0 SHL SUB DUP3 AND PUSH1 0x0 SWAP1 DUP2 MSTORE PUSH1 0x11 PUSH1 0x20 SWAP1 DUP2 MSTORE PUSH1 0x40 SWAP2 DUP3 SWAP1 KECCAK256 DUP4 MLOAD DUP2 SSTORE SWAP1 DUP4 ADD MLOAD PUSH1 0x1 DUP3 ADD SSTORE SWAP2 ADD MLOAD PUSH1 0x2 SWAP2 DUP3 ADD SSTORE PUSH32 0x17849BB8C713DE96B48F218D3BACC9AF082261C3CCC7C6DCCEBE70E667B22F23 SWAP1 DUP3 SWAP1 DUP5 TIMESTAMP PUSH2 0x6AD DUP2 PUSH3 0x76A700 PUSH2 0x1A62 JUMP JUMPDEST PUSH1 0x0 SLOAD PUSH1 0x1 PUSH1 0x1 PUSH1 0xA0 SHL SUB AND CALLER EQ PUSH2 0x12D5 JUMPI PUSH1 0x40 MLOAD PUSH3 0x461BCD PUSH1 0xE5 SHL DUP2 MSTORE PUSH1 0x4 ADD PUSH2 0x515 SWAP1 PUSH2 0x1A7A JUMP JUMPDEST PUSH1 0xB DUP1 SLOAD PUSH1 0x1 PUSH1 0x1 PUSH1 0xA0 SHL SUB NOT AND PUSH1 0x1 PUSH1 0x1 PUSH1 0xA0 SHL SUB SWAP3 SWAP1 SWAP3 AND SWAP2 SWAP1 SWAP2 OR SWAP1 SSTORE JUMP JUMPDEST PUSH1 0x0 SLOAD PUSH1 0x1 PUSH1 0x1 PUSH1 0xA0 SHL SUB AND CALLER EQ PUSH2 0x1321 JUMPI PUSH1 0x40 MLOAD PUSH3 0x461BCD PUSH1 0xE5 SHL DUP2 MSTORE PUSH1 0x4 ADD PUSH2 0x515 SWAP1 PUSH2 0x1A7A JUMP JUMPDEST PUSH1 0x2 SWAP3 SWAP1 SWAP3 SSTORE PUSH1 0x3 SSTORE PUSH1 0x4 SSTORE JUMP JUMPDEST PUSH1 0x0 SLOAD PUSH1 0x1 PUSH1 0x1 PUSH1 0xA0 SHL SUB AND CALLER EQ PUSH2 0x1359 JUMPI PUSH1 0x40 MLOAD PUSH3 0x461BCD PUSH1 0xE5 SHL DUP2 MSTORE PUSH1 0x4 ADD PUSH2 0x515 SWAP1 PUSH2 0x1A7A JUMP JUMPDEST PUSH1 0x1 PUSH1 0x1 PUSH1 0xA0 SHL SUB DUP2 AND PUSH2 0x13BE JUMPI PUSH1 0x40 MLOAD PUSH3 0x461BCD PUSH1 0xE5 SHL DUP2 MSTORE PUSH1 0x20 PUSH1 0x4 DUP3 ADD MSTORE PUSH1 0x26 PUSH1 0x24 DUP3 ADD MSTORE PUSH32 0x4F776E61626C653A206E6577206F776E657220697320746865207A65726F2061 PUSH1 0x44 DUP3 ADD MSTORE PUSH6 0x646472657373 PUSH1 0xD0 SHL PUSH1 0x64 DUP3 ADD MSTORE PUSH1 0x84 ADD PUSH2 0x515 JUMP JUMPDEST PUSH2 0x13C7 DUP2 PUSH2 0x1754 JUMP JUMPDEST POP JUMP JUMPDEST PUSH1 0x0 SLOAD PUSH1 0x1 PUSH1 0x1 PUSH1 0xA0 SHL SUB AND CALLER EQ PUSH2 0x13F4 JUMPI PUSH1 0x40 MLOAD PUSH3 0x461BCD PUSH1 0xE5 SHL DUP2 MSTORE PUSH1 0x4 ADD PUSH2 0x515 SWAP1 PUSH2 0x1A7A JUMP JUMPDEST PUSH1 0x5 SWAP6 SWAP1 SWAP6 SSTORE PUSH1 0x6 SWAP4 SWAP1 SWAP4 SSTORE PUSH1 0x7 SWAP2 SWAP1 SWAP2 SSTORE PUSH1 0x8 SSTORE PUSH1 0x9 SSTORE PUSH1 0xA SSTORE JUMP JUMPDEST PUSH1 0x0 DUP1 PUSH1 0xFF DUP4 AND PUSH2 0x143E JUMPI POP PUSH1 0x1 PUSH1 0x1 PUSH1 0xA0 SHL SUB DUP4 AND PUSH1 0x0 SWAP1 DUP2 MSTORE PUSH1 0xD PUSH1 0x20 MSTORE PUSH1 0x40 SWAP1 KECCAK256 PUSH1 0x2 ADD SLOAD PUSH2 0x14A4 JUMP JUMPDEST DUP3 PUSH1 0xFF AND PUSH1 0x1 EQ ISZERO PUSH2 0x146C JUMPI POP PUSH1 0x1 PUSH1 0x1 PUSH1 0xA0 SHL SUB DUP4 AND PUSH1 0x0 SWAP1 DUP2 MSTORE PUSH1 0xF PUSH1 0x20 MSTORE PUSH1 0x40 SWAP1 KECCAK256 PUSH1 0x2 ADD SLOAD PUSH2 0x14A4 JUMP JUMPDEST DUP3 PUSH1 0xFF AND PUSH1 0x2 EQ ISZERO PUSH2 0x149A JUMPI POP PUSH1 0x1 PUSH1 0x1 PUSH1 0xA0 SHL SUB DUP4 AND PUSH1 0x0 SWAP1 DUP2 MSTORE PUSH1 0x11 PUSH1 0x20 MSTORE PUSH1 0x40 SWAP1 KECCAK256 PUSH1 0x2 ADD SLOAD PUSH2 0x14A4 JUMP JUMPDEST PUSH1 0x0 SWAP2 POP POP PUSH2 0x14AA JUMP JUMPDEST TIMESTAMP LT ISZERO SWAP1 POP JUMPDEST SWAP3 SWAP2 POP POP JUMP JUMPDEST PUSH1 0x0 SLOAD PUSH1 0x1 PUSH1 0xA0 SHL SWAP1 DIV PUSH1 0xFF AND ISZERO PUSH2 0x14DA JUMPI PUSH1 0x40 MLOAD PUSH3 0x461BCD PUSH1 0xE5 SHL DUP2 MSTORE PUSH1 0x4 ADD PUSH2 0x515 SWAP1 PUSH2 0x1948 JUMP JUMPDEST PUSH1 0x6 SLOAD DUP2 GT ISZERO DUP1 ISZERO PUSH2 0x14EE JUMPI POP PUSH1 0x5 SLOAD DUP2 LT ISZERO JUMPDEST PUSH2 0x150A JUMPI PUSH1 0x40 MLOAD PUSH3 0x461BCD PUSH1 0xE5 SHL DUP2 MSTORE PUSH1 0x4 ADD PUSH2 0x515 SWAP1 PUSH2 0x1972 JUMP JUMPDEST CALLER PUSH1 0x0 DUP2 DUP2 MSTORE PUSH1 0xC PUSH1 0x20 MSTORE PUSH1 0x40 SWAP1 KECCAK256 SLOAD PUSH1 0xFF AND ISZERO PUSH2 0x153A JUMPI PUSH1 0x40 MLOAD PUSH3 0x461BCD PUSH1 0xE5 SHL DUP2 MSTORE PUSH1 0x4 ADD PUSH2 0x515 SWAP1 PUSH2 0x19C4 JUMP JUMPDEST PUSH1 0x1 SLOAD PUSH1 0x40 MLOAD PUSH4 0x23B872DD PUSH1 0xE0 SHL DUP2 MSTORE PUSH1 0x1 PUSH1 0x1 PUSH1 0xA0 SHL SUB SWAP1 SWAP2 AND SWAP1 PUSH4 0x23B872DD SWAP1 PUSH2 0x156E SWAP1 DUP5 SWAP1 ADDRESS SWAP1 DUP8 SWAP1 PUSH1 0x4 ADD PUSH2 0x1A06 JUMP JUMPDEST PUSH1 0x20 PUSH1 0x40 MLOAD DUP1 DUP4 SUB DUP2 PUSH1 0x0 DUP8 GAS CALL ISZERO DUP1 ISZERO PUSH2 0x158D JUMPI RETURNDATASIZE PUSH1 0x0 DUP1 RETURNDATACOPY RETURNDATASIZE PUSH1 0x0 REVERT JUMPDEST POP POP POP POP PUSH1 0x40 MLOAD RETURNDATASIZE PUSH1 0x1F NOT PUSH1 0x1F DUP3 ADD AND DUP3 ADD DUP1 PUSH1 0x40 MSTORE POP DUP2 ADD SWAP1 PUSH2 0x15B1 SWAP2 SWAP1 PUSH2 0x1A2A JUMP JUMPDEST POP PUSH1 0x1 PUSH1 0x1 PUSH1 0xA0 SHL SUB DUP2 AND PUSH1 0x0 SWAP1 DUP2 MSTORE PUSH1 0xC PUSH1 0x20 SWAP1 DUP2 MSTORE PUSH1 0x40 SWAP2 DUP3 SWAP1 KECCAK256 DUP1 SLOAD PUSH1 0xFF NOT AND PUSH1 0x1 OR SWAP1 SSTORE DUP2 MLOAD PUSH1 0x60 DUP2 ADD DUP4 MSTORE DUP5 DUP2 MSTORE TIMESTAMP SWAP2 DUP2 ADD DUP3 SWAP1 MSTORE SWAP2 DUP3 ADD SWAP1 PUSH2 0x15FC SWAP1 PUSH3 0x93A80 PUSH2 0x1A62 JUMP JUMPDEST SWAP1 MSTORE PUSH1 0x1 PUSH1 0x1 PUSH1 0xA0 SHL SUB DUP3 AND PUSH1 0x0 SWAP1 DUP2 MSTORE PUSH1 0xD PUSH1 0x20 SWAP1 DUP2 MSTORE PUSH1 0x40 DUP1 DUP4 KECCAK256 DUP5 MLOAD DUP2 SSTORE SWAP2 DUP5 ADD MLOAD PUSH1 0x1 DUP4 ADD SSTORE SWAP3 SWAP1 SWAP3 ADD MLOAD PUSH1 0x2 SWAP1 SWAP3 ADD SWAP2 SWAP1 SWAP2 SSTORE PUSH32 0x17849BB8C713DE96B48F218D3BACC9AF082261C3CCC7C6DCCEBE70E667B22F23 SWAP1 DUP3 SWAP1 DUP5 TIMESTAMP PUSH2 0x6AD DUP2 PUSH3 0x93A80 PUSH2 0x1A62 JUMP JUMPDEST PUSH1 0x0 SLOAD PUSH1 0x1 PUSH1 0xA0 SHL SWAP1 DIV PUSH1 0xFF AND PUSH2 0x16B7 JUMPI PUSH1 0x40 MLOAD PUSH3 0x461BCD PUSH1 0xE5 SHL DUP2 MSTORE PUSH1 0x20 PUSH1 0x4 DUP3 ADD MSTORE PUSH1 0x14 PUSH1 0x24 DUP3 ADD MSTORE PUSH20 0x14185D5CD8589B194E881B9BDD081C185D5CD959 PUSH1 0x62 SHL PUSH1 0x44 DUP3 ADD MSTORE PUSH1 0x64 ADD PUSH2 0x515 JUMP JUMPDEST PUSH1 0x0 DUP1 SLOAD PUSH1 0xFF PUSH1 0xA0 SHL NOT AND SWAP1 SSTORE PUSH32 0x5DB9EE0A495BF2E6FF9C91A7834C1BA4FDD244A5E8AA4E537BD38AEAE4B073AA CALLER JUMPDEST PUSH1 0x40 MLOAD PUSH1 0x1 PUSH1 0x1 PUSH1 0xA0 SHL SUB SWAP1 SWAP2 AND DUP2 MSTORE PUSH1 0x20 ADD PUSH1 0x40 MLOAD DUP1 SWAP2 SUB SWAP1 LOG1 JUMP JUMPDEST PUSH1 0x0 DUP1 PUSH2 0x1711 DUP5 TIMESTAMP PUSH2 0x1AE6 JUMP JUMPDEST SWAP1 POP PUSH1 0x0 PUSH4 0x1E13380 PUSH2 0x2710 PUSH2 0x1727 DUP7 DUP10 PUSH2 0x1B2E JUMP JUMPDEST PUSH2 0x1731 SWAP2 SWAP1 PUSH2 0x1B4D JUMP JUMPDEST PUSH2 0x173B SWAP2 SWAP1 PUSH2 0x1B4D JUMP JUMPDEST SWAP1 POP PUSH1 0x0 PUSH2 0x1749 DUP3 DUP5 PUSH2 0x1B2E JUMP JUMPDEST SWAP8 SWAP7 POP POP POP POP POP POP POP JUMP JUMPDEST PUSH1 0x0 DUP1 SLOAD PUSH1 0x1 PUSH1 0x1 PUSH1 0xA0 SHL SUB DUP4 DUP2 AND PUSH1 0x1 PUSH1 0x1 PUSH1 0xA0 SHL SUB NOT DUP4 AND DUP2 OR DUP5 SSTORE PUSH1 0x40 MLOAD SWAP2 SWAP1 SWAP3 AND SWAP3 DUP4 SWAP2 PUSH32 0x8BE0079C531659141344CD1FD0A4F28419497F9722A3DAAFE3B4186F6B6457E0 SWAP2 SWAP1 LOG3 POP POP JUMP JUMPDEST PUSH1 0x0 SLOAD PUSH1 0x1 PUSH1 0xA0 SHL SWAP1 DIV PUSH1 0xFF AND ISZERO PUSH2 0x17CE JUMPI PUSH1 0x40 MLOAD PUSH3 0x461BCD PUSH1 0xE5 SHL DUP2 MSTORE PUSH1 0x4 ADD PUSH2 0x515 SWAP1 PUSH2 0x1948 JUMP JUMPDEST PUSH1 0x0 DUP1 SLOAD PUSH1 0xFF PUSH1 0xA0 SHL NOT AND PUSH1 0x1 PUSH1 0xA0 SHL OR SWAP1 SSTORE PUSH32 0x62E78CEA01BEE320CD4E420270B5EA74000D11B0C9F74754EBDBFC544B05A258 PUSH2 0x16E7 CALLER SWAP1 JUMP JUMPDEST PUSH1 0x0 PUSH1 0x20 DUP3 DUP5 SUB SLT ISZERO PUSH2 0x181B JUMPI PUSH1 0x0 DUP1 REVERT JUMPDEST POP CALLDATALOAD SWAP2 SWAP1 POP JUMP JUMPDEST DUP1 CALLDATALOAD PUSH1 0x1 PUSH1 0x1 PUSH1 0xA0 SHL SUB DUP2 AND DUP2 EQ PUSH2 0x1839 JUMPI PUSH1 0x0 DUP1 REVERT JUMPDEST SWAP2 SWAP1 POP JUMP JUMPDEST PUSH1 0x0 PUSH1 0x20 DUP3 DUP5 SUB SLT ISZERO PUSH2 0x1850 JUMPI PUSH1 0x0 DUP1 REVERT JUMPDEST PUSH2 0xAAD DUP3 PUSH2 0x1822 JUMP JUMPDEST DUP1 CALLDATALOAD PUSH1 0xFF DUP2 AND DUP2 EQ PUSH2 0x1839 JUMPI PUSH1 0x0 DUP1 REVERT JUMPDEST PUSH1 0x0 DUP1 PUSH1 0x0 PUSH1 0x60 DUP5 DUP7 SUB SLT ISZERO PUSH2 0x187F JUMPI PUSH1 0x0 DUP1 REVERT JUMPDEST PUSH2 0x1888 DUP5 PUSH2 0x1822 JUMP JUMPDEST SWAP3 POP PUSH2 0x1896 PUSH1 0x20 DUP6 ADD PUSH2 0x1859 JUMP JUMPDEST SWAP2 POP PUSH1 0x40 DUP5 ADD CALLDATALOAD SWAP1 POP SWAP3 POP SWAP3 POP SWAP3 JUMP JUMPDEST PUSH1 0x0 DUP1 PUSH1 0x0 PUSH1 0x60 DUP5 DUP7 SUB SLT ISZERO PUSH2 0x18BB JUMPI PUSH1 0x0 DUP1 REVERT JUMPDEST POP POP DUP2 CALLDATALOAD SWAP4 PUSH1 0x20 DUP4 ADD CALLDATALOAD SWAP4 POP PUSH1 0x40 SWAP1 SWAP3 ADD CALLDATALOAD SWAP2 SWAP1 POP JUMP JUMPDEST PUSH1 0x0 DUP1 PUSH1 0x0 DUP1 PUSH1 0x0 DUP1 PUSH1 0xC0 DUP8 DUP10 SUB SLT ISZERO PUSH2 0x18EB JUMPI PUSH1 0x0 DUP1 REVERT JUMPDEST POP POP DUP5 CALLDATALOAD SWAP7 PUSH1 0x20 DUP7 ADD CALLDATALOAD SWAP7 POP PUSH1 0x40 DUP7 ADD CALLDATALOAD SWAP6 PUSH1 0x60 DUP2 ADD CALLDATALOAD SWAP6 POP PUSH1 0x80 DUP2 ADD CALLDATALOAD SWAP5 POP PUSH1 0xA0 ADD CALLDATALOAD SWAP3 POP SWAP1 POP JUMP JUMPDEST PUSH1 0x0 DUP1 PUSH1 0x40 DUP4 DUP6 SUB SLT ISZERO PUSH2 0x1928 JUMPI PUSH1 0x0 DUP1 REVERT JUMPDEST PUSH2 0x1931 DUP4 PUSH2 0x1822 JUMP JUMPDEST SWAP2 POP PUSH2 0x193F PUSH1 0x20 DUP5 ADD PUSH2 0x1859 JUMP JUMPDEST SWAP1 POP SWAP3 POP SWAP3 SWAP1 POP JUMP JUMPDEST PUSH1 0x20 DUP1 DUP3 MSTORE PUSH1 0x10 SWAP1 DUP3 ADD MSTORE PUSH16 0x14185D5CD8589B194E881C185D5CD959 PUSH1 0x82 SHL PUSH1 0x40 DUP3 ADD MSTORE PUSH1 0x60 ADD SWAP1 JUMP JUMPDEST PUSH1 0x20 DUP1 DUP3 MSTORE PUSH1 0x32 SWAP1 DUP3 ADD MSTORE PUSH32 0x416D6F756E74206E6565647320746F206265206D6F7265207468616E206D696E PUSH1 0x40 DUP3 ADD MSTORE PUSH18 0x40C2DCC840D8CAE6E640E8D0C2DC40DAC2F PUSH1 0x73 SHL PUSH1 0x60 DUP3 ADD MSTORE PUSH1 0x80 ADD SWAP1 JUMP JUMPDEST PUSH1 0x20 DUP1 DUP3 MSTORE PUSH1 0x22 SWAP1 DUP3 ADD MSTORE PUSH32 0x596F7527726520616C726561647920696E2074686973205374616B65206C6576 PUSH1 0x40 DUP3 ADD MSTORE PUSH2 0x195B PUSH1 0xF2 SHL PUSH1 0x60 DUP3 ADD MSTORE PUSH1 0x80 ADD SWAP1 JUMP JUMPDEST PUSH1 0x1 PUSH1 0x1 PUSH1 0xA0 SHL SUB SWAP4 DUP5 AND DUP2 MSTORE SWAP2 SWAP1 SWAP3 AND PUSH1 0x20 DUP3 ADD MSTORE PUSH1 0x40 DUP2 ADD SWAP2 SWAP1 SWAP2 MSTORE PUSH1 0x60 ADD SWAP1 JUMP JUMPDEST PUSH1 0x0 PUSH1 0x20 DUP3 DUP5 SUB SLT ISZERO PUSH2 0x1A3C JUMPI PUSH1 0x0 DUP1 REVERT JUMPDEST DUP2 MLOAD DUP1 ISZERO ISZERO DUP2 EQ PUSH2 0xAAD JUMPI PUSH1 0x0 DUP1 REVERT JUMPDEST PUSH4 0x4E487B71 PUSH1 0xE0 SHL PUSH1 0x0 MSTORE PUSH1 0x11 PUSH1 0x4 MSTORE PUSH1 0x24 PUSH1 0x0 REVERT JUMPDEST PUSH1 0x0 DUP3 NOT DUP3 GT ISZERO PUSH2 0x1A75 JUMPI PUSH2 0x1A75 PUSH2 0x1A4C JUMP JUMPDEST POP ADD SWAP1 JUMP JUMPDEST PUSH1 0x20 DUP1 DUP3 MSTORE DUP2 DUP2 ADD MSTORE PUSH32 0x4F776E61626C653A2063616C6C6572206973206E6F7420746865206F776E6572 PUSH1 0x40 DUP3 ADD MSTORE PUSH1 0x60 ADD SWAP1 JUMP JUMPDEST PUSH1 0x20 DUP1 DUP3 MSTORE PUSH1 0x1E SWAP1 DUP3 ADD MSTORE PUSH32 0x4E6F7420656E6F7567682062616C616E636520746F2077697468647261770000 PUSH1 0x40 DUP3 ADD MSTORE PUSH1 0x60 ADD SWAP1 JUMP JUMPDEST PUSH1 0x0 DUP3 DUP3 LT ISZERO PUSH2 0x1AF8 JUMPI PUSH2 0x1AF8 PUSH2 0x1A4C JUMP JUMPDEST POP SUB SWAP1 JUMP JUMPDEST PUSH1 0x1 PUSH1 0x1 PUSH1 0xA0 SHL SUB SWAP6 SWAP1 SWAP6 AND DUP6 MSTORE PUSH1 0xFF SWAP4 SWAP1 SWAP4 AND PUSH1 0x20 DUP6 ADD MSTORE SWAP1 ISZERO ISZERO PUSH1 0x40 DUP5 ADD MSTORE PUSH1 0x60 DUP4 ADD MSTORE PUSH1 0x80 DUP3 ADD MSTORE PUSH1 0xA0 ADD SWAP1 JUMP JUMPDEST PUSH1 0x0 DUP2 PUSH1 0x0 NOT DIV DUP4 GT DUP3 ISZERO ISZERO AND ISZERO PUSH2 0x1B48 JUMPI PUSH2 0x1B48 PUSH2 0x1A4C JUMP JUMPDEST POP MUL SWAP1 JUMP JUMPDEST PUSH1 0x0 DUP3 PUSH2 0x1B6A JUMPI PUSH4 0x4E487B71 PUSH1 0xE0 SHL PUSH1 0x0 MSTORE PUSH1 0x12 PUSH1 0x4 MSTORE PUSH1 0x24 PUSH1 0x0 REVERT JUMPDEST POP DIV SWAP1 JUMP INVALID LOG2 PUSH5 0x6970667358 0x22 SLT KECCAK256 0xB1 DUP2 PUSH23 0x15E6B3DB0D0D7B1B78F19962BE2CC09238AD00B903B554 LOG0 MSIZE SWAP8 MOD DUP2 SSTORE PUSH5 0x736F6C6343 STOP ADDMOD SIGNEXTEND STOP CALLER "
				},
				"gasEstimates": {
					"creation": {
						"codeDepositCost": "1415400",
						"executionCost": "infinite",
						"totalCost": "infinite"
					},
					"external": {
						"acceptedToken()": "2405",
						"enterLevel0(uint256)": "infinite",
						"enterLevel1(uint256)": "infinite",
						"enterVip(uint256)": "infinite",
						"getInterest(address,uint8,uint256)": "infinite",
						"isLevel0(address)": "2643",
						"isLevel1(address)": "2577",
						"isOnTime(address,uint8)": "infinite",
						"isVip(address)": "2577",
						"level0APY()": "2417",
						"level0Balance(address)": "6906",
						"level0Max()": "2373",
						"level0Min()": "2352",
						"level1APY()": "2375",
						"level1Balance(address)": "6905",
						"level1Max()": "2351",
						"level1Min()": "2331",
						"levelVipMax()": "2396",
						"levelVipMin()": "2329",
						"owner()": "2421",
						"pause()": "29847",
						"paused()": "2400",
						"renounceOwnership()": "28181",
						"reserveWallet()": "2426",
						"setNewAPY(uint256,uint256,uint256)": "68769",
						"setNewMaxMin(uint256,uint256,uint256,uint256,uint256,uint256)": "135194",
						"setReserveWallet(address)": "26822",
						"transferOwnership(address)": "28375",
						"unpause()": "29796",
						"vipBalance(address)": "6883",
						"vipLevelAPY()": "2397",
						"withdrawLevel0(uint256)": "infinite",
						"withdrawLevel1(uint256)": "infinite",
						"withdrawVip(uint256)": "infinite"
					},
					"internal": {
						"calculateInterest(uint256,uint256,uint256)": "infinite"
					}
				},
				"methodIdentifiers": {
					"acceptedToken()": "451c3d80",
					"enterLevel0(uint256)": "fe2981b5",
					"enterLevel1(uint256)": "1ed81ff8",
					"enterVip(uint256)": "bf01651a",
					"getInterest(address,uint8,uint256)": "69e06848",
					"isLevel0(address)": "6296e750",
					"isLevel1(address)": "635ef285",
					"isOnTime(address,uint8)": "f7edf9ab",
					"isVip(address)": "84203f4b",
					"level0APY()": "8275b181",
					"level0Balance(address)": "67911ba4",
					"level0Max()": "71a1609b",
					"level0Min()": "6505cf31",
					"level1APY()": "1ff08fee",
					"level1Balance(address)": "7fe509d7",
					"level1Max()": "d3900a52",
					"level1Min()": "01ef4739",
					"levelVipMax()": "8f0fb2b7",
					"levelVipMin()": "91789cef",
					"owner()": "8da5cb5b",
					"pause()": "8456cb59",
					"paused()": "5c975abb",
					"renounceOwnership()": "715018a6",
					"reserveWallet()": "d72b11bd",
					"setNewAPY(uint256,uint256,uint256)": "e5d15701",
					"setNewMaxMin(uint256,uint256,uint256,uint256,uint256,uint256)": "f4217e1e",
					"setReserveWallet(address)": "dda4fa8f",
					"transferOwnership(address)": "f2fde38b",
					"unpause()": "3f4ba83a",
					"vipBalance(address)": "97e9c5fe",
					"vipLevelAPY()": "32938e3a",
					"withdrawLevel0(uint256)": "927e5998",
					"withdrawLevel1(uint256)": "bb664864",
					"withdrawVip(uint256)": "6636389e"
				}
			},
			"userdoc": {
				"kind": "user",
				"methods": {},
				"version": 1
			}
		}
	}
}