{
	"staking.sol": {
		"mochiStaking": {
			"abi": [
				{
					"inputs": [
						{
							"internalType": "address",
							"name": "_token",
							"type": "address"
						}
					],
					"stateMutability": "nonpayable",
					"type": "constructor"
				},
				{
					"anonymous": false,
					"inputs": [
						{
							"indexed": true,
							"internalType": "address",
							"name": "previousOwner",
							"type": "address"
						},
						{
							"indexed": true,
							"internalType": "address",
							"name": "newOwner",
							"type": "address"
						}
					],
					"name": "OwnershipTransferred",
					"type": "event"
				},
				{
					"anonymous": false,
					"inputs": [
						{
							"indexed": false,
							"internalType": "address",
							"name": "account",
							"type": "address"
						}
					],
					"name": "Paused",
					"type": "event"
				},
				{
					"anonymous": false,
					"inputs": [
						{
							"indexed": false,
							"internalType": "address",
							"name": "account",
							"type": "address"
						}
					],
					"name": "Unpaused",
					"type": "event"
				},
				{
					"anonymous": false,
					"inputs": [
						{
							"indexed": false,
							"internalType": "address",
							"name": "user",
							"type": "address"
						},
						{
							"indexed": false,
							"internalType": "uint8",
							"name": "class",
							"type": "uint8"
						},
						{
							"indexed": false,
							"internalType": "uint256",
							"name": "amount",
							"type": "uint256"
						},
						{
							"indexed": false,
							"internalType": "uint256",
							"name": "timeStart",
							"type": "uint256"
						},
						{
							"indexed": false,
							"internalType": "uint256",
							"name": "timeEnd",
							"type": "uint256"
						}
					],
					"name": "deposit",
					"type": "event"
				},
				{
					"anonymous": false,
					"inputs": [
						{
							"indexed": false,
							"internalType": "address",
							"name": "user",
							"type": "address"
						},
						{
							"indexed": false,
							"internalType": "uint8",
							"name": "class",
							"type": "uint8"
						},
						{
							"indexed": false,
							"internalType": "bool",
							"name": "onTime",
							"type": "bool"
						},
						{
							"indexed": false,
							"internalType": "uint256",
							"name": "amount",
							"type": "uint256"
						},
						{
							"indexed": false,
							"internalType": "uint256",
							"name": "earnings",
							"type": "uint256"
						}
					],
					"name": "withdraw",
					"type": "event"
				},
				{
					"inputs": [],
					"name": "acceptedToken",
					"outputs": [
						{
							"internalType": "contract IERC20",
							"name": "",
							"type": "address"
						}
					],
					"stateMutability": "view",
					"type": "function"
				},
				{
					"inputs": [
						{
							"internalType": "uint256",
							"name": "_amount",
							"type": "uint256"
						}
					],
					"name": "enterLevel0",
					"outputs": [],
					"stateMutability": "nonpayable",
					"type": "function"
				},
				{
					"inputs": [
						{
							"internalType": "uint256",
							"name": "_amount",
							"type": "uint256"
						}
					],
					"name": "enterLevel1",
					"outputs": [],
					"stateMutability": "nonpayable",
					"type": "function"
				},
				{
					"inputs": [
						{
							"internalType": "uint256",
							"name": "_amount",
							"type": "uint256"
						}
					],
					"name": "enterVip",
					"outputs": [],
					"stateMutability": "nonpayable",
					"type": "function"
				},
				{
					"inputs": [
						{
							"internalType": "address",
							"name": "user",
							"type": "address"
						},
						{
							"internalType": "uint8",
							"name": "class",
							"type": "uint8"
						},
						{
							"internalType": "uint256",
							"name": "balance",
							"type": "uint256"
						}
					],
					"name": "getInterest",
					"outputs": [
						{
							"internalType": "uint256",
							"name": "",
							"type": "uint256"
						}
					],
					"stateMutability": "view",
					"type": "function"
				},
				{
					"inputs": [
						{
							"internalType": "address",
							"name": "",
							"type": "address"
						}
					],
					"name": "isLevel0",
					"outputs": [
						{
							"internalType": "bool",
							"name": "",
							"type": "bool"
						}
					],
					"stateMutability": "view",
					"type": "function"
				},
				{
					"inputs": [
						{
							"internalType": "address",
							"name": "",
							"type": "address"
						}
					],
					"name": "isLevel1",
					"outputs": [
						{
							"internalType": "bool",
							"name": "",
							"type": "bool"
						}
					],
					"stateMutability": "view",
					"type": "function"
				},
				{
					"inputs": [
						{
							"internalType": "address",
							"name": "user",
							"type": "address"
						},
						{
							"internalType": "uint8",
							"name": "class",
							"type": "uint8"
						}
					],
					"name": "isOnTime",
					"outputs": [
						{
							"internalType": "bool",
							"name": "",
							"type": "bool"
						}
					],
					"stateMutability": "view",
					"type": "function"
				},
				{
					"inputs": [
						{
							"internalType": "address",
							"name": "",
							"type": "address"
						}
					],
					"name": "isVip",
					"outputs": [
						{
							"internalType": "bool",
							"name": "",
							"type": "bool"
						}
					],
					"stateMutability": "view",
					"type": "function"
				},
				{
					"inputs": [],
					"name": "level0APY",
					"outputs": [
						{
							"internalType": "uint256",
							"name": "",
							"type": "uint256"
						}
					],
					"stateMutability": "view",
					"type": "function"
				},
				{
					"inputs": [
						{
							"internalType": "address",
							"name": "",
							"type": "address"
						}
					],
					"name": "level0Balance",
					"outputs": [
						{
							"internalType": "uint256",
							"name": "balance",
							"type": "uint256"
						},
						{
							"internalType": "uint256",
							"name": "timeStarted",
							"type": "uint256"
						},
						{
							"internalType": "uint256",
							"name": "timeFinish",
							"type": "uint256"
						}
					],
					"stateMutability": "view",
					"type": "function"
				},
				{
					"inputs": [],
					"name": "level0Max",
					"outputs": [
						{
							"internalType": "uint256",
							"name": "",
							"type": "uint256"
						}
					],
					"stateMutability": "view",
					"type": "function"
				},
				{
					"inputs": [],
					"name": "level0Min",
					"outputs": [
						{
							"internalType": "uint256",
							"name": "",
							"type": "uint256"
						}
					],
					"stateMutability": "view",
					"type": "function"
				},
				{
					"inputs": [],
					"name": "level1APY",
					"outputs": [
						{
							"internalType": "uint256",
							"name": "",
							"type": "uint256"
						}
					],
					"stateMutability": "view",
					"type": "function"
				},
				{
					"inputs": [
						{
							"internalType": "address",
							"name": "",
							"type": "address"
						}
					],
					"name": "level1Balance",
					"outputs": [
						{
							"internalType": "uint256",
							"name": "balance",
							"type": "uint256"
						},
						{
							"internalType": "uint256",
							"name": "timeStarted",
							"type": "uint256"
						},
						{
							"internalType": "uint256",
							"name": "timeFinish",
							"type": "uint256"
						}
					],
					"stateMutability": "view",
					"type": "function"
				},
				{
					"inputs": [],
					"name": "level1Max",
					"outputs": [
						{
							"internalType": "uint256",
							"name": "",
							"type": "uint256"
						}
					],
					"stateMutability": "view",
					"type": "function"
				},
				{
					"inputs": [],
					"name": "level1Min",
					"outputs": [
						{
							"internalType": "uint256",
							"name": "",
							"type": "uint256"
						}
					],
					"stateMutability": "view",
					"type": "function"
				},
				{
					"inputs": [],
					"name": "levelVipMax",
					"outputs": [
						{
							"internalType": "uint256",
							"name": "",
							"type": "uint256"
						}
					],
					"stateMutability": "view",
					"type": "function"
				},
				{
					"inputs": [],
					"name": "levelVipMin",
					"outputs": [
						{
							"internalType": "uint256",
							"name": "",
							"type": "uint256"
						}
					],
					"stateMutability": "view",
					"type": "function"
				},
				{
					"inputs": [],
					"name": "owner",
					"outputs": [
						{
							"internalType": "address",
							"name": "",
							"type": "address"
						}
					],
					"stateMutability": "view",
					"type": "function"
				},
				{
					"inputs": [],
					"name": "pause",
					"outputs": [],
					"stateMutability": "nonpayable",
					"type": "function"
				},
				{
					"inputs": [],
					"name": "paused",
					"outputs": [
						{
							"internalType": "bool",
							"name": "",
							"type": "bool"
						}
					],
					"stateMutability": "view",
					"type": "function"
				},
				{
					"inputs": [],
					"name": "renounceOwnership",
					"outputs": [],
					"stateMutability": "nonpayable",
					"type": "function"
				},
				{
					"inputs": [
						{
							"internalType": "uint256",
							"name": "_level0APY",
							"type": "uint256"
						},
						{
							"internalType": "uint256",
							"name": "_level1APY",
							"type": "uint256"
						},
						{
							"internalType": "uint256",
							"name": "_vipLevelAPY",
							"type": "uint256"
						}
					],
					"name": "setNewAPY",
					"outputs": [],
					"stateMutability": "nonpayable",
					"type": "function"
				},
				{
					"inputs": [
						{
							"internalType": "uint256",
							"name": "_level0Min",
							"type": "uint256"
						},
						{
							"internalType": "uint256",
							"name": "_level0Max",
							"type": "uint256"
						},
						{
							"internalType": "uint256",
							"name": "_level1Min",
							"type": "uint256"
						},
						{
							"internalType": "uint256",
							"name": "_level1Max",
							"type": "uint256"
						},
						{
							"internalType": "uint256",
							"name": "_levelVipMin",
							"type": "uint256"
						},
						{
							"internalType": "uint256",
							"name": "_levelVipMax",
							"type": "uint256"
						}
					],
					"name": "setNewMaxMin",
					"outputs": [],
					"stateMutability": "nonpayable",
					"type": "function"
				},
				{
					"inputs": [
						{
							"internalType": "address",
							"name": "newOwner",
							"type": "address"
						}
					],
					"name": "transferOwnership",
					"outputs": [],
					"stateMutability": "nonpayable",
					"type": "function"
				},
				{
					"inputs": [],
					"name": "uniswapV2Router",
					"outputs": [
						{
							"internalType": "contract IDexRouter",
							"name": "",
							"type": "address"
						}
					],
					"stateMutability": "view",
					"type": "function"
				},
				{
					"inputs": [],
					"name": "unpause",
					"outputs": [],
					"stateMutability": "nonpayable",
					"type": "function"
				},
				{
					"inputs": [
						{
							"internalType": "address",
							"name": "",
							"type": "address"
						}
					],
					"name": "vipBalance",
					"outputs": [
						{
							"internalType": "uint256",
							"name": "balance",
							"type": "uint256"
						},
						{
							"internalType": "uint256",
							"name": "timeStarted",
							"type": "uint256"
						},
						{
							"internalType": "uint256",
							"name": "timeFinish",
							"type": "uint256"
						}
					],
					"stateMutability": "view",
					"type": "function"
				},
				{
					"inputs": [],
					"name": "vipLevelAPY",
					"outputs": [
						{
							"internalType": "uint256",
							"name": "",
							"type": "uint256"
						}
					],
					"stateMutability": "view",
					"type": "function"
				},
				{
					"inputs": [
						{
							"internalType": "uint256",
							"name": "_amount",
							"type": "uint256"
						}
					],
					"name": "withdrawLevel0",
					"outputs": [],
					"stateMutability": "nonpayable",
					"type": "function"
				},
				{
					"inputs": [
						{
							"internalType": "uint256",
							"name": "_amount",
							"type": "uint256"
						}
					],
					"name": "withdrawLevel1",
					"outputs": [],
					"stateMutability": "nonpayable",
					"type": "function"
				},
				{
					"inputs": [
						{
							"internalType": "uint256",
							"name": "_amount",
							"type": "uint256"
						}
					],
					"name": "withdrawVip",
					"outputs": [],
					"stateMutability": "nonpayable",
					"type": "function"
				}
			],
			"devdoc": {
				"kind": "dev",
				"methods": {
					"enterLevel0(uint256)": {
						"details": "Join to a staking class. Requirements:   - User has not enter the staking class previously. "
					},
					"enterLevel1(uint256)": {
						"details": "Join to a staking class. Requirements:    - User has not enter the staking class previously.   "
					},
					"enterVip(uint256)": {
						"details": "Join to a staking class. Requirements: - _amount must be greather than enter fee. - User has not enter the staking class previously.    "
					},
					"getInterest(address,uint8,uint256)": {
						"details": "Get interest earned during the staking time. classes : 0 - level 0, 1 - level 1, 2 - Vip"
					},
					"isOnTime(address,uint8)": {
						"details": "Checks if the staking has reached the timeFinish limit. classes :0 - level 0, 1 - level 1, 2 - Vip"
					},
					"owner()": {
						"details": "Returns the address of the current owner."
					},
					"paused()": {
						"details": "Returns true if the contract is paused, and false otherwise."
					},
					"renounceOwnership()": {
						"details": "Leaves the contract without owner. It will not be possible to call `onlyOwner` functions anymore. Can only be called by the current owner. NOTE: Renouncing ownership will leave the contract without an owner, thereby removing any functionality that is only available to the owner."
					},
					"setNewAPY(uint256,uint256,uint256)": {
						"details": "Change APY for all categories.   "
					},
					"setNewMaxMin(uint256,uint256,uint256,uint256,uint256,uint256)": {
						"details": "Change max and min values for all categories.   "
					},
					"transferOwnership(address)": {
						"details": "Transfers ownership of the contract to a new account (`newOwner`). Can only be called by the current owner."
					},
					"withdrawLevel0(uint256)": {
						"details": "Withdraw from a staking class. Requirements: - Msg.sender should have an active deposit in the class."
					},
					"withdrawLevel1(uint256)": {
						"details": "Withdraw from a staking class. Requirements: - Msg.sender should have an active deposit in the class."
					},
					"withdrawVip(uint256)": {
						"details": "Withdraw from a staking class. Requirements: - Msg.sender should have an active deposit in the class."
					}
				},
				"version": 1
			},
			"evm": {
				"assembly": "    /* \"staking.sol\":930:12028  contract mochiStaking is Ownable, Pausable {... */\n  mstore(0x40, 0xa0)\n    /* \"staking.sol\":1261:1265  2700 */\n  0x0a8c\n    /* \"staking.sol\":1233:1265  uint256 public level0APY =  2700 */\n  0x02\n  sstore\n    /* \"staking.sol\":1298:1302  3700 */\n  0x0e74\n    /* \"staking.sol\":1271:1302  uint256 public level1APY = 3700 */\n  0x03\n  sstore\n    /* \"staking.sol\":1337:1341  4800 */\n  0x12c0\n    /* \"staking.sol\":1308:1341  uint256 public vipLevelAPY = 4800 */\n  0x04\n  sstore\n    /* \"staking.sol\":1409:1420  50 * 10**18 */\n  0x02b5e3af16b1880000\n    /* \"staking.sol\":1382:1420  uint256 public level0Min = 50 * 10**18 */\n  0x05\n  sstore\n    /* \"staking.sol\":1453:1471  500000000 * 10**18 */\n  0x019d971e4fe8401e74000000\n    /* \"staking.sol\":1426:1471  uint256 public level0Max = 500000000 * 10**18 */\n  0x06\n  sstore\n    /* \"staking.sol\":1504:1516  100 * 10**18 */\n  0x056bc75e2d63100000\n    /* \"staking.sol\":1477:1516  uint256 public level1Min = 100 * 10**18 */\n  0x07\n  sstore\n    /* \"staking.sol\":1549:1567  500000000 * 10**18 */\n  0x019d971e4fe8401e74000000\n    /* \"staking.sol\":1522:1567  uint256 public level1Max = 500000000 * 10**18 */\n  0x08\n  sstore\n    /* \"staking.sol\":1602:1614  200 * 10**18 */\n  0x0ad78ebc5ac6200000\n    /* \"staking.sol\":1573:1614  uint256 public levelVipMin = 200 * 10**18 */\n  0x09\n  sstore\n    /* \"staking.sol\":1649:1668  2500000000 * 10**18 */\n  0x0813f3978f89409844000000\n    /* \"staking.sol\":1620:1668  uint256 public levelVipMax = 2500000000 * 10**18 */\n  0x0a\n  sstore\n    /* \"staking.sol\":2357:2593  constructor(address _token ) {... */\n  callvalue\n  dup1\n  iszero\n  tag_1\n  jumpi\n  0x00\n  dup1\n  revert\ntag_1:\n  pop\n  mload(0x40)\n  sub(codesize, bytecodeSize)\n  dup1\n  bytecodeSize\n  dup4\n  codecopy\n  dup2\n  add\n  0x40\n  dup2\n  swap1\n  mstore\n  tag_2\n  swap2\n  tag_3\n  jump\t// in\ntag_2:\n    /* \"@openzeppelin/contracts/access/Ownable.sol\":921:953  _transferOwnership(_msgSender()) */\n  tag_8\n    /* \"@openzeppelin/contracts/utils/Context.sol\":719:729  msg.sender */\n  caller\n    /* \"@openzeppelin/contracts/access/Ownable.sol\":921:939  _transferOwnership */\n  tag_11\n    /* \"@openzeppelin/contracts/access/Ownable.sol\":921:953  _transferOwnership(_msgSender()) */\n  jump\t// in\ntag_8:\n    /* \"@openzeppelin/contracts/security/Pausable.sol\":991:996  false */\n  0x00\n    /* \"@openzeppelin/contracts/security/Pausable.sol\":981:996  _paused = false */\n  dup1\n  sload\n  not(shl(0xa0, 0xff))\n  and\n  swap1\n  sstore\n  0x01\n    /* \"staking.sol\":2396:2426  acceptedToken = IERC20(_token) */\n  dup1\n  sload\n  not(sub(shl(0xa0, 0x01), 0x01))\n  and\n  sub(shl(0xa0, 0x01), 0x01)\n  swap3\n  swap1\n  swap3\n  and\n  swap2\n  swap1\n  swap2\n  or\n  swap1\n  sstore\n    /* \"staking.sol\":2477:2519  0x7a250d5630B4cF539739dF2C5dAcb4c659F2488D */\n  0x7a250d5630b4cf539739df2c5dacb4c659f2488d\n    /* \"staking.sol\":2548:2582  uniswapV2Router = _uniswapV2Router */\n  0x80\n  mstore\n    /* \"staking.sol\":930:12028  contract mochiStaking is Ownable, Pausable {... */\n  jump(tag_17)\n    /* \"@openzeppelin/contracts/access/Ownable.sol\":2270:2457  function _transferOwnership(address newOwner) internal virtual {... */\ntag_11:\n    /* \"@openzeppelin/contracts/access/Ownable.sol\":2343:2359  address oldOwner */\n  0x00\n    /* \"@openzeppelin/contracts/access/Ownable.sol\":2362:2368  _owner */\n  dup1\n  sload\n  sub(shl(0xa0, 0x01), 0x01)\n    /* \"@openzeppelin/contracts/access/Ownable.sol\":2378:2395  _owner = newOwner */\n  dup4\n  dup2\n  and\n  not(sub(shl(0xa0, 0x01), 0x01))\n  dup4\n  and\n  dup2\n  or\n  dup5\n  sstore\n    /* \"@openzeppelin/contracts/access/Ownable.sol\":2410:2450  OwnershipTransferred(oldOwner, newOwner) */\n  mload(0x40)\n    /* \"@openzeppelin/contracts/access/Ownable.sol\":2362:2368  _owner */\n  swap2\n  swap1\n  swap3\n  and\n  swap3\n  dup4\n  swap2\n    /* \"@openzeppelin/contracts/access/Ownable.sol\":2410:2450  OwnershipTransferred(oldOwner, newOwner) */\n  0x8be0079c531659141344cd1fd0a4f28419497f9722a3daafe3b4186f6b6457e0\n  swap2\n    /* \"@openzeppelin/contracts/access/Ownable.sol\":2343:2359  address oldOwner */\n  swap1\n    /* \"@openzeppelin/contracts/access/Ownable.sol\":2410:2450  OwnershipTransferred(oldOwner, newOwner) */\n  log3\n    /* \"@openzeppelin/contracts/access/Ownable.sol\":2333:2457  {... */\n  pop\n    /* \"@openzeppelin/contracts/access/Ownable.sol\":2270:2457  function _transferOwnership(address newOwner) internal virtual {... */\n  pop\n  jump\t// out\n    /* \"#utility.yul\":14:304   */\ntag_3:\n    /* \"#utility.yul\":84:90   */\n  0x00\n    /* \"#utility.yul\":137:139   */\n  0x20\n    /* \"#utility.yul\":125:134   */\n  dup3\n    /* \"#utility.yul\":116:123   */\n  dup5\n    /* \"#utility.yul\":112:135   */\n  sub\n    /* \"#utility.yul\":108:140   */\n  slt\n    /* \"#utility.yul\":105:157   */\n  iszero\n  tag_19\n  jumpi\n    /* \"#utility.yul\":153:154   */\n  0x00\n    /* \"#utility.yul\":150:151   */\n  dup1\n    /* \"#utility.yul\":143:155   */\n  revert\n    /* \"#utility.yul\":105:157   */\ntag_19:\n    /* \"#utility.yul\":179:195   */\n  dup2\n  mload\n  sub(shl(0xa0, 0x01), 0x01)\n    /* \"#utility.yul\":224:255   */\n  dup2\n  and\n    /* \"#utility.yul\":214:256   */\n  dup2\n  eq\n    /* \"#utility.yul\":204:274   */\n  tag_20\n  jumpi\n    /* \"#utility.yul\":270:271   */\n  0x00\n    /* \"#utility.yul\":267:268   */\n  dup1\n    /* \"#utility.yul\":260:272   */\n  revert\n    /* \"#utility.yul\":204:274   */\ntag_20:\n    /* \"#utility.yul\":293:298   */\n  swap4\n    /* \"#utility.yul\":14:304   */\n  swap3\n  pop\n  pop\n  pop\n  jump\t// out\ntag_17:\n    /* \"staking.sol\":930:12028  contract mochiStaking is Ownable, Pausable {... */\n  mload(0x80)\n  codecopy(0x00, dataOffset(sub_0), dataSize(sub_0))\n  0x00\n  assignImmutable(\"0xccd68672d6f769e1076a41a883b1b79cd2ffe42afc01c80e02e0f47639ea513e\")\n  return(0x00, dataSize(sub_0))\nstop\n\nsub_0: assembly {\n        /* \"staking.sol\":930:12028  contract mochiStaking is Ownable, Pausable {... */\n      mstore(0x40, 0x80)\n      callvalue\n      dup1\n      iszero\n      tag_1\n      jumpi\n      0x00\n      dup1\n      revert\n    tag_1:\n      pop\n      jumpi(tag_2, lt(calldatasize, 0x04))\n      shr(0xe0, calldataload(0x00))\n      dup1\n      0x7fe509d7\n      gt\n      tag_36\n      jumpi\n      dup1\n      0x97e9c5fe\n      gt\n      tag_37\n      jumpi\n      dup1\n      0xe5d15701\n      gt\n      tag_38\n      jumpi\n      dup1\n      0xe5d15701\n      eq\n      tag_31\n      jumpi\n      dup1\n      0xf2fde38b\n      eq\n      tag_32\n      jumpi\n      dup1\n      0xf4217e1e\n      eq\n      tag_33\n      jumpi\n      dup1\n      0xf7edf9ab\n      eq\n      tag_34\n      jumpi\n      dup1\n      0xfe2981b5\n      eq\n      tag_35\n      jumpi\n      0x00\n      dup1\n      revert\n    tag_38:\n      dup1\n      0x97e9c5fe\n      eq\n      tag_27\n      jumpi\n      dup1\n      0xbb664864\n      eq\n      tag_28\n      jumpi\n      dup1\n      0xbf01651a\n      eq\n      tag_29\n      jumpi\n      dup1\n      0xd3900a52\n      eq\n      tag_30\n      jumpi\n      0x00\n      dup1\n      revert\n    tag_37:\n      dup1\n      0x8da5cb5b\n      gt\n      tag_39\n      jumpi\n      dup1\n      0x8da5cb5b\n      eq\n      tag_23\n      jumpi\n      dup1\n      0x8f0fb2b7\n      eq\n      tag_24\n      jumpi\n      dup1\n      0x91789cef\n      eq\n      tag_25\n      jumpi\n      dup1\n      0x927e5998\n      eq\n      tag_26\n      jumpi\n      0x00\n      dup1\n      revert\n    tag_39:\n      dup1\n      0x7fe509d7\n      eq\n      tag_19\n      jumpi\n      dup1\n      0x8275b181\n      eq\n      tag_20\n      jumpi\n      dup1\n      0x84203f4b\n      eq\n      tag_21\n      jumpi\n      dup1\n      0x8456cb59\n      eq\n      tag_22\n      jumpi\n      0x00\n      dup1\n      revert\n    tag_36:\n      dup1\n      0x6296e750\n      gt\n      tag_40\n      jumpi\n      dup1\n      0x67911ba4\n      gt\n      tag_41\n      jumpi\n      dup1\n      0x67911ba4\n      eq\n      tag_15\n      jumpi\n      dup1\n      0x69e06848\n      eq\n      tag_16\n      jumpi\n      dup1\n      0x715018a6\n      eq\n      tag_17\n      jumpi\n      dup1\n      0x71a1609b\n      eq\n      tag_18\n      jumpi\n      0x00\n      dup1\n      revert\n    tag_41:\n      dup1\n      0x6296e750\n      eq\n      tag_11\n      jumpi\n      dup1\n      0x635ef285\n      eq\n      tag_12\n      jumpi\n      dup1\n      0x6505cf31\n      eq\n      tag_13\n      jumpi\n      dup1\n      0x6636389e\n      eq\n      tag_14\n      jumpi\n      0x00\n      dup1\n      revert\n    tag_40:\n      dup1\n      0x32938e3a\n      gt\n      tag_42\n      jumpi\n      dup1\n      0x32938e3a\n      eq\n      tag_7\n      jumpi\n      dup1\n      0x3f4ba83a\n      eq\n      tag_8\n      jumpi\n      dup1\n      0x451c3d80\n      eq\n      tag_9\n      jumpi\n      dup1\n      0x5c975abb\n      eq\n      tag_10\n      jumpi\n      0x00\n      dup1\n      revert\n    tag_42:\n      dup1\n      0x01ef4739\n      eq\n      tag_3\n      jumpi\n      dup1\n      0x1694505e\n      eq\n      tag_4\n      jumpi\n      dup1\n      0x1ed81ff8\n      eq\n      tag_5\n      jumpi\n      dup1\n      0x1ff08fee\n      eq\n      tag_6\n      jumpi\n    tag_2:\n      0x00\n      dup1\n      revert\n        /* \"staking.sol\":1477:1516  uint256 public level1Min = 100 * 10**18 */\n    tag_3:\n      tag_43\n      sload(0x07)\n      dup2\n      jump\n    tag_43:\n      mload(0x40)\n        /* \"#utility.yul\":160:185   */\n      swap1\n      dup2\n      mstore\n        /* \"#utility.yul\":148:150   */\n      0x20\n        /* \"#utility.yul\":133:151   */\n      add\n        /* \"staking.sol\":1477:1516  uint256 public level1Min = 100 * 10**18 */\n    tag_45:\n      mload(0x40)\n      dup1\n      swap2\n      sub\n      swap1\n      return\n        /* \"staking.sol\":2050:2093  IDexRouter public immutable uniswapV2Router */\n    tag_4:\n      tag_47\n      immutable(\"0xccd68672d6f769e1076a41a883b1b79cd2ffe42afc01c80e02e0f47639ea513e\")\n      dup2\n      jump\n    tag_47:\n      mload(0x40)\n      sub(shl(0xa0, 0x01), 0x01)\n        /* \"#utility.yul\":378:410   */\n      swap1\n      swap2\n      and\n        /* \"#utility.yul\":360:411   */\n      dup2\n      mstore\n        /* \"#utility.yul\":348:350   */\n      0x20\n        /* \"#utility.yul\":333:351   */\n      add\n        /* \"staking.sol\":2050:2093  IDexRouter public immutable uniswapV2Router */\n      tag_45\n        /* \"#utility.yul\":196:417   */\n      jump\n        /* \"staking.sol\":4563:5305  function enterLevel1 (uint256 _amount) public whenNotPaused {... */\n    tag_5:\n      tag_51\n      tag_52\n      calldatasize\n      0x04\n      tag_53\n      jump\t// in\n    tag_52:\n      tag_54\n      jump\t// in\n    tag_51:\n      stop\n        /* \"staking.sol\":1271:1302  uint256 public level1APY = 3700 */\n    tag_6:\n      tag_43\n      sload(0x03)\n      dup2\n      jump\n        /* \"staking.sol\":1308:1341  uint256 public vipLevelAPY = 4800 */\n    tag_7:\n      tag_43\n      sload(0x04)\n      dup2\n      jump\n        /* \"staking.sol\":2714:2778  function unpause () public onlyOwner {... */\n    tag_8:\n      tag_51\n      tag_62\n      jump\t// in\n        /* \"staking.sol\":1024:1051  IERC20 public acceptedToken */\n    tag_9:\n      sload(0x01)\n      tag_47\n      swap1\n      sub(shl(0xa0, 0x01), 0x01)\n      and\n      dup2\n      jump\n        /* \"@openzeppelin/contracts/security/Pausable.sol\":1098:1182  function paused() public view virtual returns (bool) {... */\n    tag_10:\n        /* \"@openzeppelin/contracts/security/Pausable.sol\":1145:1149  bool */\n      0x00\n        /* \"@openzeppelin/contracts/security/Pausable.sol\":1168:1175  _paused */\n      sload\n      shl(0xa0, 0x01)\n      swap1\n      div\n      0xff\n      and\n        /* \"@openzeppelin/contracts/security/Pausable.sol\":1098:1182  function paused() public view virtual returns (bool) {... */\n    tag_67:\n      mload(0x40)\n        /* \"#utility.yul\":994:1008   */\n      swap1\n      iszero\n        /* \"#utility.yul\":987:1009   */\n      iszero\n        /* \"#utility.yul\":969:1010   */\n      dup2\n      mstore\n        /* \"#utility.yul\":957:959   */\n      0x20\n        /* \"#utility.yul\":942:960   */\n      add\n        /* \"@openzeppelin/contracts/security/Pausable.sol\":1098:1182  function paused() public view virtual returns (bool) {... */\n      tag_45\n        /* \"#utility.yul\":829:1016   */\n      jump\n        /* \"staking.sol\":1731:1772  mapping (address => bool) public isLevel0 */\n    tag_11:\n      tag_67\n      tag_72\n      calldatasize\n      0x04\n      tag_73\n      jump\t// in\n    tag_72:\n      mstore(0x20, 0x0b)\n      0x00\n      swap1\n      dup2\n      mstore\n      0x40\n      swap1\n      keccak256\n      sload\n      0xff\n      and\n      dup2\n      jump\n        /* \"staking.sol\":1831:1872  mapping (address => bool) public isLevel1 */\n    tag_12:\n      tag_67\n      tag_77\n      calldatasize\n      0x04\n      tag_73\n      jump\t// in\n    tag_77:\n      mstore(0x20, 0x0d)\n      0x00\n      swap1\n      dup2\n      mstore\n      0x40\n      swap1\n      keccak256\n      sload\n      0xff\n      and\n      dup2\n      jump\n        /* \"staking.sol\":1382:1420  uint256 public level0Min = 50 * 10**18 */\n    tag_13:\n      tag_43\n      sload(0x05)\n      dup2\n      jump\n        /* \"staking.sol\":10487:11423  function withdrawVip (uint256 _amount) public  {... */\n    tag_14:\n      tag_51\n      tag_84\n      calldatasize\n      0x04\n      tag_53\n      jump\t// in\n    tag_84:\n      tag_85\n      jump\t// in\n        /* \"staking.sol\":1778:1825  mapping (address => _user) public level0Balance */\n    tag_15:\n      tag_86\n      tag_87\n      calldatasize\n      0x04\n      tag_73\n      jump\t// in\n    tag_87:\n      mstore(0x20, 0x0c)\n      0x00\n      swap1\n      dup2\n      mstore\n      0x40\n      swap1\n      keccak256\n      dup1\n      sload\n      0x01\n      dup3\n      add\n      sload\n      0x02\n      swap1\n      swap3\n      add\n      sload\n      swap1\n      swap2\n      swap1\n      dup4\n      jump\n    tag_86:\n      0x40\n      dup1\n      mload\n        /* \"#utility.yul\":1611:1636   */\n      swap4\n      dup5\n      mstore\n        /* \"#utility.yul\":1667:1669   */\n      0x20\n        /* \"#utility.yul\":1652:1670   */\n      dup5\n      add\n        /* \"#utility.yul\":1645:1679   */\n      swap3\n      swap1\n      swap3\n      mstore\n        /* \"#utility.yul\":1695:1713   */\n      swap1\n      dup3\n      add\n        /* \"#utility.yul\":1688:1722   */\n      mstore\n        /* \"#utility.yul\":1599:1601   */\n      0x60\n        /* \"#utility.yul\":1584:1602   */\n      add\n        /* \"staking.sol\":1778:1825  mapping (address => _user) public level0Balance */\n      tag_45\n        /* \"#utility.yul\":1409:1728   */\n      jump\n        /* \"staking.sol\":7031:7717  function getInterest (address user, uint8 class, uint256 balance) public view returns (uint256){... */\n    tag_16:\n      tag_43\n      tag_92\n      calldatasize\n      0x04\n      tag_93\n      jump\t// in\n    tag_92:\n      tag_94\n      jump\t// in\n        /* \"@openzeppelin/contracts/access/Ownable.sol\":1668:1769  function renounceOwnership() public virtual onlyOwner {... */\n    tag_17:\n      tag_51\n      tag_97\n      jump\t// in\n        /* \"staking.sol\":1426:1471  uint256 public level0Max = 500000000 * 10**18 */\n    tag_18:\n      tag_43\n      sload(0x06)\n      dup2\n      jump\n        /* \"staking.sol\":1878:1925  mapping (address => _user) public level1Balance */\n    tag_19:\n      tag_86\n      tag_102\n      calldatasize\n      0x04\n      tag_73\n      jump\t// in\n    tag_102:\n      mstore(0x20, 0x0e)\n      0x00\n      swap1\n      dup2\n      mstore\n      0x40\n      swap1\n      keccak256\n      dup1\n      sload\n      0x01\n      dup3\n      add\n      sload\n      0x02\n      swap1\n      swap3\n      add\n      sload\n      swap1\n      swap2\n      swap1\n      dup4\n      jump\n        /* \"staking.sol\":1233:1265  uint256 public level0APY =  2700 */\n    tag_20:\n      tag_43\n      sload(0x02)\n      dup2\n      jump\n        /* \"staking.sol\":1931:1969  mapping (address => bool) public isVip */\n    tag_21:\n      tag_67\n      tag_109\n      calldatasize\n      0x04\n      tag_73\n      jump\t// in\n    tag_109:\n      mstore(0x20, 0x0f)\n      0x00\n      swap1\n      dup2\n      mstore\n      0x40\n      swap1\n      keccak256\n      sload\n      0xff\n      and\n      dup2\n      jump\n        /* \"staking.sol\":2644:2704  function pause () public onlyOwner {... */\n    tag_22:\n      tag_51\n      tag_113\n      jump\t// in\n        /* \"@openzeppelin/contracts/access/Ownable.sol\":1036:1121  function owner() public view virtual returns (address) {... */\n    tag_23:\n        /* \"@openzeppelin/contracts/access/Ownable.sol\":1082:1089  address */\n      0x00\n        /* \"@openzeppelin/contracts/access/Ownable.sol\":1108:1114  _owner */\n      sload\n      sub(shl(0xa0, 0x01), 0x01)\n      and\n        /* \"@openzeppelin/contracts/access/Ownable.sol\":1036:1121  function owner() public view virtual returns (address) {... */\n      jump(tag_47)\n        /* \"staking.sol\":1620:1668  uint256 public levelVipMax = 2500000000 * 10**18 */\n    tag_24:\n      tag_43\n      sload(0x0a)\n      dup2\n      jump\n        /* \"staking.sol\":1573:1614  uint256 public levelVipMin = 200 * 10**18 */\n    tag_25:\n      tag_43\n      sload(0x09)\n      dup2\n      jump\n        /* \"staking.sol\":8245:9215  function withdrawLevel0 (uint256 _amount) public  {... */\n    tag_26:\n      tag_51\n      tag_125\n      calldatasize\n      0x04\n      tag_53\n      jump\t// in\n    tag_125:\n      tag_126\n      jump\t// in\n        /* \"staking.sol\":1975:2019  mapping (address => _user) public vipBalance */\n    tag_27:\n      tag_86\n      tag_128\n      calldatasize\n      0x04\n      tag_73\n      jump\t// in\n    tag_128:\n      mstore(0x20, 0x10)\n      0x00\n      swap1\n      dup2\n      mstore\n      0x40\n      swap1\n      keccak256\n      dup1\n      sload\n      0x01\n      dup3\n      add\n      sload\n      0x02\n      swap1\n      swap3\n      add\n      sload\n      swap1\n      swap2\n      swap1\n      dup4\n      jump\n        /* \"staking.sol\":9373:10329  function withdrawLevel1 (uint256 _amount) public  {... */\n    tag_28:\n      tag_51\n      tag_132\n      calldatasize\n      0x04\n      tag_53\n      jump\t// in\n    tag_132:\n      tag_133\n      jump\t// in\n        /* \"staking.sol\":5504:6252  function enterVip (uint256 _amount) public whenNotPaused {... */\n    tag_29:\n      tag_51\n      tag_135\n      calldatasize\n      0x04\n      tag_53\n      jump\t// in\n    tag_135:\n      tag_136\n      jump\t// in\n        /* \"staking.sol\":1522:1567  uint256 public level1Max = 500000000 * 10**18 */\n    tag_30:\n      tag_43\n      sload(0x08)\n      dup2\n      jump\n        /* \"staking.sol\":2846:3054  function setNewAPY ( uint256 _level0APY, uint256 _level1APY, uint256 _vipLevelAPY) external onlyOwner{... */\n    tag_31:\n      tag_51\n      tag_141\n      calldatasize\n      0x04\n      tag_142\n      jump\t// in\n    tag_141:\n      tag_143\n      jump\t// in\n        /* \"@openzeppelin/contracts/access/Ownable.sol\":1918:2116  function transferOwnership(address newOwner) public virtual onlyOwner {... */\n    tag_32:\n      tag_51\n      tag_145\n      calldatasize\n      0x04\n      tag_73\n      jump\t// in\n    tag_145:\n      tag_146\n      jump\t// in\n        /* \"staking.sol\":3136:3508  function setNewMaxMin (uint256 _level0Min, uint256 _level0Max, uint256 _level1Min, uint256 _level1Max, uint256 _levelVipMin, uint256 _levelVipMax) external onlyOwner{... */\n    tag_33:\n      tag_51\n      tag_148\n      calldatasize\n      0x04\n      tag_149\n      jump\t// in\n    tag_148:\n      tag_150\n      jump\t// in\n        /* \"staking.sol\":6397:6896  function isOnTime (address user, uint8 class) public view returns (bool) {... */\n    tag_34:\n      tag_67\n      tag_152\n      calldatasize\n      0x04\n      tag_153\n      jump\t// in\n    tag_152:\n      tag_154\n      jump\t// in\n        /* \"staking.sol\":3657:4407  function enterLevel0 (uint256 _amount) public whenNotPaused {... */\n    tag_35:\n      tag_51\n      tag_157\n      calldatasize\n      0x04\n      tag_53\n      jump\t// in\n    tag_157:\n      tag_158\n      jump\t// in\n        /* \"staking.sol\":4563:5305  function enterLevel1 (uint256 _amount) public whenNotPaused {... */\n    tag_54:\n        /* \"@openzeppelin/contracts/security/Pausable.sol\":1145:1149  bool */\n      0x00\n        /* \"@openzeppelin/contracts/security/Pausable.sol\":1168:1175  _paused */\n      sload\n      shl(0xa0, 0x01)\n      swap1\n      div\n      0xff\n      and\n        /* \"@openzeppelin/contracts/security/Pausable.sol\":1411:1420  !paused() */\n      iszero\n        /* \"@openzeppelin/contracts/security/Pausable.sol\":1403:1441  require(!paused(), \"Pausable: paused\") */\n      tag_161\n      jumpi\n      mload(0x40)\n      shl(0xe5, 0x461bcd)\n      dup2\n      mstore\n      0x04\n      add\n      tag_162\n      swap1\n      tag_163\n      jump\t// in\n    tag_162:\n      mload(0x40)\n      dup1\n      swap2\n      sub\n      swap1\n      revert\n    tag_161:\n        /* \"staking.sol\":4652:4661  level1Max */\n      sload(0x08)\n        /* \"staking.sol\":4641:4648  _amount */\n      dup2\n        /* \"staking.sol\":4641:4661  _amount <= level1Max */\n      gt\n      iszero\n        /* \"staking.sol\":4641:4685  _amount <= level1Max && _amount >= level1Min */\n      dup1\n      iszero\n      tag_165\n      jumpi\n      pop\n        /* \"staking.sol\":4676:4685  level1Min */\n      sload(0x07)\n        /* \"staking.sol\":4665:4672  _amount */\n      dup2\n        /* \"staking.sol\":4665:4685  _amount >= level1Min */\n      lt\n      iszero\n        /* \"staking.sol\":4641:4685  _amount <= level1Max && _amount >= level1Min */\n    tag_165:\n        /* \"staking.sol\":4633:4740  require(_amount <= level1Max && _amount >= level1Min, \"Amount needs to be more than min and less than max\") */\n      tag_166\n      jumpi\n      mload(0x40)\n      shl(0xe5, 0x461bcd)\n      dup2\n      mstore\n      0x04\n      add\n      tag_162\n      swap1\n      tag_168\n      jump\t// in\n    tag_166:\n        /* \"staking.sol\":4771:4781  msg.sender */\n      caller\n        /* \"staking.sol\":4750:4768  address _msgSender */\n      0x00\n        /* \"staking.sol\":4802:4822  isLevel1[_msgSender] */\n      dup2\n      dup2\n      mstore\n        /* \"staking.sol\":4802:4810  isLevel1 */\n      0x0d\n        /* \"staking.sol\":4802:4822  isLevel1[_msgSender] */\n      0x20\n      mstore\n      0x40\n      swap1\n      keccak256\n      sload\n      0xff\n      and\n        /* \"staking.sol\":4801:4822  !isLevel1[_msgSender] */\n      iszero\n        /* \"staking.sol\":4793:4861  require(!isLevel1[_msgSender], \"You're already in this Stake level\") */\n      tag_169\n      jumpi\n      mload(0x40)\n      shl(0xe5, 0x461bcd)\n      dup2\n      mstore\n      0x04\n      add\n      tag_162\n      swap1\n      tag_171\n      jump\t// in\n    tag_169:\n        /* \"staking.sol\":4878:4891  acceptedToken */\n      sload(0x01)\n        /* \"staking.sol\":4878:4940  acceptedToken.transferFrom(_msgSender, address(this), _amount) */\n      mload(0x40)\n      shl(0xe0, 0x23b872dd)\n      dup2\n      mstore\n      sub(shl(0xa0, 0x01), 0x01)\n        /* \"#utility.yul\":5088:5103   */\n      dup4\n      dup2\n      and\n        /* \"staking.sol\":4878:4940  acceptedToken.transferFrom(_msgSender, address(this), _amount) */\n      0x04\n      dup4\n      add\n        /* \"#utility.yul\":5070:5104   */\n      mstore\n        /* \"staking.sol\":4925:4929  this */\n      address\n        /* \"#utility.yul\":5120:5138   */\n      0x24\n      dup4\n      add\n        /* \"#utility.yul\":5113:5156   */\n      mstore\n        /* \"#utility.yul\":5172:5190   */\n      0x44\n      dup3\n      add\n        /* \"#utility.yul\":5165:5199   */\n      dup6\n      swap1\n      mstore\n        /* \"staking.sol\":4878:4891  acceptedToken */\n      swap1\n      swap2\n      and\n      swap1\n        /* \"staking.sol\":4878:4904  acceptedToken.transferFrom */\n      0x23b872dd\n      swap1\n        /* \"#utility.yul\":5005:5023   */\n      0x64\n      add\n        /* \"staking.sol\":4878:4940  acceptedToken.transferFrom(_msgSender, address(this), _amount) */\n      0x20\n      mload(0x40)\n      dup1\n      dup4\n      sub\n      dup2\n      0x00\n      dup8\n      gas\n      call\n      iszero\n      dup1\n      iszero\n      tag_175\n      jumpi\n      returndatasize\n      0x00\n      dup1\n      returndatacopy\n      revert(0x00, returndatasize)\n    tag_175:\n      pop\n      pop\n      pop\n      pop\n      mload(0x40)\n      returndatasize\n      not(0x1f)\n      0x1f\n      dup3\n      add\n      and\n      dup3\n      add\n      dup1\n      0x40\n      mstore\n      pop\n      dup2\n      add\n      swap1\n      tag_176\n      swap2\n      swap1\n      tag_177\n      jump\t// in\n    tag_176:\n      pop\n      sub(shl(0xa0, 0x01), 0x01)\n        /* \"staking.sol\":4951:4971  isLevel1[_msgSender] */\n      dup2\n      and\n      0x00\n      swap1\n      dup2\n      mstore\n        /* \"staking.sol\":4951:4959  isLevel1 */\n      0x0d\n        /* \"staking.sol\":4951:4971  isLevel1[_msgSender] */\n      0x20\n      swap1\n      dup2\n      mstore\n      0x40\n      swap2\n      dup3\n      swap1\n      keccak256\n        /* \"staking.sol\":4951:4978  isLevel1[_msgSender] = true */\n      dup1\n      sload\n      not(0xff)\n      and\n        /* \"staking.sol\":4974:4978  true */\n      0x01\n        /* \"staking.sol\":4951:4978  isLevel1[_msgSender] = true */\n      or\n      swap1\n      sstore\n        /* \"staking.sol\":5016:5202  _user ({... */\n      dup2\n      mload\n      0x60\n      dup2\n      add\n      dup4\n      mstore\n      dup5\n      dup2\n      mstore\n        /* \"staking.sol\":5078:5093  block.timestamp */\n      timestamp\n        /* \"staking.sol\":5016:5202  _user ({... */\n      swap2\n      dup2\n      add\n      dup3\n      swap1\n      mstore\n      swap2\n      dup3\n      add\n      swap1\n        /* \"staking.sol\":5170:5191  block.timestamp + 800 */\n      tag_178\n      swap1\n        /* \"staking.sol\":5188:5191  800 */\n      0x0320\n        /* \"staking.sol\":5170:5191  block.timestamp + 800 */\n      tag_179\n      jump\t// in\n    tag_178:\n        /* \"staking.sol\":5016:5202  _user ({... */\n      swap1\n      mstore\n      sub(shl(0xa0, 0x01), 0x01)\n        /* \"staking.sol\":4988:5013  level1Balance[_msgSender] */\n      dup3\n      and\n      0x00\n      swap1\n      dup2\n      mstore\n        /* \"staking.sol\":4988:5001  level1Balance */\n      0x0e\n        /* \"staking.sol\":4988:5013  level1Balance[_msgSender] */\n      0x20\n      swap1\n      dup2\n      mstore\n      0x40\n      swap2\n      dup3\n      swap1\n      keccak256\n        /* \"staking.sol\":4988:5202  level1Balance[_msgSender] = _user ({... */\n      dup4\n      mload\n      dup2\n      sstore\n      swap1\n      dup4\n      add\n      mload\n      0x01\n      dup1\n      dup4\n      add\n      swap2\n      swap1\n      swap2\n      sstore\n      swap3\n      swap1\n      swap2\n      add\n      mload\n      0x02\n      swap1\n      swap2\n      add\n      sstore\n        /* \"staking.sol\":5222:5298  deposit (_msgSender, 1, _amount, block.timestamp, block.timestamp + 30 days) */\n      0x17849bb8c713de96b48f218d3bacc9af082261c3ccc7c6dccebe70e667b22f23\n      swap1\n        /* \"staking.sol\":5002:5012  _msgSender */\n      dup3\n      swap1\n        /* \"staking.sol\":5246:5253  _amount */\n      dup5\n        /* \"staking.sol\":5255:5270  block.timestamp */\n      timestamp\n        /* \"staking.sol\":5272:5297  block.timestamp + 30 days */\n      tag_180\n        /* \"staking.sol\":5255:5270  block.timestamp */\n      dup2\n        /* \"staking.sol\":5290:5297  30 days */\n      0x278d00\n        /* \"staking.sol\":5272:5297  block.timestamp + 30 days */\n      tag_179\n      jump\t// in\n    tag_180:\n        /* \"staking.sol\":5222:5298  deposit (_msgSender, 1, _amount, block.timestamp, block.timestamp + 30 days) */\n      0x40\n      dup1\n      mload\n      sub(shl(0xa0, 0x01), 0x01)\n        /* \"#utility.yul\":6040:6072   */\n      swap1\n      swap7\n      and\n        /* \"#utility.yul\":6022:6073   */\n      dup7\n      mstore\n        /* \"#utility.yul\":6121:6125   */\n      0xff\n        /* \"#utility.yul\":6109:6126   */\n      swap1\n      swap5\n      and\n        /* \"#utility.yul\":6104:6106   */\n      0x20\n        /* \"#utility.yul\":6089:6107   */\n      dup7\n      add\n        /* \"#utility.yul\":6082:6127   */\n      mstore\n        /* \"#utility.yul\":6143:6161   */\n      swap3\n      dup5\n      add\n        /* \"#utility.yul\":6136:6170   */\n      swap2\n      swap1\n      swap2\n      mstore\n        /* \"#utility.yul\":6201:6203   */\n      0x60\n        /* \"#utility.yul\":6186:6204   */\n      dup4\n      add\n        /* \"#utility.yul\":6179:6213   */\n      mstore\n        /* \"#utility.yul\":6244:6247   */\n      0x80\n        /* \"#utility.yul\":6229:6248   */\n      dup3\n      add\n        /* \"#utility.yul\":6222:6257   */\n      mstore\n        /* \"#utility.yul\":6009:6012   */\n      0xa0\n        /* \"#utility.yul\":5994:6013   */\n      add\n        /* \"staking.sol\":5222:5298  deposit (_msgSender, 1, _amount, block.timestamp, block.timestamp + 30 days) */\n      mload(0x40)\n      dup1\n      swap2\n      sub\n      swap1\n      log1\n        /* \"staking.sol\":4623:5305  {... */\n      pop\n        /* \"staking.sol\":4563:5305  function enterLevel1 (uint256 _amount) public whenNotPaused {... */\n      pop\n      jump\t// out\n        /* \"staking.sol\":2714:2778  function unpause () public onlyOwner {... */\n    tag_62:\n        /* \"@openzeppelin/contracts/access/Ownable.sol\":1082:1089  address */\n      0x00\n        /* \"@openzeppelin/contracts/access/Ownable.sol\":1108:1114  _owner */\n      sload\n      sub(shl(0xa0, 0x01), 0x01)\n      and\n        /* \"@openzeppelin/contracts/utils/Context.sol\":719:729  msg.sender */\n      caller\n        /* \"@openzeppelin/contracts/access/Ownable.sol\":1248:1271  owner() == _msgSender() */\n      eq\n        /* \"@openzeppelin/contracts/access/Ownable.sol\":1240:1308  require(owner() == _msgSender(), \"Ownable: caller is not the owner\") */\n      tag_187\n      jumpi\n      mload(0x40)\n      shl(0xe5, 0x461bcd)\n      dup2\n      mstore\n      0x04\n      add\n      tag_162\n      swap1\n      tag_189\n      jump\t// in\n    tag_187:\n        /* \"staking.sol\":2761:2771  _unpause() */\n      tag_191\n        /* \"staking.sol\":2761:2769  _unpause */\n      tag_192\n        /* \"staking.sol\":2761:2771  _unpause() */\n      jump\t// in\n    tag_191:\n        /* \"staking.sol\":2714:2778  function unpause () public onlyOwner {... */\n      jump\t// out\n        /* \"staking.sol\":10487:11423  function withdrawVip (uint256 _amount) public  {... */\n    tag_85:\n        /* \"staking.sol\":10565:10575  msg.sender */\n      caller\n        /* \"staking.sol\":10544:10562  address _msgSender */\n      0x00\n        /* \"staking.sol\":10593:10610  isVip[_msgSender] */\n      dup2\n      dup2\n      mstore\n        /* \"staking.sol\":10593:10598  isVip */\n      0x0f\n        /* \"staking.sol\":10593:10610  isVip[_msgSender] */\n      0x20\n      mstore\n      0x40\n      swap1\n      keccak256\n      sload\n      0xff\n      and\n        /* \"staking.sol\":10585:10630  require(isVip[_msgSender], \"User is not Vip\") */\n      tag_195\n      jumpi\n      mload(0x40)\n      shl(0xe5, 0x461bcd)\n      dup2\n      mstore\n        /* \"#utility.yul\":6831:6833   */\n      0x20\n        /* \"staking.sol\":10585:10630  require(isVip[_msgSender], \"User is not Vip\") */\n      0x04\n      dup3\n      add\n        /* \"#utility.yul\":6813:6834   */\n      mstore\n        /* \"#utility.yul\":6870:6872   */\n      0x0f\n        /* \"#utility.yul\":6850:6868   */\n      0x24\n      dup3\n      add\n        /* \"#utility.yul\":6843:6873   */\n      mstore\n      shl(0x8c, 0x055736572206973206e6f742056697)\n        /* \"#utility.yul\":6889:6907   */\n      0x44\n      dup3\n      add\n        /* \"#utility.yul\":6882:6927   */\n      mstore\n        /* \"#utility.yul\":6944:6962   */\n      0x64\n      add\n        /* \"staking.sol\":10585:10630  require(isVip[_msgSender], \"User is not Vip\") */\n      tag_162\n        /* \"#utility.yul\":6629:6968   */\n      jump\n        /* \"staking.sol\":10585:10630  require(isVip[_msgSender], \"User is not Vip\") */\n    tag_195:\n      sub(shl(0xa0, 0x01), 0x01)\n        /* \"staking.sol\":10663:10685  vipBalance[_msgSender] */\n      dup2\n      and\n        /* \"staking.sol\":10645:10660  uint256 balance */\n      0x00\n        /* \"staking.sol\":10663:10685  vipBalance[_msgSender] */\n      swap1\n      dup2\n      mstore\n        /* \"staking.sol\":10663:10673  vipBalance */\n      0x10\n        /* \"staking.sol\":10663:10685  vipBalance[_msgSender] */\n      0x20\n      mstore\n      0x40\n      swap1\n      keccak256\n        /* \"staking.sol\":10663:10693  vipBalance[_msgSender].balance */\n      sload\n        /* \"staking.sol\":10711:10729  balance >= _amount */\n      dup3\n      dup2\n      lt\n      iszero\n        /* \"staking.sol\":10703:10764  require(balance >= _amount, \"Not enough balance to withdraw\") */\n      tag_198\n      jumpi\n      mload(0x40)\n      shl(0xe5, 0x461bcd)\n      dup2\n      mstore\n      0x04\n      add\n      tag_162\n      swap1\n      tag_200\n      jump\t// in\n    tag_198:\n        /* \"staking.sol\":10775:10789  bool _isOnTime */\n      0x00\n        /* \"staking.sol\":10792:10815  isOnTime(_msgSender, 2) */\n      tag_201\n        /* \"staking.sol\":10801:10811  _msgSender */\n      dup4\n        /* \"staking.sol\":10813:10814  2 */\n      0x02\n        /* \"staking.sol\":10792:10800  isOnTime */\n      tag_154\n        /* \"staking.sol\":10792:10815  isOnTime(_msgSender, 2) */\n      jump\t// in\n    tag_201:\n        /* \"staking.sol\":10775:10815  bool _isOnTime = isOnTime(_msgSender, 2) */\n      swap1\n      pop\n        /* \"staking.sol\":10825:10841  uint256 earnings */\n      0x00\n        /* \"staking.sol\":10844:10879  getInterest(_msgSender, 2, _amount) */\n      tag_202\n        /* \"staking.sol\":10856:10866  _msgSender */\n      dup5\n        /* \"staking.sol\":10868:10869  2 */\n      0x02\n        /* \"staking.sol\":10871:10878  _amount */\n      dup8\n        /* \"staking.sol\":10844:10855  getInterest */\n      tag_94\n        /* \"staking.sol\":10844:10879  getInterest(_msgSender, 2, _amount) */\n      jump\t// in\n    tag_202:\n        /* \"staking.sol\":10825:10879  uint256 earnings = getInterest(_msgSender, 2, _amount) */\n      swap1\n      pop\n        /* \"staking.sol\":10904:10911  balance */\n      dup3\n        /* \"staking.sol\":10893:10900  _amount */\n      dup6\n        /* \"staking.sol\":10893:10911  _amount == balance */\n      eq\n        /* \"staking.sol\":10890:11082  if(_amount == balance){... */\n      iszero\n      tag_203\n      jumpi\n      sub(shl(0xa0, 0x01), 0x01)\n        /* \"staking.sol\":10933:10955  vipBalance[_msgSender] */\n      dup5\n      and\n      0x00\n      swap1\n      dup2\n      mstore\n        /* \"staking.sol\":10933:10943  vipBalance */\n      0x10\n        /* \"staking.sol\":10933:10955  vipBalance[_msgSender] */\n      0x20\n      swap1\n      dup2\n      mstore\n      0x40\n      dup1\n      dup4\n      keccak256\n        /* \"staking.sol\":10926:10955  delete vipBalance[_msgSender] */\n      dup4\n      dup2\n      sstore\n      0x01\n      dup2\n      add\n      dup5\n      swap1\n      sstore\n      0x02\n      add\n      dup4\n      swap1\n      sstore\n        /* \"staking.sol\":10974:10979  isVip */\n      0x0f\n        /* \"staking.sol\":10974:10991  isVip[_msgSender] */\n      swap1\n      swap2\n      mstore\n      swap1\n      keccak256\n        /* \"staking.sol\":10974:10999  isVip[_msgSender] = false */\n      dup1\n      sload\n      not(0xff)\n      and\n      swap1\n      sstore\n        /* \"staking.sol\":10890:11082  if(_amount == balance){... */\n      jump(tag_204)\n    tag_203:\n      sub(shl(0xa0, 0x01), 0x01)\n        /* \"staking.sol\":11030:11052  vipBalance[_msgSender] */\n      dup5\n      and\n      0x00\n      swap1\n      dup2\n      mstore\n        /* \"staking.sol\":11030:11040  vipBalance */\n      0x10\n        /* \"staking.sol\":11030:11052  vipBalance[_msgSender] */\n      0x20\n      mstore\n      0x40\n      dup2\n      keccak256\n        /* \"staking.sol\":11030:11071  vipBalance[_msgSender].balance -= _amount */\n      dup1\n      sload\n        /* \"staking.sol\":11064:11071  _amount */\n      dup8\n      swap3\n        /* \"staking.sol\":11030:11052  vipBalance[_msgSender] */\n      swap1\n        /* \"staking.sol\":11030:11071  vipBalance[_msgSender].balance -= _amount */\n      tag_205\n      swap1\n        /* \"staking.sol\":11064:11071  _amount */\n      dup5\n      swap1\n        /* \"staking.sol\":11030:11071  vipBalance[_msgSender].balance -= _amount */\n      tag_206\n      jump\t// in\n    tag_205:\n      swap1\n      swap2\n      sstore\n      pop\n      pop\n        /* \"staking.sol\":10890:11082  if(_amount == balance){... */\n    tag_204:\n        /* \"staking.sol\":11095:11104  _isOnTime */\n      dup2\n        /* \"staking.sol\":11092:11348  if(_isOnTime){... */\n      iszero\n      tag_207\n      jumpi\n        /* \"staking.sol\":11119:11132  acceptedToken */\n      sload(0x01)\n        /* \"staking.sol\":11119:11162  acceptedToken.transfer(_msgSender, _amount) */\n      mload(0x40)\n      shl(0xe0, 0xa9059cbb)\n      dup2\n      mstore\n      sub(shl(0xa0, 0x01), 0x01)\n        /* \"#utility.yul\":7654:7686   */\n      dup7\n      dup2\n      and\n        /* \"staking.sol\":11119:11162  acceptedToken.transfer(_msgSender, _amount) */\n      0x04\n      dup4\n      add\n        /* \"#utility.yul\":7636:7687   */\n      mstore\n        /* \"#utility.yul\":7703:7721   */\n      0x24\n      dup3\n      add\n        /* \"#utility.yul\":7696:7730   */\n      dup9\n      swap1\n      mstore\n        /* \"staking.sol\":11119:11132  acceptedToken */\n      swap1\n      swap2\n      and\n      swap1\n        /* \"staking.sol\":11119:11141  acceptedToken.transfer */\n      0xa9059cbb\n      swap1\n        /* \"#utility.yul\":7609:7627   */\n      0x44\n      add\n        /* \"staking.sol\":11119:11162  acceptedToken.transfer(_msgSender, _amount) */\n      0x20\n      mload(0x40)\n      dup1\n      dup4\n      sub\n      dup2\n      0x00\n      dup8\n      gas\n      call\n      iszero\n      dup1\n      iszero\n      tag_211\n      jumpi\n      returndatasize\n      0x00\n      dup1\n      returndatacopy\n      revert(0x00, returndatasize)\n    tag_211:\n      pop\n      pop\n      pop\n      pop\n      mload(0x40)\n      returndatasize\n      not(0x1f)\n      0x1f\n      dup3\n      add\n      and\n      dup3\n      add\n      dup1\n      0x40\n      mstore\n      pop\n      dup2\n      add\n      swap1\n      tag_212\n      swap2\n      swap1\n      tag_177\n      jump\t// in\n    tag_212:\n      pop\n        /* \"staking.sol\":11177:11215  swapTokensForEth(earnings, _msgSender) */\n      tag_213\n        /* \"staking.sol\":11194:11202  earnings */\n      dup2\n        /* \"staking.sol\":11204:11214  _msgSender */\n      dup6\n        /* \"staking.sol\":11177:11193  swapTokensForEth */\n      tag_214\n        /* \"staking.sol\":11177:11215  swapTokensForEth(earnings, _msgSender) */\n      jump\t// in\n    tag_213:\n        /* \"staking.sol\":11092:11348  if(_isOnTime){... */\n      jump(tag_215)\n    tag_207:\n      pop\n        /* \"staking.sol\":11283:11296  acceptedToken */\n      sload(0x01)\n        /* \"staking.sol\":11283:11326  acceptedToken.transfer(_msgSender, _amount) */\n      mload(0x40)\n      shl(0xe0, 0xa9059cbb)\n      dup2\n      mstore\n      sub(shl(0xa0, 0x01), 0x01)\n        /* \"#utility.yul\":7654:7686   */\n      dup6\n      dup2\n      and\n        /* \"staking.sol\":11283:11326  acceptedToken.transfer(_msgSender, _amount) */\n      0x04\n      dup4\n      add\n        /* \"#utility.yul\":7636:7687   */\n      mstore\n        /* \"#utility.yul\":7703:7721   */\n      0x24\n      dup3\n      add\n        /* \"#utility.yul\":7696:7730   */\n      dup8\n      swap1\n      mstore\n        /* \"staking.sol\":11257:11258  0 */\n      0x00\n      swap3\n        /* \"staking.sol\":11283:11296  acceptedToken */\n      and\n      swap1\n        /* \"staking.sol\":11283:11305  acceptedToken.transfer */\n      0xa9059cbb\n      swap1\n        /* \"#utility.yul\":7609:7627   */\n      0x44\n      add\n        /* \"staking.sol\":11283:11326  acceptedToken.transfer(_msgSender, _amount) */\n      0x20\n      mload(0x40)\n      dup1\n      dup4\n      sub\n      dup2\n      0x00\n      dup8\n      gas\n      call\n      iszero\n      dup1\n      iszero\n      tag_218\n      jumpi\n      returndatasize\n      0x00\n      dup1\n      returndatacopy\n      revert(0x00, returndatasize)\n    tag_218:\n      pop\n      pop\n      pop\n      pop\n      mload(0x40)\n      returndatasize\n      not(0x1f)\n      0x1f\n      dup3\n      add\n      and\n      dup3\n      add\n      dup1\n      0x40\n      mstore\n      pop\n      dup2\n      add\n      swap1\n      tag_219\n      swap2\n      swap1\n      tag_177\n      jump\t// in\n    tag_219:\n      pop\n        /* \"staking.sol\":11092:11348  if(_isOnTime){... */\n    tag_215:\n        /* \"staking.sol\":11363:11416  withdraw(_msgSender, 2, _isOnTime, _amount, earnings) */\n      0xa3dff5863d601223d9b31a0253b97a6c2085daca56089b92836b4b6a1991e04b\n        /* \"staking.sol\":11372:11382  _msgSender */\n      dup5\n        /* \"staking.sol\":11384:11385  2 */\n      0x02\n        /* \"staking.sol\":11387:11396  _isOnTime */\n      dup5\n        /* \"staking.sol\":11398:11405  _amount */\n      dup9\n        /* \"staking.sol\":11407:11415  earnings */\n      dup6\n        /* \"staking.sol\":11363:11416  withdraw(_msgSender, 2, _isOnTime, _amount, earnings) */\n      mload(0x40)\n      tag_220\n      swap6\n      swap5\n      swap4\n      swap3\n      swap2\n      swap1\n      tag_221\n      jump\t// in\n    tag_220:\n      mload(0x40)\n      dup1\n      swap2\n      sub\n      swap1\n      log1\n        /* \"staking.sol\":10534:11423  {... */\n      pop\n      pop\n      pop\n      pop\n        /* \"staking.sol\":10487:11423  function withdrawVip (uint256 _amount) public  {... */\n      pop\n      jump\t// out\n        /* \"staking.sol\":7031:7717  function getInterest (address user, uint8 class, uint256 balance) public view returns (uint256){... */\n    tag_94:\n        /* \"staking.sol\":7118:7125  uint256 */\n      0x00\n        /* \"staking.sol\":7139:7149  class == 0 */\n      0xff\n      dup4\n      and\n        /* \"staking.sol\":7136:7711  if(class == 0){           ... */\n      tag_223\n      jumpi\n      sub(shl(0xa0, 0x01), 0x01)\n        /* \"staking.sol\":7198:7217  level0Balance[user] */\n      dup5\n      and\n        /* \"staking.sol\":7175:7195  uint256 _timeStarted */\n      0x00\n        /* \"staking.sol\":7198:7217  level0Balance[user] */\n      swap1\n      dup2\n      mstore\n        /* \"staking.sol\":7198:7211  level0Balance */\n      0x0c\n        /* \"staking.sol\":7198:7217  level0Balance[user] */\n      0x20\n      mstore\n      0x40\n      swap1\n      keccak256\n        /* \"staking.sol\":7198:7229  level0Balance[user].timeStarted */\n      0x01\n      add\n      sload\n        /* \"staking.sol\":7291:7300  level0APY */\n      sload(0x02)\n        /* \"staking.sol\":7251:7301  calculateInterest(balance,_timeStarted, level0APY) */\n      tag_224\n      swap1\n        /* \"staking.sol\":7269:7276  balance */\n      dup5\n      swap1\n        /* \"staking.sol\":7198:7229  level0Balance[user].timeStarted */\n      dup4\n      swap1\n        /* \"staking.sol\":7251:7268  calculateInterest */\n      tag_225\n        /* \"staking.sol\":7251:7301  calculateInterest(balance,_timeStarted, level0APY) */\n      jump\t// in\n    tag_224:\n        /* \"staking.sol\":7244:7301  return calculateInterest(balance,_timeStarted, level0APY) */\n      swap2\n      pop\n      pop\n      jump(tag_232)\n        /* \"staking.sol\":7136:7711  if(class == 0){           ... */\n    tag_223:\n        /* \"staking.sol\":7322:7327  class */\n      dup3\n        /* \"staking.sol\":7322:7332  class == 1 */\n      0xff\n      and\n        /* \"staking.sol\":7331:7332  1 */\n      0x01\n        /* \"staking.sol\":7322:7332  class == 1 */\n      eq\n        /* \"staking.sol\":7318:7711  if (class == 1){      ... */\n      iszero\n      tag_227\n      jumpi\n      sub(shl(0xa0, 0x01), 0x01)\n        /* \"staking.sol\":7376:7395  level1Balance[user] */\n      dup5\n      and\n        /* \"staking.sol\":7353:7373  uint256 _timeStarted */\n      0x00\n        /* \"staking.sol\":7376:7395  level1Balance[user] */\n      swap1\n      dup2\n      mstore\n        /* \"staking.sol\":7376:7389  level1Balance */\n      0x0e\n        /* \"staking.sol\":7376:7395  level1Balance[user] */\n      0x20\n      mstore\n      0x40\n      swap1\n      keccak256\n        /* \"staking.sol\":7376:7407  level1Balance[user].timeStarted */\n      0x01\n      add\n      sload\n        /* \"staking.sol\":7469:7478  level1APY */\n      sload(0x03)\n        /* \"staking.sol\":7429:7479  calculateInterest(balance,_timeStarted, level1APY) */\n      tag_224\n      swap1\n        /* \"staking.sol\":7447:7454  balance */\n      dup5\n      swap1\n        /* \"staking.sol\":7376:7407  level1Balance[user].timeStarted */\n      dup4\n      swap1\n        /* \"staking.sol\":7429:7446  calculateInterest */\n      tag_225\n        /* \"staking.sol\":7429:7479  calculateInterest(balance,_timeStarted, level1APY) */\n      jump\t// in\n        /* \"staking.sol\":7318:7711  if (class == 1){      ... */\n    tag_227:\n        /* \"staking.sol\":7500:7505  class */\n      dup3\n        /* \"staking.sol\":7500:7510  class == 2 */\n      0xff\n      and\n        /* \"staking.sol\":7509:7510  2 */\n      0x02\n        /* \"staking.sol\":7500:7510  class == 2 */\n      eq\n        /* \"staking.sol\":7496:7711  if (class == 2){           ... */\n      iszero\n      tag_230\n      jumpi\n      sub(shl(0xa0, 0x01), 0x01)\n        /* \"staking.sol\":7559:7575  vipBalance[user] */\n      dup5\n      and\n        /* \"staking.sol\":7536:7556  uint256 _timeStarted */\n      0x00\n        /* \"staking.sol\":7559:7575  vipBalance[user] */\n      swap1\n      dup2\n      mstore\n        /* \"staking.sol\":7559:7569  vipBalance */\n      0x10\n        /* \"staking.sol\":7559:7575  vipBalance[user] */\n      0x20\n      mstore\n      0x40\n      swap1\n      keccak256\n        /* \"staking.sol\":7559:7587  vipBalance[user].timeStarted */\n      0x01\n      add\n      sload\n        /* \"staking.sol\":7649:7660  vipLevelAPY */\n      sload(0x04)\n        /* \"staking.sol\":7609:7661  calculateInterest(balance,_timeStarted, vipLevelAPY) */\n      tag_224\n      swap1\n        /* \"staking.sol\":7627:7634  balance */\n      dup5\n      swap1\n        /* \"staking.sol\":7559:7587  vipBalance[user].timeStarted */\n      dup4\n      swap1\n        /* \"staking.sol\":7609:7626  calculateInterest */\n      tag_225\n        /* \"staking.sol\":7609:7661  calculateInterest(balance,_timeStarted, vipLevelAPY) */\n      jump\t// in\n        /* \"staking.sol\":7496:7711  if (class == 2){           ... */\n    tag_230:\n      pop\n        /* \"staking.sol\":7699:7700  0 */\n      0x00\n        /* \"staking.sol\":7496:7711  if (class == 2){           ... */\n    tag_232:\n        /* \"staking.sol\":7031:7717  function getInterest (address user, uint8 class, uint256 balance) public view returns (uint256){... */\n      swap4\n      swap3\n      pop\n      pop\n      pop\n      jump\t// out\n        /* \"@openzeppelin/contracts/access/Ownable.sol\":1668:1769  function renounceOwnership() public virtual onlyOwner {... */\n    tag_97:\n        /* \"@openzeppelin/contracts/access/Ownable.sol\":1082:1089  address */\n      0x00\n        /* \"@openzeppelin/contracts/access/Ownable.sol\":1108:1114  _owner */\n      sload\n      sub(shl(0xa0, 0x01), 0x01)\n      and\n        /* \"@openzeppelin/contracts/utils/Context.sol\":719:729  msg.sender */\n      caller\n        /* \"@openzeppelin/contracts/access/Ownable.sol\":1248:1271  owner() == _msgSender() */\n      eq\n        /* \"@openzeppelin/contracts/access/Ownable.sol\":1240:1308  require(owner() == _msgSender(), \"Ownable: caller is not the owner\") */\n      tag_236\n      jumpi\n      mload(0x40)\n      shl(0xe5, 0x461bcd)\n      dup2\n      mstore\n      0x04\n      add\n      tag_162\n      swap1\n      tag_189\n      jump\t// in\n    tag_236:\n        /* \"@openzeppelin/contracts/access/Ownable.sol\":1732:1762  _transferOwnership(address(0)) */\n      tag_191\n        /* \"@openzeppelin/contracts/access/Ownable.sol\":1759:1760  0 */\n      0x00\n        /* \"@openzeppelin/contracts/access/Ownable.sol\":1732:1750  _transferOwnership */\n      tag_240\n        /* \"@openzeppelin/contracts/access/Ownable.sol\":1732:1762  _transferOwnership(address(0)) */\n      jump\t// in\n        /* \"staking.sol\":2644:2704  function pause () public onlyOwner {... */\n    tag_113:\n        /* \"@openzeppelin/contracts/access/Ownable.sol\":1082:1089  address */\n      0x00\n        /* \"@openzeppelin/contracts/access/Ownable.sol\":1108:1114  _owner */\n      sload\n      sub(shl(0xa0, 0x01), 0x01)\n      and\n        /* \"@openzeppelin/contracts/utils/Context.sol\":719:729  msg.sender */\n      caller\n        /* \"@openzeppelin/contracts/access/Ownable.sol\":1248:1271  owner() == _msgSender() */\n      eq\n        /* \"@openzeppelin/contracts/access/Ownable.sol\":1240:1308  require(owner() == _msgSender(), \"Ownable: caller is not the owner\") */\n      tag_244\n      jumpi\n      mload(0x40)\n      shl(0xe5, 0x461bcd)\n      dup2\n      mstore\n      0x04\n      add\n      tag_162\n      swap1\n      tag_189\n      jump\t// in\n    tag_244:\n        /* \"staking.sol\":2689:2697  _pause() */\n      tag_191\n        /* \"staking.sol\":2689:2695  _pause */\n      tag_248\n        /* \"staking.sol\":2689:2697  _pause() */\n      jump\t// in\n        /* \"staking.sol\":8245:9215  function withdrawLevel0 (uint256 _amount) public  {... */\n    tag_126:\n        /* \"staking.sol\":8326:8336  msg.sender */\n      caller\n        /* \"staking.sol\":8305:8323  address _msgSender */\n      0x00\n        /* \"staking.sol\":8354:8374  isLevel0[_msgSender] */\n      dup2\n      dup2\n      mstore\n        /* \"staking.sol\":8354:8362  isLevel0 */\n      0x0b\n        /* \"staking.sol\":8354:8374  isLevel0[_msgSender] */\n      0x20\n      mstore\n      0x40\n      swap1\n      keccak256\n      sload\n      0xff\n      and\n        /* \"staking.sol\":8346:8401  require(isLevel0[_msgSender], \"User is not on Level 0\") */\n      tag_251\n      jumpi\n      mload(0x40)\n      shl(0xe5, 0x461bcd)\n      dup2\n      mstore\n        /* \"#utility.yul\":8464:8466   */\n      0x20\n        /* \"staking.sol\":8346:8401  require(isLevel0[_msgSender], \"User is not on Level 0\") */\n      0x04\n      dup3\n      add\n        /* \"#utility.yul\":8446:8467   */\n      mstore\n        /* \"#utility.yul\":8503:8505   */\n      0x16\n        /* \"#utility.yul\":8483:8501   */\n      0x24\n      dup3\n      add\n        /* \"#utility.yul\":8476:8506   */\n      mstore\n      shl(0x54, 0x055736572206973206e6f74206f6e204c6576656c203)\n        /* \"#utility.yul\":8522:8540   */\n      0x44\n      dup3\n      add\n        /* \"#utility.yul\":8515:8567   */\n      mstore\n        /* \"#utility.yul\":8584:8602   */\n      0x64\n      add\n        /* \"staking.sol\":8346:8401  require(isLevel0[_msgSender], \"User is not on Level 0\") */\n      tag_162\n        /* \"#utility.yul\":8262:8608   */\n      jump\n        /* \"staking.sol\":8346:8401  require(isLevel0[_msgSender], \"User is not on Level 0\") */\n    tag_251:\n      sub(shl(0xa0, 0x01), 0x01)\n        /* \"staking.sol\":8430:8455  level0Balance[_msgSender] */\n      dup2\n      and\n        /* \"staking.sol\":8412:8427  uint256 balance */\n      0x00\n        /* \"staking.sol\":8430:8455  level0Balance[_msgSender] */\n      swap1\n      dup2\n      mstore\n        /* \"staking.sol\":8430:8443  level0Balance */\n      0x0c\n        /* \"staking.sol\":8430:8455  level0Balance[_msgSender] */\n      0x20\n      mstore\n      0x40\n      swap1\n      keccak256\n        /* \"staking.sol\":8430:8463  level0Balance[_msgSender].balance */\n      sload\n        /* \"staking.sol\":8481:8499  balance >= _amount */\n      dup3\n      dup2\n      lt\n      iszero\n        /* \"staking.sol\":8473:8534  require(balance >= _amount, \"Not enough balance to withdraw\") */\n      tag_254\n      jumpi\n      mload(0x40)\n      shl(0xe5, 0x461bcd)\n      dup2\n      mstore\n      0x04\n      add\n      tag_162\n      swap1\n      tag_200\n      jump\t// in\n    tag_254:\n        /* \"staking.sol\":8545:8559  bool _isOnTime */\n      0x00\n        /* \"staking.sol\":8562:8585  isOnTime(_msgSender, 0) */\n      tag_256\n        /* \"staking.sol\":8571:8581  _msgSender */\n      dup4\n        /* \"staking.sol\":8583:8584  0 */\n      0x00\n        /* \"staking.sol\":8562:8570  isOnTime */\n      tag_154\n        /* \"staking.sol\":8562:8585  isOnTime(_msgSender, 0) */\n      jump\t// in\n    tag_256:\n        /* \"staking.sol\":8545:8585  bool _isOnTime = isOnTime(_msgSender, 0) */\n      swap1\n      pop\n        /* \"staking.sol\":8595:8611  uint256 earnings */\n      0x00\n        /* \"staking.sol\":8614:8649  getInterest(_msgSender, 0, _amount) */\n      tag_257\n        /* \"staking.sol\":8626:8636  _msgSender */\n      dup5\n        /* \"staking.sol\":8638:8639  0 */\n      0x00\n        /* \"staking.sol\":8641:8648  _amount */\n      dup8\n        /* \"staking.sol\":8614:8625  getInterest */\n      tag_94\n        /* \"staking.sol\":8614:8649  getInterest(_msgSender, 0, _amount) */\n      jump\t// in\n    tag_257:\n        /* \"staking.sol\":8595:8649  uint256 earnings = getInterest(_msgSender, 0, _amount) */\n      swap1\n      pop\n        /* \"staking.sol\":8674:8681  balance */\n      dup3\n        /* \"staking.sol\":8663:8670  _amount */\n      dup6\n        /* \"staking.sol\":8663:8681  _amount == balance */\n      eq\n        /* \"staking.sol\":8660:8862  if(_amount == balance){... */\n      iszero\n      tag_258\n      jumpi\n      sub(shl(0xa0, 0x01), 0x01)\n        /* \"staking.sol\":8703:8728  level0Balance[_msgSender] */\n      dup5\n      and\n      0x00\n      swap1\n      dup2\n      mstore\n        /* \"staking.sol\":8703:8716  level0Balance */\n      0x0c\n        /* \"staking.sol\":8703:8728  level0Balance[_msgSender] */\n      0x20\n      swap1\n      dup2\n      mstore\n      0x40\n      dup1\n      dup4\n      keccak256\n        /* \"staking.sol\":8696:8728  delete level0Balance[_msgSender] */\n      dup4\n      dup2\n      sstore\n      0x01\n      dup2\n      add\n      dup5\n      swap1\n      sstore\n      0x02\n      add\n      dup4\n      swap1\n      sstore\n        /* \"staking.sol\":8748:8756  isLevel0 */\n      0x0b\n        /* \"staking.sol\":8748:8768  isLevel0[_msgSender] */\n      swap1\n      swap2\n      mstore\n      swap1\n      keccak256\n        /* \"staking.sol\":8748:8776  isLevel0[_msgSender] = false */\n      dup1\n      sload\n      not(0xff)\n      and\n      swap1\n      sstore\n        /* \"staking.sol\":8660:8862  if(_amount == balance){... */\n      jump(tag_259)\n    tag_258:\n      sub(shl(0xa0, 0x01), 0x01)\n        /* \"staking.sol\":8807:8832  level0Balance[_msgSender] */\n      dup5\n      and\n      0x00\n      swap1\n      dup2\n      mstore\n        /* \"staking.sol\":8807:8820  level0Balance */\n      0x0c\n        /* \"staking.sol\":8807:8832  level0Balance[_msgSender] */\n      0x20\n      mstore\n      0x40\n      dup2\n      keccak256\n        /* \"staking.sol\":8807:8851  level0Balance[_msgSender].balance -= _amount */\n      dup1\n      sload\n        /* \"staking.sol\":8844:8851  _amount */\n      dup8\n      swap3\n        /* \"staking.sol\":8807:8832  level0Balance[_msgSender] */\n      swap1\n        /* \"staking.sol\":8807:8851  level0Balance[_msgSender].balance -= _amount */\n      tag_260\n      swap1\n        /* \"staking.sol\":8844:8851  _amount */\n      dup5\n      swap1\n        /* \"staking.sol\":8807:8851  level0Balance[_msgSender].balance -= _amount */\n      tag_206\n      jump\t// in\n    tag_260:\n      swap1\n      swap2\n      sstore\n      pop\n      pop\n        /* \"staking.sol\":8660:8862  if(_amount == balance){... */\n    tag_259:\n        /* \"staking.sol\":8875:8884  _isOnTime */\n      dup2\n        /* \"staking.sol\":8872:9136  if(_isOnTime){... */\n      iszero\n      tag_261\n      jumpi\n        /* \"staking.sol\":8899:8912  acceptedToken */\n      sload(0x01)\n        /* \"staking.sol\":8899:8942  acceptedToken.transfer(_msgSender, _amount) */\n      mload(0x40)\n      shl(0xe0, 0xa9059cbb)\n      dup2\n      mstore\n      sub(shl(0xa0, 0x01), 0x01)\n        /* \"#utility.yul\":7654:7686   */\n      dup7\n      dup2\n      and\n        /* \"staking.sol\":8899:8942  acceptedToken.transfer(_msgSender, _amount) */\n      0x04\n      dup4\n      add\n        /* \"#utility.yul\":7636:7687   */\n      mstore\n        /* \"#utility.yul\":7703:7721   */\n      0x24\n      dup3\n      add\n        /* \"#utility.yul\":7696:7730   */\n      dup9\n      swap1\n      mstore\n        /* \"staking.sol\":8899:8912  acceptedToken */\n      swap1\n      swap2\n      and\n      swap1\n        /* \"staking.sol\":8899:8921  acceptedToken.transfer */\n      0xa9059cbb\n      swap1\n        /* \"#utility.yul\":7609:7627   */\n      0x44\n      add\n        /* \"staking.sol\":8899:8942  acceptedToken.transfer(_msgSender, _amount) */\n      0x20\n      mload(0x40)\n      dup1\n      dup4\n      sub\n      dup2\n      0x00\n      dup8\n      gas\n      call\n      iszero\n      dup1\n      iszero\n      tag_264\n      jumpi\n      returndatasize\n      0x00\n      dup1\n      returndatacopy\n      revert(0x00, returndatasize)\n    tag_264:\n      pop\n      pop\n      pop\n      pop\n      mload(0x40)\n      returndatasize\n      not(0x1f)\n      0x1f\n      dup3\n      add\n      and\n      dup3\n      add\n      dup1\n      0x40\n      mstore\n      pop\n      dup2\n      add\n      swap1\n      tag_265\n      swap2\n      swap1\n      tag_177\n      jump\t// in\n    tag_265:\n      pop\n        /* \"staking.sol\":8969:9007  swapTokensForEth(earnings, _msgSender) */\n      tag_266\n        /* \"staking.sol\":8986:8994  earnings */\n      dup2\n        /* \"staking.sol\":8996:9006  _msgSender */\n      dup6\n        /* \"staking.sol\":8969:8985  swapTokensForEth */\n      tag_214\n        /* \"staking.sol\":8969:9007  swapTokensForEth(earnings, _msgSender) */\n      jump\t// in\n    tag_266:\n        /* \"staking.sol\":8872:9136  if(_isOnTime){... */\n      jump(tag_267)\n    tag_261:\n      pop\n        /* \"staking.sol\":9071:9084  acceptedToken */\n      sload(0x01)\n        /* \"staking.sol\":9071:9114  acceptedToken.transfer(_msgSender, _amount) */\n      mload(0x40)\n      shl(0xe0, 0xa9059cbb)\n      dup2\n      mstore\n      sub(shl(0xa0, 0x01), 0x01)\n        /* \"#utility.yul\":7654:7686   */\n      dup6\n      dup2\n      and\n        /* \"staking.sol\":9071:9114  acceptedToken.transfer(_msgSender, _amount) */\n      0x04\n      dup4\n      add\n        /* \"#utility.yul\":7636:7687   */\n      mstore\n        /* \"#utility.yul\":7703:7721   */\n      0x24\n      dup3\n      add\n        /* \"#utility.yul\":7696:7730   */\n      dup8\n      swap1\n      mstore\n        /* \"staking.sol\":9049:9050  0 */\n      0x00\n      swap3\n        /* \"staking.sol\":9071:9084  acceptedToken */\n      and\n      swap1\n        /* \"staking.sol\":9071:9093  acceptedToken.transfer */\n      0xa9059cbb\n      swap1\n        /* \"#utility.yul\":7609:7627   */\n      0x44\n      add\n        /* \"staking.sol\":9071:9114  acceptedToken.transfer(_msgSender, _amount) */\n      0x20\n      mload(0x40)\n      dup1\n      dup4\n      sub\n      dup2\n      0x00\n      dup8\n      gas\n      call\n      iszero\n      dup1\n      iszero\n      tag_270\n      jumpi\n      returndatasize\n      0x00\n      dup1\n      returndatacopy\n      revert(0x00, returndatasize)\n    tag_270:\n      pop\n      pop\n      pop\n      pop\n      mload(0x40)\n      returndatasize\n      not(0x1f)\n      0x1f\n      dup3\n      add\n      and\n      dup3\n      add\n      dup1\n      0x40\n      mstore\n      pop\n      dup2\n      add\n      swap1\n      tag_271\n      swap2\n      swap1\n      tag_177\n      jump\t// in\n    tag_271:\n      pop\n        /* \"staking.sol\":8872:9136  if(_isOnTime){... */\n    tag_267:\n        /* \"staking.sol\":9155:9208  withdraw(_msgSender, 0, _isOnTime, _amount, earnings) */\n      0xa3dff5863d601223d9b31a0253b97a6c2085daca56089b92836b4b6a1991e04b\n        /* \"staking.sol\":9164:9174  _msgSender */\n      dup5\n        /* \"staking.sol\":9176:9177  0 */\n      0x00\n        /* \"staking.sol\":9179:9188  _isOnTime */\n      dup5\n        /* \"staking.sol\":9190:9197  _amount */\n      dup9\n        /* \"staking.sol\":9199:9207  earnings */\n      dup6\n        /* \"staking.sol\":9155:9208  withdraw(_msgSender, 0, _isOnTime, _amount, earnings) */\n      mload(0x40)\n      tag_220\n      swap6\n      swap5\n      swap4\n      swap3\n      swap2\n      swap1\n      tag_221\n      jump\t// in\n        /* \"staking.sol\":9373:10329  function withdrawLevel1 (uint256 _amount) public  {... */\n    tag_133:\n        /* \"staking.sol\":9454:9464  msg.sender */\n      caller\n        /* \"staking.sol\":9433:9451  address _msgSender */\n      0x00\n        /* \"staking.sol\":9482:9502  isLevel1[_msgSender] */\n      dup2\n      dup2\n      mstore\n        /* \"staking.sol\":9482:9490  isLevel1 */\n      0x0d\n        /* \"staking.sol\":9482:9502  isLevel1[_msgSender] */\n      0x20\n      mstore\n      0x40\n      swap1\n      keccak256\n      sload\n      0xff\n      and\n        /* \"staking.sol\":9474:9529  require(isLevel1[_msgSender], \"User is not on Level 1\") */\n      tag_275\n      jumpi\n      mload(0x40)\n      shl(0xe5, 0x461bcd)\n      dup2\n      mstore\n        /* \"#utility.yul\":9336:9338   */\n      0x20\n        /* \"staking.sol\":9474:9529  require(isLevel1[_msgSender], \"User is not on Level 1\") */\n      0x04\n      dup3\n      add\n        /* \"#utility.yul\":9318:9339   */\n      mstore\n        /* \"#utility.yul\":9375:9377   */\n      0x16\n        /* \"#utility.yul\":9355:9373   */\n      0x24\n      dup3\n      add\n        /* \"#utility.yul\":9348:9378   */\n      mstore\n      shl(0x50, 0x55736572206973206e6f74206f6e204c6576656c2031)\n        /* \"#utility.yul\":9394:9412   */\n      0x44\n      dup3\n      add\n        /* \"#utility.yul\":9387:9439   */\n      mstore\n        /* \"#utility.yul\":9456:9474   */\n      0x64\n      add\n        /* \"staking.sol\":9474:9529  require(isLevel1[_msgSender], \"User is not on Level 1\") */\n      tag_162\n        /* \"#utility.yul\":9134:9480   */\n      jump\n        /* \"staking.sol\":9474:9529  require(isLevel1[_msgSender], \"User is not on Level 1\") */\n    tag_275:\n      sub(shl(0xa0, 0x01), 0x01)\n        /* \"staking.sol\":9558:9583  level1Balance[_msgSender] */\n      dup2\n      and\n        /* \"staking.sol\":9540:9555  uint256 balance */\n      0x00\n        /* \"staking.sol\":9558:9583  level1Balance[_msgSender] */\n      swap1\n      dup2\n      mstore\n        /* \"staking.sol\":9558:9571  level1Balance */\n      0x0e\n        /* \"staking.sol\":9558:9583  level1Balance[_msgSender] */\n      0x20\n      mstore\n      0x40\n      swap1\n      keccak256\n        /* \"staking.sol\":9558:9591  level1Balance[_msgSender].balance */\n      sload\n        /* \"staking.sol\":9609:9627  balance >= _amount */\n      dup3\n      dup2\n      lt\n      iszero\n        /* \"staking.sol\":9601:9662  require(balance >= _amount, \"Not enough balance to withdraw\") */\n      tag_278\n      jumpi\n      mload(0x40)\n      shl(0xe5, 0x461bcd)\n      dup2\n      mstore\n      0x04\n      add\n      tag_162\n      swap1\n      tag_200\n      jump\t// in\n    tag_278:\n        /* \"staking.sol\":9673:9687  bool _isOnTime */\n      0x00\n        /* \"staking.sol\":9690:9713  isOnTime(_msgSender, 1) */\n      tag_280\n        /* \"staking.sol\":9699:9709  _msgSender */\n      dup4\n        /* \"staking.sol\":9711:9712  1 */\n      0x01\n        /* \"staking.sol\":9690:9698  isOnTime */\n      tag_154\n        /* \"staking.sol\":9690:9713  isOnTime(_msgSender, 1) */\n      jump\t// in\n    tag_280:\n        /* \"staking.sol\":9673:9713  bool _isOnTime = isOnTime(_msgSender, 1) */\n      swap1\n      pop\n        /* \"staking.sol\":9723:9739  uint256 earnings */\n      0x00\n        /* \"staking.sol\":9742:9777  getInterest(_msgSender, 1, _amount) */\n      tag_281\n        /* \"staking.sol\":9754:9764  _msgSender */\n      dup5\n        /* \"staking.sol\":9766:9767  1 */\n      0x01\n        /* \"staking.sol\":9769:9776  _amount */\n      dup8\n        /* \"staking.sol\":9742:9753  getInterest */\n      tag_94\n        /* \"staking.sol\":9742:9777  getInterest(_msgSender, 1, _amount) */\n      jump\t// in\n    tag_281:\n        /* \"staking.sol\":9723:9777  uint256 earnings = getInterest(_msgSender, 1, _amount) */\n      swap1\n      pop\n        /* \"staking.sol\":9802:9809  balance */\n      dup3\n        /* \"staking.sol\":9791:9798  _amount */\n      dup6\n        /* \"staking.sol\":9791:9809  _amount == balance */\n      eq\n        /* \"staking.sol\":9788:9990  if(_amount == balance){... */\n      iszero\n      tag_282\n      jumpi\n      sub(shl(0xa0, 0x01), 0x01)\n        /* \"staking.sol\":9831:9856  level1Balance[_msgSender] */\n      dup5\n      and\n      0x00\n      swap1\n      dup2\n      mstore\n        /* \"staking.sol\":9831:9844  level1Balance */\n      0x0e\n        /* \"staking.sol\":9831:9856  level1Balance[_msgSender] */\n      0x20\n      swap1\n      dup2\n      mstore\n      0x40\n      dup1\n      dup4\n      keccak256\n        /* \"staking.sol\":9824:9856  delete level1Balance[_msgSender] */\n      dup4\n      dup2\n      sstore\n      0x01\n      dup2\n      add\n      dup5\n      swap1\n      sstore\n      0x02\n      add\n      dup4\n      swap1\n      sstore\n        /* \"staking.sol\":9876:9884  isLevel1 */\n      0x0d\n        /* \"staking.sol\":9876:9896  isLevel1[_msgSender] */\n      swap1\n      swap2\n      mstore\n      swap1\n      keccak256\n        /* \"staking.sol\":9876:9904  isLevel1[_msgSender] = false */\n      dup1\n      sload\n      not(0xff)\n      and\n      swap1\n      sstore\n        /* \"staking.sol\":9788:9990  if(_amount == balance){... */\n      jump(tag_283)\n    tag_282:\n      sub(shl(0xa0, 0x01), 0x01)\n        /* \"staking.sol\":9935:9960  level1Balance[_msgSender] */\n      dup5\n      and\n      0x00\n      swap1\n      dup2\n      mstore\n        /* \"staking.sol\":9935:9948  level1Balance */\n      0x0e\n        /* \"staking.sol\":9935:9960  level1Balance[_msgSender] */\n      0x20\n      mstore\n      0x40\n      dup2\n      keccak256\n        /* \"staking.sol\":9935:9979  level1Balance[_msgSender].balance -= _amount */\n      dup1\n      sload\n        /* \"staking.sol\":9972:9979  _amount */\n      dup8\n      swap3\n        /* \"staking.sol\":9935:9960  level1Balance[_msgSender] */\n      swap1\n        /* \"staking.sol\":9935:9979  level1Balance[_msgSender].balance -= _amount */\n      tag_284\n      swap1\n        /* \"staking.sol\":9972:9979  _amount */\n      dup5\n      swap1\n        /* \"staking.sol\":9935:9979  level1Balance[_msgSender].balance -= _amount */\n      tag_206\n      jump\t// in\n    tag_284:\n      swap1\n      swap2\n      sstore\n      pop\n      pop\n        /* \"staking.sol\":9788:9990  if(_amount == balance){... */\n    tag_283:\n        /* \"staking.sol\":10003:10012  _isOnTime */\n      dup2\n        /* \"staking.sol\":10000:10254  if(_isOnTime){... */\n      iszero\n      tag_285\n      jumpi\n        /* \"staking.sol\":10027:10040  acceptedToken */\n      sload(0x01)\n        /* \"staking.sol\":10027:10070  acceptedToken.transfer(_msgSender, _amount) */\n      mload(0x40)\n      shl(0xe0, 0xa9059cbb)\n      dup2\n      mstore\n      sub(shl(0xa0, 0x01), 0x01)\n        /* \"#utility.yul\":7654:7686   */\n      dup7\n      dup2\n      and\n        /* \"staking.sol\":10027:10070  acceptedToken.transfer(_msgSender, _amount) */\n      0x04\n      dup4\n      add\n        /* \"#utility.yul\":7636:7687   */\n      mstore\n        /* \"#utility.yul\":7703:7721   */\n      0x24\n      dup3\n      add\n        /* \"#utility.yul\":7696:7730   */\n      dup9\n      swap1\n      mstore\n        /* \"staking.sol\":10027:10040  acceptedToken */\n      swap1\n      swap2\n      and\n      swap1\n        /* \"staking.sol\":10027:10049  acceptedToken.transfer */\n      0xa9059cbb\n      swap1\n        /* \"#utility.yul\":7609:7627   */\n      0x44\n      add\n        /* \"staking.sol\":10027:10070  acceptedToken.transfer(_msgSender, _amount) */\n      0x20\n      mload(0x40)\n      dup1\n      dup4\n      sub\n      dup2\n      0x00\n      dup8\n      gas\n      call\n      iszero\n      dup1\n      iszero\n      tag_288\n      jumpi\n      returndatasize\n      0x00\n      dup1\n      returndatacopy\n      revert(0x00, returndatasize)\n    tag_288:\n      pop\n      pop\n      pop\n      pop\n      mload(0x40)\n      returndatasize\n      not(0x1f)\n      0x1f\n      dup3\n      add\n      and\n      dup3\n      add\n      dup1\n      0x40\n      mstore\n      pop\n      dup2\n      add\n      swap1\n      tag_289\n      swap2\n      swap1\n      tag_177\n      jump\t// in\n    tag_289:\n      pop\n        /* \"staking.sol\":10085:10123  swapTokensForEth(earnings, _msgSender) */\n      tag_290\n        /* \"staking.sol\":10102:10110  earnings */\n      dup2\n        /* \"staking.sol\":10112:10122  _msgSender */\n      dup6\n        /* \"staking.sol\":10085:10101  swapTokensForEth */\n      tag_214\n        /* \"staking.sol\":10085:10123  swapTokensForEth(earnings, _msgSender) */\n      jump\t// in\n    tag_290:\n        /* \"staking.sol\":10000:10254  if(_isOnTime){... */\n      jump(tag_291)\n    tag_285:\n      pop\n        /* \"staking.sol\":10189:10202  acceptedToken */\n      sload(0x01)\n        /* \"staking.sol\":10189:10232  acceptedToken.transfer(_msgSender, _amount) */\n      mload(0x40)\n      shl(0xe0, 0xa9059cbb)\n      dup2\n      mstore\n      sub(shl(0xa0, 0x01), 0x01)\n        /* \"#utility.yul\":7654:7686   */\n      dup6\n      dup2\n      and\n        /* \"staking.sol\":10189:10232  acceptedToken.transfer(_msgSender, _amount) */\n      0x04\n      dup4\n      add\n        /* \"#utility.yul\":7636:7687   */\n      mstore\n        /* \"#utility.yul\":7703:7721   */\n      0x24\n      dup3\n      add\n        /* \"#utility.yul\":7696:7730   */\n      dup8\n      swap1\n      mstore\n        /* \"staking.sol\":10165:10166  0 */\n      0x00\n      swap3\n        /* \"staking.sol\":10189:10202  acceptedToken */\n      and\n      swap1\n        /* \"staking.sol\":10189:10211  acceptedToken.transfer */\n      0xa9059cbb\n      swap1\n        /* \"#utility.yul\":7609:7627   */\n      0x44\n      add\n        /* \"staking.sol\":10189:10232  acceptedToken.transfer(_msgSender, _amount) */\n      0x20\n      mload(0x40)\n      dup1\n      dup4\n      sub\n      dup2\n      0x00\n      dup8\n      gas\n      call\n      iszero\n      dup1\n      iszero\n      tag_294\n      jumpi\n      returndatasize\n      0x00\n      dup1\n      returndatacopy\n      revert(0x00, returndatasize)\n    tag_294:\n      pop\n      pop\n      pop\n      pop\n      mload(0x40)\n      returndatasize\n      not(0x1f)\n      0x1f\n      dup3\n      add\n      and\n      dup3\n      add\n      dup1\n      0x40\n      mstore\n      pop\n      dup2\n      add\n      swap1\n      tag_295\n      swap2\n      swap1\n      tag_177\n      jump\t// in\n    tag_295:\n      pop\n        /* \"staking.sol\":10000:10254  if(_isOnTime){... */\n    tag_291:\n        /* \"staking.sol\":10269:10322  withdraw(_msgSender, 1, _isOnTime, _amount, earnings) */\n      0xa3dff5863d601223d9b31a0253b97a6c2085daca56089b92836b4b6a1991e04b\n        /* \"staking.sol\":10278:10288  _msgSender */\n      dup5\n        /* \"staking.sol\":10290:10291  1 */\n      0x01\n        /* \"staking.sol\":10293:10302  _isOnTime */\n      dup5\n        /* \"staking.sol\":10304:10311  _amount */\n      dup9\n        /* \"staking.sol\":10313:10321  earnings */\n      dup6\n        /* \"staking.sol\":10269:10322  withdraw(_msgSender, 1, _isOnTime, _amount, earnings) */\n      mload(0x40)\n      tag_220\n      swap6\n      swap5\n      swap4\n      swap3\n      swap2\n      swap1\n      tag_221\n      jump\t// in\n        /* \"staking.sol\":5504:6252  function enterVip (uint256 _amount) public whenNotPaused {... */\n    tag_136:\n        /* \"@openzeppelin/contracts/security/Pausable.sol\":1145:1149  bool */\n      0x00\n        /* \"@openzeppelin/contracts/security/Pausable.sol\":1168:1175  _paused */\n      sload\n      shl(0xa0, 0x01)\n      swap1\n      div\n      0xff\n      and\n        /* \"@openzeppelin/contracts/security/Pausable.sol\":1411:1420  !paused() */\n      iszero\n        /* \"@openzeppelin/contracts/security/Pausable.sol\":1403:1441  require(!paused(), \"Pausable: paused\") */\n      tag_300\n      jumpi\n      mload(0x40)\n      shl(0xe5, 0x461bcd)\n      dup2\n      mstore\n      0x04\n      add\n      tag_162\n      swap1\n      tag_163\n      jump\t// in\n    tag_300:\n        /* \"staking.sol\":5590:5601  levelVipMax */\n      sload(0x0a)\n        /* \"staking.sol\":5579:5586  _amount */\n      dup2\n        /* \"staking.sol\":5579:5601  _amount <= levelVipMax */\n      gt\n      iszero\n        /* \"staking.sol\":5579:5627  _amount <= levelVipMax && _amount >= levelVipMin */\n      dup1\n      iszero\n      tag_303\n      jumpi\n      pop\n        /* \"staking.sol\":5616:5627  levelVipMin */\n      sload(0x09)\n        /* \"staking.sol\":5605:5612  _amount */\n      dup2\n        /* \"staking.sol\":5605:5627  _amount >= levelVipMin */\n      lt\n      iszero\n        /* \"staking.sol\":5579:5627  _amount <= levelVipMax && _amount >= levelVipMin */\n    tag_303:\n        /* \"staking.sol\":5571:5682  require(_amount <= levelVipMax && _amount >= levelVipMin, \"Amount needs to be more than min and less than max\") */\n      tag_304\n      jumpi\n      mload(0x40)\n      shl(0xe5, 0x461bcd)\n      dup2\n      mstore\n      0x04\n      add\n      tag_162\n      swap1\n      tag_168\n      jump\t// in\n    tag_304:\n        /* \"staking.sol\":5713:5723  msg.sender */\n      caller\n        /* \"staking.sol\":5692:5710  address _msgSender */\n      0x00\n        /* \"staking.sol\":5755:5772  isVip[_msgSender] */\n      dup2\n      dup2\n      mstore\n        /* \"staking.sol\":5755:5760  isVip */\n      0x0f\n        /* \"staking.sol\":5755:5772  isVip[_msgSender] */\n      0x20\n      mstore\n      0x40\n      swap1\n      keccak256\n      sload\n      0xff\n      and\n        /* \"staking.sol\":5754:5772  !isVip[_msgSender] */\n      iszero\n        /* \"staking.sol\":5746:5808  require(!isVip[_msgSender], \"You're already in the Vip Stake\") */\n      tag_306\n      jumpi\n      mload(0x40)\n      shl(0xe5, 0x461bcd)\n      dup2\n      mstore\n        /* \"#utility.yul\":10208:10210   */\n      0x20\n        /* \"staking.sol\":5746:5808  require(!isVip[_msgSender], \"You're already in the Vip Stake\") */\n      0x04\n      dup3\n      add\n        /* \"#utility.yul\":10190:10211   */\n      mstore\n        /* \"#utility.yul\":10247:10249   */\n      0x1f\n        /* \"#utility.yul\":10227:10245   */\n      0x24\n      dup3\n      add\n        /* \"#utility.yul\":10220:10250   */\n      mstore\n        /* \"#utility.yul\":10286:10319   */\n      0x596f7527726520616c726561647920696e2074686520566970205374616b6500\n        /* \"#utility.yul\":10266:10284   */\n      0x44\n      dup3\n      add\n        /* \"#utility.yul\":10259:10320   */\n      mstore\n        /* \"#utility.yul\":10337:10355   */\n      0x64\n      add\n        /* \"staking.sol\":5746:5808  require(!isVip[_msgSender], \"You're already in the Vip Stake\") */\n      tag_162\n        /* \"#utility.yul\":10006:10361   */\n      jump\n        /* \"staking.sol\":5746:5808  require(!isVip[_msgSender], \"You're already in the Vip Stake\") */\n    tag_306:\n        /* \"staking.sol\":5827:5840  acceptedToken */\n      sload(0x01)\n        /* \"staking.sol\":5827:5889  acceptedToken.transferFrom(_msgSender, address(this), _amount) */\n      mload(0x40)\n      shl(0xe0, 0x23b872dd)\n      dup2\n      mstore\n      sub(shl(0xa0, 0x01), 0x01)\n        /* \"#utility.yul\":5088:5103   */\n      dup4\n      dup2\n      and\n        /* \"staking.sol\":5827:5889  acceptedToken.transferFrom(_msgSender, address(this), _amount) */\n      0x04\n      dup4\n      add\n        /* \"#utility.yul\":5070:5104   */\n      mstore\n        /* \"staking.sol\":5874:5878  this */\n      address\n        /* \"#utility.yul\":5120:5138   */\n      0x24\n      dup4\n      add\n        /* \"#utility.yul\":5113:5156   */\n      mstore\n        /* \"#utility.yul\":5172:5190   */\n      0x44\n      dup3\n      add\n        /* \"#utility.yul\":5165:5199   */\n      dup6\n      swap1\n      mstore\n        /* \"staking.sol\":5827:5840  acceptedToken */\n      swap1\n      swap2\n      and\n      swap1\n        /* \"staking.sol\":5827:5853  acceptedToken.transferFrom */\n      0x23b872dd\n      swap1\n        /* \"#utility.yul\":5005:5023   */\n      0x64\n      add\n        /* \"staking.sol\":5827:5889  acceptedToken.transferFrom(_msgSender, address(this), _amount) */\n      0x20\n      mload(0x40)\n      dup1\n      dup4\n      sub\n      dup2\n      0x00\n      dup8\n      gas\n      call\n      iszero\n      dup1\n      iszero\n      tag_311\n      jumpi\n      returndatasize\n      0x00\n      dup1\n      returndatacopy\n      revert(0x00, returndatasize)\n    tag_311:\n      pop\n      pop\n      pop\n      pop\n      mload(0x40)\n      returndatasize\n      not(0x1f)\n      0x1f\n      dup3\n      add\n      and\n      dup3\n      add\n      dup1\n      0x40\n      mstore\n      pop\n      dup2\n      add\n      swap1\n      tag_312\n      swap2\n      swap1\n      tag_177\n      jump\t// in\n    tag_312:\n      pop\n      sub(shl(0xa0, 0x01), 0x01)\n        /* \"staking.sol\":5900:5917  isVip[_msgSender] */\n      dup2\n      and\n      0x00\n      swap1\n      dup2\n      mstore\n        /* \"staking.sol\":5900:5905  isVip */\n      0x0f\n        /* \"staking.sol\":5900:5917  isVip[_msgSender] */\n      0x20\n      swap1\n      dup2\n      mstore\n      0x40\n      swap2\n      dup3\n      swap1\n      keccak256\n        /* \"staking.sol\":5900:5924  isVip[_msgSender] = true */\n      dup1\n      sload\n      not(0xff)\n      and\n        /* \"staking.sol\":5920:5924  true */\n      0x01\n        /* \"staking.sol\":5900:5924  isVip[_msgSender] = true */\n      or\n      swap1\n      sstore\n        /* \"staking.sol\":5959:6146  _user ({... */\n      dup2\n      mload\n      0x60\n      dup2\n      add\n      dup4\n      mstore\n      dup5\n      dup2\n      mstore\n        /* \"staking.sol\":6021:6036  block.timestamp */\n      timestamp\n        /* \"staking.sol\":5959:6146  _user ({... */\n      swap2\n      dup2\n      add\n      dup3\n      swap1\n      mstore\n      swap2\n      dup3\n      add\n      swap1\n        /* \"staking.sol\":6113:6135  block.timestamp + 1200 */\n      tag_313\n      swap1\n        /* \"staking.sol\":6131:6135  1200 */\n      0x04b0\n        /* \"staking.sol\":6113:6135  block.timestamp + 1200 */\n      tag_179\n      jump\t// in\n    tag_313:\n        /* \"staking.sol\":5959:6146  _user ({... */\n      swap1\n      mstore\n      sub(shl(0xa0, 0x01), 0x01)\n        /* \"staking.sol\":5934:5956  vipBalance[_msgSender] */\n      dup3\n      and\n      0x00\n      swap1\n      dup2\n      mstore\n        /* \"staking.sol\":5934:5944  vipBalance */\n      0x10\n        /* \"staking.sol\":5934:5956  vipBalance[_msgSender] */\n      0x20\n      swap1\n      dup2\n      mstore\n      0x40\n      swap2\n      dup3\n      swap1\n      keccak256\n        /* \"staking.sol\":5934:6146  vipBalance[_msgSender] = _user ({... */\n      dup4\n      mload\n      dup2\n      sstore\n      swap1\n      dup4\n      add\n      mload\n      0x01\n      dup3\n      add\n      sstore\n      swap2\n      add\n      mload\n      0x02\n      swap2\n      dup3\n      add\n      sstore\n        /* \"staking.sol\":6169:6245  deposit (_msgSender, 2, _amount, block.timestamp, block.timestamp + 90 days) */\n      0x17849bb8c713de96b48f218d3bacc9af082261c3ccc7c6dccebe70e667b22f23\n      swap1\n        /* \"staking.sol\":5945:5955  _msgSender */\n      dup3\n      swap1\n        /* \"staking.sol\":6193:6200  _amount */\n      dup5\n        /* \"staking.sol\":6202:6217  block.timestamp */\n      timestamp\n        /* \"staking.sol\":6219:6244  block.timestamp + 90 days */\n      tag_180\n        /* \"staking.sol\":6202:6217  block.timestamp */\n      dup2\n        /* \"staking.sol\":6237:6244  90 days */\n      0x76a700\n        /* \"staking.sol\":6219:6244  block.timestamp + 90 days */\n      tag_179\n      jump\t// in\n        /* \"staking.sol\":2846:3054  function setNewAPY ( uint256 _level0APY, uint256 _level1APY, uint256 _vipLevelAPY) external onlyOwner{... */\n    tag_143:\n        /* \"@openzeppelin/contracts/access/Ownable.sol\":1082:1089  address */\n      0x00\n        /* \"@openzeppelin/contracts/access/Ownable.sol\":1108:1114  _owner */\n      sload\n      sub(shl(0xa0, 0x01), 0x01)\n      and\n        /* \"@openzeppelin/contracts/utils/Context.sol\":719:729  msg.sender */\n      caller\n        /* \"@openzeppelin/contracts/access/Ownable.sol\":1248:1271  owner() == _msgSender() */\n      eq\n        /* \"@openzeppelin/contracts/access/Ownable.sol\":1240:1308  require(owner() == _msgSender(), \"Ownable: caller is not the owner\") */\n      tag_320\n      jumpi\n      mload(0x40)\n      shl(0xe5, 0x461bcd)\n      dup2\n      mstore\n      0x04\n      add\n      tag_162\n      swap1\n      tag_189\n      jump\t// in\n    tag_320:\n        /* \"staking.sol\":2957:2966  level0APY */\n      0x02\n        /* \"staking.sol\":2957:2979  level0APY = _level0APY */\n      swap3\n      swap1\n      swap3\n      sstore\n        /* \"staking.sol\":2989:2998  level1APY */\n      0x03\n        /* \"staking.sol\":2989:3011  level1APY = _level1APY */\n      sstore\n        /* \"staking.sol\":3021:3032  vipLevelAPY */\n      0x04\n        /* \"staking.sol\":3021:3047  vipLevelAPY = _vipLevelAPY */\n      sstore\n        /* \"staking.sol\":2846:3054  function setNewAPY ( uint256 _level0APY, uint256 _level1APY, uint256 _vipLevelAPY) external onlyOwner{... */\n      jump\t// out\n        /* \"@openzeppelin/contracts/access/Ownable.sol\":1918:2116  function transferOwnership(address newOwner) public virtual onlyOwner {... */\n    tag_146:\n        /* \"@openzeppelin/contracts/access/Ownable.sol\":1082:1089  address */\n      0x00\n        /* \"@openzeppelin/contracts/access/Ownable.sol\":1108:1114  _owner */\n      sload\n      sub(shl(0xa0, 0x01), 0x01)\n      and\n        /* \"@openzeppelin/contracts/utils/Context.sol\":719:729  msg.sender */\n      caller\n        /* \"@openzeppelin/contracts/access/Ownable.sol\":1248:1271  owner() == _msgSender() */\n      eq\n        /* \"@openzeppelin/contracts/access/Ownable.sol\":1240:1308  require(owner() == _msgSender(), \"Ownable: caller is not the owner\") */\n      tag_326\n      jumpi\n      mload(0x40)\n      shl(0xe5, 0x461bcd)\n      dup2\n      mstore\n      0x04\n      add\n      tag_162\n      swap1\n      tag_189\n      jump\t// in\n    tag_326:\n      sub(shl(0xa0, 0x01), 0x01)\n        /* \"@openzeppelin/contracts/access/Ownable.sol\":2006:2028  newOwner != address(0) */\n      dup2\n      and\n        /* \"@openzeppelin/contracts/access/Ownable.sol\":1998:2071  require(newOwner != address(0), \"Ownable: new owner is the zero address\") */\n      tag_329\n      jumpi\n      mload(0x40)\n      shl(0xe5, 0x461bcd)\n      dup2\n      mstore\n        /* \"#utility.yul\":11079:11081   */\n      0x20\n        /* \"@openzeppelin/contracts/access/Ownable.sol\":1998:2071  require(newOwner != address(0), \"Ownable: new owner is the zero address\") */\n      0x04\n      dup3\n      add\n        /* \"#utility.yul\":11061:11082   */\n      mstore\n        /* \"#utility.yul\":11118:11120   */\n      0x26\n        /* \"#utility.yul\":11098:11116   */\n      0x24\n      dup3\n      add\n        /* \"#utility.yul\":11091:11121   */\n      mstore\n        /* \"#utility.yul\":11157:11191   */\n      0x4f776e61626c653a206e6577206f776e657220697320746865207a65726f2061\n        /* \"#utility.yul\":11137:11155   */\n      0x44\n      dup3\n      add\n        /* \"#utility.yul\":11130:11192   */\n      mstore\n      shl(0xd0, 0x646472657373)\n        /* \"#utility.yul\":11208:11226   */\n      0x64\n      dup3\n      add\n        /* \"#utility.yul\":11201:11237   */\n      mstore\n        /* \"#utility.yul\":11254:11273   */\n      0x84\n      add\n        /* \"@openzeppelin/contracts/access/Ownable.sol\":1998:2071  require(newOwner != address(0), \"Ownable: new owner is the zero address\") */\n      tag_162\n        /* \"#utility.yul\":10877:11279   */\n      jump\n        /* \"@openzeppelin/contracts/access/Ownable.sol\":1998:2071  require(newOwner != address(0), \"Ownable: new owner is the zero address\") */\n    tag_329:\n        /* \"@openzeppelin/contracts/access/Ownable.sol\":2081:2109  _transferOwnership(newOwner) */\n      tag_332\n        /* \"@openzeppelin/contracts/access/Ownable.sol\":2100:2108  newOwner */\n      dup2\n        /* \"@openzeppelin/contracts/access/Ownable.sol\":2081:2099  _transferOwnership */\n      tag_240\n        /* \"@openzeppelin/contracts/access/Ownable.sol\":2081:2109  _transferOwnership(newOwner) */\n      jump\t// in\n    tag_332:\n        /* \"@openzeppelin/contracts/access/Ownable.sol\":1918:2116  function transferOwnership(address newOwner) public virtual onlyOwner {... */\n      pop\n      jump\t// out\n        /* \"staking.sol\":3136:3508  function setNewMaxMin (uint256 _level0Min, uint256 _level0Max, uint256 _level1Min, uint256 _level1Max, uint256 _levelVipMin, uint256 _levelVipMax) external onlyOwner{... */\n    tag_150:\n        /* \"@openzeppelin/contracts/access/Ownable.sol\":1082:1089  address */\n      0x00\n        /* \"@openzeppelin/contracts/access/Ownable.sol\":1108:1114  _owner */\n      sload\n      sub(shl(0xa0, 0x01), 0x01)\n      and\n        /* \"@openzeppelin/contracts/utils/Context.sol\":719:729  msg.sender */\n      caller\n        /* \"@openzeppelin/contracts/access/Ownable.sol\":1248:1271  owner() == _msgSender() */\n      eq\n        /* \"@openzeppelin/contracts/access/Ownable.sol\":1240:1308  require(owner() == _msgSender(), \"Ownable: caller is not the owner\") */\n      tag_336\n      jumpi\n      mload(0x40)\n      shl(0xe5, 0x461bcd)\n      dup2\n      mstore\n      0x04\n      add\n      tag_162\n      swap1\n      tag_189\n      jump\t// in\n    tag_336:\n        /* \"staking.sol\":3311:3320  level0Min */\n      0x05\n        /* \"staking.sol\":3311:3333  level0Min = _level0Min */\n      swap6\n      swap1\n      swap6\n      sstore\n        /* \"staking.sol\":3343:3352  level0Max */\n      0x06\n        /* \"staking.sol\":3343:3365  level0Max = _level0Max */\n      swap4\n      swap1\n      swap4\n      sstore\n        /* \"staking.sol\":3375:3384  level1Min */\n      0x07\n        /* \"staking.sol\":3375:3397  level1Min = _level1Min */\n      swap2\n      swap1\n      swap2\n      sstore\n        /* \"staking.sol\":3407:3416  level1Max */\n      0x08\n        /* \"staking.sol\":3407:3429  level1Max = _level1Max */\n      sstore\n        /* \"staking.sol\":3439:3450  levelVipMin */\n      0x09\n        /* \"staking.sol\":3439:3465  levelVipMin = _levelVipMin */\n      sstore\n        /* \"staking.sol\":3475:3486  levelVipMax */\n      0x0a\n        /* \"staking.sol\":3475:3501  levelVipMax = _levelVipMax */\n      sstore\n        /* \"staking.sol\":3136:3508  function setNewMaxMin (uint256 _level0Min, uint256 _level0Max, uint256 _level1Min, uint256 _level1Max, uint256 _levelVipMin, uint256 _levelVipMax) external onlyOwner{... */\n      jump\t// out\n        /* \"staking.sol\":6397:6896  function isOnTime (address user, uint8 class) public view returns (bool) {... */\n    tag_154:\n        /* \"staking.sol\":6464:6468  bool */\n      0x00\n      dup1\n        /* \"staking.sol\":6512:6522  class == 0 */\n      0xff\n      dup4\n      and\n        /* \"staking.sol\":6509:6843  if(class == 0){... */\n      tag_340\n      jumpi\n      pop\n      sub(shl(0xa0, 0x01), 0x01)\n        /* \"staking.sol\":6551:6570  level0Balance[user] */\n      dup4\n      and\n      0x00\n      swap1\n      dup2\n      mstore\n        /* \"staking.sol\":6551:6564  level0Balance */\n      0x0c\n        /* \"staking.sol\":6551:6570  level0Balance[user] */\n      0x20\n      mstore\n      0x40\n      swap1\n      keccak256\n        /* \"staking.sol\":6551:6581  level0Balance[user].timeFinish */\n      0x02\n      add\n      sload\n        /* \"staking.sol\":6509:6843  if(class == 0){... */\n      jump(tag_345)\n    tag_340:\n        /* \"staking.sol\":6613:6618  class */\n      dup3\n        /* \"staking.sol\":6613:6623  class == 1 */\n      0xff\n      and\n        /* \"staking.sol\":6622:6623  1 */\n      0x01\n        /* \"staking.sol\":6613:6623  class == 1 */\n      eq\n        /* \"staking.sol\":6609:6843  if (class == 1){... */\n      iszero\n      tag_342\n      jumpi\n      pop\n      sub(shl(0xa0, 0x01), 0x01)\n        /* \"staking.sol\":6652:6671  level1Balance[user] */\n      dup4\n      and\n      0x00\n      swap1\n      dup2\n      mstore\n        /* \"staking.sol\":6652:6665  level1Balance */\n      0x0e\n        /* \"staking.sol\":6652:6671  level1Balance[user] */\n      0x20\n      mstore\n      0x40\n      swap1\n      keccak256\n        /* \"staking.sol\":6652:6682  level1Balance[user].timeFinish */\n      0x02\n      add\n      sload\n        /* \"staking.sol\":6609:6843  if (class == 1){... */\n      jump(tag_345)\n    tag_342:\n        /* \"staking.sol\":6712:6717  class */\n      dup3\n        /* \"staking.sol\":6712:6722  class == 2 */\n      0xff\n      and\n        /* \"staking.sol\":6721:6722  2 */\n      0x02\n        /* \"staking.sol\":6712:6722  class == 2 */\n      eq\n        /* \"staking.sol\":6708:6843  if (class == 2){... */\n      iszero\n      tag_344\n      jumpi\n      pop\n      sub(shl(0xa0, 0x01), 0x01)\n        /* \"staking.sol\":6751:6767  vipBalance[user] */\n      dup4\n      and\n      0x00\n      swap1\n      dup2\n      mstore\n        /* \"staking.sol\":6751:6761  vipBalance */\n      0x10\n        /* \"staking.sol\":6751:6767  vipBalance[user] */\n      0x20\n      mstore\n      0x40\n      swap1\n      keccak256\n        /* \"staking.sol\":6751:6778  vipBalance[user].timeFinish */\n      0x02\n      add\n      sload\n        /* \"staking.sol\":6708:6843  if (class == 2){... */\n      jump(tag_345)\n    tag_344:\n        /* \"staking.sol\":6827:6832  false */\n      0x00\n        /* \"staking.sol\":6820:6832  return false */\n      swap2\n      pop\n      pop\n      jump(tag_339)\n        /* \"staking.sol\":6708:6843  if (class == 2){... */\n    tag_345:\n        /* \"staking.sol\":6859:6874  block.timestamp */\n      timestamp\n        /* \"staking.sol\":6859:6889  block.timestamp >= releaseTime */\n      lt\n      iszero\n      swap1\n      pop\n        /* \"staking.sol\":6397:6896  function isOnTime (address user, uint8 class) public view returns (bool) {... */\n    tag_339:\n      swap3\n      swap2\n      pop\n      pop\n      jump\t// out\n        /* \"staking.sol\":3657:4407  function enterLevel0 (uint256 _amount) public whenNotPaused {... */\n    tag_158:\n        /* \"@openzeppelin/contracts/security/Pausable.sol\":1145:1149  bool */\n      0x00\n        /* \"@openzeppelin/contracts/security/Pausable.sol\":1168:1175  _paused */\n      sload\n      shl(0xa0, 0x01)\n      swap1\n      div\n      0xff\n      and\n        /* \"@openzeppelin/contracts/security/Pausable.sol\":1411:1420  !paused() */\n      iszero\n        /* \"@openzeppelin/contracts/security/Pausable.sol\":1403:1441  require(!paused(), \"Pausable: paused\") */\n      tag_348\n      jumpi\n      mload(0x40)\n      shl(0xe5, 0x461bcd)\n      dup2\n      mstore\n      0x04\n      add\n      tag_162\n      swap1\n      tag_163\n      jump\t// in\n    tag_348:\n        /* \"staking.sol\":3746:3755  level0Max */\n      sload(0x06)\n        /* \"staking.sol\":3735:3742  _amount */\n      dup2\n        /* \"staking.sol\":3735:3755  _amount <= level0Max */\n      gt\n      iszero\n        /* \"staking.sol\":3735:3779  _amount <= level0Max && _amount >= level0Min */\n      dup1\n      iszero\n      tag_351\n      jumpi\n      pop\n        /* \"staking.sol\":3770:3779  level0Min */\n      sload(0x05)\n        /* \"staking.sol\":3759:3766  _amount */\n      dup2\n        /* \"staking.sol\":3759:3779  _amount >= level0Min */\n      lt\n      iszero\n        /* \"staking.sol\":3735:3779  _amount <= level0Max && _amount >= level0Min */\n    tag_351:\n        /* \"staking.sol\":3727:3834  require(_amount <= level0Max && _amount >= level0Min, \"Amount needs to be more than min and less than max\") */\n      tag_352\n      jumpi\n      mload(0x40)\n      shl(0xe5, 0x461bcd)\n      dup2\n      mstore\n      0x04\n      add\n      tag_162\n      swap1\n      tag_168\n      jump\t// in\n    tag_352:\n        /* \"staking.sol\":3865:3875  msg.sender */\n      caller\n        /* \"staking.sol\":3844:3862  address _msgSender */\n      0x00\n        /* \"staking.sol\":3899:3919  isLevel0[_msgSender] */\n      dup2\n      dup2\n      mstore\n        /* \"staking.sol\":3899:3907  isLevel0 */\n      0x0b\n        /* \"staking.sol\":3899:3919  isLevel0[_msgSender] */\n      0x20\n      mstore\n      0x40\n      swap1\n      keccak256\n      sload\n      0xff\n      and\n        /* \"staking.sol\":3898:3919  !isLevel0[_msgSender] */\n      iszero\n        /* \"staking.sol\":3890:3958  require(!isLevel0[_msgSender], \"You're already in this Stake level\") */\n      tag_354\n      jumpi\n      mload(0x40)\n      shl(0xe5, 0x461bcd)\n      dup2\n      mstore\n      0x04\n      add\n      tag_162\n      swap1\n      tag_171\n      jump\t// in\n    tag_354:\n        /* \"staking.sol\":3973:3986  acceptedToken */\n      sload(0x01)\n        /* \"staking.sol\":3973:4035  acceptedToken.transferFrom(_msgSender, address(this), _amount) */\n      mload(0x40)\n      shl(0xe0, 0x23b872dd)\n      dup2\n      mstore\n      sub(shl(0xa0, 0x01), 0x01)\n        /* \"#utility.yul\":5088:5103   */\n      dup4\n      dup2\n      and\n        /* \"staking.sol\":3973:4035  acceptedToken.transferFrom(_msgSender, address(this), _amount) */\n      0x04\n      dup4\n      add\n        /* \"#utility.yul\":5070:5104   */\n      mstore\n        /* \"staking.sol\":4020:4024  this */\n      address\n        /* \"#utility.yul\":5120:5138   */\n      0x24\n      dup4\n      add\n        /* \"#utility.yul\":5113:5156   */\n      mstore\n        /* \"#utility.yul\":5172:5190   */\n      0x44\n      dup3\n      add\n        /* \"#utility.yul\":5165:5199   */\n      dup6\n      swap1\n      mstore\n        /* \"staking.sol\":3973:3986  acceptedToken */\n      swap1\n      swap2\n      and\n      swap1\n        /* \"staking.sol\":3973:3999  acceptedToken.transferFrom */\n      0x23b872dd\n      swap1\n        /* \"#utility.yul\":5005:5023   */\n      0x64\n      add\n        /* \"staking.sol\":3973:4035  acceptedToken.transferFrom(_msgSender, address(this), _amount) */\n      0x20\n      mload(0x40)\n      dup1\n      dup4\n      sub\n      dup2\n      0x00\n      dup8\n      gas\n      call\n      iszero\n      dup1\n      iszero\n      tag_358\n      jumpi\n      returndatasize\n      0x00\n      dup1\n      returndatacopy\n      revert(0x00, returndatasize)\n    tag_358:\n      pop\n      pop\n      pop\n      pop\n      mload(0x40)\n      returndatasize\n      not(0x1f)\n      0x1f\n      dup3\n      add\n      and\n      dup3\n      add\n      dup1\n      0x40\n      mstore\n      pop\n      dup2\n      add\n      swap1\n      tag_359\n      swap2\n      swap1\n      tag_177\n      jump\t// in\n    tag_359:\n      pop\n      sub(shl(0xa0, 0x01), 0x01)\n        /* \"staking.sol\":4046:4066  isLevel0[_msgSender] */\n      dup2\n      and\n      0x00\n      swap1\n      dup2\n      mstore\n        /* \"staking.sol\":4046:4054  isLevel0 */\n      0x0b\n        /* \"staking.sol\":4046:4066  isLevel0[_msgSender] */\n      0x20\n      swap1\n      dup2\n      mstore\n      0x40\n      swap2\n      dup3\n      swap1\n      keccak256\n        /* \"staking.sol\":4046:4073  isLevel0[_msgSender] = true */\n      dup1\n      sload\n      not(0xff)\n      and\n        /* \"staking.sol\":4069:4073  true */\n      0x01\n        /* \"staking.sol\":4046:4073  isLevel0[_msgSender] = true */\n      or\n      swap1\n      sstore\n        /* \"staking.sol\":4111:4300  _user ({... */\n      dup2\n      mload\n      0x60\n      dup2\n      add\n      dup4\n      mstore\n      dup5\n      dup2\n      mstore\n        /* \"staking.sol\":4175:4190  block.timestamp */\n      timestamp\n        /* \"staking.sol\":4111:4300  _user ({... */\n      swap2\n      dup2\n      add\n      dup3\n      swap1\n      mstore\n      swap2\n      dup3\n      add\n      swap1\n        /* \"staking.sol\":4268:4289  block.timestamp + 600 */\n      tag_360\n      swap1\n        /* \"staking.sol\":4286:4289  600 */\n      0x0258\n        /* \"staking.sol\":4268:4289  block.timestamp + 600 */\n      tag_179\n      jump\t// in\n    tag_360:\n        /* \"staking.sol\":4111:4300  _user ({... */\n      swap1\n      mstore\n      sub(shl(0xa0, 0x01), 0x01)\n        /* \"staking.sol\":4083:4108  level0Balance[_msgSender] */\n      dup3\n      and\n      0x00\n      swap1\n      dup2\n      mstore\n        /* \"staking.sol\":4083:4096  level0Balance */\n      0x0c\n        /* \"staking.sol\":4083:4108  level0Balance[_msgSender] */\n      0x20\n      swap1\n      dup2\n      mstore\n      0x40\n      dup1\n      dup4\n      keccak256\n        /* \"staking.sol\":4083:4300  level0Balance[_msgSender] = _user ({... */\n      dup5\n      mload\n      dup2\n      sstore\n      swap2\n      dup5\n      add\n      mload\n      0x01\n      dup4\n      add\n      sstore\n      swap3\n      swap1\n      swap3\n      add\n      mload\n      0x02\n      swap1\n      swap3\n      add\n      swap2\n      swap1\n      swap2\n      sstore\n        /* \"staking.sol\":4325:4400  deposit (_msgSender, 0, _amount, block.timestamp, block.timestamp + 7 days) */\n      0x17849bb8c713de96b48f218d3bacc9af082261c3ccc7c6dccebe70e667b22f23\n      swap1\n        /* \"staking.sol\":4097:4107  _msgSender */\n      dup3\n      swap1\n        /* \"staking.sol\":4349:4356  _amount */\n      dup5\n        /* \"staking.sol\":4358:4373  block.timestamp */\n      timestamp\n        /* \"staking.sol\":4375:4399  block.timestamp + 7 days */\n      tag_180\n        /* \"staking.sol\":4358:4373  block.timestamp */\n      dup2\n        /* \"staking.sol\":4393:4399  7 days */\n      0x093a80\n        /* \"staking.sol\":4375:4399  block.timestamp + 7 days */\n      tag_179\n      jump\t// in\n        /* \"@openzeppelin/contracts/security/Pausable.sol\":2110:2227  function _unpause() internal virtual whenPaused {... */\n    tag_192:\n        /* \"@openzeppelin/contracts/security/Pausable.sol\":1145:1149  bool */\n      0x00\n        /* \"@openzeppelin/contracts/security/Pausable.sol\":1168:1175  _paused */\n      sload\n      shl(0xa0, 0x01)\n      swap1\n      div\n      0xff\n      and\n        /* \"@openzeppelin/contracts/security/Pausable.sol\":1669:1710  require(paused(), \"Pausable: not paused\") */\n      tag_367\n      jumpi\n      mload(0x40)\n      shl(0xe5, 0x461bcd)\n      dup2\n      mstore\n        /* \"#utility.yul\":11997:11999   */\n      0x20\n        /* \"@openzeppelin/contracts/security/Pausable.sol\":1669:1710  require(paused(), \"Pausable: not paused\") */\n      0x04\n      dup3\n      add\n        /* \"#utility.yul\":11979:12000   */\n      mstore\n        /* \"#utility.yul\":12036:12038   */\n      0x14\n        /* \"#utility.yul\":12016:12034   */\n      0x24\n      dup3\n      add\n        /* \"#utility.yul\":12009:12039   */\n      mstore\n      shl(0x62, 0x14185d5cd8589b194e881b9bdd081c185d5cd959)\n        /* \"#utility.yul\":12055:12073   */\n      0x44\n      dup3\n      add\n        /* \"#utility.yul\":12048:12098   */\n      mstore\n        /* \"#utility.yul\":12115:12133   */\n      0x64\n      add\n        /* \"@openzeppelin/contracts/security/Pausable.sol\":1669:1710  require(paused(), \"Pausable: not paused\") */\n      tag_162\n        /* \"#utility.yul\":11795:12139   */\n      jump\n        /* \"@openzeppelin/contracts/security/Pausable.sol\":1669:1710  require(paused(), \"Pausable: not paused\") */\n    tag_367:\n        /* \"@openzeppelin/contracts/security/Pausable.sol\":2178:2183  false */\n      0x00\n        /* \"@openzeppelin/contracts/security/Pausable.sol\":2168:2183  _paused = false */\n      dup1\n      sload\n      not(shl(0xa0, 0xff))\n      and\n      swap1\n      sstore\n        /* \"@openzeppelin/contracts/security/Pausable.sol\":2198:2220  Unpaused(_msgSender()) */\n      0x5db9ee0a495bf2e6ff9c91a7834c1ba4fdd244a5e8aa4e537bd38aeae4b073aa\n        /* \"@openzeppelin/contracts/utils/Context.sol\":719:729  msg.sender */\n      caller\n        /* \"@openzeppelin/contracts/security/Pausable.sol\":2207:2219  _msgSender() */\n    tag_371:\n        /* \"@openzeppelin/contracts/security/Pausable.sol\":2198:2220  Unpaused(_msgSender()) */\n      mload(0x40)\n      sub(shl(0xa0, 0x01), 0x01)\n        /* \"#utility.yul\":378:410   */\n      swap1\n      swap2\n      and\n        /* \"#utility.yul\":360:411   */\n      dup2\n      mstore\n        /* \"#utility.yul\":348:350   */\n      0x20\n        /* \"#utility.yul\":333:351   */\n      add\n        /* \"@openzeppelin/contracts/security/Pausable.sol\":2198:2220  Unpaused(_msgSender()) */\n      mload(0x40)\n      dup1\n      swap2\n      sub\n      swap1\n      log1\n        /* \"@openzeppelin/contracts/security/Pausable.sol\":2110:2227  function _unpause() internal virtual whenPaused {... */\n      jump\t// out\n        /* \"staking.sol\":11431:12026  function swapTokensForEth(uint256 tokenAmount, address recipient) private {... */\n    tag_214:\n        /* \"staking.sol\":11598:11614  new address[](2) */\n      0x40\n      dup1\n      mload\n        /* \"staking.sol\":11612:11613  2 */\n      0x02\n        /* \"staking.sol\":11598:11614  new address[](2) */\n      dup1\n      dup3\n      mstore\n      0x60\n      dup3\n      add\n      dup4\n      mstore\n        /* \"staking.sol\":11574:11595  address[] memory path */\n      0x00\n      swap3\n        /* \"staking.sol\":11598:11614  new address[](2) */\n      0x20\n      dup4\n      add\n      swap1\n      dup1\n      calldatasize\n      dup4\n      calldatacopy\n      pop\n      pop\n        /* \"staking.sol\":11642:11655  acceptedToken */\n      sload(0x01)\n        /* \"staking.sol\":11624:11631  path[0] */\n      dup3\n      mload\n      swap3\n      swap4\n      pop\n      sub(shl(0xa0, 0x01), 0x01)\n        /* \"staking.sol\":11642:11655  acceptedToken */\n      and\n      swap2\n        /* \"staking.sol\":11624:11631  path[0] */\n      dup4\n      swap2\n      pop\n        /* \"staking.sol\":11642:11655  acceptedToken */\n      0x00\n      swap1\n        /* \"staking.sol\":11624:11631  path[0] */\n      tag_379\n      jumpi\n      tag_379\n      tag_380\n      jump\t// in\n    tag_379:\n      0x20\n      mul\n      0x20\n      add\n      add\n        /* \"staking.sol\":11624:11656  path[0] = address(acceptedToken) */\n      swap1\n      sub(shl(0xa0, 0x01), 0x01)\n      and\n      swap1\n      dup2\n      sub(shl(0xa0, 0x01), 0x01)\n      and\n      dup2\n      mstore\n      pop\n      pop\n        /* \"staking.sol\":11676:11691  uniswapV2Router */\n      immutable(\"0xccd68672d6f769e1076a41a883b1b79cd2ffe42afc01c80e02e0f47639ea513e\")\n      sub(shl(0xa0, 0x01), 0x01)\n        /* \"staking.sol\":11676:11696  uniswapV2Router.WETH */\n      and\n      0xad5c4648\n        /* \"staking.sol\":11676:11698  uniswapV2Router.WETH() */\n      mload(0x40)\n      dup2\n      0xffffffff\n      and\n      0xe0\n      shl\n      dup2\n      mstore\n      0x04\n      add\n      0x20\n      mload(0x40)\n      dup1\n      dup4\n      sub\n      dup2\n      dup7\n      gas\n      staticcall\n      iszero\n      dup1\n      iszero\n      tag_382\n      jumpi\n      returndatasize\n      0x00\n      dup1\n      returndatacopy\n      revert(0x00, returndatasize)\n    tag_382:\n      pop\n      pop\n      pop\n      pop\n      mload(0x40)\n      returndatasize\n      not(0x1f)\n      0x1f\n      dup3\n      add\n      and\n      dup3\n      add\n      dup1\n      0x40\n      mstore\n      pop\n      dup2\n      add\n      swap1\n      tag_383\n      swap2\n      swap1\n      tag_384\n      jump\t// in\n    tag_383:\n        /* \"staking.sol\":11666:11670  path */\n      dup2\n        /* \"staking.sol\":11671:11672  1 */\n      0x01\n        /* \"staking.sol\":11666:11673  path[1] */\n      dup2\n      mload\n      dup2\n      lt\n      tag_386\n      jumpi\n      tag_386\n      tag_380\n      jump\t// in\n    tag_386:\n      sub(shl(0xa0, 0x01), 0x01)\n        /* \"staking.sol\":11666:11698  path[1] = uniswapV2Router.WETH() */\n      swap3\n      dup4\n      and\n        /* \"staking.sol\":11666:11673  path[1] */\n      0x20\n      swap2\n      dup3\n      mul\n      swap3\n      swap1\n      swap3\n      add\n      add\n        /* \"staking.sol\":11666:11698  path[1] = uniswapV2Router.WETH() */\n      mstore\n        /* \"staking.sol\":11709:11722  acceptedToken */\n      sload(0x01)\n        /* \"staking.sol\":11709:11769  acceptedToken.approve(address(uniswapV2Router), tokenAmount) */\n      mload(0x40)\n      shl(0xe0, 0x095ea7b3)\n      dup2\n      mstore\n        /* \"staking.sol\":11739:11754  uniswapV2Router */\n      immutable(\"0xccd68672d6f769e1076a41a883b1b79cd2ffe42afc01c80e02e0f47639ea513e\")\n        /* \"#utility.yul\":7654:7686   */\n      dup4\n      and\n        /* \"staking.sol\":11709:11769  acceptedToken.approve(address(uniswapV2Router), tokenAmount) */\n      0x04\n      dup3\n      add\n        /* \"#utility.yul\":7636:7687   */\n      mstore\n        /* \"#utility.yul\":7703:7721   */\n      0x24\n      dup2\n      add\n        /* \"#utility.yul\":7696:7730   */\n      dup7\n      swap1\n      mstore\n        /* \"staking.sol\":11709:11722  acceptedToken */\n      swap2\n      and\n      swap1\n        /* \"staking.sol\":11709:11730  acceptedToken.approve */\n      0x095ea7b3\n      swap1\n        /* \"#utility.yul\":7609:7627   */\n      0x44\n      add\n        /* \"staking.sol\":11709:11769  acceptedToken.approve(address(uniswapV2Router), tokenAmount) */\n      0x20\n      mload(0x40)\n      dup1\n      dup4\n      sub\n      dup2\n      0x00\n      dup8\n      gas\n      call\n      iszero\n      dup1\n      iszero\n      tag_389\n      jumpi\n      returndatasize\n      0x00\n      dup1\n      returndatacopy\n      revert(0x00, returndatasize)\n    tag_389:\n      pop\n      pop\n      pop\n      pop\n      mload(0x40)\n      returndatasize\n      not(0x1f)\n      0x1f\n      dup3\n      add\n      and\n      dup3\n      add\n      dup1\n      0x40\n      mstore\n      pop\n      dup2\n      add\n      swap1\n      tag_390\n      swap2\n      swap1\n      tag_177\n      jump\t// in\n    tag_390:\n      pop\n        /* \"staking.sol\":11805:12019  uniswapV2Router.swapExactTokensForETHSupportingFeeOnTransferTokens(... */\n      mload(0x40)\n      shl(0xe0, 0x791ac947)\n      dup2\n      mstore\n      sub(shl(0xa0, 0x01), 0x01)\n        /* \"staking.sol\":11805:11820  uniswapV2Router */\n      immutable(\"0xccd68672d6f769e1076a41a883b1b79cd2ffe42afc01c80e02e0f47639ea513e\")\n        /* \"staking.sol\":11805:11871  uniswapV2Router.swapExactTokensForETHSupportingFeeOnTransferTokens */\n      and\n      swap1\n      0x791ac947\n      swap1\n        /* \"staking.sol\":11805:12019  uniswapV2Router.swapExactTokensForETHSupportingFeeOnTransferTokens(... */\n      tag_391\n      swap1\n        /* \"staking.sol\":11885:11896  tokenAmount */\n      dup7\n      swap1\n        /* \"staking.sol\":11910:11911  0 */\n      0x00\n      swap1\n        /* \"staking.sol\":11953:11957  path */\n      dup7\n      swap1\n        /* \"staking.sol\":11971:11980  recipient */\n      dup9\n      swap1\n        /* \"staking.sol\":11994:12009  block.timestamp */\n      timestamp\n      swap1\n        /* \"staking.sol\":11805:12019  uniswapV2Router.swapExactTokensForETHSupportingFeeOnTransferTokens(... */\n      0x04\n      add\n      tag_392\n      jump\t// in\n    tag_391:\n      0x00\n      mload(0x40)\n      dup1\n      dup4\n      sub\n      dup2\n      0x00\n      dup8\n      dup1\n      extcodesize\n      iszero\n      dup1\n      iszero\n      tag_393\n      jumpi\n      0x00\n      dup1\n      revert\n    tag_393:\n      pop\n      gas\n      call\n      iszero\n      dup1\n      iszero\n      tag_395\n      jumpi\n      returndatasize\n      0x00\n      dup1\n      returndatacopy\n      revert(0x00, returndatasize)\n    tag_395:\n      pop\n      pop\n      pop\n      pop\n        /* \"staking.sol\":11505:12026  {... */\n      pop\n        /* \"staking.sol\":11431:12026  function swapTokensForEth(uint256 tokenAmount, address recipient) private {... */\n      pop\n      pop\n      jump\t// out\n        /* \"staking.sol\":7723:8087  function calculateInterest (uint256 _balance, uint256 _timeStarted, uint256 _APY) internal view returns (uint256){... */\n    tag_225:\n        /* \"staking.sol\":7828:7835  uint256 */\n      0x00\n      dup1\n        /* \"staking.sol\":7867:7897  block.timestamp - _timeStarted */\n      tag_397\n        /* \"staking.sol\":7885:7897  _timeStarted */\n      dup5\n        /* \"staking.sol\":7867:7882  block.timestamp */\n      timestamp\n        /* \"staking.sol\":7867:7897  block.timestamp - _timeStarted */\n      tag_206\n      jump\t// in\n    tag_397:\n        /* \"staking.sol\":7846:7897  uint256 timeStaked = block.timestamp - _timeStarted */\n      swap1\n      pop\n        /* \"staking.sol\":7915:7940  uint256 interestPerSecond */\n      0x00\n        /* \"staking.sol\":7973:7981  365 days */\n      0x01e13380\n        /* \"staking.sol\":7964:7969  10000 */\n      0x2710\n        /* \"staking.sol\":7945:7960  _balance * _APY */\n      tag_398\n        /* \"staking.sol\":7956:7960  _APY */\n      dup7\n        /* \"staking.sol\":7945:7953  _balance */\n      dup10\n        /* \"staking.sol\":7945:7960  _balance * _APY */\n      tag_399\n      jump\t// in\n    tag_398:\n        /* \"staking.sol\":7944:7969  (_balance * _APY) / 10000 */\n      tag_400\n      swap2\n      swap1\n      tag_401\n      jump\t// in\n    tag_400:\n        /* \"staking.sol\":7943:7981  ((_balance * _APY) / 10000) / 365 days */\n      tag_402\n      swap2\n      swap1\n      tag_401\n      jump\t// in\n    tag_402:\n        /* \"staking.sol\":7915:7981  uint256 interestPerSecond = ((_balance * _APY) / 10000) / 365 days */\n      swap1\n      pop\n        /* \"staking.sol\":7991:8014  uint256 interestsEarned */\n      0x00\n        /* \"staking.sol\":8017:8047  timeStaked * interestPerSecond */\n      tag_403\n        /* \"staking.sol\":7915:7981  uint256 interestPerSecond = ((_balance * _APY) / 10000) / 365 days */\n      dup3\n        /* \"staking.sol\":8017:8027  timeStaked */\n      dup5\n        /* \"staking.sol\":8017:8047  timeStaked * interestPerSecond */\n      tag_399\n      jump\t// in\n    tag_403:\n        /* \"staking.sol\":7991:8047  uint256 interestsEarned = timeStaked * interestPerSecond */\n      swap8\n        /* \"staking.sol\":7723:8087  function calculateInterest (uint256 _balance, uint256 _timeStarted, uint256 _APY) internal view returns (uint256){... */\n      swap7\n      pop\n      pop\n      pop\n      pop\n      pop\n      pop\n      pop\n      jump\t// out\n        /* \"@openzeppelin/contracts/access/Ownable.sol\":2270:2457  function _transferOwnership(address newOwner) internal virtual {... */\n    tag_240:\n        /* \"@openzeppelin/contracts/access/Ownable.sol\":2343:2359  address oldOwner */\n      0x00\n        /* \"@openzeppelin/contracts/access/Ownable.sol\":2362:2368  _owner */\n      dup1\n      sload\n      sub(shl(0xa0, 0x01), 0x01)\n        /* \"@openzeppelin/contracts/access/Ownable.sol\":2378:2395  _owner = newOwner */\n      dup4\n      dup2\n      and\n      not(sub(shl(0xa0, 0x01), 0x01))\n      dup4\n      and\n      dup2\n      or\n      dup5\n      sstore\n        /* \"@openzeppelin/contracts/access/Ownable.sol\":2410:2450  OwnershipTransferred(oldOwner, newOwner) */\n      mload(0x40)\n        /* \"@openzeppelin/contracts/access/Ownable.sol\":2362:2368  _owner */\n      swap2\n      swap1\n      swap3\n      and\n      swap3\n      dup4\n      swap2\n        /* \"@openzeppelin/contracts/access/Ownable.sol\":2410:2450  OwnershipTransferred(oldOwner, newOwner) */\n      0x8be0079c531659141344cd1fd0a4f28419497f9722a3daafe3b4186f6b6457e0\n      swap2\n        /* \"@openzeppelin/contracts/access/Ownable.sol\":2343:2359  address oldOwner */\n      swap1\n        /* \"@openzeppelin/contracts/access/Ownable.sol\":2410:2450  OwnershipTransferred(oldOwner, newOwner) */\n      log3\n        /* \"@openzeppelin/contracts/access/Ownable.sol\":2333:2457  {... */\n      pop\n        /* \"@openzeppelin/contracts/access/Ownable.sol\":2270:2457  function _transferOwnership(address newOwner) internal virtual {... */\n      pop\n      jump\t// out\n        /* \"@openzeppelin/contracts/security/Pausable.sol\":1863:1978  function _pause() internal virtual whenNotPaused {... */\n    tag_248:\n        /* \"@openzeppelin/contracts/security/Pausable.sol\":1145:1149  bool */\n      0x00\n        /* \"@openzeppelin/contracts/security/Pausable.sol\":1168:1175  _paused */\n      sload\n      shl(0xa0, 0x01)\n      swap1\n      div\n      0xff\n      and\n        /* \"@openzeppelin/contracts/security/Pausable.sol\":1411:1420  !paused() */\n      iszero\n        /* \"@openzeppelin/contracts/security/Pausable.sol\":1403:1441  require(!paused(), \"Pausable: paused\") */\n      tag_407\n      jumpi\n      mload(0x40)\n      shl(0xe5, 0x461bcd)\n      dup2\n      mstore\n      0x04\n      add\n      tag_162\n      swap1\n      tag_163\n      jump\t// in\n    tag_407:\n        /* \"@openzeppelin/contracts/security/Pausable.sol\":1922:1929  _paused */\n      0x00\n        /* \"@openzeppelin/contracts/security/Pausable.sol\":1922:1936  _paused = true */\n      dup1\n      sload\n      not(shl(0xa0, 0xff))\n      and\n      shl(0xa0, 0x01)\n      or\n      swap1\n      sstore\n        /* \"@openzeppelin/contracts/security/Pausable.sol\":1951:1971  Paused(_msgSender()) */\n      0x62e78cea01bee320cd4e420270b5ea74000d11b0c9f74754ebdbfc544b05a258\n        /* \"@openzeppelin/contracts/security/Pausable.sol\":1958:1970  _msgSender() */\n      tag_371\n        /* \"@openzeppelin/contracts/utils/Context.sol\":719:729  msg.sender */\n      caller\n      swap1\n        /* \"@openzeppelin/contracts/utils/Context.sol\":640:736  function _msgSender() internal view virtual returns (address) {... */\n      jump\n        /* \"#utility.yul\":422:602   */\n    tag_53:\n        /* \"#utility.yul\":481:487   */\n      0x00\n        /* \"#utility.yul\":534:536   */\n      0x20\n        /* \"#utility.yul\":522:531   */\n      dup3\n        /* \"#utility.yul\":513:520   */\n      dup5\n        /* \"#utility.yul\":509:532   */\n      sub\n        /* \"#utility.yul\":505:537   */\n      slt\n        /* \"#utility.yul\":502:554   */\n      iszero\n      tag_419\n      jumpi\n        /* \"#utility.yul\":550:551   */\n      0x00\n        /* \"#utility.yul\":547:548   */\n      dup1\n        /* \"#utility.yul\":540:552   */\n      revert\n        /* \"#utility.yul\":502:554   */\n    tag_419:\n      pop\n        /* \"#utility.yul\":573:596   */\n      calldataload\n      swap2\n        /* \"#utility.yul\":422:602   */\n      swap1\n      pop\n      jump\t// out\n        /* \"#utility.yul\":1021:1152   */\n    tag_412:\n      sub(shl(0xa0, 0x01), 0x01)\n        /* \"#utility.yul\":1096:1127   */\n      dup2\n      and\n        /* \"#utility.yul\":1086:1128   */\n      dup2\n      eq\n        /* \"#utility.yul\":1076:1146   */\n      tag_332\n      jumpi\n        /* \"#utility.yul\":1142:1143   */\n      0x00\n        /* \"#utility.yul\":1139:1140   */\n      dup1\n        /* \"#utility.yul\":1132:1144   */\n      revert\n        /* \"#utility.yul\":1157:1404   */\n    tag_73:\n        /* \"#utility.yul\":1216:1222   */\n      0x00\n        /* \"#utility.yul\":1269:1271   */\n      0x20\n        /* \"#utility.yul\":1257:1266   */\n      dup3\n        /* \"#utility.yul\":1248:1255   */\n      dup5\n        /* \"#utility.yul\":1244:1267   */\n      sub\n        /* \"#utility.yul\":1240:1272   */\n      slt\n        /* \"#utility.yul\":1237:1289   */\n      iszero\n      tag_425\n      jumpi\n        /* \"#utility.yul\":1285:1286   */\n      0x00\n        /* \"#utility.yul\":1282:1283   */\n      dup1\n        /* \"#utility.yul\":1275:1287   */\n      revert\n        /* \"#utility.yul\":1237:1289   */\n    tag_425:\n        /* \"#utility.yul\":1324:1333   */\n      dup2\n        /* \"#utility.yul\":1311:1334   */\n      calldataload\n        /* \"#utility.yul\":1343:1374   */\n      tag_232\n        /* \"#utility.yul\":1368:1373   */\n      dup2\n        /* \"#utility.yul\":1343:1374   */\n      tag_412\n      jump\t// in\n        /* \"#utility.yul\":1733:1889   */\n    tag_413:\n        /* \"#utility.yul\":1799:1819   */\n      dup1\n      calldataload\n        /* \"#utility.yul\":1859:1863   */\n      0xff\n        /* \"#utility.yul\":1848:1864   */\n      dup2\n      and\n        /* \"#utility.yul\":1838:1865   */\n      dup2\n      eq\n        /* \"#utility.yul\":1828:1883   */\n      tag_429\n      jumpi\n        /* \"#utility.yul\":1879:1880   */\n      0x00\n        /* \"#utility.yul\":1876:1877   */\n      dup1\n        /* \"#utility.yul\":1869:1881   */\n      revert\n        /* \"#utility.yul\":1828:1883   */\n    tag_429:\n        /* \"#utility.yul\":1733:1889   */\n      swap2\n      swap1\n      pop\n      jump\t// out\n        /* \"#utility.yul\":1894:2279   */\n    tag_93:\n        /* \"#utility.yul\":1969:1975   */\n      0x00\n        /* \"#utility.yul\":1977:1983   */\n      dup1\n        /* \"#utility.yul\":1985:1991   */\n      0x00\n        /* \"#utility.yul\":2038:2040   */\n      0x60\n        /* \"#utility.yul\":2026:2035   */\n      dup5\n        /* \"#utility.yul\":2017:2024   */\n      dup7\n        /* \"#utility.yul\":2013:2036   */\n      sub\n        /* \"#utility.yul\":2009:2041   */\n      slt\n        /* \"#utility.yul\":2006:2058   */\n      iszero\n      tag_431\n      jumpi\n        /* \"#utility.yul\":2054:2055   */\n      0x00\n        /* \"#utility.yul\":2051:2052   */\n      dup1\n        /* \"#utility.yul\":2044:2056   */\n      revert\n        /* \"#utility.yul\":2006:2058   */\n    tag_431:\n        /* \"#utility.yul\":2093:2102   */\n      dup4\n        /* \"#utility.yul\":2080:2103   */\n      calldataload\n        /* \"#utility.yul\":2112:2143   */\n      tag_432\n        /* \"#utility.yul\":2137:2142   */\n      dup2\n        /* \"#utility.yul\":2112:2143   */\n      tag_412\n      jump\t// in\n    tag_432:\n        /* \"#utility.yul\":2162:2167   */\n      swap3\n      pop\n        /* \"#utility.yul\":2186:2222   */\n      tag_433\n        /* \"#utility.yul\":2218:2220   */\n      0x20\n        /* \"#utility.yul\":2203:2221   */\n      dup6\n      add\n        /* \"#utility.yul\":2186:2222   */\n      tag_413\n      jump\t// in\n    tag_433:\n        /* \"#utility.yul\":2176:2222   */\n      swap2\n      pop\n        /* \"#utility.yul\":2269:2271   */\n      0x40\n        /* \"#utility.yul\":2258:2267   */\n      dup5\n        /* \"#utility.yul\":2254:2272   */\n      add\n        /* \"#utility.yul\":2241:2273   */\n      calldataload\n        /* \"#utility.yul\":2231:2273   */\n      swap1\n      pop\n        /* \"#utility.yul\":1894:2279   */\n      swap3\n      pop\n      swap3\n      pop\n      swap3\n      jump\t// out\n        /* \"#utility.yul\":2492:2808   */\n    tag_142:\n        /* \"#utility.yul\":2569:2575   */\n      0x00\n        /* \"#utility.yul\":2577:2583   */\n      dup1\n        /* \"#utility.yul\":2585:2591   */\n      0x00\n        /* \"#utility.yul\":2638:2640   */\n      0x60\n        /* \"#utility.yul\":2626:2635   */\n      dup5\n        /* \"#utility.yul\":2617:2624   */\n      dup7\n        /* \"#utility.yul\":2613:2636   */\n      sub\n        /* \"#utility.yul\":2609:2641   */\n      slt\n        /* \"#utility.yul\":2606:2658   */\n      iszero\n      tag_436\n      jumpi\n        /* \"#utility.yul\":2654:2655   */\n      0x00\n        /* \"#utility.yul\":2651:2652   */\n      dup1\n        /* \"#utility.yul\":2644:2656   */\n      revert\n        /* \"#utility.yul\":2606:2658   */\n    tag_436:\n      pop\n      pop\n        /* \"#utility.yul\":2677:2700   */\n      dup2\n      calldataload\n      swap4\n        /* \"#utility.yul\":2747:2749   */\n      0x20\n        /* \"#utility.yul\":2732:2750   */\n      dup4\n      add\n        /* \"#utility.yul\":2719:2751   */\n      calldataload\n      swap4\n      pop\n        /* \"#utility.yul\":2798:2800   */\n      0x40\n        /* \"#utility.yul\":2783:2801   */\n      swap1\n      swap3\n      add\n        /* \"#utility.yul\":2770:2802   */\n      calldataload\n      swap2\n        /* \"#utility.yul\":2492:2808   */\n      swap1\n      pop\n      jump\t// out\n        /* \"#utility.yul\":2813:3336   */\n    tag_149:\n        /* \"#utility.yul\":2917:2923   */\n      0x00\n        /* \"#utility.yul\":2925:2931   */\n      dup1\n        /* \"#utility.yul\":2933:2939   */\n      0x00\n        /* \"#utility.yul\":2941:2947   */\n      dup1\n        /* \"#utility.yul\":2949:2955   */\n      0x00\n        /* \"#utility.yul\":2957:2963   */\n      dup1\n        /* \"#utility.yul\":3010:3013   */\n      0xc0\n        /* \"#utility.yul\":2998:3007   */\n      dup8\n        /* \"#utility.yul\":2989:2996   */\n      dup10\n        /* \"#utility.yul\":2985:3008   */\n      sub\n        /* \"#utility.yul\":2981:3014   */\n      slt\n        /* \"#utility.yul\":2978:3031   */\n      iszero\n      tag_438\n      jumpi\n        /* \"#utility.yul\":3027:3028   */\n      0x00\n        /* \"#utility.yul\":3024:3025   */\n      dup1\n        /* \"#utility.yul\":3017:3029   */\n      revert\n        /* \"#utility.yul\":2978:3031   */\n    tag_438:\n      pop\n      pop\n        /* \"#utility.yul\":3050:3073   */\n      dup5\n      calldataload\n      swap7\n        /* \"#utility.yul\":3120:3122   */\n      0x20\n        /* \"#utility.yul\":3105:3123   */\n      dup7\n      add\n        /* \"#utility.yul\":3092:3124   */\n      calldataload\n      swap7\n      pop\n        /* \"#utility.yul\":3171:3173   */\n      0x40\n        /* \"#utility.yul\":3156:3174   */\n      dup7\n      add\n        /* \"#utility.yul\":3143:3175   */\n      calldataload\n      swap6\n        /* \"#utility.yul\":3222:3224   */\n      0x60\n        /* \"#utility.yul\":3207:3225   */\n      dup2\n      add\n        /* \"#utility.yul\":3194:3226   */\n      calldataload\n      swap6\n      pop\n        /* \"#utility.yul\":3273:3276   */\n      0x80\n        /* \"#utility.yul\":3258:3277   */\n      dup2\n      add\n        /* \"#utility.yul\":3245:3278   */\n      calldataload\n      swap5\n      pop\n        /* \"#utility.yul\":3325:3328   */\n      0xa0\n        /* \"#utility.yul\":3310:3329   */\n      add\n        /* \"#utility.yul\":3297:3330   */\n      calldataload\n      swap3\n      pop\n        /* \"#utility.yul\":2813:3336   */\n      swap1\n      pop\n      jump\t// out\n        /* \"#utility.yul\":3341:3658   */\n    tag_153:\n        /* \"#utility.yul\":3407:3413   */\n      0x00\n        /* \"#utility.yul\":3415:3421   */\n      dup1\n        /* \"#utility.yul\":3468:3470   */\n      0x40\n        /* \"#utility.yul\":3456:3465   */\n      dup4\n        /* \"#utility.yul\":3447:3454   */\n      dup6\n        /* \"#utility.yul\":3443:3466   */\n      sub\n        /* \"#utility.yul\":3439:3471   */\n      slt\n        /* \"#utility.yul\":3436:3488   */\n      iszero\n      tag_440\n      jumpi\n        /* \"#utility.yul\":3484:3485   */\n      0x00\n        /* \"#utility.yul\":3481:3482   */\n      dup1\n        /* \"#utility.yul\":3474:3486   */\n      revert\n        /* \"#utility.yul\":3436:3488   */\n    tag_440:\n        /* \"#utility.yul\":3523:3532   */\n      dup3\n        /* \"#utility.yul\":3510:3533   */\n      calldataload\n        /* \"#utility.yul\":3542:3573   */\n      tag_441\n        /* \"#utility.yul\":3567:3572   */\n      dup2\n        /* \"#utility.yul\":3542:3573   */\n      tag_412\n      jump\t// in\n    tag_441:\n        /* \"#utility.yul\":3592:3597   */\n      swap2\n      pop\n        /* \"#utility.yul\":3616:3652   */\n      tag_442\n        /* \"#utility.yul\":3648:3650   */\n      0x20\n        /* \"#utility.yul\":3633:3651   */\n      dup5\n      add\n        /* \"#utility.yul\":3616:3652   */\n      tag_413\n      jump\t// in\n    tag_442:\n        /* \"#utility.yul\":3606:3652   */\n      swap1\n      pop\n        /* \"#utility.yul\":3341:3658   */\n      swap3\n      pop\n      swap3\n      swap1\n      pop\n      jump\t// out\n        /* \"#utility.yul\":3663:4003   */\n    tag_163:\n        /* \"#utility.yul\":3865:3867   */\n      0x20\n        /* \"#utility.yul\":3847:3868   */\n      dup1\n      dup3\n      mstore\n        /* \"#utility.yul\":3904:3906   */\n      0x10\n        /* \"#utility.yul\":3884:3902   */\n      swap1\n      dup3\n      add\n        /* \"#utility.yul\":3877:3907   */\n      mstore\n      shl(0x82, 0x14185d5cd8589b194e881c185d5cd959)\n        /* \"#utility.yul\":3938:3940   */\n      0x40\n        /* \"#utility.yul\":3923:3941   */\n      dup3\n      add\n        /* \"#utility.yul\":3916:3962   */\n      mstore\n        /* \"#utility.yul\":3994:3996   */\n      0x60\n        /* \"#utility.yul\":3979:3997   */\n      add\n      swap1\n        /* \"#utility.yul\":3663:4003   */\n      jump\t// out\n        /* \"#utility.yul\":4008:4422   */\n    tag_168:\n        /* \"#utility.yul\":4210:4212   */\n      0x20\n        /* \"#utility.yul\":4192:4213   */\n      dup1\n      dup3\n      mstore\n        /* \"#utility.yul\":4249:4251   */\n      0x32\n        /* \"#utility.yul\":4229:4247   */\n      swap1\n      dup3\n      add\n        /* \"#utility.yul\":4222:4252   */\n      mstore\n        /* \"#utility.yul\":4288:4322   */\n      0x416d6f756e74206e6565647320746f206265206d6f7265207468616e206d696e\n        /* \"#utility.yul\":4283:4285   */\n      0x40\n        /* \"#utility.yul\":4268:4286   */\n      dup3\n      add\n        /* \"#utility.yul\":4261:4323   */\n      mstore\n      shl(0x73, 0x040c2dcc840d8cae6e640e8d0c2dc40dac2f)\n        /* \"#utility.yul\":4354:4356   */\n      0x60\n        /* \"#utility.yul\":4339:4357   */\n      dup3\n      add\n        /* \"#utility.yul\":4332:4380   */\n      mstore\n        /* \"#utility.yul\":4412:4415   */\n      0x80\n        /* \"#utility.yul\":4397:4416   */\n      add\n      swap1\n        /* \"#utility.yul\":4008:4422   */\n      jump\t// out\n        /* \"#utility.yul\":4427:4825   */\n    tag_171:\n        /* \"#utility.yul\":4629:4631   */\n      0x20\n        /* \"#utility.yul\":4611:4632   */\n      dup1\n      dup3\n      mstore\n        /* \"#utility.yul\":4668:4670   */\n      0x22\n        /* \"#utility.yul\":4648:4666   */\n      swap1\n      dup3\n      add\n        /* \"#utility.yul\":4641:4671   */\n      mstore\n        /* \"#utility.yul\":4707:4741   */\n      0x596f7527726520616c726561647920696e2074686973205374616b65206c6576\n        /* \"#utility.yul\":4702:4704   */\n      0x40\n        /* \"#utility.yul\":4687:4705   */\n      dup3\n      add\n        /* \"#utility.yul\":4680:4742   */\n      mstore\n      shl(0xf2, 0x195b)\n        /* \"#utility.yul\":4773:4775   */\n      0x60\n        /* \"#utility.yul\":4758:4776   */\n      dup3\n      add\n        /* \"#utility.yul\":4751:4783   */\n      mstore\n        /* \"#utility.yul\":4815:4818   */\n      0x80\n        /* \"#utility.yul\":4800:4819   */\n      add\n      swap1\n        /* \"#utility.yul\":4427:4825   */\n      jump\t// out\n        /* \"#utility.yul\":5210:5487   */\n    tag_177:\n        /* \"#utility.yul\":5277:5283   */\n      0x00\n        /* \"#utility.yul\":5330:5332   */\n      0x20\n        /* \"#utility.yul\":5318:5327   */\n      dup3\n        /* \"#utility.yul\":5309:5316   */\n      dup5\n        /* \"#utility.yul\":5305:5328   */\n      sub\n        /* \"#utility.yul\":5301:5333   */\n      slt\n        /* \"#utility.yul\":5298:5350   */\n      iszero\n      tag_448\n      jumpi\n        /* \"#utility.yul\":5346:5347   */\n      0x00\n        /* \"#utility.yul\":5343:5344   */\n      dup1\n        /* \"#utility.yul\":5336:5348   */\n      revert\n        /* \"#utility.yul\":5298:5350   */\n    tag_448:\n        /* \"#utility.yul\":5378:5387   */\n      dup2\n        /* \"#utility.yul\":5372:5388   */\n      mload\n        /* \"#utility.yul\":5431:5436   */\n      dup1\n        /* \"#utility.yul\":5424:5437   */\n      iszero\n        /* \"#utility.yul\":5417:5438   */\n      iszero\n        /* \"#utility.yul\":5410:5415   */\n      dup2\n        /* \"#utility.yul\":5407:5439   */\n      eq\n        /* \"#utility.yul\":5397:5457   */\n      tag_232\n      jumpi\n        /* \"#utility.yul\":5453:5454   */\n      0x00\n        /* \"#utility.yul\":5450:5451   */\n      dup1\n        /* \"#utility.yul\":5443:5455   */\n      revert\n        /* \"#utility.yul\":5492:5619   */\n    tag_414:\n        /* \"#utility.yul\":5553:5563   */\n      0x4e487b71\n        /* \"#utility.yul\":5548:5551   */\n      0xe0\n        /* \"#utility.yul\":5544:5564   */\n      shl\n        /* \"#utility.yul\":5541:5542   */\n      0x00\n        /* \"#utility.yul\":5534:5565   */\n      mstore\n        /* \"#utility.yul\":5584:5588   */\n      0x11\n        /* \"#utility.yul\":5581:5582   */\n      0x04\n        /* \"#utility.yul\":5574:5589   */\n      mstore\n        /* \"#utility.yul\":5608:5612   */\n      0x24\n        /* \"#utility.yul\":5605:5606   */\n      0x00\n        /* \"#utility.yul\":5598:5613   */\n      revert\n        /* \"#utility.yul\":5624:5752   */\n    tag_179:\n        /* \"#utility.yul\":5664:5667   */\n      0x00\n        /* \"#utility.yul\":5695:5696   */\n      dup3\n        /* \"#utility.yul\":5691:5697   */\n      not\n        /* \"#utility.yul\":5688:5689   */\n      dup3\n        /* \"#utility.yul\":5685:5698   */\n      gt\n        /* \"#utility.yul\":5682:5721   */\n      iszero\n      tag_453\n      jumpi\n        /* \"#utility.yul\":5701:5719   */\n      tag_453\n      tag_414\n      jump\t// in\n    tag_453:\n      pop\n        /* \"#utility.yul\":5737:5746   */\n      add\n      swap1\n        /* \"#utility.yul\":5624:5752   */\n      jump\t// out\n        /* \"#utility.yul\":6268:6624   */\n    tag_189:\n        /* \"#utility.yul\":6470:6472   */\n      0x20\n        /* \"#utility.yul\":6452:6473   */\n      dup1\n      dup3\n      mstore\n        /* \"#utility.yul\":6489:6507   */\n      dup2\n      dup2\n      add\n        /* \"#utility.yul\":6482:6512   */\n      mstore\n        /* \"#utility.yul\":6548:6582   */\n      0x4f776e61626c653a2063616c6c6572206973206e6f7420746865206f776e6572\n        /* \"#utility.yul\":6543:6545   */\n      0x40\n        /* \"#utility.yul\":6528:6546   */\n      dup3\n      add\n        /* \"#utility.yul\":6521:6583   */\n      mstore\n        /* \"#utility.yul\":6615:6617   */\n      0x60\n        /* \"#utility.yul\":6600:6618   */\n      add\n      swap1\n        /* \"#utility.yul\":6268:6624   */\n      jump\t// out\n        /* \"#utility.yul\":6973:7327   */\n    tag_200:\n        /* \"#utility.yul\":7175:7177   */\n      0x20\n        /* \"#utility.yul\":7157:7178   */\n      dup1\n      dup3\n      mstore\n        /* \"#utility.yul\":7214:7216   */\n      0x1e\n        /* \"#utility.yul\":7194:7212   */\n      swap1\n      dup3\n      add\n        /* \"#utility.yul\":7187:7217   */\n      mstore\n        /* \"#utility.yul\":7253:7285   */\n      0x4e6f7420656e6f7567682062616c616e636520746f2077697468647261770000\n        /* \"#utility.yul\":7248:7250   */\n      0x40\n        /* \"#utility.yul\":7233:7251   */\n      dup3\n      add\n        /* \"#utility.yul\":7226:7286   */\n      mstore\n        /* \"#utility.yul\":7318:7320   */\n      0x60\n        /* \"#utility.yul\":7303:7321   */\n      add\n      swap1\n        /* \"#utility.yul\":6973:7327   */\n      jump\t// out\n        /* \"#utility.yul\":7332:7457   */\n    tag_206:\n        /* \"#utility.yul\":7372:7376   */\n      0x00\n        /* \"#utility.yul\":7400:7401   */\n      dup3\n        /* \"#utility.yul\":7397:7398   */\n      dup3\n        /* \"#utility.yul\":7394:7402   */\n      lt\n        /* \"#utility.yul\":7391:7425   */\n      iszero\n      tag_460\n      jumpi\n        /* \"#utility.yul\":7405:7423   */\n      tag_460\n      tag_414\n      jump\t// in\n    tag_460:\n      pop\n        /* \"#utility.yul\":7442:7451   */\n      sub\n      swap1\n        /* \"#utility.yul\":7332:7457   */\n      jump\t// out\n        /* \"#utility.yul\":7741:8257   */\n    tag_221:\n      sub(shl(0xa0, 0x01), 0x01)\n        /* \"#utility.yul\":8018:8050   */\n      swap6\n      swap1\n      swap6\n      and\n        /* \"#utility.yul\":8000:8051   */\n      dup6\n      mstore\n        /* \"#utility.yul\":8099:8103   */\n      0xff\n        /* \"#utility.yul\":8087:8104   */\n      swap4\n      swap1\n      swap4\n      and\n        /* \"#utility.yul\":8082:8084   */\n      0x20\n        /* \"#utility.yul\":8067:8085   */\n      dup6\n      add\n        /* \"#utility.yul\":8060:8105   */\n      mstore\n        /* \"#utility.yul\":8148:8162   */\n      swap1\n      iszero\n        /* \"#utility.yul\":8141:8163   */\n      iszero\n        /* \"#utility.yul\":8136:8138   */\n      0x40\n        /* \"#utility.yul\":8121:8139   */\n      dup5\n      add\n        /* \"#utility.yul\":8114:8164   */\n      mstore\n        /* \"#utility.yul\":8195:8197   */\n      0x60\n        /* \"#utility.yul\":8180:8198   */\n      dup4\n      add\n        /* \"#utility.yul\":8173:8207   */\n      mstore\n        /* \"#utility.yul\":8238:8241   */\n      0x80\n        /* \"#utility.yul\":8223:8242   */\n      dup3\n      add\n        /* \"#utility.yul\":8216:8251   */\n      mstore\n        /* \"#utility.yul\":7987:7990   */\n      0xa0\n        /* \"#utility.yul\":7972:7991   */\n      add\n      swap1\n        /* \"#utility.yul\":7741:8257   */\n      jump\t// out\n        /* \"#utility.yul\":12276:12403   */\n    tag_380:\n        /* \"#utility.yul\":12337:12347   */\n      0x4e487b71\n        /* \"#utility.yul\":12332:12335   */\n      0xe0\n        /* \"#utility.yul\":12328:12348   */\n      shl\n        /* \"#utility.yul\":12325:12326   */\n      0x00\n        /* \"#utility.yul\":12318:12349   */\n      mstore\n        /* \"#utility.yul\":12368:12372   */\n      0x32\n        /* \"#utility.yul\":12365:12366   */\n      0x04\n        /* \"#utility.yul\":12358:12373   */\n      mstore\n        /* \"#utility.yul\":12392:12396   */\n      0x24\n        /* \"#utility.yul\":12389:12390   */\n      0x00\n        /* \"#utility.yul\":12382:12397   */\n      revert\n        /* \"#utility.yul\":12408:12659   */\n    tag_384:\n        /* \"#utility.yul\":12478:12484   */\n      0x00\n        /* \"#utility.yul\":12531:12533   */\n      0x20\n        /* \"#utility.yul\":12519:12528   */\n      dup3\n        /* \"#utility.yul\":12510:12517   */\n      dup5\n        /* \"#utility.yul\":12506:12529   */\n      sub\n        /* \"#utility.yul\":12502:12534   */\n      slt\n        /* \"#utility.yul\":12499:12551   */\n      iszero\n      tag_475\n      jumpi\n        /* \"#utility.yul\":12547:12548   */\n      0x00\n        /* \"#utility.yul\":12544:12545   */\n      dup1\n        /* \"#utility.yul\":12537:12549   */\n      revert\n        /* \"#utility.yul\":12499:12551   */\n    tag_475:\n        /* \"#utility.yul\":12579:12588   */\n      dup2\n        /* \"#utility.yul\":12573:12589   */\n      mload\n        /* \"#utility.yul\":12598:12629   */\n      tag_232\n        /* \"#utility.yul\":12623:12628   */\n      dup2\n        /* \"#utility.yul\":12598:12629   */\n      tag_412\n      jump\t// in\n        /* \"#utility.yul\":12664:13644   */\n    tag_392:\n        /* \"#utility.yul\":12926:12930   */\n      0x00\n        /* \"#utility.yul\":12974:12977   */\n      0xa0\n        /* \"#utility.yul\":12963:12972   */\n      dup3\n        /* \"#utility.yul\":12959:12978   */\n      add\n        /* \"#utility.yul\":13005:13011   */\n      dup8\n        /* \"#utility.yul\":12994:13003   */\n      dup4\n        /* \"#utility.yul\":12987:13012   */\n      mstore\n        /* \"#utility.yul\":13031:13033   */\n      0x20\n        /* \"#utility.yul\":13069:13075   */\n      dup8\n        /* \"#utility.yul\":13064:13066   */\n      dup2\n        /* \"#utility.yul\":13053:13062   */\n      dup6\n        /* \"#utility.yul\":13049:13067   */\n      add\n        /* \"#utility.yul\":13042:13076   */\n      mstore\n        /* \"#utility.yul\":13112:13115   */\n      0xa0\n        /* \"#utility.yul\":13107:13109   */\n      0x40\n        /* \"#utility.yul\":13096:13105   */\n      dup6\n        /* \"#utility.yul\":13092:13110   */\n      add\n        /* \"#utility.yul\":13085:13116   */\n      mstore\n        /* \"#utility.yul\":13136:13142   */\n      dup2\n        /* \"#utility.yul\":13171:13177   */\n      dup8\n        /* \"#utility.yul\":13165:13178   */\n      mload\n        /* \"#utility.yul\":13202:13208   */\n      dup1\n        /* \"#utility.yul\":13194:13200   */\n      dup5\n        /* \"#utility.yul\":13187:13209   */\n      mstore\n        /* \"#utility.yul\":13240:13243   */\n      0xc0\n        /* \"#utility.yul\":13229:13238   */\n      dup7\n        /* \"#utility.yul\":13225:13244   */\n      add\n        /* \"#utility.yul\":13218:13244   */\n      swap2\n      pop\n        /* \"#utility.yul\":13279:13281   */\n      dup3\n        /* \"#utility.yul\":13271:13277   */\n      dup10\n        /* \"#utility.yul\":13267:13282   */\n      add\n        /* \"#utility.yul\":13253:13282   */\n      swap4\n      pop\n        /* \"#utility.yul\":13300:13301   */\n      0x00\n        /* \"#utility.yul\":13310:13505   */\n    tag_478:\n        /* \"#utility.yul\":13324:13330   */\n      dup2\n        /* \"#utility.yul\":13321:13322   */\n      dup2\n        /* \"#utility.yul\":13318:13331   */\n      lt\n        /* \"#utility.yul\":13310:13505   */\n      iszero\n      tag_480\n      jumpi\n        /* \"#utility.yul\":13389:13402   */\n      dup5\n      mload\n      sub(shl(0xa0, 0x01), 0x01)\n        /* \"#utility.yul\":13385:13424   */\n      and\n        /* \"#utility.yul\":13373:13425   */\n      dup4\n      mstore\n        /* \"#utility.yul\":13480:13495   */\n      swap4\n      dup4\n      add\n      swap4\n        /* \"#utility.yul\":13445:13457   */\n      swap2\n      dup4\n      add\n      swap2\n        /* \"#utility.yul\":13421:13422   */\n      0x01\n        /* \"#utility.yul\":13339:13348   */\n      add\n        /* \"#utility.yul\":13310:13505   */\n      jump(tag_478)\n    tag_480:\n      pop\n      pop\n      sub(shl(0xa0, 0x01), 0x01)\n        /* \"#utility.yul\":13561:13593   */\n      swap7\n      swap1\n      swap7\n      and\n        /* \"#utility.yul\":13556:13558   */\n      0x60\n        /* \"#utility.yul\":13541:13559   */\n      dup6\n      add\n        /* \"#utility.yul\":13534:13594   */\n      mstore\n      pop\n      pop\n      pop\n        /* \"#utility.yul\":13625:13628   */\n      0x80\n        /* \"#utility.yul\":13610:13629   */\n      add\n        /* \"#utility.yul\":13603:13638   */\n      mstore\n        /* \"#utility.yul\":13522:13525   */\n      swap4\n        /* \"#utility.yul\":12664:13644   */\n      swap3\n      pop\n      pop\n      pop\n      jump\t// out\n        /* \"#utility.yul\":13649:13817   */\n    tag_399:\n        /* \"#utility.yul\":13689:13696   */\n      0x00\n        /* \"#utility.yul\":13755:13756   */\n      dup2\n        /* \"#utility.yul\":13751:13752   */\n      0x00\n        /* \"#utility.yul\":13747:13753   */\n      not\n        /* \"#utility.yul\":13743:13757   */\n      div\n        /* \"#utility.yul\":13740:13741   */\n      dup4\n        /* \"#utility.yul\":13737:13758   */\n      gt\n        /* \"#utility.yul\":13732:13733   */\n      dup3\n        /* \"#utility.yul\":13725:13734   */\n      iszero\n        /* \"#utility.yul\":13718:13735   */\n      iszero\n        /* \"#utility.yul\":13714:13759   */\n      and\n        /* \"#utility.yul\":13711:13782   */\n      iszero\n      tag_483\n      jumpi\n        /* \"#utility.yul\":13762:13780   */\n      tag_483\n      tag_414\n      jump\t// in\n    tag_483:\n      pop\n        /* \"#utility.yul\":13802:13811   */\n      mul\n      swap1\n        /* \"#utility.yul\":13649:13817   */\n      jump\t// out\n        /* \"#utility.yul\":13822:14039   */\n    tag_401:\n        /* \"#utility.yul\":13862:13863   */\n      0x00\n        /* \"#utility.yul\":13888:13889   */\n      dup3\n        /* \"#utility.yul\":13878:14010   */\n      tag_485\n      jumpi\n        /* \"#utility.yul\":13932:13942   */\n      0x4e487b71\n        /* \"#utility.yul\":13927:13930   */\n      0xe0\n        /* \"#utility.yul\":13923:13943   */\n      shl\n        /* \"#utility.yul\":13920:13921   */\n      0x00\n        /* \"#utility.yul\":13913:13944   */\n      mstore\n        /* \"#utility.yul\":13967:13971   */\n      0x12\n        /* \"#utility.yul\":13964:13965   */\n      0x04\n        /* \"#utility.yul\":13957:13972   */\n      mstore\n        /* \"#utility.yul\":13995:13999   */\n      0x24\n        /* \"#utility.yul\":13992:13993   */\n      0x00\n        /* \"#utility.yul\":13985:14000   */\n      revert\n        /* \"#utility.yul\":13878:14010   */\n    tag_485:\n      pop\n        /* \"#utility.yul\":14024:14033   */\n      div\n      swap1\n        /* \"#utility.yul\":13822:14039   */\n      jump\t// out\n\n    auxdata: 0xa264697066735822122034791199d66395d0e0b62195f89b790f54327db798ac7a088a339bbd3dfd8ae364736f6c634300080b0033\n}\n",
				"bytecode": {
					"linkReferences": {},
					"object": "60a0604052610a8c600255610e746003556112c06004556802b5e3af16b18800006005556b019d971e4fe8401e7400000060065568056bc75e2d631000006007556b019d971e4fe8401e74000000600855680ad78ebc5ac62000006009556b0813f3978f89409844000000600a553480156200007a57600080fd5b5060405162001e5938038062001e598339810160408190526200009d9162000143565b620000a833620000f3565b6000805460ff60a01b19169055600180546001600160a01b0319166001600160a01b0392909216919091179055737a250d5630b4cf539739df2c5dacb4c659f2488d60805262000175565b600080546001600160a01b038381166001600160a01b0319831681178455604051919092169283917f8be0079c531659141344cd1fd0a4f28419497f9722a3daafe3b4186f6b6457e09190a35050565b6000602082840312156200015657600080fd5b81516001600160a01b03811681146200016e57600080fd5b9392505050565b608051611cb3620001a660003960008181610221015281816115ca0152818161168501526117190152611cb36000f3fe608060405234801561001057600080fd5b50600436106101fb5760003560e01c80637fe509d71161011a57806397e9c5fe116100ad578063e5d157011161007c578063e5d1570114610482578063f2fde38b14610495578063f4217e1e146104a8578063f7edf9ab146104bb578063fe2981b5146104ce57600080fd5b806397e9c5fe14610424578063bb66486414610453578063bf01651a14610466578063d3900a521461047957600080fd5b80638da5cb5b116100e95780638da5cb5b146103ee5780638f0fb2b7146103ff57806391789cef14610408578063927e59981461041157600080fd5b80637fe509d71461038b5780638275b181146103ba57806384203f4b146103c35780638456cb59146103e657600080fd5b80636296e7501161019257806367911ba41161016157806367911ba41461031d57806369e0684814610367578063715018a61461037a57806371a1609b1461038257600080fd5b80636296e750146102bb578063635ef285146102de5780636505cf31146103015780636636389e1461030a57600080fd5b806332938e3a116101ce57806332938e3a146102795780633f4ba83a14610282578063451c3d801461028a5780635c975abb1461029d57600080fd5b806301ef4739146102005780631694505e1461021c5780631ed81ff81461025b5780631ff08fee14610270575b600080fd5b61020960075481565b6040519081526020015b60405180910390f35b6102437f000000000000000000000000000000000000000000000000000000000000000081565b6040516001600160a01b039091168152602001610213565b61026e610269366004611893565b6104e1565b005b61020960035481565b61020960045481565b61026e6106e3565b600154610243906001600160a01b031681565b600054600160a01b900460ff165b6040519015158152602001610213565b6102ab6102c93660046118c1565b600b6020526000908152604090205460ff1681565b6102ab6102ec3660046118c1565b600d6020526000908152604090205460ff1681565b61020960055481565b61026e610318366004611893565b610717565b61034c61032b3660046118c1565b600c6020526000908152604090208054600182015460029092015490919083565b60408051938452602084019290925290820152606001610213565b6102096103753660046118f4565b610984565b61026e610a3d565b61020960065481565b61034c6103993660046118c1565b600e6020526000908152604090208054600182015460029092015490919083565b61020960025481565b6102ab6103d13660046118c1565b600f6020526000908152604090205460ff1681565b61026e610a71565b6000546001600160a01b0316610243565b610209600a5481565b61020960095481565b61026e61041f366004611893565b610aa3565b61034c6104323660046118c1565b60106020526000908152604090208054600182015460029092015490919083565b61026e610461366004611893565b610d08565b61026e610474366004611893565b610f6d565b61020960085481565b61026e610490366004611932565b611155565b61026e6104a33660046118c1565b61118d565b61026e6104b636600461195e565b611228565b6102ab6104c93660046119a1565b61126f565b61026e6104dc366004611893565b61130e565b600054600160a01b900460ff16156105145760405162461bcd60e51b815260040161050b906119d6565b60405180910390fd5b600854811115801561052857506007548110155b6105445760405162461bcd60e51b815260040161050b90611a00565b336000818152600d602052604090205460ff16156105745760405162461bcd60e51b815260040161050b90611a52565b6001546040516323b872dd60e01b81526001600160a01b03838116600483015230602483015260448201859052909116906323b872dd906064016020604051808303816000875af11580156105cd573d6000803e3d6000fd5b505050506040513d601f19601f820116820180604052508101906105f19190611a94565b506001600160a01b0381166000908152600d6020908152604091829020805460ff191660011790558151606081018352848152429181018290529182019061063b90610320611acc565b90526001600160a01b0382166000908152600e6020908152604091829020835181559083015160018083019190915592909101516002909101557f17849bb8c713de96b48f218d3bacc9af082261c3ccc7c6dccebe70e667b22f2390829084426106a88162278d00611acc565b604080516001600160a01b03909616865260ff9094166020860152928401919091526060830152608082015260a00160405180910390a15050565b6000546001600160a01b0316331461070d5760405162461bcd60e51b815260040161050b90611ae4565b6107156114ca565b565b336000818152600f602052604090205460ff166107685760405162461bcd60e51b815260206004820152600f60248201526e055736572206973206e6f742056697608c1b604482015260640161050b565b6001600160a01b038116600090815260106020526040902054828110156107a15760405162461bcd60e51b815260040161050b90611b19565b60006107ae83600261126f565b905060006107be84600287610984565b905082851415610807576001600160a01b038416600090815260106020908152604080832083815560018101849055600201839055600f9091529020805460ff19169055610835565b6001600160a01b0384166000908152601060205260408120805487929061082f908490611b50565b90915550505b81156108c25760015460405163a9059cbb60e01b81526001600160a01b038681166004830152602482018890529091169063a9059cbb906044016020604051808303816000875af115801561088e573d6000803e3d6000fd5b505050506040513d601f19601f820116820180604052508101906108b29190611a94565b506108bd8185611567565b61093d565b5060015460405163a9059cbb60e01b81526001600160a01b03858116600483015260248201879052600092169063a9059cbb906044016020604051808303816000875af1158015610917573d6000803e3d6000fd5b505050506040513d601f19601f8201168201806040525081019061093b9190611a94565b505b7fa3dff5863d601223d9b31a0253b97a6c2085daca56089b92836b4b6a1991e04b846002848885604051610975959493929190611b67565b60405180910390a15050505050565b600060ff83166109c2576001600160a01b0384166000908152600c60205260409020600101546002546109ba908490839061178e565b915050610a36565b8260ff16600114156109fa576001600160a01b0384166000908152600e60205260409020600101546003546109ba908490839061178e565b8260ff1660021415610a32576001600160a01b0384166000908152601060205260409020600101546004546109ba908490839061178e565b5060005b9392505050565b6000546001600160a01b03163314610a675760405162461bcd60e51b815260040161050b90611ae4565b61071560006117de565b6000546001600160a01b03163314610a9b5760405162461bcd60e51b815260040161050b90611ae4565b61071561182e565b336000818152600b602052604090205460ff16610afb5760405162461bcd60e51b8152602060048201526016602482015275055736572206973206e6f74206f6e204c6576656c20360541b604482015260640161050b565b6001600160a01b0381166000908152600c602052604090205482811015610b345760405162461bcd60e51b815260040161050b90611b19565b6000610b4183600061126f565b90506000610b5184600087610984565b905082851415610b9a576001600160a01b0384166000908152600c6020908152604080832083815560018101849055600201839055600b9091529020805460ff19169055610bc8565b6001600160a01b0384166000908152600c602052604081208054879290610bc2908490611b50565b90915550505b8115610c555760015460405163a9059cbb60e01b81526001600160a01b038681166004830152602482018890529091169063a9059cbb906044016020604051808303816000875af1158015610c21573d6000803e3d6000fd5b505050506040513d601f19601f82011682018060405250810190610c459190611a94565b50610c508185611567565b610cd0565b5060015460405163a9059cbb60e01b81526001600160a01b03858116600483015260248201879052600092169063a9059cbb906044016020604051808303816000875af1158015610caa573d6000803e3d6000fd5b505050506040513d601f19601f82011682018060405250810190610cce9190611a94565b505b7fa3dff5863d601223d9b31a0253b97a6c2085daca56089b92836b4b6a1991e04b846000848885604051610975959493929190611b67565b336000818152600d602052604090205460ff16610d605760405162461bcd60e51b815260206004820152601660248201527555736572206973206e6f74206f6e204c6576656c203160501b604482015260640161050b565b6001600160a01b0381166000908152600e602052604090205482811015610d995760405162461bcd60e51b815260040161050b90611b19565b6000610da683600161126f565b90506000610db684600187610984565b905082851415610dff576001600160a01b0384166000908152600e6020908152604080832083815560018101849055600201839055600d9091529020805460ff19169055610e2d565b6001600160a01b0384166000908152600e602052604081208054879290610e27908490611b50565b90915550505b8115610eba5760015460405163a9059cbb60e01b81526001600160a01b038681166004830152602482018890529091169063a9059cbb906044016020604051808303816000875af1158015610e86573d6000803e3d6000fd5b505050506040513d601f19601f82011682018060405250810190610eaa9190611a94565b50610eb58185611567565b610f35565b5060015460405163a9059cbb60e01b81526001600160a01b03858116600483015260248201879052600092169063a9059cbb906044016020604051808303816000875af1158015610f0f573d6000803e3d6000fd5b505050506040513d601f19601f82011682018060405250810190610f339190611a94565b505b7fa3dff5863d601223d9b31a0253b97a6c2085daca56089b92836b4b6a1991e04b846001848885604051610975959493929190611b67565b600054600160a01b900460ff1615610f975760405162461bcd60e51b815260040161050b906119d6565b600a548111158015610fab57506009548110155b610fc75760405162461bcd60e51b815260040161050b90611a00565b336000818152600f602052604090205460ff16156110275760405162461bcd60e51b815260206004820152601f60248201527f596f7527726520616c726561647920696e2074686520566970205374616b6500604482015260640161050b565b6001546040516323b872dd60e01b81526001600160a01b03838116600483015230602483015260448201859052909116906323b872dd906064016020604051808303816000875af1158015611080573d6000803e3d6000fd5b505050506040513d601f19601f820116820180604052508101906110a49190611a94565b506001600160a01b0381166000908152600f6020908152604091829020805460ff19166001179055815160608101835284815242918101829052918201906110ee906104b0611acc565b90526001600160a01b038216600090815260106020908152604091829020835181559083015160018201559101516002918201557f17849bb8c713de96b48f218d3bacc9af082261c3ccc7c6dccebe70e667b22f2390829084426106a8816276a700611acc565b6000546001600160a01b0316331461117f5760405162461bcd60e51b815260040161050b90611ae4565b600292909255600355600455565b6000546001600160a01b031633146111b75760405162461bcd60e51b815260040161050b90611ae4565b6001600160a01b03811661121c5760405162461bcd60e51b815260206004820152602660248201527f4f776e61626c653a206e6577206f776e657220697320746865207a65726f206160448201526564647265737360d01b606482015260840161050b565b611225816117de565b50565b6000546001600160a01b031633146112525760405162461bcd60e51b815260040161050b90611ae4565b600595909555600693909355600791909155600855600955600a55565b60008060ff831661129c57506001600160a01b0383166000908152600c6020526040902060020154611302565b8260ff16600114156112ca57506001600160a01b0383166000908152600e6020526040902060020154611302565b8260ff16600214156112f857506001600160a01b038316600090815260106020526040902060020154611302565b6000915050611308565b42101590505b92915050565b600054600160a01b900460ff16156113385760405162461bcd60e51b815260040161050b906119d6565b600654811115801561134c57506005548110155b6113685760405162461bcd60e51b815260040161050b90611a00565b336000818152600b602052604090205460ff16156113985760405162461bcd60e51b815260040161050b90611a52565b6001546040516323b872dd60e01b81526001600160a01b03838116600483015230602483015260448201859052909116906323b872dd906064016020604051808303816000875af11580156113f1573d6000803e3d6000fd5b505050506040513d601f19601f820116820180604052508101906114159190611a94565b506001600160a01b0381166000908152600b6020908152604091829020805460ff191660011790558151606081018352848152429181018290529182019061145f90610258611acc565b90526001600160a01b0382166000908152600c602090815260408083208451815591840151600183015592909201516002909201919091557f17849bb8c713de96b48f218d3bacc9af082261c3ccc7c6dccebe70e667b22f2390829084426106a88162093a80611acc565b600054600160a01b900460ff1661151a5760405162461bcd60e51b815260206004820152601460248201527314185d5cd8589b194e881b9bdd081c185d5cd95960621b604482015260640161050b565b6000805460ff60a01b191690557f5db9ee0a495bf2e6ff9c91a7834c1ba4fdd244a5e8aa4e537bd38aeae4b073aa335b6040516001600160a01b03909116815260200160405180910390a1565b604080516002808252606082018352600092602083019080368337505060015482519293506001600160a01b0316918391506000906115a8576115a8611b98565b60200260200101906001600160a01b031690816001600160a01b0316815250507f00000000000000000000000000000000000000000000000000000000000000006001600160a01b031663ad5c46486040518163ffffffff1660e01b8152600401602060405180830381865afa158015611626573d6000803e3d6000fd5b505050506040513d601f19601f8201168201806040525081019061164a9190611bae565b8160018151811061165d5761165d611b98565b6001600160a01b03928316602091820292909201015260015460405163095ea7b360e01b81527f0000000000000000000000000000000000000000000000000000000000000000831660048201526024810186905291169063095ea7b3906044016020604051808303816000875af11580156116dd573d6000803e3d6000fd5b505050506040513d601f19601f820116820180604052508101906117019190611a94565b5060405163791ac94760e01b81526001600160a01b037f0000000000000000000000000000000000000000000000000000000000000000169063791ac94790611757908690600090869088904290600401611bcb565b600060405180830381600087803b15801561177157600080fd5b505af1158015611785573d6000803e3d6000fd5b50505050505050565b60008061179b8442611b50565b905060006301e133806127106117b18689611c3c565b6117bb9190611c5b565b6117c59190611c5b565b905060006117d38284611c3c565b979650505050505050565b600080546001600160a01b038381166001600160a01b0319831681178455604051919092169283917f8be0079c531659141344cd1fd0a4f28419497f9722a3daafe3b4186f6b6457e09190a35050565b600054600160a01b900460ff16156118585760405162461bcd60e51b815260040161050b906119d6565b6000805460ff60a01b1916600160a01b1790557f62e78cea01bee320cd4e420270b5ea74000d11b0c9f74754ebdbfc544b05a25861154a3390565b6000602082840312156118a557600080fd5b5035919050565b6001600160a01b038116811461122557600080fd5b6000602082840312156118d357600080fd5b8135610a36816118ac565b803560ff811681146118ef57600080fd5b919050565b60008060006060848603121561190957600080fd5b8335611914816118ac565b9250611922602085016118de565b9150604084013590509250925092565b60008060006060848603121561194757600080fd5b505081359360208301359350604090920135919050565b60008060008060008060c0878903121561197757600080fd5b505084359660208601359650604086013595606081013595506080810135945060a0013592509050565b600080604083850312156119b457600080fd5b82356119bf816118ac565b91506119cd602084016118de565b90509250929050565b60208082526010908201526f14185d5cd8589b194e881c185d5cd95960821b604082015260600190565b60208082526032908201527f416d6f756e74206e6565647320746f206265206d6f7265207468616e206d696e604082015271040c2dcc840d8cae6e640e8d0c2dc40dac2f60731b606082015260800190565b60208082526022908201527f596f7527726520616c726561647920696e2074686973205374616b65206c6576604082015261195b60f21b606082015260800190565b600060208284031215611aa657600080fd5b81518015158114610a3657600080fd5b634e487b7160e01b600052601160045260246000fd5b60008219821115611adf57611adf611ab6565b500190565b6020808252818101527f4f776e61626c653a2063616c6c6572206973206e6f7420746865206f776e6572604082015260600190565b6020808252601e908201527f4e6f7420656e6f7567682062616c616e636520746f2077697468647261770000604082015260600190565b600082821015611b6257611b62611ab6565b500390565b6001600160a01b0395909516855260ff93909316602085015290151560408401526060830152608082015260a00190565b634e487b7160e01b600052603260045260246000fd5b600060208284031215611bc057600080fd5b8151610a36816118ac565b600060a082018783526020878185015260a0604085015281875180845260c086019150828901935060005b81811015611c1b5784516001600160a01b031683529383019391830191600101611bf6565b50506001600160a01b03969096166060850152505050608001529392505050565b6000816000190483118215151615611c5657611c56611ab6565b500290565b600082611c7857634e487b7160e01b600052601260045260246000fd5b50049056fea264697066735822122034791199d66395d0e0b62195f89b790f54327db798ac7a088a339bbd3dfd8ae364736f6c634300080b0033",
					"opcodes": "PUSH1 0xA0 PUSH1 0x40 MSTORE PUSH2 0xA8C PUSH1 0x2 SSTORE PUSH2 0xE74 PUSH1 0x3 SSTORE PUSH2 0x12C0 PUSH1 0x4 SSTORE PUSH9 0x2B5E3AF16B1880000 PUSH1 0x5 SSTORE PUSH12 0x19D971E4FE8401E74000000 PUSH1 0x6 SSTORE PUSH9 0x56BC75E2D63100000 PUSH1 0x7 SSTORE PUSH12 0x19D971E4FE8401E74000000 PUSH1 0x8 SSTORE PUSH9 0xAD78EBC5AC6200000 PUSH1 0x9 SSTORE PUSH12 0x813F3978F89409844000000 PUSH1 0xA SSTORE CALLVALUE DUP1 ISZERO PUSH3 0x7A JUMPI PUSH1 0x0 DUP1 REVERT JUMPDEST POP PUSH1 0x40 MLOAD PUSH3 0x1E59 CODESIZE SUB DUP1 PUSH3 0x1E59 DUP4 CODECOPY DUP2 ADD PUSH1 0x40 DUP2 SWAP1 MSTORE PUSH3 0x9D SWAP2 PUSH3 0x143 JUMP JUMPDEST PUSH3 0xA8 CALLER PUSH3 0xF3 JUMP JUMPDEST PUSH1 0x0 DUP1 SLOAD PUSH1 0xFF PUSH1 0xA0 SHL NOT AND SWAP1 SSTORE PUSH1 0x1 DUP1 SLOAD PUSH1 0x1 PUSH1 0x1 PUSH1 0xA0 SHL SUB NOT AND PUSH1 0x1 PUSH1 0x1 PUSH1 0xA0 SHL SUB SWAP3 SWAP1 SWAP3 AND SWAP2 SWAP1 SWAP2 OR SWAP1 SSTORE PUSH20 0x7A250D5630B4CF539739DF2C5DACB4C659F2488D PUSH1 0x80 MSTORE PUSH3 0x175 JUMP JUMPDEST PUSH1 0x0 DUP1 SLOAD PUSH1 0x1 PUSH1 0x1 PUSH1 0xA0 SHL SUB DUP4 DUP2 AND PUSH1 0x1 PUSH1 0x1 PUSH1 0xA0 SHL SUB NOT DUP4 AND DUP2 OR DUP5 SSTORE PUSH1 0x40 MLOAD SWAP2 SWAP1 SWAP3 AND SWAP3 DUP4 SWAP2 PUSH32 0x8BE0079C531659141344CD1FD0A4F28419497F9722A3DAAFE3B4186F6B6457E0 SWAP2 SWAP1 LOG3 POP POP JUMP JUMPDEST PUSH1 0x0 PUSH1 0x20 DUP3 DUP5 SUB SLT ISZERO PUSH3 0x156 JUMPI PUSH1 0x0 DUP1 REVERT JUMPDEST DUP2 MLOAD PUSH1 0x1 PUSH1 0x1 PUSH1 0xA0 SHL SUB DUP2 AND DUP2 EQ PUSH3 0x16E JUMPI PUSH1 0x0 DUP1 REVERT JUMPDEST SWAP4 SWAP3 POP POP POP JUMP JUMPDEST PUSH1 0x80 MLOAD PUSH2 0x1CB3 PUSH3 0x1A6 PUSH1 0x0 CODECOPY PUSH1 0x0 DUP2 DUP2 PUSH2 0x221 ADD MSTORE DUP2 DUP2 PUSH2 0x15CA ADD MSTORE DUP2 DUP2 PUSH2 0x1685 ADD MSTORE PUSH2 0x1719 ADD MSTORE PUSH2 0x1CB3 PUSH1 0x0 RETURN INVALID PUSH1 0x80 PUSH1 0x40 MSTORE CALLVALUE DUP1 ISZERO PUSH2 0x10 JUMPI PUSH1 0x0 DUP1 REVERT JUMPDEST POP PUSH1 0x4 CALLDATASIZE LT PUSH2 0x1FB JUMPI PUSH1 0x0 CALLDATALOAD PUSH1 0xE0 SHR DUP1 PUSH4 0x7FE509D7 GT PUSH2 0x11A JUMPI DUP1 PUSH4 0x97E9C5FE GT PUSH2 0xAD JUMPI DUP1 PUSH4 0xE5D15701 GT PUSH2 0x7C JUMPI DUP1 PUSH4 0xE5D15701 EQ PUSH2 0x482 JUMPI DUP1 PUSH4 0xF2FDE38B EQ PUSH2 0x495 JUMPI DUP1 PUSH4 0xF4217E1E EQ PUSH2 0x4A8 JUMPI DUP1 PUSH4 0xF7EDF9AB EQ PUSH2 0x4BB JUMPI DUP1 PUSH4 0xFE2981B5 EQ PUSH2 0x4CE JUMPI PUSH1 0x0 DUP1 REVERT JUMPDEST DUP1 PUSH4 0x97E9C5FE EQ PUSH2 0x424 JUMPI DUP1 PUSH4 0xBB664864 EQ PUSH2 0x453 JUMPI DUP1 PUSH4 0xBF01651A EQ PUSH2 0x466 JUMPI DUP1 PUSH4 0xD3900A52 EQ PUSH2 0x479 JUMPI PUSH1 0x0 DUP1 REVERT JUMPDEST DUP1 PUSH4 0x8DA5CB5B GT PUSH2 0xE9 JUMPI DUP1 PUSH4 0x8DA5CB5B EQ PUSH2 0x3EE JUMPI DUP1 PUSH4 0x8F0FB2B7 EQ PUSH2 0x3FF JUMPI DUP1 PUSH4 0x91789CEF EQ PUSH2 0x408 JUMPI DUP1 PUSH4 0x927E5998 EQ PUSH2 0x411 JUMPI PUSH1 0x0 DUP1 REVERT JUMPDEST DUP1 PUSH4 0x7FE509D7 EQ PUSH2 0x38B JUMPI DUP1 PUSH4 0x8275B181 EQ PUSH2 0x3BA JUMPI DUP1 PUSH4 0x84203F4B EQ PUSH2 0x3C3 JUMPI DUP1 PUSH4 0x8456CB59 EQ PUSH2 0x3E6 JUMPI PUSH1 0x0 DUP1 REVERT JUMPDEST DUP1 PUSH4 0x6296E750 GT PUSH2 0x192 JUMPI DUP1 PUSH4 0x67911BA4 GT PUSH2 0x161 JUMPI DUP1 PUSH4 0x67911BA4 EQ PUSH2 0x31D JUMPI DUP1 PUSH4 0x69E06848 EQ PUSH2 0x367 JUMPI DUP1 PUSH4 0x715018A6 EQ PUSH2 0x37A JUMPI DUP1 PUSH4 0x71A1609B EQ PUSH2 0x382 JUMPI PUSH1 0x0 DUP1 REVERT JUMPDEST DUP1 PUSH4 0x6296E750 EQ PUSH2 0x2BB JUMPI DUP1 PUSH4 0x635EF285 EQ PUSH2 0x2DE JUMPI DUP1 PUSH4 0x6505CF31 EQ PUSH2 0x301 JUMPI DUP1 PUSH4 0x6636389E EQ PUSH2 0x30A JUMPI PUSH1 0x0 DUP1 REVERT JUMPDEST DUP1 PUSH4 0x32938E3A GT PUSH2 0x1CE JUMPI DUP1 PUSH4 0x32938E3A EQ PUSH2 0x279 JUMPI DUP1 PUSH4 0x3F4BA83A EQ PUSH2 0x282 JUMPI DUP1 PUSH4 0x451C3D80 EQ PUSH2 0x28A JUMPI DUP1 PUSH4 0x5C975ABB EQ PUSH2 0x29D JUMPI PUSH1 0x0 DUP1 REVERT JUMPDEST DUP1 PUSH4 0x1EF4739 EQ PUSH2 0x200 JUMPI DUP1 PUSH4 0x1694505E EQ PUSH2 0x21C JUMPI DUP1 PUSH4 0x1ED81FF8 EQ PUSH2 0x25B JUMPI DUP1 PUSH4 0x1FF08FEE EQ PUSH2 0x270 JUMPI JUMPDEST PUSH1 0x0 DUP1 REVERT JUMPDEST PUSH2 0x209 PUSH1 0x7 SLOAD DUP2 JUMP JUMPDEST PUSH1 0x40 MLOAD SWAP1 DUP2 MSTORE PUSH1 0x20 ADD JUMPDEST PUSH1 0x40 MLOAD DUP1 SWAP2 SUB SWAP1 RETURN JUMPDEST PUSH2 0x243 PUSH32 0x0 DUP2 JUMP JUMPDEST PUSH1 0x40 MLOAD PUSH1 0x1 PUSH1 0x1 PUSH1 0xA0 SHL SUB SWAP1 SWAP2 AND DUP2 MSTORE PUSH1 0x20 ADD PUSH2 0x213 JUMP JUMPDEST PUSH2 0x26E PUSH2 0x269 CALLDATASIZE PUSH1 0x4 PUSH2 0x1893 JUMP JUMPDEST PUSH2 0x4E1 JUMP JUMPDEST STOP JUMPDEST PUSH2 0x209 PUSH1 0x3 SLOAD DUP2 JUMP JUMPDEST PUSH2 0x209 PUSH1 0x4 SLOAD DUP2 JUMP JUMPDEST PUSH2 0x26E PUSH2 0x6E3 JUMP JUMPDEST PUSH1 0x1 SLOAD PUSH2 0x243 SWAP1 PUSH1 0x1 PUSH1 0x1 PUSH1 0xA0 SHL SUB AND DUP2 JUMP JUMPDEST PUSH1 0x0 SLOAD PUSH1 0x1 PUSH1 0xA0 SHL SWAP1 DIV PUSH1 0xFF AND JUMPDEST PUSH1 0x40 MLOAD SWAP1 ISZERO ISZERO DUP2 MSTORE PUSH1 0x20 ADD PUSH2 0x213 JUMP JUMPDEST PUSH2 0x2AB PUSH2 0x2C9 CALLDATASIZE PUSH1 0x4 PUSH2 0x18C1 JUMP JUMPDEST PUSH1 0xB PUSH1 0x20 MSTORE PUSH1 0x0 SWAP1 DUP2 MSTORE PUSH1 0x40 SWAP1 KECCAK256 SLOAD PUSH1 0xFF AND DUP2 JUMP JUMPDEST PUSH2 0x2AB PUSH2 0x2EC CALLDATASIZE PUSH1 0x4 PUSH2 0x18C1 JUMP JUMPDEST PUSH1 0xD PUSH1 0x20 MSTORE PUSH1 0x0 SWAP1 DUP2 MSTORE PUSH1 0x40 SWAP1 KECCAK256 SLOAD PUSH1 0xFF AND DUP2 JUMP JUMPDEST PUSH2 0x209 PUSH1 0x5 SLOAD DUP2 JUMP JUMPDEST PUSH2 0x26E PUSH2 0x318 CALLDATASIZE PUSH1 0x4 PUSH2 0x1893 JUMP JUMPDEST PUSH2 0x717 JUMP JUMPDEST PUSH2 0x34C PUSH2 0x32B CALLDATASIZE PUSH1 0x4 PUSH2 0x18C1 JUMP JUMPDEST PUSH1 0xC PUSH1 0x20 MSTORE PUSH1 0x0 SWAP1 DUP2 MSTORE PUSH1 0x40 SWAP1 KECCAK256 DUP1 SLOAD PUSH1 0x1 DUP3 ADD SLOAD PUSH1 0x2 SWAP1 SWAP3 ADD SLOAD SWAP1 SWAP2 SWAP1 DUP4 JUMP JUMPDEST PUSH1 0x40 DUP1 MLOAD SWAP4 DUP5 MSTORE PUSH1 0x20 DUP5 ADD SWAP3 SWAP1 SWAP3 MSTORE SWAP1 DUP3 ADD MSTORE PUSH1 0x60 ADD PUSH2 0x213 JUMP JUMPDEST PUSH2 0x209 PUSH2 0x375 CALLDATASIZE PUSH1 0x4 PUSH2 0x18F4 JUMP JUMPDEST PUSH2 0x984 JUMP JUMPDEST PUSH2 0x26E PUSH2 0xA3D JUMP JUMPDEST PUSH2 0x209 PUSH1 0x6 SLOAD DUP2 JUMP JUMPDEST PUSH2 0x34C PUSH2 0x399 CALLDATASIZE PUSH1 0x4 PUSH2 0x18C1 JUMP JUMPDEST PUSH1 0xE PUSH1 0x20 MSTORE PUSH1 0x0 SWAP1 DUP2 MSTORE PUSH1 0x40 SWAP1 KECCAK256 DUP1 SLOAD PUSH1 0x1 DUP3 ADD SLOAD PUSH1 0x2 SWAP1 SWAP3 ADD SLOAD SWAP1 SWAP2 SWAP1 DUP4 JUMP JUMPDEST PUSH2 0x209 PUSH1 0x2 SLOAD DUP2 JUMP JUMPDEST PUSH2 0x2AB PUSH2 0x3D1 CALLDATASIZE PUSH1 0x4 PUSH2 0x18C1 JUMP JUMPDEST PUSH1 0xF PUSH1 0x20 MSTORE PUSH1 0x0 SWAP1 DUP2 MSTORE PUSH1 0x40 SWAP1 KECCAK256 SLOAD PUSH1 0xFF AND DUP2 JUMP JUMPDEST PUSH2 0x26E PUSH2 0xA71 JUMP JUMPDEST PUSH1 0x0 SLOAD PUSH1 0x1 PUSH1 0x1 PUSH1 0xA0 SHL SUB AND PUSH2 0x243 JUMP JUMPDEST PUSH2 0x209 PUSH1 0xA SLOAD DUP2 JUMP JUMPDEST PUSH2 0x209 PUSH1 0x9 SLOAD DUP2 JUMP JUMPDEST PUSH2 0x26E PUSH2 0x41F CALLDATASIZE PUSH1 0x4 PUSH2 0x1893 JUMP JUMPDEST PUSH2 0xAA3 JUMP JUMPDEST PUSH2 0x34C PUSH2 0x432 CALLDATASIZE PUSH1 0x4 PUSH2 0x18C1 JUMP JUMPDEST PUSH1 0x10 PUSH1 0x20 MSTORE PUSH1 0x0 SWAP1 DUP2 MSTORE PUSH1 0x40 SWAP1 KECCAK256 DUP1 SLOAD PUSH1 0x1 DUP3 ADD SLOAD PUSH1 0x2 SWAP1 SWAP3 ADD SLOAD SWAP1 SWAP2 SWAP1 DUP4 JUMP JUMPDEST PUSH2 0x26E PUSH2 0x461 CALLDATASIZE PUSH1 0x4 PUSH2 0x1893 JUMP JUMPDEST PUSH2 0xD08 JUMP JUMPDEST PUSH2 0x26E PUSH2 0x474 CALLDATASIZE PUSH1 0x4 PUSH2 0x1893 JUMP JUMPDEST PUSH2 0xF6D JUMP JUMPDEST PUSH2 0x209 PUSH1 0x8 SLOAD DUP2 JUMP JUMPDEST PUSH2 0x26E PUSH2 0x490 CALLDATASIZE PUSH1 0x4 PUSH2 0x1932 JUMP JUMPDEST PUSH2 0x1155 JUMP JUMPDEST PUSH2 0x26E PUSH2 0x4A3 CALLDATASIZE PUSH1 0x4 PUSH2 0x18C1 JUMP JUMPDEST PUSH2 0x118D JUMP JUMPDEST PUSH2 0x26E PUSH2 0x4B6 CALLDATASIZE PUSH1 0x4 PUSH2 0x195E JUMP JUMPDEST PUSH2 0x1228 JUMP JUMPDEST PUSH2 0x2AB PUSH2 0x4C9 CALLDATASIZE PUSH1 0x4 PUSH2 0x19A1 JUMP JUMPDEST PUSH2 0x126F JUMP JUMPDEST PUSH2 0x26E PUSH2 0x4DC CALLDATASIZE PUSH1 0x4 PUSH2 0x1893 JUMP JUMPDEST PUSH2 0x130E JUMP JUMPDEST PUSH1 0x0 SLOAD PUSH1 0x1 PUSH1 0xA0 SHL SWAP1 DIV PUSH1 0xFF AND ISZERO PUSH2 0x514 JUMPI PUSH1 0x40 MLOAD PUSH3 0x461BCD PUSH1 0xE5 SHL DUP2 MSTORE PUSH1 0x4 ADD PUSH2 0x50B SWAP1 PUSH2 0x19D6 JUMP JUMPDEST PUSH1 0x40 MLOAD DUP1 SWAP2 SUB SWAP1 REVERT JUMPDEST PUSH1 0x8 SLOAD DUP2 GT ISZERO DUP1 ISZERO PUSH2 0x528 JUMPI POP PUSH1 0x7 SLOAD DUP2 LT ISZERO JUMPDEST PUSH2 0x544 JUMPI PUSH1 0x40 MLOAD PUSH3 0x461BCD PUSH1 0xE5 SHL DUP2 MSTORE PUSH1 0x4 ADD PUSH2 0x50B SWAP1 PUSH2 0x1A00 JUMP JUMPDEST CALLER PUSH1 0x0 DUP2 DUP2 MSTORE PUSH1 0xD PUSH1 0x20 MSTORE PUSH1 0x40 SWAP1 KECCAK256 SLOAD PUSH1 0xFF AND ISZERO PUSH2 0x574 JUMPI PUSH1 0x40 MLOAD PUSH3 0x461BCD PUSH1 0xE5 SHL DUP2 MSTORE PUSH1 0x4 ADD PUSH2 0x50B SWAP1 PUSH2 0x1A52 JUMP JUMPDEST PUSH1 0x1 SLOAD PUSH1 0x40 MLOAD PUSH4 0x23B872DD PUSH1 0xE0 SHL DUP2 MSTORE PUSH1 0x1 PUSH1 0x1 PUSH1 0xA0 SHL SUB DUP4 DUP2 AND PUSH1 0x4 DUP4 ADD MSTORE ADDRESS PUSH1 0x24 DUP4 ADD MSTORE PUSH1 0x44 DUP3 ADD DUP6 SWAP1 MSTORE SWAP1 SWAP2 AND SWAP1 PUSH4 0x23B872DD SWAP1 PUSH1 0x64 ADD PUSH1 0x20 PUSH1 0x40 MLOAD DUP1 DUP4 SUB DUP2 PUSH1 0x0 DUP8 GAS CALL ISZERO DUP1 ISZERO PUSH2 0x5CD JUMPI RETURNDATASIZE PUSH1 0x0 DUP1 RETURNDATACOPY RETURNDATASIZE PUSH1 0x0 REVERT JUMPDEST POP POP POP POP PUSH1 0x40 MLOAD RETURNDATASIZE PUSH1 0x1F NOT PUSH1 0x1F DUP3 ADD AND DUP3 ADD DUP1 PUSH1 0x40 MSTORE POP DUP2 ADD SWAP1 PUSH2 0x5F1 SWAP2 SWAP1 PUSH2 0x1A94 JUMP JUMPDEST POP PUSH1 0x1 PUSH1 0x1 PUSH1 0xA0 SHL SUB DUP2 AND PUSH1 0x0 SWAP1 DUP2 MSTORE PUSH1 0xD PUSH1 0x20 SWAP1 DUP2 MSTORE PUSH1 0x40 SWAP2 DUP3 SWAP1 KECCAK256 DUP1 SLOAD PUSH1 0xFF NOT AND PUSH1 0x1 OR SWAP1 SSTORE DUP2 MLOAD PUSH1 0x60 DUP2 ADD DUP4 MSTORE DUP5 DUP2 MSTORE TIMESTAMP SWAP2 DUP2 ADD DUP3 SWAP1 MSTORE SWAP2 DUP3 ADD SWAP1 PUSH2 0x63B SWAP1 PUSH2 0x320 PUSH2 0x1ACC JUMP JUMPDEST SWAP1 MSTORE PUSH1 0x1 PUSH1 0x1 PUSH1 0xA0 SHL SUB DUP3 AND PUSH1 0x0 SWAP1 DUP2 MSTORE PUSH1 0xE PUSH1 0x20 SWAP1 DUP2 MSTORE PUSH1 0x40 SWAP2 DUP3 SWAP1 KECCAK256 DUP4 MLOAD DUP2 SSTORE SWAP1 DUP4 ADD MLOAD PUSH1 0x1 DUP1 DUP4 ADD SWAP2 SWAP1 SWAP2 SSTORE SWAP3 SWAP1 SWAP2 ADD MLOAD PUSH1 0x2 SWAP1 SWAP2 ADD SSTORE PUSH32 0x17849BB8C713DE96B48F218D3BACC9AF082261C3CCC7C6DCCEBE70E667B22F23 SWAP1 DUP3 SWAP1 DUP5 TIMESTAMP PUSH2 0x6A8 DUP2 PUSH3 0x278D00 PUSH2 0x1ACC JUMP JUMPDEST PUSH1 0x40 DUP1 MLOAD PUSH1 0x1 PUSH1 0x1 PUSH1 0xA0 SHL SUB SWAP1 SWAP7 AND DUP7 MSTORE PUSH1 0xFF SWAP1 SWAP5 AND PUSH1 0x20 DUP7 ADD MSTORE SWAP3 DUP5 ADD SWAP2 SWAP1 SWAP2 MSTORE PUSH1 0x60 DUP4 ADD MSTORE PUSH1 0x80 DUP3 ADD MSTORE PUSH1 0xA0 ADD PUSH1 0x40 MLOAD DUP1 SWAP2 SUB SWAP1 LOG1 POP POP JUMP JUMPDEST PUSH1 0x0 SLOAD PUSH1 0x1 PUSH1 0x1 PUSH1 0xA0 SHL SUB AND CALLER EQ PUSH2 0x70D JUMPI PUSH1 0x40 MLOAD PUSH3 0x461BCD PUSH1 0xE5 SHL DUP2 MSTORE PUSH1 0x4 ADD PUSH2 0x50B SWAP1 PUSH2 0x1AE4 JUMP JUMPDEST PUSH2 0x715 PUSH2 0x14CA JUMP JUMPDEST JUMP JUMPDEST CALLER PUSH1 0x0 DUP2 DUP2 MSTORE PUSH1 0xF PUSH1 0x20 MSTORE PUSH1 0x40 SWAP1 KECCAK256 SLOAD PUSH1 0xFF AND PUSH2 0x768 JUMPI PUSH1 0x40 MLOAD PUSH3 0x461BCD PUSH1 0xE5 SHL DUP2 MSTORE PUSH1 0x20 PUSH1 0x4 DUP3 ADD MSTORE PUSH1 0xF PUSH1 0x24 DUP3 ADD MSTORE PUSH15 0x55736572206973206E6F742056697 PUSH1 0x8C SHL PUSH1 0x44 DUP3 ADD MSTORE PUSH1 0x64 ADD PUSH2 0x50B JUMP JUMPDEST PUSH1 0x1 PUSH1 0x1 PUSH1 0xA0 SHL SUB DUP2 AND PUSH1 0x0 SWAP1 DUP2 MSTORE PUSH1 0x10 PUSH1 0x20 MSTORE PUSH1 0x40 SWAP1 KECCAK256 SLOAD DUP3 DUP2 LT ISZERO PUSH2 0x7A1 JUMPI PUSH1 0x40 MLOAD PUSH3 0x461BCD PUSH1 0xE5 SHL DUP2 MSTORE PUSH1 0x4 ADD PUSH2 0x50B SWAP1 PUSH2 0x1B19 JUMP JUMPDEST PUSH1 0x0 PUSH2 0x7AE DUP4 PUSH1 0x2 PUSH2 0x126F JUMP JUMPDEST SWAP1 POP PUSH1 0x0 PUSH2 0x7BE DUP5 PUSH1 0x2 DUP8 PUSH2 0x984 JUMP JUMPDEST SWAP1 POP DUP3 DUP6 EQ ISZERO PUSH2 0x807 JUMPI PUSH1 0x1 PUSH1 0x1 PUSH1 0xA0 SHL SUB DUP5 AND PUSH1 0x0 SWAP1 DUP2 MSTORE PUSH1 0x10 PUSH1 0x20 SWAP1 DUP2 MSTORE PUSH1 0x40 DUP1 DUP4 KECCAK256 DUP4 DUP2 SSTORE PUSH1 0x1 DUP2 ADD DUP5 SWAP1 SSTORE PUSH1 0x2 ADD DUP4 SWAP1 SSTORE PUSH1 0xF SWAP1 SWAP2 MSTORE SWAP1 KECCAK256 DUP1 SLOAD PUSH1 0xFF NOT AND SWAP1 SSTORE PUSH2 0x835 JUMP JUMPDEST PUSH1 0x1 PUSH1 0x1 PUSH1 0xA0 SHL SUB DUP5 AND PUSH1 0x0 SWAP1 DUP2 MSTORE PUSH1 0x10 PUSH1 0x20 MSTORE PUSH1 0x40 DUP2 KECCAK256 DUP1 SLOAD DUP8 SWAP3 SWAP1 PUSH2 0x82F SWAP1 DUP5 SWAP1 PUSH2 0x1B50 JUMP JUMPDEST SWAP1 SWAP2 SSTORE POP POP JUMPDEST DUP2 ISZERO PUSH2 0x8C2 JUMPI PUSH1 0x1 SLOAD PUSH1 0x40 MLOAD PUSH4 0xA9059CBB PUSH1 0xE0 SHL DUP2 MSTORE PUSH1 0x1 PUSH1 0x1 PUSH1 0xA0 SHL SUB DUP7 DUP2 AND PUSH1 0x4 DUP4 ADD MSTORE PUSH1 0x24 DUP3 ADD DUP9 SWAP1 MSTORE SWAP1 SWAP2 AND SWAP1 PUSH4 0xA9059CBB SWAP1 PUSH1 0x44 ADD PUSH1 0x20 PUSH1 0x40 MLOAD DUP1 DUP4 SUB DUP2 PUSH1 0x0 DUP8 GAS CALL ISZERO DUP1 ISZERO PUSH2 0x88E JUMPI RETURNDATASIZE PUSH1 0x0 DUP1 RETURNDATACOPY RETURNDATASIZE PUSH1 0x0 REVERT JUMPDEST POP POP POP POP PUSH1 0x40 MLOAD RETURNDATASIZE PUSH1 0x1F NOT PUSH1 0x1F DUP3 ADD AND DUP3 ADD DUP1 PUSH1 0x40 MSTORE POP DUP2 ADD SWAP1 PUSH2 0x8B2 SWAP2 SWAP1 PUSH2 0x1A94 JUMP JUMPDEST POP PUSH2 0x8BD DUP2 DUP6 PUSH2 0x1567 JUMP JUMPDEST PUSH2 0x93D JUMP JUMPDEST POP PUSH1 0x1 SLOAD PUSH1 0x40 MLOAD PUSH4 0xA9059CBB PUSH1 0xE0 SHL DUP2 MSTORE PUSH1 0x1 PUSH1 0x1 PUSH1 0xA0 SHL SUB DUP6 DUP2 AND PUSH1 0x4 DUP4 ADD MSTORE PUSH1 0x24 DUP3 ADD DUP8 SWAP1 MSTORE PUSH1 0x0 SWAP3 AND SWAP1 PUSH4 0xA9059CBB SWAP1 PUSH1 0x44 ADD PUSH1 0x20 PUSH1 0x40 MLOAD DUP1 DUP4 SUB DUP2 PUSH1 0x0 DUP8 GAS CALL ISZERO DUP1 ISZERO PUSH2 0x917 JUMPI RETURNDATASIZE PUSH1 0x0 DUP1 RETURNDATACOPY RETURNDATASIZE PUSH1 0x0 REVERT JUMPDEST POP POP POP POP PUSH1 0x40 MLOAD RETURNDATASIZE PUSH1 0x1F NOT PUSH1 0x1F DUP3 ADD AND DUP3 ADD DUP1 PUSH1 0x40 MSTORE POP DUP2 ADD SWAP1 PUSH2 0x93B SWAP2 SWAP1 PUSH2 0x1A94 JUMP JUMPDEST POP JUMPDEST PUSH32 0xA3DFF5863D601223D9B31A0253B97A6C2085DACA56089B92836B4B6A1991E04B DUP5 PUSH1 0x2 DUP5 DUP9 DUP6 PUSH1 0x40 MLOAD PUSH2 0x975 SWAP6 SWAP5 SWAP4 SWAP3 SWAP2 SWAP1 PUSH2 0x1B67 JUMP JUMPDEST PUSH1 0x40 MLOAD DUP1 SWAP2 SUB SWAP1 LOG1 POP POP POP POP POP JUMP JUMPDEST PUSH1 0x0 PUSH1 0xFF DUP4 AND PUSH2 0x9C2 JUMPI PUSH1 0x1 PUSH1 0x1 PUSH1 0xA0 SHL SUB DUP5 AND PUSH1 0x0 SWAP1 DUP2 MSTORE PUSH1 0xC PUSH1 0x20 MSTORE PUSH1 0x40 SWAP1 KECCAK256 PUSH1 0x1 ADD SLOAD PUSH1 0x2 SLOAD PUSH2 0x9BA SWAP1 DUP5 SWAP1 DUP4 SWAP1 PUSH2 0x178E JUMP JUMPDEST SWAP2 POP POP PUSH2 0xA36 JUMP JUMPDEST DUP3 PUSH1 0xFF AND PUSH1 0x1 EQ ISZERO PUSH2 0x9FA JUMPI PUSH1 0x1 PUSH1 0x1 PUSH1 0xA0 SHL SUB DUP5 AND PUSH1 0x0 SWAP1 DUP2 MSTORE PUSH1 0xE PUSH1 0x20 MSTORE PUSH1 0x40 SWAP1 KECCAK256 PUSH1 0x1 ADD SLOAD PUSH1 0x3 SLOAD PUSH2 0x9BA SWAP1 DUP5 SWAP1 DUP4 SWAP1 PUSH2 0x178E JUMP JUMPDEST DUP3 PUSH1 0xFF AND PUSH1 0x2 EQ ISZERO PUSH2 0xA32 JUMPI PUSH1 0x1 PUSH1 0x1 PUSH1 0xA0 SHL SUB DUP5 AND PUSH1 0x0 SWAP1 DUP2 MSTORE PUSH1 0x10 PUSH1 0x20 MSTORE PUSH1 0x40 SWAP1 KECCAK256 PUSH1 0x1 ADD SLOAD PUSH1 0x4 SLOAD PUSH2 0x9BA SWAP1 DUP5 SWAP1 DUP4 SWAP1 PUSH2 0x178E JUMP JUMPDEST POP PUSH1 0x0 JUMPDEST SWAP4 SWAP3 POP POP POP JUMP JUMPDEST PUSH1 0x0 SLOAD PUSH1 0x1 PUSH1 0x1 PUSH1 0xA0 SHL SUB AND CALLER EQ PUSH2 0xA67 JUMPI PUSH1 0x40 MLOAD PUSH3 0x461BCD PUSH1 0xE5 SHL DUP2 MSTORE PUSH1 0x4 ADD PUSH2 0x50B SWAP1 PUSH2 0x1AE4 JUMP JUMPDEST PUSH2 0x715 PUSH1 0x0 PUSH2 0x17DE JUMP JUMPDEST PUSH1 0x0 SLOAD PUSH1 0x1 PUSH1 0x1 PUSH1 0xA0 SHL SUB AND CALLER EQ PUSH2 0xA9B JUMPI PUSH1 0x40 MLOAD PUSH3 0x461BCD PUSH1 0xE5 SHL DUP2 MSTORE PUSH1 0x4 ADD PUSH2 0x50B SWAP1 PUSH2 0x1AE4 JUMP JUMPDEST PUSH2 0x715 PUSH2 0x182E JUMP JUMPDEST CALLER PUSH1 0x0 DUP2 DUP2 MSTORE PUSH1 0xB PUSH1 0x20 MSTORE PUSH1 0x40 SWAP1 KECCAK256 SLOAD PUSH1 0xFF AND PUSH2 0xAFB JUMPI PUSH1 0x40 MLOAD PUSH3 0x461BCD PUSH1 0xE5 SHL DUP2 MSTORE PUSH1 0x20 PUSH1 0x4 DUP3 ADD MSTORE PUSH1 0x16 PUSH1 0x24 DUP3 ADD MSTORE PUSH22 0x55736572206973206E6F74206F6E204C6576656C203 PUSH1 0x54 SHL PUSH1 0x44 DUP3 ADD MSTORE PUSH1 0x64 ADD PUSH2 0x50B JUMP JUMPDEST PUSH1 0x1 PUSH1 0x1 PUSH1 0xA0 SHL SUB DUP2 AND PUSH1 0x0 SWAP1 DUP2 MSTORE PUSH1 0xC PUSH1 0x20 MSTORE PUSH1 0x40 SWAP1 KECCAK256 SLOAD DUP3 DUP2 LT ISZERO PUSH2 0xB34 JUMPI PUSH1 0x40 MLOAD PUSH3 0x461BCD PUSH1 0xE5 SHL DUP2 MSTORE PUSH1 0x4 ADD PUSH2 0x50B SWAP1 PUSH2 0x1B19 JUMP JUMPDEST PUSH1 0x0 PUSH2 0xB41 DUP4 PUSH1 0x0 PUSH2 0x126F JUMP JUMPDEST SWAP1 POP PUSH1 0x0 PUSH2 0xB51 DUP5 PUSH1 0x0 DUP8 PUSH2 0x984 JUMP JUMPDEST SWAP1 POP DUP3 DUP6 EQ ISZERO PUSH2 0xB9A JUMPI PUSH1 0x1 PUSH1 0x1 PUSH1 0xA0 SHL SUB DUP5 AND PUSH1 0x0 SWAP1 DUP2 MSTORE PUSH1 0xC PUSH1 0x20 SWAP1 DUP2 MSTORE PUSH1 0x40 DUP1 DUP4 KECCAK256 DUP4 DUP2 SSTORE PUSH1 0x1 DUP2 ADD DUP5 SWAP1 SSTORE PUSH1 0x2 ADD DUP4 SWAP1 SSTORE PUSH1 0xB SWAP1 SWAP2 MSTORE SWAP1 KECCAK256 DUP1 SLOAD PUSH1 0xFF NOT AND SWAP1 SSTORE PUSH2 0xBC8 JUMP JUMPDEST PUSH1 0x1 PUSH1 0x1 PUSH1 0xA0 SHL SUB DUP5 AND PUSH1 0x0 SWAP1 DUP2 MSTORE PUSH1 0xC PUSH1 0x20 MSTORE PUSH1 0x40 DUP2 KECCAK256 DUP1 SLOAD DUP8 SWAP3 SWAP1 PUSH2 0xBC2 SWAP1 DUP5 SWAP1 PUSH2 0x1B50 JUMP JUMPDEST SWAP1 SWAP2 SSTORE POP POP JUMPDEST DUP2 ISZERO PUSH2 0xC55 JUMPI PUSH1 0x1 SLOAD PUSH1 0x40 MLOAD PUSH4 0xA9059CBB PUSH1 0xE0 SHL DUP2 MSTORE PUSH1 0x1 PUSH1 0x1 PUSH1 0xA0 SHL SUB DUP7 DUP2 AND PUSH1 0x4 DUP4 ADD MSTORE PUSH1 0x24 DUP3 ADD DUP9 SWAP1 MSTORE SWAP1 SWAP2 AND SWAP1 PUSH4 0xA9059CBB SWAP1 PUSH1 0x44 ADD PUSH1 0x20 PUSH1 0x40 MLOAD DUP1 DUP4 SUB DUP2 PUSH1 0x0 DUP8 GAS CALL ISZERO DUP1 ISZERO PUSH2 0xC21 JUMPI RETURNDATASIZE PUSH1 0x0 DUP1 RETURNDATACOPY RETURNDATASIZE PUSH1 0x0 REVERT JUMPDEST POP POP POP POP PUSH1 0x40 MLOAD RETURNDATASIZE PUSH1 0x1F NOT PUSH1 0x1F DUP3 ADD AND DUP3 ADD DUP1 PUSH1 0x40 MSTORE POP DUP2 ADD SWAP1 PUSH2 0xC45 SWAP2 SWAP1 PUSH2 0x1A94 JUMP JUMPDEST POP PUSH2 0xC50 DUP2 DUP6 PUSH2 0x1567 JUMP JUMPDEST PUSH2 0xCD0 JUMP JUMPDEST POP PUSH1 0x1 SLOAD PUSH1 0x40 MLOAD PUSH4 0xA9059CBB PUSH1 0xE0 SHL DUP2 MSTORE PUSH1 0x1 PUSH1 0x1 PUSH1 0xA0 SHL SUB DUP6 DUP2 AND PUSH1 0x4 DUP4 ADD MSTORE PUSH1 0x24 DUP3 ADD DUP8 SWAP1 MSTORE PUSH1 0x0 SWAP3 AND SWAP1 PUSH4 0xA9059CBB SWAP1 PUSH1 0x44 ADD PUSH1 0x20 PUSH1 0x40 MLOAD DUP1 DUP4 SUB DUP2 PUSH1 0x0 DUP8 GAS CALL ISZERO DUP1 ISZERO PUSH2 0xCAA JUMPI RETURNDATASIZE PUSH1 0x0 DUP1 RETURNDATACOPY RETURNDATASIZE PUSH1 0x0 REVERT JUMPDEST POP POP POP POP PUSH1 0x40 MLOAD RETURNDATASIZE PUSH1 0x1F NOT PUSH1 0x1F DUP3 ADD AND DUP3 ADD DUP1 PUSH1 0x40 MSTORE POP DUP2 ADD SWAP1 PUSH2 0xCCE SWAP2 SWAP1 PUSH2 0x1A94 JUMP JUMPDEST POP JUMPDEST PUSH32 0xA3DFF5863D601223D9B31A0253B97A6C2085DACA56089B92836B4B6A1991E04B DUP5 PUSH1 0x0 DUP5 DUP9 DUP6 PUSH1 0x40 MLOAD PUSH2 0x975 SWAP6 SWAP5 SWAP4 SWAP3 SWAP2 SWAP1 PUSH2 0x1B67 JUMP JUMPDEST CALLER PUSH1 0x0 DUP2 DUP2 MSTORE PUSH1 0xD PUSH1 0x20 MSTORE PUSH1 0x40 SWAP1 KECCAK256 SLOAD PUSH1 0xFF AND PUSH2 0xD60 JUMPI PUSH1 0x40 MLOAD PUSH3 0x461BCD PUSH1 0xE5 SHL DUP2 MSTORE PUSH1 0x20 PUSH1 0x4 DUP3 ADD MSTORE PUSH1 0x16 PUSH1 0x24 DUP3 ADD MSTORE PUSH22 0x55736572206973206E6F74206F6E204C6576656C2031 PUSH1 0x50 SHL PUSH1 0x44 DUP3 ADD MSTORE PUSH1 0x64 ADD PUSH2 0x50B JUMP JUMPDEST PUSH1 0x1 PUSH1 0x1 PUSH1 0xA0 SHL SUB DUP2 AND PUSH1 0x0 SWAP1 DUP2 MSTORE PUSH1 0xE PUSH1 0x20 MSTORE PUSH1 0x40 SWAP1 KECCAK256 SLOAD DUP3 DUP2 LT ISZERO PUSH2 0xD99 JUMPI PUSH1 0x40 MLOAD PUSH3 0x461BCD PUSH1 0xE5 SHL DUP2 MSTORE PUSH1 0x4 ADD PUSH2 0x50B SWAP1 PUSH2 0x1B19 JUMP JUMPDEST PUSH1 0x0 PUSH2 0xDA6 DUP4 PUSH1 0x1 PUSH2 0x126F JUMP JUMPDEST SWAP1 POP PUSH1 0x0 PUSH2 0xDB6 DUP5 PUSH1 0x1 DUP8 PUSH2 0x984 JUMP JUMPDEST SWAP1 POP DUP3 DUP6 EQ ISZERO PUSH2 0xDFF JUMPI PUSH1 0x1 PUSH1 0x1 PUSH1 0xA0 SHL SUB DUP5 AND PUSH1 0x0 SWAP1 DUP2 MSTORE PUSH1 0xE PUSH1 0x20 SWAP1 DUP2 MSTORE PUSH1 0x40 DUP1 DUP4 KECCAK256 DUP4 DUP2 SSTORE PUSH1 0x1 DUP2 ADD DUP5 SWAP1 SSTORE PUSH1 0x2 ADD DUP4 SWAP1 SSTORE PUSH1 0xD SWAP1 SWAP2 MSTORE SWAP1 KECCAK256 DUP1 SLOAD PUSH1 0xFF NOT AND SWAP1 SSTORE PUSH2 0xE2D JUMP JUMPDEST PUSH1 0x1 PUSH1 0x1 PUSH1 0xA0 SHL SUB DUP5 AND PUSH1 0x0 SWAP1 DUP2 MSTORE PUSH1 0xE PUSH1 0x20 MSTORE PUSH1 0x40 DUP2 KECCAK256 DUP1 SLOAD DUP8 SWAP3 SWAP1 PUSH2 0xE27 SWAP1 DUP5 SWAP1 PUSH2 0x1B50 JUMP JUMPDEST SWAP1 SWAP2 SSTORE POP POP JUMPDEST DUP2 ISZERO PUSH2 0xEBA JUMPI PUSH1 0x1 SLOAD PUSH1 0x40 MLOAD PUSH4 0xA9059CBB PUSH1 0xE0 SHL DUP2 MSTORE PUSH1 0x1 PUSH1 0x1 PUSH1 0xA0 SHL SUB DUP7 DUP2 AND PUSH1 0x4 DUP4 ADD MSTORE PUSH1 0x24 DUP3 ADD DUP9 SWAP1 MSTORE SWAP1 SWAP2 AND SWAP1 PUSH4 0xA9059CBB SWAP1 PUSH1 0x44 ADD PUSH1 0x20 PUSH1 0x40 MLOAD DUP1 DUP4 SUB DUP2 PUSH1 0x0 DUP8 GAS CALL ISZERO DUP1 ISZERO PUSH2 0xE86 JUMPI RETURNDATASIZE PUSH1 0x0 DUP1 RETURNDATACOPY RETURNDATASIZE PUSH1 0x0 REVERT JUMPDEST POP POP POP POP PUSH1 0x40 MLOAD RETURNDATASIZE PUSH1 0x1F NOT PUSH1 0x1F DUP3 ADD AND DUP3 ADD DUP1 PUSH1 0x40 MSTORE POP DUP2 ADD SWAP1 PUSH2 0xEAA SWAP2 SWAP1 PUSH2 0x1A94 JUMP JUMPDEST POP PUSH2 0xEB5 DUP2 DUP6 PUSH2 0x1567 JUMP JUMPDEST PUSH2 0xF35 JUMP JUMPDEST POP PUSH1 0x1 SLOAD PUSH1 0x40 MLOAD PUSH4 0xA9059CBB PUSH1 0xE0 SHL DUP2 MSTORE PUSH1 0x1 PUSH1 0x1 PUSH1 0xA0 SHL SUB DUP6 DUP2 AND PUSH1 0x4 DUP4 ADD MSTORE PUSH1 0x24 DUP3 ADD DUP8 SWAP1 MSTORE PUSH1 0x0 SWAP3 AND SWAP1 PUSH4 0xA9059CBB SWAP1 PUSH1 0x44 ADD PUSH1 0x20 PUSH1 0x40 MLOAD DUP1 DUP4 SUB DUP2 PUSH1 0x0 DUP8 GAS CALL ISZERO DUP1 ISZERO PUSH2 0xF0F JUMPI RETURNDATASIZE PUSH1 0x0 DUP1 RETURNDATACOPY RETURNDATASIZE PUSH1 0x0 REVERT JUMPDEST POP POP POP POP PUSH1 0x40 MLOAD RETURNDATASIZE PUSH1 0x1F NOT PUSH1 0x1F DUP3 ADD AND DUP3 ADD DUP1 PUSH1 0x40 MSTORE POP DUP2 ADD SWAP1 PUSH2 0xF33 SWAP2 SWAP1 PUSH2 0x1A94 JUMP JUMPDEST POP JUMPDEST PUSH32 0xA3DFF5863D601223D9B31A0253B97A6C2085DACA56089B92836B4B6A1991E04B DUP5 PUSH1 0x1 DUP5 DUP9 DUP6 PUSH1 0x40 MLOAD PUSH2 0x975 SWAP6 SWAP5 SWAP4 SWAP3 SWAP2 SWAP1 PUSH2 0x1B67 JUMP JUMPDEST PUSH1 0x0 SLOAD PUSH1 0x1 PUSH1 0xA0 SHL SWAP1 DIV PUSH1 0xFF AND ISZERO PUSH2 0xF97 JUMPI PUSH1 0x40 MLOAD PUSH3 0x461BCD PUSH1 0xE5 SHL DUP2 MSTORE PUSH1 0x4 ADD PUSH2 0x50B SWAP1 PUSH2 0x19D6 JUMP JUMPDEST PUSH1 0xA SLOAD DUP2 GT ISZERO DUP1 ISZERO PUSH2 0xFAB JUMPI POP PUSH1 0x9 SLOAD DUP2 LT ISZERO JUMPDEST PUSH2 0xFC7 JUMPI PUSH1 0x40 MLOAD PUSH3 0x461BCD PUSH1 0xE5 SHL DUP2 MSTORE PUSH1 0x4 ADD PUSH2 0x50B SWAP1 PUSH2 0x1A00 JUMP JUMPDEST CALLER PUSH1 0x0 DUP2 DUP2 MSTORE PUSH1 0xF PUSH1 0x20 MSTORE PUSH1 0x40 SWAP1 KECCAK256 SLOAD PUSH1 0xFF AND ISZERO PUSH2 0x1027 JUMPI PUSH1 0x40 MLOAD PUSH3 0x461BCD PUSH1 0xE5 SHL DUP2 MSTORE PUSH1 0x20 PUSH1 0x4 DUP3 ADD MSTORE PUSH1 0x1F PUSH1 0x24 DUP3 ADD MSTORE PUSH32 0x596F7527726520616C726561647920696E2074686520566970205374616B6500 PUSH1 0x44 DUP3 ADD MSTORE PUSH1 0x64 ADD PUSH2 0x50B JUMP JUMPDEST PUSH1 0x1 SLOAD PUSH1 0x40 MLOAD PUSH4 0x23B872DD PUSH1 0xE0 SHL DUP2 MSTORE PUSH1 0x1 PUSH1 0x1 PUSH1 0xA0 SHL SUB DUP4 DUP2 AND PUSH1 0x4 DUP4 ADD MSTORE ADDRESS PUSH1 0x24 DUP4 ADD MSTORE PUSH1 0x44 DUP3 ADD DUP6 SWAP1 MSTORE SWAP1 SWAP2 AND SWAP1 PUSH4 0x23B872DD SWAP1 PUSH1 0x64 ADD PUSH1 0x20 PUSH1 0x40 MLOAD DUP1 DUP4 SUB DUP2 PUSH1 0x0 DUP8 GAS CALL ISZERO DUP1 ISZERO PUSH2 0x1080 JUMPI RETURNDATASIZE PUSH1 0x0 DUP1 RETURNDATACOPY RETURNDATASIZE PUSH1 0x0 REVERT JUMPDEST POP POP POP POP PUSH1 0x40 MLOAD RETURNDATASIZE PUSH1 0x1F NOT PUSH1 0x1F DUP3 ADD AND DUP3 ADD DUP1 PUSH1 0x40 MSTORE POP DUP2 ADD SWAP1 PUSH2 0x10A4 SWAP2 SWAP1 PUSH2 0x1A94 JUMP JUMPDEST POP PUSH1 0x1 PUSH1 0x1 PUSH1 0xA0 SHL SUB DUP2 AND PUSH1 0x0 SWAP1 DUP2 MSTORE PUSH1 0xF PUSH1 0x20 SWAP1 DUP2 MSTORE PUSH1 0x40 SWAP2 DUP3 SWAP1 KECCAK256 DUP1 SLOAD PUSH1 0xFF NOT AND PUSH1 0x1 OR SWAP1 SSTORE DUP2 MLOAD PUSH1 0x60 DUP2 ADD DUP4 MSTORE DUP5 DUP2 MSTORE TIMESTAMP SWAP2 DUP2 ADD DUP3 SWAP1 MSTORE SWAP2 DUP3 ADD SWAP1 PUSH2 0x10EE SWAP1 PUSH2 0x4B0 PUSH2 0x1ACC JUMP JUMPDEST SWAP1 MSTORE PUSH1 0x1 PUSH1 0x1 PUSH1 0xA0 SHL SUB DUP3 AND PUSH1 0x0 SWAP1 DUP2 MSTORE PUSH1 0x10 PUSH1 0x20 SWAP1 DUP2 MSTORE PUSH1 0x40 SWAP2 DUP3 SWAP1 KECCAK256 DUP4 MLOAD DUP2 SSTORE SWAP1 DUP4 ADD MLOAD PUSH1 0x1 DUP3 ADD SSTORE SWAP2 ADD MLOAD PUSH1 0x2 SWAP2 DUP3 ADD SSTORE PUSH32 0x17849BB8C713DE96B48F218D3BACC9AF082261C3CCC7C6DCCEBE70E667B22F23 SWAP1 DUP3 SWAP1 DUP5 TIMESTAMP PUSH2 0x6A8 DUP2 PUSH3 0x76A700 PUSH2 0x1ACC JUMP JUMPDEST PUSH1 0x0 SLOAD PUSH1 0x1 PUSH1 0x1 PUSH1 0xA0 SHL SUB AND CALLER EQ PUSH2 0x117F JUMPI PUSH1 0x40 MLOAD PUSH3 0x461BCD PUSH1 0xE5 SHL DUP2 MSTORE PUSH1 0x4 ADD PUSH2 0x50B SWAP1 PUSH2 0x1AE4 JUMP JUMPDEST PUSH1 0x2 SWAP3 SWAP1 SWAP3 SSTORE PUSH1 0x3 SSTORE PUSH1 0x4 SSTORE JUMP JUMPDEST PUSH1 0x0 SLOAD PUSH1 0x1 PUSH1 0x1 PUSH1 0xA0 SHL SUB AND CALLER EQ PUSH2 0x11B7 JUMPI PUSH1 0x40 MLOAD PUSH3 0x461BCD PUSH1 0xE5 SHL DUP2 MSTORE PUSH1 0x4 ADD PUSH2 0x50B SWAP1 PUSH2 0x1AE4 JUMP JUMPDEST PUSH1 0x1 PUSH1 0x1 PUSH1 0xA0 SHL SUB DUP2 AND PUSH2 0x121C JUMPI PUSH1 0x40 MLOAD PUSH3 0x461BCD PUSH1 0xE5 SHL DUP2 MSTORE PUSH1 0x20 PUSH1 0x4 DUP3 ADD MSTORE PUSH1 0x26 PUSH1 0x24 DUP3 ADD MSTORE PUSH32 0x4F776E61626C653A206E6577206F776E657220697320746865207A65726F2061 PUSH1 0x44 DUP3 ADD MSTORE PUSH6 0x646472657373 PUSH1 0xD0 SHL PUSH1 0x64 DUP3 ADD MSTORE PUSH1 0x84 ADD PUSH2 0x50B JUMP JUMPDEST PUSH2 0x1225 DUP2 PUSH2 0x17DE JUMP JUMPDEST POP JUMP JUMPDEST PUSH1 0x0 SLOAD PUSH1 0x1 PUSH1 0x1 PUSH1 0xA0 SHL SUB AND CALLER EQ PUSH2 0x1252 JUMPI PUSH1 0x40 MLOAD PUSH3 0x461BCD PUSH1 0xE5 SHL DUP2 MSTORE PUSH1 0x4 ADD PUSH2 0x50B SWAP1 PUSH2 0x1AE4 JUMP JUMPDEST PUSH1 0x5 SWAP6 SWAP1 SWAP6 SSTORE PUSH1 0x6 SWAP4 SWAP1 SWAP4 SSTORE PUSH1 0x7 SWAP2 SWAP1 SWAP2 SSTORE PUSH1 0x8 SSTORE PUSH1 0x9 SSTORE PUSH1 0xA SSTORE JUMP JUMPDEST PUSH1 0x0 DUP1 PUSH1 0xFF DUP4 AND PUSH2 0x129C JUMPI POP PUSH1 0x1 PUSH1 0x1 PUSH1 0xA0 SHL SUB DUP4 AND PUSH1 0x0 SWAP1 DUP2 MSTORE PUSH1 0xC PUSH1 0x20 MSTORE PUSH1 0x40 SWAP1 KECCAK256 PUSH1 0x2 ADD SLOAD PUSH2 0x1302 JUMP JUMPDEST DUP3 PUSH1 0xFF AND PUSH1 0x1 EQ ISZERO PUSH2 0x12CA JUMPI POP PUSH1 0x1 PUSH1 0x1 PUSH1 0xA0 SHL SUB DUP4 AND PUSH1 0x0 SWAP1 DUP2 MSTORE PUSH1 0xE PUSH1 0x20 MSTORE PUSH1 0x40 SWAP1 KECCAK256 PUSH1 0x2 ADD SLOAD PUSH2 0x1302 JUMP JUMPDEST DUP3 PUSH1 0xFF AND PUSH1 0x2 EQ ISZERO PUSH2 0x12F8 JUMPI POP PUSH1 0x1 PUSH1 0x1 PUSH1 0xA0 SHL SUB DUP4 AND PUSH1 0x0 SWAP1 DUP2 MSTORE PUSH1 0x10 PUSH1 0x20 MSTORE PUSH1 0x40 SWAP1 KECCAK256 PUSH1 0x2 ADD SLOAD PUSH2 0x1302 JUMP JUMPDEST PUSH1 0x0 SWAP2 POP POP PUSH2 0x1308 JUMP JUMPDEST TIMESTAMP LT ISZERO SWAP1 POP JUMPDEST SWAP3 SWAP2 POP POP JUMP JUMPDEST PUSH1 0x0 SLOAD PUSH1 0x1 PUSH1 0xA0 SHL SWAP1 DIV PUSH1 0xFF AND ISZERO PUSH2 0x1338 JUMPI PUSH1 0x40 MLOAD PUSH3 0x461BCD PUSH1 0xE5 SHL DUP2 MSTORE PUSH1 0x4 ADD PUSH2 0x50B SWAP1 PUSH2 0x19D6 JUMP JUMPDEST PUSH1 0x6 SLOAD DUP2 GT ISZERO DUP1 ISZERO PUSH2 0x134C JUMPI POP PUSH1 0x5 SLOAD DUP2 LT ISZERO JUMPDEST PUSH2 0x1368 JUMPI PUSH1 0x40 MLOAD PUSH3 0x461BCD PUSH1 0xE5 SHL DUP2 MSTORE PUSH1 0x4 ADD PUSH2 0x50B SWAP1 PUSH2 0x1A00 JUMP JUMPDEST CALLER PUSH1 0x0 DUP2 DUP2 MSTORE PUSH1 0xB PUSH1 0x20 MSTORE PUSH1 0x40 SWAP1 KECCAK256 SLOAD PUSH1 0xFF AND ISZERO PUSH2 0x1398 JUMPI PUSH1 0x40 MLOAD PUSH3 0x461BCD PUSH1 0xE5 SHL DUP2 MSTORE PUSH1 0x4 ADD PUSH2 0x50B SWAP1 PUSH2 0x1A52 JUMP JUMPDEST PUSH1 0x1 SLOAD PUSH1 0x40 MLOAD PUSH4 0x23B872DD PUSH1 0xE0 SHL DUP2 MSTORE PUSH1 0x1 PUSH1 0x1 PUSH1 0xA0 SHL SUB DUP4 DUP2 AND PUSH1 0x4 DUP4 ADD MSTORE ADDRESS PUSH1 0x24 DUP4 ADD MSTORE PUSH1 0x44 DUP3 ADD DUP6 SWAP1 MSTORE SWAP1 SWAP2 AND SWAP1 PUSH4 0x23B872DD SWAP1 PUSH1 0x64 ADD PUSH1 0x20 PUSH1 0x40 MLOAD DUP1 DUP4 SUB DUP2 PUSH1 0x0 DUP8 GAS CALL ISZERO DUP1 ISZERO PUSH2 0x13F1 JUMPI RETURNDATASIZE PUSH1 0x0 DUP1 RETURNDATACOPY RETURNDATASIZE PUSH1 0x0 REVERT JUMPDEST POP POP POP POP PUSH1 0x40 MLOAD RETURNDATASIZE PUSH1 0x1F NOT PUSH1 0x1F DUP3 ADD AND DUP3 ADD DUP1 PUSH1 0x40 MSTORE POP DUP2 ADD SWAP1 PUSH2 0x1415 SWAP2 SWAP1 PUSH2 0x1A94 JUMP JUMPDEST POP PUSH1 0x1 PUSH1 0x1 PUSH1 0xA0 SHL SUB DUP2 AND PUSH1 0x0 SWAP1 DUP2 MSTORE PUSH1 0xB PUSH1 0x20 SWAP1 DUP2 MSTORE PUSH1 0x40 SWAP2 DUP3 SWAP1 KECCAK256 DUP1 SLOAD PUSH1 0xFF NOT AND PUSH1 0x1 OR SWAP1 SSTORE DUP2 MLOAD PUSH1 0x60 DUP2 ADD DUP4 MSTORE DUP5 DUP2 MSTORE TIMESTAMP SWAP2 DUP2 ADD DUP3 SWAP1 MSTORE SWAP2 DUP3 ADD SWAP1 PUSH2 0x145F SWAP1 PUSH2 0x258 PUSH2 0x1ACC JUMP JUMPDEST SWAP1 MSTORE PUSH1 0x1 PUSH1 0x1 PUSH1 0xA0 SHL SUB DUP3 AND PUSH1 0x0 SWAP1 DUP2 MSTORE PUSH1 0xC PUSH1 0x20 SWAP1 DUP2 MSTORE PUSH1 0x40 DUP1 DUP4 KECCAK256 DUP5 MLOAD DUP2 SSTORE SWAP2 DUP5 ADD MLOAD PUSH1 0x1 DUP4 ADD SSTORE SWAP3 SWAP1 SWAP3 ADD MLOAD PUSH1 0x2 SWAP1 SWAP3 ADD SWAP2 SWAP1 SWAP2 SSTORE PUSH32 0x17849BB8C713DE96B48F218D3BACC9AF082261C3CCC7C6DCCEBE70E667B22F23 SWAP1 DUP3 SWAP1 DUP5 TIMESTAMP PUSH2 0x6A8 DUP2 PUSH3 0x93A80 PUSH2 0x1ACC JUMP JUMPDEST PUSH1 0x0 SLOAD PUSH1 0x1 PUSH1 0xA0 SHL SWAP1 DIV PUSH1 0xFF AND PUSH2 0x151A JUMPI PUSH1 0x40 MLOAD PUSH3 0x461BCD PUSH1 0xE5 SHL DUP2 MSTORE PUSH1 0x20 PUSH1 0x4 DUP3 ADD MSTORE PUSH1 0x14 PUSH1 0x24 DUP3 ADD MSTORE PUSH20 0x14185D5CD8589B194E881B9BDD081C185D5CD959 PUSH1 0x62 SHL PUSH1 0x44 DUP3 ADD MSTORE PUSH1 0x64 ADD PUSH2 0x50B JUMP JUMPDEST PUSH1 0x0 DUP1 SLOAD PUSH1 0xFF PUSH1 0xA0 SHL NOT AND SWAP1 SSTORE PUSH32 0x5DB9EE0A495BF2E6FF9C91A7834C1BA4FDD244A5E8AA4E537BD38AEAE4B073AA CALLER JUMPDEST PUSH1 0x40 MLOAD PUSH1 0x1 PUSH1 0x1 PUSH1 0xA0 SHL SUB SWAP1 SWAP2 AND DUP2 MSTORE PUSH1 0x20 ADD PUSH1 0x40 MLOAD DUP1 SWAP2 SUB SWAP1 LOG1 JUMP JUMPDEST PUSH1 0x40 DUP1 MLOAD PUSH1 0x2 DUP1 DUP3 MSTORE PUSH1 0x60 DUP3 ADD DUP4 MSTORE PUSH1 0x0 SWAP3 PUSH1 0x20 DUP4 ADD SWAP1 DUP1 CALLDATASIZE DUP4 CALLDATACOPY POP POP PUSH1 0x1 SLOAD DUP3 MLOAD SWAP3 SWAP4 POP PUSH1 0x1 PUSH1 0x1 PUSH1 0xA0 SHL SUB AND SWAP2 DUP4 SWAP2 POP PUSH1 0x0 SWAP1 PUSH2 0x15A8 JUMPI PUSH2 0x15A8 PUSH2 0x1B98 JUMP JUMPDEST PUSH1 0x20 MUL PUSH1 0x20 ADD ADD SWAP1 PUSH1 0x1 PUSH1 0x1 PUSH1 0xA0 SHL SUB AND SWAP1 DUP2 PUSH1 0x1 PUSH1 0x1 PUSH1 0xA0 SHL SUB AND DUP2 MSTORE POP POP PUSH32 0x0 PUSH1 0x1 PUSH1 0x1 PUSH1 0xA0 SHL SUB AND PUSH4 0xAD5C4648 PUSH1 0x40 MLOAD DUP2 PUSH4 0xFFFFFFFF AND PUSH1 0xE0 SHL DUP2 MSTORE PUSH1 0x4 ADD PUSH1 0x20 PUSH1 0x40 MLOAD DUP1 DUP4 SUB DUP2 DUP7 GAS STATICCALL ISZERO DUP1 ISZERO PUSH2 0x1626 JUMPI RETURNDATASIZE PUSH1 0x0 DUP1 RETURNDATACOPY RETURNDATASIZE PUSH1 0x0 REVERT JUMPDEST POP POP POP POP PUSH1 0x40 MLOAD RETURNDATASIZE PUSH1 0x1F NOT PUSH1 0x1F DUP3 ADD AND DUP3 ADD DUP1 PUSH1 0x40 MSTORE POP DUP2 ADD SWAP1 PUSH2 0x164A SWAP2 SWAP1 PUSH2 0x1BAE JUMP JUMPDEST DUP2 PUSH1 0x1 DUP2 MLOAD DUP2 LT PUSH2 0x165D JUMPI PUSH2 0x165D PUSH2 0x1B98 JUMP JUMPDEST PUSH1 0x1 PUSH1 0x1 PUSH1 0xA0 SHL SUB SWAP3 DUP4 AND PUSH1 0x20 SWAP2 DUP3 MUL SWAP3 SWAP1 SWAP3 ADD ADD MSTORE PUSH1 0x1 SLOAD PUSH1 0x40 MLOAD PUSH4 0x95EA7B3 PUSH1 0xE0 SHL DUP2 MSTORE PUSH32 0x0 DUP4 AND PUSH1 0x4 DUP3 ADD MSTORE PUSH1 0x24 DUP2 ADD DUP7 SWAP1 MSTORE SWAP2 AND SWAP1 PUSH4 0x95EA7B3 SWAP1 PUSH1 0x44 ADD PUSH1 0x20 PUSH1 0x40 MLOAD DUP1 DUP4 SUB DUP2 PUSH1 0x0 DUP8 GAS CALL ISZERO DUP1 ISZERO PUSH2 0x16DD JUMPI RETURNDATASIZE PUSH1 0x0 DUP1 RETURNDATACOPY RETURNDATASIZE PUSH1 0x0 REVERT JUMPDEST POP POP POP POP PUSH1 0x40 MLOAD RETURNDATASIZE PUSH1 0x1F NOT PUSH1 0x1F DUP3 ADD AND DUP3 ADD DUP1 PUSH1 0x40 MSTORE POP DUP2 ADD SWAP1 PUSH2 0x1701 SWAP2 SWAP1 PUSH2 0x1A94 JUMP JUMPDEST POP PUSH1 0x40 MLOAD PUSH4 0x791AC947 PUSH1 0xE0 SHL DUP2 MSTORE PUSH1 0x1 PUSH1 0x1 PUSH1 0xA0 SHL SUB PUSH32 0x0 AND SWAP1 PUSH4 0x791AC947 SWAP1 PUSH2 0x1757 SWAP1 DUP7 SWAP1 PUSH1 0x0 SWAP1 DUP7 SWAP1 DUP9 SWAP1 TIMESTAMP SWAP1 PUSH1 0x4 ADD PUSH2 0x1BCB JUMP JUMPDEST PUSH1 0x0 PUSH1 0x40 MLOAD DUP1 DUP4 SUB DUP2 PUSH1 0x0 DUP8 DUP1 EXTCODESIZE ISZERO DUP1 ISZERO PUSH2 0x1771 JUMPI PUSH1 0x0 DUP1 REVERT JUMPDEST POP GAS CALL ISZERO DUP1 ISZERO PUSH2 0x1785 JUMPI RETURNDATASIZE PUSH1 0x0 DUP1 RETURNDATACOPY RETURNDATASIZE PUSH1 0x0 REVERT JUMPDEST POP POP POP POP POP POP POP JUMP JUMPDEST PUSH1 0x0 DUP1 PUSH2 0x179B DUP5 TIMESTAMP PUSH2 0x1B50 JUMP JUMPDEST SWAP1 POP PUSH1 0x0 PUSH4 0x1E13380 PUSH2 0x2710 PUSH2 0x17B1 DUP7 DUP10 PUSH2 0x1C3C JUMP JUMPDEST PUSH2 0x17BB SWAP2 SWAP1 PUSH2 0x1C5B JUMP JUMPDEST PUSH2 0x17C5 SWAP2 SWAP1 PUSH2 0x1C5B JUMP JUMPDEST SWAP1 POP PUSH1 0x0 PUSH2 0x17D3 DUP3 DUP5 PUSH2 0x1C3C JUMP JUMPDEST SWAP8 SWAP7 POP POP POP POP POP POP POP JUMP JUMPDEST PUSH1 0x0 DUP1 SLOAD PUSH1 0x1 PUSH1 0x1 PUSH1 0xA0 SHL SUB DUP4 DUP2 AND PUSH1 0x1 PUSH1 0x1 PUSH1 0xA0 SHL SUB NOT DUP4 AND DUP2 OR DUP5 SSTORE PUSH1 0x40 MLOAD SWAP2 SWAP1 SWAP3 AND SWAP3 DUP4 SWAP2 PUSH32 0x8BE0079C531659141344CD1FD0A4F28419497F9722A3DAAFE3B4186F6B6457E0 SWAP2 SWAP1 LOG3 POP POP JUMP JUMPDEST PUSH1 0x0 SLOAD PUSH1 0x1 PUSH1 0xA0 SHL SWAP1 DIV PUSH1 0xFF AND ISZERO PUSH2 0x1858 JUMPI PUSH1 0x40 MLOAD PUSH3 0x461BCD PUSH1 0xE5 SHL DUP2 MSTORE PUSH1 0x4 ADD PUSH2 0x50B SWAP1 PUSH2 0x19D6 JUMP JUMPDEST PUSH1 0x0 DUP1 SLOAD PUSH1 0xFF PUSH1 0xA0 SHL NOT AND PUSH1 0x1 PUSH1 0xA0 SHL OR SWAP1 SSTORE PUSH32 0x62E78CEA01BEE320CD4E420270B5EA74000D11B0C9F74754EBDBFC544B05A258 PUSH2 0x154A CALLER SWAP1 JUMP JUMPDEST PUSH1 0x0 PUSH1 0x20 DUP3 DUP5 SUB SLT ISZERO PUSH2 0x18A5 JUMPI PUSH1 0x0 DUP1 REVERT JUMPDEST POP CALLDATALOAD SWAP2 SWAP1 POP JUMP JUMPDEST PUSH1 0x1 PUSH1 0x1 PUSH1 0xA0 SHL SUB DUP2 AND DUP2 EQ PUSH2 0x1225 JUMPI PUSH1 0x0 DUP1 REVERT JUMPDEST PUSH1 0x0 PUSH1 0x20 DUP3 DUP5 SUB SLT ISZERO PUSH2 0x18D3 JUMPI PUSH1 0x0 DUP1 REVERT JUMPDEST DUP2 CALLDATALOAD PUSH2 0xA36 DUP2 PUSH2 0x18AC JUMP JUMPDEST DUP1 CALLDATALOAD PUSH1 0xFF DUP2 AND DUP2 EQ PUSH2 0x18EF JUMPI PUSH1 0x0 DUP1 REVERT JUMPDEST SWAP2 SWAP1 POP JUMP JUMPDEST PUSH1 0x0 DUP1 PUSH1 0x0 PUSH1 0x60 DUP5 DUP7 SUB SLT ISZERO PUSH2 0x1909 JUMPI PUSH1 0x0 DUP1 REVERT JUMPDEST DUP4 CALLDATALOAD PUSH2 0x1914 DUP2 PUSH2 0x18AC JUMP JUMPDEST SWAP3 POP PUSH2 0x1922 PUSH1 0x20 DUP6 ADD PUSH2 0x18DE JUMP JUMPDEST SWAP2 POP PUSH1 0x40 DUP5 ADD CALLDATALOAD SWAP1 POP SWAP3 POP SWAP3 POP SWAP3 JUMP JUMPDEST PUSH1 0x0 DUP1 PUSH1 0x0 PUSH1 0x60 DUP5 DUP7 SUB SLT ISZERO PUSH2 0x1947 JUMPI PUSH1 0x0 DUP1 REVERT JUMPDEST POP POP DUP2 CALLDATALOAD SWAP4 PUSH1 0x20 DUP4 ADD CALLDATALOAD SWAP4 POP PUSH1 0x40 SWAP1 SWAP3 ADD CALLDATALOAD SWAP2 SWAP1 POP JUMP JUMPDEST PUSH1 0x0 DUP1 PUSH1 0x0 DUP1 PUSH1 0x0 DUP1 PUSH1 0xC0 DUP8 DUP10 SUB SLT ISZERO PUSH2 0x1977 JUMPI PUSH1 0x0 DUP1 REVERT JUMPDEST POP POP DUP5 CALLDATALOAD SWAP7 PUSH1 0x20 DUP7 ADD CALLDATALOAD SWAP7 POP PUSH1 0x40 DUP7 ADD CALLDATALOAD SWAP6 PUSH1 0x60 DUP2 ADD CALLDATALOAD SWAP6 POP PUSH1 0x80 DUP2 ADD CALLDATALOAD SWAP5 POP PUSH1 0xA0 ADD CALLDATALOAD SWAP3 POP SWAP1 POP JUMP JUMPDEST PUSH1 0x0 DUP1 PUSH1 0x40 DUP4 DUP6 SUB SLT ISZERO PUSH2 0x19B4 JUMPI PUSH1 0x0 DUP1 REVERT JUMPDEST DUP3 CALLDATALOAD PUSH2 0x19BF DUP2 PUSH2 0x18AC JUMP JUMPDEST SWAP2 POP PUSH2 0x19CD PUSH1 0x20 DUP5 ADD PUSH2 0x18DE JUMP JUMPDEST SWAP1 POP SWAP3 POP SWAP3 SWAP1 POP JUMP JUMPDEST PUSH1 0x20 DUP1 DUP3 MSTORE PUSH1 0x10 SWAP1 DUP3 ADD MSTORE PUSH16 0x14185D5CD8589B194E881C185D5CD959 PUSH1 0x82 SHL PUSH1 0x40 DUP3 ADD MSTORE PUSH1 0x60 ADD SWAP1 JUMP JUMPDEST PUSH1 0x20 DUP1 DUP3 MSTORE PUSH1 0x32 SWAP1 DUP3 ADD MSTORE PUSH32 0x416D6F756E74206E6565647320746F206265206D6F7265207468616E206D696E PUSH1 0x40 DUP3 ADD MSTORE PUSH18 0x40C2DCC840D8CAE6E640E8D0C2DC40DAC2F PUSH1 0x73 SHL PUSH1 0x60 DUP3 ADD MSTORE PUSH1 0x80 ADD SWAP1 JUMP JUMPDEST PUSH1 0x20 DUP1 DUP3 MSTORE PUSH1 0x22 SWAP1 DUP3 ADD MSTORE PUSH32 0x596F7527726520616C726561647920696E2074686973205374616B65206C6576 PUSH1 0x40 DUP3 ADD MSTORE PUSH2 0x195B PUSH1 0xF2 SHL PUSH1 0x60 DUP3 ADD MSTORE PUSH1 0x80 ADD SWAP1 JUMP JUMPDEST PUSH1 0x0 PUSH1 0x20 DUP3 DUP5 SUB SLT ISZERO PUSH2 0x1AA6 JUMPI PUSH1 0x0 DUP1 REVERT JUMPDEST DUP2 MLOAD DUP1 ISZERO ISZERO DUP2 EQ PUSH2 0xA36 JUMPI PUSH1 0x0 DUP1 REVERT JUMPDEST PUSH4 0x4E487B71 PUSH1 0xE0 SHL PUSH1 0x0 MSTORE PUSH1 0x11 PUSH1 0x4 MSTORE PUSH1 0x24 PUSH1 0x0 REVERT JUMPDEST PUSH1 0x0 DUP3 NOT DUP3 GT ISZERO PUSH2 0x1ADF JUMPI PUSH2 0x1ADF PUSH2 0x1AB6 JUMP JUMPDEST POP ADD SWAP1 JUMP JUMPDEST PUSH1 0x20 DUP1 DUP3 MSTORE DUP2 DUP2 ADD MSTORE PUSH32 0x4F776E61626C653A2063616C6C6572206973206E6F7420746865206F776E6572 PUSH1 0x40 DUP3 ADD MSTORE PUSH1 0x60 ADD SWAP1 JUMP JUMPDEST PUSH1 0x20 DUP1 DUP3 MSTORE PUSH1 0x1E SWAP1 DUP3 ADD MSTORE PUSH32 0x4E6F7420656E6F7567682062616C616E636520746F2077697468647261770000 PUSH1 0x40 DUP3 ADD MSTORE PUSH1 0x60 ADD SWAP1 JUMP JUMPDEST PUSH1 0x0 DUP3 DUP3 LT ISZERO PUSH2 0x1B62 JUMPI PUSH2 0x1B62 PUSH2 0x1AB6 JUMP JUMPDEST POP SUB SWAP1 JUMP JUMPDEST PUSH1 0x1 PUSH1 0x1 PUSH1 0xA0 SHL SUB SWAP6 SWAP1 SWAP6 AND DUP6 MSTORE PUSH1 0xFF SWAP4 SWAP1 SWAP4 AND PUSH1 0x20 DUP6 ADD MSTORE SWAP1 ISZERO ISZERO PUSH1 0x40 DUP5 ADD MSTORE PUSH1 0x60 DUP4 ADD MSTORE PUSH1 0x80 DUP3 ADD MSTORE PUSH1 0xA0 ADD SWAP1 JUMP JUMPDEST PUSH4 0x4E487B71 PUSH1 0xE0 SHL PUSH1 0x0 MSTORE PUSH1 0x32 PUSH1 0x4 MSTORE PUSH1 0x24 PUSH1 0x0 REVERT JUMPDEST PUSH1 0x0 PUSH1 0x20 DUP3 DUP5 SUB SLT ISZERO PUSH2 0x1BC0 JUMPI PUSH1 0x0 DUP1 REVERT JUMPDEST DUP2 MLOAD PUSH2 0xA36 DUP2 PUSH2 0x18AC JUMP JUMPDEST PUSH1 0x0 PUSH1 0xA0 DUP3 ADD DUP8 DUP4 MSTORE PUSH1 0x20 DUP8 DUP2 DUP6 ADD MSTORE PUSH1 0xA0 PUSH1 0x40 DUP6 ADD MSTORE DUP2 DUP8 MLOAD DUP1 DUP5 MSTORE PUSH1 0xC0 DUP7 ADD SWAP2 POP DUP3 DUP10 ADD SWAP4 POP PUSH1 0x0 JUMPDEST DUP2 DUP2 LT ISZERO PUSH2 0x1C1B JUMPI DUP5 MLOAD PUSH1 0x1 PUSH1 0x1 PUSH1 0xA0 SHL SUB AND DUP4 MSTORE SWAP4 DUP4 ADD SWAP4 SWAP2 DUP4 ADD SWAP2 PUSH1 0x1 ADD PUSH2 0x1BF6 JUMP JUMPDEST POP POP PUSH1 0x1 PUSH1 0x1 PUSH1 0xA0 SHL SUB SWAP7 SWAP1 SWAP7 AND PUSH1 0x60 DUP6 ADD MSTORE POP POP POP PUSH1 0x80 ADD MSTORE SWAP4 SWAP3 POP POP POP JUMP JUMPDEST PUSH1 0x0 DUP2 PUSH1 0x0 NOT DIV DUP4 GT DUP3 ISZERO ISZERO AND ISZERO PUSH2 0x1C56 JUMPI PUSH2 0x1C56 PUSH2 0x1AB6 JUMP JUMPDEST POP MUL SWAP1 JUMP JUMPDEST PUSH1 0x0 DUP3 PUSH2 0x1C78 JUMPI PUSH4 0x4E487B71 PUSH1 0xE0 SHL PUSH1 0x0 MSTORE PUSH1 0x12 PUSH1 0x4 MSTORE PUSH1 0x24 PUSH1 0x0 REVERT JUMPDEST POP DIV SWAP1 JUMP INVALID LOG2 PUSH5 0x6970667358 0x22 SLT KECCAK256 CALLVALUE PUSH26 0x1199D66395D0E0B62195F89B790F54327DB798AC7A088A339BBD RETURNDATASIZE REVERT DUP11 0xE3 PUSH5 0x736F6C6343 STOP ADDMOD SIGNEXTEND STOP CALLER "
				},
				"gasEstimates": {
					"creation": {
						"codeDepositCost": "1469400",
						"executionCost": "infinite",
						"totalCost": "infinite"
					},
					"external": {
						"acceptedToken()": "2427",
						"enterLevel0(uint256)": "infinite",
						"enterLevel1(uint256)": "infinite",
						"enterVip(uint256)": "infinite",
						"getInterest(address,uint8,uint256)": "infinite",
						"isLevel0(address)": "2571",
						"isLevel1(address)": "2593",
						"isOnTime(address,uint8)": "2885",
						"isVip(address)": "2615",
						"level0APY()": "2352",
						"level0Balance(address)": "6833",
						"level0Max()": "2395",
						"level0Min()": "2374",
						"level1APY()": "2397",
						"level1Balance(address)": "6834",
						"level1Max()": "2395",
						"level1Min()": "2331",
						"levelVipMax()": "2351",
						"levelVipMin()": "2373",
						"owner()": "2376",
						"pause()": "29891",
						"paused()": "2422",
						"renounceOwnership()": "28203",
						"setNewAPY(uint256,uint256,uint256)": "68769",
						"setNewMaxMin(uint256,uint256,uint256,uint256,uint256,uint256)": "135194",
						"transferOwnership(address)": "infinite",
						"uniswapV2Router()": "infinite",
						"unpause()": "29818",
						"vipBalance(address)": "6833",
						"vipLevelAPY()": "2330",
						"withdrawLevel0(uint256)": "infinite",
						"withdrawLevel1(uint256)": "infinite",
						"withdrawVip(uint256)": "infinite"
					},
					"internal": {
						"calculateInterest(uint256,uint256,uint256)": "infinite",
						"swapTokensForEth(uint256,address)": "infinite"
					}
				},
				"methodIdentifiers": {
					"acceptedToken()": "451c3d80",
					"enterLevel0(uint256)": "fe2981b5",
					"enterLevel1(uint256)": "1ed81ff8",
					"enterVip(uint256)": "bf01651a",
					"getInterest(address,uint8,uint256)": "69e06848",
					"isLevel0(address)": "6296e750",
					"isLevel1(address)": "635ef285",
					"isOnTime(address,uint8)": "f7edf9ab",
					"isVip(address)": "84203f4b",
					"level0APY()": "8275b181",
					"level0Balance(address)": "67911ba4",
					"level0Max()": "71a1609b",
					"level0Min()": "6505cf31",
					"level1APY()": "1ff08fee",
					"level1Balance(address)": "7fe509d7",
					"level1Max()": "d3900a52",
					"level1Min()": "01ef4739",
					"levelVipMax()": "8f0fb2b7",
					"levelVipMin()": "91789cef",
					"owner()": "8da5cb5b",
					"pause()": "8456cb59",
					"paused()": "5c975abb",
					"renounceOwnership()": "715018a6",
					"setNewAPY(uint256,uint256,uint256)": "e5d15701",
					"setNewMaxMin(uint256,uint256,uint256,uint256,uint256,uint256)": "f4217e1e",
					"transferOwnership(address)": "f2fde38b",
					"uniswapV2Router()": "1694505e",
					"unpause()": "3f4ba83a",
					"vipBalance(address)": "97e9c5fe",
					"vipLevelAPY()": "32938e3a",
					"withdrawLevel0(uint256)": "927e5998",
					"withdrawLevel1(uint256)": "bb664864",
					"withdrawVip(uint256)": "6636389e"
				}
			},
			"userdoc": {
				"kind": "user",
				"methods": {},
				"version": 1
			}
		}
	}
}