{
	"staking.sol": {
		"mochiStaking": {
			"abi": [
				{
					"inputs": [
						{
							"internalType": "address",
							"name": "_token",
							"type": "address"
						},
						{
							"internalType": "address",
							"name": "_reserveWallet",
							"type": "address"
						}
					],
					"stateMutability": "nonpayable",
					"type": "constructor"
				},
				{
					"anonymous": false,
					"inputs": [
						{
							"indexed": true,
							"internalType": "address",
							"name": "previousOwner",
							"type": "address"
						},
						{
							"indexed": true,
							"internalType": "address",
							"name": "newOwner",
							"type": "address"
						}
					],
					"name": "OwnershipTransferred",
					"type": "event"
				},
				{
					"anonymous": false,
					"inputs": [
						{
							"indexed": false,
							"internalType": "address",
							"name": "account",
							"type": "address"
						}
					],
					"name": "Paused",
					"type": "event"
				},
				{
					"anonymous": false,
					"inputs": [
						{
							"indexed": false,
							"internalType": "address",
							"name": "account",
							"type": "address"
						}
					],
					"name": "Unpaused",
					"type": "event"
				},
				{
					"anonymous": false,
					"inputs": [
						{
							"indexed": false,
							"internalType": "address",
							"name": "user",
							"type": "address"
						},
						{
							"indexed": false,
							"internalType": "uint8",
							"name": "class",
							"type": "uint8"
						},
						{
							"indexed": false,
							"internalType": "uint256",
							"name": "amount",
							"type": "uint256"
						},
						{
							"indexed": false,
							"internalType": "uint256",
							"name": "timeStart",
							"type": "uint256"
						},
						{
							"indexed": false,
							"internalType": "uint256",
							"name": "timeEnd",
							"type": "uint256"
						}
					],
					"name": "deposit",
					"type": "event"
				},
				{
					"anonymous": false,
					"inputs": [
						{
							"indexed": false,
							"internalType": "address",
							"name": "user",
							"type": "address"
						},
						{
							"indexed": false,
							"internalType": "uint8",
							"name": "class",
							"type": "uint8"
						},
						{
							"indexed": false,
							"internalType": "bool",
							"name": "onTime",
							"type": "bool"
						},
						{
							"indexed": false,
							"internalType": "uint256",
							"name": "amount",
							"type": "uint256"
						},
						{
							"indexed": false,
							"internalType": "uint256",
							"name": "earnings",
							"type": "uint256"
						}
					],
					"name": "withdraw",
					"type": "event"
				},
				{
					"inputs": [],
					"name": "acceptedToken",
					"outputs": [
						{
							"internalType": "contract IERC20",
							"name": "",
							"type": "address"
						}
					],
					"stateMutability": "view",
					"type": "function"
				},
				{
					"inputs": [
						{
							"internalType": "uint256",
							"name": "_amount",
							"type": "uint256"
						}
					],
					"name": "enterLevel0",
					"outputs": [],
					"stateMutability": "nonpayable",
					"type": "function"
				},
				{
					"inputs": [
						{
							"internalType": "uint256",
							"name": "_amount",
							"type": "uint256"
						}
					],
					"name": "enterLevel1",
					"outputs": [],
					"stateMutability": "nonpayable",
					"type": "function"
				},
				{
					"inputs": [
						{
							"internalType": "uint256",
							"name": "_amount",
							"type": "uint256"
						}
					],
					"name": "enterVip",
					"outputs": [],
					"stateMutability": "nonpayable",
					"type": "function"
				},
				{
					"inputs": [
						{
							"internalType": "address",
							"name": "user",
							"type": "address"
						},
						{
							"internalType": "uint8",
							"name": "class",
							"type": "uint8"
						},
						{
							"internalType": "uint256",
							"name": "balance",
							"type": "uint256"
						}
					],
					"name": "getInterest",
					"outputs": [
						{
							"internalType": "uint256",
							"name": "",
							"type": "uint256"
						}
					],
					"stateMutability": "view",
					"type": "function"
				},
				{
					"inputs": [
						{
							"internalType": "address",
							"name": "",
							"type": "address"
						}
					],
					"name": "isLevel0",
					"outputs": [
						{
							"internalType": "bool",
							"name": "",
							"type": "bool"
						}
					],
					"stateMutability": "view",
					"type": "function"
				},
				{
					"inputs": [
						{
							"internalType": "address",
							"name": "",
							"type": "address"
						}
					],
					"name": "isLevel1",
					"outputs": [
						{
							"internalType": "bool",
							"name": "",
							"type": "bool"
						}
					],
					"stateMutability": "view",
					"type": "function"
				},
				{
					"inputs": [
						{
							"internalType": "address",
							"name": "user",
							"type": "address"
						},
						{
							"internalType": "uint8",
							"name": "class",
							"type": "uint8"
						}
					],
					"name": "isOnTime",
					"outputs": [
						{
							"internalType": "bool",
							"name": "",
							"type": "bool"
						}
					],
					"stateMutability": "view",
					"type": "function"
				},
				{
					"inputs": [
						{
							"internalType": "address",
							"name": "",
							"type": "address"
						}
					],
					"name": "isVip",
					"outputs": [
						{
							"internalType": "bool",
							"name": "",
							"type": "bool"
						}
					],
					"stateMutability": "view",
					"type": "function"
				},
				{
					"inputs": [],
					"name": "level0APY",
					"outputs": [
						{
							"internalType": "uint256",
							"name": "",
							"type": "uint256"
						}
					],
					"stateMutability": "view",
					"type": "function"
				},
				{
					"inputs": [
						{
							"internalType": "address",
							"name": "",
							"type": "address"
						}
					],
					"name": "level0Balance",
					"outputs": [
						{
							"internalType": "uint256",
							"name": "balance",
							"type": "uint256"
						},
						{
							"internalType": "uint256",
							"name": "timeStarted",
							"type": "uint256"
						},
						{
							"internalType": "uint256",
							"name": "timeFinish",
							"type": "uint256"
						}
					],
					"stateMutability": "view",
					"type": "function"
				},
				{
					"inputs": [],
					"name": "level0Max",
					"outputs": [
						{
							"internalType": "uint256",
							"name": "",
							"type": "uint256"
						}
					],
					"stateMutability": "view",
					"type": "function"
				},
				{
					"inputs": [],
					"name": "level0Min",
					"outputs": [
						{
							"internalType": "uint256",
							"name": "",
							"type": "uint256"
						}
					],
					"stateMutability": "view",
					"type": "function"
				},
				{
					"inputs": [],
					"name": "level1APY",
					"outputs": [
						{
							"internalType": "uint256",
							"name": "",
							"type": "uint256"
						}
					],
					"stateMutability": "view",
					"type": "function"
				},
				{
					"inputs": [
						{
							"internalType": "address",
							"name": "",
							"type": "address"
						}
					],
					"name": "level1Balance",
					"outputs": [
						{
							"internalType": "uint256",
							"name": "balance",
							"type": "uint256"
						},
						{
							"internalType": "uint256",
							"name": "timeStarted",
							"type": "uint256"
						},
						{
							"internalType": "uint256",
							"name": "timeFinish",
							"type": "uint256"
						}
					],
					"stateMutability": "view",
					"type": "function"
				},
				{
					"inputs": [],
					"name": "level1Max",
					"outputs": [
						{
							"internalType": "uint256",
							"name": "",
							"type": "uint256"
						}
					],
					"stateMutability": "view",
					"type": "function"
				},
				{
					"inputs": [],
					"name": "level1Min",
					"outputs": [
						{
							"internalType": "uint256",
							"name": "",
							"type": "uint256"
						}
					],
					"stateMutability": "view",
					"type": "function"
				},
				{
					"inputs": [],
					"name": "levelVipMax",
					"outputs": [
						{
							"internalType": "uint256",
							"name": "",
							"type": "uint256"
						}
					],
					"stateMutability": "view",
					"type": "function"
				},
				{
					"inputs": [],
					"name": "levelVipMin",
					"outputs": [
						{
							"internalType": "uint256",
							"name": "",
							"type": "uint256"
						}
					],
					"stateMutability": "view",
					"type": "function"
				},
				{
					"inputs": [],
					"name": "owner",
					"outputs": [
						{
							"internalType": "address",
							"name": "",
							"type": "address"
						}
					],
					"stateMutability": "view",
					"type": "function"
				},
				{
					"inputs": [],
					"name": "pause",
					"outputs": [],
					"stateMutability": "nonpayable",
					"type": "function"
				},
				{
					"inputs": [],
					"name": "paused",
					"outputs": [
						{
							"internalType": "bool",
							"name": "",
							"type": "bool"
						}
					],
					"stateMutability": "view",
					"type": "function"
				},
				{
					"inputs": [],
					"name": "renounceOwnership",
					"outputs": [],
					"stateMutability": "nonpayable",
					"type": "function"
				},
				{
					"inputs": [],
					"name": "reserveWallet",
					"outputs": [
						{
							"internalType": "address",
							"name": "",
							"type": "address"
						}
					],
					"stateMutability": "view",
					"type": "function"
				},
				{
					"inputs": [
						{
							"internalType": "uint256",
							"name": "_level0APY",
							"type": "uint256"
						},
						{
							"internalType": "uint256",
							"name": "_level1APY",
							"type": "uint256"
						},
						{
							"internalType": "uint256",
							"name": "_vipLevelAPY",
							"type": "uint256"
						}
					],
					"name": "setNewAPY",
					"outputs": [],
					"stateMutability": "nonpayable",
					"type": "function"
				},
				{
					"inputs": [
						{
							"internalType": "uint256",
							"name": "_level0Min",
							"type": "uint256"
						},
						{
							"internalType": "uint256",
							"name": "_level0Max",
							"type": "uint256"
						},
						{
							"internalType": "uint256",
							"name": "_level1Min",
							"type": "uint256"
						},
						{
							"internalType": "uint256",
							"name": "_level1Max",
							"type": "uint256"
						},
						{
							"internalType": "uint256",
							"name": "_levelVipMin",
							"type": "uint256"
						},
						{
							"internalType": "uint256",
							"name": "_levelVipMax",
							"type": "uint256"
						}
					],
					"name": "setNewMaxMin",
					"outputs": [],
					"stateMutability": "nonpayable",
					"type": "function"
				},
				{
					"inputs": [
						{
							"internalType": "address",
							"name": "_reserveWallet",
							"type": "address"
						}
					],
					"name": "setReserveWallet",
					"outputs": [],
					"stateMutability": "nonpayable",
					"type": "function"
				},
				{
					"inputs": [
						{
							"internalType": "address",
							"name": "newOwner",
							"type": "address"
						}
					],
					"name": "transferOwnership",
					"outputs": [],
					"stateMutability": "nonpayable",
					"type": "function"
				},
				{
					"inputs": [],
					"name": "uniswapV2Router",
					"outputs": [
						{
							"internalType": "contract IDexRouter",
							"name": "",
							"type": "address"
						}
					],
					"stateMutability": "view",
					"type": "function"
				},
				{
					"inputs": [],
					"name": "unpause",
					"outputs": [],
					"stateMutability": "nonpayable",
					"type": "function"
				},
				{
					"inputs": [
						{
							"internalType": "address",
							"name": "",
							"type": "address"
						}
					],
					"name": "vipBalance",
					"outputs": [
						{
							"internalType": "uint256",
							"name": "balance",
							"type": "uint256"
						},
						{
							"internalType": "uint256",
							"name": "timeStarted",
							"type": "uint256"
						},
						{
							"internalType": "uint256",
							"name": "timeFinish",
							"type": "uint256"
						}
					],
					"stateMutability": "view",
					"type": "function"
				},
				{
					"inputs": [],
					"name": "vipLevelAPY",
					"outputs": [
						{
							"internalType": "uint256",
							"name": "",
							"type": "uint256"
						}
					],
					"stateMutability": "view",
					"type": "function"
				},
				{
					"inputs": [
						{
							"internalType": "uint256",
							"name": "_amount",
							"type": "uint256"
						}
					],
					"name": "withdrawLevel0",
					"outputs": [],
					"stateMutability": "nonpayable",
					"type": "function"
				},
				{
					"inputs": [
						{
							"internalType": "uint256",
							"name": "_amount",
							"type": "uint256"
						}
					],
					"name": "withdrawLevel1",
					"outputs": [],
					"stateMutability": "nonpayable",
					"type": "function"
				},
				{
					"inputs": [
						{
							"internalType": "uint256",
							"name": "_amount",
							"type": "uint256"
						}
					],
					"name": "withdrawVip",
					"outputs": [],
					"stateMutability": "nonpayable",
					"type": "function"
				}
			],
			"devdoc": {
				"kind": "dev",
				"methods": {
					"enterLevel0(uint256)": {
						"details": "Join to a staking class. Requirements:   - User has not enter the staking class previously. "
					},
					"enterLevel1(uint256)": {
						"details": "Join to a staking class. Requirements:    - User has not enter the staking class previously.   "
					},
					"enterVip(uint256)": {
						"details": "Join to a staking class. Requirements: - _amount must be greather than enter fee. - User has not enter the staking class previously.    "
					},
					"getInterest(address,uint8,uint256)": {
						"details": "Get interest earned during the staking time. classes : 0 - level 0, 1 - level 1, 2 - Vip"
					},
					"isOnTime(address,uint8)": {
						"details": "Checks if the staking has reached the timeFinish limit. classes :0 - level 0, 1 - level 1, 2 - Vip"
					},
					"owner()": {
						"details": "Returns the address of the current owner."
					},
					"paused()": {
						"details": "Returns true if the contract is paused, and false otherwise."
					},
					"renounceOwnership()": {
						"details": "Leaves the contract without owner. It will not be possible to call `onlyOwner` functions anymore. Can only be called by the current owner. NOTE: Renouncing ownership will leave the contract without an owner, thereby removing any functionality that is only available to the owner."
					},
					"setNewAPY(uint256,uint256,uint256)": {
						"details": "Change APY for all categories.   "
					},
					"setNewMaxMin(uint256,uint256,uint256,uint256,uint256,uint256)": {
						"details": "Change max and min values for all categories.   "
					},
					"setReserveWallet(address)": {
						"details": "Change Reserve Wallet.   "
					},
					"transferOwnership(address)": {
						"details": "Transfers ownership of the contract to a new account (`newOwner`). Can only be called by the current owner."
					},
					"withdrawLevel0(uint256)": {
						"details": "Withdraw from a staking class. Requirements: - Msg.sender should have an active deposit in the class."
					},
					"withdrawLevel1(uint256)": {
						"details": "Withdraw from a staking class. Requirements: - Msg.sender should have an active deposit in the class."
					},
					"withdrawVip(uint256)": {
						"details": "Withdraw from a staking class. Requirements: - Msg.sender should have an active deposit in the class."
					}
				},
				"version": 1
			},
			"evm": {
				"assembly": "    /* \"staking.sol\":930:12352  contract mochiStaking is Ownable, Pausable {... */\n  mstore(0x40, 0xa0)\n    /* \"staking.sol\":1261:1265  2700 */\n  0x0a8c\n    /* \"staking.sol\":1233:1265  uint256 public level0APY =  2700 */\n  0x02\n  sstore\n    /* \"staking.sol\":1298:1302  3700 */\n  0x0e74\n    /* \"staking.sol\":1271:1302  uint256 public level1APY = 3700 */\n  0x03\n  sstore\n    /* \"staking.sol\":1337:1341  4800 */\n  0x12c0\n    /* \"staking.sol\":1308:1341  uint256 public vipLevelAPY = 4800 */\n  0x04\n  sstore\n    /* \"staking.sol\":1409:1420  50 * 10**18 */\n  0x02b5e3af16b1880000\n    /* \"staking.sol\":1382:1420  uint256 public level0Min = 50 * 10**18 */\n  0x05\n  sstore\n    /* \"staking.sol\":1453:1471  500000000 * 10**18 */\n  0x019d971e4fe8401e74000000\n    /* \"staking.sol\":1426:1471  uint256 public level0Max = 500000000 * 10**18 */\n  0x06\n  sstore\n    /* \"staking.sol\":1504:1516  100 * 10**18 */\n  0x056bc75e2d63100000\n    /* \"staking.sol\":1477:1516  uint256 public level1Min = 100 * 10**18 */\n  0x07\n  sstore\n    /* \"staking.sol\":1549:1567  500000000 * 10**18 */\n  0x019d971e4fe8401e74000000\n    /* \"staking.sol\":1522:1567  uint256 public level1Max = 500000000 * 10**18 */\n  0x08\n  sstore\n    /* \"staking.sol\":1602:1614  200 * 10**18 */\n  0x0ad78ebc5ac6200000\n    /* \"staking.sol\":1573:1614  uint256 public levelVipMin = 200 * 10**18 */\n  0x09\n  sstore\n    /* \"staking.sol\":1649:1668  2500000000 * 10**18 */\n  0x0813f3978f89409844000000\n    /* \"staking.sol\":1620:1668  uint256 public levelVipMax = 2500000000 * 10**18 */\n  0x0a\n  sstore\n    /* \"staking.sol\":2380:2665  constructor(address _token , address _reserveWallet) {... */\n  callvalue\n  dup1\n  iszero\n  tag_1\n  jumpi\n  0x00\n  dup1\n  revert\ntag_1:\n  pop\n  mload(0x40)\n  sub(codesize, bytecodeSize)\n  dup1\n  bytecodeSize\n  dup4\n  codecopy\n  dup2\n  dup2\n  add\n  0x40\n  mstore\n  dup2\n  add\n  swap1\n  tag_2\n  swap2\n  swap1\n  tag_3\n  jump\t// in\ntag_2:\n    /* \"@openzeppelin/contracts/access/Ownable.sol\":921:953  _transferOwnership(_msgSender()) */\n  tag_8\n    /* \"@openzeppelin/contracts/access/Ownable.sol\":940:952  _msgSender() */\n  tag_9\n    /* \"@openzeppelin/contracts/access/Ownable.sol\":940:950  _msgSender */\n  shl(0x20, tag_10)\n    /* \"@openzeppelin/contracts/access/Ownable.sol\":940:952  _msgSender() */\n  0x20\n  shr\n  jump\t// in\ntag_9:\n    /* \"@openzeppelin/contracts/access/Ownable.sol\":921:939  _transferOwnership */\n  shl(0x20, tag_11)\n    /* \"@openzeppelin/contracts/access/Ownable.sol\":921:953  _transferOwnership(_msgSender()) */\n  0x20\n  shr\n  jump\t// in\ntag_8:\n    /* \"@openzeppelin/contracts/security/Pausable.sol\":991:996  false */\n  0x00\n    /* \"@openzeppelin/contracts/security/Pausable.sol\":981:988  _paused */\n  dup1\n  0x14\n    /* \"@openzeppelin/contracts/security/Pausable.sol\":981:996  _paused = false */\n  0x0100\n  exp\n  dup2\n  sload\n  dup2\n  0xff\n  mul\n  not\n  and\n  swap1\n  dup4\n  iszero\n  iszero\n  mul\n  or\n  swap1\n  sstore\n  pop\n    /* \"staking.sol\":2466:2472  _token */\n  dup2\n    /* \"staking.sol\":2443:2456  acceptedToken */\n  0x01\n  0x00\n    /* \"staking.sol\":2443:2473  acceptedToken = IERC20(_token) */\n  0x0100\n  exp\n  dup2\n  sload\n  dup2\n  0xffffffffffffffffffffffffffffffffffffffff\n  mul\n  not\n  and\n  swap1\n  dup4\n  0xffffffffffffffffffffffffffffffffffffffff\n  and\n  mul\n  or\n  swap1\n  sstore\n  pop\n    /* \"staking.sol\":2499:2513  _reserveWallet */\n  dup1\n    /* \"staking.sol\":2483:2496  reserveWallet */\n  0x0b\n  0x00\n    /* \"staking.sol\":2483:2513  reserveWallet = _reserveWallet */\n  0x0100\n  exp\n  dup2\n  sload\n  dup2\n  0xffffffffffffffffffffffffffffffffffffffff\n  mul\n  not\n  and\n  swap1\n  dup4\n  0xffffffffffffffffffffffffffffffffffffffff\n  and\n  mul\n  or\n  swap1\n  sstore\n  pop\n    /* \"staking.sol\":2525:2552  IDexRouter _uniswapV2Router */\n  0x00\n    /* \"staking.sol\":2566:2608  0x9Ac64Cc6e4415144C455BD8E4837Fea55603e5c3 */\n  0x9ac64cc6e4415144c455bd8e4837fea55603e5c3\n    /* \"staking.sol\":2525:2609  IDexRouter _uniswapV2Router = IDexRouter(0x9Ac64Cc6e4415144C455BD8E4837Fea55603e5c3) */\n  swap1\n  pop\n    /* \"staking.sol\":2638:2654  _uniswapV2Router */\n  dup1\n    /* \"staking.sol\":2620:2654  uniswapV2Router = _uniswapV2Router */\n  0xffffffffffffffffffffffffffffffffffffffff\n  and\n  0x80\n  dup2\n  0xffffffffffffffffffffffffffffffffffffffff\n  and\n  0x60\n  shl\n  dup2\n  mstore\n  pop\n  pop\n    /* \"staking.sol\":2433:2665  {... */\n  pop\n    /* \"staking.sol\":2380:2665  constructor(address _token , address _reserveWallet) {... */\n  pop\n  pop\n    /* \"staking.sol\":930:12352  contract mochiStaking is Ownable, Pausable {... */\n  jump(tag_14)\n    /* \"@openzeppelin/contracts/utils/Context.sol\":640:736  function _msgSender() internal view virtual returns (address) {... */\ntag_10:\n    /* \"@openzeppelin/contracts/utils/Context.sol\":693:700  address */\n  0x00\n    /* \"@openzeppelin/contracts/utils/Context.sol\":719:729  msg.sender */\n  caller\n    /* \"@openzeppelin/contracts/utils/Context.sol\":712:729  return msg.sender */\n  swap1\n  pop\n    /* \"@openzeppelin/contracts/utils/Context.sol\":640:736  function _msgSender() internal view virtual returns (address) {... */\n  swap1\n  jump\t// out\n    /* \"@openzeppelin/contracts/access/Ownable.sol\":2270:2457  function _transferOwnership(address newOwner) internal virtual {... */\ntag_11:\n    /* \"@openzeppelin/contracts/access/Ownable.sol\":2343:2359  address oldOwner */\n  0x00\n    /* \"@openzeppelin/contracts/access/Ownable.sol\":2362:2368  _owner */\n  dup1\n  0x00\n  swap1\n  sload\n  swap1\n  0x0100\n  exp\n  swap1\n  div\n  0xffffffffffffffffffffffffffffffffffffffff\n  and\n    /* \"@openzeppelin/contracts/access/Ownable.sol\":2343:2368  address oldOwner = _owner */\n  swap1\n  pop\n    /* \"@openzeppelin/contracts/access/Ownable.sol\":2387:2395  newOwner */\n  dup2\n    /* \"@openzeppelin/contracts/access/Ownable.sol\":2378:2384  _owner */\n  0x00\n  dup1\n    /* \"@openzeppelin/contracts/access/Ownable.sol\":2378:2395  _owner = newOwner */\n  0x0100\n  exp\n  dup2\n  sload\n  dup2\n  0xffffffffffffffffffffffffffffffffffffffff\n  mul\n  not\n  and\n  swap1\n  dup4\n  0xffffffffffffffffffffffffffffffffffffffff\n  and\n  mul\n  or\n  swap1\n  sstore\n  pop\n    /* \"@openzeppelin/contracts/access/Ownable.sol\":2441:2449  newOwner */\n  dup2\n    /* \"@openzeppelin/contracts/access/Ownable.sol\":2410:2450  OwnershipTransferred(oldOwner, newOwner) */\n  0xffffffffffffffffffffffffffffffffffffffff\n  and\n    /* \"@openzeppelin/contracts/access/Ownable.sol\":2431:2439  oldOwner */\n  dup2\n    /* \"@openzeppelin/contracts/access/Ownable.sol\":2410:2450  OwnershipTransferred(oldOwner, newOwner) */\n  0xffffffffffffffffffffffffffffffffffffffff\n  and\n  0x8be0079c531659141344cd1fd0a4f28419497f9722a3daafe3b4186f6b6457e0\n  mload(0x40)\n  mload(0x40)\n  dup1\n  swap2\n  sub\n  swap1\n  log3\n    /* \"@openzeppelin/contracts/access/Ownable.sol\":2333:2457  {... */\n  pop\n    /* \"@openzeppelin/contracts/access/Ownable.sol\":2270:2457  function _transferOwnership(address newOwner) internal virtual {... */\n  pop\n  jump\t// out\n    /* \"#utility.yul\":7:150   */\ntag_18:\n    /* \"#utility.yul\":64:69   */\n  0x00\n    /* \"#utility.yul\":95:101   */\n  dup2\n    /* \"#utility.yul\":89:102   */\n  mload\n    /* \"#utility.yul\":80:102   */\n  swap1\n  pop\n    /* \"#utility.yul\":111:144   */\n  tag_20\n    /* \"#utility.yul\":138:143   */\n  dup2\n    /* \"#utility.yul\":111:144   */\n  tag_21\n  jump\t// in\ntag_20:\n    /* \"#utility.yul\":7:150   */\n  swap3\n  swap2\n  pop\n  pop\n  jump\t// out\n    /* \"#utility.yul\":156:663   */\ntag_3:\n    /* \"#utility.yul\":235:241   */\n  0x00\n    /* \"#utility.yul\":243:249   */\n  dup1\n    /* \"#utility.yul\":292:294   */\n  0x40\n    /* \"#utility.yul\":280:289   */\n  dup4\n    /* \"#utility.yul\":271:278   */\n  dup6\n    /* \"#utility.yul\":267:290   */\n  sub\n    /* \"#utility.yul\":263:295   */\n  slt\n    /* \"#utility.yul\":260:379   */\n  iszero\n  tag_23\n  jumpi\n    /* \"#utility.yul\":298:377   */\n  tag_24\n  tag_25\n  jump\t// in\ntag_24:\n    /* \"#utility.yul\":260:379   */\ntag_23:\n    /* \"#utility.yul\":418:419   */\n  0x00\n    /* \"#utility.yul\":443:507   */\n  tag_26\n    /* \"#utility.yul\":499:506   */\n  dup6\n    /* \"#utility.yul\":490:496   */\n  dup3\n    /* \"#utility.yul\":479:488   */\n  dup7\n    /* \"#utility.yul\":475:497   */\n  add\n    /* \"#utility.yul\":443:507   */\n  tag_18\n  jump\t// in\ntag_26:\n    /* \"#utility.yul\":433:507   */\n  swap3\n  pop\n    /* \"#utility.yul\":389:517   */\n  pop\n    /* \"#utility.yul\":556:558   */\n  0x20\n    /* \"#utility.yul\":582:646   */\n  tag_27\n    /* \"#utility.yul\":638:645   */\n  dup6\n    /* \"#utility.yul\":629:635   */\n  dup3\n    /* \"#utility.yul\":618:627   */\n  dup7\n    /* \"#utility.yul\":614:636   */\n  add\n    /* \"#utility.yul\":582:646   */\n  tag_18\n  jump\t// in\ntag_27:\n    /* \"#utility.yul\":572:646   */\n  swap2\n  pop\n    /* \"#utility.yul\":527:656   */\n  pop\n    /* \"#utility.yul\":156:663   */\n  swap3\n  pop\n  swap3\n  swap1\n  pop\n  jump\t// out\n    /* \"#utility.yul\":750:846   */\ntag_30:\n    /* \"#utility.yul\":787:794   */\n  0x00\n    /* \"#utility.yul\":816:840   */\n  tag_32\n    /* \"#utility.yul\":834:839   */\n  dup3\n    /* \"#utility.yul\":816:840   */\n  tag_33\n  jump\t// in\ntag_32:\n    /* \"#utility.yul\":805:840   */\n  swap1\n  pop\n    /* \"#utility.yul\":750:846   */\n  swap2\n  swap1\n  pop\n  jump\t// out\n    /* \"#utility.yul\":852:978   */\ntag_33:\n    /* \"#utility.yul\":889:896   */\n  0x00\n    /* \"#utility.yul\":929:971   */\n  0xffffffffffffffffffffffffffffffffffffffff\n    /* \"#utility.yul\":922:927   */\n  dup3\n    /* \"#utility.yul\":918:972   */\n  and\n    /* \"#utility.yul\":907:972   */\n  swap1\n  pop\n    /* \"#utility.yul\":852:978   */\n  swap2\n  swap1\n  pop\n  jump\t// out\n    /* \"#utility.yul\":1107:1224   */\ntag_25:\n    /* \"#utility.yul\":1216:1217   */\n  0x00\n    /* \"#utility.yul\":1213:1214   */\n  dup1\n    /* \"#utility.yul\":1206:1218   */\n  revert\n    /* \"#utility.yul\":1230:1352   */\ntag_21:\n    /* \"#utility.yul\":1303:1327   */\n  tag_39\n    /* \"#utility.yul\":1321:1326   */\n  dup2\n    /* \"#utility.yul\":1303:1327   */\n  tag_30\n  jump\t// in\ntag_39:\n    /* \"#utility.yul\":1296:1301   */\n  dup2\n    /* \"#utility.yul\":1293:1328   */\n  eq\n    /* \"#utility.yul\":1283:1346   */\n  tag_40\n  jumpi\n    /* \"#utility.yul\":1342:1343   */\n  0x00\n    /* \"#utility.yul\":1339:1340   */\n  dup1\n    /* \"#utility.yul\":1332:1344   */\n  revert\n    /* \"#utility.yul\":1283:1346   */\ntag_40:\n    /* \"#utility.yul\":1230:1352   */\n  pop\n  jump\t// out\n    /* \"staking.sol\":930:12352  contract mochiStaking is Ownable, Pausable {... */\ntag_14:\n  shr(0x60, mload(0x80))\n  codecopy(0x00, dataOffset(sub_0), dataSize(sub_0))\n  0x00\n  assignImmutable(\"0x0b83f23a4eeb8c3f5f7d5934a2289bcf0186d09a12e1b7f20adf54e4b179db15\")\n  return(0x00, dataSize(sub_0))\nstop\n\nsub_0: assembly {\n        /* \"staking.sol\":930:12352  contract mochiStaking is Ownable, Pausable {... */\n      mstore(0x40, 0x80)\n      callvalue\n      dup1\n      iszero\n      tag_1\n      jumpi\n      0x00\n      dup1\n      revert\n    tag_1:\n      pop\n      jumpi(tag_2, lt(calldatasize, 0x04))\n      shr(0xe0, calldataload(0x00))\n      dup1\n      0x8275b181\n      gt\n      tag_38\n      jumpi\n      dup1\n      0xbf01651a\n      gt\n      tag_39\n      jumpi\n      dup1\n      0xe5d15701\n      gt\n      tag_40\n      jumpi\n      dup1\n      0xe5d15701\n      eq\n      tag_33\n      jumpi\n      dup1\n      0xf2fde38b\n      eq\n      tag_34\n      jumpi\n      dup1\n      0xf4217e1e\n      eq\n      tag_35\n      jumpi\n      dup1\n      0xf7edf9ab\n      eq\n      tag_36\n      jumpi\n      dup1\n      0xfe2981b5\n      eq\n      tag_37\n      jumpi\n      jump(tag_2)\n    tag_40:\n      dup1\n      0xbf01651a\n      eq\n      tag_29\n      jumpi\n      dup1\n      0xd3900a52\n      eq\n      tag_30\n      jumpi\n      dup1\n      0xd72b11bd\n      eq\n      tag_31\n      jumpi\n      dup1\n      0xdda4fa8f\n      eq\n      tag_32\n      jumpi\n      jump(tag_2)\n    tag_39:\n      dup1\n      0x8f0fb2b7\n      gt\n      tag_41\n      jumpi\n      dup1\n      0x8f0fb2b7\n      eq\n      tag_24\n      jumpi\n      dup1\n      0x91789cef\n      eq\n      tag_25\n      jumpi\n      dup1\n      0x927e5998\n      eq\n      tag_26\n      jumpi\n      dup1\n      0x97e9c5fe\n      eq\n      tag_27\n      jumpi\n      dup1\n      0xbb664864\n      eq\n      tag_28\n      jumpi\n      jump(tag_2)\n    tag_41:\n      dup1\n      0x8275b181\n      eq\n      tag_20\n      jumpi\n      dup1\n      0x84203f4b\n      eq\n      tag_21\n      jumpi\n      dup1\n      0x8456cb59\n      eq\n      tag_22\n      jumpi\n      dup1\n      0x8da5cb5b\n      eq\n      tag_23\n      jumpi\n      jump(tag_2)\n    tag_38:\n      dup1\n      0x6296e750\n      gt\n      tag_42\n      jumpi\n      dup1\n      0x67911ba4\n      gt\n      tag_43\n      jumpi\n      dup1\n      0x67911ba4\n      eq\n      tag_15\n      jumpi\n      dup1\n      0x69e06848\n      eq\n      tag_16\n      jumpi\n      dup1\n      0x715018a6\n      eq\n      tag_17\n      jumpi\n      dup1\n      0x71a1609b\n      eq\n      tag_18\n      jumpi\n      dup1\n      0x7fe509d7\n      eq\n      tag_19\n      jumpi\n      jump(tag_2)\n    tag_43:\n      dup1\n      0x6296e750\n      eq\n      tag_11\n      jumpi\n      dup1\n      0x635ef285\n      eq\n      tag_12\n      jumpi\n      dup1\n      0x6505cf31\n      eq\n      tag_13\n      jumpi\n      dup1\n      0x6636389e\n      eq\n      tag_14\n      jumpi\n      jump(tag_2)\n    tag_42:\n      dup1\n      0x32938e3a\n      gt\n      tag_44\n      jumpi\n      dup1\n      0x32938e3a\n      eq\n      tag_7\n      jumpi\n      dup1\n      0x3f4ba83a\n      eq\n      tag_8\n      jumpi\n      dup1\n      0x451c3d80\n      eq\n      tag_9\n      jumpi\n      dup1\n      0x5c975abb\n      eq\n      tag_10\n      jumpi\n      jump(tag_2)\n    tag_44:\n      dup1\n      0x01ef4739\n      eq\n      tag_3\n      jumpi\n      dup1\n      0x1694505e\n      eq\n      tag_4\n      jumpi\n      dup1\n      0x1ed81ff8\n      eq\n      tag_5\n      jumpi\n      dup1\n      0x1ff08fee\n      eq\n      tag_6\n      jumpi\n    tag_2:\n      0x00\n      dup1\n      revert\n        /* \"staking.sol\":1477:1516  uint256 public level1Min = 100 * 10**18 */\n    tag_3:\n      tag_45\n      tag_46\n      jump\t// in\n    tag_45:\n      mload(0x40)\n      tag_47\n      swap2\n      swap1\n      tag_48\n      jump\t// in\n    tag_47:\n      mload(0x40)\n      dup1\n      swap2\n      sub\n      swap1\n      return\n        /* \"staking.sol\":2294:2337  IDexRouter public immutable uniswapV2Router */\n    tag_4:\n      tag_49\n      tag_50\n      jump\t// in\n    tag_49:\n      mload(0x40)\n      tag_51\n      swap2\n      swap1\n      tag_52\n      jump\t// in\n    tag_51:\n      mload(0x40)\n      dup1\n      swap2\n      sub\n      swap1\n      return\n        /* \"staking.sol\":4813:5555  function enterLevel1 (uint256 _amount) public whenNotPaused {... */\n    tag_5:\n      tag_53\n      0x04\n      dup1\n      calldatasize\n      sub\n      dup2\n      add\n      swap1\n      tag_54\n      swap2\n      swap1\n      tag_55\n      jump\t// in\n    tag_54:\n      tag_56\n      jump\t// in\n    tag_53:\n      stop\n        /* \"staking.sol\":1271:1302  uint256 public level1APY = 3700 */\n    tag_6:\n      tag_57\n      tag_58\n      jump\t// in\n    tag_57:\n      mload(0x40)\n      tag_59\n      swap2\n      swap1\n      tag_48\n      jump\t// in\n    tag_59:\n      mload(0x40)\n      dup1\n      swap2\n      sub\n      swap1\n      return\n        /* \"staking.sol\":1308:1341  uint256 public vipLevelAPY = 4800 */\n    tag_7:\n      tag_60\n      tag_61\n      jump\t// in\n    tag_60:\n      mload(0x40)\n      tag_62\n      swap2\n      swap1\n      tag_48\n      jump\t// in\n    tag_62:\n      mload(0x40)\n      dup1\n      swap2\n      sub\n      swap1\n      return\n        /* \"staking.sol\":2786:2850  function unpause () public onlyOwner {... */\n    tag_8:\n      tag_63\n      tag_64\n      jump\t// in\n    tag_63:\n      stop\n        /* \"staking.sol\":1024:1051  IERC20 public acceptedToken */\n    tag_9:\n      tag_65\n      tag_66\n      jump\t// in\n    tag_65:\n      mload(0x40)\n      tag_67\n      swap2\n      swap1\n      tag_68\n      jump\t// in\n    tag_67:\n      mload(0x40)\n      dup1\n      swap2\n      sub\n      swap1\n      return\n        /* \"@openzeppelin/contracts/security/Pausable.sol\":1098:1182  function paused() public view virtual returns (bool) {... */\n    tag_10:\n      tag_69\n      tag_70\n      jump\t// in\n    tag_69:\n      mload(0x40)\n      tag_71\n      swap2\n      swap1\n      tag_72\n      jump\t// in\n    tag_71:\n      mload(0x40)\n      dup1\n      swap2\n      sub\n      swap1\n      return\n        /* \"staking.sol\":1788:1829  mapping (address => bool) public isLevel0 */\n    tag_11:\n      tag_73\n      0x04\n      dup1\n      calldatasize\n      sub\n      dup2\n      add\n      swap1\n      tag_74\n      swap2\n      swap1\n      tag_75\n      jump\t// in\n    tag_74:\n      tag_76\n      jump\t// in\n    tag_73:\n      mload(0x40)\n      tag_77\n      swap2\n      swap1\n      tag_72\n      jump\t// in\n    tag_77:\n      mload(0x40)\n      dup1\n      swap2\n      sub\n      swap1\n      return\n        /* \"staking.sol\":1888:1929  mapping (address => bool) public isLevel1 */\n    tag_12:\n      tag_78\n      0x04\n      dup1\n      calldatasize\n      sub\n      dup2\n      add\n      swap1\n      tag_79\n      swap2\n      swap1\n      tag_75\n      jump\t// in\n    tag_79:\n      tag_80\n      jump\t// in\n    tag_78:\n      mload(0x40)\n      tag_81\n      swap2\n      swap1\n      tag_72\n      jump\t// in\n    tag_81:\n      mload(0x40)\n      dup1\n      swap2\n      sub\n      swap1\n      return\n        /* \"staking.sol\":1382:1420  uint256 public level0Min = 50 * 10**18 */\n    tag_13:\n      tag_82\n      tag_83\n      jump\t// in\n    tag_82:\n      mload(0x40)\n      tag_84\n      swap2\n      swap1\n      tag_48\n      jump\t// in\n    tag_84:\n      mload(0x40)\n      dup1\n      swap2\n      sub\n      swap1\n      return\n        /* \"staking.sol\":10786:11746  function withdrawVip (uint256 _amount) public  {... */\n    tag_14:\n      tag_85\n      0x04\n      dup1\n      calldatasize\n      sub\n      dup2\n      add\n      swap1\n      tag_86\n      swap2\n      swap1\n      tag_55\n      jump\t// in\n    tag_86:\n      tag_87\n      jump\t// in\n    tag_85:\n      stop\n        /* \"staking.sol\":1835:1882  mapping (address => _user) public level0Balance */\n    tag_15:\n      tag_88\n      0x04\n      dup1\n      calldatasize\n      sub\n      dup2\n      add\n      swap1\n      tag_89\n      swap2\n      swap1\n      tag_75\n      jump\t// in\n    tag_89:\n      tag_90\n      jump\t// in\n    tag_88:\n      mload(0x40)\n      tag_91\n      swap4\n      swap3\n      swap2\n      swap1\n      tag_92\n      jump\t// in\n    tag_91:\n      mload(0x40)\n      dup1\n      swap2\n      sub\n      swap1\n      return\n        /* \"staking.sol\":7281:7967  function getInterest (address user, uint8 class, uint256 balance) public view returns (uint256){... */\n    tag_16:\n      tag_93\n      0x04\n      dup1\n      calldatasize\n      sub\n      dup2\n      add\n      swap1\n      tag_94\n      swap2\n      swap1\n      tag_95\n      jump\t// in\n    tag_94:\n      tag_96\n      jump\t// in\n    tag_93:\n      mload(0x40)\n      tag_97\n      swap2\n      swap1\n      tag_48\n      jump\t// in\n    tag_97:\n      mload(0x40)\n      dup1\n      swap2\n      sub\n      swap1\n      return\n        /* \"@openzeppelin/contracts/access/Ownable.sol\":1668:1769  function renounceOwnership() public virtual onlyOwner {... */\n    tag_17:\n      tag_98\n      tag_99\n      jump\t// in\n    tag_98:\n      stop\n        /* \"staking.sol\":1426:1471  uint256 public level0Max = 500000000 * 10**18 */\n    tag_18:\n      tag_100\n      tag_101\n      jump\t// in\n    tag_100:\n      mload(0x40)\n      tag_102\n      swap2\n      swap1\n      tag_48\n      jump\t// in\n    tag_102:\n      mload(0x40)\n      dup1\n      swap2\n      sub\n      swap1\n      return\n        /* \"staking.sol\":1935:1982  mapping (address => _user) public level1Balance */\n    tag_19:\n      tag_103\n      0x04\n      dup1\n      calldatasize\n      sub\n      dup2\n      add\n      swap1\n      tag_104\n      swap2\n      swap1\n      tag_75\n      jump\t// in\n    tag_104:\n      tag_105\n      jump\t// in\n    tag_103:\n      mload(0x40)\n      tag_106\n      swap4\n      swap3\n      swap2\n      swap1\n      tag_92\n      jump\t// in\n    tag_106:\n      mload(0x40)\n      dup1\n      swap2\n      sub\n      swap1\n      return\n        /* \"staking.sol\":1233:1265  uint256 public level0APY =  2700 */\n    tag_20:\n      tag_107\n      tag_108\n      jump\t// in\n    tag_107:\n      mload(0x40)\n      tag_109\n      swap2\n      swap1\n      tag_48\n      jump\t// in\n    tag_109:\n      mload(0x40)\n      dup1\n      swap2\n      sub\n      swap1\n      return\n        /* \"staking.sol\":1988:2026  mapping (address => bool) public isVip */\n    tag_21:\n      tag_110\n      0x04\n      dup1\n      calldatasize\n      sub\n      dup2\n      add\n      swap1\n      tag_111\n      swap2\n      swap1\n      tag_75\n      jump\t// in\n    tag_111:\n      tag_112\n      jump\t// in\n    tag_110:\n      mload(0x40)\n      tag_113\n      swap2\n      swap1\n      tag_72\n      jump\t// in\n    tag_113:\n      mload(0x40)\n      dup1\n      swap2\n      sub\n      swap1\n      return\n        /* \"staking.sol\":2716:2776  function pause () public onlyOwner {... */\n    tag_22:\n      tag_114\n      tag_115\n      jump\t// in\n    tag_114:\n      stop\n        /* \"@openzeppelin/contracts/access/Ownable.sol\":1036:1121  function owner() public view virtual returns (address) {... */\n    tag_23:\n      tag_116\n      tag_117\n      jump\t// in\n    tag_116:\n      mload(0x40)\n      tag_118\n      swap2\n      swap1\n      tag_119\n      jump\t// in\n    tag_118:\n      mload(0x40)\n      dup1\n      swap2\n      sub\n      swap1\n      return\n        /* \"staking.sol\":1620:1668  uint256 public levelVipMax = 2500000000 * 10**18 */\n    tag_24:\n      tag_120\n      tag_121\n      jump\t// in\n    tag_120:\n      mload(0x40)\n      tag_122\n      swap2\n      swap1\n      tag_48\n      jump\t// in\n    tag_122:\n      mload(0x40)\n      dup1\n      swap2\n      sub\n      swap1\n      return\n        /* \"staking.sol\":1573:1614  uint256 public levelVipMin = 200 * 10**18 */\n    tag_25:\n      tag_123\n      tag_124\n      jump\t// in\n    tag_123:\n      mload(0x40)\n      tag_125\n      swap2\n      swap1\n      tag_48\n      jump\t// in\n    tag_125:\n      mload(0x40)\n      dup1\n      swap2\n      sub\n      swap1\n      return\n        /* \"staking.sol\":8495:9490  function withdrawLevel0 (uint256 _amount) public  {... */\n    tag_26:\n      tag_126\n      0x04\n      dup1\n      calldatasize\n      sub\n      dup2\n      add\n      swap1\n      tag_127\n      swap2\n      swap1\n      tag_55\n      jump\t// in\n    tag_127:\n      tag_128\n      jump\t// in\n    tag_126:\n      stop\n        /* \"staking.sol\":2032:2076  mapping (address => _user) public vipBalance */\n    tag_27:\n      tag_129\n      0x04\n      dup1\n      calldatasize\n      sub\n      dup2\n      add\n      swap1\n      tag_130\n      swap2\n      swap1\n      tag_75\n      jump\t// in\n    tag_130:\n      tag_131\n      jump\t// in\n    tag_129:\n      mload(0x40)\n      tag_132\n      swap4\n      swap3\n      swap2\n      swap1\n      tag_92\n      jump\t// in\n    tag_132:\n      mload(0x40)\n      dup1\n      swap2\n      sub\n      swap1\n      return\n        /* \"staking.sol\":9648:10628  function withdrawLevel1 (uint256 _amount) public  {... */\n    tag_28:\n      tag_133\n      0x04\n      dup1\n      calldatasize\n      sub\n      dup2\n      add\n      swap1\n      tag_134\n      swap2\n      swap1\n      tag_55\n      jump\t// in\n    tag_134:\n      tag_135\n      jump\t// in\n    tag_133:\n      stop\n        /* \"staking.sol\":5754:6502  function enterVip (uint256 _amount) public whenNotPaused {... */\n    tag_29:\n      tag_136\n      0x04\n      dup1\n      calldatasize\n      sub\n      dup2\n      add\n      swap1\n      tag_137\n      swap2\n      swap1\n      tag_55\n      jump\t// in\n    tag_137:\n      tag_138\n      jump\t// in\n    tag_136:\n      stop\n        /* \"staking.sol\":1522:1567  uint256 public level1Max = 500000000 * 10**18 */\n    tag_30:\n      tag_139\n      tag_140\n      jump\t// in\n    tag_139:\n      mload(0x40)\n      tag_141\n      swap2\n      swap1\n      tag_48\n      jump\t// in\n    tag_141:\n      mload(0x40)\n      dup1\n      swap2\n      sub\n      swap1\n      return\n        /* \"staking.sol\":1701:1729  address public reserveWallet */\n    tag_31:\n      tag_142\n      tag_143\n      jump\t// in\n    tag_142:\n      mload(0x40)\n      tag_144\n      swap2\n      swap1\n      tag_119\n      jump\t// in\n    tag_144:\n      mload(0x40)\n      dup1\n      swap2\n      sub\n      swap1\n      return\n        /* \"staking.sol\":2910:3029  function setReserveWallet (address _reserveWallet) external onlyOwner{... */\n    tag_32:\n      tag_145\n      0x04\n      dup1\n      calldatasize\n      sub\n      dup2\n      add\n      swap1\n      tag_146\n      swap2\n      swap1\n      tag_75\n      jump\t// in\n    tag_146:\n      tag_147\n      jump\t// in\n    tag_145:\n      stop\n        /* \"staking.sol\":3096:3304  function setNewAPY ( uint256 _level0APY, uint256 _level1APY, uint256 _vipLevelAPY) external onlyOwner{... */\n    tag_33:\n      tag_148\n      0x04\n      dup1\n      calldatasize\n      sub\n      dup2\n      add\n      swap1\n      tag_149\n      swap2\n      swap1\n      tag_150\n      jump\t// in\n    tag_149:\n      tag_151\n      jump\t// in\n    tag_148:\n      stop\n        /* \"@openzeppelin/contracts/access/Ownable.sol\":1918:2116  function transferOwnership(address newOwner) public virtual onlyOwner {... */\n    tag_34:\n      tag_152\n      0x04\n      dup1\n      calldatasize\n      sub\n      dup2\n      add\n      swap1\n      tag_153\n      swap2\n      swap1\n      tag_75\n      jump\t// in\n    tag_153:\n      tag_154\n      jump\t// in\n    tag_152:\n      stop\n        /* \"staking.sol\":3386:3758  function setNewMaxMin (uint256 _level0Min, uint256 _level0Max, uint256 _level1Min, uint256 _level1Max, uint256 _levelVipMin, uint256 _levelVipMax) external onlyOwner{... */\n    tag_35:\n      tag_155\n      0x04\n      dup1\n      calldatasize\n      sub\n      dup2\n      add\n      swap1\n      tag_156\n      swap2\n      swap1\n      tag_157\n      jump\t// in\n    tag_156:\n      tag_158\n      jump\t// in\n    tag_155:\n      stop\n        /* \"staking.sol\":6647:7146  function isOnTime (address user, uint8 class) public view returns (bool) {... */\n    tag_36:\n      tag_159\n      0x04\n      dup1\n      calldatasize\n      sub\n      dup2\n      add\n      swap1\n      tag_160\n      swap2\n      swap1\n      tag_161\n      jump\t// in\n    tag_160:\n      tag_162\n      jump\t// in\n    tag_159:\n      mload(0x40)\n      tag_163\n      swap2\n      swap1\n      tag_72\n      jump\t// in\n    tag_163:\n      mload(0x40)\n      dup1\n      swap2\n      sub\n      swap1\n      return\n        /* \"staking.sol\":3907:4657  function enterLevel0 (uint256 _amount) public whenNotPaused {... */\n    tag_37:\n      tag_164\n      0x04\n      dup1\n      calldatasize\n      sub\n      dup2\n      add\n      swap1\n      tag_165\n      swap2\n      swap1\n      tag_55\n      jump\t// in\n    tag_165:\n      tag_166\n      jump\t// in\n    tag_164:\n      stop\n        /* \"staking.sol\":1477:1516  uint256 public level1Min = 100 * 10**18 */\n    tag_46:\n      sload(0x07)\n      dup2\n      jump\t// out\n        /* \"staking.sol\":2294:2337  IDexRouter public immutable uniswapV2Router */\n    tag_50:\n      immutable(\"0x0b83f23a4eeb8c3f5f7d5934a2289bcf0186d09a12e1b7f20adf54e4b179db15\")\n      dup2\n      jump\t// out\n        /* \"staking.sol\":4813:5555  function enterLevel1 (uint256 _amount) public whenNotPaused {... */\n    tag_56:\n        /* \"@openzeppelin/contracts/security/Pausable.sol\":1412:1420  paused() */\n      tag_168\n        /* \"@openzeppelin/contracts/security/Pausable.sol\":1412:1418  paused */\n      tag_70\n        /* \"@openzeppelin/contracts/security/Pausable.sol\":1412:1420  paused() */\n      jump\t// in\n    tag_168:\n        /* \"@openzeppelin/contracts/security/Pausable.sol\":1411:1420  !paused() */\n      iszero\n        /* \"@openzeppelin/contracts/security/Pausable.sol\":1403:1441  require(!paused(), \"Pausable: paused\") */\n      tag_169\n      jumpi\n      mload(0x40)\n      0x08c379a000000000000000000000000000000000000000000000000000000000\n      dup2\n      mstore\n      0x04\n      add\n      tag_170\n      swap1\n      tag_171\n      jump\t// in\n    tag_170:\n      mload(0x40)\n      dup1\n      swap2\n      sub\n      swap1\n      revert\n    tag_169:\n        /* \"staking.sol\":4902:4911  level1Max */\n      sload(0x08)\n        /* \"staking.sol\":4891:4898  _amount */\n      dup2\n        /* \"staking.sol\":4891:4911  _amount <= level1Max */\n      gt\n      iszero\n        /* \"staking.sol\":4891:4935  _amount <= level1Max && _amount >= level1Min */\n      dup1\n      iszero\n      tag_173\n      jumpi\n      pop\n        /* \"staking.sol\":4926:4935  level1Min */\n      sload(0x07)\n        /* \"staking.sol\":4915:4922  _amount */\n      dup2\n        /* \"staking.sol\":4915:4935  _amount >= level1Min */\n      lt\n      iszero\n        /* \"staking.sol\":4891:4935  _amount <= level1Max && _amount >= level1Min */\n    tag_173:\n        /* \"staking.sol\":4883:4990  require(_amount <= level1Max && _amount >= level1Min, \"Amount needs to be more than min and less than max\") */\n      tag_174\n      jumpi\n      mload(0x40)\n      0x08c379a000000000000000000000000000000000000000000000000000000000\n      dup2\n      mstore\n      0x04\n      add\n      tag_175\n      swap1\n      tag_176\n      jump\t// in\n    tag_175:\n      mload(0x40)\n      dup1\n      swap2\n      sub\n      swap1\n      revert\n    tag_174:\n        /* \"staking.sol\":5000:5018  address _msgSender */\n      0x00\n        /* \"staking.sol\":5021:5031  msg.sender */\n      caller\n        /* \"staking.sol\":5000:5031  address _msgSender = msg.sender */\n      swap1\n      pop\n        /* \"staking.sol\":5052:5060  isLevel1 */\n      0x0e\n        /* \"staking.sol\":5052:5072  isLevel1[_msgSender] */\n      0x00\n        /* \"staking.sol\":5061:5071  _msgSender */\n      dup3\n        /* \"staking.sol\":5052:5072  isLevel1[_msgSender] */\n      0xffffffffffffffffffffffffffffffffffffffff\n      and\n      0xffffffffffffffffffffffffffffffffffffffff\n      and\n      dup2\n      mstore\n      0x20\n      add\n      swap1\n      dup2\n      mstore\n      0x20\n      add\n      0x00\n      keccak256\n      0x00\n      swap1\n      sload\n      swap1\n      0x0100\n      exp\n      swap1\n      div\n      0xff\n      and\n        /* \"staking.sol\":5051:5072  !isLevel1[_msgSender] */\n      iszero\n        /* \"staking.sol\":5043:5111  require(!isLevel1[_msgSender], \"You're already in this Stake level\") */\n      tag_177\n      jumpi\n      mload(0x40)\n      0x08c379a000000000000000000000000000000000000000000000000000000000\n      dup2\n      mstore\n      0x04\n      add\n      tag_178\n      swap1\n      tag_179\n      jump\t// in\n    tag_178:\n      mload(0x40)\n      dup1\n      swap2\n      sub\n      swap1\n      revert\n    tag_177:\n        /* \"staking.sol\":5128:5141  acceptedToken */\n      0x01\n      0x00\n      swap1\n      sload\n      swap1\n      0x0100\n      exp\n      swap1\n      div\n      0xffffffffffffffffffffffffffffffffffffffff\n      and\n        /* \"staking.sol\":5128:5154  acceptedToken.transferFrom */\n      0xffffffffffffffffffffffffffffffffffffffff\n      and\n      0x23b872dd\n        /* \"staking.sol\":5155:5165  _msgSender */\n      dup3\n        /* \"staking.sol\":5175:5179  this */\n      address\n        /* \"staking.sol\":5182:5189  _amount */\n      dup6\n        /* \"staking.sol\":5128:5190  acceptedToken.transferFrom(_msgSender, address(this), _amount) */\n      mload(0x40)\n      dup5\n      0xffffffff\n      and\n      0xe0\n      shl\n      dup2\n      mstore\n      0x04\n      add\n      tag_180\n      swap4\n      swap3\n      swap2\n      swap1\n      tag_181\n      jump\t// in\n    tag_180:\n      0x20\n      mload(0x40)\n      dup1\n      dup4\n      sub\n      dup2\n      0x00\n      dup8\n      dup1\n      extcodesize\n      iszero\n      dup1\n      iszero\n      tag_182\n      jumpi\n      0x00\n      dup1\n      revert\n    tag_182:\n      pop\n      gas\n      call\n      iszero\n      dup1\n      iszero\n      tag_184\n      jumpi\n      returndatasize\n      0x00\n      dup1\n      returndatacopy\n      revert(0x00, returndatasize)\n    tag_184:\n      pop\n      pop\n      pop\n      pop\n      mload(0x40)\n      returndatasize\n      not(0x1f)\n      0x1f\n      dup3\n      add\n      and\n      dup3\n      add\n      dup1\n      0x40\n      mstore\n      pop\n      dup2\n      add\n      swap1\n      tag_185\n      swap2\n      swap1\n      tag_186\n      jump\t// in\n    tag_185:\n      pop\n        /* \"staking.sol\":5224:5228  true */\n      0x01\n        /* \"staking.sol\":5201:5209  isLevel1 */\n      0x0e\n        /* \"staking.sol\":5201:5221  isLevel1[_msgSender] */\n      0x00\n        /* \"staking.sol\":5210:5220  _msgSender */\n      dup4\n        /* \"staking.sol\":5201:5221  isLevel1[_msgSender] */\n      0xffffffffffffffffffffffffffffffffffffffff\n      and\n      0xffffffffffffffffffffffffffffffffffffffff\n      and\n      dup2\n      mstore\n      0x20\n      add\n      swap1\n      dup2\n      mstore\n      0x20\n      add\n      0x00\n      keccak256\n      0x00\n        /* \"staking.sol\":5201:5228  isLevel1[_msgSender] = true */\n      0x0100\n      exp\n      dup2\n      sload\n      dup2\n      0xff\n      mul\n      not\n      and\n      swap1\n      dup4\n      iszero\n      iszero\n      mul\n      or\n      swap1\n      sstore\n      pop\n        /* \"staking.sol\":5266:5452  _user ({... */\n      mload(0x40)\n      dup1\n      0x60\n      add\n      0x40\n      mstore\n      dup1\n        /* \"staking.sol\":5295:5302  _amount */\n      dup4\n        /* \"staking.sol\":5266:5452  _user ({... */\n      dup2\n      mstore\n      0x20\n      add\n        /* \"staking.sol\":5328:5343  block.timestamp */\n      timestamp\n        /* \"staking.sol\":5266:5452  _user ({... */\n      dup2\n      mstore\n      0x20\n      add\n        /* \"staking.sol\":5438:5441  800 */\n      0x0320\n        /* \"staking.sol\":5420:5435  block.timestamp */\n      timestamp\n        /* \"staking.sol\":5420:5441  block.timestamp + 800 */\n      tag_187\n      swap2\n      swap1\n      tag_188\n      jump\t// in\n    tag_187:\n        /* \"staking.sol\":5266:5452  _user ({... */\n      dup2\n      mstore\n      pop\n        /* \"staking.sol\":5238:5251  level1Balance */\n      0x0f\n        /* \"staking.sol\":5238:5263  level1Balance[_msgSender] */\n      0x00\n        /* \"staking.sol\":5252:5262  _msgSender */\n      dup4\n        /* \"staking.sol\":5238:5263  level1Balance[_msgSender] */\n      0xffffffffffffffffffffffffffffffffffffffff\n      and\n      0xffffffffffffffffffffffffffffffffffffffff\n      and\n      dup2\n      mstore\n      0x20\n      add\n      swap1\n      dup2\n      mstore\n      0x20\n      add\n      0x00\n      keccak256\n        /* \"staking.sol\":5238:5452  level1Balance[_msgSender] = _user ({... */\n      0x00\n      dup3\n      add\n      mload\n      dup2\n      0x00\n      add\n      sstore\n      0x20\n      dup3\n      add\n      mload\n      dup2\n      0x01\n      add\n      sstore\n      0x40\n      dup3\n      add\n      mload\n      dup2\n      0x02\n      add\n      sstore\n      swap1\n      pop\n      pop\n        /* \"staking.sol\":5472:5548  deposit (_msgSender, 1, _amount, block.timestamp, block.timestamp + 30 days) */\n      0x17849bb8c713de96b48f218d3bacc9af082261c3ccc7c6dccebe70e667b22f23\n        /* \"staking.sol\":5481:5491  _msgSender */\n      dup2\n        /* \"staking.sol\":5493:5494  1 */\n      0x01\n        /* \"staking.sol\":5496:5503  _amount */\n      dup5\n        /* \"staking.sol\":5505:5520  block.timestamp */\n      timestamp\n        /* \"staking.sol\":5540:5547  30 days */\n      0x278d00\n        /* \"staking.sol\":5522:5537  block.timestamp */\n      timestamp\n        /* \"staking.sol\":5522:5547  block.timestamp + 30 days */\n      tag_189\n      swap2\n      swap1\n      tag_188\n      jump\t// in\n    tag_189:\n        /* \"staking.sol\":5472:5548  deposit (_msgSender, 1, _amount, block.timestamp, block.timestamp + 30 days) */\n      mload(0x40)\n      tag_190\n      swap6\n      swap5\n      swap4\n      swap3\n      swap2\n      swap1\n      tag_191\n      jump\t// in\n    tag_190:\n      mload(0x40)\n      dup1\n      swap2\n      sub\n      swap1\n      log1\n        /* \"staking.sol\":4873:5555  {... */\n      pop\n        /* \"staking.sol\":4813:5555  function enterLevel1 (uint256 _amount) public whenNotPaused {... */\n      pop\n      jump\t// out\n        /* \"staking.sol\":1271:1302  uint256 public level1APY = 3700 */\n    tag_58:\n      sload(0x03)\n      dup2\n      jump\t// out\n        /* \"staking.sol\":1308:1341  uint256 public vipLevelAPY = 4800 */\n    tag_61:\n      sload(0x04)\n      dup2\n      jump\t// out\n        /* \"staking.sol\":2786:2850  function unpause () public onlyOwner {... */\n    tag_64:\n        /* \"@openzeppelin/contracts/access/Ownable.sol\":1259:1271  _msgSender() */\n      tag_193\n        /* \"@openzeppelin/contracts/access/Ownable.sol\":1259:1269  _msgSender */\n      tag_194\n        /* \"@openzeppelin/contracts/access/Ownable.sol\":1259:1271  _msgSender() */\n      jump\t// in\n    tag_193:\n        /* \"@openzeppelin/contracts/access/Ownable.sol\":1248:1271  owner() == _msgSender() */\n      0xffffffffffffffffffffffffffffffffffffffff\n      and\n        /* \"@openzeppelin/contracts/access/Ownable.sol\":1248:1255  owner() */\n      tag_195\n        /* \"@openzeppelin/contracts/access/Ownable.sol\":1248:1253  owner */\n      tag_117\n        /* \"@openzeppelin/contracts/access/Ownable.sol\":1248:1255  owner() */\n      jump\t// in\n    tag_195:\n        /* \"@openzeppelin/contracts/access/Ownable.sol\":1248:1271  owner() == _msgSender() */\n      0xffffffffffffffffffffffffffffffffffffffff\n      and\n      eq\n        /* \"@openzeppelin/contracts/access/Ownable.sol\":1240:1308  require(owner() == _msgSender(), \"Ownable: caller is not the owner\") */\n      tag_196\n      jumpi\n      mload(0x40)\n      0x08c379a000000000000000000000000000000000000000000000000000000000\n      dup2\n      mstore\n      0x04\n      add\n      tag_197\n      swap1\n      tag_198\n      jump\t// in\n    tag_197:\n      mload(0x40)\n      dup1\n      swap2\n      sub\n      swap1\n      revert\n    tag_196:\n        /* \"staking.sol\":2833:2843  _unpause() */\n      tag_200\n        /* \"staking.sol\":2833:2841  _unpause */\n      tag_201\n        /* \"staking.sol\":2833:2843  _unpause() */\n      jump\t// in\n    tag_200:\n        /* \"staking.sol\":2786:2850  function unpause () public onlyOwner {... */\n      jump\t// out\n        /* \"staking.sol\":1024:1051  IERC20 public acceptedToken */\n    tag_66:\n      0x01\n      0x00\n      swap1\n      sload\n      swap1\n      0x0100\n      exp\n      swap1\n      div\n      0xffffffffffffffffffffffffffffffffffffffff\n      and\n      dup2\n      jump\t// out\n        /* \"@openzeppelin/contracts/security/Pausable.sol\":1098:1182  function paused() public view virtual returns (bool) {... */\n    tag_70:\n        /* \"@openzeppelin/contracts/security/Pausable.sol\":1145:1149  bool */\n      0x00\n        /* \"@openzeppelin/contracts/security/Pausable.sol\":1168:1175  _paused */\n      dup1\n      0x14\n      swap1\n      sload\n      swap1\n      0x0100\n      exp\n      swap1\n      div\n      0xff\n      and\n        /* \"@openzeppelin/contracts/security/Pausable.sol\":1161:1175  return _paused */\n      swap1\n      pop\n        /* \"@openzeppelin/contracts/security/Pausable.sol\":1098:1182  function paused() public view virtual returns (bool) {... */\n      swap1\n      jump\t// out\n        /* \"staking.sol\":1788:1829  mapping (address => bool) public isLevel0 */\n    tag_76:\n      mstore(0x20, 0x0c)\n      dup1\n      0x00\n      mstore\n      keccak256(0x00, 0x40)\n      0x00\n      swap2\n      pop\n      sload\n      swap1\n      0x0100\n      exp\n      swap1\n      div\n      0xff\n      and\n      dup2\n      jump\t// out\n        /* \"staking.sol\":1888:1929  mapping (address => bool) public isLevel1 */\n    tag_80:\n      mstore(0x20, 0x0e)\n      dup1\n      0x00\n      mstore\n      keccak256(0x00, 0x40)\n      0x00\n      swap2\n      pop\n      sload\n      swap1\n      0x0100\n      exp\n      swap1\n      div\n      0xff\n      and\n      dup2\n      jump\t// out\n        /* \"staking.sol\":1382:1420  uint256 public level0Min = 50 * 10**18 */\n    tag_83:\n      sload(0x05)\n      dup2\n      jump\t// out\n        /* \"staking.sol\":10786:11746  function withdrawVip (uint256 _amount) public  {... */\n    tag_87:\n        /* \"staking.sol\":10843:10861  address _msgSender */\n      0x00\n        /* \"staking.sol\":10864:10874  msg.sender */\n      caller\n        /* \"staking.sol\":10843:10874  address _msgSender = msg.sender */\n      swap1\n      pop\n        /* \"staking.sol\":10892:10897  isVip */\n      0x10\n        /* \"staking.sol\":10892:10909  isVip[_msgSender] */\n      0x00\n        /* \"staking.sol\":10898:10908  _msgSender */\n      dup3\n        /* \"staking.sol\":10892:10909  isVip[_msgSender] */\n      0xffffffffffffffffffffffffffffffffffffffff\n      and\n      0xffffffffffffffffffffffffffffffffffffffff\n      and\n      dup2\n      mstore\n      0x20\n      add\n      swap1\n      dup2\n      mstore\n      0x20\n      add\n      0x00\n      keccak256\n      0x00\n      swap1\n      sload\n      swap1\n      0x0100\n      exp\n      swap1\n      div\n      0xff\n      and\n        /* \"staking.sol\":10884:10929  require(isVip[_msgSender], \"User is not Vip\") */\n      tag_204\n      jumpi\n      mload(0x40)\n      0x08c379a000000000000000000000000000000000000000000000000000000000\n      dup2\n      mstore\n      0x04\n      add\n      tag_205\n      swap1\n      tag_206\n      jump\t// in\n    tag_205:\n      mload(0x40)\n      dup1\n      swap2\n      sub\n      swap1\n      revert\n    tag_204:\n        /* \"staking.sol\":10944:10959  uint256 balance */\n      0x00\n        /* \"staking.sol\":10962:10972  vipBalance */\n      0x11\n        /* \"staking.sol\":10962:10984  vipBalance[_msgSender] */\n      0x00\n        /* \"staking.sol\":10973:10983  _msgSender */\n      dup4\n        /* \"staking.sol\":10962:10984  vipBalance[_msgSender] */\n      0xffffffffffffffffffffffffffffffffffffffff\n      and\n      0xffffffffffffffffffffffffffffffffffffffff\n      and\n      dup2\n      mstore\n      0x20\n      add\n      swap1\n      dup2\n      mstore\n      0x20\n      add\n      0x00\n      keccak256\n        /* \"staking.sol\":10962:10992  vipBalance[_msgSender].balance */\n      0x00\n      add\n      sload\n        /* \"staking.sol\":10944:10992  uint256 balance = vipBalance[_msgSender].balance */\n      swap1\n      pop\n        /* \"staking.sol\":11021:11028  _amount */\n      dup3\n        /* \"staking.sol\":11010:11017  balance */\n      dup2\n        /* \"staking.sol\":11010:11028  balance >= _amount */\n      lt\n      iszero\n        /* \"staking.sol\":11002:11063  require(balance >= _amount, \"Not enough balance to withdraw\") */\n      tag_207\n      jumpi\n      mload(0x40)\n      0x08c379a000000000000000000000000000000000000000000000000000000000\n      dup2\n      mstore\n      0x04\n      add\n      tag_208\n      swap1\n      tag_209\n      jump\t// in\n    tag_208:\n      mload(0x40)\n      dup1\n      swap2\n      sub\n      swap1\n      revert\n    tag_207:\n        /* \"staking.sol\":11074:11088  bool _isOnTime */\n      0x00\n        /* \"staking.sol\":11091:11114  isOnTime(_msgSender, 2) */\n      tag_210\n        /* \"staking.sol\":11100:11110  _msgSender */\n      dup4\n        /* \"staking.sol\":11112:11113  2 */\n      0x02\n        /* \"staking.sol\":11091:11099  isOnTime */\n      tag_162\n        /* \"staking.sol\":11091:11114  isOnTime(_msgSender, 2) */\n      jump\t// in\n    tag_210:\n        /* \"staking.sol\":11074:11114  bool _isOnTime = isOnTime(_msgSender, 2) */\n      swap1\n      pop\n        /* \"staking.sol\":11124:11140  uint256 earnings */\n      0x00\n        /* \"staking.sol\":11143:11178  getInterest(_msgSender, 2, _amount) */\n      tag_211\n        /* \"staking.sol\":11155:11165  _msgSender */\n      dup5\n        /* \"staking.sol\":11167:11168  2 */\n      0x02\n        /* \"staking.sol\":11170:11177  _amount */\n      dup8\n        /* \"staking.sol\":11143:11154  getInterest */\n      tag_96\n        /* \"staking.sol\":11143:11178  getInterest(_msgSender, 2, _amount) */\n      jump\t// in\n    tag_211:\n        /* \"staking.sol\":11124:11178  uint256 earnings = getInterest(_msgSender, 2, _amount) */\n      swap1\n      pop\n        /* \"staking.sol\":11203:11210  balance */\n      dup3\n        /* \"staking.sol\":11192:11199  _amount */\n      dup6\n        /* \"staking.sol\":11192:11210  _amount == balance */\n      eq\n        /* \"staking.sol\":11189:11381  if(_amount == balance){... */\n      iszero\n      tag_212\n      jumpi\n        /* \"staking.sol\":11232:11242  vipBalance */\n      0x11\n        /* \"staking.sol\":11232:11254  vipBalance[_msgSender] */\n      0x00\n        /* \"staking.sol\":11243:11253  _msgSender */\n      dup6\n        /* \"staking.sol\":11232:11254  vipBalance[_msgSender] */\n      0xffffffffffffffffffffffffffffffffffffffff\n      and\n      0xffffffffffffffffffffffffffffffffffffffff\n      and\n      dup2\n      mstore\n      0x20\n      add\n      swap1\n      dup2\n      mstore\n      0x20\n      add\n      0x00\n      keccak256\n      0x00\n        /* \"staking.sol\":11225:11254  delete vipBalance[_msgSender] */\n      dup1\n      dup3\n      add\n      0x00\n      swap1\n      sstore\n      0x01\n      dup3\n      add\n      0x00\n      swap1\n      sstore\n      0x02\n      dup3\n      add\n      0x00\n      swap1\n      sstore\n      pop\n      pop\n        /* \"staking.sol\":11293:11298  false */\n      0x00\n        /* \"staking.sol\":11273:11278  isVip */\n      0x10\n        /* \"staking.sol\":11273:11290  isVip[_msgSender] */\n      0x00\n        /* \"staking.sol\":11279:11289  _msgSender */\n      dup7\n        /* \"staking.sol\":11273:11290  isVip[_msgSender] */\n      0xffffffffffffffffffffffffffffffffffffffff\n      and\n      0xffffffffffffffffffffffffffffffffffffffff\n      and\n      dup2\n      mstore\n      0x20\n      add\n      swap1\n      dup2\n      mstore\n      0x20\n      add\n      0x00\n      keccak256\n      0x00\n        /* \"staking.sol\":11273:11298  isVip[_msgSender] = false */\n      0x0100\n      exp\n      dup2\n      sload\n      dup2\n      0xff\n      mul\n      not\n      and\n      swap1\n      dup4\n      iszero\n      iszero\n      mul\n      or\n      swap1\n      sstore\n      pop\n        /* \"staking.sol\":11189:11381  if(_amount == balance){... */\n      jump(tag_213)\n    tag_212:\n        /* \"staking.sol\":11363:11370  _amount */\n      dup5\n        /* \"staking.sol\":11329:11339  vipBalance */\n      0x11\n        /* \"staking.sol\":11329:11351  vipBalance[_msgSender] */\n      0x00\n        /* \"staking.sol\":11340:11350  _msgSender */\n      dup7\n        /* \"staking.sol\":11329:11351  vipBalance[_msgSender] */\n      0xffffffffffffffffffffffffffffffffffffffff\n      and\n      0xffffffffffffffffffffffffffffffffffffffff\n      and\n      dup2\n      mstore\n      0x20\n      add\n      swap1\n      dup2\n      mstore\n      0x20\n      add\n      0x00\n      keccak256\n        /* \"staking.sol\":11329:11359  vipBalance[_msgSender].balance */\n      0x00\n      add\n      0x00\n        /* \"staking.sol\":11329:11370  vipBalance[_msgSender].balance -= _amount */\n      dup3\n      dup3\n      sload\n      tag_214\n      swap2\n      swap1\n      tag_215\n      jump\t// in\n    tag_214:\n      swap3\n      pop\n      pop\n      dup2\n      swap1\n      sstore\n      pop\n        /* \"staking.sol\":11189:11381  if(_amount == balance){... */\n    tag_213:\n        /* \"staking.sol\":11394:11403  _isOnTime */\n      dup2\n        /* \"staking.sol\":11391:11671  if(_isOnTime){... */\n      iszero\n      tag_216\n      jumpi\n        /* \"staking.sol\":11418:11431  acceptedToken */\n      0x01\n      0x00\n      swap1\n      sload\n      swap1\n      0x0100\n      exp\n      swap1\n      div\n      0xffffffffffffffffffffffffffffffffffffffff\n      and\n        /* \"staking.sol\":11418:11440  acceptedToken.transfer */\n      0xffffffffffffffffffffffffffffffffffffffff\n      and\n      0xa9059cbb\n        /* \"staking.sol\":11441:11451  _msgSender */\n      dup6\n        /* \"staking.sol\":11453:11460  _amount */\n      dup8\n        /* \"staking.sol\":11418:11461  acceptedToken.transfer(_msgSender, _amount) */\n      mload(0x40)\n      dup4\n      0xffffffff\n      and\n      0xe0\n      shl\n      dup2\n      mstore\n      0x04\n      add\n      tag_217\n      swap3\n      swap2\n      swap1\n      tag_218\n      jump\t// in\n    tag_217:\n      0x20\n      mload(0x40)\n      dup1\n      dup4\n      sub\n      dup2\n      0x00\n      dup8\n      dup1\n      extcodesize\n      iszero\n      dup1\n      iszero\n      tag_219\n      jumpi\n      0x00\n      dup1\n      revert\n    tag_219:\n      pop\n      gas\n      call\n      iszero\n      dup1\n      iszero\n      tag_221\n      jumpi\n      returndatasize\n      0x00\n      dup1\n      returndatacopy\n      revert(0x00, returndatasize)\n    tag_221:\n      pop\n      pop\n      pop\n      pop\n      mload(0x40)\n      returndatasize\n      not(0x1f)\n      0x1f\n      dup3\n      add\n      and\n      dup3\n      add\n      dup1\n      0x40\n      mstore\n      pop\n      dup2\n      add\n      swap1\n      tag_222\n      swap2\n      swap1\n      tag_186\n      jump\t// in\n    tag_222:\n      pop\n        /* \"staking.sol\":11475:11488  acceptedToken */\n      0x01\n      0x00\n      swap1\n      sload\n      swap1\n      0x0100\n      exp\n      swap1\n      div\n      0xffffffffffffffffffffffffffffffffffffffff\n      and\n        /* \"staking.sol\":11475:11501  acceptedToken.transferFrom */\n      0xffffffffffffffffffffffffffffffffffffffff\n      and\n      0x23b872dd\n        /* \"staking.sol\":11502:11515  reserveWallet */\n      0x0b\n      0x00\n      swap1\n      sload\n      swap1\n      0x0100\n      exp\n      swap1\n      div\n      0xffffffffffffffffffffffffffffffffffffffff\n      and\n        /* \"staking.sol\":11517:11527  _msgSender */\n      dup7\n        /* \"staking.sol\":11529:11537  earnings */\n      dup5\n        /* \"staking.sol\":11475:11538  acceptedToken.transferFrom(reserveWallet, _msgSender, earnings) */\n      mload(0x40)\n      dup5\n      0xffffffff\n      and\n      0xe0\n      shl\n      dup2\n      mstore\n      0x04\n      add\n      tag_223\n      swap4\n      swap3\n      swap2\n      swap1\n      tag_181\n      jump\t// in\n    tag_223:\n      0x20\n      mload(0x40)\n      dup1\n      dup4\n      sub\n      dup2\n      0x00\n      dup8\n      dup1\n      extcodesize\n      iszero\n      dup1\n      iszero\n      tag_224\n      jumpi\n      0x00\n      dup1\n      revert\n    tag_224:\n      pop\n      gas\n      call\n      iszero\n      dup1\n      iszero\n      tag_226\n      jumpi\n      returndatasize\n      0x00\n      dup1\n      returndatacopy\n      revert(0x00, returndatasize)\n    tag_226:\n      pop\n      pop\n      pop\n      pop\n      mload(0x40)\n      returndatasize\n      not(0x1f)\n      0x1f\n      dup3\n      add\n      and\n      dup3\n      add\n      dup1\n      0x40\n      mstore\n      pop\n      dup2\n      add\n      swap1\n      tag_227\n      swap2\n      swap1\n      tag_186\n      jump\t// in\n    tag_227:\n      pop\n        /* \"staking.sol\":11391:11671  if(_isOnTime){... */\n      jump(tag_228)\n    tag_216:\n        /* \"staking.sol\":11580:11581  0 */\n      0x00\n        /* \"staking.sol\":11569:11581  earnings = 0 */\n      swap1\n      pop\n        /* \"staking.sol\":11606:11619  acceptedToken */\n      0x01\n      0x00\n      swap1\n      sload\n      swap1\n      0x0100\n      exp\n      swap1\n      div\n      0xffffffffffffffffffffffffffffffffffffffff\n      and\n        /* \"staking.sol\":11606:11628  acceptedToken.transfer */\n      0xffffffffffffffffffffffffffffffffffffffff\n      and\n      0xa9059cbb\n        /* \"staking.sol\":11629:11639  _msgSender */\n      dup6\n        /* \"staking.sol\":11641:11648  _amount */\n      dup8\n        /* \"staking.sol\":11606:11649  acceptedToken.transfer(_msgSender, _amount) */\n      mload(0x40)\n      dup4\n      0xffffffff\n      and\n      0xe0\n      shl\n      dup2\n      mstore\n      0x04\n      add\n      tag_229\n      swap3\n      swap2\n      swap1\n      tag_218\n      jump\t// in\n    tag_229:\n      0x20\n      mload(0x40)\n      dup1\n      dup4\n      sub\n      dup2\n      0x00\n      dup8\n      dup1\n      extcodesize\n      iszero\n      dup1\n      iszero\n      tag_230\n      jumpi\n      0x00\n      dup1\n      revert\n    tag_230:\n      pop\n      gas\n      call\n      iszero\n      dup1\n      iszero\n      tag_232\n      jumpi\n      returndatasize\n      0x00\n      dup1\n      returndatacopy\n      revert(0x00, returndatasize)\n    tag_232:\n      pop\n      pop\n      pop\n      pop\n      mload(0x40)\n      returndatasize\n      not(0x1f)\n      0x1f\n      dup3\n      add\n      and\n      dup3\n      add\n      dup1\n      0x40\n      mstore\n      pop\n      dup2\n      add\n      swap1\n      tag_233\n      swap2\n      swap1\n      tag_186\n      jump\t// in\n    tag_233:\n      pop\n        /* \"staking.sol\":11391:11671  if(_isOnTime){... */\n    tag_228:\n        /* \"staking.sol\":11686:11739  withdraw(_msgSender, 2, _isOnTime, _amount, earnings) */\n      0xa3dff5863d601223d9b31a0253b97a6c2085daca56089b92836b4b6a1991e04b\n        /* \"staking.sol\":11695:11705  _msgSender */\n      dup5\n        /* \"staking.sol\":11707:11708  2 */\n      0x02\n        /* \"staking.sol\":11710:11719  _isOnTime */\n      dup5\n        /* \"staking.sol\":11721:11728  _amount */\n      dup9\n        /* \"staking.sol\":11730:11738  earnings */\n      dup6\n        /* \"staking.sol\":11686:11739  withdraw(_msgSender, 2, _isOnTime, _amount, earnings) */\n      mload(0x40)\n      tag_234\n      swap6\n      swap5\n      swap4\n      swap3\n      swap2\n      swap1\n      tag_235\n      jump\t// in\n    tag_234:\n      mload(0x40)\n      dup1\n      swap2\n      sub\n      swap1\n      log1\n        /* \"staking.sol\":10833:11746  {... */\n      pop\n      pop\n      pop\n      pop\n        /* \"staking.sol\":10786:11746  function withdrawVip (uint256 _amount) public  {... */\n      pop\n      jump\t// out\n        /* \"staking.sol\":1835:1882  mapping (address => _user) public level0Balance */\n    tag_90:\n      mstore(0x20, 0x0d)\n      dup1\n      0x00\n      mstore\n      keccak256(0x00, 0x40)\n      0x00\n      swap2\n      pop\n      swap1\n      pop\n      dup1\n      0x00\n      add\n      sload\n      swap1\n      dup1\n      0x01\n      add\n      sload\n      swap1\n      dup1\n      0x02\n      add\n      sload\n      swap1\n      pop\n      dup4\n      jump\t// out\n        /* \"staking.sol\":7281:7967  function getInterest (address user, uint8 class, uint256 balance) public view returns (uint256){... */\n    tag_96:\n        /* \"staking.sol\":7368:7375  uint256 */\n      0x00\n        /* \"staking.sol\":7398:7399  0 */\n      dup1\n        /* \"staking.sol\":7389:7394  class */\n      dup4\n        /* \"staking.sol\":7389:7399  class == 0 */\n      0xff\n      and\n      eq\n        /* \"staking.sol\":7386:7961  if(class == 0){           ... */\n      iszero\n      tag_237\n      jumpi\n        /* \"staking.sol\":7425:7445  uint256 _timeStarted */\n      0x00\n        /* \"staking.sol\":7448:7461  level0Balance */\n      0x0d\n        /* \"staking.sol\":7448:7467  level0Balance[user] */\n      0x00\n        /* \"staking.sol\":7462:7466  user */\n      dup7\n        /* \"staking.sol\":7448:7467  level0Balance[user] */\n      0xffffffffffffffffffffffffffffffffffffffff\n      and\n      0xffffffffffffffffffffffffffffffffffffffff\n      and\n      dup2\n      mstore\n      0x20\n      add\n      swap1\n      dup2\n      mstore\n      0x20\n      add\n      0x00\n      keccak256\n        /* \"staking.sol\":7448:7479  level0Balance[user].timeStarted */\n      0x01\n      add\n      sload\n        /* \"staking.sol\":7425:7479  uint256 _timeStarted = level0Balance[user].timeStarted */\n      swap1\n      pop\n        /* \"staking.sol\":7501:7551  calculateInterest(balance,_timeStarted, level0APY) */\n      tag_238\n        /* \"staking.sol\":7519:7526  balance */\n      dup4\n        /* \"staking.sol\":7527:7539  _timeStarted */\n      dup3\n        /* \"staking.sol\":7541:7550  level0APY */\n      sload(0x02)\n        /* \"staking.sol\":7501:7518  calculateInterest */\n      tag_239\n        /* \"staking.sol\":7501:7551  calculateInterest(balance,_timeStarted, level0APY) */\n      jump\t// in\n    tag_238:\n        /* \"staking.sol\":7494:7551  return calculateInterest(balance,_timeStarted, level0APY) */\n      swap2\n      pop\n      pop\n      jump(tag_236)\n        /* \"staking.sol\":7386:7961  if(class == 0){           ... */\n    tag_237:\n        /* \"staking.sol\":7581:7582  1 */\n      0x01\n        /* \"staking.sol\":7572:7577  class */\n      dup4\n        /* \"staking.sol\":7572:7582  class == 1 */\n      0xff\n      and\n      eq\n        /* \"staking.sol\":7568:7961  if (class == 1){      ... */\n      iszero\n      tag_241\n      jumpi\n        /* \"staking.sol\":7603:7623  uint256 _timeStarted */\n      0x00\n        /* \"staking.sol\":7626:7639  level1Balance */\n      0x0f\n        /* \"staking.sol\":7626:7645  level1Balance[user] */\n      0x00\n        /* \"staking.sol\":7640:7644  user */\n      dup7\n        /* \"staking.sol\":7626:7645  level1Balance[user] */\n      0xffffffffffffffffffffffffffffffffffffffff\n      and\n      0xffffffffffffffffffffffffffffffffffffffff\n      and\n      dup2\n      mstore\n      0x20\n      add\n      swap1\n      dup2\n      mstore\n      0x20\n      add\n      0x00\n      keccak256\n        /* \"staking.sol\":7626:7657  level1Balance[user].timeStarted */\n      0x01\n      add\n      sload\n        /* \"staking.sol\":7603:7657  uint256 _timeStarted = level1Balance[user].timeStarted */\n      swap1\n      pop\n        /* \"staking.sol\":7679:7729  calculateInterest(balance,_timeStarted, level1APY) */\n      tag_242\n        /* \"staking.sol\":7697:7704  balance */\n      dup4\n        /* \"staking.sol\":7705:7717  _timeStarted */\n      dup3\n        /* \"staking.sol\":7719:7728  level1APY */\n      sload(0x03)\n        /* \"staking.sol\":7679:7696  calculateInterest */\n      tag_239\n        /* \"staking.sol\":7679:7729  calculateInterest(balance,_timeStarted, level1APY) */\n      jump\t// in\n    tag_242:\n        /* \"staking.sol\":7672:7729  return calculateInterest(balance,_timeStarted, level1APY) */\n      swap2\n      pop\n      pop\n      jump(tag_236)\n        /* \"staking.sol\":7568:7961  if (class == 1){      ... */\n    tag_241:\n        /* \"staking.sol\":7759:7760  2 */\n      0x02\n        /* \"staking.sol\":7750:7755  class */\n      dup4\n        /* \"staking.sol\":7750:7760  class == 2 */\n      0xff\n      and\n      eq\n        /* \"staking.sol\":7746:7961  if (class == 2){           ... */\n      iszero\n      tag_244\n      jumpi\n        /* \"staking.sol\":7786:7806  uint256 _timeStarted */\n      0x00\n        /* \"staking.sol\":7809:7819  vipBalance */\n      0x11\n        /* \"staking.sol\":7809:7825  vipBalance[user] */\n      0x00\n        /* \"staking.sol\":7820:7824  user */\n      dup7\n        /* \"staking.sol\":7809:7825  vipBalance[user] */\n      0xffffffffffffffffffffffffffffffffffffffff\n      and\n      0xffffffffffffffffffffffffffffffffffffffff\n      and\n      dup2\n      mstore\n      0x20\n      add\n      swap1\n      dup2\n      mstore\n      0x20\n      add\n      0x00\n      keccak256\n        /* \"staking.sol\":7809:7837  vipBalance[user].timeStarted */\n      0x01\n      add\n      sload\n        /* \"staking.sol\":7786:7837  uint256 _timeStarted = vipBalance[user].timeStarted */\n      swap1\n      pop\n        /* \"staking.sol\":7859:7911  calculateInterest(balance,_timeStarted, vipLevelAPY) */\n      tag_245\n        /* \"staking.sol\":7877:7884  balance */\n      dup4\n        /* \"staking.sol\":7885:7897  _timeStarted */\n      dup3\n        /* \"staking.sol\":7899:7910  vipLevelAPY */\n      sload(0x04)\n        /* \"staking.sol\":7859:7876  calculateInterest */\n      tag_239\n        /* \"staking.sol\":7859:7911  calculateInterest(balance,_timeStarted, vipLevelAPY) */\n      jump\t// in\n    tag_245:\n        /* \"staking.sol\":7852:7911  return calculateInterest(balance,_timeStarted, vipLevelAPY) */\n      swap2\n      pop\n      pop\n      jump(tag_236)\n        /* \"staking.sol\":7746:7961  if (class == 2){           ... */\n    tag_244:\n        /* \"staking.sol\":7949:7950  0 */\n      0x00\n        /* \"staking.sol\":7942:7950  return 0 */\n      swap1\n      pop\n        /* \"staking.sol\":7281:7967  function getInterest (address user, uint8 class, uint256 balance) public view returns (uint256){... */\n    tag_236:\n      swap4\n      swap3\n      pop\n      pop\n      pop\n      jump\t// out\n        /* \"@openzeppelin/contracts/access/Ownable.sol\":1668:1769  function renounceOwnership() public virtual onlyOwner {... */\n    tag_99:\n        /* \"@openzeppelin/contracts/access/Ownable.sol\":1259:1271  _msgSender() */\n      tag_248\n        /* \"@openzeppelin/contracts/access/Ownable.sol\":1259:1269  _msgSender */\n      tag_194\n        /* \"@openzeppelin/contracts/access/Ownable.sol\":1259:1271  _msgSender() */\n      jump\t// in\n    tag_248:\n        /* \"@openzeppelin/contracts/access/Ownable.sol\":1248:1271  owner() == _msgSender() */\n      0xffffffffffffffffffffffffffffffffffffffff\n      and\n        /* \"@openzeppelin/contracts/access/Ownable.sol\":1248:1255  owner() */\n      tag_249\n        /* \"@openzeppelin/contracts/access/Ownable.sol\":1248:1253  owner */\n      tag_117\n        /* \"@openzeppelin/contracts/access/Ownable.sol\":1248:1255  owner() */\n      jump\t// in\n    tag_249:\n        /* \"@openzeppelin/contracts/access/Ownable.sol\":1248:1271  owner() == _msgSender() */\n      0xffffffffffffffffffffffffffffffffffffffff\n      and\n      eq\n        /* \"@openzeppelin/contracts/access/Ownable.sol\":1240:1308  require(owner() == _msgSender(), \"Ownable: caller is not the owner\") */\n      tag_250\n      jumpi\n      mload(0x40)\n      0x08c379a000000000000000000000000000000000000000000000000000000000\n      dup2\n      mstore\n      0x04\n      add\n      tag_251\n      swap1\n      tag_198\n      jump\t// in\n    tag_251:\n      mload(0x40)\n      dup1\n      swap2\n      sub\n      swap1\n      revert\n    tag_250:\n        /* \"@openzeppelin/contracts/access/Ownable.sol\":1732:1762  _transferOwnership(address(0)) */\n      tag_253\n        /* \"@openzeppelin/contracts/access/Ownable.sol\":1759:1760  0 */\n      0x00\n        /* \"@openzeppelin/contracts/access/Ownable.sol\":1732:1750  _transferOwnership */\n      tag_254\n        /* \"@openzeppelin/contracts/access/Ownable.sol\":1732:1762  _transferOwnership(address(0)) */\n      jump\t// in\n    tag_253:\n        /* \"@openzeppelin/contracts/access/Ownable.sol\":1668:1769  function renounceOwnership() public virtual onlyOwner {... */\n      jump\t// out\n        /* \"staking.sol\":1426:1471  uint256 public level0Max = 500000000 * 10**18 */\n    tag_101:\n      sload(0x06)\n      dup2\n      jump\t// out\n        /* \"staking.sol\":1935:1982  mapping (address => _user) public level1Balance */\n    tag_105:\n      mstore(0x20, 0x0f)\n      dup1\n      0x00\n      mstore\n      keccak256(0x00, 0x40)\n      0x00\n      swap2\n      pop\n      swap1\n      pop\n      dup1\n      0x00\n      add\n      sload\n      swap1\n      dup1\n      0x01\n      add\n      sload\n      swap1\n      dup1\n      0x02\n      add\n      sload\n      swap1\n      pop\n      dup4\n      jump\t// out\n        /* \"staking.sol\":1233:1265  uint256 public level0APY =  2700 */\n    tag_108:\n      sload(0x02)\n      dup2\n      jump\t// out\n        /* \"staking.sol\":1988:2026  mapping (address => bool) public isVip */\n    tag_112:\n      mstore(0x20, 0x10)\n      dup1\n      0x00\n      mstore\n      keccak256(0x00, 0x40)\n      0x00\n      swap2\n      pop\n      sload\n      swap1\n      0x0100\n      exp\n      swap1\n      div\n      0xff\n      and\n      dup2\n      jump\t// out\n        /* \"staking.sol\":2716:2776  function pause () public onlyOwner {... */\n    tag_115:\n        /* \"@openzeppelin/contracts/access/Ownable.sol\":1259:1271  _msgSender() */\n      tag_256\n        /* \"@openzeppelin/contracts/access/Ownable.sol\":1259:1269  _msgSender */\n      tag_194\n        /* \"@openzeppelin/contracts/access/Ownable.sol\":1259:1271  _msgSender() */\n      jump\t// in\n    tag_256:\n        /* \"@openzeppelin/contracts/access/Ownable.sol\":1248:1271  owner() == _msgSender() */\n      0xffffffffffffffffffffffffffffffffffffffff\n      and\n        /* \"@openzeppelin/contracts/access/Ownable.sol\":1248:1255  owner() */\n      tag_257\n        /* \"@openzeppelin/contracts/access/Ownable.sol\":1248:1253  owner */\n      tag_117\n        /* \"@openzeppelin/contracts/access/Ownable.sol\":1248:1255  owner() */\n      jump\t// in\n    tag_257:\n        /* \"@openzeppelin/contracts/access/Ownable.sol\":1248:1271  owner() == _msgSender() */\n      0xffffffffffffffffffffffffffffffffffffffff\n      and\n      eq\n        /* \"@openzeppelin/contracts/access/Ownable.sol\":1240:1308  require(owner() == _msgSender(), \"Ownable: caller is not the owner\") */\n      tag_258\n      jumpi\n      mload(0x40)\n      0x08c379a000000000000000000000000000000000000000000000000000000000\n      dup2\n      mstore\n      0x04\n      add\n      tag_259\n      swap1\n      tag_198\n      jump\t// in\n    tag_259:\n      mload(0x40)\n      dup1\n      swap2\n      sub\n      swap1\n      revert\n    tag_258:\n        /* \"staking.sol\":2761:2769  _pause() */\n      tag_261\n        /* \"staking.sol\":2761:2767  _pause */\n      tag_262\n        /* \"staking.sol\":2761:2769  _pause() */\n      jump\t// in\n    tag_261:\n        /* \"staking.sol\":2716:2776  function pause () public onlyOwner {... */\n      jump\t// out\n        /* \"@openzeppelin/contracts/access/Ownable.sol\":1036:1121  function owner() public view virtual returns (address) {... */\n    tag_117:\n        /* \"@openzeppelin/contracts/access/Ownable.sol\":1082:1089  address */\n      0x00\n        /* \"@openzeppelin/contracts/access/Ownable.sol\":1108:1114  _owner */\n      dup1\n      0x00\n      swap1\n      sload\n      swap1\n      0x0100\n      exp\n      swap1\n      div\n      0xffffffffffffffffffffffffffffffffffffffff\n      and\n        /* \"@openzeppelin/contracts/access/Ownable.sol\":1101:1114  return _owner */\n      swap1\n      pop\n        /* \"@openzeppelin/contracts/access/Ownable.sol\":1036:1121  function owner() public view virtual returns (address) {... */\n      swap1\n      jump\t// out\n        /* \"staking.sol\":1620:1668  uint256 public levelVipMax = 2500000000 * 10**18 */\n    tag_121:\n      sload(0x0a)\n      dup2\n      jump\t// out\n        /* \"staking.sol\":1573:1614  uint256 public levelVipMin = 200 * 10**18 */\n    tag_124:\n      sload(0x09)\n      dup2\n      jump\t// out\n        /* \"staking.sol\":8495:9490  function withdrawLevel0 (uint256 _amount) public  {... */\n    tag_128:\n        /* \"staking.sol\":8555:8573  address _msgSender */\n      0x00\n        /* \"staking.sol\":8576:8586  msg.sender */\n      caller\n        /* \"staking.sol\":8555:8586  address _msgSender = msg.sender */\n      swap1\n      pop\n        /* \"staking.sol\":8604:8612  isLevel0 */\n      0x0c\n        /* \"staking.sol\":8604:8624  isLevel0[_msgSender] */\n      0x00\n        /* \"staking.sol\":8613:8623  _msgSender */\n      dup3\n        /* \"staking.sol\":8604:8624  isLevel0[_msgSender] */\n      0xffffffffffffffffffffffffffffffffffffffff\n      and\n      0xffffffffffffffffffffffffffffffffffffffff\n      and\n      dup2\n      mstore\n      0x20\n      add\n      swap1\n      dup2\n      mstore\n      0x20\n      add\n      0x00\n      keccak256\n      0x00\n      swap1\n      sload\n      swap1\n      0x0100\n      exp\n      swap1\n      div\n      0xff\n      and\n        /* \"staking.sol\":8596:8651  require(isLevel0[_msgSender], \"User is not on Level 0\") */\n      tag_265\n      jumpi\n      mload(0x40)\n      0x08c379a000000000000000000000000000000000000000000000000000000000\n      dup2\n      mstore\n      0x04\n      add\n      tag_266\n      swap1\n      tag_267\n      jump\t// in\n    tag_266:\n      mload(0x40)\n      dup1\n      swap2\n      sub\n      swap1\n      revert\n    tag_265:\n        /* \"staking.sol\":8662:8677  uint256 balance */\n      0x00\n        /* \"staking.sol\":8680:8693  level0Balance */\n      0x0d\n        /* \"staking.sol\":8680:8705  level0Balance[_msgSender] */\n      0x00\n        /* \"staking.sol\":8694:8704  _msgSender */\n      dup4\n        /* \"staking.sol\":8680:8705  level0Balance[_msgSender] */\n      0xffffffffffffffffffffffffffffffffffffffff\n      and\n      0xffffffffffffffffffffffffffffffffffffffff\n      and\n      dup2\n      mstore\n      0x20\n      add\n      swap1\n      dup2\n      mstore\n      0x20\n      add\n      0x00\n      keccak256\n        /* \"staking.sol\":8680:8713  level0Balance[_msgSender].balance */\n      0x00\n      add\n      sload\n        /* \"staking.sol\":8662:8713  uint256 balance = level0Balance[_msgSender].balance */\n      swap1\n      pop\n        /* \"staking.sol\":8742:8749  _amount */\n      dup3\n        /* \"staking.sol\":8731:8738  balance */\n      dup2\n        /* \"staking.sol\":8731:8749  balance >= _amount */\n      lt\n      iszero\n        /* \"staking.sol\":8723:8784  require(balance >= _amount, \"Not enough balance to withdraw\") */\n      tag_268\n      jumpi\n      mload(0x40)\n      0x08c379a000000000000000000000000000000000000000000000000000000000\n      dup2\n      mstore\n      0x04\n      add\n      tag_269\n      swap1\n      tag_209\n      jump\t// in\n    tag_269:\n      mload(0x40)\n      dup1\n      swap2\n      sub\n      swap1\n      revert\n    tag_268:\n        /* \"staking.sol\":8795:8809  bool _isOnTime */\n      0x00\n        /* \"staking.sol\":8812:8835  isOnTime(_msgSender, 0) */\n      tag_270\n        /* \"staking.sol\":8821:8831  _msgSender */\n      dup4\n        /* \"staking.sol\":8833:8834  0 */\n      0x00\n        /* \"staking.sol\":8812:8820  isOnTime */\n      tag_162\n        /* \"staking.sol\":8812:8835  isOnTime(_msgSender, 0) */\n      jump\t// in\n    tag_270:\n        /* \"staking.sol\":8795:8835  bool _isOnTime = isOnTime(_msgSender, 0) */\n      swap1\n      pop\n        /* \"staking.sol\":8845:8861  uint256 earnings */\n      0x00\n        /* \"staking.sol\":8864:8899  getInterest(_msgSender, 0, _amount) */\n      tag_271\n        /* \"staking.sol\":8876:8886  _msgSender */\n      dup5\n        /* \"staking.sol\":8888:8889  0 */\n      0x00\n        /* \"staking.sol\":8891:8898  _amount */\n      dup8\n        /* \"staking.sol\":8864:8875  getInterest */\n      tag_96\n        /* \"staking.sol\":8864:8899  getInterest(_msgSender, 0, _amount) */\n      jump\t// in\n    tag_271:\n        /* \"staking.sol\":8845:8899  uint256 earnings = getInterest(_msgSender, 0, _amount) */\n      swap1\n      pop\n        /* \"staking.sol\":8924:8931  balance */\n      dup3\n        /* \"staking.sol\":8913:8920  _amount */\n      dup6\n        /* \"staking.sol\":8913:8931  _amount == balance */\n      eq\n        /* \"staking.sol\":8910:9112  if(_amount == balance){... */\n      iszero\n      tag_272\n      jumpi\n        /* \"staking.sol\":8953:8966  level0Balance */\n      0x0d\n        /* \"staking.sol\":8953:8978  level0Balance[_msgSender] */\n      0x00\n        /* \"staking.sol\":8967:8977  _msgSender */\n      dup6\n        /* \"staking.sol\":8953:8978  level0Balance[_msgSender] */\n      0xffffffffffffffffffffffffffffffffffffffff\n      and\n      0xffffffffffffffffffffffffffffffffffffffff\n      and\n      dup2\n      mstore\n      0x20\n      add\n      swap1\n      dup2\n      mstore\n      0x20\n      add\n      0x00\n      keccak256\n      0x00\n        /* \"staking.sol\":8946:8978  delete level0Balance[_msgSender] */\n      dup1\n      dup3\n      add\n      0x00\n      swap1\n      sstore\n      0x01\n      dup3\n      add\n      0x00\n      swap1\n      sstore\n      0x02\n      dup3\n      add\n      0x00\n      swap1\n      sstore\n      pop\n      pop\n        /* \"staking.sol\":9021:9026  false */\n      0x00\n        /* \"staking.sol\":8998:9006  isLevel0 */\n      0x0c\n        /* \"staking.sol\":8998:9018  isLevel0[_msgSender] */\n      0x00\n        /* \"staking.sol\":9007:9017  _msgSender */\n      dup7\n        /* \"staking.sol\":8998:9018  isLevel0[_msgSender] */\n      0xffffffffffffffffffffffffffffffffffffffff\n      and\n      0xffffffffffffffffffffffffffffffffffffffff\n      and\n      dup2\n      mstore\n      0x20\n      add\n      swap1\n      dup2\n      mstore\n      0x20\n      add\n      0x00\n      keccak256\n      0x00\n        /* \"staking.sol\":8998:9026  isLevel0[_msgSender] = false */\n      0x0100\n      exp\n      dup2\n      sload\n      dup2\n      0xff\n      mul\n      not\n      and\n      swap1\n      dup4\n      iszero\n      iszero\n      mul\n      or\n      swap1\n      sstore\n      pop\n        /* \"staking.sol\":8910:9112  if(_amount == balance){... */\n      jump(tag_273)\n    tag_272:\n        /* \"staking.sol\":9094:9101  _amount */\n      dup5\n        /* \"staking.sol\":9057:9070  level0Balance */\n      0x0d\n        /* \"staking.sol\":9057:9082  level0Balance[_msgSender] */\n      0x00\n        /* \"staking.sol\":9071:9081  _msgSender */\n      dup7\n        /* \"staking.sol\":9057:9082  level0Balance[_msgSender] */\n      0xffffffffffffffffffffffffffffffffffffffff\n      and\n      0xffffffffffffffffffffffffffffffffffffffff\n      and\n      dup2\n      mstore\n      0x20\n      add\n      swap1\n      dup2\n      mstore\n      0x20\n      add\n      0x00\n      keccak256\n        /* \"staking.sol\":9057:9090  level0Balance[_msgSender].balance */\n      0x00\n      add\n      0x00\n        /* \"staking.sol\":9057:9101  level0Balance[_msgSender].balance -= _amount */\n      dup3\n      dup3\n      sload\n      tag_274\n      swap2\n      swap1\n      tag_215\n      jump\t// in\n    tag_274:\n      swap3\n      pop\n      pop\n      dup2\n      swap1\n      sstore\n      pop\n        /* \"staking.sol\":8910:9112  if(_amount == balance){... */\n    tag_273:\n        /* \"staking.sol\":9125:9134  _isOnTime */\n      dup2\n        /* \"staking.sol\":9122:9411  if(_isOnTime){... */\n      iszero\n      tag_275\n      jumpi\n        /* \"staking.sol\":9149:9162  acceptedToken */\n      0x01\n      0x00\n      swap1\n      sload\n      swap1\n      0x0100\n      exp\n      swap1\n      div\n      0xffffffffffffffffffffffffffffffffffffffff\n      and\n        /* \"staking.sol\":9149:9171  acceptedToken.transfer */\n      0xffffffffffffffffffffffffffffffffffffffff\n      and\n      0xa9059cbb\n        /* \"staking.sol\":9172:9182  _msgSender */\n      dup6\n        /* \"staking.sol\":9184:9191  _amount */\n      dup8\n        /* \"staking.sol\":9149:9192  acceptedToken.transfer(_msgSender, _amount) */\n      mload(0x40)\n      dup4\n      0xffffffff\n      and\n      0xe0\n      shl\n      dup2\n      mstore\n      0x04\n      add\n      tag_276\n      swap3\n      swap2\n      swap1\n      tag_218\n      jump\t// in\n    tag_276:\n      0x20\n      mload(0x40)\n      dup1\n      dup4\n      sub\n      dup2\n      0x00\n      dup8\n      dup1\n      extcodesize\n      iszero\n      dup1\n      iszero\n      tag_277\n      jumpi\n      0x00\n      dup1\n      revert\n    tag_277:\n      pop\n      gas\n      call\n      iszero\n      dup1\n      iszero\n      tag_279\n      jumpi\n      returndatasize\n      0x00\n      dup1\n      returndatacopy\n      revert(0x00, returndatasize)\n    tag_279:\n      pop\n      pop\n      pop\n      pop\n      mload(0x40)\n      returndatasize\n      not(0x1f)\n      0x1f\n      dup3\n      add\n      and\n      dup3\n      add\n      dup1\n      0x40\n      mstore\n      pop\n      dup2\n      add\n      swap1\n      tag_280\n      swap2\n      swap1\n      tag_186\n      jump\t// in\n    tag_280:\n      pop\n        /* \"staking.sol\":9219:9232  acceptedToken */\n      0x01\n      0x00\n      swap1\n      sload\n      swap1\n      0x0100\n      exp\n      swap1\n      div\n      0xffffffffffffffffffffffffffffffffffffffff\n      and\n        /* \"staking.sol\":9219:9245  acceptedToken.transferFrom */\n      0xffffffffffffffffffffffffffffffffffffffff\n      and\n      0x23b872dd\n        /* \"staking.sol\":9246:9259  reserveWallet */\n      0x0b\n      0x00\n      swap1\n      sload\n      swap1\n      0x0100\n      exp\n      swap1\n      div\n      0xffffffffffffffffffffffffffffffffffffffff\n      and\n        /* \"staking.sol\":9261:9271  _msgSender */\n      dup7\n        /* \"staking.sol\":9273:9281  earnings */\n      dup5\n        /* \"staking.sol\":9219:9282  acceptedToken.transferFrom(reserveWallet, _msgSender, earnings) */\n      mload(0x40)\n      dup5\n      0xffffffff\n      and\n      0xe0\n      shl\n      dup2\n      mstore\n      0x04\n      add\n      tag_281\n      swap4\n      swap3\n      swap2\n      swap1\n      tag_181\n      jump\t// in\n    tag_281:\n      0x20\n      mload(0x40)\n      dup1\n      dup4\n      sub\n      dup2\n      0x00\n      dup8\n      dup1\n      extcodesize\n      iszero\n      dup1\n      iszero\n      tag_282\n      jumpi\n      0x00\n      dup1\n      revert\n    tag_282:\n      pop\n      gas\n      call\n      iszero\n      dup1\n      iszero\n      tag_284\n      jumpi\n      returndatasize\n      0x00\n      dup1\n      returndatacopy\n      revert(0x00, returndatasize)\n    tag_284:\n      pop\n      pop\n      pop\n      pop\n      mload(0x40)\n      returndatasize\n      not(0x1f)\n      0x1f\n      dup3\n      add\n      and\n      dup3\n      add\n      dup1\n      0x40\n      mstore\n      pop\n      dup2\n      add\n      swap1\n      tag_285\n      swap2\n      swap1\n      tag_186\n      jump\t// in\n    tag_285:\n      pop\n        /* \"staking.sol\":9122:9411  if(_isOnTime){... */\n      jump(tag_286)\n    tag_275:\n        /* \"staking.sol\":9324:9325  0 */\n      0x00\n        /* \"staking.sol\":9313:9325  earnings = 0 */\n      swap1\n      pop\n        /* \"staking.sol\":9346:9359  acceptedToken */\n      0x01\n      0x00\n      swap1\n      sload\n      swap1\n      0x0100\n      exp\n      swap1\n      div\n      0xffffffffffffffffffffffffffffffffffffffff\n      and\n        /* \"staking.sol\":9346:9368  acceptedToken.transfer */\n      0xffffffffffffffffffffffffffffffffffffffff\n      and\n      0xa9059cbb\n        /* \"staking.sol\":9369:9379  _msgSender */\n      dup6\n        /* \"staking.sol\":9381:9388  _amount */\n      dup8\n        /* \"staking.sol\":9346:9389  acceptedToken.transfer(_msgSender, _amount) */\n      mload(0x40)\n      dup4\n      0xffffffff\n      and\n      0xe0\n      shl\n      dup2\n      mstore\n      0x04\n      add\n      tag_287\n      swap3\n      swap2\n      swap1\n      tag_218\n      jump\t// in\n    tag_287:\n      0x20\n      mload(0x40)\n      dup1\n      dup4\n      sub\n      dup2\n      0x00\n      dup8\n      dup1\n      extcodesize\n      iszero\n      dup1\n      iszero\n      tag_288\n      jumpi\n      0x00\n      dup1\n      revert\n    tag_288:\n      pop\n      gas\n      call\n      iszero\n      dup1\n      iszero\n      tag_290\n      jumpi\n      returndatasize\n      0x00\n      dup1\n      returndatacopy\n      revert(0x00, returndatasize)\n    tag_290:\n      pop\n      pop\n      pop\n      pop\n      mload(0x40)\n      returndatasize\n      not(0x1f)\n      0x1f\n      dup3\n      add\n      and\n      dup3\n      add\n      dup1\n      0x40\n      mstore\n      pop\n      dup2\n      add\n      swap1\n      tag_291\n      swap2\n      swap1\n      tag_186\n      jump\t// in\n    tag_291:\n      pop\n        /* \"staking.sol\":9122:9411  if(_isOnTime){... */\n    tag_286:\n        /* \"staking.sol\":9430:9483  withdraw(_msgSender, 0, _isOnTime, _amount, earnings) */\n      0xa3dff5863d601223d9b31a0253b97a6c2085daca56089b92836b4b6a1991e04b\n        /* \"staking.sol\":9439:9449  _msgSender */\n      dup5\n        /* \"staking.sol\":9451:9452  0 */\n      0x00\n        /* \"staking.sol\":9454:9463  _isOnTime */\n      dup5\n        /* \"staking.sol\":9465:9472  _amount */\n      dup9\n        /* \"staking.sol\":9474:9482  earnings */\n      dup6\n        /* \"staking.sol\":9430:9483  withdraw(_msgSender, 0, _isOnTime, _amount, earnings) */\n      mload(0x40)\n      tag_292\n      swap6\n      swap5\n      swap4\n      swap3\n      swap2\n      swap1\n      tag_293\n      jump\t// in\n    tag_292:\n      mload(0x40)\n      dup1\n      swap2\n      sub\n      swap1\n      log1\n        /* \"staking.sol\":8545:9490  {... */\n      pop\n      pop\n      pop\n      pop\n        /* \"staking.sol\":8495:9490  function withdrawLevel0 (uint256 _amount) public  {... */\n      pop\n      jump\t// out\n        /* \"staking.sol\":2032:2076  mapping (address => _user) public vipBalance */\n    tag_131:\n      mstore(0x20, 0x11)\n      dup1\n      0x00\n      mstore\n      keccak256(0x00, 0x40)\n      0x00\n      swap2\n      pop\n      swap1\n      pop\n      dup1\n      0x00\n      add\n      sload\n      swap1\n      dup1\n      0x01\n      add\n      sload\n      swap1\n      dup1\n      0x02\n      add\n      sload\n      swap1\n      pop\n      dup4\n      jump\t// out\n        /* \"staking.sol\":9648:10628  function withdrawLevel1 (uint256 _amount) public  {... */\n    tag_135:\n        /* \"staking.sol\":9708:9726  address _msgSender */\n      0x00\n        /* \"staking.sol\":9729:9739  msg.sender */\n      caller\n        /* \"staking.sol\":9708:9739  address _msgSender = msg.sender */\n      swap1\n      pop\n        /* \"staking.sol\":9757:9765  isLevel1 */\n      0x0e\n        /* \"staking.sol\":9757:9777  isLevel1[_msgSender] */\n      0x00\n        /* \"staking.sol\":9766:9776  _msgSender */\n      dup3\n        /* \"staking.sol\":9757:9777  isLevel1[_msgSender] */\n      0xffffffffffffffffffffffffffffffffffffffff\n      and\n      0xffffffffffffffffffffffffffffffffffffffff\n      and\n      dup2\n      mstore\n      0x20\n      add\n      swap1\n      dup2\n      mstore\n      0x20\n      add\n      0x00\n      keccak256\n      0x00\n      swap1\n      sload\n      swap1\n      0x0100\n      exp\n      swap1\n      div\n      0xff\n      and\n        /* \"staking.sol\":9749:9804  require(isLevel1[_msgSender], \"User is not on Level 1\") */\n      tag_295\n      jumpi\n      mload(0x40)\n      0x08c379a000000000000000000000000000000000000000000000000000000000\n      dup2\n      mstore\n      0x04\n      add\n      tag_296\n      swap1\n      tag_297\n      jump\t// in\n    tag_296:\n      mload(0x40)\n      dup1\n      swap2\n      sub\n      swap1\n      revert\n    tag_295:\n        /* \"staking.sol\":9815:9830  uint256 balance */\n      0x00\n        /* \"staking.sol\":9833:9846  level1Balance */\n      0x0f\n        /* \"staking.sol\":9833:9858  level1Balance[_msgSender] */\n      0x00\n        /* \"staking.sol\":9847:9857  _msgSender */\n      dup4\n        /* \"staking.sol\":9833:9858  level1Balance[_msgSender] */\n      0xffffffffffffffffffffffffffffffffffffffff\n      and\n      0xffffffffffffffffffffffffffffffffffffffff\n      and\n      dup2\n      mstore\n      0x20\n      add\n      swap1\n      dup2\n      mstore\n      0x20\n      add\n      0x00\n      keccak256\n        /* \"staking.sol\":9833:9866  level1Balance[_msgSender].balance */\n      0x00\n      add\n      sload\n        /* \"staking.sol\":9815:9866  uint256 balance = level1Balance[_msgSender].balance */\n      swap1\n      pop\n        /* \"staking.sol\":9895:9902  _amount */\n      dup3\n        /* \"staking.sol\":9884:9891  balance */\n      dup2\n        /* \"staking.sol\":9884:9902  balance >= _amount */\n      lt\n      iszero\n        /* \"staking.sol\":9876:9937  require(balance >= _amount, \"Not enough balance to withdraw\") */\n      tag_298\n      jumpi\n      mload(0x40)\n      0x08c379a000000000000000000000000000000000000000000000000000000000\n      dup2\n      mstore\n      0x04\n      add\n      tag_299\n      swap1\n      tag_209\n      jump\t// in\n    tag_299:\n      mload(0x40)\n      dup1\n      swap2\n      sub\n      swap1\n      revert\n    tag_298:\n        /* \"staking.sol\":9948:9962  bool _isOnTime */\n      0x00\n        /* \"staking.sol\":9965:9988  isOnTime(_msgSender, 1) */\n      tag_300\n        /* \"staking.sol\":9974:9984  _msgSender */\n      dup4\n        /* \"staking.sol\":9986:9987  1 */\n      0x01\n        /* \"staking.sol\":9965:9973  isOnTime */\n      tag_162\n        /* \"staking.sol\":9965:9988  isOnTime(_msgSender, 1) */\n      jump\t// in\n    tag_300:\n        /* \"staking.sol\":9948:9988  bool _isOnTime = isOnTime(_msgSender, 1) */\n      swap1\n      pop\n        /* \"staking.sol\":9998:10014  uint256 earnings */\n      0x00\n        /* \"staking.sol\":10017:10052  getInterest(_msgSender, 1, _amount) */\n      tag_301\n        /* \"staking.sol\":10029:10039  _msgSender */\n      dup5\n        /* \"staking.sol\":10041:10042  1 */\n      0x01\n        /* \"staking.sol\":10044:10051  _amount */\n      dup8\n        /* \"staking.sol\":10017:10028  getInterest */\n      tag_96\n        /* \"staking.sol\":10017:10052  getInterest(_msgSender, 1, _amount) */\n      jump\t// in\n    tag_301:\n        /* \"staking.sol\":9998:10052  uint256 earnings = getInterest(_msgSender, 1, _amount) */\n      swap1\n      pop\n        /* \"staking.sol\":10077:10084  balance */\n      dup3\n        /* \"staking.sol\":10066:10073  _amount */\n      dup6\n        /* \"staking.sol\":10066:10084  _amount == balance */\n      eq\n        /* \"staking.sol\":10063:10265  if(_amount == balance){... */\n      iszero\n      tag_302\n      jumpi\n        /* \"staking.sol\":10106:10119  level1Balance */\n      0x0f\n        /* \"staking.sol\":10106:10131  level1Balance[_msgSender] */\n      0x00\n        /* \"staking.sol\":10120:10130  _msgSender */\n      dup6\n        /* \"staking.sol\":10106:10131  level1Balance[_msgSender] */\n      0xffffffffffffffffffffffffffffffffffffffff\n      and\n      0xffffffffffffffffffffffffffffffffffffffff\n      and\n      dup2\n      mstore\n      0x20\n      add\n      swap1\n      dup2\n      mstore\n      0x20\n      add\n      0x00\n      keccak256\n      0x00\n        /* \"staking.sol\":10099:10131  delete level1Balance[_msgSender] */\n      dup1\n      dup3\n      add\n      0x00\n      swap1\n      sstore\n      0x01\n      dup3\n      add\n      0x00\n      swap1\n      sstore\n      0x02\n      dup3\n      add\n      0x00\n      swap1\n      sstore\n      pop\n      pop\n        /* \"staking.sol\":10174:10179  false */\n      0x00\n        /* \"staking.sol\":10151:10159  isLevel1 */\n      0x0e\n        /* \"staking.sol\":10151:10171  isLevel1[_msgSender] */\n      0x00\n        /* \"staking.sol\":10160:10170  _msgSender */\n      dup7\n        /* \"staking.sol\":10151:10171  isLevel1[_msgSender] */\n      0xffffffffffffffffffffffffffffffffffffffff\n      and\n      0xffffffffffffffffffffffffffffffffffffffff\n      and\n      dup2\n      mstore\n      0x20\n      add\n      swap1\n      dup2\n      mstore\n      0x20\n      add\n      0x00\n      keccak256\n      0x00\n        /* \"staking.sol\":10151:10179  isLevel1[_msgSender] = false */\n      0x0100\n      exp\n      dup2\n      sload\n      dup2\n      0xff\n      mul\n      not\n      and\n      swap1\n      dup4\n      iszero\n      iszero\n      mul\n      or\n      swap1\n      sstore\n      pop\n        /* \"staking.sol\":10063:10265  if(_amount == balance){... */\n      jump(tag_303)\n    tag_302:\n        /* \"staking.sol\":10247:10254  _amount */\n      dup5\n        /* \"staking.sol\":10210:10223  level1Balance */\n      0x0f\n        /* \"staking.sol\":10210:10235  level1Balance[_msgSender] */\n      0x00\n        /* \"staking.sol\":10224:10234  _msgSender */\n      dup7\n        /* \"staking.sol\":10210:10235  level1Balance[_msgSender] */\n      0xffffffffffffffffffffffffffffffffffffffff\n      and\n      0xffffffffffffffffffffffffffffffffffffffff\n      and\n      dup2\n      mstore\n      0x20\n      add\n      swap1\n      dup2\n      mstore\n      0x20\n      add\n      0x00\n      keccak256\n        /* \"staking.sol\":10210:10243  level1Balance[_msgSender].balance */\n      0x00\n      add\n      0x00\n        /* \"staking.sol\":10210:10254  level1Balance[_msgSender].balance -= _amount */\n      dup3\n      dup3\n      sload\n      tag_304\n      swap2\n      swap1\n      tag_215\n      jump\t// in\n    tag_304:\n      swap3\n      pop\n      pop\n      dup2\n      swap1\n      sstore\n      pop\n        /* \"staking.sol\":10063:10265  if(_amount == balance){... */\n    tag_303:\n        /* \"staking.sol\":10278:10287  _isOnTime */\n      dup2\n        /* \"staking.sol\":10275:10553  if(_isOnTime){... */\n      iszero\n      tag_305\n      jumpi\n        /* \"staking.sol\":10302:10315  acceptedToken */\n      0x01\n      0x00\n      swap1\n      sload\n      swap1\n      0x0100\n      exp\n      swap1\n      div\n      0xffffffffffffffffffffffffffffffffffffffff\n      and\n        /* \"staking.sol\":10302:10324  acceptedToken.transfer */\n      0xffffffffffffffffffffffffffffffffffffffff\n      and\n      0xa9059cbb\n        /* \"staking.sol\":10325:10335  _msgSender */\n      dup6\n        /* \"staking.sol\":10337:10344  _amount */\n      dup8\n        /* \"staking.sol\":10302:10345  acceptedToken.transfer(_msgSender, _amount) */\n      mload(0x40)\n      dup4\n      0xffffffff\n      and\n      0xe0\n      shl\n      dup2\n      mstore\n      0x04\n      add\n      tag_306\n      swap3\n      swap2\n      swap1\n      tag_218\n      jump\t// in\n    tag_306:\n      0x20\n      mload(0x40)\n      dup1\n      dup4\n      sub\n      dup2\n      0x00\n      dup8\n      dup1\n      extcodesize\n      iszero\n      dup1\n      iszero\n      tag_307\n      jumpi\n      0x00\n      dup1\n      revert\n    tag_307:\n      pop\n      gas\n      call\n      iszero\n      dup1\n      iszero\n      tag_309\n      jumpi\n      returndatasize\n      0x00\n      dup1\n      returndatacopy\n      revert(0x00, returndatasize)\n    tag_309:\n      pop\n      pop\n      pop\n      pop\n      mload(0x40)\n      returndatasize\n      not(0x1f)\n      0x1f\n      dup3\n      add\n      and\n      dup3\n      add\n      dup1\n      0x40\n      mstore\n      pop\n      dup2\n      add\n      swap1\n      tag_310\n      swap2\n      swap1\n      tag_186\n      jump\t// in\n    tag_310:\n      pop\n        /* \"staking.sol\":10359:10372  acceptedToken */\n      0x01\n      0x00\n      swap1\n      sload\n      swap1\n      0x0100\n      exp\n      swap1\n      div\n      0xffffffffffffffffffffffffffffffffffffffff\n      and\n        /* \"staking.sol\":10359:10385  acceptedToken.transferFrom */\n      0xffffffffffffffffffffffffffffffffffffffff\n      and\n      0x23b872dd\n        /* \"staking.sol\":10386:10399  reserveWallet */\n      0x0b\n      0x00\n      swap1\n      sload\n      swap1\n      0x0100\n      exp\n      swap1\n      div\n      0xffffffffffffffffffffffffffffffffffffffff\n      and\n        /* \"staking.sol\":10401:10411  _msgSender */\n      dup7\n        /* \"staking.sol\":10413:10421  earnings */\n      dup5\n        /* \"staking.sol\":10359:10422  acceptedToken.transferFrom(reserveWallet, _msgSender, earnings) */\n      mload(0x40)\n      dup5\n      0xffffffff\n      and\n      0xe0\n      shl\n      dup2\n      mstore\n      0x04\n      add\n      tag_311\n      swap4\n      swap3\n      swap2\n      swap1\n      tag_181\n      jump\t// in\n    tag_311:\n      0x20\n      mload(0x40)\n      dup1\n      dup4\n      sub\n      dup2\n      0x00\n      dup8\n      dup1\n      extcodesize\n      iszero\n      dup1\n      iszero\n      tag_312\n      jumpi\n      0x00\n      dup1\n      revert\n    tag_312:\n      pop\n      gas\n      call\n      iszero\n      dup1\n      iszero\n      tag_314\n      jumpi\n      returndatasize\n      0x00\n      dup1\n      returndatacopy\n      revert(0x00, returndatasize)\n    tag_314:\n      pop\n      pop\n      pop\n      pop\n      mload(0x40)\n      returndatasize\n      not(0x1f)\n      0x1f\n      dup3\n      add\n      and\n      dup3\n      add\n      dup1\n      0x40\n      mstore\n      pop\n      dup2\n      add\n      swap1\n      tag_315\n      swap2\n      swap1\n      tag_186\n      jump\t// in\n    tag_315:\n      pop\n        /* \"staking.sol\":10275:10553  if(_isOnTime){... */\n      jump(tag_316)\n    tag_305:\n        /* \"staking.sol\":10464:10465  0 */\n      0x00\n        /* \"staking.sol\":10453:10465  earnings = 0 */\n      swap1\n      pop\n        /* \"staking.sol\":10488:10501  acceptedToken */\n      0x01\n      0x00\n      swap1\n      sload\n      swap1\n      0x0100\n      exp\n      swap1\n      div\n      0xffffffffffffffffffffffffffffffffffffffff\n      and\n        /* \"staking.sol\":10488:10510  acceptedToken.transfer */\n      0xffffffffffffffffffffffffffffffffffffffff\n      and\n      0xa9059cbb\n        /* \"staking.sol\":10511:10521  _msgSender */\n      dup6\n        /* \"staking.sol\":10523:10530  _amount */\n      dup8\n        /* \"staking.sol\":10488:10531  acceptedToken.transfer(_msgSender, _amount) */\n      mload(0x40)\n      dup4\n      0xffffffff\n      and\n      0xe0\n      shl\n      dup2\n      mstore\n      0x04\n      add\n      tag_317\n      swap3\n      swap2\n      swap1\n      tag_218\n      jump\t// in\n    tag_317:\n      0x20\n      mload(0x40)\n      dup1\n      dup4\n      sub\n      dup2\n      0x00\n      dup8\n      dup1\n      extcodesize\n      iszero\n      dup1\n      iszero\n      tag_318\n      jumpi\n      0x00\n      dup1\n      revert\n    tag_318:\n      pop\n      gas\n      call\n      iszero\n      dup1\n      iszero\n      tag_320\n      jumpi\n      returndatasize\n      0x00\n      dup1\n      returndatacopy\n      revert(0x00, returndatasize)\n    tag_320:\n      pop\n      pop\n      pop\n      pop\n      mload(0x40)\n      returndatasize\n      not(0x1f)\n      0x1f\n      dup3\n      add\n      and\n      dup3\n      add\n      dup1\n      0x40\n      mstore\n      pop\n      dup2\n      add\n      swap1\n      tag_321\n      swap2\n      swap1\n      tag_186\n      jump\t// in\n    tag_321:\n      pop\n        /* \"staking.sol\":10275:10553  if(_isOnTime){... */\n    tag_316:\n        /* \"staking.sol\":10568:10621  withdraw(_msgSender, 1, _isOnTime, _amount, earnings) */\n      0xa3dff5863d601223d9b31a0253b97a6c2085daca56089b92836b4b6a1991e04b\n        /* \"staking.sol\":10577:10587  _msgSender */\n      dup5\n        /* \"staking.sol\":10589:10590  1 */\n      0x01\n        /* \"staking.sol\":10592:10601  _isOnTime */\n      dup5\n        /* \"staking.sol\":10603:10610  _amount */\n      dup9\n        /* \"staking.sol\":10612:10620  earnings */\n      dup6\n        /* \"staking.sol\":10568:10621  withdraw(_msgSender, 1, _isOnTime, _amount, earnings) */\n      mload(0x40)\n      tag_322\n      swap6\n      swap5\n      swap4\n      swap3\n      swap2\n      swap1\n      tag_323\n      jump\t// in\n    tag_322:\n      mload(0x40)\n      dup1\n      swap2\n      sub\n      swap1\n      log1\n        /* \"staking.sol\":9698:10628  {... */\n      pop\n      pop\n      pop\n      pop\n        /* \"staking.sol\":9648:10628  function withdrawLevel1 (uint256 _amount) public  {... */\n      pop\n      jump\t// out\n        /* \"staking.sol\":5754:6502  function enterVip (uint256 _amount) public whenNotPaused {... */\n    tag_138:\n        /* \"@openzeppelin/contracts/security/Pausable.sol\":1412:1420  paused() */\n      tag_325\n        /* \"@openzeppelin/contracts/security/Pausable.sol\":1412:1418  paused */\n      tag_70\n        /* \"@openzeppelin/contracts/security/Pausable.sol\":1412:1420  paused() */\n      jump\t// in\n    tag_325:\n        /* \"@openzeppelin/contracts/security/Pausable.sol\":1411:1420  !paused() */\n      iszero\n        /* \"@openzeppelin/contracts/security/Pausable.sol\":1403:1441  require(!paused(), \"Pausable: paused\") */\n      tag_326\n      jumpi\n      mload(0x40)\n      0x08c379a000000000000000000000000000000000000000000000000000000000\n      dup2\n      mstore\n      0x04\n      add\n      tag_327\n      swap1\n      tag_171\n      jump\t// in\n    tag_327:\n      mload(0x40)\n      dup1\n      swap2\n      sub\n      swap1\n      revert\n    tag_326:\n        /* \"staking.sol\":5840:5851  levelVipMax */\n      sload(0x0a)\n        /* \"staking.sol\":5829:5836  _amount */\n      dup2\n        /* \"staking.sol\":5829:5851  _amount <= levelVipMax */\n      gt\n      iszero\n        /* \"staking.sol\":5829:5877  _amount <= levelVipMax && _amount >= levelVipMin */\n      dup1\n      iszero\n      tag_329\n      jumpi\n      pop\n        /* \"staking.sol\":5866:5877  levelVipMin */\n      sload(0x09)\n        /* \"staking.sol\":5855:5862  _amount */\n      dup2\n        /* \"staking.sol\":5855:5877  _amount >= levelVipMin */\n      lt\n      iszero\n        /* \"staking.sol\":5829:5877  _amount <= levelVipMax && _amount >= levelVipMin */\n    tag_329:\n        /* \"staking.sol\":5821:5932  require(_amount <= levelVipMax && _amount >= levelVipMin, \"Amount needs to be more than min and less than max\") */\n      tag_330\n      jumpi\n      mload(0x40)\n      0x08c379a000000000000000000000000000000000000000000000000000000000\n      dup2\n      mstore\n      0x04\n      add\n      tag_331\n      swap1\n      tag_176\n      jump\t// in\n    tag_331:\n      mload(0x40)\n      dup1\n      swap2\n      sub\n      swap1\n      revert\n    tag_330:\n        /* \"staking.sol\":5942:5960  address _msgSender */\n      0x00\n        /* \"staking.sol\":5963:5973  msg.sender */\n      caller\n        /* \"staking.sol\":5942:5973  address _msgSender = msg.sender */\n      swap1\n      pop\n        /* \"staking.sol\":6005:6010  isVip */\n      0x10\n        /* \"staking.sol\":6005:6022  isVip[_msgSender] */\n      0x00\n        /* \"staking.sol\":6011:6021  _msgSender */\n      dup3\n        /* \"staking.sol\":6005:6022  isVip[_msgSender] */\n      0xffffffffffffffffffffffffffffffffffffffff\n      and\n      0xffffffffffffffffffffffffffffffffffffffff\n      and\n      dup2\n      mstore\n      0x20\n      add\n      swap1\n      dup2\n      mstore\n      0x20\n      add\n      0x00\n      keccak256\n      0x00\n      swap1\n      sload\n      swap1\n      0x0100\n      exp\n      swap1\n      div\n      0xff\n      and\n        /* \"staking.sol\":6004:6022  !isVip[_msgSender] */\n      iszero\n        /* \"staking.sol\":5996:6058  require(!isVip[_msgSender], \"You're already in the Vip Stake\") */\n      tag_332\n      jumpi\n      mload(0x40)\n      0x08c379a000000000000000000000000000000000000000000000000000000000\n      dup2\n      mstore\n      0x04\n      add\n      tag_333\n      swap1\n      tag_334\n      jump\t// in\n    tag_333:\n      mload(0x40)\n      dup1\n      swap2\n      sub\n      swap1\n      revert\n    tag_332:\n        /* \"staking.sol\":6077:6090  acceptedToken */\n      0x01\n      0x00\n      swap1\n      sload\n      swap1\n      0x0100\n      exp\n      swap1\n      div\n      0xffffffffffffffffffffffffffffffffffffffff\n      and\n        /* \"staking.sol\":6077:6103  acceptedToken.transferFrom */\n      0xffffffffffffffffffffffffffffffffffffffff\n      and\n      0x23b872dd\n        /* \"staking.sol\":6104:6114  _msgSender */\n      dup3\n        /* \"staking.sol\":6124:6128  this */\n      address\n        /* \"staking.sol\":6131:6138  _amount */\n      dup6\n        /* \"staking.sol\":6077:6139  acceptedToken.transferFrom(_msgSender, address(this), _amount) */\n      mload(0x40)\n      dup5\n      0xffffffff\n      and\n      0xe0\n      shl\n      dup2\n      mstore\n      0x04\n      add\n      tag_335\n      swap4\n      swap3\n      swap2\n      swap1\n      tag_181\n      jump\t// in\n    tag_335:\n      0x20\n      mload(0x40)\n      dup1\n      dup4\n      sub\n      dup2\n      0x00\n      dup8\n      dup1\n      extcodesize\n      iszero\n      dup1\n      iszero\n      tag_336\n      jumpi\n      0x00\n      dup1\n      revert\n    tag_336:\n      pop\n      gas\n      call\n      iszero\n      dup1\n      iszero\n      tag_338\n      jumpi\n      returndatasize\n      0x00\n      dup1\n      returndatacopy\n      revert(0x00, returndatasize)\n    tag_338:\n      pop\n      pop\n      pop\n      pop\n      mload(0x40)\n      returndatasize\n      not(0x1f)\n      0x1f\n      dup3\n      add\n      and\n      dup3\n      add\n      dup1\n      0x40\n      mstore\n      pop\n      dup2\n      add\n      swap1\n      tag_339\n      swap2\n      swap1\n      tag_186\n      jump\t// in\n    tag_339:\n      pop\n        /* \"staking.sol\":6170:6174  true */\n      0x01\n        /* \"staking.sol\":6150:6155  isVip */\n      0x10\n        /* \"staking.sol\":6150:6167  isVip[_msgSender] */\n      0x00\n        /* \"staking.sol\":6156:6166  _msgSender */\n      dup4\n        /* \"staking.sol\":6150:6167  isVip[_msgSender] */\n      0xffffffffffffffffffffffffffffffffffffffff\n      and\n      0xffffffffffffffffffffffffffffffffffffffff\n      and\n      dup2\n      mstore\n      0x20\n      add\n      swap1\n      dup2\n      mstore\n      0x20\n      add\n      0x00\n      keccak256\n      0x00\n        /* \"staking.sol\":6150:6174  isVip[_msgSender] = true */\n      0x0100\n      exp\n      dup2\n      sload\n      dup2\n      0xff\n      mul\n      not\n      and\n      swap1\n      dup4\n      iszero\n      iszero\n      mul\n      or\n      swap1\n      sstore\n      pop\n        /* \"staking.sol\":6209:6396  _user ({... */\n      mload(0x40)\n      dup1\n      0x60\n      add\n      0x40\n      mstore\n      dup1\n        /* \"staking.sol\":6238:6245  _amount */\n      dup4\n        /* \"staking.sol\":6209:6396  _user ({... */\n      dup2\n      mstore\n      0x20\n      add\n        /* \"staking.sol\":6271:6286  block.timestamp */\n      timestamp\n        /* \"staking.sol\":6209:6396  _user ({... */\n      dup2\n      mstore\n      0x20\n      add\n        /* \"staking.sol\":6381:6385  1200 */\n      0x04b0\n        /* \"staking.sol\":6363:6378  block.timestamp */\n      timestamp\n        /* \"staking.sol\":6363:6385  block.timestamp + 1200 */\n      tag_340\n      swap2\n      swap1\n      tag_188\n      jump\t// in\n    tag_340:\n        /* \"staking.sol\":6209:6396  _user ({... */\n      dup2\n      mstore\n      pop\n        /* \"staking.sol\":6184:6194  vipBalance */\n      0x11\n        /* \"staking.sol\":6184:6206  vipBalance[_msgSender] */\n      0x00\n        /* \"staking.sol\":6195:6205  _msgSender */\n      dup4\n        /* \"staking.sol\":6184:6206  vipBalance[_msgSender] */\n      0xffffffffffffffffffffffffffffffffffffffff\n      and\n      0xffffffffffffffffffffffffffffffffffffffff\n      and\n      dup2\n      mstore\n      0x20\n      add\n      swap1\n      dup2\n      mstore\n      0x20\n      add\n      0x00\n      keccak256\n        /* \"staking.sol\":6184:6396  vipBalance[_msgSender] = _user ({... */\n      0x00\n      dup3\n      add\n      mload\n      dup2\n      0x00\n      add\n      sstore\n      0x20\n      dup3\n      add\n      mload\n      dup2\n      0x01\n      add\n      sstore\n      0x40\n      dup3\n      add\n      mload\n      dup2\n      0x02\n      add\n      sstore\n      swap1\n      pop\n      pop\n        /* \"staking.sol\":6419:6495  deposit (_msgSender, 2, _amount, block.timestamp, block.timestamp + 90 days) */\n      0x17849bb8c713de96b48f218d3bacc9af082261c3ccc7c6dccebe70e667b22f23\n        /* \"staking.sol\":6428:6438  _msgSender */\n      dup2\n        /* \"staking.sol\":6440:6441  2 */\n      0x02\n        /* \"staking.sol\":6443:6450  _amount */\n      dup5\n        /* \"staking.sol\":6452:6467  block.timestamp */\n      timestamp\n        /* \"staking.sol\":6487:6494  90 days */\n      0x76a700\n        /* \"staking.sol\":6469:6484  block.timestamp */\n      timestamp\n        /* \"staking.sol\":6469:6494  block.timestamp + 90 days */\n      tag_341\n      swap2\n      swap1\n      tag_188\n      jump\t// in\n    tag_341:\n        /* \"staking.sol\":6419:6495  deposit (_msgSender, 2, _amount, block.timestamp, block.timestamp + 90 days) */\n      mload(0x40)\n      tag_342\n      swap6\n      swap5\n      swap4\n      swap3\n      swap2\n      swap1\n      tag_343\n      jump\t// in\n    tag_342:\n      mload(0x40)\n      dup1\n      swap2\n      sub\n      swap1\n      log1\n        /* \"staking.sol\":5811:6502  {... */\n      pop\n        /* \"staking.sol\":5754:6502  function enterVip (uint256 _amount) public whenNotPaused {... */\n      pop\n      jump\t// out\n        /* \"staking.sol\":1522:1567  uint256 public level1Max = 500000000 * 10**18 */\n    tag_140:\n      sload(0x08)\n      dup2\n      jump\t// out\n        /* \"staking.sol\":1701:1729  address public reserveWallet */\n    tag_143:\n      0x0b\n      0x00\n      swap1\n      sload\n      swap1\n      0x0100\n      exp\n      swap1\n      div\n      0xffffffffffffffffffffffffffffffffffffffff\n      and\n      dup2\n      jump\t// out\n        /* \"staking.sol\":2910:3029  function setReserveWallet (address _reserveWallet) external onlyOwner{... */\n    tag_147:\n        /* \"@openzeppelin/contracts/access/Ownable.sol\":1259:1271  _msgSender() */\n      tag_345\n        /* \"@openzeppelin/contracts/access/Ownable.sol\":1259:1269  _msgSender */\n      tag_194\n        /* \"@openzeppelin/contracts/access/Ownable.sol\":1259:1271  _msgSender() */\n      jump\t// in\n    tag_345:\n        /* \"@openzeppelin/contracts/access/Ownable.sol\":1248:1271  owner() == _msgSender() */\n      0xffffffffffffffffffffffffffffffffffffffff\n      and\n        /* \"@openzeppelin/contracts/access/Ownable.sol\":1248:1255  owner() */\n      tag_346\n        /* \"@openzeppelin/contracts/access/Ownable.sol\":1248:1253  owner */\n      tag_117\n        /* \"@openzeppelin/contracts/access/Ownable.sol\":1248:1255  owner() */\n      jump\t// in\n    tag_346:\n        /* \"@openzeppelin/contracts/access/Ownable.sol\":1248:1271  owner() == _msgSender() */\n      0xffffffffffffffffffffffffffffffffffffffff\n      and\n      eq\n        /* \"@openzeppelin/contracts/access/Ownable.sol\":1240:1308  require(owner() == _msgSender(), \"Ownable: caller is not the owner\") */\n      tag_347\n      jumpi\n      mload(0x40)\n      0x08c379a000000000000000000000000000000000000000000000000000000000\n      dup2\n      mstore\n      0x04\n      add\n      tag_348\n      swap1\n      tag_198\n      jump\t// in\n    tag_348:\n      mload(0x40)\n      dup1\n      swap2\n      sub\n      swap1\n      revert\n    tag_347:\n        /* \"staking.sol\":3005:3019  _reserveWallet */\n      dup1\n        /* \"staking.sol\":2989:3002  reserveWallet */\n      0x0b\n      0x00\n        /* \"staking.sol\":2989:3019  reserveWallet = _reserveWallet */\n      0x0100\n      exp\n      dup2\n      sload\n      dup2\n      0xffffffffffffffffffffffffffffffffffffffff\n      mul\n      not\n      and\n      swap1\n      dup4\n      0xffffffffffffffffffffffffffffffffffffffff\n      and\n      mul\n      or\n      swap1\n      sstore\n      pop\n        /* \"staking.sol\":2910:3029  function setReserveWallet (address _reserveWallet) external onlyOwner{... */\n      pop\n      jump\t// out\n        /* \"staking.sol\":3096:3304  function setNewAPY ( uint256 _level0APY, uint256 _level1APY, uint256 _vipLevelAPY) external onlyOwner{... */\n    tag_151:\n        /* \"@openzeppelin/contracts/access/Ownable.sol\":1259:1271  _msgSender() */\n      tag_351\n        /* \"@openzeppelin/contracts/access/Ownable.sol\":1259:1269  _msgSender */\n      tag_194\n        /* \"@openzeppelin/contracts/access/Ownable.sol\":1259:1271  _msgSender() */\n      jump\t// in\n    tag_351:\n        /* \"@openzeppelin/contracts/access/Ownable.sol\":1248:1271  owner() == _msgSender() */\n      0xffffffffffffffffffffffffffffffffffffffff\n      and\n        /* \"@openzeppelin/contracts/access/Ownable.sol\":1248:1255  owner() */\n      tag_352\n        /* \"@openzeppelin/contracts/access/Ownable.sol\":1248:1253  owner */\n      tag_117\n        /* \"@openzeppelin/contracts/access/Ownable.sol\":1248:1255  owner() */\n      jump\t// in\n    tag_352:\n        /* \"@openzeppelin/contracts/access/Ownable.sol\":1248:1271  owner() == _msgSender() */\n      0xffffffffffffffffffffffffffffffffffffffff\n      and\n      eq\n        /* \"@openzeppelin/contracts/access/Ownable.sol\":1240:1308  require(owner() == _msgSender(), \"Ownable: caller is not the owner\") */\n      tag_353\n      jumpi\n      mload(0x40)\n      0x08c379a000000000000000000000000000000000000000000000000000000000\n      dup2\n      mstore\n      0x04\n      add\n      tag_354\n      swap1\n      tag_198\n      jump\t// in\n    tag_354:\n      mload(0x40)\n      dup1\n      swap2\n      sub\n      swap1\n      revert\n    tag_353:\n        /* \"staking.sol\":3219:3229  _level0APY */\n      dup3\n        /* \"staking.sol\":3207:3216  level0APY */\n      0x02\n        /* \"staking.sol\":3207:3229  level0APY = _level0APY */\n      dup2\n      swap1\n      sstore\n      pop\n        /* \"staking.sol\":3251:3261  _level1APY */\n      dup2\n        /* \"staking.sol\":3239:3248  level1APY */\n      0x03\n        /* \"staking.sol\":3239:3261  level1APY = _level1APY */\n      dup2\n      swap1\n      sstore\n      pop\n        /* \"staking.sol\":3285:3297  _vipLevelAPY */\n      dup1\n        /* \"staking.sol\":3271:3282  vipLevelAPY */\n      0x04\n        /* \"staking.sol\":3271:3297  vipLevelAPY = _vipLevelAPY */\n      dup2\n      swap1\n      sstore\n      pop\n        /* \"staking.sol\":3096:3304  function setNewAPY ( uint256 _level0APY, uint256 _level1APY, uint256 _vipLevelAPY) external onlyOwner{... */\n      pop\n      pop\n      pop\n      jump\t// out\n        /* \"@openzeppelin/contracts/access/Ownable.sol\":1918:2116  function transferOwnership(address newOwner) public virtual onlyOwner {... */\n    tag_154:\n        /* \"@openzeppelin/contracts/access/Ownable.sol\":1259:1271  _msgSender() */\n      tag_357\n        /* \"@openzeppelin/contracts/access/Ownable.sol\":1259:1269  _msgSender */\n      tag_194\n        /* \"@openzeppelin/contracts/access/Ownable.sol\":1259:1271  _msgSender() */\n      jump\t// in\n    tag_357:\n        /* \"@openzeppelin/contracts/access/Ownable.sol\":1248:1271  owner() == _msgSender() */\n      0xffffffffffffffffffffffffffffffffffffffff\n      and\n        /* \"@openzeppelin/contracts/access/Ownable.sol\":1248:1255  owner() */\n      tag_358\n        /* \"@openzeppelin/contracts/access/Ownable.sol\":1248:1253  owner */\n      tag_117\n        /* \"@openzeppelin/contracts/access/Ownable.sol\":1248:1255  owner() */\n      jump\t// in\n    tag_358:\n        /* \"@openzeppelin/contracts/access/Ownable.sol\":1248:1271  owner() == _msgSender() */\n      0xffffffffffffffffffffffffffffffffffffffff\n      and\n      eq\n        /* \"@openzeppelin/contracts/access/Ownable.sol\":1240:1308  require(owner() == _msgSender(), \"Ownable: caller is not the owner\") */\n      tag_359\n      jumpi\n      mload(0x40)\n      0x08c379a000000000000000000000000000000000000000000000000000000000\n      dup2\n      mstore\n      0x04\n      add\n      tag_360\n      swap1\n      tag_198\n      jump\t// in\n    tag_360:\n      mload(0x40)\n      dup1\n      swap2\n      sub\n      swap1\n      revert\n    tag_359:\n        /* \"@openzeppelin/contracts/access/Ownable.sol\":2026:2027  0 */\n      0x00\n        /* \"@openzeppelin/contracts/access/Ownable.sol\":2006:2028  newOwner != address(0) */\n      0xffffffffffffffffffffffffffffffffffffffff\n      and\n        /* \"@openzeppelin/contracts/access/Ownable.sol\":2006:2014  newOwner */\n      dup2\n        /* \"@openzeppelin/contracts/access/Ownable.sol\":2006:2028  newOwner != address(0) */\n      0xffffffffffffffffffffffffffffffffffffffff\n      and\n      eq\n      iszero\n        /* \"@openzeppelin/contracts/access/Ownable.sol\":1998:2071  require(newOwner != address(0), \"Ownable: new owner is the zero address\") */\n      tag_362\n      jumpi\n      mload(0x40)\n      0x08c379a000000000000000000000000000000000000000000000000000000000\n      dup2\n      mstore\n      0x04\n      add\n      tag_363\n      swap1\n      tag_364\n      jump\t// in\n    tag_363:\n      mload(0x40)\n      dup1\n      swap2\n      sub\n      swap1\n      revert\n    tag_362:\n        /* \"@openzeppelin/contracts/access/Ownable.sol\":2081:2109  _transferOwnership(newOwner) */\n      tag_365\n        /* \"@openzeppelin/contracts/access/Ownable.sol\":2100:2108  newOwner */\n      dup2\n        /* \"@openzeppelin/contracts/access/Ownable.sol\":2081:2099  _transferOwnership */\n      tag_254\n        /* \"@openzeppelin/contracts/access/Ownable.sol\":2081:2109  _transferOwnership(newOwner) */\n      jump\t// in\n    tag_365:\n        /* \"@openzeppelin/contracts/access/Ownable.sol\":1918:2116  function transferOwnership(address newOwner) public virtual onlyOwner {... */\n      pop\n      jump\t// out\n        /* \"staking.sol\":3386:3758  function setNewMaxMin (uint256 _level0Min, uint256 _level0Max, uint256 _level1Min, uint256 _level1Max, uint256 _levelVipMin, uint256 _levelVipMax) external onlyOwner{... */\n    tag_158:\n        /* \"@openzeppelin/contracts/access/Ownable.sol\":1259:1271  _msgSender() */\n      tag_367\n        /* \"@openzeppelin/contracts/access/Ownable.sol\":1259:1269  _msgSender */\n      tag_194\n        /* \"@openzeppelin/contracts/access/Ownable.sol\":1259:1271  _msgSender() */\n      jump\t// in\n    tag_367:\n        /* \"@openzeppelin/contracts/access/Ownable.sol\":1248:1271  owner() == _msgSender() */\n      0xffffffffffffffffffffffffffffffffffffffff\n      and\n        /* \"@openzeppelin/contracts/access/Ownable.sol\":1248:1255  owner() */\n      tag_368\n        /* \"@openzeppelin/contracts/access/Ownable.sol\":1248:1253  owner */\n      tag_117\n        /* \"@openzeppelin/contracts/access/Ownable.sol\":1248:1255  owner() */\n      jump\t// in\n    tag_368:\n        /* \"@openzeppelin/contracts/access/Ownable.sol\":1248:1271  owner() == _msgSender() */\n      0xffffffffffffffffffffffffffffffffffffffff\n      and\n      eq\n        /* \"@openzeppelin/contracts/access/Ownable.sol\":1240:1308  require(owner() == _msgSender(), \"Ownable: caller is not the owner\") */\n      tag_369\n      jumpi\n      mload(0x40)\n      0x08c379a000000000000000000000000000000000000000000000000000000000\n      dup2\n      mstore\n      0x04\n      add\n      tag_370\n      swap1\n      tag_198\n      jump\t// in\n    tag_370:\n      mload(0x40)\n      dup1\n      swap2\n      sub\n      swap1\n      revert\n    tag_369:\n        /* \"staking.sol\":3573:3583  _level0Min */\n      dup6\n        /* \"staking.sol\":3561:3570  level0Min */\n      0x05\n        /* \"staking.sol\":3561:3583  level0Min = _level0Min */\n      dup2\n      swap1\n      sstore\n      pop\n        /* \"staking.sol\":3605:3615  _level0Max */\n      dup5\n        /* \"staking.sol\":3593:3602  level0Max */\n      0x06\n        /* \"staking.sol\":3593:3615  level0Max = _level0Max */\n      dup2\n      swap1\n      sstore\n      pop\n        /* \"staking.sol\":3637:3647  _level1Min */\n      dup4\n        /* \"staking.sol\":3625:3634  level1Min */\n      0x07\n        /* \"staking.sol\":3625:3647  level1Min = _level1Min */\n      dup2\n      swap1\n      sstore\n      pop\n        /* \"staking.sol\":3669:3679  _level1Max */\n      dup3\n        /* \"staking.sol\":3657:3666  level1Max */\n      0x08\n        /* \"staking.sol\":3657:3679  level1Max = _level1Max */\n      dup2\n      swap1\n      sstore\n      pop\n        /* \"staking.sol\":3703:3715  _levelVipMin */\n      dup2\n        /* \"staking.sol\":3689:3700  levelVipMin */\n      0x09\n        /* \"staking.sol\":3689:3715  levelVipMin = _levelVipMin */\n      dup2\n      swap1\n      sstore\n      pop\n        /* \"staking.sol\":3739:3751  _levelVipMax */\n      dup1\n        /* \"staking.sol\":3725:3736  levelVipMax */\n      0x0a\n        /* \"staking.sol\":3725:3751  levelVipMax = _levelVipMax */\n      dup2\n      swap1\n      sstore\n      pop\n        /* \"staking.sol\":3386:3758  function setNewMaxMin (uint256 _level0Min, uint256 _level0Max, uint256 _level1Min, uint256 _level1Max, uint256 _levelVipMin, uint256 _levelVipMax) external onlyOwner{... */\n      pop\n      pop\n      pop\n      pop\n      pop\n      pop\n      jump\t// out\n        /* \"staking.sol\":6647:7146  function isOnTime (address user, uint8 class) public view returns (bool) {... */\n    tag_162:\n        /* \"staking.sol\":6714:6718  bool */\n      0x00\n        /* \"staking.sol\":6730:6749  uint256 releaseTime */\n      dup1\n        /* \"staking.sol\":6771:6772  0 */\n      0x00\n        /* \"staking.sol\":6762:6767  class */\n      dup4\n        /* \"staking.sol\":6762:6772  class == 0 */\n      0xff\n      and\n      eq\n        /* \"staking.sol\":6759:7093  if(class == 0){... */\n      iszero\n      tag_373\n      jumpi\n        /* \"staking.sol\":6801:6814  level0Balance */\n      0x0d\n        /* \"staking.sol\":6801:6820  level0Balance[user] */\n      0x00\n        /* \"staking.sol\":6815:6819  user */\n      dup6\n        /* \"staking.sol\":6801:6820  level0Balance[user] */\n      0xffffffffffffffffffffffffffffffffffffffff\n      and\n      0xffffffffffffffffffffffffffffffffffffffff\n      and\n      dup2\n      mstore\n      0x20\n      add\n      swap1\n      dup2\n      mstore\n      0x20\n      add\n      0x00\n      keccak256\n        /* \"staking.sol\":6801:6831  level0Balance[user].timeFinish */\n      0x02\n      add\n      sload\n        /* \"staking.sol\":6787:6831  releaseTime = level0Balance[user].timeFinish */\n      swap1\n      pop\n        /* \"staking.sol\":6759:7093  if(class == 0){... */\n      jump(tag_374)\n    tag_373:\n        /* \"staking.sol\":6872:6873  1 */\n      0x01\n        /* \"staking.sol\":6863:6868  class */\n      dup4\n        /* \"staking.sol\":6863:6873  class == 1 */\n      0xff\n      and\n      eq\n        /* \"staking.sol\":6859:7093  if (class == 1){... */\n      iszero\n      tag_375\n      jumpi\n        /* \"staking.sol\":6902:6915  level1Balance */\n      0x0f\n        /* \"staking.sol\":6902:6921  level1Balance[user] */\n      0x00\n        /* \"staking.sol\":6916:6920  user */\n      dup6\n        /* \"staking.sol\":6902:6921  level1Balance[user] */\n      0xffffffffffffffffffffffffffffffffffffffff\n      and\n      0xffffffffffffffffffffffffffffffffffffffff\n      and\n      dup2\n      mstore\n      0x20\n      add\n      swap1\n      dup2\n      mstore\n      0x20\n      add\n      0x00\n      keccak256\n        /* \"staking.sol\":6902:6932  level1Balance[user].timeFinish */\n      0x02\n      add\n      sload\n        /* \"staking.sol\":6888:6932  releaseTime = level1Balance[user].timeFinish */\n      swap1\n      pop\n        /* \"staking.sol\":6859:7093  if (class == 1){... */\n      jump(tag_376)\n    tag_375:\n        /* \"staking.sol\":6971:6972  2 */\n      0x02\n        /* \"staking.sol\":6962:6967  class */\n      dup4\n        /* \"staking.sol\":6962:6972  class == 2 */\n      0xff\n      and\n      eq\n        /* \"staking.sol\":6958:7093  if (class == 2){... */\n      iszero\n      tag_377\n      jumpi\n        /* \"staking.sol\":7001:7011  vipBalance */\n      0x11\n        /* \"staking.sol\":7001:7017  vipBalance[user] */\n      0x00\n        /* \"staking.sol\":7012:7016  user */\n      dup6\n        /* \"staking.sol\":7001:7017  vipBalance[user] */\n      0xffffffffffffffffffffffffffffffffffffffff\n      and\n      0xffffffffffffffffffffffffffffffffffffffff\n      and\n      dup2\n      mstore\n      0x20\n      add\n      swap1\n      dup2\n      mstore\n      0x20\n      add\n      0x00\n      keccak256\n        /* \"staking.sol\":7001:7028  vipBalance[user].timeFinish */\n      0x02\n      add\n      sload\n        /* \"staking.sol\":6987:7028  releaseTime = vipBalance[user].timeFinish */\n      swap1\n      pop\n        /* \"staking.sol\":6958:7093  if (class == 2){... */\n      jump(tag_378)\n    tag_377:\n        /* \"staking.sol\":7077:7082  false */\n      0x00\n        /* \"staking.sol\":7070:7082  return false */\n      swap2\n      pop\n      pop\n      jump(tag_372)\n        /* \"staking.sol\":6958:7093  if (class == 2){... */\n    tag_378:\n        /* \"staking.sol\":6859:7093  if (class == 1){... */\n    tag_376:\n        /* \"staking.sol\":6759:7093  if(class == 0){... */\n    tag_374:\n        /* \"staking.sol\":7128:7139  releaseTime */\n      dup1\n        /* \"staking.sol\":7109:7124  block.timestamp */\n      timestamp\n        /* \"staking.sol\":7109:7139  block.timestamp >= releaseTime */\n      lt\n      iszero\n        /* \"staking.sol\":7102:7139  return block.timestamp >= releaseTime */\n      swap2\n      pop\n      pop\n        /* \"staking.sol\":6647:7146  function isOnTime (address user, uint8 class) public view returns (bool) {... */\n    tag_372:\n      swap3\n      swap2\n      pop\n      pop\n      jump\t// out\n        /* \"staking.sol\":3907:4657  function enterLevel0 (uint256 _amount) public whenNotPaused {... */\n    tag_166:\n        /* \"@openzeppelin/contracts/security/Pausable.sol\":1412:1420  paused() */\n      tag_380\n        /* \"@openzeppelin/contracts/security/Pausable.sol\":1412:1418  paused */\n      tag_70\n        /* \"@openzeppelin/contracts/security/Pausable.sol\":1412:1420  paused() */\n      jump\t// in\n    tag_380:\n        /* \"@openzeppelin/contracts/security/Pausable.sol\":1411:1420  !paused() */\n      iszero\n        /* \"@openzeppelin/contracts/security/Pausable.sol\":1403:1441  require(!paused(), \"Pausable: paused\") */\n      tag_381\n      jumpi\n      mload(0x40)\n      0x08c379a000000000000000000000000000000000000000000000000000000000\n      dup2\n      mstore\n      0x04\n      add\n      tag_382\n      swap1\n      tag_171\n      jump\t// in\n    tag_382:\n      mload(0x40)\n      dup1\n      swap2\n      sub\n      swap1\n      revert\n    tag_381:\n        /* \"staking.sol\":3996:4005  level0Max */\n      sload(0x06)\n        /* \"staking.sol\":3985:3992  _amount */\n      dup2\n        /* \"staking.sol\":3985:4005  _amount <= level0Max */\n      gt\n      iszero\n        /* \"staking.sol\":3985:4029  _amount <= level0Max && _amount >= level0Min */\n      dup1\n      iszero\n      tag_384\n      jumpi\n      pop\n        /* \"staking.sol\":4020:4029  level0Min */\n      sload(0x05)\n        /* \"staking.sol\":4009:4016  _amount */\n      dup2\n        /* \"staking.sol\":4009:4029  _amount >= level0Min */\n      lt\n      iszero\n        /* \"staking.sol\":3985:4029  _amount <= level0Max && _amount >= level0Min */\n    tag_384:\n        /* \"staking.sol\":3977:4084  require(_amount <= level0Max && _amount >= level0Min, \"Amount needs to be more than min and less than max\") */\n      tag_385\n      jumpi\n      mload(0x40)\n      0x08c379a000000000000000000000000000000000000000000000000000000000\n      dup2\n      mstore\n      0x04\n      add\n      tag_386\n      swap1\n      tag_176\n      jump\t// in\n    tag_386:\n      mload(0x40)\n      dup1\n      swap2\n      sub\n      swap1\n      revert\n    tag_385:\n        /* \"staking.sol\":4094:4112  address _msgSender */\n      0x00\n        /* \"staking.sol\":4115:4125  msg.sender */\n      caller\n        /* \"staking.sol\":4094:4125  address _msgSender = msg.sender */\n      swap1\n      pop\n        /* \"staking.sol\":4149:4157  isLevel0 */\n      0x0c\n        /* \"staking.sol\":4149:4169  isLevel0[_msgSender] */\n      0x00\n        /* \"staking.sol\":4158:4168  _msgSender */\n      dup3\n        /* \"staking.sol\":4149:4169  isLevel0[_msgSender] */\n      0xffffffffffffffffffffffffffffffffffffffff\n      and\n      0xffffffffffffffffffffffffffffffffffffffff\n      and\n      dup2\n      mstore\n      0x20\n      add\n      swap1\n      dup2\n      mstore\n      0x20\n      add\n      0x00\n      keccak256\n      0x00\n      swap1\n      sload\n      swap1\n      0x0100\n      exp\n      swap1\n      div\n      0xff\n      and\n        /* \"staking.sol\":4148:4169  !isLevel0[_msgSender] */\n      iszero\n        /* \"staking.sol\":4140:4208  require(!isLevel0[_msgSender], \"You're already in this Stake level\") */\n      tag_387\n      jumpi\n      mload(0x40)\n      0x08c379a000000000000000000000000000000000000000000000000000000000\n      dup2\n      mstore\n      0x04\n      add\n      tag_388\n      swap1\n      tag_179\n      jump\t// in\n    tag_388:\n      mload(0x40)\n      dup1\n      swap2\n      sub\n      swap1\n      revert\n    tag_387:\n        /* \"staking.sol\":4223:4236  acceptedToken */\n      0x01\n      0x00\n      swap1\n      sload\n      swap1\n      0x0100\n      exp\n      swap1\n      div\n      0xffffffffffffffffffffffffffffffffffffffff\n      and\n        /* \"staking.sol\":4223:4249  acceptedToken.transferFrom */\n      0xffffffffffffffffffffffffffffffffffffffff\n      and\n      0x23b872dd\n        /* \"staking.sol\":4250:4260  _msgSender */\n      dup3\n        /* \"staking.sol\":4270:4274  this */\n      address\n        /* \"staking.sol\":4277:4284  _amount */\n      dup6\n        /* \"staking.sol\":4223:4285  acceptedToken.transferFrom(_msgSender, address(this), _amount) */\n      mload(0x40)\n      dup5\n      0xffffffff\n      and\n      0xe0\n      shl\n      dup2\n      mstore\n      0x04\n      add\n      tag_389\n      swap4\n      swap3\n      swap2\n      swap1\n      tag_181\n      jump\t// in\n    tag_389:\n      0x20\n      mload(0x40)\n      dup1\n      dup4\n      sub\n      dup2\n      0x00\n      dup8\n      dup1\n      extcodesize\n      iszero\n      dup1\n      iszero\n      tag_390\n      jumpi\n      0x00\n      dup1\n      revert\n    tag_390:\n      pop\n      gas\n      call\n      iszero\n      dup1\n      iszero\n      tag_392\n      jumpi\n      returndatasize\n      0x00\n      dup1\n      returndatacopy\n      revert(0x00, returndatasize)\n    tag_392:\n      pop\n      pop\n      pop\n      pop\n      mload(0x40)\n      returndatasize\n      not(0x1f)\n      0x1f\n      dup3\n      add\n      and\n      dup3\n      add\n      dup1\n      0x40\n      mstore\n      pop\n      dup2\n      add\n      swap1\n      tag_393\n      swap2\n      swap1\n      tag_186\n      jump\t// in\n    tag_393:\n      pop\n        /* \"staking.sol\":4319:4323  true */\n      0x01\n        /* \"staking.sol\":4296:4304  isLevel0 */\n      0x0c\n        /* \"staking.sol\":4296:4316  isLevel0[_msgSender] */\n      0x00\n        /* \"staking.sol\":4305:4315  _msgSender */\n      dup4\n        /* \"staking.sol\":4296:4316  isLevel0[_msgSender] */\n      0xffffffffffffffffffffffffffffffffffffffff\n      and\n      0xffffffffffffffffffffffffffffffffffffffff\n      and\n      dup2\n      mstore\n      0x20\n      add\n      swap1\n      dup2\n      mstore\n      0x20\n      add\n      0x00\n      keccak256\n      0x00\n        /* \"staking.sol\":4296:4323  isLevel0[_msgSender] = true */\n      0x0100\n      exp\n      dup2\n      sload\n      dup2\n      0xff\n      mul\n      not\n      and\n      swap1\n      dup4\n      iszero\n      iszero\n      mul\n      or\n      swap1\n      sstore\n      pop\n        /* \"staking.sol\":4361:4550  _user ({... */\n      mload(0x40)\n      dup1\n      0x60\n      add\n      0x40\n      mstore\n      dup1\n        /* \"staking.sol\":4391:4398  _amount */\n      dup4\n        /* \"staking.sol\":4361:4550  _user ({... */\n      dup2\n      mstore\n      0x20\n      add\n        /* \"staking.sol\":4425:4440  block.timestamp */\n      timestamp\n        /* \"staking.sol\":4361:4550  _user ({... */\n      dup2\n      mstore\n      0x20\n      add\n        /* \"staking.sol\":4536:4539  600 */\n      0x0258\n        /* \"staking.sol\":4518:4533  block.timestamp */\n      timestamp\n        /* \"staking.sol\":4518:4539  block.timestamp + 600 */\n      tag_394\n      swap2\n      swap1\n      tag_188\n      jump\t// in\n    tag_394:\n        /* \"staking.sol\":4361:4550  _user ({... */\n      dup2\n      mstore\n      pop\n        /* \"staking.sol\":4333:4346  level0Balance */\n      0x0d\n        /* \"staking.sol\":4333:4358  level0Balance[_msgSender] */\n      0x00\n        /* \"staking.sol\":4347:4357  _msgSender */\n      dup4\n        /* \"staking.sol\":4333:4358  level0Balance[_msgSender] */\n      0xffffffffffffffffffffffffffffffffffffffff\n      and\n      0xffffffffffffffffffffffffffffffffffffffff\n      and\n      dup2\n      mstore\n      0x20\n      add\n      swap1\n      dup2\n      mstore\n      0x20\n      add\n      0x00\n      keccak256\n        /* \"staking.sol\":4333:4550  level0Balance[_msgSender] = _user ({... */\n      0x00\n      dup3\n      add\n      mload\n      dup2\n      0x00\n      add\n      sstore\n      0x20\n      dup3\n      add\n      mload\n      dup2\n      0x01\n      add\n      sstore\n      0x40\n      dup3\n      add\n      mload\n      dup2\n      0x02\n      add\n      sstore\n      swap1\n      pop\n      pop\n        /* \"staking.sol\":4575:4650  deposit (_msgSender, 0, _amount, block.timestamp, block.timestamp + 7 days) */\n      0x17849bb8c713de96b48f218d3bacc9af082261c3ccc7c6dccebe70e667b22f23\n        /* \"staking.sol\":4584:4594  _msgSender */\n      dup2\n        /* \"staking.sol\":4596:4597  0 */\n      0x00\n        /* \"staking.sol\":4599:4606  _amount */\n      dup5\n        /* \"staking.sol\":4608:4623  block.timestamp */\n      timestamp\n        /* \"staking.sol\":4643:4649  7 days */\n      0x093a80\n        /* \"staking.sol\":4625:4640  block.timestamp */\n      timestamp\n        /* \"staking.sol\":4625:4649  block.timestamp + 7 days */\n      tag_395\n      swap2\n      swap1\n      tag_188\n      jump\t// in\n    tag_395:\n        /* \"staking.sol\":4575:4650  deposit (_msgSender, 0, _amount, block.timestamp, block.timestamp + 7 days) */\n      mload(0x40)\n      tag_396\n      swap6\n      swap5\n      swap4\n      swap3\n      swap2\n      swap1\n      tag_397\n      jump\t// in\n    tag_396:\n      mload(0x40)\n      dup1\n      swap2\n      sub\n      swap1\n      log1\n        /* \"staking.sol\":3967:4657  {... */\n      pop\n        /* \"staking.sol\":3907:4657  function enterLevel0 (uint256 _amount) public whenNotPaused {... */\n      pop\n      jump\t// out\n        /* \"@openzeppelin/contracts/utils/Context.sol\":640:736  function _msgSender() internal view virtual returns (address) {... */\n    tag_194:\n        /* \"@openzeppelin/contracts/utils/Context.sol\":693:700  address */\n      0x00\n        /* \"@openzeppelin/contracts/utils/Context.sol\":719:729  msg.sender */\n      caller\n        /* \"@openzeppelin/contracts/utils/Context.sol\":712:729  return msg.sender */\n      swap1\n      pop\n        /* \"@openzeppelin/contracts/utils/Context.sol\":640:736  function _msgSender() internal view virtual returns (address) {... */\n      swap1\n      jump\t// out\n        /* \"@openzeppelin/contracts/security/Pausable.sol\":2110:2227  function _unpause() internal virtual whenPaused {... */\n    tag_201:\n        /* \"@openzeppelin/contracts/security/Pausable.sol\":1677:1685  paused() */\n      tag_400\n        /* \"@openzeppelin/contracts/security/Pausable.sol\":1677:1683  paused */\n      tag_70\n        /* \"@openzeppelin/contracts/security/Pausable.sol\":1677:1685  paused() */\n      jump\t// in\n    tag_400:\n        /* \"@openzeppelin/contracts/security/Pausable.sol\":1669:1710  require(paused(), \"Pausable: not paused\") */\n      tag_401\n      jumpi\n      mload(0x40)\n      0x08c379a000000000000000000000000000000000000000000000000000000000\n      dup2\n      mstore\n      0x04\n      add\n      tag_402\n      swap1\n      tag_403\n      jump\t// in\n    tag_402:\n      mload(0x40)\n      dup1\n      swap2\n      sub\n      swap1\n      revert\n    tag_401:\n        /* \"@openzeppelin/contracts/security/Pausable.sol\":2178:2183  false */\n      0x00\n        /* \"@openzeppelin/contracts/security/Pausable.sol\":2168:2175  _paused */\n      dup1\n      0x14\n        /* \"@openzeppelin/contracts/security/Pausable.sol\":2168:2183  _paused = false */\n      0x0100\n      exp\n      dup2\n      sload\n      dup2\n      0xff\n      mul\n      not\n      and\n      swap1\n      dup4\n      iszero\n      iszero\n      mul\n      or\n      swap1\n      sstore\n      pop\n        /* \"@openzeppelin/contracts/security/Pausable.sol\":2198:2220  Unpaused(_msgSender()) */\n      0x5db9ee0a495bf2e6ff9c91a7834c1ba4fdd244a5e8aa4e537bd38aeae4b073aa\n        /* \"@openzeppelin/contracts/security/Pausable.sol\":2207:2219  _msgSender() */\n      tag_405\n        /* \"@openzeppelin/contracts/security/Pausable.sol\":2207:2217  _msgSender */\n      tag_194\n        /* \"@openzeppelin/contracts/security/Pausable.sol\":2207:2219  _msgSender() */\n      jump\t// in\n    tag_405:\n        /* \"@openzeppelin/contracts/security/Pausable.sol\":2198:2220  Unpaused(_msgSender()) */\n      mload(0x40)\n      tag_406\n      swap2\n      swap1\n      tag_119\n      jump\t// in\n    tag_406:\n      mload(0x40)\n      dup1\n      swap2\n      sub\n      swap1\n      log1\n        /* \"@openzeppelin/contracts/security/Pausable.sol\":2110:2227  function _unpause() internal virtual whenPaused {... */\n      jump\t// out\n        /* \"staking.sol\":7973:8337  function calculateInterest (uint256 _balance, uint256 _timeStarted, uint256 _APY) internal view returns (uint256){... */\n    tag_239:\n        /* \"staking.sol\":8078:8085  uint256 */\n      0x00\n        /* \"staking.sol\":8096:8114  uint256 timeStaked */\n      dup1\n        /* \"staking.sol\":8135:8147  _timeStarted */\n      dup4\n        /* \"staking.sol\":8117:8132  block.timestamp */\n      timestamp\n        /* \"staking.sol\":8117:8147  block.timestamp - _timeStarted */\n      tag_408\n      swap2\n      swap1\n      tag_215\n      jump\t// in\n    tag_408:\n        /* \"staking.sol\":8096:8147  uint256 timeStaked = block.timestamp - _timeStarted */\n      swap1\n      pop\n        /* \"staking.sol\":8165:8190  uint256 interestPerSecond */\n      0x00\n        /* \"staking.sol\":8223:8231  365 days */\n      0x01e13380\n        /* \"staking.sol\":8214:8219  10000 */\n      0x2710\n        /* \"staking.sol\":8206:8210  _APY */\n      dup6\n        /* \"staking.sol\":8195:8203  _balance */\n      dup9\n        /* \"staking.sol\":8195:8210  _balance * _APY */\n      tag_409\n      swap2\n      swap1\n      tag_410\n      jump\t// in\n    tag_409:\n        /* \"staking.sol\":8194:8219  (_balance * _APY) / 10000 */\n      tag_411\n      swap2\n      swap1\n      tag_412\n      jump\t// in\n    tag_411:\n        /* \"staking.sol\":8193:8231  ((_balance * _APY) / 10000) / 365 days */\n      tag_413\n      swap2\n      swap1\n      tag_412\n      jump\t// in\n    tag_413:\n        /* \"staking.sol\":8165:8231  uint256 interestPerSecond = ((_balance * _APY) / 10000) / 365 days */\n      swap1\n      pop\n        /* \"staking.sol\":8241:8264  uint256 interestsEarned */\n      0x00\n        /* \"staking.sol\":8280:8297  interestPerSecond */\n      dup2\n        /* \"staking.sol\":8267:8277  timeStaked */\n      dup4\n        /* \"staking.sol\":8267:8297  timeStaked * interestPerSecond */\n      tag_414\n      swap2\n      swap1\n      tag_410\n      jump\t// in\n    tag_414:\n        /* \"staking.sol\":8241:8297  uint256 interestsEarned = timeStaked * interestPerSecond */\n      swap1\n      pop\n        /* \"staking.sol\":8315:8330  interestsEarned */\n      dup1\n        /* \"staking.sol\":8308:8330  return interestsEarned */\n      swap4\n      pop\n      pop\n      pop\n      pop\n        /* \"staking.sol\":7973:8337  function calculateInterest (uint256 _balance, uint256 _timeStarted, uint256 _APY) internal view returns (uint256){... */\n      swap4\n      swap3\n      pop\n      pop\n      pop\n      jump\t// out\n        /* \"@openzeppelin/contracts/access/Ownable.sol\":2270:2457  function _transferOwnership(address newOwner) internal virtual {... */\n    tag_254:\n        /* \"@openzeppelin/contracts/access/Ownable.sol\":2343:2359  address oldOwner */\n      0x00\n        /* \"@openzeppelin/contracts/access/Ownable.sol\":2362:2368  _owner */\n      dup1\n      0x00\n      swap1\n      sload\n      swap1\n      0x0100\n      exp\n      swap1\n      div\n      0xffffffffffffffffffffffffffffffffffffffff\n      and\n        /* \"@openzeppelin/contracts/access/Ownable.sol\":2343:2368  address oldOwner = _owner */\n      swap1\n      pop\n        /* \"@openzeppelin/contracts/access/Ownable.sol\":2387:2395  newOwner */\n      dup2\n        /* \"@openzeppelin/contracts/access/Ownable.sol\":2378:2384  _owner */\n      0x00\n      dup1\n        /* \"@openzeppelin/contracts/access/Ownable.sol\":2378:2395  _owner = newOwner */\n      0x0100\n      exp\n      dup2\n      sload\n      dup2\n      0xffffffffffffffffffffffffffffffffffffffff\n      mul\n      not\n      and\n      swap1\n      dup4\n      0xffffffffffffffffffffffffffffffffffffffff\n      and\n      mul\n      or\n      swap1\n      sstore\n      pop\n        /* \"@openzeppelin/contracts/access/Ownable.sol\":2441:2449  newOwner */\n      dup2\n        /* \"@openzeppelin/contracts/access/Ownable.sol\":2410:2450  OwnershipTransferred(oldOwner, newOwner) */\n      0xffffffffffffffffffffffffffffffffffffffff\n      and\n        /* \"@openzeppelin/contracts/access/Ownable.sol\":2431:2439  oldOwner */\n      dup2\n        /* \"@openzeppelin/contracts/access/Ownable.sol\":2410:2450  OwnershipTransferred(oldOwner, newOwner) */\n      0xffffffffffffffffffffffffffffffffffffffff\n      and\n      0x8be0079c531659141344cd1fd0a4f28419497f9722a3daafe3b4186f6b6457e0\n      mload(0x40)\n      mload(0x40)\n      dup1\n      swap2\n      sub\n      swap1\n      log3\n        /* \"@openzeppelin/contracts/access/Ownable.sol\":2333:2457  {... */\n      pop\n        /* \"@openzeppelin/contracts/access/Ownable.sol\":2270:2457  function _transferOwnership(address newOwner) internal virtual {... */\n      pop\n      jump\t// out\n        /* \"@openzeppelin/contracts/security/Pausable.sol\":1863:1978  function _pause() internal virtual whenNotPaused {... */\n    tag_262:\n        /* \"@openzeppelin/contracts/security/Pausable.sol\":1412:1420  paused() */\n      tag_417\n        /* \"@openzeppelin/contracts/security/Pausable.sol\":1412:1418  paused */\n      tag_70\n        /* \"@openzeppelin/contracts/security/Pausable.sol\":1412:1420  paused() */\n      jump\t// in\n    tag_417:\n        /* \"@openzeppelin/contracts/security/Pausable.sol\":1411:1420  !paused() */\n      iszero\n        /* \"@openzeppelin/contracts/security/Pausable.sol\":1403:1441  require(!paused(), \"Pausable: paused\") */\n      tag_418\n      jumpi\n      mload(0x40)\n      0x08c379a000000000000000000000000000000000000000000000000000000000\n      dup2\n      mstore\n      0x04\n      add\n      tag_419\n      swap1\n      tag_171\n      jump\t// in\n    tag_419:\n      mload(0x40)\n      dup1\n      swap2\n      sub\n      swap1\n      revert\n    tag_418:\n        /* \"@openzeppelin/contracts/security/Pausable.sol\":1932:1936  true */\n      0x01\n        /* \"@openzeppelin/contracts/security/Pausable.sol\":1922:1929  _paused */\n      0x00\n      0x14\n        /* \"@openzeppelin/contracts/security/Pausable.sol\":1922:1936  _paused = true */\n      0x0100\n      exp\n      dup2\n      sload\n      dup2\n      0xff\n      mul\n      not\n      and\n      swap1\n      dup4\n      iszero\n      iszero\n      mul\n      or\n      swap1\n      sstore\n      pop\n        /* \"@openzeppelin/contracts/security/Pausable.sol\":1951:1971  Paused(_msgSender()) */\n      0x62e78cea01bee320cd4e420270b5ea74000d11b0c9f74754ebdbfc544b05a258\n        /* \"@openzeppelin/contracts/security/Pausable.sol\":1958:1970  _msgSender() */\n      tag_421\n        /* \"@openzeppelin/contracts/security/Pausable.sol\":1958:1968  _msgSender */\n      tag_194\n        /* \"@openzeppelin/contracts/security/Pausable.sol\":1958:1970  _msgSender() */\n      jump\t// in\n    tag_421:\n        /* \"@openzeppelin/contracts/security/Pausable.sol\":1951:1971  Paused(_msgSender()) */\n      mload(0x40)\n      tag_422\n      swap2\n      swap1\n      tag_119\n      jump\t// in\n    tag_422:\n      mload(0x40)\n      dup1\n      swap2\n      sub\n      swap1\n      log1\n        /* \"@openzeppelin/contracts/security/Pausable.sol\":1863:1978  function _pause() internal virtual whenNotPaused {... */\n      jump\t// out\n        /* \"#utility.yul\":7:146   */\n    tag_424:\n        /* \"#utility.yul\":53:58   */\n      0x00\n        /* \"#utility.yul\":91:97   */\n      dup2\n        /* \"#utility.yul\":78:98   */\n      calldataload\n        /* \"#utility.yul\":69:98   */\n      swap1\n      pop\n        /* \"#utility.yul\":107:140   */\n      tag_426\n        /* \"#utility.yul\":134:139   */\n      dup2\n        /* \"#utility.yul\":107:140   */\n      tag_427\n      jump\t// in\n    tag_426:\n        /* \"#utility.yul\":7:146   */\n      swap3\n      swap2\n      pop\n      pop\n      jump\t// out\n        /* \"#utility.yul\":152:289   */\n    tag_428:\n        /* \"#utility.yul\":206:211   */\n      0x00\n        /* \"#utility.yul\":237:243   */\n      dup2\n        /* \"#utility.yul\":231:244   */\n      mload\n        /* \"#utility.yul\":222:244   */\n      swap1\n      pop\n        /* \"#utility.yul\":253:283   */\n      tag_430\n        /* \"#utility.yul\":277:282   */\n      dup2\n        /* \"#utility.yul\":253:283   */\n      tag_431\n      jump\t// in\n    tag_430:\n        /* \"#utility.yul\":152:289   */\n      swap3\n      swap2\n      pop\n      pop\n      jump\t// out\n        /* \"#utility.yul\":295:434   */\n    tag_432:\n        /* \"#utility.yul\":341:346   */\n      0x00\n        /* \"#utility.yul\":379:385   */\n      dup2\n        /* \"#utility.yul\":366:386   */\n      calldataload\n        /* \"#utility.yul\":357:386   */\n      swap1\n      pop\n        /* \"#utility.yul\":395:428   */\n      tag_434\n        /* \"#utility.yul\":422:427   */\n      dup2\n        /* \"#utility.yul\":395:428   */\n      tag_435\n      jump\t// in\n    tag_434:\n        /* \"#utility.yul\":295:434   */\n      swap3\n      swap2\n      pop\n      pop\n      jump\t// out\n        /* \"#utility.yul\":440:575   */\n    tag_436:\n        /* \"#utility.yul\":484:489   */\n      0x00\n        /* \"#utility.yul\":522:528   */\n      dup2\n        /* \"#utility.yul\":509:529   */\n      calldataload\n        /* \"#utility.yul\":500:529   */\n      swap1\n      pop\n        /* \"#utility.yul\":538:569   */\n      tag_438\n        /* \"#utility.yul\":563:568   */\n      dup2\n        /* \"#utility.yul\":538:569   */\n      tag_439\n      jump\t// in\n    tag_438:\n        /* \"#utility.yul\":440:575   */\n      swap3\n      swap2\n      pop\n      pop\n      jump\t// out\n        /* \"#utility.yul\":581:910   */\n    tag_75:\n        /* \"#utility.yul\":640:646   */\n      0x00\n        /* \"#utility.yul\":689:691   */\n      0x20\n        /* \"#utility.yul\":677:686   */\n      dup3\n        /* \"#utility.yul\":668:675   */\n      dup5\n        /* \"#utility.yul\":664:687   */\n      sub\n        /* \"#utility.yul\":660:692   */\n      slt\n        /* \"#utility.yul\":657:776   */\n      iszero\n      tag_441\n      jumpi\n        /* \"#utility.yul\":695:774   */\n      tag_442\n      tag_443\n      jump\t// in\n    tag_442:\n        /* \"#utility.yul\":657:776   */\n    tag_441:\n        /* \"#utility.yul\":815:816   */\n      0x00\n        /* \"#utility.yul\":840:893   */\n      tag_444\n        /* \"#utility.yul\":885:892   */\n      dup5\n        /* \"#utility.yul\":876:882   */\n      dup3\n        /* \"#utility.yul\":865:874   */\n      dup6\n        /* \"#utility.yul\":861:883   */\n      add\n        /* \"#utility.yul\":840:893   */\n      tag_424\n      jump\t// in\n    tag_444:\n        /* \"#utility.yul\":830:893   */\n      swap2\n      pop\n        /* \"#utility.yul\":786:903   */\n      pop\n        /* \"#utility.yul\":581:910   */\n      swap3\n      swap2\n      pop\n      pop\n      jump\t// out\n        /* \"#utility.yul\":916:1386   */\n    tag_161:\n        /* \"#utility.yul\":982:988   */\n      0x00\n        /* \"#utility.yul\":990:996   */\n      dup1\n        /* \"#utility.yul\":1039:1041   */\n      0x40\n        /* \"#utility.yul\":1027:1036   */\n      dup4\n        /* \"#utility.yul\":1018:1025   */\n      dup6\n        /* \"#utility.yul\":1014:1037   */\n      sub\n        /* \"#utility.yul\":1010:1042   */\n      slt\n        /* \"#utility.yul\":1007:1126   */\n      iszero\n      tag_446\n      jumpi\n        /* \"#utility.yul\":1045:1124   */\n      tag_447\n      tag_443\n      jump\t// in\n    tag_447:\n        /* \"#utility.yul\":1007:1126   */\n    tag_446:\n        /* \"#utility.yul\":1165:1166   */\n      0x00\n        /* \"#utility.yul\":1190:1243   */\n      tag_448\n        /* \"#utility.yul\":1235:1242   */\n      dup6\n        /* \"#utility.yul\":1226:1232   */\n      dup3\n        /* \"#utility.yul\":1215:1224   */\n      dup7\n        /* \"#utility.yul\":1211:1233   */\n      add\n        /* \"#utility.yul\":1190:1243   */\n      tag_424\n      jump\t// in\n    tag_448:\n        /* \"#utility.yul\":1180:1243   */\n      swap3\n      pop\n        /* \"#utility.yul\":1136:1253   */\n      pop\n        /* \"#utility.yul\":1292:1294   */\n      0x20\n        /* \"#utility.yul\":1318:1369   */\n      tag_449\n        /* \"#utility.yul\":1361:1368   */\n      dup6\n        /* \"#utility.yul\":1352:1358   */\n      dup3\n        /* \"#utility.yul\":1341:1350   */\n      dup7\n        /* \"#utility.yul\":1337:1359   */\n      add\n        /* \"#utility.yul\":1318:1369   */\n      tag_436\n      jump\t// in\n    tag_449:\n        /* \"#utility.yul\":1308:1369   */\n      swap2\n      pop\n        /* \"#utility.yul\":1263:1379   */\n      pop\n        /* \"#utility.yul\":916:1386   */\n      swap3\n      pop\n      swap3\n      swap1\n      pop\n      jump\t// out\n        /* \"#utility.yul\":1392:2007   */\n    tag_95:\n        /* \"#utility.yul\":1467:1473   */\n      0x00\n        /* \"#utility.yul\":1475:1481   */\n      dup1\n        /* \"#utility.yul\":1483:1489   */\n      0x00\n        /* \"#utility.yul\":1532:1534   */\n      0x60\n        /* \"#utility.yul\":1520:1529   */\n      dup5\n        /* \"#utility.yul\":1511:1518   */\n      dup7\n        /* \"#utility.yul\":1507:1530   */\n      sub\n        /* \"#utility.yul\":1503:1535   */\n      slt\n        /* \"#utility.yul\":1500:1619   */\n      iszero\n      tag_451\n      jumpi\n        /* \"#utility.yul\":1538:1617   */\n      tag_452\n      tag_443\n      jump\t// in\n    tag_452:\n        /* \"#utility.yul\":1500:1619   */\n    tag_451:\n        /* \"#utility.yul\":1658:1659   */\n      0x00\n        /* \"#utility.yul\":1683:1736   */\n      tag_453\n        /* \"#utility.yul\":1728:1735   */\n      dup7\n        /* \"#utility.yul\":1719:1725   */\n      dup3\n        /* \"#utility.yul\":1708:1717   */\n      dup8\n        /* \"#utility.yul\":1704:1726   */\n      add\n        /* \"#utility.yul\":1683:1736   */\n      tag_424\n      jump\t// in\n    tag_453:\n        /* \"#utility.yul\":1673:1736   */\n      swap4\n      pop\n        /* \"#utility.yul\":1629:1746   */\n      pop\n        /* \"#utility.yul\":1785:1787   */\n      0x20\n        /* \"#utility.yul\":1811:1862   */\n      tag_454\n        /* \"#utility.yul\":1854:1861   */\n      dup7\n        /* \"#utility.yul\":1845:1851   */\n      dup3\n        /* \"#utility.yul\":1834:1843   */\n      dup8\n        /* \"#utility.yul\":1830:1852   */\n      add\n        /* \"#utility.yul\":1811:1862   */\n      tag_436\n      jump\t// in\n    tag_454:\n        /* \"#utility.yul\":1801:1862   */\n      swap3\n      pop\n        /* \"#utility.yul\":1756:1872   */\n      pop\n        /* \"#utility.yul\":1911:1913   */\n      0x40\n        /* \"#utility.yul\":1937:1990   */\n      tag_455\n        /* \"#utility.yul\":1982:1989   */\n      dup7\n        /* \"#utility.yul\":1973:1979   */\n      dup3\n        /* \"#utility.yul\":1962:1971   */\n      dup8\n        /* \"#utility.yul\":1958:1980   */\n      add\n        /* \"#utility.yul\":1937:1990   */\n      tag_432\n      jump\t// in\n    tag_455:\n        /* \"#utility.yul\":1927:1990   */\n      swap2\n      pop\n        /* \"#utility.yul\":1882:2000   */\n      pop\n        /* \"#utility.yul\":1392:2007   */\n      swap3\n      pop\n      swap3\n      pop\n      swap3\n      jump\t// out\n        /* \"#utility.yul\":2013:2358   */\n    tag_186:\n        /* \"#utility.yul\":2080:2086   */\n      0x00\n        /* \"#utility.yul\":2129:2131   */\n      0x20\n        /* \"#utility.yul\":2117:2126   */\n      dup3\n        /* \"#utility.yul\":2108:2115   */\n      dup5\n        /* \"#utility.yul\":2104:2127   */\n      sub\n        /* \"#utility.yul\":2100:2132   */\n      slt\n        /* \"#utility.yul\":2097:2216   */\n      iszero\n      tag_457\n      jumpi\n        /* \"#utility.yul\":2135:2214   */\n      tag_458\n      tag_443\n      jump\t// in\n    tag_458:\n        /* \"#utility.yul\":2097:2216   */\n    tag_457:\n        /* \"#utility.yul\":2255:2256   */\n      0x00\n        /* \"#utility.yul\":2280:2341   */\n      tag_459\n        /* \"#utility.yul\":2333:2340   */\n      dup5\n        /* \"#utility.yul\":2324:2330   */\n      dup3\n        /* \"#utility.yul\":2313:2322   */\n      dup6\n        /* \"#utility.yul\":2309:2331   */\n      add\n        /* \"#utility.yul\":2280:2341   */\n      tag_428\n      jump\t// in\n    tag_459:\n        /* \"#utility.yul\":2270:2341   */\n      swap2\n      pop\n        /* \"#utility.yul\":2226:2351   */\n      pop\n        /* \"#utility.yul\":2013:2358   */\n      swap3\n      swap2\n      pop\n      pop\n      jump\t// out\n        /* \"#utility.yul\":2364:2693   */\n    tag_55:\n        /* \"#utility.yul\":2423:2429   */\n      0x00\n        /* \"#utility.yul\":2472:2474   */\n      0x20\n        /* \"#utility.yul\":2460:2469   */\n      dup3\n        /* \"#utility.yul\":2451:2458   */\n      dup5\n        /* \"#utility.yul\":2447:2470   */\n      sub\n        /* \"#utility.yul\":2443:2475   */\n      slt\n        /* \"#utility.yul\":2440:2559   */\n      iszero\n      tag_461\n      jumpi\n        /* \"#utility.yul\":2478:2557   */\n      tag_462\n      tag_443\n      jump\t// in\n    tag_462:\n        /* \"#utility.yul\":2440:2559   */\n    tag_461:\n        /* \"#utility.yul\":2598:2599   */\n      0x00\n        /* \"#utility.yul\":2623:2676   */\n      tag_463\n        /* \"#utility.yul\":2668:2675   */\n      dup5\n        /* \"#utility.yul\":2659:2665   */\n      dup3\n        /* \"#utility.yul\":2648:2657   */\n      dup6\n        /* \"#utility.yul\":2644:2666   */\n      add\n        /* \"#utility.yul\":2623:2676   */\n      tag_432\n      jump\t// in\n    tag_463:\n        /* \"#utility.yul\":2613:2676   */\n      swap2\n      pop\n        /* \"#utility.yul\":2569:2686   */\n      pop\n        /* \"#utility.yul\":2364:2693   */\n      swap3\n      swap2\n      pop\n      pop\n      jump\t// out\n        /* \"#utility.yul\":2699:3318   */\n    tag_150:\n        /* \"#utility.yul\":2776:2782   */\n      0x00\n        /* \"#utility.yul\":2784:2790   */\n      dup1\n        /* \"#utility.yul\":2792:2798   */\n      0x00\n        /* \"#utility.yul\":2841:2843   */\n      0x60\n        /* \"#utility.yul\":2829:2838   */\n      dup5\n        /* \"#utility.yul\":2820:2827   */\n      dup7\n        /* \"#utility.yul\":2816:2839   */\n      sub\n        /* \"#utility.yul\":2812:2844   */\n      slt\n        /* \"#utility.yul\":2809:2928   */\n      iszero\n      tag_465\n      jumpi\n        /* \"#utility.yul\":2847:2926   */\n      tag_466\n      tag_443\n      jump\t// in\n    tag_466:\n        /* \"#utility.yul\":2809:2928   */\n    tag_465:\n        /* \"#utility.yul\":2967:2968   */\n      0x00\n        /* \"#utility.yul\":2992:3045   */\n      tag_467\n        /* \"#utility.yul\":3037:3044   */\n      dup7\n        /* \"#utility.yul\":3028:3034   */\n      dup3\n        /* \"#utility.yul\":3017:3026   */\n      dup8\n        /* \"#utility.yul\":3013:3035   */\n      add\n        /* \"#utility.yul\":2992:3045   */\n      tag_432\n      jump\t// in\n    tag_467:\n        /* \"#utility.yul\":2982:3045   */\n      swap4\n      pop\n        /* \"#utility.yul\":2938:3055   */\n      pop\n        /* \"#utility.yul\":3094:3096   */\n      0x20\n        /* \"#utility.yul\":3120:3173   */\n      tag_468\n        /* \"#utility.yul\":3165:3172   */\n      dup7\n        /* \"#utility.yul\":3156:3162   */\n      dup3\n        /* \"#utility.yul\":3145:3154   */\n      dup8\n        /* \"#utility.yul\":3141:3163   */\n      add\n        /* \"#utility.yul\":3120:3173   */\n      tag_432\n      jump\t// in\n    tag_468:\n        /* \"#utility.yul\":3110:3173   */\n      swap3\n      pop\n        /* \"#utility.yul\":3065:3183   */\n      pop\n        /* \"#utility.yul\":3222:3224   */\n      0x40\n        /* \"#utility.yul\":3248:3301   */\n      tag_469\n        /* \"#utility.yul\":3293:3300   */\n      dup7\n        /* \"#utility.yul\":3284:3290   */\n      dup3\n        /* \"#utility.yul\":3273:3282   */\n      dup8\n        /* \"#utility.yul\":3269:3291   */\n      add\n        /* \"#utility.yul\":3248:3301   */\n      tag_432\n      jump\t// in\n    tag_469:\n        /* \"#utility.yul\":3238:3301   */\n      swap2\n      pop\n        /* \"#utility.yul\":3193:3311   */\n      pop\n        /* \"#utility.yul\":2699:3318   */\n      swap3\n      pop\n      swap3\n      pop\n      swap3\n      jump\t// out\n        /* \"#utility.yul\":3324:4381   */\n    tag_157:\n        /* \"#utility.yul\":3428:3434   */\n      0x00\n        /* \"#utility.yul\":3436:3442   */\n      dup1\n        /* \"#utility.yul\":3444:3450   */\n      0x00\n        /* \"#utility.yul\":3452:3458   */\n      dup1\n        /* \"#utility.yul\":3460:3466   */\n      0x00\n        /* \"#utility.yul\":3468:3474   */\n      dup1\n        /* \"#utility.yul\":3517:3520   */\n      0xc0\n        /* \"#utility.yul\":3505:3514   */\n      dup8\n        /* \"#utility.yul\":3496:3503   */\n      dup10\n        /* \"#utility.yul\":3492:3515   */\n      sub\n        /* \"#utility.yul\":3488:3521   */\n      slt\n        /* \"#utility.yul\":3485:3605   */\n      iszero\n      tag_471\n      jumpi\n        /* \"#utility.yul\":3524:3603   */\n      tag_472\n      tag_443\n      jump\t// in\n    tag_472:\n        /* \"#utility.yul\":3485:3605   */\n    tag_471:\n        /* \"#utility.yul\":3644:3645   */\n      0x00\n        /* \"#utility.yul\":3669:3722   */\n      tag_473\n        /* \"#utility.yul\":3714:3721   */\n      dup10\n        /* \"#utility.yul\":3705:3711   */\n      dup3\n        /* \"#utility.yul\":3694:3703   */\n      dup11\n        /* \"#utility.yul\":3690:3712   */\n      add\n        /* \"#utility.yul\":3669:3722   */\n      tag_432\n      jump\t// in\n    tag_473:\n        /* \"#utility.yul\":3659:3722   */\n      swap7\n      pop\n        /* \"#utility.yul\":3615:3732   */\n      pop\n        /* \"#utility.yul\":3771:3773   */\n      0x20\n        /* \"#utility.yul\":3797:3850   */\n      tag_474\n        /* \"#utility.yul\":3842:3849   */\n      dup10\n        /* \"#utility.yul\":3833:3839   */\n      dup3\n        /* \"#utility.yul\":3822:3831   */\n      dup11\n        /* \"#utility.yul\":3818:3840   */\n      add\n        /* \"#utility.yul\":3797:3850   */\n      tag_432\n      jump\t// in\n    tag_474:\n        /* \"#utility.yul\":3787:3850   */\n      swap6\n      pop\n        /* \"#utility.yul\":3742:3860   */\n      pop\n        /* \"#utility.yul\":3899:3901   */\n      0x40\n        /* \"#utility.yul\":3925:3978   */\n      tag_475\n        /* \"#utility.yul\":3970:3977   */\n      dup10\n        /* \"#utility.yul\":3961:3967   */\n      dup3\n        /* \"#utility.yul\":3950:3959   */\n      dup11\n        /* \"#utility.yul\":3946:3968   */\n      add\n        /* \"#utility.yul\":3925:3978   */\n      tag_432\n      jump\t// in\n    tag_475:\n        /* \"#utility.yul\":3915:3978   */\n      swap5\n      pop\n        /* \"#utility.yul\":3870:3988   */\n      pop\n        /* \"#utility.yul\":4027:4029   */\n      0x60\n        /* \"#utility.yul\":4053:4106   */\n      tag_476\n        /* \"#utility.yul\":4098:4105   */\n      dup10\n        /* \"#utility.yul\":4089:4095   */\n      dup3\n        /* \"#utility.yul\":4078:4087   */\n      dup11\n        /* \"#utility.yul\":4074:4096   */\n      add\n        /* \"#utility.yul\":4053:4106   */\n      tag_432\n      jump\t// in\n    tag_476:\n        /* \"#utility.yul\":4043:4106   */\n      swap4\n      pop\n        /* \"#utility.yul\":3998:4116   */\n      pop\n        /* \"#utility.yul\":4155:4158   */\n      0x80\n        /* \"#utility.yul\":4182:4235   */\n      tag_477\n        /* \"#utility.yul\":4227:4234   */\n      dup10\n        /* \"#utility.yul\":4218:4224   */\n      dup3\n        /* \"#utility.yul\":4207:4216   */\n      dup11\n        /* \"#utility.yul\":4203:4225   */\n      add\n        /* \"#utility.yul\":4182:4235   */\n      tag_432\n      jump\t// in\n    tag_477:\n        /* \"#utility.yul\":4172:4235   */\n      swap3\n      pop\n        /* \"#utility.yul\":4126:4245   */\n      pop\n        /* \"#utility.yul\":4284:4287   */\n      0xa0\n        /* \"#utility.yul\":4311:4364   */\n      tag_478\n        /* \"#utility.yul\":4356:4363   */\n      dup10\n        /* \"#utility.yul\":4347:4353   */\n      dup3\n        /* \"#utility.yul\":4336:4345   */\n      dup11\n        /* \"#utility.yul\":4332:4354   */\n      add\n        /* \"#utility.yul\":4311:4364   */\n      tag_432\n      jump\t// in\n    tag_478:\n        /* \"#utility.yul\":4301:4364   */\n      swap2\n      pop\n        /* \"#utility.yul\":4255:4374   */\n      pop\n        /* \"#utility.yul\":3324:4381   */\n      swap3\n      swap6\n      pop\n      swap3\n      swap6\n      pop\n      swap3\n      swap6\n      jump\t// out\n        /* \"#utility.yul\":4387:4505   */\n    tag_479:\n        /* \"#utility.yul\":4474:4498   */\n      tag_481\n        /* \"#utility.yul\":4492:4497   */\n      dup2\n        /* \"#utility.yul\":4474:4498   */\n      tag_482\n      jump\t// in\n    tag_481:\n        /* \"#utility.yul\":4469:4472   */\n      dup3\n        /* \"#utility.yul\":4462:4499   */\n      mstore\n        /* \"#utility.yul\":4387:4505   */\n      pop\n      pop\n      jump\t// out\n        /* \"#utility.yul\":4511:4620   */\n    tag_483:\n        /* \"#utility.yul\":4592:4613   */\n      tag_485\n        /* \"#utility.yul\":4607:4612   */\n      dup2\n        /* \"#utility.yul\":4592:4613   */\n      tag_486\n      jump\t// in\n    tag_485:\n        /* \"#utility.yul\":4587:4590   */\n      dup3\n        /* \"#utility.yul\":4580:4614   */\n      mstore\n        /* \"#utility.yul\":4511:4620   */\n      pop\n      pop\n      jump\t// out\n        /* \"#utility.yul\":4626:4793   */\n    tag_487:\n        /* \"#utility.yul\":4731:4786   */\n      tag_489\n        /* \"#utility.yul\":4780:4785   */\n      dup2\n        /* \"#utility.yul\":4731:4786   */\n      tag_490\n      jump\t// in\n    tag_489:\n        /* \"#utility.yul\":4726:4729   */\n      dup3\n        /* \"#utility.yul\":4719:4787   */\n      mstore\n        /* \"#utility.yul\":4626:4793   */\n      pop\n      pop\n      jump\t// out\n        /* \"#utility.yul\":4799:4958   */\n    tag_491:\n        /* \"#utility.yul\":4900:4951   */\n      tag_493\n        /* \"#utility.yul\":4945:4950   */\n      dup2\n        /* \"#utility.yul\":4900:4951   */\n      tag_494\n      jump\t// in\n    tag_493:\n        /* \"#utility.yul\":4895:4898   */\n      dup3\n        /* \"#utility.yul\":4888:4952   */\n      mstore\n        /* \"#utility.yul\":4799:4958   */\n      pop\n      pop\n      jump\t// out\n        /* \"#utility.yul\":4964:5107   */\n    tag_495:\n        /* \"#utility.yul\":5057:5100   */\n      tag_497\n        /* \"#utility.yul\":5094:5099   */\n      dup2\n        /* \"#utility.yul\":5057:5100   */\n      tag_498\n      jump\t// in\n    tag_497:\n        /* \"#utility.yul\":5052:5055   */\n      dup3\n        /* \"#utility.yul\":5045:5101   */\n      mstore\n        /* \"#utility.yul\":4964:5107   */\n      pop\n      pop\n      jump\t// out\n        /* \"#utility.yul\":5113:5256   */\n    tag_499:\n        /* \"#utility.yul\":5206:5249   */\n      tag_501\n        /* \"#utility.yul\":5243:5248   */\n      dup2\n        /* \"#utility.yul\":5206:5249   */\n      tag_502\n      jump\t// in\n    tag_501:\n        /* \"#utility.yul\":5201:5204   */\n      dup3\n        /* \"#utility.yul\":5194:5250   */\n      mstore\n        /* \"#utility.yul\":5113:5256   */\n      pop\n      pop\n      jump\t// out\n        /* \"#utility.yul\":5262:5405   */\n    tag_503:\n        /* \"#utility.yul\":5355:5398   */\n      tag_505\n        /* \"#utility.yul\":5392:5397   */\n      dup2\n        /* \"#utility.yul\":5355:5398   */\n      tag_506\n      jump\t// in\n    tag_505:\n        /* \"#utility.yul\":5350:5353   */\n      dup3\n        /* \"#utility.yul\":5343:5399   */\n      mstore\n        /* \"#utility.yul\":5262:5405   */\n      pop\n      pop\n      jump\t// out\n        /* \"#utility.yul\":5411:5777   */\n    tag_507:\n        /* \"#utility.yul\":5553:5556   */\n      0x00\n        /* \"#utility.yul\":5574:5641   */\n      tag_509\n        /* \"#utility.yul\":5638:5640   */\n      0x14\n        /* \"#utility.yul\":5633:5636   */\n      dup4\n        /* \"#utility.yul\":5574:5641   */\n      tag_510\n      jump\t// in\n    tag_509:\n        /* \"#utility.yul\":5567:5641   */\n      swap2\n      pop\n        /* \"#utility.yul\":5650:5743   */\n      tag_511\n        /* \"#utility.yul\":5739:5742   */\n      dup3\n        /* \"#utility.yul\":5650:5743   */\n      tag_512\n      jump\t// in\n    tag_511:\n        /* \"#utility.yul\":5768:5770   */\n      0x20\n        /* \"#utility.yul\":5763:5766   */\n      dup3\n        /* \"#utility.yul\":5759:5771   */\n      add\n        /* \"#utility.yul\":5752:5771   */\n      swap1\n      pop\n        /* \"#utility.yul\":5411:5777   */\n      swap2\n      swap1\n      pop\n      jump\t// out\n        /* \"#utility.yul\":5783:6149   */\n    tag_513:\n        /* \"#utility.yul\":5925:5928   */\n      0x00\n        /* \"#utility.yul\":5946:6013   */\n      tag_515\n        /* \"#utility.yul\":6010:6012   */\n      0x26\n        /* \"#utility.yul\":6005:6008   */\n      dup4\n        /* \"#utility.yul\":5946:6013   */\n      tag_510\n      jump\t// in\n    tag_515:\n        /* \"#utility.yul\":5939:6013   */\n      swap2\n      pop\n        /* \"#utility.yul\":6022:6115   */\n      tag_516\n        /* \"#utility.yul\":6111:6114   */\n      dup3\n        /* \"#utility.yul\":6022:6115   */\n      tag_517\n      jump\t// in\n    tag_516:\n        /* \"#utility.yul\":6140:6142   */\n      0x40\n        /* \"#utility.yul\":6135:6138   */\n      dup3\n        /* \"#utility.yul\":6131:6143   */\n      add\n        /* \"#utility.yul\":6124:6143   */\n      swap1\n      pop\n        /* \"#utility.yul\":5783:6149   */\n      swap2\n      swap1\n      pop\n      jump\t// out\n        /* \"#utility.yul\":6155:6521   */\n    tag_518:\n        /* \"#utility.yul\":6297:6300   */\n      0x00\n        /* \"#utility.yul\":6318:6385   */\n      tag_520\n        /* \"#utility.yul\":6382:6384   */\n      0x1e\n        /* \"#utility.yul\":6377:6380   */\n      dup4\n        /* \"#utility.yul\":6318:6385   */\n      tag_510\n      jump\t// in\n    tag_520:\n        /* \"#utility.yul\":6311:6385   */\n      swap2\n      pop\n        /* \"#utility.yul\":6394:6487   */\n      tag_521\n        /* \"#utility.yul\":6483:6486   */\n      dup3\n        /* \"#utility.yul\":6394:6487   */\n      tag_522\n      jump\t// in\n    tag_521:\n        /* \"#utility.yul\":6512:6514   */\n      0x20\n        /* \"#utility.yul\":6507:6510   */\n      dup3\n        /* \"#utility.yul\":6503:6515   */\n      add\n        /* \"#utility.yul\":6496:6515   */\n      swap1\n      pop\n        /* \"#utility.yul\":6155:6521   */\n      swap2\n      swap1\n      pop\n      jump\t// out\n        /* \"#utility.yul\":6527:6893   */\n    tag_523:\n        /* \"#utility.yul\":6669:6672   */\n      0x00\n        /* \"#utility.yul\":6690:6757   */\n      tag_525\n        /* \"#utility.yul\":6754:6756   */\n      0x22\n        /* \"#utility.yul\":6749:6752   */\n      dup4\n        /* \"#utility.yul\":6690:6757   */\n      tag_510\n      jump\t// in\n    tag_525:\n        /* \"#utility.yul\":6683:6757   */\n      swap2\n      pop\n        /* \"#utility.yul\":6766:6859   */\n      tag_526\n        /* \"#utility.yul\":6855:6858   */\n      dup3\n        /* \"#utility.yul\":6766:6859   */\n      tag_527\n      jump\t// in\n    tag_526:\n        /* \"#utility.yul\":6884:6886   */\n      0x40\n        /* \"#utility.yul\":6879:6882   */\n      dup3\n        /* \"#utility.yul\":6875:6887   */\n      add\n        /* \"#utility.yul\":6868:6887   */\n      swap1\n      pop\n        /* \"#utility.yul\":6527:6893   */\n      swap2\n      swap1\n      pop\n      jump\t// out\n        /* \"#utility.yul\":6899:7265   */\n    tag_528:\n        /* \"#utility.yul\":7041:7044   */\n      0x00\n        /* \"#utility.yul\":7062:7129   */\n      tag_530\n        /* \"#utility.yul\":7126:7128   */\n      0x16\n        /* \"#utility.yul\":7121:7124   */\n      dup4\n        /* \"#utility.yul\":7062:7129   */\n      tag_510\n      jump\t// in\n    tag_530:\n        /* \"#utility.yul\":7055:7129   */\n      swap2\n      pop\n        /* \"#utility.yul\":7138:7231   */\n      tag_531\n        /* \"#utility.yul\":7227:7230   */\n      dup3\n        /* \"#utility.yul\":7138:7231   */\n      tag_532\n      jump\t// in\n    tag_531:\n        /* \"#utility.yul\":7256:7258   */\n      0x20\n        /* \"#utility.yul\":7251:7254   */\n      dup3\n        /* \"#utility.yul\":7247:7259   */\n      add\n        /* \"#utility.yul\":7240:7259   */\n      swap1\n      pop\n        /* \"#utility.yul\":6899:7265   */\n      swap2\n      swap1\n      pop\n      jump\t// out\n        /* \"#utility.yul\":7271:7637   */\n    tag_533:\n        /* \"#utility.yul\":7413:7416   */\n      0x00\n        /* \"#utility.yul\":7434:7501   */\n      tag_535\n        /* \"#utility.yul\":7498:7500   */\n      0x10\n        /* \"#utility.yul\":7493:7496   */\n      dup4\n        /* \"#utility.yul\":7434:7501   */\n      tag_510\n      jump\t// in\n    tag_535:\n        /* \"#utility.yul\":7427:7501   */\n      swap2\n      pop\n        /* \"#utility.yul\":7510:7603   */\n      tag_536\n        /* \"#utility.yul\":7599:7602   */\n      dup3\n        /* \"#utility.yul\":7510:7603   */\n      tag_537\n      jump\t// in\n    tag_536:\n        /* \"#utility.yul\":7628:7630   */\n      0x20\n        /* \"#utility.yul\":7623:7626   */\n      dup3\n        /* \"#utility.yul\":7619:7631   */\n      add\n        /* \"#utility.yul\":7612:7631   */\n      swap1\n      pop\n        /* \"#utility.yul\":7271:7637   */\n      swap2\n      swap1\n      pop\n      jump\t// out\n        /* \"#utility.yul\":7643:8009   */\n    tag_538:\n        /* \"#utility.yul\":7785:7788   */\n      0x00\n        /* \"#utility.yul\":7806:7873   */\n      tag_540\n        /* \"#utility.yul\":7870:7872   */\n      0x16\n        /* \"#utility.yul\":7865:7868   */\n      dup4\n        /* \"#utility.yul\":7806:7873   */\n      tag_510\n      jump\t// in\n    tag_540:\n        /* \"#utility.yul\":7799:7873   */\n      swap2\n      pop\n        /* \"#utility.yul\":7882:7975   */\n      tag_541\n        /* \"#utility.yul\":7971:7974   */\n      dup3\n        /* \"#utility.yul\":7882:7975   */\n      tag_542\n      jump\t// in\n    tag_541:\n        /* \"#utility.yul\":8000:8002   */\n      0x20\n        /* \"#utility.yul\":7995:7998   */\n      dup3\n        /* \"#utility.yul\":7991:8003   */\n      add\n        /* \"#utility.yul\":7984:8003   */\n      swap1\n      pop\n        /* \"#utility.yul\":7643:8009   */\n      swap2\n      swap1\n      pop\n      jump\t// out\n        /* \"#utility.yul\":8015:8381   */\n    tag_543:\n        /* \"#utility.yul\":8157:8160   */\n      0x00\n        /* \"#utility.yul\":8178:8245   */\n      tag_545\n        /* \"#utility.yul\":8242:8244   */\n      0x32\n        /* \"#utility.yul\":8237:8240   */\n      dup4\n        /* \"#utility.yul\":8178:8245   */\n      tag_510\n      jump\t// in\n    tag_545:\n        /* \"#utility.yul\":8171:8245   */\n      swap2\n      pop\n        /* \"#utility.yul\":8254:8347   */\n      tag_546\n        /* \"#utility.yul\":8343:8346   */\n      dup3\n        /* \"#utility.yul\":8254:8347   */\n      tag_547\n      jump\t// in\n    tag_546:\n        /* \"#utility.yul\":8372:8374   */\n      0x40\n        /* \"#utility.yul\":8367:8370   */\n      dup3\n        /* \"#utility.yul\":8363:8375   */\n      add\n        /* \"#utility.yul\":8356:8375   */\n      swap1\n      pop\n        /* \"#utility.yul\":8015:8381   */\n      swap2\n      swap1\n      pop\n      jump\t// out\n        /* \"#utility.yul\":8387:8753   */\n    tag_548:\n        /* \"#utility.yul\":8529:8532   */\n      0x00\n        /* \"#utility.yul\":8550:8617   */\n      tag_550\n        /* \"#utility.yul\":8614:8616   */\n      0x20\n        /* \"#utility.yul\":8609:8612   */\n      dup4\n        /* \"#utility.yul\":8550:8617   */\n      tag_510\n      jump\t// in\n    tag_550:\n        /* \"#utility.yul\":8543:8617   */\n      swap2\n      pop\n        /* \"#utility.yul\":8626:8719   */\n      tag_551\n        /* \"#utility.yul\":8715:8718   */\n      dup3\n        /* \"#utility.yul\":8626:8719   */\n      tag_552\n      jump\t// in\n    tag_551:\n        /* \"#utility.yul\":8744:8746   */\n      0x20\n        /* \"#utility.yul\":8739:8742   */\n      dup3\n        /* \"#utility.yul\":8735:8747   */\n      add\n        /* \"#utility.yul\":8728:8747   */\n      swap1\n      pop\n        /* \"#utility.yul\":8387:8753   */\n      swap2\n      swap1\n      pop\n      jump\t// out\n        /* \"#utility.yul\":8759:9125   */\n    tag_553:\n        /* \"#utility.yul\":8901:8904   */\n      0x00\n        /* \"#utility.yul\":8922:8989   */\n      tag_555\n        /* \"#utility.yul\":8986:8988   */\n      0x0f\n        /* \"#utility.yul\":8981:8984   */\n      dup4\n        /* \"#utility.yul\":8922:8989   */\n      tag_510\n      jump\t// in\n    tag_555:\n        /* \"#utility.yul\":8915:8989   */\n      swap2\n      pop\n        /* \"#utility.yul\":8998:9091   */\n      tag_556\n        /* \"#utility.yul\":9087:9090   */\n      dup3\n        /* \"#utility.yul\":8998:9091   */\n      tag_557\n      jump\t// in\n    tag_556:\n        /* \"#utility.yul\":9116:9118   */\n      0x20\n        /* \"#utility.yul\":9111:9114   */\n      dup3\n        /* \"#utility.yul\":9107:9119   */\n      add\n        /* \"#utility.yul\":9100:9119   */\n      swap1\n      pop\n        /* \"#utility.yul\":8759:9125   */\n      swap2\n      swap1\n      pop\n      jump\t// out\n        /* \"#utility.yul\":9131:9497   */\n    tag_558:\n        /* \"#utility.yul\":9273:9276   */\n      0x00\n        /* \"#utility.yul\":9294:9361   */\n      tag_560\n        /* \"#utility.yul\":9358:9360   */\n      0x1f\n        /* \"#utility.yul\":9353:9356   */\n      dup4\n        /* \"#utility.yul\":9294:9361   */\n      tag_510\n      jump\t// in\n    tag_560:\n        /* \"#utility.yul\":9287:9361   */\n      swap2\n      pop\n        /* \"#utility.yul\":9370:9463   */\n      tag_561\n        /* \"#utility.yul\":9459:9462   */\n      dup3\n        /* \"#utility.yul\":9370:9463   */\n      tag_562\n      jump\t// in\n    tag_561:\n        /* \"#utility.yul\":9488:9490   */\n      0x20\n        /* \"#utility.yul\":9483:9486   */\n      dup3\n        /* \"#utility.yul\":9479:9491   */\n      add\n        /* \"#utility.yul\":9472:9491   */\n      swap1\n      pop\n        /* \"#utility.yul\":9131:9497   */\n      swap2\n      swap1\n      pop\n      jump\t// out\n        /* \"#utility.yul\":9503:9621   */\n    tag_563:\n        /* \"#utility.yul\":9590:9614   */\n      tag_565\n        /* \"#utility.yul\":9608:9613   */\n      dup2\n        /* \"#utility.yul\":9590:9614   */\n      tag_566\n      jump\t// in\n    tag_565:\n        /* \"#utility.yul\":9585:9588   */\n      dup3\n        /* \"#utility.yul\":9578:9615   */\n      mstore\n        /* \"#utility.yul\":9503:9621   */\n      pop\n      pop\n      jump\t// out\n        /* \"#utility.yul\":9627:9849   */\n    tag_119:\n        /* \"#utility.yul\":9720:9724   */\n      0x00\n        /* \"#utility.yul\":9758:9760   */\n      0x20\n        /* \"#utility.yul\":9747:9756   */\n      dup3\n        /* \"#utility.yul\":9743:9761   */\n      add\n        /* \"#utility.yul\":9735:9761   */\n      swap1\n      pop\n        /* \"#utility.yul\":9771:9842   */\n      tag_568\n        /* \"#utility.yul\":9839:9840   */\n      0x00\n        /* \"#utility.yul\":9828:9837   */\n      dup4\n        /* \"#utility.yul\":9824:9841   */\n      add\n        /* \"#utility.yul\":9815:9821   */\n      dup5\n        /* \"#utility.yul\":9771:9842   */\n      tag_479\n      jump\t// in\n    tag_568:\n        /* \"#utility.yul\":9627:9849   */\n      swap3\n      swap2\n      pop\n      pop\n      jump\t// out\n        /* \"#utility.yul\":9855:10297   */\n    tag_181:\n        /* \"#utility.yul\":10004:10008   */\n      0x00\n        /* \"#utility.yul\":10042:10044   */\n      0x60\n        /* \"#utility.yul\":10031:10040   */\n      dup3\n        /* \"#utility.yul\":10027:10045   */\n      add\n        /* \"#utility.yul\":10019:10045   */\n      swap1\n      pop\n        /* \"#utility.yul\":10055:10126   */\n      tag_570\n        /* \"#utility.yul\":10123:10124   */\n      0x00\n        /* \"#utility.yul\":10112:10121   */\n      dup4\n        /* \"#utility.yul\":10108:10125   */\n      add\n        /* \"#utility.yul\":10099:10105   */\n      dup7\n        /* \"#utility.yul\":10055:10126   */\n      tag_479\n      jump\t// in\n    tag_570:\n        /* \"#utility.yul\":10136:10208   */\n      tag_571\n        /* \"#utility.yul\":10204:10206   */\n      0x20\n        /* \"#utility.yul\":10193:10202   */\n      dup4\n        /* \"#utility.yul\":10189:10207   */\n      add\n        /* \"#utility.yul\":10180:10186   */\n      dup6\n        /* \"#utility.yul\":10136:10208   */\n      tag_479\n      jump\t// in\n    tag_571:\n        /* \"#utility.yul\":10218:10290   */\n      tag_572\n        /* \"#utility.yul\":10286:10288   */\n      0x40\n        /* \"#utility.yul\":10275:10284   */\n      dup4\n        /* \"#utility.yul\":10271:10289   */\n      add\n        /* \"#utility.yul\":10262:10268   */\n      dup5\n        /* \"#utility.yul\":10218:10290   */\n      tag_563\n      jump\t// in\n    tag_572:\n        /* \"#utility.yul\":9855:10297   */\n      swap5\n      swap4\n      pop\n      pop\n      pop\n      pop\n      jump\t// out\n        /* \"#utility.yul\":10303:10967   */\n    tag_293:\n        /* \"#utility.yul\":10508:10512   */\n      0x00\n        /* \"#utility.yul\":10546:10549   */\n      0xa0\n        /* \"#utility.yul\":10535:10544   */\n      dup3\n        /* \"#utility.yul\":10531:10550   */\n      add\n        /* \"#utility.yul\":10523:10550   */\n      swap1\n      pop\n        /* \"#utility.yul\":10560:10631   */\n      tag_574\n        /* \"#utility.yul\":10628:10629   */\n      0x00\n        /* \"#utility.yul\":10617:10626   */\n      dup4\n        /* \"#utility.yul\":10613:10630   */\n      add\n        /* \"#utility.yul\":10604:10610   */\n      dup9\n        /* \"#utility.yul\":10560:10631   */\n      tag_479\n      jump\t// in\n    tag_574:\n        /* \"#utility.yul\":10641:10719   */\n      tag_575\n        /* \"#utility.yul\":10715:10717   */\n      0x20\n        /* \"#utility.yul\":10704:10713   */\n      dup4\n        /* \"#utility.yul\":10700:10718   */\n      add\n        /* \"#utility.yul\":10691:10697   */\n      dup8\n        /* \"#utility.yul\":10641:10719   */\n      tag_495\n      jump\t// in\n    tag_575:\n        /* \"#utility.yul\":10729:10795   */\n      tag_576\n        /* \"#utility.yul\":10791:10793   */\n      0x40\n        /* \"#utility.yul\":10780:10789   */\n      dup4\n        /* \"#utility.yul\":10776:10794   */\n      add\n        /* \"#utility.yul\":10767:10773   */\n      dup7\n        /* \"#utility.yul\":10729:10795   */\n      tag_483\n      jump\t// in\n    tag_576:\n        /* \"#utility.yul\":10805:10877   */\n      tag_577\n        /* \"#utility.yul\":10873:10875   */\n      0x60\n        /* \"#utility.yul\":10862:10871   */\n      dup4\n        /* \"#utility.yul\":10858:10876   */\n      add\n        /* \"#utility.yul\":10849:10855   */\n      dup6\n        /* \"#utility.yul\":10805:10877   */\n      tag_563\n      jump\t// in\n    tag_577:\n        /* \"#utility.yul\":10887:10960   */\n      tag_578\n        /* \"#utility.yul\":10955:10958   */\n      0x80\n        /* \"#utility.yul\":10944:10953   */\n      dup4\n        /* \"#utility.yul\":10940:10959   */\n      add\n        /* \"#utility.yul\":10931:10937   */\n      dup5\n        /* \"#utility.yul\":10887:10960   */\n      tag_563\n      jump\t// in\n    tag_578:\n        /* \"#utility.yul\":10303:10967   */\n      swap7\n      swap6\n      pop\n      pop\n      pop\n      pop\n      pop\n      pop\n      jump\t// out\n        /* \"#utility.yul\":10973:11649   */\n    tag_397:\n        /* \"#utility.yul\":11184:11188   */\n      0x00\n        /* \"#utility.yul\":11222:11225   */\n      0xa0\n        /* \"#utility.yul\":11211:11220   */\n      dup3\n        /* \"#utility.yul\":11207:11226   */\n      add\n        /* \"#utility.yul\":11199:11226   */\n      swap1\n      pop\n        /* \"#utility.yul\":11236:11307   */\n      tag_580\n        /* \"#utility.yul\":11304:11305   */\n      0x00\n        /* \"#utility.yul\":11293:11302   */\n      dup4\n        /* \"#utility.yul\":11289:11306   */\n      add\n        /* \"#utility.yul\":11280:11286   */\n      dup9\n        /* \"#utility.yul\":11236:11307   */\n      tag_479\n      jump\t// in\n    tag_580:\n        /* \"#utility.yul\":11317:11395   */\n      tag_581\n        /* \"#utility.yul\":11391:11393   */\n      0x20\n        /* \"#utility.yul\":11380:11389   */\n      dup4\n        /* \"#utility.yul\":11376:11394   */\n      add\n        /* \"#utility.yul\":11367:11373   */\n      dup8\n        /* \"#utility.yul\":11317:11395   */\n      tag_495\n      jump\t// in\n    tag_581:\n        /* \"#utility.yul\":11405:11477   */\n      tag_582\n        /* \"#utility.yul\":11473:11475   */\n      0x40\n        /* \"#utility.yul\":11462:11471   */\n      dup4\n        /* \"#utility.yul\":11458:11476   */\n      add\n        /* \"#utility.yul\":11449:11455   */\n      dup7\n        /* \"#utility.yul\":11405:11477   */\n      tag_563\n      jump\t// in\n    tag_582:\n        /* \"#utility.yul\":11487:11559   */\n      tag_583\n        /* \"#utility.yul\":11555:11557   */\n      0x60\n        /* \"#utility.yul\":11544:11553   */\n      dup4\n        /* \"#utility.yul\":11540:11558   */\n      add\n        /* \"#utility.yul\":11531:11537   */\n      dup6\n        /* \"#utility.yul\":11487:11559   */\n      tag_563\n      jump\t// in\n    tag_583:\n        /* \"#utility.yul\":11569:11642   */\n      tag_584\n        /* \"#utility.yul\":11637:11640   */\n      0x80\n        /* \"#utility.yul\":11626:11635   */\n      dup4\n        /* \"#utility.yul\":11622:11641   */\n      add\n        /* \"#utility.yul\":11613:11619   */\n      dup5\n        /* \"#utility.yul\":11569:11642   */\n      tag_563\n      jump\t// in\n    tag_584:\n        /* \"#utility.yul\":10973:11649   */\n      swap7\n      swap6\n      pop\n      pop\n      pop\n      pop\n      pop\n      pop\n      jump\t// out\n        /* \"#utility.yul\":11655:12319   */\n    tag_323:\n        /* \"#utility.yul\":11860:11864   */\n      0x00\n        /* \"#utility.yul\":11898:11901   */\n      0xa0\n        /* \"#utility.yul\":11887:11896   */\n      dup3\n        /* \"#utility.yul\":11883:11902   */\n      add\n        /* \"#utility.yul\":11875:11902   */\n      swap1\n      pop\n        /* \"#utility.yul\":11912:11983   */\n      tag_586\n        /* \"#utility.yul\":11980:11981   */\n      0x00\n        /* \"#utility.yul\":11969:11978   */\n      dup4\n        /* \"#utility.yul\":11965:11982   */\n      add\n        /* \"#utility.yul\":11956:11962   */\n      dup9\n        /* \"#utility.yul\":11912:11983   */\n      tag_479\n      jump\t// in\n    tag_586:\n        /* \"#utility.yul\":11993:12071   */\n      tag_587\n        /* \"#utility.yul\":12067:12069   */\n      0x20\n        /* \"#utility.yul\":12056:12065   */\n      dup4\n        /* \"#utility.yul\":12052:12070   */\n      add\n        /* \"#utility.yul\":12043:12049   */\n      dup8\n        /* \"#utility.yul\":11993:12071   */\n      tag_499\n      jump\t// in\n    tag_587:\n        /* \"#utility.yul\":12081:12147   */\n      tag_588\n        /* \"#utility.yul\":12143:12145   */\n      0x40\n        /* \"#utility.yul\":12132:12141   */\n      dup4\n        /* \"#utility.yul\":12128:12146   */\n      add\n        /* \"#utility.yul\":12119:12125   */\n      dup7\n        /* \"#utility.yul\":12081:12147   */\n      tag_483\n      jump\t// in\n    tag_588:\n        /* \"#utility.yul\":12157:12229   */\n      tag_589\n        /* \"#utility.yul\":12225:12227   */\n      0x60\n        /* \"#utility.yul\":12214:12223   */\n      dup4\n        /* \"#utility.yul\":12210:12228   */\n      add\n        /* \"#utility.yul\":12201:12207   */\n      dup6\n        /* \"#utility.yul\":12157:12229   */\n      tag_563\n      jump\t// in\n    tag_589:\n        /* \"#utility.yul\":12239:12312   */\n      tag_590\n        /* \"#utility.yul\":12307:12310   */\n      0x80\n        /* \"#utility.yul\":12296:12305   */\n      dup4\n        /* \"#utility.yul\":12292:12311   */\n      add\n        /* \"#utility.yul\":12283:12289   */\n      dup5\n        /* \"#utility.yul\":12239:12312   */\n      tag_563\n      jump\t// in\n    tag_590:\n        /* \"#utility.yul\":11655:12319   */\n      swap7\n      swap6\n      pop\n      pop\n      pop\n      pop\n      pop\n      pop\n      jump\t// out\n        /* \"#utility.yul\":12325:13001   */\n    tag_191:\n        /* \"#utility.yul\":12536:12540   */\n      0x00\n        /* \"#utility.yul\":12574:12577   */\n      0xa0\n        /* \"#utility.yul\":12563:12572   */\n      dup3\n        /* \"#utility.yul\":12559:12578   */\n      add\n        /* \"#utility.yul\":12551:12578   */\n      swap1\n      pop\n        /* \"#utility.yul\":12588:12659   */\n      tag_592\n        /* \"#utility.yul\":12656:12657   */\n      0x00\n        /* \"#utility.yul\":12645:12654   */\n      dup4\n        /* \"#utility.yul\":12641:12658   */\n      add\n        /* \"#utility.yul\":12632:12638   */\n      dup9\n        /* \"#utility.yul\":12588:12659   */\n      tag_479\n      jump\t// in\n    tag_592:\n        /* \"#utility.yul\":12669:12747   */\n      tag_593\n        /* \"#utility.yul\":12743:12745   */\n      0x20\n        /* \"#utility.yul\":12732:12741   */\n      dup4\n        /* \"#utility.yul\":12728:12746   */\n      add\n        /* \"#utility.yul\":12719:12725   */\n      dup8\n        /* \"#utility.yul\":12669:12747   */\n      tag_499\n      jump\t// in\n    tag_593:\n        /* \"#utility.yul\":12757:12829   */\n      tag_594\n        /* \"#utility.yul\":12825:12827   */\n      0x40\n        /* \"#utility.yul\":12814:12823   */\n      dup4\n        /* \"#utility.yul\":12810:12828   */\n      add\n        /* \"#utility.yul\":12801:12807   */\n      dup7\n        /* \"#utility.yul\":12757:12829   */\n      tag_563\n      jump\t// in\n    tag_594:\n        /* \"#utility.yul\":12839:12911   */\n      tag_595\n        /* \"#utility.yul\":12907:12909   */\n      0x60\n        /* \"#utility.yul\":12896:12905   */\n      dup4\n        /* \"#utility.yul\":12892:12910   */\n      add\n        /* \"#utility.yul\":12883:12889   */\n      dup6\n        /* \"#utility.yul\":12839:12911   */\n      tag_563\n      jump\t// in\n    tag_595:\n        /* \"#utility.yul\":12921:12994   */\n      tag_596\n        /* \"#utility.yul\":12989:12992   */\n      0x80\n        /* \"#utility.yul\":12978:12987   */\n      dup4\n        /* \"#utility.yul\":12974:12993   */\n      add\n        /* \"#utility.yul\":12965:12971   */\n      dup5\n        /* \"#utility.yul\":12921:12994   */\n      tag_563\n      jump\t// in\n    tag_596:\n        /* \"#utility.yul\":12325:13001   */\n      swap7\n      swap6\n      pop\n      pop\n      pop\n      pop\n      pop\n      pop\n      jump\t// out\n        /* \"#utility.yul\":13007:13671   */\n    tag_235:\n        /* \"#utility.yul\":13212:13216   */\n      0x00\n        /* \"#utility.yul\":13250:13253   */\n      0xa0\n        /* \"#utility.yul\":13239:13248   */\n      dup3\n        /* \"#utility.yul\":13235:13254   */\n      add\n        /* \"#utility.yul\":13227:13254   */\n      swap1\n      pop\n        /* \"#utility.yul\":13264:13335   */\n      tag_598\n        /* \"#utility.yul\":13332:13333   */\n      0x00\n        /* \"#utility.yul\":13321:13330   */\n      dup4\n        /* \"#utility.yul\":13317:13334   */\n      add\n        /* \"#utility.yul\":13308:13314   */\n      dup9\n        /* \"#utility.yul\":13264:13335   */\n      tag_479\n      jump\t// in\n    tag_598:\n        /* \"#utility.yul\":13345:13423   */\n      tag_599\n        /* \"#utility.yul\":13419:13421   */\n      0x20\n        /* \"#utility.yul\":13408:13417   */\n      dup4\n        /* \"#utility.yul\":13404:13422   */\n      add\n        /* \"#utility.yul\":13395:13401   */\n      dup8\n        /* \"#utility.yul\":13345:13423   */\n      tag_503\n      jump\t// in\n    tag_599:\n        /* \"#utility.yul\":13433:13499   */\n      tag_600\n        /* \"#utility.yul\":13495:13497   */\n      0x40\n        /* \"#utility.yul\":13484:13493   */\n      dup4\n        /* \"#utility.yul\":13480:13498   */\n      add\n        /* \"#utility.yul\":13471:13477   */\n      dup7\n        /* \"#utility.yul\":13433:13499   */\n      tag_483\n      jump\t// in\n    tag_600:\n        /* \"#utility.yul\":13509:13581   */\n      tag_601\n        /* \"#utility.yul\":13577:13579   */\n      0x60\n        /* \"#utility.yul\":13566:13575   */\n      dup4\n        /* \"#utility.yul\":13562:13580   */\n      add\n        /* \"#utility.yul\":13553:13559   */\n      dup6\n        /* \"#utility.yul\":13509:13581   */\n      tag_563\n      jump\t// in\n    tag_601:\n        /* \"#utility.yul\":13591:13664   */\n      tag_602\n        /* \"#utility.yul\":13659:13662   */\n      0x80\n        /* \"#utility.yul\":13648:13657   */\n      dup4\n        /* \"#utility.yul\":13644:13663   */\n      add\n        /* \"#utility.yul\":13635:13641   */\n      dup5\n        /* \"#utility.yul\":13591:13664   */\n      tag_563\n      jump\t// in\n    tag_602:\n        /* \"#utility.yul\":13007:13671   */\n      swap7\n      swap6\n      pop\n      pop\n      pop\n      pop\n      pop\n      pop\n      jump\t// out\n        /* \"#utility.yul\":13677:14353   */\n    tag_343:\n        /* \"#utility.yul\":13888:13892   */\n      0x00\n        /* \"#utility.yul\":13926:13929   */\n      0xa0\n        /* \"#utility.yul\":13915:13924   */\n      dup3\n        /* \"#utility.yul\":13911:13930   */\n      add\n        /* \"#utility.yul\":13903:13930   */\n      swap1\n      pop\n        /* \"#utility.yul\":13940:14011   */\n      tag_604\n        /* \"#utility.yul\":14008:14009   */\n      0x00\n        /* \"#utility.yul\":13997:14006   */\n      dup4\n        /* \"#utility.yul\":13993:14010   */\n      add\n        /* \"#utility.yul\":13984:13990   */\n      dup9\n        /* \"#utility.yul\":13940:14011   */\n      tag_479\n      jump\t// in\n    tag_604:\n        /* \"#utility.yul\":14021:14099   */\n      tag_605\n        /* \"#utility.yul\":14095:14097   */\n      0x20\n        /* \"#utility.yul\":14084:14093   */\n      dup4\n        /* \"#utility.yul\":14080:14098   */\n      add\n        /* \"#utility.yul\":14071:14077   */\n      dup8\n        /* \"#utility.yul\":14021:14099   */\n      tag_503\n      jump\t// in\n    tag_605:\n        /* \"#utility.yul\":14109:14181   */\n      tag_606\n        /* \"#utility.yul\":14177:14179   */\n      0x40\n        /* \"#utility.yul\":14166:14175   */\n      dup4\n        /* \"#utility.yul\":14162:14180   */\n      add\n        /* \"#utility.yul\":14153:14159   */\n      dup7\n        /* \"#utility.yul\":14109:14181   */\n      tag_563\n      jump\t// in\n    tag_606:\n        /* \"#utility.yul\":14191:14263   */\n      tag_607\n        /* \"#utility.yul\":14259:14261   */\n      0x60\n        /* \"#utility.yul\":14248:14257   */\n      dup4\n        /* \"#utility.yul\":14244:14262   */\n      add\n        /* \"#utility.yul\":14235:14241   */\n      dup6\n        /* \"#utility.yul\":14191:14263   */\n      tag_563\n      jump\t// in\n    tag_607:\n        /* \"#utility.yul\":14273:14346   */\n      tag_608\n        /* \"#utility.yul\":14341:14344   */\n      0x80\n        /* \"#utility.yul\":14330:14339   */\n      dup4\n        /* \"#utility.yul\":14326:14345   */\n      add\n        /* \"#utility.yul\":14317:14323   */\n      dup5\n        /* \"#utility.yul\":14273:14346   */\n      tag_563\n      jump\t// in\n    tag_608:\n        /* \"#utility.yul\":13677:14353   */\n      swap7\n      swap6\n      pop\n      pop\n      pop\n      pop\n      pop\n      pop\n      jump\t// out\n        /* \"#utility.yul\":14359:14691   */\n    tag_218:\n        /* \"#utility.yul\":14480:14484   */\n      0x00\n        /* \"#utility.yul\":14518:14520   */\n      0x40\n        /* \"#utility.yul\":14507:14516   */\n      dup3\n        /* \"#utility.yul\":14503:14521   */\n      add\n        /* \"#utility.yul\":14495:14521   */\n      swap1\n      pop\n        /* \"#utility.yul\":14531:14602   */\n      tag_610\n        /* \"#utility.yul\":14599:14600   */\n      0x00\n        /* \"#utility.yul\":14588:14597   */\n      dup4\n        /* \"#utility.yul\":14584:14601   */\n      add\n        /* \"#utility.yul\":14575:14581   */\n      dup6\n        /* \"#utility.yul\":14531:14602   */\n      tag_479\n      jump\t// in\n    tag_610:\n        /* \"#utility.yul\":14612:14684   */\n      tag_611\n        /* \"#utility.yul\":14680:14682   */\n      0x20\n        /* \"#utility.yul\":14669:14678   */\n      dup4\n        /* \"#utility.yul\":14665:14683   */\n      add\n        /* \"#utility.yul\":14656:14662   */\n      dup5\n        /* \"#utility.yul\":14612:14684   */\n      tag_563\n      jump\t// in\n    tag_611:\n        /* \"#utility.yul\":14359:14691   */\n      swap4\n      swap3\n      pop\n      pop\n      pop\n      jump\t// out\n        /* \"#utility.yul\":14697:14907   */\n    tag_72:\n        /* \"#utility.yul\":14784:14788   */\n      0x00\n        /* \"#utility.yul\":14822:14824   */\n      0x20\n        /* \"#utility.yul\":14811:14820   */\n      dup3\n        /* \"#utility.yul\":14807:14825   */\n      add\n        /* \"#utility.yul\":14799:14825   */\n      swap1\n      pop\n        /* \"#utility.yul\":14835:14900   */\n      tag_613\n        /* \"#utility.yul\":14897:14898   */\n      0x00\n        /* \"#utility.yul\":14886:14895   */\n      dup4\n        /* \"#utility.yul\":14882:14899   */\n      add\n        /* \"#utility.yul\":14873:14879   */\n      dup5\n        /* \"#utility.yul\":14835:14900   */\n      tag_483\n      jump\t// in\n    tag_613:\n        /* \"#utility.yul\":14697:14907   */\n      swap3\n      swap2\n      pop\n      pop\n      jump\t// out\n        /* \"#utility.yul\":14913:15171   */\n    tag_52:\n        /* \"#utility.yul\":15024:15028   */\n      0x00\n        /* \"#utility.yul\":15062:15064   */\n      0x20\n        /* \"#utility.yul\":15051:15060   */\n      dup3\n        /* \"#utility.yul\":15047:15065   */\n      add\n        /* \"#utility.yul\":15039:15065   */\n      swap1\n      pop\n        /* \"#utility.yul\":15075:15164   */\n      tag_615\n        /* \"#utility.yul\":15161:15162   */\n      0x00\n        /* \"#utility.yul\":15150:15159   */\n      dup4\n        /* \"#utility.yul\":15146:15163   */\n      add\n        /* \"#utility.yul\":15137:15143   */\n      dup5\n        /* \"#utility.yul\":15075:15164   */\n      tag_487\n      jump\t// in\n    tag_615:\n        /* \"#utility.yul\":14913:15171   */\n      swap3\n      swap2\n      pop\n      pop\n      jump\t// out\n        /* \"#utility.yul\":15177:15427   */\n    tag_68:\n        /* \"#utility.yul\":15284:15288   */\n      0x00\n        /* \"#utility.yul\":15322:15324   */\n      0x20\n        /* \"#utility.yul\":15311:15320   */\n      dup3\n        /* \"#utility.yul\":15307:15325   */\n      add\n        /* \"#utility.yul\":15299:15325   */\n      swap1\n      pop\n        /* \"#utility.yul\":15335:15420   */\n      tag_617\n        /* \"#utility.yul\":15417:15418   */\n      0x00\n        /* \"#utility.yul\":15406:15415   */\n      dup4\n        /* \"#utility.yul\":15402:15419   */\n      add\n        /* \"#utility.yul\":15393:15399   */\n      dup5\n        /* \"#utility.yul\":15335:15420   */\n      tag_491\n      jump\t// in\n    tag_617:\n        /* \"#utility.yul\":15177:15427   */\n      swap3\n      swap2\n      pop\n      pop\n      jump\t// out\n        /* \"#utility.yul\":15433:15852   */\n    tag_403:\n        /* \"#utility.yul\":15599:15603   */\n      0x00\n        /* \"#utility.yul\":15637:15639   */\n      0x20\n        /* \"#utility.yul\":15626:15635   */\n      dup3\n        /* \"#utility.yul\":15622:15640   */\n      add\n        /* \"#utility.yul\":15614:15640   */\n      swap1\n      pop\n        /* \"#utility.yul\":15686:15695   */\n      dup2\n        /* \"#utility.yul\":15680:15684   */\n      dup2\n        /* \"#utility.yul\":15676:15696   */\n      sub\n        /* \"#utility.yul\":15672:15673   */\n      0x00\n        /* \"#utility.yul\":15661:15670   */\n      dup4\n        /* \"#utility.yul\":15657:15674   */\n      add\n        /* \"#utility.yul\":15650:15697   */\n      mstore\n        /* \"#utility.yul\":15714:15845   */\n      tag_619\n        /* \"#utility.yul\":15840:15844   */\n      dup2\n        /* \"#utility.yul\":15714:15845   */\n      tag_507\n      jump\t// in\n    tag_619:\n        /* \"#utility.yul\":15706:15845   */\n      swap1\n      pop\n        /* \"#utility.yul\":15433:15852   */\n      swap2\n      swap1\n      pop\n      jump\t// out\n        /* \"#utility.yul\":15858:16277   */\n    tag_364:\n        /* \"#utility.yul\":16024:16028   */\n      0x00\n        /* \"#utility.yul\":16062:16064   */\n      0x20\n        /* \"#utility.yul\":16051:16060   */\n      dup3\n        /* \"#utility.yul\":16047:16065   */\n      add\n        /* \"#utility.yul\":16039:16065   */\n      swap1\n      pop\n        /* \"#utility.yul\":16111:16120   */\n      dup2\n        /* \"#utility.yul\":16105:16109   */\n      dup2\n        /* \"#utility.yul\":16101:16121   */\n      sub\n        /* \"#utility.yul\":16097:16098   */\n      0x00\n        /* \"#utility.yul\":16086:16095   */\n      dup4\n        /* \"#utility.yul\":16082:16099   */\n      add\n        /* \"#utility.yul\":16075:16122   */\n      mstore\n        /* \"#utility.yul\":16139:16270   */\n      tag_621\n        /* \"#utility.yul\":16265:16269   */\n      dup2\n        /* \"#utility.yul\":16139:16270   */\n      tag_513\n      jump\t// in\n    tag_621:\n        /* \"#utility.yul\":16131:16270   */\n      swap1\n      pop\n        /* \"#utility.yul\":15858:16277   */\n      swap2\n      swap1\n      pop\n      jump\t// out\n        /* \"#utility.yul\":16283:16702   */\n    tag_209:\n        /* \"#utility.yul\":16449:16453   */\n      0x00\n        /* \"#utility.yul\":16487:16489   */\n      0x20\n        /* \"#utility.yul\":16476:16485   */\n      dup3\n        /* \"#utility.yul\":16472:16490   */\n      add\n        /* \"#utility.yul\":16464:16490   */\n      swap1\n      pop\n        /* \"#utility.yul\":16536:16545   */\n      dup2\n        /* \"#utility.yul\":16530:16534   */\n      dup2\n        /* \"#utility.yul\":16526:16546   */\n      sub\n        /* \"#utility.yul\":16522:16523   */\n      0x00\n        /* \"#utility.yul\":16511:16520   */\n      dup4\n        /* \"#utility.yul\":16507:16524   */\n      add\n        /* \"#utility.yul\":16500:16547   */\n      mstore\n        /* \"#utility.yul\":16564:16695   */\n      tag_623\n        /* \"#utility.yul\":16690:16694   */\n      dup2\n        /* \"#utility.yul\":16564:16695   */\n      tag_518\n      jump\t// in\n    tag_623:\n        /* \"#utility.yul\":16556:16695   */\n      swap1\n      pop\n        /* \"#utility.yul\":16283:16702   */\n      swap2\n      swap1\n      pop\n      jump\t// out\n        /* \"#utility.yul\":16708:17127   */\n    tag_179:\n        /* \"#utility.yul\":16874:16878   */\n      0x00\n        /* \"#utility.yul\":16912:16914   */\n      0x20\n        /* \"#utility.yul\":16901:16910   */\n      dup3\n        /* \"#utility.yul\":16897:16915   */\n      add\n        /* \"#utility.yul\":16889:16915   */\n      swap1\n      pop\n        /* \"#utility.yul\":16961:16970   */\n      dup2\n        /* \"#utility.yul\":16955:16959   */\n      dup2\n        /* \"#utility.yul\":16951:16971   */\n      sub\n        /* \"#utility.yul\":16947:16948   */\n      0x00\n        /* \"#utility.yul\":16936:16945   */\n      dup4\n        /* \"#utility.yul\":16932:16949   */\n      add\n        /* \"#utility.yul\":16925:16972   */\n      mstore\n        /* \"#utility.yul\":16989:17120   */\n      tag_625\n        /* \"#utility.yul\":17115:17119   */\n      dup2\n        /* \"#utility.yul\":16989:17120   */\n      tag_523\n      jump\t// in\n    tag_625:\n        /* \"#utility.yul\":16981:17120   */\n      swap1\n      pop\n        /* \"#utility.yul\":16708:17127   */\n      swap2\n      swap1\n      pop\n      jump\t// out\n        /* \"#utility.yul\":17133:17552   */\n    tag_297:\n        /* \"#utility.yul\":17299:17303   */\n      0x00\n        /* \"#utility.yul\":17337:17339   */\n      0x20\n        /* \"#utility.yul\":17326:17335   */\n      dup3\n        /* \"#utility.yul\":17322:17340   */\n      add\n        /* \"#utility.yul\":17314:17340   */\n      swap1\n      pop\n        /* \"#utility.yul\":17386:17395   */\n      dup2\n        /* \"#utility.yul\":17380:17384   */\n      dup2\n        /* \"#utility.yul\":17376:17396   */\n      sub\n        /* \"#utility.yul\":17372:17373   */\n      0x00\n        /* \"#utility.yul\":17361:17370   */\n      dup4\n        /* \"#utility.yul\":17357:17374   */\n      add\n        /* \"#utility.yul\":17350:17397   */\n      mstore\n        /* \"#utility.yul\":17414:17545   */\n      tag_627\n        /* \"#utility.yul\":17540:17544   */\n      dup2\n        /* \"#utility.yul\":17414:17545   */\n      tag_528\n      jump\t// in\n    tag_627:\n        /* \"#utility.yul\":17406:17545   */\n      swap1\n      pop\n        /* \"#utility.yul\":17133:17552   */\n      swap2\n      swap1\n      pop\n      jump\t// out\n        /* \"#utility.yul\":17558:17977   */\n    tag_171:\n        /* \"#utility.yul\":17724:17728   */\n      0x00\n        /* \"#utility.yul\":17762:17764   */\n      0x20\n        /* \"#utility.yul\":17751:17760   */\n      dup3\n        /* \"#utility.yul\":17747:17765   */\n      add\n        /* \"#utility.yul\":17739:17765   */\n      swap1\n      pop\n        /* \"#utility.yul\":17811:17820   */\n      dup2\n        /* \"#utility.yul\":17805:17809   */\n      dup2\n        /* \"#utility.yul\":17801:17821   */\n      sub\n        /* \"#utility.yul\":17797:17798   */\n      0x00\n        /* \"#utility.yul\":17786:17795   */\n      dup4\n        /* \"#utility.yul\":17782:17799   */\n      add\n        /* \"#utility.yul\":17775:17822   */\n      mstore\n        /* \"#utility.yul\":17839:17970   */\n      tag_629\n        /* \"#utility.yul\":17965:17969   */\n      dup2\n        /* \"#utility.yul\":17839:17970   */\n      tag_533\n      jump\t// in\n    tag_629:\n        /* \"#utility.yul\":17831:17970   */\n      swap1\n      pop\n        /* \"#utility.yul\":17558:17977   */\n      swap2\n      swap1\n      pop\n      jump\t// out\n        /* \"#utility.yul\":17983:18402   */\n    tag_267:\n        /* \"#utility.yul\":18149:18153   */\n      0x00\n        /* \"#utility.yul\":18187:18189   */\n      0x20\n        /* \"#utility.yul\":18176:18185   */\n      dup3\n        /* \"#utility.yul\":18172:18190   */\n      add\n        /* \"#utility.yul\":18164:18190   */\n      swap1\n      pop\n        /* \"#utility.yul\":18236:18245   */\n      dup2\n        /* \"#utility.yul\":18230:18234   */\n      dup2\n        /* \"#utility.yul\":18226:18246   */\n      sub\n        /* \"#utility.yul\":18222:18223   */\n      0x00\n        /* \"#utility.yul\":18211:18220   */\n      dup4\n        /* \"#utility.yul\":18207:18224   */\n      add\n        /* \"#utility.yul\":18200:18247   */\n      mstore\n        /* \"#utility.yul\":18264:18395   */\n      tag_631\n        /* \"#utility.yul\":18390:18394   */\n      dup2\n        /* \"#utility.yul\":18264:18395   */\n      tag_538\n      jump\t// in\n    tag_631:\n        /* \"#utility.yul\":18256:18395   */\n      swap1\n      pop\n        /* \"#utility.yul\":17983:18402   */\n      swap2\n      swap1\n      pop\n      jump\t// out\n        /* \"#utility.yul\":18408:18827   */\n    tag_176:\n        /* \"#utility.yul\":18574:18578   */\n      0x00\n        /* \"#utility.yul\":18612:18614   */\n      0x20\n        /* \"#utility.yul\":18601:18610   */\n      dup3\n        /* \"#utility.yul\":18597:18615   */\n      add\n        /* \"#utility.yul\":18589:18615   */\n      swap1\n      pop\n        /* \"#utility.yul\":18661:18670   */\n      dup2\n        /* \"#utility.yul\":18655:18659   */\n      dup2\n        /* \"#utility.yul\":18651:18671   */\n      sub\n        /* \"#utility.yul\":18647:18648   */\n      0x00\n        /* \"#utility.yul\":18636:18645   */\n      dup4\n        /* \"#utility.yul\":18632:18649   */\n      add\n        /* \"#utility.yul\":18625:18672   */\n      mstore\n        /* \"#utility.yul\":18689:18820   */\n      tag_633\n        /* \"#utility.yul\":18815:18819   */\n      dup2\n        /* \"#utility.yul\":18689:18820   */\n      tag_543\n      jump\t// in\n    tag_633:\n        /* \"#utility.yul\":18681:18820   */\n      swap1\n      pop\n        /* \"#utility.yul\":18408:18827   */\n      swap2\n      swap1\n      pop\n      jump\t// out\n        /* \"#utility.yul\":18833:19252   */\n    tag_198:\n        /* \"#utility.yul\":18999:19003   */\n      0x00\n        /* \"#utility.yul\":19037:19039   */\n      0x20\n        /* \"#utility.yul\":19026:19035   */\n      dup3\n        /* \"#utility.yul\":19022:19040   */\n      add\n        /* \"#utility.yul\":19014:19040   */\n      swap1\n      pop\n        /* \"#utility.yul\":19086:19095   */\n      dup2\n        /* \"#utility.yul\":19080:19084   */\n      dup2\n        /* \"#utility.yul\":19076:19096   */\n      sub\n        /* \"#utility.yul\":19072:19073   */\n      0x00\n        /* \"#utility.yul\":19061:19070   */\n      dup4\n        /* \"#utility.yul\":19057:19074   */\n      add\n        /* \"#utility.yul\":19050:19097   */\n      mstore\n        /* \"#utility.yul\":19114:19245   */\n      tag_635\n        /* \"#utility.yul\":19240:19244   */\n      dup2\n        /* \"#utility.yul\":19114:19245   */\n      tag_548\n      jump\t// in\n    tag_635:\n        /* \"#utility.yul\":19106:19245   */\n      swap1\n      pop\n        /* \"#utility.yul\":18833:19252   */\n      swap2\n      swap1\n      pop\n      jump\t// out\n        /* \"#utility.yul\":19258:19677   */\n    tag_206:\n        /* \"#utility.yul\":19424:19428   */\n      0x00\n        /* \"#utility.yul\":19462:19464   */\n      0x20\n        /* \"#utility.yul\":19451:19460   */\n      dup3\n        /* \"#utility.yul\":19447:19465   */\n      add\n        /* \"#utility.yul\":19439:19465   */\n      swap1\n      pop\n        /* \"#utility.yul\":19511:19520   */\n      dup2\n        /* \"#utility.yul\":19505:19509   */\n      dup2\n        /* \"#utility.yul\":19501:19521   */\n      sub\n        /* \"#utility.yul\":19497:19498   */\n      0x00\n        /* \"#utility.yul\":19486:19495   */\n      dup4\n        /* \"#utility.yul\":19482:19499   */\n      add\n        /* \"#utility.yul\":19475:19522   */\n      mstore\n        /* \"#utility.yul\":19539:19670   */\n      tag_637\n        /* \"#utility.yul\":19665:19669   */\n      dup2\n        /* \"#utility.yul\":19539:19670   */\n      tag_553\n      jump\t// in\n    tag_637:\n        /* \"#utility.yul\":19531:19670   */\n      swap1\n      pop\n        /* \"#utility.yul\":19258:19677   */\n      swap2\n      swap1\n      pop\n      jump\t// out\n        /* \"#utility.yul\":19683:20102   */\n    tag_334:\n        /* \"#utility.yul\":19849:19853   */\n      0x00\n        /* \"#utility.yul\":19887:19889   */\n      0x20\n        /* \"#utility.yul\":19876:19885   */\n      dup3\n        /* \"#utility.yul\":19872:19890   */\n      add\n        /* \"#utility.yul\":19864:19890   */\n      swap1\n      pop\n        /* \"#utility.yul\":19936:19945   */\n      dup2\n        /* \"#utility.yul\":19930:19934   */\n      dup2\n        /* \"#utility.yul\":19926:19946   */\n      sub\n        /* \"#utility.yul\":19922:19923   */\n      0x00\n        /* \"#utility.yul\":19911:19920   */\n      dup4\n        /* \"#utility.yul\":19907:19924   */\n      add\n        /* \"#utility.yul\":19900:19947   */\n      mstore\n        /* \"#utility.yul\":19964:20095   */\n      tag_639\n        /* \"#utility.yul\":20090:20094   */\n      dup2\n        /* \"#utility.yul\":19964:20095   */\n      tag_558\n      jump\t// in\n    tag_639:\n        /* \"#utility.yul\":19956:20095   */\n      swap1\n      pop\n        /* \"#utility.yul\":19683:20102   */\n      swap2\n      swap1\n      pop\n      jump\t// out\n        /* \"#utility.yul\":20108:20330   */\n    tag_48:\n        /* \"#utility.yul\":20201:20205   */\n      0x00\n        /* \"#utility.yul\":20239:20241   */\n      0x20\n        /* \"#utility.yul\":20228:20237   */\n      dup3\n        /* \"#utility.yul\":20224:20242   */\n      add\n        /* \"#utility.yul\":20216:20242   */\n      swap1\n      pop\n        /* \"#utility.yul\":20252:20323   */\n      tag_641\n        /* \"#utility.yul\":20320:20321   */\n      0x00\n        /* \"#utility.yul\":20309:20318   */\n      dup4\n        /* \"#utility.yul\":20305:20322   */\n      add\n        /* \"#utility.yul\":20296:20302   */\n      dup5\n        /* \"#utility.yul\":20252:20323   */\n      tag_563\n      jump\t// in\n    tag_641:\n        /* \"#utility.yul\":20108:20330   */\n      swap3\n      swap2\n      pop\n      pop\n      jump\t// out\n        /* \"#utility.yul\":20336:20778   */\n    tag_92:\n        /* \"#utility.yul\":20485:20489   */\n      0x00\n        /* \"#utility.yul\":20523:20525   */\n      0x60\n        /* \"#utility.yul\":20512:20521   */\n      dup3\n        /* \"#utility.yul\":20508:20526   */\n      add\n        /* \"#utility.yul\":20500:20526   */\n      swap1\n      pop\n        /* \"#utility.yul\":20536:20607   */\n      tag_643\n        /* \"#utility.yul\":20604:20605   */\n      0x00\n        /* \"#utility.yul\":20593:20602   */\n      dup4\n        /* \"#utility.yul\":20589:20606   */\n      add\n        /* \"#utility.yul\":20580:20586   */\n      dup7\n        /* \"#utility.yul\":20536:20607   */\n      tag_563\n      jump\t// in\n    tag_643:\n        /* \"#utility.yul\":20617:20689   */\n      tag_644\n        /* \"#utility.yul\":20685:20687   */\n      0x20\n        /* \"#utility.yul\":20674:20683   */\n      dup4\n        /* \"#utility.yul\":20670:20688   */\n      add\n        /* \"#utility.yul\":20661:20667   */\n      dup6\n        /* \"#utility.yul\":20617:20689   */\n      tag_563\n      jump\t// in\n    tag_644:\n        /* \"#utility.yul\":20699:20771   */\n      tag_645\n        /* \"#utility.yul\":20767:20769   */\n      0x40\n        /* \"#utility.yul\":20756:20765   */\n      dup4\n        /* \"#utility.yul\":20752:20770   */\n      add\n        /* \"#utility.yul\":20743:20749   */\n      dup5\n        /* \"#utility.yul\":20699:20771   */\n      tag_563\n      jump\t// in\n    tag_645:\n        /* \"#utility.yul\":20336:20778   */\n      swap5\n      swap4\n      pop\n      pop\n      pop\n      pop\n      jump\t// out\n        /* \"#utility.yul\":20865:21034   */\n    tag_510:\n        /* \"#utility.yul\":20949:20960   */\n      0x00\n        /* \"#utility.yul\":20983:20989   */\n      dup3\n        /* \"#utility.yul\":20978:20981   */\n      dup3\n        /* \"#utility.yul\":20971:20990   */\n      mstore\n        /* \"#utility.yul\":21023:21027   */\n      0x20\n        /* \"#utility.yul\":21018:21021   */\n      dup3\n        /* \"#utility.yul\":21014:21028   */\n      add\n        /* \"#utility.yul\":20999:21028   */\n      swap1\n      pop\n        /* \"#utility.yul\":20865:21034   */\n      swap3\n      swap2\n      pop\n      pop\n      jump\t// out\n        /* \"#utility.yul\":21040:21345   */\n    tag_188:\n        /* \"#utility.yul\":21080:21083   */\n      0x00\n        /* \"#utility.yul\":21099:21119   */\n      tag_650\n        /* \"#utility.yul\":21117:21118   */\n      dup3\n        /* \"#utility.yul\":21099:21119   */\n      tag_566\n      jump\t// in\n    tag_650:\n        /* \"#utility.yul\":21094:21119   */\n      swap2\n      pop\n        /* \"#utility.yul\":21133:21153   */\n      tag_651\n        /* \"#utility.yul\":21151:21152   */\n      dup4\n        /* \"#utility.yul\":21133:21153   */\n      tag_566\n      jump\t// in\n    tag_651:\n        /* \"#utility.yul\":21128:21153   */\n      swap3\n      pop\n        /* \"#utility.yul\":21287:21288   */\n      dup3\n        /* \"#utility.yul\":21219:21285   */\n      0xffffffffffffffffffffffffffffffffffffffffffffffffffffffffffffffff\n        /* \"#utility.yul\":21215:21289   */\n      sub\n        /* \"#utility.yul\":21212:21213   */\n      dup3\n        /* \"#utility.yul\":21209:21290   */\n      gt\n        /* \"#utility.yul\":21206:21313   */\n      iszero\n      tag_652\n      jumpi\n        /* \"#utility.yul\":21293:21311   */\n      tag_653\n      tag_654\n      jump\t// in\n    tag_653:\n        /* \"#utility.yul\":21206:21313   */\n    tag_652:\n        /* \"#utility.yul\":21337:21338   */\n      dup3\n        /* \"#utility.yul\":21334:21335   */\n      dup3\n        /* \"#utility.yul\":21330:21339   */\n      add\n        /* \"#utility.yul\":21323:21339   */\n      swap1\n      pop\n        /* \"#utility.yul\":21040:21345   */\n      swap3\n      swap2\n      pop\n      pop\n      jump\t// out\n        /* \"#utility.yul\":21351:21536   */\n    tag_412:\n        /* \"#utility.yul\":21391:21392   */\n      0x00\n        /* \"#utility.yul\":21408:21428   */\n      tag_656\n        /* \"#utility.yul\":21426:21427   */\n      dup3\n        /* \"#utility.yul\":21408:21428   */\n      tag_566\n      jump\t// in\n    tag_656:\n        /* \"#utility.yul\":21403:21428   */\n      swap2\n      pop\n        /* \"#utility.yul\":21442:21462   */\n      tag_657\n        /* \"#utility.yul\":21460:21461   */\n      dup4\n        /* \"#utility.yul\":21442:21462   */\n      tag_566\n      jump\t// in\n    tag_657:\n        /* \"#utility.yul\":21437:21462   */\n      swap3\n      pop\n        /* \"#utility.yul\":21481:21482   */\n      dup3\n        /* \"#utility.yul\":21471:21506   */\n      tag_658\n      jumpi\n        /* \"#utility.yul\":21486:21504   */\n      tag_659\n      tag_660\n      jump\t// in\n    tag_659:\n        /* \"#utility.yul\":21471:21506   */\n    tag_658:\n        /* \"#utility.yul\":21528:21529   */\n      dup3\n        /* \"#utility.yul\":21525:21526   */\n      dup3\n        /* \"#utility.yul\":21521:21530   */\n      div\n        /* \"#utility.yul\":21516:21530   */\n      swap1\n      pop\n        /* \"#utility.yul\":21351:21536   */\n      swap3\n      swap2\n      pop\n      pop\n      jump\t// out\n        /* \"#utility.yul\":21542:21890   */\n    tag_410:\n        /* \"#utility.yul\":21582:21589   */\n      0x00\n        /* \"#utility.yul\":21605:21625   */\n      tag_662\n        /* \"#utility.yul\":21623:21624   */\n      dup3\n        /* \"#utility.yul\":21605:21625   */\n      tag_566\n      jump\t// in\n    tag_662:\n        /* \"#utility.yul\":21600:21625   */\n      swap2\n      pop\n        /* \"#utility.yul\":21639:21659   */\n      tag_663\n        /* \"#utility.yul\":21657:21658   */\n      dup4\n        /* \"#utility.yul\":21639:21659   */\n      tag_566\n      jump\t// in\n    tag_663:\n        /* \"#utility.yul\":21634:21659   */\n      swap3\n      pop\n        /* \"#utility.yul\":21827:21828   */\n      dup2\n        /* \"#utility.yul\":21759:21825   */\n      0xffffffffffffffffffffffffffffffffffffffffffffffffffffffffffffffff\n        /* \"#utility.yul\":21755:21829   */\n      div\n        /* \"#utility.yul\":21752:21753   */\n      dup4\n        /* \"#utility.yul\":21749:21830   */\n      gt\n        /* \"#utility.yul\":21744:21745   */\n      dup3\n        /* \"#utility.yul\":21737:21746   */\n      iszero\n        /* \"#utility.yul\":21730:21747   */\n      iszero\n        /* \"#utility.yul\":21726:21831   */\n      and\n        /* \"#utility.yul\":21723:21854   */\n      iszero\n      tag_664\n      jumpi\n        /* \"#utility.yul\":21834:21852   */\n      tag_665\n      tag_654\n      jump\t// in\n    tag_665:\n        /* \"#utility.yul\":21723:21854   */\n    tag_664:\n        /* \"#utility.yul\":21882:21883   */\n      dup3\n        /* \"#utility.yul\":21879:21880   */\n      dup3\n        /* \"#utility.yul\":21875:21884   */\n      mul\n        /* \"#utility.yul\":21864:21884   */\n      swap1\n      pop\n        /* \"#utility.yul\":21542:21890   */\n      swap3\n      swap2\n      pop\n      pop\n      jump\t// out\n        /* \"#utility.yul\":21896:22087   */\n    tag_215:\n        /* \"#utility.yul\":21936:21940   */\n      0x00\n        /* \"#utility.yul\":21956:21976   */\n      tag_667\n        /* \"#utility.yul\":21974:21975   */\n      dup3\n        /* \"#utility.yul\":21956:21976   */\n      tag_566\n      jump\t// in\n    tag_667:\n        /* \"#utility.yul\":21951:21976   */\n      swap2\n      pop\n        /* \"#utility.yul\":21990:22010   */\n      tag_668\n        /* \"#utility.yul\":22008:22009   */\n      dup4\n        /* \"#utility.yul\":21990:22010   */\n      tag_566\n      jump\t// in\n    tag_668:\n        /* \"#utility.yul\":21985:22010   */\n      swap3\n      pop\n        /* \"#utility.yul\":22029:22030   */\n      dup3\n        /* \"#utility.yul\":22026:22027   */\n      dup3\n        /* \"#utility.yul\":22023:22031   */\n      lt\n        /* \"#utility.yul\":22020:22054   */\n      iszero\n      tag_669\n      jumpi\n        /* \"#utility.yul\":22034:22052   */\n      tag_670\n      tag_654\n      jump\t// in\n    tag_670:\n        /* \"#utility.yul\":22020:22054   */\n    tag_669:\n        /* \"#utility.yul\":22079:22080   */\n      dup3\n        /* \"#utility.yul\":22076:22077   */\n      dup3\n        /* \"#utility.yul\":22072:22081   */\n      sub\n        /* \"#utility.yul\":22064:22081   */\n      swap1\n      pop\n        /* \"#utility.yul\":21896:22087   */\n      swap3\n      swap2\n      pop\n      pop\n      jump\t// out\n        /* \"#utility.yul\":22093:22189   */\n    tag_482:\n        /* \"#utility.yul\":22130:22137   */\n      0x00\n        /* \"#utility.yul\":22159:22183   */\n      tag_672\n        /* \"#utility.yul\":22177:22182   */\n      dup3\n        /* \"#utility.yul\":22159:22183   */\n      tag_673\n      jump\t// in\n    tag_672:\n        /* \"#utility.yul\":22148:22183   */\n      swap1\n      pop\n        /* \"#utility.yul\":22093:22189   */\n      swap2\n      swap1\n      pop\n      jump\t// out\n        /* \"#utility.yul\":22195:22285   */\n    tag_486:\n        /* \"#utility.yul\":22229:22236   */\n      0x00\n        /* \"#utility.yul\":22272:22277   */\n      dup2\n        /* \"#utility.yul\":22265:22278   */\n      iszero\n        /* \"#utility.yul\":22258:22279   */\n      iszero\n        /* \"#utility.yul\":22247:22279   */\n      swap1\n      pop\n        /* \"#utility.yul\":22195:22285   */\n      swap2\n      swap1\n      pop\n      jump\t// out\n        /* \"#utility.yul\":22291:22417   */\n    tag_673:\n        /* \"#utility.yul\":22328:22335   */\n      0x00\n        /* \"#utility.yul\":22368:22410   */\n      0xffffffffffffffffffffffffffffffffffffffff\n        /* \"#utility.yul\":22361:22366   */\n      dup3\n        /* \"#utility.yul\":22357:22411   */\n      and\n        /* \"#utility.yul\":22346:22411   */\n      swap1\n      pop\n        /* \"#utility.yul\":22291:22417   */\n      swap2\n      swap1\n      pop\n      jump\t// out\n        /* \"#utility.yul\":22423:22500   */\n    tag_566:\n        /* \"#utility.yul\":22460:22467   */\n      0x00\n        /* \"#utility.yul\":22489:22494   */\n      dup2\n        /* \"#utility.yul\":22478:22494   */\n      swap1\n      pop\n        /* \"#utility.yul\":22423:22500   */\n      swap2\n      swap1\n      pop\n      jump\t// out\n        /* \"#utility.yul\":22506:22592   */\n    tag_677:\n        /* \"#utility.yul\":22541:22548   */\n      0x00\n        /* \"#utility.yul\":22581:22585   */\n      0xff\n        /* \"#utility.yul\":22574:22579   */\n      dup3\n        /* \"#utility.yul\":22570:22586   */\n      and\n        /* \"#utility.yul\":22559:22586   */\n      swap1\n      pop\n        /* \"#utility.yul\":22506:22592   */\n      swap2\n      swap1\n      pop\n      jump\t// out\n        /* \"#utility.yul\":22598:22742   */\n    tag_490:\n        /* \"#utility.yul\":22666:22675   */\n      0x00\n        /* \"#utility.yul\":22699:22736   */\n      tag_680\n        /* \"#utility.yul\":22730:22735   */\n      dup3\n        /* \"#utility.yul\":22699:22736   */\n      tag_681\n      jump\t// in\n    tag_680:\n        /* \"#utility.yul\":22686:22736   */\n      swap1\n      pop\n        /* \"#utility.yul\":22598:22742   */\n      swap2\n      swap1\n      pop\n      jump\t// out\n        /* \"#utility.yul\":22748:22888   */\n    tag_494:\n        /* \"#utility.yul\":22812:22821   */\n      0x00\n        /* \"#utility.yul\":22845:22882   */\n      tag_683\n        /* \"#utility.yul\":22876:22881   */\n      dup3\n        /* \"#utility.yul\":22845:22882   */\n      tag_681\n      jump\t// in\n    tag_683:\n        /* \"#utility.yul\":22832:22882   */\n      swap1\n      pop\n        /* \"#utility.yul\":22748:22888   */\n      swap2\n      swap1\n      pop\n      jump\t// out\n        /* \"#utility.yul\":22894:23011   */\n    tag_498:\n        /* \"#utility.yul\":22950:22959   */\n      0x00\n        /* \"#utility.yul\":22983:23005   */\n      tag_685\n        /* \"#utility.yul\":22999:23004   */\n      dup3\n        /* \"#utility.yul\":22983:23005   */\n      tag_677\n      jump\t// in\n    tag_685:\n        /* \"#utility.yul\":22970:23005   */\n      swap1\n      pop\n        /* \"#utility.yul\":22894:23011   */\n      swap2\n      swap1\n      pop\n      jump\t// out\n        /* \"#utility.yul\":23017:23134   */\n    tag_502:\n        /* \"#utility.yul\":23073:23082   */\n      0x00\n        /* \"#utility.yul\":23106:23128   */\n      tag_687\n        /* \"#utility.yul\":23122:23127   */\n      dup3\n        /* \"#utility.yul\":23106:23128   */\n      tag_677\n      jump\t// in\n    tag_687:\n        /* \"#utility.yul\":23093:23128   */\n      swap1\n      pop\n        /* \"#utility.yul\":23017:23134   */\n      swap2\n      swap1\n      pop\n      jump\t// out\n        /* \"#utility.yul\":23140:23257   */\n    tag_506:\n        /* \"#utility.yul\":23196:23205   */\n      0x00\n        /* \"#utility.yul\":23229:23251   */\n      tag_689\n        /* \"#utility.yul\":23245:23250   */\n      dup3\n        /* \"#utility.yul\":23229:23251   */\n      tag_677\n      jump\t// in\n    tag_689:\n        /* \"#utility.yul\":23216:23251   */\n      swap1\n      pop\n        /* \"#utility.yul\":23140:23257   */\n      swap2\n      swap1\n      pop\n      jump\t// out\n        /* \"#utility.yul\":23263:23389   */\n    tag_681:\n        /* \"#utility.yul\":23313:23322   */\n      0x00\n        /* \"#utility.yul\":23346:23383   */\n      tag_691\n        /* \"#utility.yul\":23377:23382   */\n      dup3\n        /* \"#utility.yul\":23346:23383   */\n      tag_692\n      jump\t// in\n    tag_691:\n        /* \"#utility.yul\":23333:23383   */\n      swap1\n      pop\n        /* \"#utility.yul\":23263:23389   */\n      swap2\n      swap1\n      pop\n      jump\t// out\n        /* \"#utility.yul\":23395:23508   */\n    tag_692:\n        /* \"#utility.yul\":23445:23454   */\n      0x00\n        /* \"#utility.yul\":23478:23502   */\n      tag_694\n        /* \"#utility.yul\":23496:23501   */\n      dup3\n        /* \"#utility.yul\":23478:23502   */\n      tag_673\n      jump\t// in\n    tag_694:\n        /* \"#utility.yul\":23465:23502   */\n      swap1\n      pop\n        /* \"#utility.yul\":23395:23508   */\n      swap2\n      swap1\n      pop\n      jump\t// out\n        /* \"#utility.yul\":23514:23694   */\n    tag_654:\n        /* \"#utility.yul\":23562:23639   */\n      0x4e487b7100000000000000000000000000000000000000000000000000000000\n        /* \"#utility.yul\":23559:23560   */\n      0x00\n        /* \"#utility.yul\":23552:23640   */\n      mstore\n        /* \"#utility.yul\":23659:23663   */\n      0x11\n        /* \"#utility.yul\":23656:23657   */\n      0x04\n        /* \"#utility.yul\":23649:23664   */\n      mstore\n        /* \"#utility.yul\":23683:23687   */\n      0x24\n        /* \"#utility.yul\":23680:23681   */\n      0x00\n        /* \"#utility.yul\":23673:23688   */\n      revert\n        /* \"#utility.yul\":23700:23880   */\n    tag_660:\n        /* \"#utility.yul\":23748:23825   */\n      0x4e487b7100000000000000000000000000000000000000000000000000000000\n        /* \"#utility.yul\":23745:23746   */\n      0x00\n        /* \"#utility.yul\":23738:23826   */\n      mstore\n        /* \"#utility.yul\":23845:23849   */\n      0x12\n        /* \"#utility.yul\":23842:23843   */\n      0x04\n        /* \"#utility.yul\":23835:23850   */\n      mstore\n        /* \"#utility.yul\":23869:23873   */\n      0x24\n        /* \"#utility.yul\":23866:23867   */\n      0x00\n        /* \"#utility.yul\":23859:23874   */\n      revert\n        /* \"#utility.yul\":24009:24126   */\n    tag_443:\n        /* \"#utility.yul\":24118:24119   */\n      0x00\n        /* \"#utility.yul\":24115:24116   */\n      dup1\n        /* \"#utility.yul\":24108:24120   */\n      revert\n        /* \"#utility.yul\":24132:24302   */\n    tag_512:\n        /* \"#utility.yul\":24272:24294   */\n      0x5061757361626c653a206e6f7420706175736564000000000000000000000000\n        /* \"#utility.yul\":24268:24269   */\n      0x00\n        /* \"#utility.yul\":24260:24266   */\n      dup3\n        /* \"#utility.yul\":24256:24270   */\n      add\n        /* \"#utility.yul\":24249:24295   */\n      mstore\n        /* \"#utility.yul\":24132:24302   */\n      pop\n      jump\t// out\n        /* \"#utility.yul\":24308:24533   */\n    tag_517:\n        /* \"#utility.yul\":24448:24482   */\n      0x4f776e61626c653a206e6577206f776e657220697320746865207a65726f2061\n        /* \"#utility.yul\":24444:24445   */\n      0x00\n        /* \"#utility.yul\":24436:24442   */\n      dup3\n        /* \"#utility.yul\":24432:24446   */\n      add\n        /* \"#utility.yul\":24425:24483   */\n      mstore\n        /* \"#utility.yul\":24517:24525   */\n      0x6464726573730000000000000000000000000000000000000000000000000000\n        /* \"#utility.yul\":24512:24514   */\n      0x20\n        /* \"#utility.yul\":24504:24510   */\n      dup3\n        /* \"#utility.yul\":24500:24515   */\n      add\n        /* \"#utility.yul\":24493:24526   */\n      mstore\n        /* \"#utility.yul\":24308:24533   */\n      pop\n      jump\t// out\n        /* \"#utility.yul\":24539:24719   */\n    tag_522:\n        /* \"#utility.yul\":24679:24711   */\n      0x4e6f7420656e6f7567682062616c616e636520746f2077697468647261770000\n        /* \"#utility.yul\":24675:24676   */\n      0x00\n        /* \"#utility.yul\":24667:24673   */\n      dup3\n        /* \"#utility.yul\":24663:24677   */\n      add\n        /* \"#utility.yul\":24656:24712   */\n      mstore\n        /* \"#utility.yul\":24539:24719   */\n      pop\n      jump\t// out\n        /* \"#utility.yul\":24725:24946   */\n    tag_527:\n        /* \"#utility.yul\":24865:24899   */\n      0x596f7527726520616c726561647920696e2074686973205374616b65206c6576\n        /* \"#utility.yul\":24861:24862   */\n      0x00\n        /* \"#utility.yul\":24853:24859   */\n      dup3\n        /* \"#utility.yul\":24849:24863   */\n      add\n        /* \"#utility.yul\":24842:24900   */\n      mstore\n        /* \"#utility.yul\":24934:24938   */\n      0x656c000000000000000000000000000000000000000000000000000000000000\n        /* \"#utility.yul\":24929:24931   */\n      0x20\n        /* \"#utility.yul\":24921:24927   */\n      dup3\n        /* \"#utility.yul\":24917:24932   */\n      add\n        /* \"#utility.yul\":24910:24939   */\n      mstore\n        /* \"#utility.yul\":24725:24946   */\n      pop\n      jump\t// out\n        /* \"#utility.yul\":24952:25124   */\n    tag_532:\n        /* \"#utility.yul\":25092:25116   */\n      0x55736572206973206e6f74206f6e204c6576656c203100000000000000000000\n        /* \"#utility.yul\":25088:25089   */\n      0x00\n        /* \"#utility.yul\":25080:25086   */\n      dup3\n        /* \"#utility.yul\":25076:25090   */\n      add\n        /* \"#utility.yul\":25069:25117   */\n      mstore\n        /* \"#utility.yul\":24952:25124   */\n      pop\n      jump\t// out\n        /* \"#utility.yul\":25130:25296   */\n    tag_537:\n        /* \"#utility.yul\":25270:25288   */\n      0x5061757361626c653a2070617573656400000000000000000000000000000000\n        /* \"#utility.yul\":25266:25267   */\n      0x00\n        /* \"#utility.yul\":25258:25264   */\n      dup3\n        /* \"#utility.yul\":25254:25268   */\n      add\n        /* \"#utility.yul\":25247:25289   */\n      mstore\n        /* \"#utility.yul\":25130:25296   */\n      pop\n      jump\t// out\n        /* \"#utility.yul\":25302:25474   */\n    tag_542:\n        /* \"#utility.yul\":25442:25466   */\n      0x55736572206973206e6f74206f6e204c6576656c203000000000000000000000\n        /* \"#utility.yul\":25438:25439   */\n      0x00\n        /* \"#utility.yul\":25430:25436   */\n      dup3\n        /* \"#utility.yul\":25426:25440   */\n      add\n        /* \"#utility.yul\":25419:25467   */\n      mstore\n        /* \"#utility.yul\":25302:25474   */\n      pop\n      jump\t// out\n        /* \"#utility.yul\":25480:25717   */\n    tag_547:\n        /* \"#utility.yul\":25620:25654   */\n      0x416d6f756e74206e6565647320746f206265206d6f7265207468616e206d696e\n        /* \"#utility.yul\":25616:25617   */\n      0x00\n        /* \"#utility.yul\":25608:25614   */\n      dup3\n        /* \"#utility.yul\":25604:25618   */\n      add\n        /* \"#utility.yul\":25597:25655   */\n      mstore\n        /* \"#utility.yul\":25689:25709   */\n      0x20616e64206c657373207468616e206d61780000000000000000000000000000\n        /* \"#utility.yul\":25684:25686   */\n      0x20\n        /* \"#utility.yul\":25676:25682   */\n      dup3\n        /* \"#utility.yul\":25672:25687   */\n      add\n        /* \"#utility.yul\":25665:25710   */\n      mstore\n        /* \"#utility.yul\":25480:25717   */\n      pop\n      jump\t// out\n        /* \"#utility.yul\":25723:25905   */\n    tag_552:\n        /* \"#utility.yul\":25863:25897   */\n      0x4f776e61626c653a2063616c6c6572206973206e6f7420746865206f776e6572\n        /* \"#utility.yul\":25859:25860   */\n      0x00\n        /* \"#utility.yul\":25851:25857   */\n      dup3\n        /* \"#utility.yul\":25847:25861   */\n      add\n        /* \"#utility.yul\":25840:25898   */\n      mstore\n        /* \"#utility.yul\":25723:25905   */\n      pop\n      jump\t// out\n        /* \"#utility.yul\":25911:26076   */\n    tag_557:\n        /* \"#utility.yul\":26051:26068   */\n      0x55736572206973206e6f74205669700000000000000000000000000000000000\n        /* \"#utility.yul\":26047:26048   */\n      0x00\n        /* \"#utility.yul\":26039:26045   */\n      dup3\n        /* \"#utility.yul\":26035:26049   */\n      add\n        /* \"#utility.yul\":26028:26069   */\n      mstore\n        /* \"#utility.yul\":25911:26076   */\n      pop\n      jump\t// out\n        /* \"#utility.yul\":26082:26263   */\n    tag_562:\n        /* \"#utility.yul\":26222:26255   */\n      0x596f7527726520616c726561647920696e2074686520566970205374616b6500\n        /* \"#utility.yul\":26218:26219   */\n      0x00\n        /* \"#utility.yul\":26210:26216   */\n      dup3\n        /* \"#utility.yul\":26206:26220   */\n      add\n        /* \"#utility.yul\":26199:26256   */\n      mstore\n        /* \"#utility.yul\":26082:26263   */\n      pop\n      jump\t// out\n        /* \"#utility.yul\":26269:26391   */\n    tag_427:\n        /* \"#utility.yul\":26342:26366   */\n      tag_712\n        /* \"#utility.yul\":26360:26365   */\n      dup2\n        /* \"#utility.yul\":26342:26366   */\n      tag_482\n      jump\t// in\n    tag_712:\n        /* \"#utility.yul\":26335:26340   */\n      dup2\n        /* \"#utility.yul\":26332:26367   */\n      eq\n        /* \"#utility.yul\":26322:26385   */\n      tag_713\n      jumpi\n        /* \"#utility.yul\":26381:26382   */\n      0x00\n        /* \"#utility.yul\":26378:26379   */\n      dup1\n        /* \"#utility.yul\":26371:26383   */\n      revert\n        /* \"#utility.yul\":26322:26385   */\n    tag_713:\n        /* \"#utility.yul\":26269:26391   */\n      pop\n      jump\t// out\n        /* \"#utility.yul\":26397:26513   */\n    tag_431:\n        /* \"#utility.yul\":26467:26488   */\n      tag_715\n        /* \"#utility.yul\":26482:26487   */\n      dup2\n        /* \"#utility.yul\":26467:26488   */\n      tag_486\n      jump\t// in\n    tag_715:\n        /* \"#utility.yul\":26460:26465   */\n      dup2\n        /* \"#utility.yul\":26457:26489   */\n      eq\n        /* \"#utility.yul\":26447:26507   */\n      tag_716\n      jumpi\n        /* \"#utility.yul\":26503:26504   */\n      0x00\n        /* \"#utility.yul\":26500:26501   */\n      dup1\n        /* \"#utility.yul\":26493:26505   */\n      revert\n        /* \"#utility.yul\":26447:26507   */\n    tag_716:\n        /* \"#utility.yul\":26397:26513   */\n      pop\n      jump\t// out\n        /* \"#utility.yul\":26519:26641   */\n    tag_435:\n        /* \"#utility.yul\":26592:26616   */\n      tag_718\n        /* \"#utility.yul\":26610:26615   */\n      dup2\n        /* \"#utility.yul\":26592:26616   */\n      tag_566\n      jump\t// in\n    tag_718:\n        /* \"#utility.yul\":26585:26590   */\n      dup2\n        /* \"#utility.yul\":26582:26617   */\n      eq\n        /* \"#utility.yul\":26572:26635   */\n      tag_719\n      jumpi\n        /* \"#utility.yul\":26631:26632   */\n      0x00\n        /* \"#utility.yul\":26628:26629   */\n      dup1\n        /* \"#utility.yul\":26621:26633   */\n      revert\n        /* \"#utility.yul\":26572:26635   */\n    tag_719:\n        /* \"#utility.yul\":26519:26641   */\n      pop\n      jump\t// out\n        /* \"#utility.yul\":26647:26765   */\n    tag_439:\n        /* \"#utility.yul\":26718:26740   */\n      tag_721\n        /* \"#utility.yul\":26734:26739   */\n      dup2\n        /* \"#utility.yul\":26718:26740   */\n      tag_677\n      jump\t// in\n    tag_721:\n        /* \"#utility.yul\":26711:26716   */\n      dup2\n        /* \"#utility.yul\":26708:26741   */\n      eq\n        /* \"#utility.yul\":26698:26759   */\n      tag_722\n      jumpi\n        /* \"#utility.yul\":26755:26756   */\n      0x00\n        /* \"#utility.yul\":26752:26753   */\n      dup1\n        /* \"#utility.yul\":26745:26757   */\n      revert\n        /* \"#utility.yul\":26698:26759   */\n    tag_722:\n        /* \"#utility.yul\":26647:26765   */\n      pop\n      jump\t// out\n\n    auxdata: 0xa26469706673582212209e27b99147536944b9c30b3b672e3a920bcf16cc520dc50bd3a758dfebdc777964736f6c63430008070033\n}\n",
				"bytecode": {
					"linkReferences": {},
					"object": "60a0604052610a8c600255610e746003556112c06004556802b5e3af16b18800006005556b019d971e4fe8401e7400000060065568056bc75e2d631000006007556b019d971e4fe8401e74000000600855680ad78ebc5ac62000006009556b0813f3978f89409844000000600a553480156200007a57600080fd5b5060405162003a8f38038062003a8f8339818101604052810190620000a0919062000298565b620000c0620000b4620001b560201b60201c565b620001bd60201b60201c565b60008060146101000a81548160ff02191690831515021790555081600160006101000a81548173ffffffffffffffffffffffffffffffffffffffff021916908373ffffffffffffffffffffffffffffffffffffffff16021790555080600b60006101000a81548173ffffffffffffffffffffffffffffffffffffffff021916908373ffffffffffffffffffffffffffffffffffffffff1602179055506000739ac64cc6e4415144c455bd8e4837fea55603e5c390508073ffffffffffffffffffffffffffffffffffffffff1660808173ffffffffffffffffffffffffffffffffffffffff1660601b8152505050505062000332565b600033905090565b60008060009054906101000a900473ffffffffffffffffffffffffffffffffffffffff169050816000806101000a81548173ffffffffffffffffffffffffffffffffffffffff021916908373ffffffffffffffffffffffffffffffffffffffff1602179055508173ffffffffffffffffffffffffffffffffffffffff168173ffffffffffffffffffffffffffffffffffffffff167f8be0079c531659141344cd1fd0a4f28419497f9722a3daafe3b4186f6b6457e060405160405180910390a35050565b600081519050620002928162000318565b92915050565b60008060408385031215620002b257620002b162000313565b5b6000620002c28582860162000281565b9250506020620002d58582860162000281565b9150509250929050565b6000620002ec82620002f3565b9050919050565b600073ffffffffffffffffffffffffffffffffffffffff82169050919050565b600080fd5b6200032381620002df565b81146200032f57600080fd5b50565b60805160601c61373e62000351600039600061067e015261373e6000f3fe608060405234801561001057600080fd5b50600436106102115760003560e01c80638275b18111610125578063bf01651a116100ad578063e5d157011161007c578063e5d15701146105d6578063f2fde38b146105f2578063f4217e1e1461060e578063f7edf9ab1461062a578063fe2981b51461065a57610211565b8063bf01651a14610562578063d3900a521461057e578063d72b11bd1461059c578063dda4fa8f146105ba57610211565b80638f0fb2b7116100f45780638f0fb2b7146104bc57806391789cef146104da578063927e5998146104f857806397e9c5fe14610514578063bb6648641461054657610211565b80638275b1811461044657806384203f4b146104645780638456cb59146104945780638da5cb5b1461049e57610211565b80636296e750116101a857806367911ba41161017757806367911ba41461038a57806369e06848146103bc578063715018a6146103ec57806371a1609b146103f65780637fe509d71461041457610211565b80636296e750146102f0578063635ef285146103205780636505cf31146103505780636636389e1461036e57610211565b806332938e3a116101e457806332938e3a1461028c5780633f4ba83a146102aa578063451c3d80146102b45780635c975abb146102d257610211565b806301ef4739146102165780631694505e146102345780631ed81ff8146102525780631ff08fee1461026e575b600080fd5b61021e610676565b60405161022b91906131c9565b60405180910390f35b61023c61067c565b6040516102499190613033565b60405180910390f35b61026c60048036038101906102679190612aa5565b6106a0565b005b6102766109b1565b60405161028391906131c9565b60405180910390f35b6102946109b7565b6040516102a191906131c9565b60405180910390f35b6102b26109bd565b005b6102bc610a43565b6040516102c9919061304e565b60405180910390f35b6102da610a69565b6040516102e79190613018565b60405180910390f35b61030a600480360381019061030591906129b8565b610a7f565b6040516103179190613018565b60405180910390f35b61033a600480360381019061033591906129b8565b610a9f565b6040516103479190613018565b60405180910390f35b610358610abf565b60405161036591906131c9565b60405180910390f35b61038860048036038101906103839190612aa5565b610ac5565b005b6103a4600480360381019061039f91906129b8565b610fa3565b6040516103b3939291906131e4565b60405180910390f35b6103d660048036038101906103d19190612a25565b610fcd565b6040516103e391906131c9565b60405180910390f35b6103f4611112565b005b6103fe61119a565b60405161040b91906131c9565b60405180910390f35b61042e600480360381019061042991906129b8565b6111a0565b60405161043d939291906131e4565b60405180910390f35b61044e6111ca565b60405161045b91906131c9565b60405180910390f35b61047e600480360381019061047991906129b8565b6111d0565b60405161048b9190613018565b60405180910390f35b61049c6111f0565b005b6104a6611276565b6040516104b39190612dab565b60405180910390f35b6104c461129f565b6040516104d191906131c9565b60405180910390f35b6104e26112a5565b6040516104ef91906131c9565b60405180910390f35b610512600480360381019061050d9190612aa5565b6112ab565b005b61052e600480360381019061052991906129b8565b611789565b60405161053d939291906131e4565b60405180910390f35b610560600480360381019061055b9190612aa5565b6117b3565b005b61057c60048036038101906105779190612aa5565b611c91565b005b610586611fa2565b60405161059391906131c9565b60405180910390f35b6105a4611fa8565b6040516105b19190612dab565b60405180910390f35b6105d460048036038101906105cf91906129b8565b611fce565b005b6105f060048036038101906105eb9190612ad2565b61208e565b005b61060c600480360381019061060791906129b8565b612124565b005b61062860048036038101906106239190612b25565b61221c565b005b610644600480360381019061063f91906129e5565b6122ca565b6040516106519190613018565b60405180910390f35b610674600480360381019061066f9190612aa5565b6123e9565b005b60075481565b7f000000000000000000000000000000000000000000000000000000000000000081565b6106a8610a69565b156106e8576040517f08c379a00000000000000000000000000000000000000000000000000000000081526004016106df90613109565b60405180910390fd5b60085481111580156106fc57506007548110155b61073b576040517f08c379a000000000000000000000000000000000000000000000000000000000815260040161073290613149565b60405180910390fd5b6000339050600e60008273ffffffffffffffffffffffffffffffffffffffff1673ffffffffffffffffffffffffffffffffffffffff16815260200190815260200160002060009054906101000a900460ff16156107cd576040517f08c379a00000000000000000000000000000000000000000000000000000000081526004016107c4906130c9565b60405180910390fd5b600160009054906101000a900473ffffffffffffffffffffffffffffffffffffffff1673ffffffffffffffffffffffffffffffffffffffff166323b872dd8230856040518463ffffffff1660e01b815260040161082c93929190612dc6565b602060405180830381600087803b15801561084657600080fd5b505af115801561085a573d6000803e3d6000fd5b505050506040513d601f19601f8201168201806040525081019061087e9190612a78565b506001600e60008373ffffffffffffffffffffffffffffffffffffffff1673ffffffffffffffffffffffffffffffffffffffff16815260200190815260200160002060006101000a81548160ff0219169083151502179055506040518060600160405280838152602001428152602001610320426108fc919061322c565b815250600f60008373ffffffffffffffffffffffffffffffffffffffff1673ffffffffffffffffffffffffffffffffffffffff1681526020019081526020016000206000820151816000015560208201518160010155604082015181600201559050507f17849bb8c713de96b48f218d3bacc9af082261c3ccc7c6dccebe70e667b22f23816001844262278d0042610994919061322c565b6040516109a5959493929190612ef6565b60405180910390a15050565b60035481565b60045481565b6109c56126fa565b73ffffffffffffffffffffffffffffffffffffffff166109e3611276565b73ffffffffffffffffffffffffffffffffffffffff1614610a39576040517f08c379a0000000000000000000000000000000000000000000000000000000008152600401610a3090613169565b60405180910390fd5b610a41612702565b565b600160009054906101000a900473ffffffffffffffffffffffffffffffffffffffff1681565b60008060149054906101000a900460ff16905090565b600c6020528060005260406000206000915054906101000a900460ff1681565b600e6020528060005260406000206000915054906101000a900460ff1681565b60055481565b6000339050601060008273ffffffffffffffffffffffffffffffffffffffff1673ffffffffffffffffffffffffffffffffffffffff16815260200190815260200160002060009054906101000a900460ff16610b56576040517f08c379a0000000000000000000000000000000000000000000000000000000008152600401610b4d90613189565b60405180910390fd5b6000601160008373ffffffffffffffffffffffffffffffffffffffff1673ffffffffffffffffffffffffffffffffffffffff16815260200190815260200160002060000154905082811015610be0576040517f08c379a0000000000000000000000000000000000000000000000000000000008152600401610bd7906130a9565b60405180910390fd5b6000610bed8360026122ca565b90506000610bfd84600287610fcd565b905082851415610cbe57601160008573ffffffffffffffffffffffffffffffffffffffff1673ffffffffffffffffffffffffffffffffffffffff1681526020019081526020016000206000808201600090556001820160009055600282016000905550506000601060008673ffffffffffffffffffffffffffffffffffffffff1673ffffffffffffffffffffffffffffffffffffffff16815260200190815260200160002060006101000a81548160ff021916908315150217905550610d18565b84601160008673ffffffffffffffffffffffffffffffffffffffff1673ffffffffffffffffffffffffffffffffffffffff1681526020019081526020016000206000016000828254610d10919061330d565b925050819055505b8115610ea757600160009054906101000a900473ffffffffffffffffffffffffffffffffffffffff1673ffffffffffffffffffffffffffffffffffffffff1663a9059cbb85876040518363ffffffff1660e01b8152600401610d7b929190612fef565b602060405180830381600087803b158015610d9557600080fd5b505af1158015610da9573d6000803e3d6000fd5b505050506040513d601f19601f82011682018060405250810190610dcd9190612a78565b50600160009054906101000a900473ffffffffffffffffffffffffffffffffffffffff1673ffffffffffffffffffffffffffffffffffffffff166323b872dd600b60009054906101000a900473ffffffffffffffffffffffffffffffffffffffff1686846040518463ffffffff1660e01b8152600401610e4f93929190612dc6565b602060405180830381600087803b158015610e6957600080fd5b505af1158015610e7d573d6000803e3d6000fd5b505050506040513d601f19601f82011682018060405250810190610ea19190612a78565b50610f5c565b60009050600160009054906101000a900473ffffffffffffffffffffffffffffffffffffffff1673ffffffffffffffffffffffffffffffffffffffff1663a9059cbb85876040518363ffffffff1660e01b8152600401610f08929190612fef565b602060405180830381600087803b158015610f2257600080fd5b505af1158015610f36573d6000803e3d6000fd5b505050506040513d601f19601f82011682018060405250810190610f5a9190612a78565b505b7fa3dff5863d601223d9b31a0253b97a6c2085daca56089b92836b4b6a1991e04b846002848885604051610f94959493929190612f49565b60405180910390a15050505050565b600d6020528060005260406000206000915090508060000154908060010154908060020154905083565b6000808360ff161415611036576000600d60008673ffffffffffffffffffffffffffffffffffffffff1673ffffffffffffffffffffffffffffffffffffffff16815260200190815260200160002060010154905061102e83826002546127a3565b91505061110b565b60018360ff16141561109e576000600f60008673ffffffffffffffffffffffffffffffffffffffff1673ffffffffffffffffffffffffffffffffffffffff16815260200190815260200160002060010154905061109683826003546127a3565b91505061110b565b60028360ff161415611106576000601160008673ffffffffffffffffffffffffffffffffffffffff1673ffffffffffffffffffffffffffffffffffffffff1681526020019081526020016000206001015490506110fe83826004546127a3565b91505061110b565b600090505b9392505050565b61111a6126fa565b73ffffffffffffffffffffffffffffffffffffffff16611138611276565b73ffffffffffffffffffffffffffffffffffffffff161461118e576040517f08c379a000000000000000000000000000000000000000000000000000000000815260040161118590613169565b60405180910390fd5b61119860006127fd565b565b60065481565b600f6020528060005260406000206000915090508060000154908060010154908060020154905083565b60025481565b60106020528060005260406000206000915054906101000a900460ff1681565b6111f86126fa565b73ffffffffffffffffffffffffffffffffffffffff16611216611276565b73ffffffffffffffffffffffffffffffffffffffff161461126c576040517f08c379a000000000000000000000000000000000000000000000000000000000815260040161126390613169565b60405180910390fd5b6112746128c1565b565b60008060009054906101000a900473ffffffffffffffffffffffffffffffffffffffff16905090565b600a5481565b60095481565b6000339050600c60008273ffffffffffffffffffffffffffffffffffffffff1673ffffffffffffffffffffffffffffffffffffffff16815260200190815260200160002060009054906101000a900460ff1661133c576040517f08c379a000000000000000000000000000000000000000000000000000000000815260040161133390613129565b60405180910390fd5b6000600d60008373ffffffffffffffffffffffffffffffffffffffff1673ffffffffffffffffffffffffffffffffffffffff168152602001908152602001600020600001549050828110156113c6576040517f08c379a00000000000000000000000000000000000000000000000000000000081526004016113bd906130a9565b60405180910390fd5b60006113d38360006122ca565b905060006113e384600087610fcd565b9050828514156114a457600d60008573ffffffffffffffffffffffffffffffffffffffff1673ffffffffffffffffffffffffffffffffffffffff1681526020019081526020016000206000808201600090556001820160009055600282016000905550506000600c60008673ffffffffffffffffffffffffffffffffffffffff1673ffffffffffffffffffffffffffffffffffffffff16815260200190815260200160002060006101000a81548160ff0219169083151502179055506114fe565b84600d60008673ffffffffffffffffffffffffffffffffffffffff1673ffffffffffffffffffffffffffffffffffffffff16815260200190815260200160002060000160008282546114f6919061330d565b925050819055505b811561168d57600160009054906101000a900473ffffffffffffffffffffffffffffffffffffffff1673ffffffffffffffffffffffffffffffffffffffff1663a9059cbb85876040518363ffffffff1660e01b8152600401611561929190612fef565b602060405180830381600087803b15801561157b57600080fd5b505af115801561158f573d6000803e3d6000fd5b505050506040513d601f19601f820116820180604052508101906115b39190612a78565b50600160009054906101000a900473ffffffffffffffffffffffffffffffffffffffff1673ffffffffffffffffffffffffffffffffffffffff166323b872dd600b60009054906101000a900473ffffffffffffffffffffffffffffffffffffffff1686846040518463ffffffff1660e01b815260040161163593929190612dc6565b602060405180830381600087803b15801561164f57600080fd5b505af1158015611663573d6000803e3d6000fd5b505050506040513d601f19601f820116820180604052508101906116879190612a78565b50611742565b60009050600160009054906101000a900473ffffffffffffffffffffffffffffffffffffffff1673ffffffffffffffffffffffffffffffffffffffff1663a9059cbb85876040518363ffffffff1660e01b81526004016116ee929190612fef565b602060405180830381600087803b15801561170857600080fd5b505af115801561171c573d6000803e3d6000fd5b505050506040513d601f19601f820116820180604052508101906117409190612a78565b505b7fa3dff5863d601223d9b31a0253b97a6c2085daca56089b92836b4b6a1991e04b84600084888560405161177a959493929190612dfd565b60405180910390a15050505050565b60116020528060005260406000206000915090508060000154908060010154908060020154905083565b6000339050600e60008273ffffffffffffffffffffffffffffffffffffffff1673ffffffffffffffffffffffffffffffffffffffff16815260200190815260200160002060009054906101000a900460ff16611844576040517f08c379a000000000000000000000000000000000000000000000000000000000815260040161183b906130e9565b60405180910390fd5b6000600f60008373ffffffffffffffffffffffffffffffffffffffff1673ffffffffffffffffffffffffffffffffffffffff168152602001908152602001600020600001549050828110156118ce576040517f08c379a00000000000000000000000000000000000000000000000000000000081526004016118c5906130a9565b60405180910390fd5b60006118db8360016122ca565b905060006118eb84600187610fcd565b9050828514156119ac57600f60008573ffffffffffffffffffffffffffffffffffffffff1673ffffffffffffffffffffffffffffffffffffffff1681526020019081526020016000206000808201600090556001820160009055600282016000905550506000600e60008673ffffffffffffffffffffffffffffffffffffffff1673ffffffffffffffffffffffffffffffffffffffff16815260200190815260200160002060006101000a81548160ff021916908315150217905550611a06565b84600f60008673ffffffffffffffffffffffffffffffffffffffff1673ffffffffffffffffffffffffffffffffffffffff16815260200190815260200160002060000160008282546119fe919061330d565b925050819055505b8115611b9557600160009054906101000a900473ffffffffffffffffffffffffffffffffffffffff1673ffffffffffffffffffffffffffffffffffffffff1663a9059cbb85876040518363ffffffff1660e01b8152600401611a69929190612fef565b602060405180830381600087803b158015611a8357600080fd5b505af1158015611a97573d6000803e3d6000fd5b505050506040513d601f19601f82011682018060405250810190611abb9190612a78565b50600160009054906101000a900473ffffffffffffffffffffffffffffffffffffffff1673ffffffffffffffffffffffffffffffffffffffff166323b872dd600b60009054906101000a900473ffffffffffffffffffffffffffffffffffffffff1686846040518463ffffffff1660e01b8152600401611b3d93929190612dc6565b602060405180830381600087803b158015611b5757600080fd5b505af1158015611b6b573d6000803e3d6000fd5b505050506040513d601f19601f82011682018060405250810190611b8f9190612a78565b50611c4a565b60009050600160009054906101000a900473ffffffffffffffffffffffffffffffffffffffff1673ffffffffffffffffffffffffffffffffffffffff1663a9059cbb85876040518363ffffffff1660e01b8152600401611bf6929190612fef565b602060405180830381600087803b158015611c1057600080fd5b505af1158015611c24573d6000803e3d6000fd5b505050506040513d601f19601f82011682018060405250810190611c489190612a78565b505b7fa3dff5863d601223d9b31a0253b97a6c2085daca56089b92836b4b6a1991e04b846001848885604051611c82959493929190612ea3565b60405180910390a15050505050565b611c99610a69565b15611cd9576040517f08c379a0000000000000000000000000000000000000000000000000000000008152600401611cd090613109565b60405180910390fd5b600a548111158015611ced57506009548110155b611d2c576040517f08c379a0000000000000000000000000000000000000000000000000000000008152600401611d2390613149565b60405180910390fd5b6000339050601060008273ffffffffffffffffffffffffffffffffffffffff1673ffffffffffffffffffffffffffffffffffffffff16815260200190815260200160002060009054906101000a900460ff1615611dbe576040517f08c379a0000000000000000000000000000000000000000000000000000000008152600401611db5906131a9565b60405180910390fd5b600160009054906101000a900473ffffffffffffffffffffffffffffffffffffffff1673ffffffffffffffffffffffffffffffffffffffff166323b872dd8230856040518463ffffffff1660e01b8152600401611e1d93929190612dc6565b602060405180830381600087803b158015611e3757600080fd5b505af1158015611e4b573d6000803e3d6000fd5b505050506040513d601f19601f82011682018060405250810190611e6f9190612a78565b506001601060008373ffffffffffffffffffffffffffffffffffffffff1673ffffffffffffffffffffffffffffffffffffffff16815260200190815260200160002060006101000a81548160ff02191690831515021790555060405180606001604052808381526020014281526020016104b042611eed919061322c565b815250601160008373ffffffffffffffffffffffffffffffffffffffff1673ffffffffffffffffffffffffffffffffffffffff1681526020019081526020016000206000820151816000015560208201518160010155604082015181600201559050507f17849bb8c713de96b48f218d3bacc9af082261c3ccc7c6dccebe70e667b22f2381600284426276a70042611f85919061322c565b604051611f96959493929190612f9c565b60405180910390a15050565b60085481565b600b60009054906101000a900473ffffffffffffffffffffffffffffffffffffffff1681565b611fd66126fa565b73ffffffffffffffffffffffffffffffffffffffff16611ff4611276565b73ffffffffffffffffffffffffffffffffffffffff161461204a576040517f08c379a000000000000000000000000000000000000000000000000000000000815260040161204190613169565b60405180910390fd5b80600b60006101000a81548173ffffffffffffffffffffffffffffffffffffffff021916908373ffffffffffffffffffffffffffffffffffffffff16021790555050565b6120966126fa565b73ffffffffffffffffffffffffffffffffffffffff166120b4611276565b73ffffffffffffffffffffffffffffffffffffffff161461210a576040517f08c379a000000000000000000000000000000000000000000000000000000000815260040161210190613169565b60405180910390fd5b826002819055508160038190555080600481905550505050565b61212c6126fa565b73ffffffffffffffffffffffffffffffffffffffff1661214a611276565b73ffffffffffffffffffffffffffffffffffffffff16146121a0576040517f08c379a000000000000000000000000000000000000000000000000000000000815260040161219790613169565b60405180910390fd5b600073ffffffffffffffffffffffffffffffffffffffff168173ffffffffffffffffffffffffffffffffffffffff161415612210576040517f08c379a000000000000000000000000000000000000000000000000000000000815260040161220790613089565b60405180910390fd5b612219816127fd565b50565b6122246126fa565b73ffffffffffffffffffffffffffffffffffffffff16612242611276565b73ffffffffffffffffffffffffffffffffffffffff1614612298576040517f08c379a000000000000000000000000000000000000000000000000000000000815260040161228f90613169565b60405180910390fd5b856005819055508460068190555083600781905550826008819055508160098190555080600a81905550505050505050565b60008060008360ff16141561232357600d60008573ffffffffffffffffffffffffffffffffffffffff1673ffffffffffffffffffffffffffffffffffffffff1681526020019081526020016000206002015490506123db565b60018360ff16141561237957600f60008573ffffffffffffffffffffffffffffffffffffffff1673ffffffffffffffffffffffffffffffffffffffff1681526020019081526020016000206002015490506123da565b60028360ff1614156123cf57601160008573ffffffffffffffffffffffffffffffffffffffff1673ffffffffffffffffffffffffffffffffffffffff1681526020019081526020016000206002015490506123d9565b60009150506123e3565b5b5b804210159150505b92915050565b6123f1610a69565b15612431576040517f08c379a000000000000000000000000000000000000000000000000000000000815260040161242890613109565b60405180910390fd5b600654811115801561244557506005548110155b612484576040517f08c379a000000000000000000000000000000000000000000000000000000000815260040161247b90613149565b60405180910390fd5b6000339050600c60008273ffffffffffffffffffffffffffffffffffffffff1673ffffffffffffffffffffffffffffffffffffffff16815260200190815260200160002060009054906101000a900460ff1615612516576040517f08c379a000000000000000000000000000000000000000000000000000000000815260040161250d906130c9565b60405180910390fd5b600160009054906101000a900473ffffffffffffffffffffffffffffffffffffffff1673ffffffffffffffffffffffffffffffffffffffff166323b872dd8230856040518463ffffffff1660e01b815260040161257593929190612dc6565b602060405180830381600087803b15801561258f57600080fd5b505af11580156125a3573d6000803e3d6000fd5b505050506040513d601f19601f820116820180604052508101906125c79190612a78565b506001600c60008373ffffffffffffffffffffffffffffffffffffffff1673ffffffffffffffffffffffffffffffffffffffff16815260200190815260200160002060006101000a81548160ff021916908315150217905550604051806060016040528083815260200142815260200161025842612645919061322c565b815250600d60008373ffffffffffffffffffffffffffffffffffffffff1673ffffffffffffffffffffffffffffffffffffffff1681526020019081526020016000206000820151816000015560208201518160010155604082015181600201559050507f17849bb8c713de96b48f218d3bacc9af082261c3ccc7c6dccebe70e667b22f23816000844262093a80426126dd919061322c565b6040516126ee959493929190612e50565b60405180910390a15050565b600033905090565b61270a610a69565b612749576040517f08c379a000000000000000000000000000000000000000000000000000000000815260040161274090613069565b60405180910390fd5b60008060146101000a81548160ff0219169083151502179055507f5db9ee0a495bf2e6ff9c91a7834c1ba4fdd244a5e8aa4e537bd38aeae4b073aa61278c6126fa565b6040516127999190612dab565b60405180910390a1565b60008083426127b2919061330d565b905060006301e1338061271085886127ca91906132b3565b6127d49190613282565b6127de9190613282565b9050600081836127ee91906132b3565b90508093505050509392505050565b60008060009054906101000a900473ffffffffffffffffffffffffffffffffffffffff169050816000806101000a81548173ffffffffffffffffffffffffffffffffffffffff021916908373ffffffffffffffffffffffffffffffffffffffff1602179055508173ffffffffffffffffffffffffffffffffffffffff168173ffffffffffffffffffffffffffffffffffffffff167f8be0079c531659141344cd1fd0a4f28419497f9722a3daafe3b4186f6b6457e060405160405180910390a35050565b6128c9610a69565b15612909576040517f08c379a000000000000000000000000000000000000000000000000000000000815260040161290090613109565b60405180910390fd5b6001600060146101000a81548160ff0219169083151502179055507f62e78cea01bee320cd4e420270b5ea74000d11b0c9f74754ebdbfc544b05a25861294d6126fa565b60405161295a9190612dab565b60405180910390a1565b600081359050612973816136ac565b92915050565b600081519050612988816136c3565b92915050565b60008135905061299d816136da565b92915050565b6000813590506129b2816136f1565b92915050565b6000602082840312156129ce576129cd613472565b5b60006129dc84828501612964565b91505092915050565b600080604083850312156129fc576129fb613472565b5b6000612a0a85828601612964565b9250506020612a1b858286016129a3565b9150509250929050565b600080600060608486031215612a3e57612a3d613472565b5b6000612a4c86828701612964565b9350506020612a5d868287016129a3565b9250506040612a6e8682870161298e565b9150509250925092565b600060208284031215612a8e57612a8d613472565b5b6000612a9c84828501612979565b91505092915050565b600060208284031215612abb57612aba613472565b5b6000612ac98482850161298e565b91505092915050565b600080600060608486031215612aeb57612aea613472565b5b6000612af98682870161298e565b9350506020612b0a8682870161298e565b9250506040612b1b8682870161298e565b9150509250925092565b60008060008060008060c08789031215612b4257612b41613472565b5b6000612b5089828a0161298e565b9650506020612b6189828a0161298e565b9550506040612b7289828a0161298e565b9450506060612b8389828a0161298e565b9350506080612b9489828a0161298e565b92505060a0612ba589828a0161298e565b9150509295509295509295565b612bbb81613341565b82525050565b612bca81613353565b82525050565b612bd981613396565b82525050565b612be8816133a8565b82525050565b612bf7816133ba565b82525050565b612c06816133cc565b82525050565b612c15816133de565b82525050565b6000612c2860148361321b565b9150612c3382613477565b602082019050919050565b6000612c4b60268361321b565b9150612c56826134a0565b604082019050919050565b6000612c6e601e8361321b565b9150612c79826134ef565b602082019050919050565b6000612c9160228361321b565b9150612c9c82613518565b604082019050919050565b6000612cb460168361321b565b9150612cbf82613567565b602082019050919050565b6000612cd760108361321b565b9150612ce282613590565b602082019050919050565b6000612cfa60168361321b565b9150612d05826135b9565b602082019050919050565b6000612d1d60328361321b565b9150612d28826135e2565b604082019050919050565b6000612d4060208361321b565b9150612d4b82613631565b602082019050919050565b6000612d63600f8361321b565b9150612d6e8261365a565b602082019050919050565b6000612d86601f8361321b565b9150612d9182613683565b602082019050919050565b612da58161337f565b82525050565b6000602082019050612dc06000830184612bb2565b92915050565b6000606082019050612ddb6000830186612bb2565b612de86020830185612bb2565b612df56040830184612d9c565b949350505050565b600060a082019050612e126000830188612bb2565b612e1f6020830187612bee565b612e2c6040830186612bc1565b612e396060830185612d9c565b612e466080830184612d9c565b9695505050505050565b600060a082019050612e656000830188612bb2565b612e726020830187612bee565b612e7f6040830186612d9c565b612e8c6060830185612d9c565b612e996080830184612d9c565b9695505050505050565b600060a082019050612eb86000830188612bb2565b612ec56020830187612bfd565b612ed26040830186612bc1565b612edf6060830185612d9c565b612eec6080830184612d9c565b9695505050505050565b600060a082019050612f0b6000830188612bb2565b612f186020830187612bfd565b612f256040830186612d9c565b612f326060830185612d9c565b612f3f6080830184612d9c565b9695505050505050565b600060a082019050612f5e6000830188612bb2565b612f6b6020830187612c0c565b612f786040830186612bc1565b612f856060830185612d9c565b612f926080830184612d9c565b9695505050505050565b600060a082019050612fb16000830188612bb2565b612fbe6020830187612c0c565b612fcb6040830186612d9c565b612fd86060830185612d9c565b612fe56080830184612d9c565b9695505050505050565b60006040820190506130046000830185612bb2565b6130116020830184612d9c565b9392505050565b600060208201905061302d6000830184612bc1565b92915050565b60006020820190506130486000830184612bd0565b92915050565b60006020820190506130636000830184612bdf565b92915050565b6000602082019050818103600083015261308281612c1b565b9050919050565b600060208201905081810360008301526130a281612c3e565b9050919050565b600060208201905081810360008301526130c281612c61565b9050919050565b600060208201905081810360008301526130e281612c84565b9050919050565b6000602082019050818103600083015261310281612ca7565b9050919050565b6000602082019050818103600083015261312281612cca565b9050919050565b6000602082019050818103600083015261314281612ced565b9050919050565b6000602082019050818103600083015261316281612d10565b9050919050565b6000602082019050818103600083015261318281612d33565b9050919050565b600060208201905081810360008301526131a281612d56565b9050919050565b600060208201905081810360008301526131c281612d79565b9050919050565b60006020820190506131de6000830184612d9c565b92915050565b60006060820190506131f96000830186612d9c565b6132066020830185612d9c565b6132136040830184612d9c565b949350505050565b600082825260208201905092915050565b60006132378261337f565b91506132428361337f565b9250827fffffffffffffffffffffffffffffffffffffffffffffffffffffffffffffffff0382111561327757613276613414565b5b828201905092915050565b600061328d8261337f565b91506132988361337f565b9250826132a8576132a7613443565b5b828204905092915050565b60006132be8261337f565b91506132c98361337f565b9250817fffffffffffffffffffffffffffffffffffffffffffffffffffffffffffffffff048311821515161561330257613301613414565b5b828202905092915050565b60006133188261337f565b91506133238361337f565b92508282101561333657613335613414565b5b828203905092915050565b600061334c8261335f565b9050919050565b60008115159050919050565b600073ffffffffffffffffffffffffffffffffffffffff82169050919050565b6000819050919050565b600060ff82169050919050565b60006133a1826133f0565b9050919050565b60006133b3826133f0565b9050919050565b60006133c582613389565b9050919050565b60006133d782613389565b9050919050565b60006133e982613389565b9050919050565b60006133fb82613402565b9050919050565b600061340d8261335f565b9050919050565b7f4e487b7100000000000000000000000000000000000000000000000000000000600052601160045260246000fd5b7f4e487b7100000000000000000000000000000000000000000000000000000000600052601260045260246000fd5b600080fd5b7f5061757361626c653a206e6f7420706175736564000000000000000000000000600082015250565b7f4f776e61626c653a206e6577206f776e657220697320746865207a65726f206160008201527f6464726573730000000000000000000000000000000000000000000000000000602082015250565b7f4e6f7420656e6f7567682062616c616e636520746f2077697468647261770000600082015250565b7f596f7527726520616c726561647920696e2074686973205374616b65206c657660008201527f656c000000000000000000000000000000000000000000000000000000000000602082015250565b7f55736572206973206e6f74206f6e204c6576656c203100000000000000000000600082015250565b7f5061757361626c653a2070617573656400000000000000000000000000000000600082015250565b7f55736572206973206e6f74206f6e204c6576656c203000000000000000000000600082015250565b7f416d6f756e74206e6565647320746f206265206d6f7265207468616e206d696e60008201527f20616e64206c657373207468616e206d61780000000000000000000000000000602082015250565b7f4f776e61626c653a2063616c6c6572206973206e6f7420746865206f776e6572600082015250565b7f55736572206973206e6f74205669700000000000000000000000000000000000600082015250565b7f596f7527726520616c726561647920696e2074686520566970205374616b6500600082015250565b6136b581613341565b81146136c057600080fd5b50565b6136cc81613353565b81146136d757600080fd5b50565b6136e38161337f565b81146136ee57600080fd5b50565b6136fa81613389565b811461370557600080fd5b5056fea26469706673582212209e27b99147536944b9c30b3b672e3a920bcf16cc520dc50bd3a758dfebdc777964736f6c63430008070033",
					"opcodes": "PUSH1 0xA0 PUSH1 0x40 MSTORE PUSH2 0xA8C PUSH1 0x2 SSTORE PUSH2 0xE74 PUSH1 0x3 SSTORE PUSH2 0x12C0 PUSH1 0x4 SSTORE PUSH9 0x2B5E3AF16B1880000 PUSH1 0x5 SSTORE PUSH12 0x19D971E4FE8401E74000000 PUSH1 0x6 SSTORE PUSH9 0x56BC75E2D63100000 PUSH1 0x7 SSTORE PUSH12 0x19D971E4FE8401E74000000 PUSH1 0x8 SSTORE PUSH9 0xAD78EBC5AC6200000 PUSH1 0x9 SSTORE PUSH12 0x813F3978F89409844000000 PUSH1 0xA SSTORE CALLVALUE DUP1 ISZERO PUSH3 0x7A JUMPI PUSH1 0x0 DUP1 REVERT JUMPDEST POP PUSH1 0x40 MLOAD PUSH3 0x3A8F CODESIZE SUB DUP1 PUSH3 0x3A8F DUP4 CODECOPY DUP2 DUP2 ADD PUSH1 0x40 MSTORE DUP2 ADD SWAP1 PUSH3 0xA0 SWAP2 SWAP1 PUSH3 0x298 JUMP JUMPDEST PUSH3 0xC0 PUSH3 0xB4 PUSH3 0x1B5 PUSH1 0x20 SHL PUSH1 0x20 SHR JUMP JUMPDEST PUSH3 0x1BD PUSH1 0x20 SHL PUSH1 0x20 SHR JUMP JUMPDEST PUSH1 0x0 DUP1 PUSH1 0x14 PUSH2 0x100 EXP DUP2 SLOAD DUP2 PUSH1 0xFF MUL NOT AND SWAP1 DUP4 ISZERO ISZERO MUL OR SWAP1 SSTORE POP DUP2 PUSH1 0x1 PUSH1 0x0 PUSH2 0x100 EXP DUP2 SLOAD DUP2 PUSH20 0xFFFFFFFFFFFFFFFFFFFFFFFFFFFFFFFFFFFFFFFF MUL NOT AND SWAP1 DUP4 PUSH20 0xFFFFFFFFFFFFFFFFFFFFFFFFFFFFFFFFFFFFFFFF AND MUL OR SWAP1 SSTORE POP DUP1 PUSH1 0xB PUSH1 0x0 PUSH2 0x100 EXP DUP2 SLOAD DUP2 PUSH20 0xFFFFFFFFFFFFFFFFFFFFFFFFFFFFFFFFFFFFFFFF MUL NOT AND SWAP1 DUP4 PUSH20 0xFFFFFFFFFFFFFFFFFFFFFFFFFFFFFFFFFFFFFFFF AND MUL OR SWAP1 SSTORE POP PUSH1 0x0 PUSH20 0x9AC64CC6E4415144C455BD8E4837FEA55603E5C3 SWAP1 POP DUP1 PUSH20 0xFFFFFFFFFFFFFFFFFFFFFFFFFFFFFFFFFFFFFFFF AND PUSH1 0x80 DUP2 PUSH20 0xFFFFFFFFFFFFFFFFFFFFFFFFFFFFFFFFFFFFFFFF AND PUSH1 0x60 SHL DUP2 MSTORE POP POP POP POP POP PUSH3 0x332 JUMP JUMPDEST PUSH1 0x0 CALLER SWAP1 POP SWAP1 JUMP JUMPDEST PUSH1 0x0 DUP1 PUSH1 0x0 SWAP1 SLOAD SWAP1 PUSH2 0x100 EXP SWAP1 DIV PUSH20 0xFFFFFFFFFFFFFFFFFFFFFFFFFFFFFFFFFFFFFFFF AND SWAP1 POP DUP2 PUSH1 0x0 DUP1 PUSH2 0x100 EXP DUP2 SLOAD DUP2 PUSH20 0xFFFFFFFFFFFFFFFFFFFFFFFFFFFFFFFFFFFFFFFF MUL NOT AND SWAP1 DUP4 PUSH20 0xFFFFFFFFFFFFFFFFFFFFFFFFFFFFFFFFFFFFFFFF AND MUL OR SWAP1 SSTORE POP DUP2 PUSH20 0xFFFFFFFFFFFFFFFFFFFFFFFFFFFFFFFFFFFFFFFF AND DUP2 PUSH20 0xFFFFFFFFFFFFFFFFFFFFFFFFFFFFFFFFFFFFFFFF AND PUSH32 0x8BE0079C531659141344CD1FD0A4F28419497F9722A3DAAFE3B4186F6B6457E0 PUSH1 0x40 MLOAD PUSH1 0x40 MLOAD DUP1 SWAP2 SUB SWAP1 LOG3 POP POP JUMP JUMPDEST PUSH1 0x0 DUP2 MLOAD SWAP1 POP PUSH3 0x292 DUP2 PUSH3 0x318 JUMP JUMPDEST SWAP3 SWAP2 POP POP JUMP JUMPDEST PUSH1 0x0 DUP1 PUSH1 0x40 DUP4 DUP6 SUB SLT ISZERO PUSH3 0x2B2 JUMPI PUSH3 0x2B1 PUSH3 0x313 JUMP JUMPDEST JUMPDEST PUSH1 0x0 PUSH3 0x2C2 DUP6 DUP3 DUP7 ADD PUSH3 0x281 JUMP JUMPDEST SWAP3 POP POP PUSH1 0x20 PUSH3 0x2D5 DUP6 DUP3 DUP7 ADD PUSH3 0x281 JUMP JUMPDEST SWAP2 POP POP SWAP3 POP SWAP3 SWAP1 POP JUMP JUMPDEST PUSH1 0x0 PUSH3 0x2EC DUP3 PUSH3 0x2F3 JUMP JUMPDEST SWAP1 POP SWAP2 SWAP1 POP JUMP JUMPDEST PUSH1 0x0 PUSH20 0xFFFFFFFFFFFFFFFFFFFFFFFFFFFFFFFFFFFFFFFF DUP3 AND SWAP1 POP SWAP2 SWAP1 POP JUMP JUMPDEST PUSH1 0x0 DUP1 REVERT JUMPDEST PUSH3 0x323 DUP2 PUSH3 0x2DF JUMP JUMPDEST DUP2 EQ PUSH3 0x32F JUMPI PUSH1 0x0 DUP1 REVERT JUMPDEST POP JUMP JUMPDEST PUSH1 0x80 MLOAD PUSH1 0x60 SHR PUSH2 0x373E PUSH3 0x351 PUSH1 0x0 CODECOPY PUSH1 0x0 PUSH2 0x67E ADD MSTORE PUSH2 0x373E PUSH1 0x0 RETURN INVALID PUSH1 0x80 PUSH1 0x40 MSTORE CALLVALUE DUP1 ISZERO PUSH2 0x10 JUMPI PUSH1 0x0 DUP1 REVERT JUMPDEST POP PUSH1 0x4 CALLDATASIZE LT PUSH2 0x211 JUMPI PUSH1 0x0 CALLDATALOAD PUSH1 0xE0 SHR DUP1 PUSH4 0x8275B181 GT PUSH2 0x125 JUMPI DUP1 PUSH4 0xBF01651A GT PUSH2 0xAD JUMPI DUP1 PUSH4 0xE5D15701 GT PUSH2 0x7C JUMPI DUP1 PUSH4 0xE5D15701 EQ PUSH2 0x5D6 JUMPI DUP1 PUSH4 0xF2FDE38B EQ PUSH2 0x5F2 JUMPI DUP1 PUSH4 0xF4217E1E EQ PUSH2 0x60E JUMPI DUP1 PUSH4 0xF7EDF9AB EQ PUSH2 0x62A JUMPI DUP1 PUSH4 0xFE2981B5 EQ PUSH2 0x65A JUMPI PUSH2 0x211 JUMP JUMPDEST DUP1 PUSH4 0xBF01651A EQ PUSH2 0x562 JUMPI DUP1 PUSH4 0xD3900A52 EQ PUSH2 0x57E JUMPI DUP1 PUSH4 0xD72B11BD EQ PUSH2 0x59C JUMPI DUP1 PUSH4 0xDDA4FA8F EQ PUSH2 0x5BA JUMPI PUSH2 0x211 JUMP JUMPDEST DUP1 PUSH4 0x8F0FB2B7 GT PUSH2 0xF4 JUMPI DUP1 PUSH4 0x8F0FB2B7 EQ PUSH2 0x4BC JUMPI DUP1 PUSH4 0x91789CEF EQ PUSH2 0x4DA JUMPI DUP1 PUSH4 0x927E5998 EQ PUSH2 0x4F8 JUMPI DUP1 PUSH4 0x97E9C5FE EQ PUSH2 0x514 JUMPI DUP1 PUSH4 0xBB664864 EQ PUSH2 0x546 JUMPI PUSH2 0x211 JUMP JUMPDEST DUP1 PUSH4 0x8275B181 EQ PUSH2 0x446 JUMPI DUP1 PUSH4 0x84203F4B EQ PUSH2 0x464 JUMPI DUP1 PUSH4 0x8456CB59 EQ PUSH2 0x494 JUMPI DUP1 PUSH4 0x8DA5CB5B EQ PUSH2 0x49E JUMPI PUSH2 0x211 JUMP JUMPDEST DUP1 PUSH4 0x6296E750 GT PUSH2 0x1A8 JUMPI DUP1 PUSH4 0x67911BA4 GT PUSH2 0x177 JUMPI DUP1 PUSH4 0x67911BA4 EQ PUSH2 0x38A JUMPI DUP1 PUSH4 0x69E06848 EQ PUSH2 0x3BC JUMPI DUP1 PUSH4 0x715018A6 EQ PUSH2 0x3EC JUMPI DUP1 PUSH4 0x71A1609B EQ PUSH2 0x3F6 JUMPI DUP1 PUSH4 0x7FE509D7 EQ PUSH2 0x414 JUMPI PUSH2 0x211 JUMP JUMPDEST DUP1 PUSH4 0x6296E750 EQ PUSH2 0x2F0 JUMPI DUP1 PUSH4 0x635EF285 EQ PUSH2 0x320 JUMPI DUP1 PUSH4 0x6505CF31 EQ PUSH2 0x350 JUMPI DUP1 PUSH4 0x6636389E EQ PUSH2 0x36E JUMPI PUSH2 0x211 JUMP JUMPDEST DUP1 PUSH4 0x32938E3A GT PUSH2 0x1E4 JUMPI DUP1 PUSH4 0x32938E3A EQ PUSH2 0x28C JUMPI DUP1 PUSH4 0x3F4BA83A EQ PUSH2 0x2AA JUMPI DUP1 PUSH4 0x451C3D80 EQ PUSH2 0x2B4 JUMPI DUP1 PUSH4 0x5C975ABB EQ PUSH2 0x2D2 JUMPI PUSH2 0x211 JUMP JUMPDEST DUP1 PUSH4 0x1EF4739 EQ PUSH2 0x216 JUMPI DUP1 PUSH4 0x1694505E EQ PUSH2 0x234 JUMPI DUP1 PUSH4 0x1ED81FF8 EQ PUSH2 0x252 JUMPI DUP1 PUSH4 0x1FF08FEE EQ PUSH2 0x26E JUMPI JUMPDEST PUSH1 0x0 DUP1 REVERT JUMPDEST PUSH2 0x21E PUSH2 0x676 JUMP JUMPDEST PUSH1 0x40 MLOAD PUSH2 0x22B SWAP2 SWAP1 PUSH2 0x31C9 JUMP JUMPDEST PUSH1 0x40 MLOAD DUP1 SWAP2 SUB SWAP1 RETURN JUMPDEST PUSH2 0x23C PUSH2 0x67C JUMP JUMPDEST PUSH1 0x40 MLOAD PUSH2 0x249 SWAP2 SWAP1 PUSH2 0x3033 JUMP JUMPDEST PUSH1 0x40 MLOAD DUP1 SWAP2 SUB SWAP1 RETURN JUMPDEST PUSH2 0x26C PUSH1 0x4 DUP1 CALLDATASIZE SUB DUP2 ADD SWAP1 PUSH2 0x267 SWAP2 SWAP1 PUSH2 0x2AA5 JUMP JUMPDEST PUSH2 0x6A0 JUMP JUMPDEST STOP JUMPDEST PUSH2 0x276 PUSH2 0x9B1 JUMP JUMPDEST PUSH1 0x40 MLOAD PUSH2 0x283 SWAP2 SWAP1 PUSH2 0x31C9 JUMP JUMPDEST PUSH1 0x40 MLOAD DUP1 SWAP2 SUB SWAP1 RETURN JUMPDEST PUSH2 0x294 PUSH2 0x9B7 JUMP JUMPDEST PUSH1 0x40 MLOAD PUSH2 0x2A1 SWAP2 SWAP1 PUSH2 0x31C9 JUMP JUMPDEST PUSH1 0x40 MLOAD DUP1 SWAP2 SUB SWAP1 RETURN JUMPDEST PUSH2 0x2B2 PUSH2 0x9BD JUMP JUMPDEST STOP JUMPDEST PUSH2 0x2BC PUSH2 0xA43 JUMP JUMPDEST PUSH1 0x40 MLOAD PUSH2 0x2C9 SWAP2 SWAP1 PUSH2 0x304E JUMP JUMPDEST PUSH1 0x40 MLOAD DUP1 SWAP2 SUB SWAP1 RETURN JUMPDEST PUSH2 0x2DA PUSH2 0xA69 JUMP JUMPDEST PUSH1 0x40 MLOAD PUSH2 0x2E7 SWAP2 SWAP1 PUSH2 0x3018 JUMP JUMPDEST PUSH1 0x40 MLOAD DUP1 SWAP2 SUB SWAP1 RETURN JUMPDEST PUSH2 0x30A PUSH1 0x4 DUP1 CALLDATASIZE SUB DUP2 ADD SWAP1 PUSH2 0x305 SWAP2 SWAP1 PUSH2 0x29B8 JUMP JUMPDEST PUSH2 0xA7F JUMP JUMPDEST PUSH1 0x40 MLOAD PUSH2 0x317 SWAP2 SWAP1 PUSH2 0x3018 JUMP JUMPDEST PUSH1 0x40 MLOAD DUP1 SWAP2 SUB SWAP1 RETURN JUMPDEST PUSH2 0x33A PUSH1 0x4 DUP1 CALLDATASIZE SUB DUP2 ADD SWAP1 PUSH2 0x335 SWAP2 SWAP1 PUSH2 0x29B8 JUMP JUMPDEST PUSH2 0xA9F JUMP JUMPDEST PUSH1 0x40 MLOAD PUSH2 0x347 SWAP2 SWAP1 PUSH2 0x3018 JUMP JUMPDEST PUSH1 0x40 MLOAD DUP1 SWAP2 SUB SWAP1 RETURN JUMPDEST PUSH2 0x358 PUSH2 0xABF JUMP JUMPDEST PUSH1 0x40 MLOAD PUSH2 0x365 SWAP2 SWAP1 PUSH2 0x31C9 JUMP JUMPDEST PUSH1 0x40 MLOAD DUP1 SWAP2 SUB SWAP1 RETURN JUMPDEST PUSH2 0x388 PUSH1 0x4 DUP1 CALLDATASIZE SUB DUP2 ADD SWAP1 PUSH2 0x383 SWAP2 SWAP1 PUSH2 0x2AA5 JUMP JUMPDEST PUSH2 0xAC5 JUMP JUMPDEST STOP JUMPDEST PUSH2 0x3A4 PUSH1 0x4 DUP1 CALLDATASIZE SUB DUP2 ADD SWAP1 PUSH2 0x39F SWAP2 SWAP1 PUSH2 0x29B8 JUMP JUMPDEST PUSH2 0xFA3 JUMP JUMPDEST PUSH1 0x40 MLOAD PUSH2 0x3B3 SWAP4 SWAP3 SWAP2 SWAP1 PUSH2 0x31E4 JUMP JUMPDEST PUSH1 0x40 MLOAD DUP1 SWAP2 SUB SWAP1 RETURN JUMPDEST PUSH2 0x3D6 PUSH1 0x4 DUP1 CALLDATASIZE SUB DUP2 ADD SWAP1 PUSH2 0x3D1 SWAP2 SWAP1 PUSH2 0x2A25 JUMP JUMPDEST PUSH2 0xFCD JUMP JUMPDEST PUSH1 0x40 MLOAD PUSH2 0x3E3 SWAP2 SWAP1 PUSH2 0x31C9 JUMP JUMPDEST PUSH1 0x40 MLOAD DUP1 SWAP2 SUB SWAP1 RETURN JUMPDEST PUSH2 0x3F4 PUSH2 0x1112 JUMP JUMPDEST STOP JUMPDEST PUSH2 0x3FE PUSH2 0x119A JUMP JUMPDEST PUSH1 0x40 MLOAD PUSH2 0x40B SWAP2 SWAP1 PUSH2 0x31C9 JUMP JUMPDEST PUSH1 0x40 MLOAD DUP1 SWAP2 SUB SWAP1 RETURN JUMPDEST PUSH2 0x42E PUSH1 0x4 DUP1 CALLDATASIZE SUB DUP2 ADD SWAP1 PUSH2 0x429 SWAP2 SWAP1 PUSH2 0x29B8 JUMP JUMPDEST PUSH2 0x11A0 JUMP JUMPDEST PUSH1 0x40 MLOAD PUSH2 0x43D SWAP4 SWAP3 SWAP2 SWAP1 PUSH2 0x31E4 JUMP JUMPDEST PUSH1 0x40 MLOAD DUP1 SWAP2 SUB SWAP1 RETURN JUMPDEST PUSH2 0x44E PUSH2 0x11CA JUMP JUMPDEST PUSH1 0x40 MLOAD PUSH2 0x45B SWAP2 SWAP1 PUSH2 0x31C9 JUMP JUMPDEST PUSH1 0x40 MLOAD DUP1 SWAP2 SUB SWAP1 RETURN JUMPDEST PUSH2 0x47E PUSH1 0x4 DUP1 CALLDATASIZE SUB DUP2 ADD SWAP1 PUSH2 0x479 SWAP2 SWAP1 PUSH2 0x29B8 JUMP JUMPDEST PUSH2 0x11D0 JUMP JUMPDEST PUSH1 0x40 MLOAD PUSH2 0x48B SWAP2 SWAP1 PUSH2 0x3018 JUMP JUMPDEST PUSH1 0x40 MLOAD DUP1 SWAP2 SUB SWAP1 RETURN JUMPDEST PUSH2 0x49C PUSH2 0x11F0 JUMP JUMPDEST STOP JUMPDEST PUSH2 0x4A6 PUSH2 0x1276 JUMP JUMPDEST PUSH1 0x40 MLOAD PUSH2 0x4B3 SWAP2 SWAP1 PUSH2 0x2DAB JUMP JUMPDEST PUSH1 0x40 MLOAD DUP1 SWAP2 SUB SWAP1 RETURN JUMPDEST PUSH2 0x4C4 PUSH2 0x129F JUMP JUMPDEST PUSH1 0x40 MLOAD PUSH2 0x4D1 SWAP2 SWAP1 PUSH2 0x31C9 JUMP JUMPDEST PUSH1 0x40 MLOAD DUP1 SWAP2 SUB SWAP1 RETURN JUMPDEST PUSH2 0x4E2 PUSH2 0x12A5 JUMP JUMPDEST PUSH1 0x40 MLOAD PUSH2 0x4EF SWAP2 SWAP1 PUSH2 0x31C9 JUMP JUMPDEST PUSH1 0x40 MLOAD DUP1 SWAP2 SUB SWAP1 RETURN JUMPDEST PUSH2 0x512 PUSH1 0x4 DUP1 CALLDATASIZE SUB DUP2 ADD SWAP1 PUSH2 0x50D SWAP2 SWAP1 PUSH2 0x2AA5 JUMP JUMPDEST PUSH2 0x12AB JUMP JUMPDEST STOP JUMPDEST PUSH2 0x52E PUSH1 0x4 DUP1 CALLDATASIZE SUB DUP2 ADD SWAP1 PUSH2 0x529 SWAP2 SWAP1 PUSH2 0x29B8 JUMP JUMPDEST PUSH2 0x1789 JUMP JUMPDEST PUSH1 0x40 MLOAD PUSH2 0x53D SWAP4 SWAP3 SWAP2 SWAP1 PUSH2 0x31E4 JUMP JUMPDEST PUSH1 0x40 MLOAD DUP1 SWAP2 SUB SWAP1 RETURN JUMPDEST PUSH2 0x560 PUSH1 0x4 DUP1 CALLDATASIZE SUB DUP2 ADD SWAP1 PUSH2 0x55B SWAP2 SWAP1 PUSH2 0x2AA5 JUMP JUMPDEST PUSH2 0x17B3 JUMP JUMPDEST STOP JUMPDEST PUSH2 0x57C PUSH1 0x4 DUP1 CALLDATASIZE SUB DUP2 ADD SWAP1 PUSH2 0x577 SWAP2 SWAP1 PUSH2 0x2AA5 JUMP JUMPDEST PUSH2 0x1C91 JUMP JUMPDEST STOP JUMPDEST PUSH2 0x586 PUSH2 0x1FA2 JUMP JUMPDEST PUSH1 0x40 MLOAD PUSH2 0x593 SWAP2 SWAP1 PUSH2 0x31C9 JUMP JUMPDEST PUSH1 0x40 MLOAD DUP1 SWAP2 SUB SWAP1 RETURN JUMPDEST PUSH2 0x5A4 PUSH2 0x1FA8 JUMP JUMPDEST PUSH1 0x40 MLOAD PUSH2 0x5B1 SWAP2 SWAP1 PUSH2 0x2DAB JUMP JUMPDEST PUSH1 0x40 MLOAD DUP1 SWAP2 SUB SWAP1 RETURN JUMPDEST PUSH2 0x5D4 PUSH1 0x4 DUP1 CALLDATASIZE SUB DUP2 ADD SWAP1 PUSH2 0x5CF SWAP2 SWAP1 PUSH2 0x29B8 JUMP JUMPDEST PUSH2 0x1FCE JUMP JUMPDEST STOP JUMPDEST PUSH2 0x5F0 PUSH1 0x4 DUP1 CALLDATASIZE SUB DUP2 ADD SWAP1 PUSH2 0x5EB SWAP2 SWAP1 PUSH2 0x2AD2 JUMP JUMPDEST PUSH2 0x208E JUMP JUMPDEST STOP JUMPDEST PUSH2 0x60C PUSH1 0x4 DUP1 CALLDATASIZE SUB DUP2 ADD SWAP1 PUSH2 0x607 SWAP2 SWAP1 PUSH2 0x29B8 JUMP JUMPDEST PUSH2 0x2124 JUMP JUMPDEST STOP JUMPDEST PUSH2 0x628 PUSH1 0x4 DUP1 CALLDATASIZE SUB DUP2 ADD SWAP1 PUSH2 0x623 SWAP2 SWAP1 PUSH2 0x2B25 JUMP JUMPDEST PUSH2 0x221C JUMP JUMPDEST STOP JUMPDEST PUSH2 0x644 PUSH1 0x4 DUP1 CALLDATASIZE SUB DUP2 ADD SWAP1 PUSH2 0x63F SWAP2 SWAP1 PUSH2 0x29E5 JUMP JUMPDEST PUSH2 0x22CA JUMP JUMPDEST PUSH1 0x40 MLOAD PUSH2 0x651 SWAP2 SWAP1 PUSH2 0x3018 JUMP JUMPDEST PUSH1 0x40 MLOAD DUP1 SWAP2 SUB SWAP1 RETURN JUMPDEST PUSH2 0x674 PUSH1 0x4 DUP1 CALLDATASIZE SUB DUP2 ADD SWAP1 PUSH2 0x66F SWAP2 SWAP1 PUSH2 0x2AA5 JUMP JUMPDEST PUSH2 0x23E9 JUMP JUMPDEST STOP JUMPDEST PUSH1 0x7 SLOAD DUP2 JUMP JUMPDEST PUSH32 0x0 DUP2 JUMP JUMPDEST PUSH2 0x6A8 PUSH2 0xA69 JUMP JUMPDEST ISZERO PUSH2 0x6E8 JUMPI PUSH1 0x40 MLOAD PUSH32 0x8C379A000000000000000000000000000000000000000000000000000000000 DUP2 MSTORE PUSH1 0x4 ADD PUSH2 0x6DF SWAP1 PUSH2 0x3109 JUMP JUMPDEST PUSH1 0x40 MLOAD DUP1 SWAP2 SUB SWAP1 REVERT JUMPDEST PUSH1 0x8 SLOAD DUP2 GT ISZERO DUP1 ISZERO PUSH2 0x6FC JUMPI POP PUSH1 0x7 SLOAD DUP2 LT ISZERO JUMPDEST PUSH2 0x73B JUMPI PUSH1 0x40 MLOAD PUSH32 0x8C379A000000000000000000000000000000000000000000000000000000000 DUP2 MSTORE PUSH1 0x4 ADD PUSH2 0x732 SWAP1 PUSH2 0x3149 JUMP JUMPDEST PUSH1 0x40 MLOAD DUP1 SWAP2 SUB SWAP1 REVERT JUMPDEST PUSH1 0x0 CALLER SWAP1 POP PUSH1 0xE PUSH1 0x0 DUP3 PUSH20 0xFFFFFFFFFFFFFFFFFFFFFFFFFFFFFFFFFFFFFFFF AND PUSH20 0xFFFFFFFFFFFFFFFFFFFFFFFFFFFFFFFFFFFFFFFF AND DUP2 MSTORE PUSH1 0x20 ADD SWAP1 DUP2 MSTORE PUSH1 0x20 ADD PUSH1 0x0 KECCAK256 PUSH1 0x0 SWAP1 SLOAD SWAP1 PUSH2 0x100 EXP SWAP1 DIV PUSH1 0xFF AND ISZERO PUSH2 0x7CD JUMPI PUSH1 0x40 MLOAD PUSH32 0x8C379A000000000000000000000000000000000000000000000000000000000 DUP2 MSTORE PUSH1 0x4 ADD PUSH2 0x7C4 SWAP1 PUSH2 0x30C9 JUMP JUMPDEST PUSH1 0x40 MLOAD DUP1 SWAP2 SUB SWAP1 REVERT JUMPDEST PUSH1 0x1 PUSH1 0x0 SWAP1 SLOAD SWAP1 PUSH2 0x100 EXP SWAP1 DIV PUSH20 0xFFFFFFFFFFFFFFFFFFFFFFFFFFFFFFFFFFFFFFFF AND PUSH20 0xFFFFFFFFFFFFFFFFFFFFFFFFFFFFFFFFFFFFFFFF AND PUSH4 0x23B872DD DUP3 ADDRESS DUP6 PUSH1 0x40 MLOAD DUP5 PUSH4 0xFFFFFFFF AND PUSH1 0xE0 SHL DUP2 MSTORE PUSH1 0x4 ADD PUSH2 0x82C SWAP4 SWAP3 SWAP2 SWAP1 PUSH2 0x2DC6 JUMP JUMPDEST PUSH1 0x20 PUSH1 0x40 MLOAD DUP1 DUP4 SUB DUP2 PUSH1 0x0 DUP8 DUP1 EXTCODESIZE ISZERO DUP1 ISZERO PUSH2 0x846 JUMPI PUSH1 0x0 DUP1 REVERT JUMPDEST POP GAS CALL ISZERO DUP1 ISZERO PUSH2 0x85A JUMPI RETURNDATASIZE PUSH1 0x0 DUP1 RETURNDATACOPY RETURNDATASIZE PUSH1 0x0 REVERT JUMPDEST POP POP POP POP PUSH1 0x40 MLOAD RETURNDATASIZE PUSH1 0x1F NOT PUSH1 0x1F DUP3 ADD AND DUP3 ADD DUP1 PUSH1 0x40 MSTORE POP DUP2 ADD SWAP1 PUSH2 0x87E SWAP2 SWAP1 PUSH2 0x2A78 JUMP JUMPDEST POP PUSH1 0x1 PUSH1 0xE PUSH1 0x0 DUP4 PUSH20 0xFFFFFFFFFFFFFFFFFFFFFFFFFFFFFFFFFFFFFFFF AND PUSH20 0xFFFFFFFFFFFFFFFFFFFFFFFFFFFFFFFFFFFFFFFF AND DUP2 MSTORE PUSH1 0x20 ADD SWAP1 DUP2 MSTORE PUSH1 0x20 ADD PUSH1 0x0 KECCAK256 PUSH1 0x0 PUSH2 0x100 EXP DUP2 SLOAD DUP2 PUSH1 0xFF MUL NOT AND SWAP1 DUP4 ISZERO ISZERO MUL OR SWAP1 SSTORE POP PUSH1 0x40 MLOAD DUP1 PUSH1 0x60 ADD PUSH1 0x40 MSTORE DUP1 DUP4 DUP2 MSTORE PUSH1 0x20 ADD TIMESTAMP DUP2 MSTORE PUSH1 0x20 ADD PUSH2 0x320 TIMESTAMP PUSH2 0x8FC SWAP2 SWAP1 PUSH2 0x322C JUMP JUMPDEST DUP2 MSTORE POP PUSH1 0xF PUSH1 0x0 DUP4 PUSH20 0xFFFFFFFFFFFFFFFFFFFFFFFFFFFFFFFFFFFFFFFF AND PUSH20 0xFFFFFFFFFFFFFFFFFFFFFFFFFFFFFFFFFFFFFFFF AND DUP2 MSTORE PUSH1 0x20 ADD SWAP1 DUP2 MSTORE PUSH1 0x20 ADD PUSH1 0x0 KECCAK256 PUSH1 0x0 DUP3 ADD MLOAD DUP2 PUSH1 0x0 ADD SSTORE PUSH1 0x20 DUP3 ADD MLOAD DUP2 PUSH1 0x1 ADD SSTORE PUSH1 0x40 DUP3 ADD MLOAD DUP2 PUSH1 0x2 ADD SSTORE SWAP1 POP POP PUSH32 0x17849BB8C713DE96B48F218D3BACC9AF082261C3CCC7C6DCCEBE70E667B22F23 DUP2 PUSH1 0x1 DUP5 TIMESTAMP PUSH3 0x278D00 TIMESTAMP PUSH2 0x994 SWAP2 SWAP1 PUSH2 0x322C JUMP JUMPDEST PUSH1 0x40 MLOAD PUSH2 0x9A5 SWAP6 SWAP5 SWAP4 SWAP3 SWAP2 SWAP1 PUSH2 0x2EF6 JUMP JUMPDEST PUSH1 0x40 MLOAD DUP1 SWAP2 SUB SWAP1 LOG1 POP POP JUMP JUMPDEST PUSH1 0x3 SLOAD DUP2 JUMP JUMPDEST PUSH1 0x4 SLOAD DUP2 JUMP JUMPDEST PUSH2 0x9C5 PUSH2 0x26FA JUMP JUMPDEST PUSH20 0xFFFFFFFFFFFFFFFFFFFFFFFFFFFFFFFFFFFFFFFF AND PUSH2 0x9E3 PUSH2 0x1276 JUMP JUMPDEST PUSH20 0xFFFFFFFFFFFFFFFFFFFFFFFFFFFFFFFFFFFFFFFF AND EQ PUSH2 0xA39 JUMPI PUSH1 0x40 MLOAD PUSH32 0x8C379A000000000000000000000000000000000000000000000000000000000 DUP2 MSTORE PUSH1 0x4 ADD PUSH2 0xA30 SWAP1 PUSH2 0x3169 JUMP JUMPDEST PUSH1 0x40 MLOAD DUP1 SWAP2 SUB SWAP1 REVERT JUMPDEST PUSH2 0xA41 PUSH2 0x2702 JUMP JUMPDEST JUMP JUMPDEST PUSH1 0x1 PUSH1 0x0 SWAP1 SLOAD SWAP1 PUSH2 0x100 EXP SWAP1 DIV PUSH20 0xFFFFFFFFFFFFFFFFFFFFFFFFFFFFFFFFFFFFFFFF AND DUP2 JUMP JUMPDEST PUSH1 0x0 DUP1 PUSH1 0x14 SWAP1 SLOAD SWAP1 PUSH2 0x100 EXP SWAP1 DIV PUSH1 0xFF AND SWAP1 POP SWAP1 JUMP JUMPDEST PUSH1 0xC PUSH1 0x20 MSTORE DUP1 PUSH1 0x0 MSTORE PUSH1 0x40 PUSH1 0x0 KECCAK256 PUSH1 0x0 SWAP2 POP SLOAD SWAP1 PUSH2 0x100 EXP SWAP1 DIV PUSH1 0xFF AND DUP2 JUMP JUMPDEST PUSH1 0xE PUSH1 0x20 MSTORE DUP1 PUSH1 0x0 MSTORE PUSH1 0x40 PUSH1 0x0 KECCAK256 PUSH1 0x0 SWAP2 POP SLOAD SWAP1 PUSH2 0x100 EXP SWAP1 DIV PUSH1 0xFF AND DUP2 JUMP JUMPDEST PUSH1 0x5 SLOAD DUP2 JUMP JUMPDEST PUSH1 0x0 CALLER SWAP1 POP PUSH1 0x10 PUSH1 0x0 DUP3 PUSH20 0xFFFFFFFFFFFFFFFFFFFFFFFFFFFFFFFFFFFFFFFF AND PUSH20 0xFFFFFFFFFFFFFFFFFFFFFFFFFFFFFFFFFFFFFFFF AND DUP2 MSTORE PUSH1 0x20 ADD SWAP1 DUP2 MSTORE PUSH1 0x20 ADD PUSH1 0x0 KECCAK256 PUSH1 0x0 SWAP1 SLOAD SWAP1 PUSH2 0x100 EXP SWAP1 DIV PUSH1 0xFF AND PUSH2 0xB56 JUMPI PUSH1 0x40 MLOAD PUSH32 0x8C379A000000000000000000000000000000000000000000000000000000000 DUP2 MSTORE PUSH1 0x4 ADD PUSH2 0xB4D SWAP1 PUSH2 0x3189 JUMP JUMPDEST PUSH1 0x40 MLOAD DUP1 SWAP2 SUB SWAP1 REVERT JUMPDEST PUSH1 0x0 PUSH1 0x11 PUSH1 0x0 DUP4 PUSH20 0xFFFFFFFFFFFFFFFFFFFFFFFFFFFFFFFFFFFFFFFF AND PUSH20 0xFFFFFFFFFFFFFFFFFFFFFFFFFFFFFFFFFFFFFFFF AND DUP2 MSTORE PUSH1 0x20 ADD SWAP1 DUP2 MSTORE PUSH1 0x20 ADD PUSH1 0x0 KECCAK256 PUSH1 0x0 ADD SLOAD SWAP1 POP DUP3 DUP2 LT ISZERO PUSH2 0xBE0 JUMPI PUSH1 0x40 MLOAD PUSH32 0x8C379A000000000000000000000000000000000000000000000000000000000 DUP2 MSTORE PUSH1 0x4 ADD PUSH2 0xBD7 SWAP1 PUSH2 0x30A9 JUMP JUMPDEST PUSH1 0x40 MLOAD DUP1 SWAP2 SUB SWAP1 REVERT JUMPDEST PUSH1 0x0 PUSH2 0xBED DUP4 PUSH1 0x2 PUSH2 0x22CA JUMP JUMPDEST SWAP1 POP PUSH1 0x0 PUSH2 0xBFD DUP5 PUSH1 0x2 DUP8 PUSH2 0xFCD JUMP JUMPDEST SWAP1 POP DUP3 DUP6 EQ ISZERO PUSH2 0xCBE JUMPI PUSH1 0x11 PUSH1 0x0 DUP6 PUSH20 0xFFFFFFFFFFFFFFFFFFFFFFFFFFFFFFFFFFFFFFFF AND PUSH20 0xFFFFFFFFFFFFFFFFFFFFFFFFFFFFFFFFFFFFFFFF AND DUP2 MSTORE PUSH1 0x20 ADD SWAP1 DUP2 MSTORE PUSH1 0x20 ADD PUSH1 0x0 KECCAK256 PUSH1 0x0 DUP1 DUP3 ADD PUSH1 0x0 SWAP1 SSTORE PUSH1 0x1 DUP3 ADD PUSH1 0x0 SWAP1 SSTORE PUSH1 0x2 DUP3 ADD PUSH1 0x0 SWAP1 SSTORE POP POP PUSH1 0x0 PUSH1 0x10 PUSH1 0x0 DUP7 PUSH20 0xFFFFFFFFFFFFFFFFFFFFFFFFFFFFFFFFFFFFFFFF AND PUSH20 0xFFFFFFFFFFFFFFFFFFFFFFFFFFFFFFFFFFFFFFFF AND DUP2 MSTORE PUSH1 0x20 ADD SWAP1 DUP2 MSTORE PUSH1 0x20 ADD PUSH1 0x0 KECCAK256 PUSH1 0x0 PUSH2 0x100 EXP DUP2 SLOAD DUP2 PUSH1 0xFF MUL NOT AND SWAP1 DUP4 ISZERO ISZERO MUL OR SWAP1 SSTORE POP PUSH2 0xD18 JUMP JUMPDEST DUP5 PUSH1 0x11 PUSH1 0x0 DUP7 PUSH20 0xFFFFFFFFFFFFFFFFFFFFFFFFFFFFFFFFFFFFFFFF AND PUSH20 0xFFFFFFFFFFFFFFFFFFFFFFFFFFFFFFFFFFFFFFFF AND DUP2 MSTORE PUSH1 0x20 ADD SWAP1 DUP2 MSTORE PUSH1 0x20 ADD PUSH1 0x0 KECCAK256 PUSH1 0x0 ADD PUSH1 0x0 DUP3 DUP3 SLOAD PUSH2 0xD10 SWAP2 SWAP1 PUSH2 0x330D JUMP JUMPDEST SWAP3 POP POP DUP2 SWAP1 SSTORE POP JUMPDEST DUP2 ISZERO PUSH2 0xEA7 JUMPI PUSH1 0x1 PUSH1 0x0 SWAP1 SLOAD SWAP1 PUSH2 0x100 EXP SWAP1 DIV PUSH20 0xFFFFFFFFFFFFFFFFFFFFFFFFFFFFFFFFFFFFFFFF AND PUSH20 0xFFFFFFFFFFFFFFFFFFFFFFFFFFFFFFFFFFFFFFFF AND PUSH4 0xA9059CBB DUP6 DUP8 PUSH1 0x40 MLOAD DUP4 PUSH4 0xFFFFFFFF AND PUSH1 0xE0 SHL DUP2 MSTORE PUSH1 0x4 ADD PUSH2 0xD7B SWAP3 SWAP2 SWAP1 PUSH2 0x2FEF JUMP JUMPDEST PUSH1 0x20 PUSH1 0x40 MLOAD DUP1 DUP4 SUB DUP2 PUSH1 0x0 DUP8 DUP1 EXTCODESIZE ISZERO DUP1 ISZERO PUSH2 0xD95 JUMPI PUSH1 0x0 DUP1 REVERT JUMPDEST POP GAS CALL ISZERO DUP1 ISZERO PUSH2 0xDA9 JUMPI RETURNDATASIZE PUSH1 0x0 DUP1 RETURNDATACOPY RETURNDATASIZE PUSH1 0x0 REVERT JUMPDEST POP POP POP POP PUSH1 0x40 MLOAD RETURNDATASIZE PUSH1 0x1F NOT PUSH1 0x1F DUP3 ADD AND DUP3 ADD DUP1 PUSH1 0x40 MSTORE POP DUP2 ADD SWAP1 PUSH2 0xDCD SWAP2 SWAP1 PUSH2 0x2A78 JUMP JUMPDEST POP PUSH1 0x1 PUSH1 0x0 SWAP1 SLOAD SWAP1 PUSH2 0x100 EXP SWAP1 DIV PUSH20 0xFFFFFFFFFFFFFFFFFFFFFFFFFFFFFFFFFFFFFFFF AND PUSH20 0xFFFFFFFFFFFFFFFFFFFFFFFFFFFFFFFFFFFFFFFF AND PUSH4 0x23B872DD PUSH1 0xB PUSH1 0x0 SWAP1 SLOAD SWAP1 PUSH2 0x100 EXP SWAP1 DIV PUSH20 0xFFFFFFFFFFFFFFFFFFFFFFFFFFFFFFFFFFFFFFFF AND DUP7 DUP5 PUSH1 0x40 MLOAD DUP5 PUSH4 0xFFFFFFFF AND PUSH1 0xE0 SHL DUP2 MSTORE PUSH1 0x4 ADD PUSH2 0xE4F SWAP4 SWAP3 SWAP2 SWAP1 PUSH2 0x2DC6 JUMP JUMPDEST PUSH1 0x20 PUSH1 0x40 MLOAD DUP1 DUP4 SUB DUP2 PUSH1 0x0 DUP8 DUP1 EXTCODESIZE ISZERO DUP1 ISZERO PUSH2 0xE69 JUMPI PUSH1 0x0 DUP1 REVERT JUMPDEST POP GAS CALL ISZERO DUP1 ISZERO PUSH2 0xE7D JUMPI RETURNDATASIZE PUSH1 0x0 DUP1 RETURNDATACOPY RETURNDATASIZE PUSH1 0x0 REVERT JUMPDEST POP POP POP POP PUSH1 0x40 MLOAD RETURNDATASIZE PUSH1 0x1F NOT PUSH1 0x1F DUP3 ADD AND DUP3 ADD DUP1 PUSH1 0x40 MSTORE POP DUP2 ADD SWAP1 PUSH2 0xEA1 SWAP2 SWAP1 PUSH2 0x2A78 JUMP JUMPDEST POP PUSH2 0xF5C JUMP JUMPDEST PUSH1 0x0 SWAP1 POP PUSH1 0x1 PUSH1 0x0 SWAP1 SLOAD SWAP1 PUSH2 0x100 EXP SWAP1 DIV PUSH20 0xFFFFFFFFFFFFFFFFFFFFFFFFFFFFFFFFFFFFFFFF AND PUSH20 0xFFFFFFFFFFFFFFFFFFFFFFFFFFFFFFFFFFFFFFFF AND PUSH4 0xA9059CBB DUP6 DUP8 PUSH1 0x40 MLOAD DUP4 PUSH4 0xFFFFFFFF AND PUSH1 0xE0 SHL DUP2 MSTORE PUSH1 0x4 ADD PUSH2 0xF08 SWAP3 SWAP2 SWAP1 PUSH2 0x2FEF JUMP JUMPDEST PUSH1 0x20 PUSH1 0x40 MLOAD DUP1 DUP4 SUB DUP2 PUSH1 0x0 DUP8 DUP1 EXTCODESIZE ISZERO DUP1 ISZERO PUSH2 0xF22 JUMPI PUSH1 0x0 DUP1 REVERT JUMPDEST POP GAS CALL ISZERO DUP1 ISZERO PUSH2 0xF36 JUMPI RETURNDATASIZE PUSH1 0x0 DUP1 RETURNDATACOPY RETURNDATASIZE PUSH1 0x0 REVERT JUMPDEST POP POP POP POP PUSH1 0x40 MLOAD RETURNDATASIZE PUSH1 0x1F NOT PUSH1 0x1F DUP3 ADD AND DUP3 ADD DUP1 PUSH1 0x40 MSTORE POP DUP2 ADD SWAP1 PUSH2 0xF5A SWAP2 SWAP1 PUSH2 0x2A78 JUMP JUMPDEST POP JUMPDEST PUSH32 0xA3DFF5863D601223D9B31A0253B97A6C2085DACA56089B92836B4B6A1991E04B DUP5 PUSH1 0x2 DUP5 DUP9 DUP6 PUSH1 0x40 MLOAD PUSH2 0xF94 SWAP6 SWAP5 SWAP4 SWAP3 SWAP2 SWAP1 PUSH2 0x2F49 JUMP JUMPDEST PUSH1 0x40 MLOAD DUP1 SWAP2 SUB SWAP1 LOG1 POP POP POP POP POP JUMP JUMPDEST PUSH1 0xD PUSH1 0x20 MSTORE DUP1 PUSH1 0x0 MSTORE PUSH1 0x40 PUSH1 0x0 KECCAK256 PUSH1 0x0 SWAP2 POP SWAP1 POP DUP1 PUSH1 0x0 ADD SLOAD SWAP1 DUP1 PUSH1 0x1 ADD SLOAD SWAP1 DUP1 PUSH1 0x2 ADD SLOAD SWAP1 POP DUP4 JUMP JUMPDEST PUSH1 0x0 DUP1 DUP4 PUSH1 0xFF AND EQ ISZERO PUSH2 0x1036 JUMPI PUSH1 0x0 PUSH1 0xD PUSH1 0x0 DUP7 PUSH20 0xFFFFFFFFFFFFFFFFFFFFFFFFFFFFFFFFFFFFFFFF AND PUSH20 0xFFFFFFFFFFFFFFFFFFFFFFFFFFFFFFFFFFFFFFFF AND DUP2 MSTORE PUSH1 0x20 ADD SWAP1 DUP2 MSTORE PUSH1 0x20 ADD PUSH1 0x0 KECCAK256 PUSH1 0x1 ADD SLOAD SWAP1 POP PUSH2 0x102E DUP4 DUP3 PUSH1 0x2 SLOAD PUSH2 0x27A3 JUMP JUMPDEST SWAP2 POP POP PUSH2 0x110B JUMP JUMPDEST PUSH1 0x1 DUP4 PUSH1 0xFF AND EQ ISZERO PUSH2 0x109E JUMPI PUSH1 0x0 PUSH1 0xF PUSH1 0x0 DUP7 PUSH20 0xFFFFFFFFFFFFFFFFFFFFFFFFFFFFFFFFFFFFFFFF AND PUSH20 0xFFFFFFFFFFFFFFFFFFFFFFFFFFFFFFFFFFFFFFFF AND DUP2 MSTORE PUSH1 0x20 ADD SWAP1 DUP2 MSTORE PUSH1 0x20 ADD PUSH1 0x0 KECCAK256 PUSH1 0x1 ADD SLOAD SWAP1 POP PUSH2 0x1096 DUP4 DUP3 PUSH1 0x3 SLOAD PUSH2 0x27A3 JUMP JUMPDEST SWAP2 POP POP PUSH2 0x110B JUMP JUMPDEST PUSH1 0x2 DUP4 PUSH1 0xFF AND EQ ISZERO PUSH2 0x1106 JUMPI PUSH1 0x0 PUSH1 0x11 PUSH1 0x0 DUP7 PUSH20 0xFFFFFFFFFFFFFFFFFFFFFFFFFFFFFFFFFFFFFFFF AND PUSH20 0xFFFFFFFFFFFFFFFFFFFFFFFFFFFFFFFFFFFFFFFF AND DUP2 MSTORE PUSH1 0x20 ADD SWAP1 DUP2 MSTORE PUSH1 0x20 ADD PUSH1 0x0 KECCAK256 PUSH1 0x1 ADD SLOAD SWAP1 POP PUSH2 0x10FE DUP4 DUP3 PUSH1 0x4 SLOAD PUSH2 0x27A3 JUMP JUMPDEST SWAP2 POP POP PUSH2 0x110B JUMP JUMPDEST PUSH1 0x0 SWAP1 POP JUMPDEST SWAP4 SWAP3 POP POP POP JUMP JUMPDEST PUSH2 0x111A PUSH2 0x26FA JUMP JUMPDEST PUSH20 0xFFFFFFFFFFFFFFFFFFFFFFFFFFFFFFFFFFFFFFFF AND PUSH2 0x1138 PUSH2 0x1276 JUMP JUMPDEST PUSH20 0xFFFFFFFFFFFFFFFFFFFFFFFFFFFFFFFFFFFFFFFF AND EQ PUSH2 0x118E JUMPI PUSH1 0x40 MLOAD PUSH32 0x8C379A000000000000000000000000000000000000000000000000000000000 DUP2 MSTORE PUSH1 0x4 ADD PUSH2 0x1185 SWAP1 PUSH2 0x3169 JUMP JUMPDEST PUSH1 0x40 MLOAD DUP1 SWAP2 SUB SWAP1 REVERT JUMPDEST PUSH2 0x1198 PUSH1 0x0 PUSH2 0x27FD JUMP JUMPDEST JUMP JUMPDEST PUSH1 0x6 SLOAD DUP2 JUMP JUMPDEST PUSH1 0xF PUSH1 0x20 MSTORE DUP1 PUSH1 0x0 MSTORE PUSH1 0x40 PUSH1 0x0 KECCAK256 PUSH1 0x0 SWAP2 POP SWAP1 POP DUP1 PUSH1 0x0 ADD SLOAD SWAP1 DUP1 PUSH1 0x1 ADD SLOAD SWAP1 DUP1 PUSH1 0x2 ADD SLOAD SWAP1 POP DUP4 JUMP JUMPDEST PUSH1 0x2 SLOAD DUP2 JUMP JUMPDEST PUSH1 0x10 PUSH1 0x20 MSTORE DUP1 PUSH1 0x0 MSTORE PUSH1 0x40 PUSH1 0x0 KECCAK256 PUSH1 0x0 SWAP2 POP SLOAD SWAP1 PUSH2 0x100 EXP SWAP1 DIV PUSH1 0xFF AND DUP2 JUMP JUMPDEST PUSH2 0x11F8 PUSH2 0x26FA JUMP JUMPDEST PUSH20 0xFFFFFFFFFFFFFFFFFFFFFFFFFFFFFFFFFFFFFFFF AND PUSH2 0x1216 PUSH2 0x1276 JUMP JUMPDEST PUSH20 0xFFFFFFFFFFFFFFFFFFFFFFFFFFFFFFFFFFFFFFFF AND EQ PUSH2 0x126C JUMPI PUSH1 0x40 MLOAD PUSH32 0x8C379A000000000000000000000000000000000000000000000000000000000 DUP2 MSTORE PUSH1 0x4 ADD PUSH2 0x1263 SWAP1 PUSH2 0x3169 JUMP JUMPDEST PUSH1 0x40 MLOAD DUP1 SWAP2 SUB SWAP1 REVERT JUMPDEST PUSH2 0x1274 PUSH2 0x28C1 JUMP JUMPDEST JUMP JUMPDEST PUSH1 0x0 DUP1 PUSH1 0x0 SWAP1 SLOAD SWAP1 PUSH2 0x100 EXP SWAP1 DIV PUSH20 0xFFFFFFFFFFFFFFFFFFFFFFFFFFFFFFFFFFFFFFFF AND SWAP1 POP SWAP1 JUMP JUMPDEST PUSH1 0xA SLOAD DUP2 JUMP JUMPDEST PUSH1 0x9 SLOAD DUP2 JUMP JUMPDEST PUSH1 0x0 CALLER SWAP1 POP PUSH1 0xC PUSH1 0x0 DUP3 PUSH20 0xFFFFFFFFFFFFFFFFFFFFFFFFFFFFFFFFFFFFFFFF AND PUSH20 0xFFFFFFFFFFFFFFFFFFFFFFFFFFFFFFFFFFFFFFFF AND DUP2 MSTORE PUSH1 0x20 ADD SWAP1 DUP2 MSTORE PUSH1 0x20 ADD PUSH1 0x0 KECCAK256 PUSH1 0x0 SWAP1 SLOAD SWAP1 PUSH2 0x100 EXP SWAP1 DIV PUSH1 0xFF AND PUSH2 0x133C JUMPI PUSH1 0x40 MLOAD PUSH32 0x8C379A000000000000000000000000000000000000000000000000000000000 DUP2 MSTORE PUSH1 0x4 ADD PUSH2 0x1333 SWAP1 PUSH2 0x3129 JUMP JUMPDEST PUSH1 0x40 MLOAD DUP1 SWAP2 SUB SWAP1 REVERT JUMPDEST PUSH1 0x0 PUSH1 0xD PUSH1 0x0 DUP4 PUSH20 0xFFFFFFFFFFFFFFFFFFFFFFFFFFFFFFFFFFFFFFFF AND PUSH20 0xFFFFFFFFFFFFFFFFFFFFFFFFFFFFFFFFFFFFFFFF AND DUP2 MSTORE PUSH1 0x20 ADD SWAP1 DUP2 MSTORE PUSH1 0x20 ADD PUSH1 0x0 KECCAK256 PUSH1 0x0 ADD SLOAD SWAP1 POP DUP3 DUP2 LT ISZERO PUSH2 0x13C6 JUMPI PUSH1 0x40 MLOAD PUSH32 0x8C379A000000000000000000000000000000000000000000000000000000000 DUP2 MSTORE PUSH1 0x4 ADD PUSH2 0x13BD SWAP1 PUSH2 0x30A9 JUMP JUMPDEST PUSH1 0x40 MLOAD DUP1 SWAP2 SUB SWAP1 REVERT JUMPDEST PUSH1 0x0 PUSH2 0x13D3 DUP4 PUSH1 0x0 PUSH2 0x22CA JUMP JUMPDEST SWAP1 POP PUSH1 0x0 PUSH2 0x13E3 DUP5 PUSH1 0x0 DUP8 PUSH2 0xFCD JUMP JUMPDEST SWAP1 POP DUP3 DUP6 EQ ISZERO PUSH2 0x14A4 JUMPI PUSH1 0xD PUSH1 0x0 DUP6 PUSH20 0xFFFFFFFFFFFFFFFFFFFFFFFFFFFFFFFFFFFFFFFF AND PUSH20 0xFFFFFFFFFFFFFFFFFFFFFFFFFFFFFFFFFFFFFFFF AND DUP2 MSTORE PUSH1 0x20 ADD SWAP1 DUP2 MSTORE PUSH1 0x20 ADD PUSH1 0x0 KECCAK256 PUSH1 0x0 DUP1 DUP3 ADD PUSH1 0x0 SWAP1 SSTORE PUSH1 0x1 DUP3 ADD PUSH1 0x0 SWAP1 SSTORE PUSH1 0x2 DUP3 ADD PUSH1 0x0 SWAP1 SSTORE POP POP PUSH1 0x0 PUSH1 0xC PUSH1 0x0 DUP7 PUSH20 0xFFFFFFFFFFFFFFFFFFFFFFFFFFFFFFFFFFFFFFFF AND PUSH20 0xFFFFFFFFFFFFFFFFFFFFFFFFFFFFFFFFFFFFFFFF AND DUP2 MSTORE PUSH1 0x20 ADD SWAP1 DUP2 MSTORE PUSH1 0x20 ADD PUSH1 0x0 KECCAK256 PUSH1 0x0 PUSH2 0x100 EXP DUP2 SLOAD DUP2 PUSH1 0xFF MUL NOT AND SWAP1 DUP4 ISZERO ISZERO MUL OR SWAP1 SSTORE POP PUSH2 0x14FE JUMP JUMPDEST DUP5 PUSH1 0xD PUSH1 0x0 DUP7 PUSH20 0xFFFFFFFFFFFFFFFFFFFFFFFFFFFFFFFFFFFFFFFF AND PUSH20 0xFFFFFFFFFFFFFFFFFFFFFFFFFFFFFFFFFFFFFFFF AND DUP2 MSTORE PUSH1 0x20 ADD SWAP1 DUP2 MSTORE PUSH1 0x20 ADD PUSH1 0x0 KECCAK256 PUSH1 0x0 ADD PUSH1 0x0 DUP3 DUP3 SLOAD PUSH2 0x14F6 SWAP2 SWAP1 PUSH2 0x330D JUMP JUMPDEST SWAP3 POP POP DUP2 SWAP1 SSTORE POP JUMPDEST DUP2 ISZERO PUSH2 0x168D JUMPI PUSH1 0x1 PUSH1 0x0 SWAP1 SLOAD SWAP1 PUSH2 0x100 EXP SWAP1 DIV PUSH20 0xFFFFFFFFFFFFFFFFFFFFFFFFFFFFFFFFFFFFFFFF AND PUSH20 0xFFFFFFFFFFFFFFFFFFFFFFFFFFFFFFFFFFFFFFFF AND PUSH4 0xA9059CBB DUP6 DUP8 PUSH1 0x40 MLOAD DUP4 PUSH4 0xFFFFFFFF AND PUSH1 0xE0 SHL DUP2 MSTORE PUSH1 0x4 ADD PUSH2 0x1561 SWAP3 SWAP2 SWAP1 PUSH2 0x2FEF JUMP JUMPDEST PUSH1 0x20 PUSH1 0x40 MLOAD DUP1 DUP4 SUB DUP2 PUSH1 0x0 DUP8 DUP1 EXTCODESIZE ISZERO DUP1 ISZERO PUSH2 0x157B JUMPI PUSH1 0x0 DUP1 REVERT JUMPDEST POP GAS CALL ISZERO DUP1 ISZERO PUSH2 0x158F JUMPI RETURNDATASIZE PUSH1 0x0 DUP1 RETURNDATACOPY RETURNDATASIZE PUSH1 0x0 REVERT JUMPDEST POP POP POP POP PUSH1 0x40 MLOAD RETURNDATASIZE PUSH1 0x1F NOT PUSH1 0x1F DUP3 ADD AND DUP3 ADD DUP1 PUSH1 0x40 MSTORE POP DUP2 ADD SWAP1 PUSH2 0x15B3 SWAP2 SWAP1 PUSH2 0x2A78 JUMP JUMPDEST POP PUSH1 0x1 PUSH1 0x0 SWAP1 SLOAD SWAP1 PUSH2 0x100 EXP SWAP1 DIV PUSH20 0xFFFFFFFFFFFFFFFFFFFFFFFFFFFFFFFFFFFFFFFF AND PUSH20 0xFFFFFFFFFFFFFFFFFFFFFFFFFFFFFFFFFFFFFFFF AND PUSH4 0x23B872DD PUSH1 0xB PUSH1 0x0 SWAP1 SLOAD SWAP1 PUSH2 0x100 EXP SWAP1 DIV PUSH20 0xFFFFFFFFFFFFFFFFFFFFFFFFFFFFFFFFFFFFFFFF AND DUP7 DUP5 PUSH1 0x40 MLOAD DUP5 PUSH4 0xFFFFFFFF AND PUSH1 0xE0 SHL DUP2 MSTORE PUSH1 0x4 ADD PUSH2 0x1635 SWAP4 SWAP3 SWAP2 SWAP1 PUSH2 0x2DC6 JUMP JUMPDEST PUSH1 0x20 PUSH1 0x40 MLOAD DUP1 DUP4 SUB DUP2 PUSH1 0x0 DUP8 DUP1 EXTCODESIZE ISZERO DUP1 ISZERO PUSH2 0x164F JUMPI PUSH1 0x0 DUP1 REVERT JUMPDEST POP GAS CALL ISZERO DUP1 ISZERO PUSH2 0x1663 JUMPI RETURNDATASIZE PUSH1 0x0 DUP1 RETURNDATACOPY RETURNDATASIZE PUSH1 0x0 REVERT JUMPDEST POP POP POP POP PUSH1 0x40 MLOAD RETURNDATASIZE PUSH1 0x1F NOT PUSH1 0x1F DUP3 ADD AND DUP3 ADD DUP1 PUSH1 0x40 MSTORE POP DUP2 ADD SWAP1 PUSH2 0x1687 SWAP2 SWAP1 PUSH2 0x2A78 JUMP JUMPDEST POP PUSH2 0x1742 JUMP JUMPDEST PUSH1 0x0 SWAP1 POP PUSH1 0x1 PUSH1 0x0 SWAP1 SLOAD SWAP1 PUSH2 0x100 EXP SWAP1 DIV PUSH20 0xFFFFFFFFFFFFFFFFFFFFFFFFFFFFFFFFFFFFFFFF AND PUSH20 0xFFFFFFFFFFFFFFFFFFFFFFFFFFFFFFFFFFFFFFFF AND PUSH4 0xA9059CBB DUP6 DUP8 PUSH1 0x40 MLOAD DUP4 PUSH4 0xFFFFFFFF AND PUSH1 0xE0 SHL DUP2 MSTORE PUSH1 0x4 ADD PUSH2 0x16EE SWAP3 SWAP2 SWAP1 PUSH2 0x2FEF JUMP JUMPDEST PUSH1 0x20 PUSH1 0x40 MLOAD DUP1 DUP4 SUB DUP2 PUSH1 0x0 DUP8 DUP1 EXTCODESIZE ISZERO DUP1 ISZERO PUSH2 0x1708 JUMPI PUSH1 0x0 DUP1 REVERT JUMPDEST POP GAS CALL ISZERO DUP1 ISZERO PUSH2 0x171C JUMPI RETURNDATASIZE PUSH1 0x0 DUP1 RETURNDATACOPY RETURNDATASIZE PUSH1 0x0 REVERT JUMPDEST POP POP POP POP PUSH1 0x40 MLOAD RETURNDATASIZE PUSH1 0x1F NOT PUSH1 0x1F DUP3 ADD AND DUP3 ADD DUP1 PUSH1 0x40 MSTORE POP DUP2 ADD SWAP1 PUSH2 0x1740 SWAP2 SWAP1 PUSH2 0x2A78 JUMP JUMPDEST POP JUMPDEST PUSH32 0xA3DFF5863D601223D9B31A0253B97A6C2085DACA56089B92836B4B6A1991E04B DUP5 PUSH1 0x0 DUP5 DUP9 DUP6 PUSH1 0x40 MLOAD PUSH2 0x177A SWAP6 SWAP5 SWAP4 SWAP3 SWAP2 SWAP1 PUSH2 0x2DFD JUMP JUMPDEST PUSH1 0x40 MLOAD DUP1 SWAP2 SUB SWAP1 LOG1 POP POP POP POP POP JUMP JUMPDEST PUSH1 0x11 PUSH1 0x20 MSTORE DUP1 PUSH1 0x0 MSTORE PUSH1 0x40 PUSH1 0x0 KECCAK256 PUSH1 0x0 SWAP2 POP SWAP1 POP DUP1 PUSH1 0x0 ADD SLOAD SWAP1 DUP1 PUSH1 0x1 ADD SLOAD SWAP1 DUP1 PUSH1 0x2 ADD SLOAD SWAP1 POP DUP4 JUMP JUMPDEST PUSH1 0x0 CALLER SWAP1 POP PUSH1 0xE PUSH1 0x0 DUP3 PUSH20 0xFFFFFFFFFFFFFFFFFFFFFFFFFFFFFFFFFFFFFFFF AND PUSH20 0xFFFFFFFFFFFFFFFFFFFFFFFFFFFFFFFFFFFFFFFF AND DUP2 MSTORE PUSH1 0x20 ADD SWAP1 DUP2 MSTORE PUSH1 0x20 ADD PUSH1 0x0 KECCAK256 PUSH1 0x0 SWAP1 SLOAD SWAP1 PUSH2 0x100 EXP SWAP1 DIV PUSH1 0xFF AND PUSH2 0x1844 JUMPI PUSH1 0x40 MLOAD PUSH32 0x8C379A000000000000000000000000000000000000000000000000000000000 DUP2 MSTORE PUSH1 0x4 ADD PUSH2 0x183B SWAP1 PUSH2 0x30E9 JUMP JUMPDEST PUSH1 0x40 MLOAD DUP1 SWAP2 SUB SWAP1 REVERT JUMPDEST PUSH1 0x0 PUSH1 0xF PUSH1 0x0 DUP4 PUSH20 0xFFFFFFFFFFFFFFFFFFFFFFFFFFFFFFFFFFFFFFFF AND PUSH20 0xFFFFFFFFFFFFFFFFFFFFFFFFFFFFFFFFFFFFFFFF AND DUP2 MSTORE PUSH1 0x20 ADD SWAP1 DUP2 MSTORE PUSH1 0x20 ADD PUSH1 0x0 KECCAK256 PUSH1 0x0 ADD SLOAD SWAP1 POP DUP3 DUP2 LT ISZERO PUSH2 0x18CE JUMPI PUSH1 0x40 MLOAD PUSH32 0x8C379A000000000000000000000000000000000000000000000000000000000 DUP2 MSTORE PUSH1 0x4 ADD PUSH2 0x18C5 SWAP1 PUSH2 0x30A9 JUMP JUMPDEST PUSH1 0x40 MLOAD DUP1 SWAP2 SUB SWAP1 REVERT JUMPDEST PUSH1 0x0 PUSH2 0x18DB DUP4 PUSH1 0x1 PUSH2 0x22CA JUMP JUMPDEST SWAP1 POP PUSH1 0x0 PUSH2 0x18EB DUP5 PUSH1 0x1 DUP8 PUSH2 0xFCD JUMP JUMPDEST SWAP1 POP DUP3 DUP6 EQ ISZERO PUSH2 0x19AC JUMPI PUSH1 0xF PUSH1 0x0 DUP6 PUSH20 0xFFFFFFFFFFFFFFFFFFFFFFFFFFFFFFFFFFFFFFFF AND PUSH20 0xFFFFFFFFFFFFFFFFFFFFFFFFFFFFFFFFFFFFFFFF AND DUP2 MSTORE PUSH1 0x20 ADD SWAP1 DUP2 MSTORE PUSH1 0x20 ADD PUSH1 0x0 KECCAK256 PUSH1 0x0 DUP1 DUP3 ADD PUSH1 0x0 SWAP1 SSTORE PUSH1 0x1 DUP3 ADD PUSH1 0x0 SWAP1 SSTORE PUSH1 0x2 DUP3 ADD PUSH1 0x0 SWAP1 SSTORE POP POP PUSH1 0x0 PUSH1 0xE PUSH1 0x0 DUP7 PUSH20 0xFFFFFFFFFFFFFFFFFFFFFFFFFFFFFFFFFFFFFFFF AND PUSH20 0xFFFFFFFFFFFFFFFFFFFFFFFFFFFFFFFFFFFFFFFF AND DUP2 MSTORE PUSH1 0x20 ADD SWAP1 DUP2 MSTORE PUSH1 0x20 ADD PUSH1 0x0 KECCAK256 PUSH1 0x0 PUSH2 0x100 EXP DUP2 SLOAD DUP2 PUSH1 0xFF MUL NOT AND SWAP1 DUP4 ISZERO ISZERO MUL OR SWAP1 SSTORE POP PUSH2 0x1A06 JUMP JUMPDEST DUP5 PUSH1 0xF PUSH1 0x0 DUP7 PUSH20 0xFFFFFFFFFFFFFFFFFFFFFFFFFFFFFFFFFFFFFFFF AND PUSH20 0xFFFFFFFFFFFFFFFFFFFFFFFFFFFFFFFFFFFFFFFF AND DUP2 MSTORE PUSH1 0x20 ADD SWAP1 DUP2 MSTORE PUSH1 0x20 ADD PUSH1 0x0 KECCAK256 PUSH1 0x0 ADD PUSH1 0x0 DUP3 DUP3 SLOAD PUSH2 0x19FE SWAP2 SWAP1 PUSH2 0x330D JUMP JUMPDEST SWAP3 POP POP DUP2 SWAP1 SSTORE POP JUMPDEST DUP2 ISZERO PUSH2 0x1B95 JUMPI PUSH1 0x1 PUSH1 0x0 SWAP1 SLOAD SWAP1 PUSH2 0x100 EXP SWAP1 DIV PUSH20 0xFFFFFFFFFFFFFFFFFFFFFFFFFFFFFFFFFFFFFFFF AND PUSH20 0xFFFFFFFFFFFFFFFFFFFFFFFFFFFFFFFFFFFFFFFF AND PUSH4 0xA9059CBB DUP6 DUP8 PUSH1 0x40 MLOAD DUP4 PUSH4 0xFFFFFFFF AND PUSH1 0xE0 SHL DUP2 MSTORE PUSH1 0x4 ADD PUSH2 0x1A69 SWAP3 SWAP2 SWAP1 PUSH2 0x2FEF JUMP JUMPDEST PUSH1 0x20 PUSH1 0x40 MLOAD DUP1 DUP4 SUB DUP2 PUSH1 0x0 DUP8 DUP1 EXTCODESIZE ISZERO DUP1 ISZERO PUSH2 0x1A83 JUMPI PUSH1 0x0 DUP1 REVERT JUMPDEST POP GAS CALL ISZERO DUP1 ISZERO PUSH2 0x1A97 JUMPI RETURNDATASIZE PUSH1 0x0 DUP1 RETURNDATACOPY RETURNDATASIZE PUSH1 0x0 REVERT JUMPDEST POP POP POP POP PUSH1 0x40 MLOAD RETURNDATASIZE PUSH1 0x1F NOT PUSH1 0x1F DUP3 ADD AND DUP3 ADD DUP1 PUSH1 0x40 MSTORE POP DUP2 ADD SWAP1 PUSH2 0x1ABB SWAP2 SWAP1 PUSH2 0x2A78 JUMP JUMPDEST POP PUSH1 0x1 PUSH1 0x0 SWAP1 SLOAD SWAP1 PUSH2 0x100 EXP SWAP1 DIV PUSH20 0xFFFFFFFFFFFFFFFFFFFFFFFFFFFFFFFFFFFFFFFF AND PUSH20 0xFFFFFFFFFFFFFFFFFFFFFFFFFFFFFFFFFFFFFFFF AND PUSH4 0x23B872DD PUSH1 0xB PUSH1 0x0 SWAP1 SLOAD SWAP1 PUSH2 0x100 EXP SWAP1 DIV PUSH20 0xFFFFFFFFFFFFFFFFFFFFFFFFFFFFFFFFFFFFFFFF AND DUP7 DUP5 PUSH1 0x40 MLOAD DUP5 PUSH4 0xFFFFFFFF AND PUSH1 0xE0 SHL DUP2 MSTORE PUSH1 0x4 ADD PUSH2 0x1B3D SWAP4 SWAP3 SWAP2 SWAP1 PUSH2 0x2DC6 JUMP JUMPDEST PUSH1 0x20 PUSH1 0x40 MLOAD DUP1 DUP4 SUB DUP2 PUSH1 0x0 DUP8 DUP1 EXTCODESIZE ISZERO DUP1 ISZERO PUSH2 0x1B57 JUMPI PUSH1 0x0 DUP1 REVERT JUMPDEST POP GAS CALL ISZERO DUP1 ISZERO PUSH2 0x1B6B JUMPI RETURNDATASIZE PUSH1 0x0 DUP1 RETURNDATACOPY RETURNDATASIZE PUSH1 0x0 REVERT JUMPDEST POP POP POP POP PUSH1 0x40 MLOAD RETURNDATASIZE PUSH1 0x1F NOT PUSH1 0x1F DUP3 ADD AND DUP3 ADD DUP1 PUSH1 0x40 MSTORE POP DUP2 ADD SWAP1 PUSH2 0x1B8F SWAP2 SWAP1 PUSH2 0x2A78 JUMP JUMPDEST POP PUSH2 0x1C4A JUMP JUMPDEST PUSH1 0x0 SWAP1 POP PUSH1 0x1 PUSH1 0x0 SWAP1 SLOAD SWAP1 PUSH2 0x100 EXP SWAP1 DIV PUSH20 0xFFFFFFFFFFFFFFFFFFFFFFFFFFFFFFFFFFFFFFFF AND PUSH20 0xFFFFFFFFFFFFFFFFFFFFFFFFFFFFFFFFFFFFFFFF AND PUSH4 0xA9059CBB DUP6 DUP8 PUSH1 0x40 MLOAD DUP4 PUSH4 0xFFFFFFFF AND PUSH1 0xE0 SHL DUP2 MSTORE PUSH1 0x4 ADD PUSH2 0x1BF6 SWAP3 SWAP2 SWAP1 PUSH2 0x2FEF JUMP JUMPDEST PUSH1 0x20 PUSH1 0x40 MLOAD DUP1 DUP4 SUB DUP2 PUSH1 0x0 DUP8 DUP1 EXTCODESIZE ISZERO DUP1 ISZERO PUSH2 0x1C10 JUMPI PUSH1 0x0 DUP1 REVERT JUMPDEST POP GAS CALL ISZERO DUP1 ISZERO PUSH2 0x1C24 JUMPI RETURNDATASIZE PUSH1 0x0 DUP1 RETURNDATACOPY RETURNDATASIZE PUSH1 0x0 REVERT JUMPDEST POP POP POP POP PUSH1 0x40 MLOAD RETURNDATASIZE PUSH1 0x1F NOT PUSH1 0x1F DUP3 ADD AND DUP3 ADD DUP1 PUSH1 0x40 MSTORE POP DUP2 ADD SWAP1 PUSH2 0x1C48 SWAP2 SWAP1 PUSH2 0x2A78 JUMP JUMPDEST POP JUMPDEST PUSH32 0xA3DFF5863D601223D9B31A0253B97A6C2085DACA56089B92836B4B6A1991E04B DUP5 PUSH1 0x1 DUP5 DUP9 DUP6 PUSH1 0x40 MLOAD PUSH2 0x1C82 SWAP6 SWAP5 SWAP4 SWAP3 SWAP2 SWAP1 PUSH2 0x2EA3 JUMP JUMPDEST PUSH1 0x40 MLOAD DUP1 SWAP2 SUB SWAP1 LOG1 POP POP POP POP POP JUMP JUMPDEST PUSH2 0x1C99 PUSH2 0xA69 JUMP JUMPDEST ISZERO PUSH2 0x1CD9 JUMPI PUSH1 0x40 MLOAD PUSH32 0x8C379A000000000000000000000000000000000000000000000000000000000 DUP2 MSTORE PUSH1 0x4 ADD PUSH2 0x1CD0 SWAP1 PUSH2 0x3109 JUMP JUMPDEST PUSH1 0x40 MLOAD DUP1 SWAP2 SUB SWAP1 REVERT JUMPDEST PUSH1 0xA SLOAD DUP2 GT ISZERO DUP1 ISZERO PUSH2 0x1CED JUMPI POP PUSH1 0x9 SLOAD DUP2 LT ISZERO JUMPDEST PUSH2 0x1D2C JUMPI PUSH1 0x40 MLOAD PUSH32 0x8C379A000000000000000000000000000000000000000000000000000000000 DUP2 MSTORE PUSH1 0x4 ADD PUSH2 0x1D23 SWAP1 PUSH2 0x3149 JUMP JUMPDEST PUSH1 0x40 MLOAD DUP1 SWAP2 SUB SWAP1 REVERT JUMPDEST PUSH1 0x0 CALLER SWAP1 POP PUSH1 0x10 PUSH1 0x0 DUP3 PUSH20 0xFFFFFFFFFFFFFFFFFFFFFFFFFFFFFFFFFFFFFFFF AND PUSH20 0xFFFFFFFFFFFFFFFFFFFFFFFFFFFFFFFFFFFFFFFF AND DUP2 MSTORE PUSH1 0x20 ADD SWAP1 DUP2 MSTORE PUSH1 0x20 ADD PUSH1 0x0 KECCAK256 PUSH1 0x0 SWAP1 SLOAD SWAP1 PUSH2 0x100 EXP SWAP1 DIV PUSH1 0xFF AND ISZERO PUSH2 0x1DBE JUMPI PUSH1 0x40 MLOAD PUSH32 0x8C379A000000000000000000000000000000000000000000000000000000000 DUP2 MSTORE PUSH1 0x4 ADD PUSH2 0x1DB5 SWAP1 PUSH2 0x31A9 JUMP JUMPDEST PUSH1 0x40 MLOAD DUP1 SWAP2 SUB SWAP1 REVERT JUMPDEST PUSH1 0x1 PUSH1 0x0 SWAP1 SLOAD SWAP1 PUSH2 0x100 EXP SWAP1 DIV PUSH20 0xFFFFFFFFFFFFFFFFFFFFFFFFFFFFFFFFFFFFFFFF AND PUSH20 0xFFFFFFFFFFFFFFFFFFFFFFFFFFFFFFFFFFFFFFFF AND PUSH4 0x23B872DD DUP3 ADDRESS DUP6 PUSH1 0x40 MLOAD DUP5 PUSH4 0xFFFFFFFF AND PUSH1 0xE0 SHL DUP2 MSTORE PUSH1 0x4 ADD PUSH2 0x1E1D SWAP4 SWAP3 SWAP2 SWAP1 PUSH2 0x2DC6 JUMP JUMPDEST PUSH1 0x20 PUSH1 0x40 MLOAD DUP1 DUP4 SUB DUP2 PUSH1 0x0 DUP8 DUP1 EXTCODESIZE ISZERO DUP1 ISZERO PUSH2 0x1E37 JUMPI PUSH1 0x0 DUP1 REVERT JUMPDEST POP GAS CALL ISZERO DUP1 ISZERO PUSH2 0x1E4B JUMPI RETURNDATASIZE PUSH1 0x0 DUP1 RETURNDATACOPY RETURNDATASIZE PUSH1 0x0 REVERT JUMPDEST POP POP POP POP PUSH1 0x40 MLOAD RETURNDATASIZE PUSH1 0x1F NOT PUSH1 0x1F DUP3 ADD AND DUP3 ADD DUP1 PUSH1 0x40 MSTORE POP DUP2 ADD SWAP1 PUSH2 0x1E6F SWAP2 SWAP1 PUSH2 0x2A78 JUMP JUMPDEST POP PUSH1 0x1 PUSH1 0x10 PUSH1 0x0 DUP4 PUSH20 0xFFFFFFFFFFFFFFFFFFFFFFFFFFFFFFFFFFFFFFFF AND PUSH20 0xFFFFFFFFFFFFFFFFFFFFFFFFFFFFFFFFFFFFFFFF AND DUP2 MSTORE PUSH1 0x20 ADD SWAP1 DUP2 MSTORE PUSH1 0x20 ADD PUSH1 0x0 KECCAK256 PUSH1 0x0 PUSH2 0x100 EXP DUP2 SLOAD DUP2 PUSH1 0xFF MUL NOT AND SWAP1 DUP4 ISZERO ISZERO MUL OR SWAP1 SSTORE POP PUSH1 0x40 MLOAD DUP1 PUSH1 0x60 ADD PUSH1 0x40 MSTORE DUP1 DUP4 DUP2 MSTORE PUSH1 0x20 ADD TIMESTAMP DUP2 MSTORE PUSH1 0x20 ADD PUSH2 0x4B0 TIMESTAMP PUSH2 0x1EED SWAP2 SWAP1 PUSH2 0x322C JUMP JUMPDEST DUP2 MSTORE POP PUSH1 0x11 PUSH1 0x0 DUP4 PUSH20 0xFFFFFFFFFFFFFFFFFFFFFFFFFFFFFFFFFFFFFFFF AND PUSH20 0xFFFFFFFFFFFFFFFFFFFFFFFFFFFFFFFFFFFFFFFF AND DUP2 MSTORE PUSH1 0x20 ADD SWAP1 DUP2 MSTORE PUSH1 0x20 ADD PUSH1 0x0 KECCAK256 PUSH1 0x0 DUP3 ADD MLOAD DUP2 PUSH1 0x0 ADD SSTORE PUSH1 0x20 DUP3 ADD MLOAD DUP2 PUSH1 0x1 ADD SSTORE PUSH1 0x40 DUP3 ADD MLOAD DUP2 PUSH1 0x2 ADD SSTORE SWAP1 POP POP PUSH32 0x17849BB8C713DE96B48F218D3BACC9AF082261C3CCC7C6DCCEBE70E667B22F23 DUP2 PUSH1 0x2 DUP5 TIMESTAMP PUSH3 0x76A700 TIMESTAMP PUSH2 0x1F85 SWAP2 SWAP1 PUSH2 0x322C JUMP JUMPDEST PUSH1 0x40 MLOAD PUSH2 0x1F96 SWAP6 SWAP5 SWAP4 SWAP3 SWAP2 SWAP1 PUSH2 0x2F9C JUMP JUMPDEST PUSH1 0x40 MLOAD DUP1 SWAP2 SUB SWAP1 LOG1 POP POP JUMP JUMPDEST PUSH1 0x8 SLOAD DUP2 JUMP JUMPDEST PUSH1 0xB PUSH1 0x0 SWAP1 SLOAD SWAP1 PUSH2 0x100 EXP SWAP1 DIV PUSH20 0xFFFFFFFFFFFFFFFFFFFFFFFFFFFFFFFFFFFFFFFF AND DUP2 JUMP JUMPDEST PUSH2 0x1FD6 PUSH2 0x26FA JUMP JUMPDEST PUSH20 0xFFFFFFFFFFFFFFFFFFFFFFFFFFFFFFFFFFFFFFFF AND PUSH2 0x1FF4 PUSH2 0x1276 JUMP JUMPDEST PUSH20 0xFFFFFFFFFFFFFFFFFFFFFFFFFFFFFFFFFFFFFFFF AND EQ PUSH2 0x204A JUMPI PUSH1 0x40 MLOAD PUSH32 0x8C379A000000000000000000000000000000000000000000000000000000000 DUP2 MSTORE PUSH1 0x4 ADD PUSH2 0x2041 SWAP1 PUSH2 0x3169 JUMP JUMPDEST PUSH1 0x40 MLOAD DUP1 SWAP2 SUB SWAP1 REVERT JUMPDEST DUP1 PUSH1 0xB PUSH1 0x0 PUSH2 0x100 EXP DUP2 SLOAD DUP2 PUSH20 0xFFFFFFFFFFFFFFFFFFFFFFFFFFFFFFFFFFFFFFFF MUL NOT AND SWAP1 DUP4 PUSH20 0xFFFFFFFFFFFFFFFFFFFFFFFFFFFFFFFFFFFFFFFF AND MUL OR SWAP1 SSTORE POP POP JUMP JUMPDEST PUSH2 0x2096 PUSH2 0x26FA JUMP JUMPDEST PUSH20 0xFFFFFFFFFFFFFFFFFFFFFFFFFFFFFFFFFFFFFFFF AND PUSH2 0x20B4 PUSH2 0x1276 JUMP JUMPDEST PUSH20 0xFFFFFFFFFFFFFFFFFFFFFFFFFFFFFFFFFFFFFFFF AND EQ PUSH2 0x210A JUMPI PUSH1 0x40 MLOAD PUSH32 0x8C379A000000000000000000000000000000000000000000000000000000000 DUP2 MSTORE PUSH1 0x4 ADD PUSH2 0x2101 SWAP1 PUSH2 0x3169 JUMP JUMPDEST PUSH1 0x40 MLOAD DUP1 SWAP2 SUB SWAP1 REVERT JUMPDEST DUP3 PUSH1 0x2 DUP2 SWAP1 SSTORE POP DUP2 PUSH1 0x3 DUP2 SWAP1 SSTORE POP DUP1 PUSH1 0x4 DUP2 SWAP1 SSTORE POP POP POP POP JUMP JUMPDEST PUSH2 0x212C PUSH2 0x26FA JUMP JUMPDEST PUSH20 0xFFFFFFFFFFFFFFFFFFFFFFFFFFFFFFFFFFFFFFFF AND PUSH2 0x214A PUSH2 0x1276 JUMP JUMPDEST PUSH20 0xFFFFFFFFFFFFFFFFFFFFFFFFFFFFFFFFFFFFFFFF AND EQ PUSH2 0x21A0 JUMPI PUSH1 0x40 MLOAD PUSH32 0x8C379A000000000000000000000000000000000000000000000000000000000 DUP2 MSTORE PUSH1 0x4 ADD PUSH2 0x2197 SWAP1 PUSH2 0x3169 JUMP JUMPDEST PUSH1 0x40 MLOAD DUP1 SWAP2 SUB SWAP1 REVERT JUMPDEST PUSH1 0x0 PUSH20 0xFFFFFFFFFFFFFFFFFFFFFFFFFFFFFFFFFFFFFFFF AND DUP2 PUSH20 0xFFFFFFFFFFFFFFFFFFFFFFFFFFFFFFFFFFFFFFFF AND EQ ISZERO PUSH2 0x2210 JUMPI PUSH1 0x40 MLOAD PUSH32 0x8C379A000000000000000000000000000000000000000000000000000000000 DUP2 MSTORE PUSH1 0x4 ADD PUSH2 0x2207 SWAP1 PUSH2 0x3089 JUMP JUMPDEST PUSH1 0x40 MLOAD DUP1 SWAP2 SUB SWAP1 REVERT JUMPDEST PUSH2 0x2219 DUP2 PUSH2 0x27FD JUMP JUMPDEST POP JUMP JUMPDEST PUSH2 0x2224 PUSH2 0x26FA JUMP JUMPDEST PUSH20 0xFFFFFFFFFFFFFFFFFFFFFFFFFFFFFFFFFFFFFFFF AND PUSH2 0x2242 PUSH2 0x1276 JUMP JUMPDEST PUSH20 0xFFFFFFFFFFFFFFFFFFFFFFFFFFFFFFFFFFFFFFFF AND EQ PUSH2 0x2298 JUMPI PUSH1 0x40 MLOAD PUSH32 0x8C379A000000000000000000000000000000000000000000000000000000000 DUP2 MSTORE PUSH1 0x4 ADD PUSH2 0x228F SWAP1 PUSH2 0x3169 JUMP JUMPDEST PUSH1 0x40 MLOAD DUP1 SWAP2 SUB SWAP1 REVERT JUMPDEST DUP6 PUSH1 0x5 DUP2 SWAP1 SSTORE POP DUP5 PUSH1 0x6 DUP2 SWAP1 SSTORE POP DUP4 PUSH1 0x7 DUP2 SWAP1 SSTORE POP DUP3 PUSH1 0x8 DUP2 SWAP1 SSTORE POP DUP2 PUSH1 0x9 DUP2 SWAP1 SSTORE POP DUP1 PUSH1 0xA DUP2 SWAP1 SSTORE POP POP POP POP POP POP POP JUMP JUMPDEST PUSH1 0x0 DUP1 PUSH1 0x0 DUP4 PUSH1 0xFF AND EQ ISZERO PUSH2 0x2323 JUMPI PUSH1 0xD PUSH1 0x0 DUP6 PUSH20 0xFFFFFFFFFFFFFFFFFFFFFFFFFFFFFFFFFFFFFFFF AND PUSH20 0xFFFFFFFFFFFFFFFFFFFFFFFFFFFFFFFFFFFFFFFF AND DUP2 MSTORE PUSH1 0x20 ADD SWAP1 DUP2 MSTORE PUSH1 0x20 ADD PUSH1 0x0 KECCAK256 PUSH1 0x2 ADD SLOAD SWAP1 POP PUSH2 0x23DB JUMP JUMPDEST PUSH1 0x1 DUP4 PUSH1 0xFF AND EQ ISZERO PUSH2 0x2379 JUMPI PUSH1 0xF PUSH1 0x0 DUP6 PUSH20 0xFFFFFFFFFFFFFFFFFFFFFFFFFFFFFFFFFFFFFFFF AND PUSH20 0xFFFFFFFFFFFFFFFFFFFFFFFFFFFFFFFFFFFFFFFF AND DUP2 MSTORE PUSH1 0x20 ADD SWAP1 DUP2 MSTORE PUSH1 0x20 ADD PUSH1 0x0 KECCAK256 PUSH1 0x2 ADD SLOAD SWAP1 POP PUSH2 0x23DA JUMP JUMPDEST PUSH1 0x2 DUP4 PUSH1 0xFF AND EQ ISZERO PUSH2 0x23CF JUMPI PUSH1 0x11 PUSH1 0x0 DUP6 PUSH20 0xFFFFFFFFFFFFFFFFFFFFFFFFFFFFFFFFFFFFFFFF AND PUSH20 0xFFFFFFFFFFFFFFFFFFFFFFFFFFFFFFFFFFFFFFFF AND DUP2 MSTORE PUSH1 0x20 ADD SWAP1 DUP2 MSTORE PUSH1 0x20 ADD PUSH1 0x0 KECCAK256 PUSH1 0x2 ADD SLOAD SWAP1 POP PUSH2 0x23D9 JUMP JUMPDEST PUSH1 0x0 SWAP2 POP POP PUSH2 0x23E3 JUMP JUMPDEST JUMPDEST JUMPDEST DUP1 TIMESTAMP LT ISZERO SWAP2 POP POP JUMPDEST SWAP3 SWAP2 POP POP JUMP JUMPDEST PUSH2 0x23F1 PUSH2 0xA69 JUMP JUMPDEST ISZERO PUSH2 0x2431 JUMPI PUSH1 0x40 MLOAD PUSH32 0x8C379A000000000000000000000000000000000000000000000000000000000 DUP2 MSTORE PUSH1 0x4 ADD PUSH2 0x2428 SWAP1 PUSH2 0x3109 JUMP JUMPDEST PUSH1 0x40 MLOAD DUP1 SWAP2 SUB SWAP1 REVERT JUMPDEST PUSH1 0x6 SLOAD DUP2 GT ISZERO DUP1 ISZERO PUSH2 0x2445 JUMPI POP PUSH1 0x5 SLOAD DUP2 LT ISZERO JUMPDEST PUSH2 0x2484 JUMPI PUSH1 0x40 MLOAD PUSH32 0x8C379A000000000000000000000000000000000000000000000000000000000 DUP2 MSTORE PUSH1 0x4 ADD PUSH2 0x247B SWAP1 PUSH2 0x3149 JUMP JUMPDEST PUSH1 0x40 MLOAD DUP1 SWAP2 SUB SWAP1 REVERT JUMPDEST PUSH1 0x0 CALLER SWAP1 POP PUSH1 0xC PUSH1 0x0 DUP3 PUSH20 0xFFFFFFFFFFFFFFFFFFFFFFFFFFFFFFFFFFFFFFFF AND PUSH20 0xFFFFFFFFFFFFFFFFFFFFFFFFFFFFFFFFFFFFFFFF AND DUP2 MSTORE PUSH1 0x20 ADD SWAP1 DUP2 MSTORE PUSH1 0x20 ADD PUSH1 0x0 KECCAK256 PUSH1 0x0 SWAP1 SLOAD SWAP1 PUSH2 0x100 EXP SWAP1 DIV PUSH1 0xFF AND ISZERO PUSH2 0x2516 JUMPI PUSH1 0x40 MLOAD PUSH32 0x8C379A000000000000000000000000000000000000000000000000000000000 DUP2 MSTORE PUSH1 0x4 ADD PUSH2 0x250D SWAP1 PUSH2 0x30C9 JUMP JUMPDEST PUSH1 0x40 MLOAD DUP1 SWAP2 SUB SWAP1 REVERT JUMPDEST PUSH1 0x1 PUSH1 0x0 SWAP1 SLOAD SWAP1 PUSH2 0x100 EXP SWAP1 DIV PUSH20 0xFFFFFFFFFFFFFFFFFFFFFFFFFFFFFFFFFFFFFFFF AND PUSH20 0xFFFFFFFFFFFFFFFFFFFFFFFFFFFFFFFFFFFFFFFF AND PUSH4 0x23B872DD DUP3 ADDRESS DUP6 PUSH1 0x40 MLOAD DUP5 PUSH4 0xFFFFFFFF AND PUSH1 0xE0 SHL DUP2 MSTORE PUSH1 0x4 ADD PUSH2 0x2575 SWAP4 SWAP3 SWAP2 SWAP1 PUSH2 0x2DC6 JUMP JUMPDEST PUSH1 0x20 PUSH1 0x40 MLOAD DUP1 DUP4 SUB DUP2 PUSH1 0x0 DUP8 DUP1 EXTCODESIZE ISZERO DUP1 ISZERO PUSH2 0x258F JUMPI PUSH1 0x0 DUP1 REVERT JUMPDEST POP GAS CALL ISZERO DUP1 ISZERO PUSH2 0x25A3 JUMPI RETURNDATASIZE PUSH1 0x0 DUP1 RETURNDATACOPY RETURNDATASIZE PUSH1 0x0 REVERT JUMPDEST POP POP POP POP PUSH1 0x40 MLOAD RETURNDATASIZE PUSH1 0x1F NOT PUSH1 0x1F DUP3 ADD AND DUP3 ADD DUP1 PUSH1 0x40 MSTORE POP DUP2 ADD SWAP1 PUSH2 0x25C7 SWAP2 SWAP1 PUSH2 0x2A78 JUMP JUMPDEST POP PUSH1 0x1 PUSH1 0xC PUSH1 0x0 DUP4 PUSH20 0xFFFFFFFFFFFFFFFFFFFFFFFFFFFFFFFFFFFFFFFF AND PUSH20 0xFFFFFFFFFFFFFFFFFFFFFFFFFFFFFFFFFFFFFFFF AND DUP2 MSTORE PUSH1 0x20 ADD SWAP1 DUP2 MSTORE PUSH1 0x20 ADD PUSH1 0x0 KECCAK256 PUSH1 0x0 PUSH2 0x100 EXP DUP2 SLOAD DUP2 PUSH1 0xFF MUL NOT AND SWAP1 DUP4 ISZERO ISZERO MUL OR SWAP1 SSTORE POP PUSH1 0x40 MLOAD DUP1 PUSH1 0x60 ADD PUSH1 0x40 MSTORE DUP1 DUP4 DUP2 MSTORE PUSH1 0x20 ADD TIMESTAMP DUP2 MSTORE PUSH1 0x20 ADD PUSH2 0x258 TIMESTAMP PUSH2 0x2645 SWAP2 SWAP1 PUSH2 0x322C JUMP JUMPDEST DUP2 MSTORE POP PUSH1 0xD PUSH1 0x0 DUP4 PUSH20 0xFFFFFFFFFFFFFFFFFFFFFFFFFFFFFFFFFFFFFFFF AND PUSH20 0xFFFFFFFFFFFFFFFFFFFFFFFFFFFFFFFFFFFFFFFF AND DUP2 MSTORE PUSH1 0x20 ADD SWAP1 DUP2 MSTORE PUSH1 0x20 ADD PUSH1 0x0 KECCAK256 PUSH1 0x0 DUP3 ADD MLOAD DUP2 PUSH1 0x0 ADD SSTORE PUSH1 0x20 DUP3 ADD MLOAD DUP2 PUSH1 0x1 ADD SSTORE PUSH1 0x40 DUP3 ADD MLOAD DUP2 PUSH1 0x2 ADD SSTORE SWAP1 POP POP PUSH32 0x17849BB8C713DE96B48F218D3BACC9AF082261C3CCC7C6DCCEBE70E667B22F23 DUP2 PUSH1 0x0 DUP5 TIMESTAMP PUSH3 0x93A80 TIMESTAMP PUSH2 0x26DD SWAP2 SWAP1 PUSH2 0x322C JUMP JUMPDEST PUSH1 0x40 MLOAD PUSH2 0x26EE SWAP6 SWAP5 SWAP4 SWAP3 SWAP2 SWAP1 PUSH2 0x2E50 JUMP JUMPDEST PUSH1 0x40 MLOAD DUP1 SWAP2 SUB SWAP1 LOG1 POP POP JUMP JUMPDEST PUSH1 0x0 CALLER SWAP1 POP SWAP1 JUMP JUMPDEST PUSH2 0x270A PUSH2 0xA69 JUMP JUMPDEST PUSH2 0x2749 JUMPI PUSH1 0x40 MLOAD PUSH32 0x8C379A000000000000000000000000000000000000000000000000000000000 DUP2 MSTORE PUSH1 0x4 ADD PUSH2 0x2740 SWAP1 PUSH2 0x3069 JUMP JUMPDEST PUSH1 0x40 MLOAD DUP1 SWAP2 SUB SWAP1 REVERT JUMPDEST PUSH1 0x0 DUP1 PUSH1 0x14 PUSH2 0x100 EXP DUP2 SLOAD DUP2 PUSH1 0xFF MUL NOT AND SWAP1 DUP4 ISZERO ISZERO MUL OR SWAP1 SSTORE POP PUSH32 0x5DB9EE0A495BF2E6FF9C91A7834C1BA4FDD244A5E8AA4E537BD38AEAE4B073AA PUSH2 0x278C PUSH2 0x26FA JUMP JUMPDEST PUSH1 0x40 MLOAD PUSH2 0x2799 SWAP2 SWAP1 PUSH2 0x2DAB JUMP JUMPDEST PUSH1 0x40 MLOAD DUP1 SWAP2 SUB SWAP1 LOG1 JUMP JUMPDEST PUSH1 0x0 DUP1 DUP4 TIMESTAMP PUSH2 0x27B2 SWAP2 SWAP1 PUSH2 0x330D JUMP JUMPDEST SWAP1 POP PUSH1 0x0 PUSH4 0x1E13380 PUSH2 0x2710 DUP6 DUP9 PUSH2 0x27CA SWAP2 SWAP1 PUSH2 0x32B3 JUMP JUMPDEST PUSH2 0x27D4 SWAP2 SWAP1 PUSH2 0x3282 JUMP JUMPDEST PUSH2 0x27DE SWAP2 SWAP1 PUSH2 0x3282 JUMP JUMPDEST SWAP1 POP PUSH1 0x0 DUP2 DUP4 PUSH2 0x27EE SWAP2 SWAP1 PUSH2 0x32B3 JUMP JUMPDEST SWAP1 POP DUP1 SWAP4 POP POP POP POP SWAP4 SWAP3 POP POP POP JUMP JUMPDEST PUSH1 0x0 DUP1 PUSH1 0x0 SWAP1 SLOAD SWAP1 PUSH2 0x100 EXP SWAP1 DIV PUSH20 0xFFFFFFFFFFFFFFFFFFFFFFFFFFFFFFFFFFFFFFFF AND SWAP1 POP DUP2 PUSH1 0x0 DUP1 PUSH2 0x100 EXP DUP2 SLOAD DUP2 PUSH20 0xFFFFFFFFFFFFFFFFFFFFFFFFFFFFFFFFFFFFFFFF MUL NOT AND SWAP1 DUP4 PUSH20 0xFFFFFFFFFFFFFFFFFFFFFFFFFFFFFFFFFFFFFFFF AND MUL OR SWAP1 SSTORE POP DUP2 PUSH20 0xFFFFFFFFFFFFFFFFFFFFFFFFFFFFFFFFFFFFFFFF AND DUP2 PUSH20 0xFFFFFFFFFFFFFFFFFFFFFFFFFFFFFFFFFFFFFFFF AND PUSH32 0x8BE0079C531659141344CD1FD0A4F28419497F9722A3DAAFE3B4186F6B6457E0 PUSH1 0x40 MLOAD PUSH1 0x40 MLOAD DUP1 SWAP2 SUB SWAP1 LOG3 POP POP JUMP JUMPDEST PUSH2 0x28C9 PUSH2 0xA69 JUMP JUMPDEST ISZERO PUSH2 0x2909 JUMPI PUSH1 0x40 MLOAD PUSH32 0x8C379A000000000000000000000000000000000000000000000000000000000 DUP2 MSTORE PUSH1 0x4 ADD PUSH2 0x2900 SWAP1 PUSH2 0x3109 JUMP JUMPDEST PUSH1 0x40 MLOAD DUP1 SWAP2 SUB SWAP1 REVERT JUMPDEST PUSH1 0x1 PUSH1 0x0 PUSH1 0x14 PUSH2 0x100 EXP DUP2 SLOAD DUP2 PUSH1 0xFF MUL NOT AND SWAP1 DUP4 ISZERO ISZERO MUL OR SWAP1 SSTORE POP PUSH32 0x62E78CEA01BEE320CD4E420270B5EA74000D11B0C9F74754EBDBFC544B05A258 PUSH2 0x294D PUSH2 0x26FA JUMP JUMPDEST PUSH1 0x40 MLOAD PUSH2 0x295A SWAP2 SWAP1 PUSH2 0x2DAB JUMP JUMPDEST PUSH1 0x40 MLOAD DUP1 SWAP2 SUB SWAP1 LOG1 JUMP JUMPDEST PUSH1 0x0 DUP2 CALLDATALOAD SWAP1 POP PUSH2 0x2973 DUP2 PUSH2 0x36AC JUMP JUMPDEST SWAP3 SWAP2 POP POP JUMP JUMPDEST PUSH1 0x0 DUP2 MLOAD SWAP1 POP PUSH2 0x2988 DUP2 PUSH2 0x36C3 JUMP JUMPDEST SWAP3 SWAP2 POP POP JUMP JUMPDEST PUSH1 0x0 DUP2 CALLDATALOAD SWAP1 POP PUSH2 0x299D DUP2 PUSH2 0x36DA JUMP JUMPDEST SWAP3 SWAP2 POP POP JUMP JUMPDEST PUSH1 0x0 DUP2 CALLDATALOAD SWAP1 POP PUSH2 0x29B2 DUP2 PUSH2 0x36F1 JUMP JUMPDEST SWAP3 SWAP2 POP POP JUMP JUMPDEST PUSH1 0x0 PUSH1 0x20 DUP3 DUP5 SUB SLT ISZERO PUSH2 0x29CE JUMPI PUSH2 0x29CD PUSH2 0x3472 JUMP JUMPDEST JUMPDEST PUSH1 0x0 PUSH2 0x29DC DUP5 DUP3 DUP6 ADD PUSH2 0x2964 JUMP JUMPDEST SWAP2 POP POP SWAP3 SWAP2 POP POP JUMP JUMPDEST PUSH1 0x0 DUP1 PUSH1 0x40 DUP4 DUP6 SUB SLT ISZERO PUSH2 0x29FC JUMPI PUSH2 0x29FB PUSH2 0x3472 JUMP JUMPDEST JUMPDEST PUSH1 0x0 PUSH2 0x2A0A DUP6 DUP3 DUP7 ADD PUSH2 0x2964 JUMP JUMPDEST SWAP3 POP POP PUSH1 0x20 PUSH2 0x2A1B DUP6 DUP3 DUP7 ADD PUSH2 0x29A3 JUMP JUMPDEST SWAP2 POP POP SWAP3 POP SWAP3 SWAP1 POP JUMP JUMPDEST PUSH1 0x0 DUP1 PUSH1 0x0 PUSH1 0x60 DUP5 DUP7 SUB SLT ISZERO PUSH2 0x2A3E JUMPI PUSH2 0x2A3D PUSH2 0x3472 JUMP JUMPDEST JUMPDEST PUSH1 0x0 PUSH2 0x2A4C DUP7 DUP3 DUP8 ADD PUSH2 0x2964 JUMP JUMPDEST SWAP4 POP POP PUSH1 0x20 PUSH2 0x2A5D DUP7 DUP3 DUP8 ADD PUSH2 0x29A3 JUMP JUMPDEST SWAP3 POP POP PUSH1 0x40 PUSH2 0x2A6E DUP7 DUP3 DUP8 ADD PUSH2 0x298E JUMP JUMPDEST SWAP2 POP POP SWAP3 POP SWAP3 POP SWAP3 JUMP JUMPDEST PUSH1 0x0 PUSH1 0x20 DUP3 DUP5 SUB SLT ISZERO PUSH2 0x2A8E JUMPI PUSH2 0x2A8D PUSH2 0x3472 JUMP JUMPDEST JUMPDEST PUSH1 0x0 PUSH2 0x2A9C DUP5 DUP3 DUP6 ADD PUSH2 0x2979 JUMP JUMPDEST SWAP2 POP POP SWAP3 SWAP2 POP POP JUMP JUMPDEST PUSH1 0x0 PUSH1 0x20 DUP3 DUP5 SUB SLT ISZERO PUSH2 0x2ABB JUMPI PUSH2 0x2ABA PUSH2 0x3472 JUMP JUMPDEST JUMPDEST PUSH1 0x0 PUSH2 0x2AC9 DUP5 DUP3 DUP6 ADD PUSH2 0x298E JUMP JUMPDEST SWAP2 POP POP SWAP3 SWAP2 POP POP JUMP JUMPDEST PUSH1 0x0 DUP1 PUSH1 0x0 PUSH1 0x60 DUP5 DUP7 SUB SLT ISZERO PUSH2 0x2AEB JUMPI PUSH2 0x2AEA PUSH2 0x3472 JUMP JUMPDEST JUMPDEST PUSH1 0x0 PUSH2 0x2AF9 DUP7 DUP3 DUP8 ADD PUSH2 0x298E JUMP JUMPDEST SWAP4 POP POP PUSH1 0x20 PUSH2 0x2B0A DUP7 DUP3 DUP8 ADD PUSH2 0x298E JUMP JUMPDEST SWAP3 POP POP PUSH1 0x40 PUSH2 0x2B1B DUP7 DUP3 DUP8 ADD PUSH2 0x298E JUMP JUMPDEST SWAP2 POP POP SWAP3 POP SWAP3 POP SWAP3 JUMP JUMPDEST PUSH1 0x0 DUP1 PUSH1 0x0 DUP1 PUSH1 0x0 DUP1 PUSH1 0xC0 DUP8 DUP10 SUB SLT ISZERO PUSH2 0x2B42 JUMPI PUSH2 0x2B41 PUSH2 0x3472 JUMP JUMPDEST JUMPDEST PUSH1 0x0 PUSH2 0x2B50 DUP10 DUP3 DUP11 ADD PUSH2 0x298E JUMP JUMPDEST SWAP7 POP POP PUSH1 0x20 PUSH2 0x2B61 DUP10 DUP3 DUP11 ADD PUSH2 0x298E JUMP JUMPDEST SWAP6 POP POP PUSH1 0x40 PUSH2 0x2B72 DUP10 DUP3 DUP11 ADD PUSH2 0x298E JUMP JUMPDEST SWAP5 POP POP PUSH1 0x60 PUSH2 0x2B83 DUP10 DUP3 DUP11 ADD PUSH2 0x298E JUMP JUMPDEST SWAP4 POP POP PUSH1 0x80 PUSH2 0x2B94 DUP10 DUP3 DUP11 ADD PUSH2 0x298E JUMP JUMPDEST SWAP3 POP POP PUSH1 0xA0 PUSH2 0x2BA5 DUP10 DUP3 DUP11 ADD PUSH2 0x298E JUMP JUMPDEST SWAP2 POP POP SWAP3 SWAP6 POP SWAP3 SWAP6 POP SWAP3 SWAP6 JUMP JUMPDEST PUSH2 0x2BBB DUP2 PUSH2 0x3341 JUMP JUMPDEST DUP3 MSTORE POP POP JUMP JUMPDEST PUSH2 0x2BCA DUP2 PUSH2 0x3353 JUMP JUMPDEST DUP3 MSTORE POP POP JUMP JUMPDEST PUSH2 0x2BD9 DUP2 PUSH2 0x3396 JUMP JUMPDEST DUP3 MSTORE POP POP JUMP JUMPDEST PUSH2 0x2BE8 DUP2 PUSH2 0x33A8 JUMP JUMPDEST DUP3 MSTORE POP POP JUMP JUMPDEST PUSH2 0x2BF7 DUP2 PUSH2 0x33BA JUMP JUMPDEST DUP3 MSTORE POP POP JUMP JUMPDEST PUSH2 0x2C06 DUP2 PUSH2 0x33CC JUMP JUMPDEST DUP3 MSTORE POP POP JUMP JUMPDEST PUSH2 0x2C15 DUP2 PUSH2 0x33DE JUMP JUMPDEST DUP3 MSTORE POP POP JUMP JUMPDEST PUSH1 0x0 PUSH2 0x2C28 PUSH1 0x14 DUP4 PUSH2 0x321B JUMP JUMPDEST SWAP2 POP PUSH2 0x2C33 DUP3 PUSH2 0x3477 JUMP JUMPDEST PUSH1 0x20 DUP3 ADD SWAP1 POP SWAP2 SWAP1 POP JUMP JUMPDEST PUSH1 0x0 PUSH2 0x2C4B PUSH1 0x26 DUP4 PUSH2 0x321B JUMP JUMPDEST SWAP2 POP PUSH2 0x2C56 DUP3 PUSH2 0x34A0 JUMP JUMPDEST PUSH1 0x40 DUP3 ADD SWAP1 POP SWAP2 SWAP1 POP JUMP JUMPDEST PUSH1 0x0 PUSH2 0x2C6E PUSH1 0x1E DUP4 PUSH2 0x321B JUMP JUMPDEST SWAP2 POP PUSH2 0x2C79 DUP3 PUSH2 0x34EF JUMP JUMPDEST PUSH1 0x20 DUP3 ADD SWAP1 POP SWAP2 SWAP1 POP JUMP JUMPDEST PUSH1 0x0 PUSH2 0x2C91 PUSH1 0x22 DUP4 PUSH2 0x321B JUMP JUMPDEST SWAP2 POP PUSH2 0x2C9C DUP3 PUSH2 0x3518 JUMP JUMPDEST PUSH1 0x40 DUP3 ADD SWAP1 POP SWAP2 SWAP1 POP JUMP JUMPDEST PUSH1 0x0 PUSH2 0x2CB4 PUSH1 0x16 DUP4 PUSH2 0x321B JUMP JUMPDEST SWAP2 POP PUSH2 0x2CBF DUP3 PUSH2 0x3567 JUMP JUMPDEST PUSH1 0x20 DUP3 ADD SWAP1 POP SWAP2 SWAP1 POP JUMP JUMPDEST PUSH1 0x0 PUSH2 0x2CD7 PUSH1 0x10 DUP4 PUSH2 0x321B JUMP JUMPDEST SWAP2 POP PUSH2 0x2CE2 DUP3 PUSH2 0x3590 JUMP JUMPDEST PUSH1 0x20 DUP3 ADD SWAP1 POP SWAP2 SWAP1 POP JUMP JUMPDEST PUSH1 0x0 PUSH2 0x2CFA PUSH1 0x16 DUP4 PUSH2 0x321B JUMP JUMPDEST SWAP2 POP PUSH2 0x2D05 DUP3 PUSH2 0x35B9 JUMP JUMPDEST PUSH1 0x20 DUP3 ADD SWAP1 POP SWAP2 SWAP1 POP JUMP JUMPDEST PUSH1 0x0 PUSH2 0x2D1D PUSH1 0x32 DUP4 PUSH2 0x321B JUMP JUMPDEST SWAP2 POP PUSH2 0x2D28 DUP3 PUSH2 0x35E2 JUMP JUMPDEST PUSH1 0x40 DUP3 ADD SWAP1 POP SWAP2 SWAP1 POP JUMP JUMPDEST PUSH1 0x0 PUSH2 0x2D40 PUSH1 0x20 DUP4 PUSH2 0x321B JUMP JUMPDEST SWAP2 POP PUSH2 0x2D4B DUP3 PUSH2 0x3631 JUMP JUMPDEST PUSH1 0x20 DUP3 ADD SWAP1 POP SWAP2 SWAP1 POP JUMP JUMPDEST PUSH1 0x0 PUSH2 0x2D63 PUSH1 0xF DUP4 PUSH2 0x321B JUMP JUMPDEST SWAP2 POP PUSH2 0x2D6E DUP3 PUSH2 0x365A JUMP JUMPDEST PUSH1 0x20 DUP3 ADD SWAP1 POP SWAP2 SWAP1 POP JUMP JUMPDEST PUSH1 0x0 PUSH2 0x2D86 PUSH1 0x1F DUP4 PUSH2 0x321B JUMP JUMPDEST SWAP2 POP PUSH2 0x2D91 DUP3 PUSH2 0x3683 JUMP JUMPDEST PUSH1 0x20 DUP3 ADD SWAP1 POP SWAP2 SWAP1 POP JUMP JUMPDEST PUSH2 0x2DA5 DUP2 PUSH2 0x337F JUMP JUMPDEST DUP3 MSTORE POP POP JUMP JUMPDEST PUSH1 0x0 PUSH1 0x20 DUP3 ADD SWAP1 POP PUSH2 0x2DC0 PUSH1 0x0 DUP4 ADD DUP5 PUSH2 0x2BB2 JUMP JUMPDEST SWAP3 SWAP2 POP POP JUMP JUMPDEST PUSH1 0x0 PUSH1 0x60 DUP3 ADD SWAP1 POP PUSH2 0x2DDB PUSH1 0x0 DUP4 ADD DUP7 PUSH2 0x2BB2 JUMP JUMPDEST PUSH2 0x2DE8 PUSH1 0x20 DUP4 ADD DUP6 PUSH2 0x2BB2 JUMP JUMPDEST PUSH2 0x2DF5 PUSH1 0x40 DUP4 ADD DUP5 PUSH2 0x2D9C JUMP JUMPDEST SWAP5 SWAP4 POP POP POP POP JUMP JUMPDEST PUSH1 0x0 PUSH1 0xA0 DUP3 ADD SWAP1 POP PUSH2 0x2E12 PUSH1 0x0 DUP4 ADD DUP9 PUSH2 0x2BB2 JUMP JUMPDEST PUSH2 0x2E1F PUSH1 0x20 DUP4 ADD DUP8 PUSH2 0x2BEE JUMP JUMPDEST PUSH2 0x2E2C PUSH1 0x40 DUP4 ADD DUP7 PUSH2 0x2BC1 JUMP JUMPDEST PUSH2 0x2E39 PUSH1 0x60 DUP4 ADD DUP6 PUSH2 0x2D9C JUMP JUMPDEST PUSH2 0x2E46 PUSH1 0x80 DUP4 ADD DUP5 PUSH2 0x2D9C JUMP JUMPDEST SWAP7 SWAP6 POP POP POP POP POP POP JUMP JUMPDEST PUSH1 0x0 PUSH1 0xA0 DUP3 ADD SWAP1 POP PUSH2 0x2E65 PUSH1 0x0 DUP4 ADD DUP9 PUSH2 0x2BB2 JUMP JUMPDEST PUSH2 0x2E72 PUSH1 0x20 DUP4 ADD DUP8 PUSH2 0x2BEE JUMP JUMPDEST PUSH2 0x2E7F PUSH1 0x40 DUP4 ADD DUP7 PUSH2 0x2D9C JUMP JUMPDEST PUSH2 0x2E8C PUSH1 0x60 DUP4 ADD DUP6 PUSH2 0x2D9C JUMP JUMPDEST PUSH2 0x2E99 PUSH1 0x80 DUP4 ADD DUP5 PUSH2 0x2D9C JUMP JUMPDEST SWAP7 SWAP6 POP POP POP POP POP POP JUMP JUMPDEST PUSH1 0x0 PUSH1 0xA0 DUP3 ADD SWAP1 POP PUSH2 0x2EB8 PUSH1 0x0 DUP4 ADD DUP9 PUSH2 0x2BB2 JUMP JUMPDEST PUSH2 0x2EC5 PUSH1 0x20 DUP4 ADD DUP8 PUSH2 0x2BFD JUMP JUMPDEST PUSH2 0x2ED2 PUSH1 0x40 DUP4 ADD DUP7 PUSH2 0x2BC1 JUMP JUMPDEST PUSH2 0x2EDF PUSH1 0x60 DUP4 ADD DUP6 PUSH2 0x2D9C JUMP JUMPDEST PUSH2 0x2EEC PUSH1 0x80 DUP4 ADD DUP5 PUSH2 0x2D9C JUMP JUMPDEST SWAP7 SWAP6 POP POP POP POP POP POP JUMP JUMPDEST PUSH1 0x0 PUSH1 0xA0 DUP3 ADD SWAP1 POP PUSH2 0x2F0B PUSH1 0x0 DUP4 ADD DUP9 PUSH2 0x2BB2 JUMP JUMPDEST PUSH2 0x2F18 PUSH1 0x20 DUP4 ADD DUP8 PUSH2 0x2BFD JUMP JUMPDEST PUSH2 0x2F25 PUSH1 0x40 DUP4 ADD DUP7 PUSH2 0x2D9C JUMP JUMPDEST PUSH2 0x2F32 PUSH1 0x60 DUP4 ADD DUP6 PUSH2 0x2D9C JUMP JUMPDEST PUSH2 0x2F3F PUSH1 0x80 DUP4 ADD DUP5 PUSH2 0x2D9C JUMP JUMPDEST SWAP7 SWAP6 POP POP POP POP POP POP JUMP JUMPDEST PUSH1 0x0 PUSH1 0xA0 DUP3 ADD SWAP1 POP PUSH2 0x2F5E PUSH1 0x0 DUP4 ADD DUP9 PUSH2 0x2BB2 JUMP JUMPDEST PUSH2 0x2F6B PUSH1 0x20 DUP4 ADD DUP8 PUSH2 0x2C0C JUMP JUMPDEST PUSH2 0x2F78 PUSH1 0x40 DUP4 ADD DUP7 PUSH2 0x2BC1 JUMP JUMPDEST PUSH2 0x2F85 PUSH1 0x60 DUP4 ADD DUP6 PUSH2 0x2D9C JUMP JUMPDEST PUSH2 0x2F92 PUSH1 0x80 DUP4 ADD DUP5 PUSH2 0x2D9C JUMP JUMPDEST SWAP7 SWAP6 POP POP POP POP POP POP JUMP JUMPDEST PUSH1 0x0 PUSH1 0xA0 DUP3 ADD SWAP1 POP PUSH2 0x2FB1 PUSH1 0x0 DUP4 ADD DUP9 PUSH2 0x2BB2 JUMP JUMPDEST PUSH2 0x2FBE PUSH1 0x20 DUP4 ADD DUP8 PUSH2 0x2C0C JUMP JUMPDEST PUSH2 0x2FCB PUSH1 0x40 DUP4 ADD DUP7 PUSH2 0x2D9C JUMP JUMPDEST PUSH2 0x2FD8 PUSH1 0x60 DUP4 ADD DUP6 PUSH2 0x2D9C JUMP JUMPDEST PUSH2 0x2FE5 PUSH1 0x80 DUP4 ADD DUP5 PUSH2 0x2D9C JUMP JUMPDEST SWAP7 SWAP6 POP POP POP POP POP POP JUMP JUMPDEST PUSH1 0x0 PUSH1 0x40 DUP3 ADD SWAP1 POP PUSH2 0x3004 PUSH1 0x0 DUP4 ADD DUP6 PUSH2 0x2BB2 JUMP JUMPDEST PUSH2 0x3011 PUSH1 0x20 DUP4 ADD DUP5 PUSH2 0x2D9C JUMP JUMPDEST SWAP4 SWAP3 POP POP POP JUMP JUMPDEST PUSH1 0x0 PUSH1 0x20 DUP3 ADD SWAP1 POP PUSH2 0x302D PUSH1 0x0 DUP4 ADD DUP5 PUSH2 0x2BC1 JUMP JUMPDEST SWAP3 SWAP2 POP POP JUMP JUMPDEST PUSH1 0x0 PUSH1 0x20 DUP3 ADD SWAP1 POP PUSH2 0x3048 PUSH1 0x0 DUP4 ADD DUP5 PUSH2 0x2BD0 JUMP JUMPDEST SWAP3 SWAP2 POP POP JUMP JUMPDEST PUSH1 0x0 PUSH1 0x20 DUP3 ADD SWAP1 POP PUSH2 0x3063 PUSH1 0x0 DUP4 ADD DUP5 PUSH2 0x2BDF JUMP JUMPDEST SWAP3 SWAP2 POP POP JUMP JUMPDEST PUSH1 0x0 PUSH1 0x20 DUP3 ADD SWAP1 POP DUP2 DUP2 SUB PUSH1 0x0 DUP4 ADD MSTORE PUSH2 0x3082 DUP2 PUSH2 0x2C1B JUMP JUMPDEST SWAP1 POP SWAP2 SWAP1 POP JUMP JUMPDEST PUSH1 0x0 PUSH1 0x20 DUP3 ADD SWAP1 POP DUP2 DUP2 SUB PUSH1 0x0 DUP4 ADD MSTORE PUSH2 0x30A2 DUP2 PUSH2 0x2C3E JUMP JUMPDEST SWAP1 POP SWAP2 SWAP1 POP JUMP JUMPDEST PUSH1 0x0 PUSH1 0x20 DUP3 ADD SWAP1 POP DUP2 DUP2 SUB PUSH1 0x0 DUP4 ADD MSTORE PUSH2 0x30C2 DUP2 PUSH2 0x2C61 JUMP JUMPDEST SWAP1 POP SWAP2 SWAP1 POP JUMP JUMPDEST PUSH1 0x0 PUSH1 0x20 DUP3 ADD SWAP1 POP DUP2 DUP2 SUB PUSH1 0x0 DUP4 ADD MSTORE PUSH2 0x30E2 DUP2 PUSH2 0x2C84 JUMP JUMPDEST SWAP1 POP SWAP2 SWAP1 POP JUMP JUMPDEST PUSH1 0x0 PUSH1 0x20 DUP3 ADD SWAP1 POP DUP2 DUP2 SUB PUSH1 0x0 DUP4 ADD MSTORE PUSH2 0x3102 DUP2 PUSH2 0x2CA7 JUMP JUMPDEST SWAP1 POP SWAP2 SWAP1 POP JUMP JUMPDEST PUSH1 0x0 PUSH1 0x20 DUP3 ADD SWAP1 POP DUP2 DUP2 SUB PUSH1 0x0 DUP4 ADD MSTORE PUSH2 0x3122 DUP2 PUSH2 0x2CCA JUMP JUMPDEST SWAP1 POP SWAP2 SWAP1 POP JUMP JUMPDEST PUSH1 0x0 PUSH1 0x20 DUP3 ADD SWAP1 POP DUP2 DUP2 SUB PUSH1 0x0 DUP4 ADD MSTORE PUSH2 0x3142 DUP2 PUSH2 0x2CED JUMP JUMPDEST SWAP1 POP SWAP2 SWAP1 POP JUMP JUMPDEST PUSH1 0x0 PUSH1 0x20 DUP3 ADD SWAP1 POP DUP2 DUP2 SUB PUSH1 0x0 DUP4 ADD MSTORE PUSH2 0x3162 DUP2 PUSH2 0x2D10 JUMP JUMPDEST SWAP1 POP SWAP2 SWAP1 POP JUMP JUMPDEST PUSH1 0x0 PUSH1 0x20 DUP3 ADD SWAP1 POP DUP2 DUP2 SUB PUSH1 0x0 DUP4 ADD MSTORE PUSH2 0x3182 DUP2 PUSH2 0x2D33 JUMP JUMPDEST SWAP1 POP SWAP2 SWAP1 POP JUMP JUMPDEST PUSH1 0x0 PUSH1 0x20 DUP3 ADD SWAP1 POP DUP2 DUP2 SUB PUSH1 0x0 DUP4 ADD MSTORE PUSH2 0x31A2 DUP2 PUSH2 0x2D56 JUMP JUMPDEST SWAP1 POP SWAP2 SWAP1 POP JUMP JUMPDEST PUSH1 0x0 PUSH1 0x20 DUP3 ADD SWAP1 POP DUP2 DUP2 SUB PUSH1 0x0 DUP4 ADD MSTORE PUSH2 0x31C2 DUP2 PUSH2 0x2D79 JUMP JUMPDEST SWAP1 POP SWAP2 SWAP1 POP JUMP JUMPDEST PUSH1 0x0 PUSH1 0x20 DUP3 ADD SWAP1 POP PUSH2 0x31DE PUSH1 0x0 DUP4 ADD DUP5 PUSH2 0x2D9C JUMP JUMPDEST SWAP3 SWAP2 POP POP JUMP JUMPDEST PUSH1 0x0 PUSH1 0x60 DUP3 ADD SWAP1 POP PUSH2 0x31F9 PUSH1 0x0 DUP4 ADD DUP7 PUSH2 0x2D9C JUMP JUMPDEST PUSH2 0x3206 PUSH1 0x20 DUP4 ADD DUP6 PUSH2 0x2D9C JUMP JUMPDEST PUSH2 0x3213 PUSH1 0x40 DUP4 ADD DUP5 PUSH2 0x2D9C JUMP JUMPDEST SWAP5 SWAP4 POP POP POP POP JUMP JUMPDEST PUSH1 0x0 DUP3 DUP3 MSTORE PUSH1 0x20 DUP3 ADD SWAP1 POP SWAP3 SWAP2 POP POP JUMP JUMPDEST PUSH1 0x0 PUSH2 0x3237 DUP3 PUSH2 0x337F JUMP JUMPDEST SWAP2 POP PUSH2 0x3242 DUP4 PUSH2 0x337F JUMP JUMPDEST SWAP3 POP DUP3 PUSH32 0xFFFFFFFFFFFFFFFFFFFFFFFFFFFFFFFFFFFFFFFFFFFFFFFFFFFFFFFFFFFFFFFF SUB DUP3 GT ISZERO PUSH2 0x3277 JUMPI PUSH2 0x3276 PUSH2 0x3414 JUMP JUMPDEST JUMPDEST DUP3 DUP3 ADD SWAP1 POP SWAP3 SWAP2 POP POP JUMP JUMPDEST PUSH1 0x0 PUSH2 0x328D DUP3 PUSH2 0x337F JUMP JUMPDEST SWAP2 POP PUSH2 0x3298 DUP4 PUSH2 0x337F JUMP JUMPDEST SWAP3 POP DUP3 PUSH2 0x32A8 JUMPI PUSH2 0x32A7 PUSH2 0x3443 JUMP JUMPDEST JUMPDEST DUP3 DUP3 DIV SWAP1 POP SWAP3 SWAP2 POP POP JUMP JUMPDEST PUSH1 0x0 PUSH2 0x32BE DUP3 PUSH2 0x337F JUMP JUMPDEST SWAP2 POP PUSH2 0x32C9 DUP4 PUSH2 0x337F JUMP JUMPDEST SWAP3 POP DUP2 PUSH32 0xFFFFFFFFFFFFFFFFFFFFFFFFFFFFFFFFFFFFFFFFFFFFFFFFFFFFFFFFFFFFFFFF DIV DUP4 GT DUP3 ISZERO ISZERO AND ISZERO PUSH2 0x3302 JUMPI PUSH2 0x3301 PUSH2 0x3414 JUMP JUMPDEST JUMPDEST DUP3 DUP3 MUL SWAP1 POP SWAP3 SWAP2 POP POP JUMP JUMPDEST PUSH1 0x0 PUSH2 0x3318 DUP3 PUSH2 0x337F JUMP JUMPDEST SWAP2 POP PUSH2 0x3323 DUP4 PUSH2 0x337F JUMP JUMPDEST SWAP3 POP DUP3 DUP3 LT ISZERO PUSH2 0x3336 JUMPI PUSH2 0x3335 PUSH2 0x3414 JUMP JUMPDEST JUMPDEST DUP3 DUP3 SUB SWAP1 POP SWAP3 SWAP2 POP POP JUMP JUMPDEST PUSH1 0x0 PUSH2 0x334C DUP3 PUSH2 0x335F JUMP JUMPDEST SWAP1 POP SWAP2 SWAP1 POP JUMP JUMPDEST PUSH1 0x0 DUP2 ISZERO ISZERO SWAP1 POP SWAP2 SWAP1 POP JUMP JUMPDEST PUSH1 0x0 PUSH20 0xFFFFFFFFFFFFFFFFFFFFFFFFFFFFFFFFFFFFFFFF DUP3 AND SWAP1 POP SWAP2 SWAP1 POP JUMP JUMPDEST PUSH1 0x0 DUP2 SWAP1 POP SWAP2 SWAP1 POP JUMP JUMPDEST PUSH1 0x0 PUSH1 0xFF DUP3 AND SWAP1 POP SWAP2 SWAP1 POP JUMP JUMPDEST PUSH1 0x0 PUSH2 0x33A1 DUP3 PUSH2 0x33F0 JUMP JUMPDEST SWAP1 POP SWAP2 SWAP1 POP JUMP JUMPDEST PUSH1 0x0 PUSH2 0x33B3 DUP3 PUSH2 0x33F0 JUMP JUMPDEST SWAP1 POP SWAP2 SWAP1 POP JUMP JUMPDEST PUSH1 0x0 PUSH2 0x33C5 DUP3 PUSH2 0x3389 JUMP JUMPDEST SWAP1 POP SWAP2 SWAP1 POP JUMP JUMPDEST PUSH1 0x0 PUSH2 0x33D7 DUP3 PUSH2 0x3389 JUMP JUMPDEST SWAP1 POP SWAP2 SWAP1 POP JUMP JUMPDEST PUSH1 0x0 PUSH2 0x33E9 DUP3 PUSH2 0x3389 JUMP JUMPDEST SWAP1 POP SWAP2 SWAP1 POP JUMP JUMPDEST PUSH1 0x0 PUSH2 0x33FB DUP3 PUSH2 0x3402 JUMP JUMPDEST SWAP1 POP SWAP2 SWAP1 POP JUMP JUMPDEST PUSH1 0x0 PUSH2 0x340D DUP3 PUSH2 0x335F JUMP JUMPDEST SWAP1 POP SWAP2 SWAP1 POP JUMP JUMPDEST PUSH32 0x4E487B7100000000000000000000000000000000000000000000000000000000 PUSH1 0x0 MSTORE PUSH1 0x11 PUSH1 0x4 MSTORE PUSH1 0x24 PUSH1 0x0 REVERT JUMPDEST PUSH32 0x4E487B7100000000000000000000000000000000000000000000000000000000 PUSH1 0x0 MSTORE PUSH1 0x12 PUSH1 0x4 MSTORE PUSH1 0x24 PUSH1 0x0 REVERT JUMPDEST PUSH1 0x0 DUP1 REVERT JUMPDEST PUSH32 0x5061757361626C653A206E6F7420706175736564000000000000000000000000 PUSH1 0x0 DUP3 ADD MSTORE POP JUMP JUMPDEST PUSH32 0x4F776E61626C653A206E6577206F776E657220697320746865207A65726F2061 PUSH1 0x0 DUP3 ADD MSTORE PUSH32 0x6464726573730000000000000000000000000000000000000000000000000000 PUSH1 0x20 DUP3 ADD MSTORE POP JUMP JUMPDEST PUSH32 0x4E6F7420656E6F7567682062616C616E636520746F2077697468647261770000 PUSH1 0x0 DUP3 ADD MSTORE POP JUMP JUMPDEST PUSH32 0x596F7527726520616C726561647920696E2074686973205374616B65206C6576 PUSH1 0x0 DUP3 ADD MSTORE PUSH32 0x656C000000000000000000000000000000000000000000000000000000000000 PUSH1 0x20 DUP3 ADD MSTORE POP JUMP JUMPDEST PUSH32 0x55736572206973206E6F74206F6E204C6576656C203100000000000000000000 PUSH1 0x0 DUP3 ADD MSTORE POP JUMP JUMPDEST PUSH32 0x5061757361626C653A2070617573656400000000000000000000000000000000 PUSH1 0x0 DUP3 ADD MSTORE POP JUMP JUMPDEST PUSH32 0x55736572206973206E6F74206F6E204C6576656C203000000000000000000000 PUSH1 0x0 DUP3 ADD MSTORE POP JUMP JUMPDEST PUSH32 0x416D6F756E74206E6565647320746F206265206D6F7265207468616E206D696E PUSH1 0x0 DUP3 ADD MSTORE PUSH32 0x20616E64206C657373207468616E206D61780000000000000000000000000000 PUSH1 0x20 DUP3 ADD MSTORE POP JUMP JUMPDEST PUSH32 0x4F776E61626C653A2063616C6C6572206973206E6F7420746865206F776E6572 PUSH1 0x0 DUP3 ADD MSTORE POP JUMP JUMPDEST PUSH32 0x55736572206973206E6F74205669700000000000000000000000000000000000 PUSH1 0x0 DUP3 ADD MSTORE POP JUMP JUMPDEST PUSH32 0x596F7527726520616C726561647920696E2074686520566970205374616B6500 PUSH1 0x0 DUP3 ADD MSTORE POP JUMP JUMPDEST PUSH2 0x36B5 DUP2 PUSH2 0x3341 JUMP JUMPDEST DUP2 EQ PUSH2 0x36C0 JUMPI PUSH1 0x0 DUP1 REVERT JUMPDEST POP JUMP JUMPDEST PUSH2 0x36CC DUP2 PUSH2 0x3353 JUMP JUMPDEST DUP2 EQ PUSH2 0x36D7 JUMPI PUSH1 0x0 DUP1 REVERT JUMPDEST POP JUMP JUMPDEST PUSH2 0x36E3 DUP2 PUSH2 0x337F JUMP JUMPDEST DUP2 EQ PUSH2 0x36EE JUMPI PUSH1 0x0 DUP1 REVERT JUMPDEST POP JUMP JUMPDEST PUSH2 0x36FA DUP2 PUSH2 0x3389 JUMP JUMPDEST DUP2 EQ PUSH2 0x3705 JUMPI PUSH1 0x0 DUP1 REVERT JUMPDEST POP JUMP INVALID LOG2 PUSH5 0x6970667358 0x22 SLT KECCAK256 SWAP15 0x27 0xB9 SWAP2 SELFBALANCE MSTORE8 PUSH10 0x44B9C30B3B672E3A920B 0xCF AND 0xCC MSTORE 0xD 0xC5 SIGNEXTEND 0xD3 0xA7 PC 0xDF 0xEB 0xDC PUSH24 0x7964736F6C63430008070033000000000000000000000000 "
				},
				"gasEstimates": {
					"creation": {
						"codeDepositCost": "2828400",
						"executionCost": "infinite",
						"totalCost": "infinite"
					},
					"external": {
						"acceptedToken()": "2690",
						"enterLevel0(uint256)": "infinite",
						"enterLevel1(uint256)": "infinite",
						"enterVip(uint256)": "infinite",
						"getInterest(address,uint8,uint256)": "infinite",
						"isLevel0(address)": "2891",
						"isLevel1(address)": "2913",
						"isOnTime(address,uint8)": "3273",
						"isVip(address)": "2913",
						"level0APY()": "2475",
						"level0Balance(address)": "infinite",
						"level0Max()": "2540",
						"level0Min()": "2519",
						"level1APY()": "2542",
						"level1Balance(address)": "infinite",
						"level1Max()": "2496",
						"level1Min()": "2476",
						"levelVipMax()": "2474",
						"levelVipMin()": "2496",
						"owner()": "2634",
						"pause()": "infinite",
						"paused()": "2641",
						"renounceOwnership()": "30463",
						"reserveWallet()": "2603",
						"setNewAPY(uint256,uint256,uint256)": "infinite",
						"setNewMaxMin(uint256,uint256,uint256,uint256,uint256,uint256)": "infinite",
						"setReserveWallet(address)": "27073",
						"transferOwnership(address)": "30789",
						"uniswapV2Router()": "infinite",
						"unpause()": "infinite",
						"vipBalance(address)": "infinite",
						"vipLevelAPY()": "2475",
						"withdrawLevel0(uint256)": "infinite",
						"withdrawLevel1(uint256)": "infinite",
						"withdrawVip(uint256)": "infinite"
					},
					"internal": {
						"calculateInterest(uint256,uint256,uint256)": "infinite",
						"swapTokensForEth(uint256,address)": "infinite"
					}
				},
				"methodIdentifiers": {
					"acceptedToken()": "451c3d80",
					"enterLevel0(uint256)": "fe2981b5",
					"enterLevel1(uint256)": "1ed81ff8",
					"enterVip(uint256)": "bf01651a",
					"getInterest(address,uint8,uint256)": "69e06848",
					"isLevel0(address)": "6296e750",
					"isLevel1(address)": "635ef285",
					"isOnTime(address,uint8)": "f7edf9ab",
					"isVip(address)": "84203f4b",
					"level0APY()": "8275b181",
					"level0Balance(address)": "67911ba4",
					"level0Max()": "71a1609b",
					"level0Min()": "6505cf31",
					"level1APY()": "1ff08fee",
					"level1Balance(address)": "7fe509d7",
					"level1Max()": "d3900a52",
					"level1Min()": "01ef4739",
					"levelVipMax()": "8f0fb2b7",
					"levelVipMin()": "91789cef",
					"owner()": "8da5cb5b",
					"pause()": "8456cb59",
					"paused()": "5c975abb",
					"renounceOwnership()": "715018a6",
					"reserveWallet()": "d72b11bd",
					"setNewAPY(uint256,uint256,uint256)": "e5d15701",
					"setNewMaxMin(uint256,uint256,uint256,uint256,uint256,uint256)": "f4217e1e",
					"setReserveWallet(address)": "dda4fa8f",
					"transferOwnership(address)": "f2fde38b",
					"uniswapV2Router()": "1694505e",
					"unpause()": "3f4ba83a",
					"vipBalance(address)": "97e9c5fe",
					"vipLevelAPY()": "32938e3a",
					"withdrawLevel0(uint256)": "927e5998",
					"withdrawLevel1(uint256)": "bb664864",
					"withdrawVip(uint256)": "6636389e"
				}
			},
			"userdoc": {
				"kind": "user",
				"methods": {},
				"version": 1
			}
		}
	}
}